:020000040800F2
:1000000000000220C55C00089158000899580008BB
:10001000A1580008A9580008B158000800000000C5
:10002000000000000000000000000000B9580008B7
:10003000C758000800000000D5580008E358000821
:10004000155D0008155D0008155D0008155D0008C8
:10005000155D0008155D0008155D0008EF580008E3
:10006000155D0008155D0008155D0008155D0008A8
:10007000155D0008155D0008155D0008155D000898
:10008000155D0008155D0008155D00080000000002
:10009000000000000000000000000000155D0008E6
:1000A000155D0008FD580008155D0008155D000885
:1000B000155D0008155D0008155D0008155D000858
:1000C000155D0008155D0008155D0008155D000848
:1000D000155D0008155D0008155D000800000000B2
:1000E00011590008155D0008155D000800000000AA
:1000F000000000000000000000000000155D000886
:1001000000000000155D0008155D0008155D000881
:1001100000000000000000000000000000000000DF
:10012000155D0008155D0008155D0008155D0008E7
:10013000155D000800000000000000000000000045
:10014000000000000000000000000000155D000835
:10015000155D0008155D0008155D000821590008AF
:10016000155D0008155D000800000000000000009B
:10017000000000000000000000000000000000007F
:1001800000000000155D00080000000000000000F5
:08019000155D0008155D000873
:1001A00010B5054C237833B9044B13B10448AFF3B1
:1001B00000800123237010BD080200200000000011
:1001C000E0D1000808B5034B1BB103490348AFF366
:1001D000008008BD000000000C020020E0D10008F3
:1001E00001F0FF01102A2BDB10F0070F08D010F8E8
:1001F000013B013A8B422DD010F0070F42B3F6D1EC
:10020000F0B441EA012141EA014122F007047FF004
:1002100000070023F0E80256083C85EA010586EA5B
:10022000010685FA47F5A3FA87F586FA47F6A5FA97
:1002300087F68EB9EED1F0BC01F0FF0102F00702A3
:1002400032B110F8013B013A83EA010313B1F8D14E
:100250000020704701387047002D06BF354603382F
:10026000073815F0010F07D1013015F4807F02BF68
:10027000013015F4C03F0130F0BC0138704700BFB9
:10028000034613F8012B002AFBD1181A01387047D6
:1002900081F0004102E000BF83F0004330B54FEA37
:1002A00041044FEA430594EA050F08BF90EA020FA4
:1002B0001FBF54EA000C55EA020C7FEA645C7FEA37
:1002C000655C00F0E2804FEA5454D4EB5555B8BF5A
:1002D0006D420CDD2C4480EA020281EA030382EACB
:1002E000000083EA010180EA020281EA0303362D5D
:1002F00088BF30BD11F0004F4FEA01314FF4801C30
:100300004CEA113102D0404261EB410113F0004F41
:100310004FEA03334CEA133302D0524263EB4303F8
:1003200094EA050F00F0A780A4F10104D5F1200E96
:100330000DDB02FA0EFC22FA05F2801841F10001F1
:1003400003FA0EF2801843FA05F359410EE0A5F1C5
:1003500020050EF1200E012A03FA0EFC28BF4CF0F6
:10036000020C43FA05F3C01851EBE37101F00045AC
:1003700007D54FF0000EDCF1000C7EEB00006EEBB9
:100380000101B1F5801F1BD3B1F5001F0CD3490843
:100390005FEA30004FEA3C0C04F101044FEA44529A
:1003A00012F5800F80F09A80BCF1004F08BF5FEA21
:1003B000500C50F1000041EB045141EA050130BD01
:1003C0005FEA4C0C404141EB0101013C28BFB1F513
:1003D000801FE9D291F0000F04BF01460020B1FA5E
:1003E00081F308BF2033A3F10B03B3F120020CDA31
:1003F0000C3208DD02F1140CC2F10C0201FA0CF00F
:1004000021FA02F10CE002F11402D8BFC2F1200C73
:1004100001FA02F120FA0CFCDCBF41EA0C01904029
:10042000E41AA2BF01EB0451294330BD6FEA040472
:100430001F3C1CDA0C340EDC04F11404C4F120025D
:1004400020FA04F001FA02F340EA030021FA04F36F
:1004500045EA030130BDC4F10C04C4F1200220FAC6
:1004600002F001FA04F340EA0300294630BD21FA04
:1004700004F0294630BD94F0000F83F4801306BFCA
:1004800081F480110134013D4EE77FEA645C18BFBE
:100490007FEA655C29D094EA050F08BF90EA020F55
:1004A00005D054EA000C04BF1946104630BD91EA4D
:1004B000030F1EBF0021002030BD5FEA545C05D150
:1004C0004000494128BF41F0004130BD14F580048F
:1004D0003CBF01F5801130BD01F0004545F0FE4103
:1004E00041F470014FF0000030BD7FEA645C1ABF38
:1004F000194610467FEA655C1CBF0B46024650EA6F
:10050000013406BF52EA033591EA030F41F400219A
:1005100030BD00BF90F0000F04BF0021704730B520
:100520004FF4806404F132044FF000054FF00001F5
:1005300050E700BF90F0000F04BF0021704730B5B6
:100540004FF4806404F1320410F0004548BF40428B
:100550004FF000013EE700BF42004FEAE2014FEAE0
:1005600031014FEA02701FBF12F07F4393F07F4FBB
:1005700081F06051704732F07F4208BF704793F0BE
:100580007F4F04BF41F40021704730B54FF46074D1
:1005900001F0004521F000411CE700BF50EA0102D4
:1005A00008BF704730B54FF000050AE050EA01027D
:1005B00008BF704730B511F0004502D5404261EBED
:1005C00041014FF4806404F132045FEA915C3FF42E
:1005D000D8AE4FF003025FEADC0C18BF03325FEACB
:1005E000DC0C18BF033202EBDC02C2F1200300FA7C
:1005F00003FC20FA02F001FA03FE40EA0E0021FAA1
:1006000002F11444BDE600BF70B54FF0FF0C4CF48E
:10061000E06C1CEA11541DBF1CEA135594EA0C0F40
:1006200095EA0C0F00F0DEF82C4481EA030621EA7B
:100630004C5123EA4C5350EA013518BF52EA0335B6
:1006400041F4801143F4801338D0A0FB02CE4FF068
:100650000005E1FB02E506F00042E0FB03E54FF098
:100660000006E1FB03569CF0000F18BF4EF0010E90
:10067000A4F1FF04B6F5007F64F5407404D25FEA8C
:100680004E0E6D4146EB060642EAC62141EA55513F
:100690004FEAC52040EA5E504FEACE2EB4F1FD0C81
:1006A00088BFBCF5E06F1ED8BEF1004F08BF5FEAFF
:1006B000500E50F1000041EB045170BD06F00046B1
:1006C00046EA010140EA020081EA0301B4EB5C045E
:1006D000C2BFD4EB0C0541EA045170BD41F4801156
:1006E0004FF0000E013C00F3AB8014F1360FDEBF7B
:1006F000002001F0004170BDC4F10004203C35DA57
:100700000C341BDC04F11404C4F1200500FA05F3D9
:1007100020FA04F001FA05F240EA020001F000427A
:1007200021F0004110EBD37021FA04F642EB0601F0
:100730005EEA430E08BF20EAD37070BDC4F10C041A
:10074000C4F1200500FA04F320FA05F001FA04F2DE
:1007500040EA020001F0004110EBD37041F10001CA
:100760005EEA430E08BF20EAD37070BDC4F12005D5
:1007700000FA05F24EEA020E20FA04F301FA05F23D
:1007800043EA020321FA04F001F0004121FA04F2E5
:1007900020EA020000EBD3705EEA430E08BF20EAB5
:1007A000D37070BD94F0000F0FD101F000464000EF
:1007B00041EB010111F4801F08BF013CF7D041EA71
:1007C000060195F0000F18BF704703F00046520075
:1007D00043EB030313F4801F08BF013DF7D043EA46
:1007E0000603704794EA0C0F0CEA135518BF95EAFC
:1007F0000C0F0CD050EA410618BF52EA4306D1D183
:1008000081EA030101F000414FF0000070BD50EAA1
:10081000410606BF1046194652EA430619D094EA2B
:100820000C0F02D150EA013613D195EA0C0F05D115
:1008300052EA03361CBF104619460AD181EA030169
:1008400001F0004141F0FE4141F470014FF0000021
:1008500070BD41F0FE4141F4780170BD70B54FF0BC
:10086000FF0C4CF4E06C1CEA11541DBF1CEA13553C
:1008700094EA0C0F95EA0C0F00F0A7F8A4EB05041E
:1008800081EA030E52EA03354FEA013100F0888015
:100890004FEA03334FF0805545EA131343EA1263DE
:1008A0004FEA022245EA111545EA10654FEA002693
:1008B0000EF000419D4208BF964244F1FD0404F54C
:1008C000407402D25B084FEA3202B61A65EB0305A8
:1008D0005B084FEA32024FF480104FF4002CB6EB65
:1008E000020E75EB030E22BFB61A754640EA0C00E5
:1008F0005B084FEA3202B6EB020E75EB030E22BF25
:10090000B61A754640EA5C005B084FEA3202B6EB65
:10091000020E75EB030E22BFB61A754640EA9C0024
:100920005B084FEA3202B6EB020E75EB030E22BFF4
:10093000B61A754640EADC0055EA060E18D04FEAB2
:10094000051545EA16754FEA06164FEAC30343EA52
:1009500052734FEAC2025FEA1C1CC0D111F4801F1F
:100960000BD141EA00014FF000004FF0004CB6E718
:1009700011F4801F04BF01430020B4F1FD0C88BFB7
:10098000BCF5E06F3FF6AFAEB5EB030C04BFB6EBC2
:10099000020C5FEA500C50F1000041EB045170BDB5
:1009A0000EF0004E4EEA113114EB5C04C2BFD4EBE2
:1009B0000C0541EA045170BD41F480114FF0000E66
:1009C000013C90E645EA060E8DE60CEA135594EAE2
:1009D0000C0F08BF95EA0C0F3FF43BAF94EA0C0FE5
:1009E0000AD150EA01347FF434AF95EA0C0F7FF45A
:1009F00025AF104619462CE795EA0C0F06D152EAAE
:100A000003353FF4FDAE1046194622E750EA410691
:100A100018BF52EA43067FF4C5AE50EA41047FF4A2
:100A20000DAF52EA43057FF4EBAE12E74FF0FF3C07
:100A300006E000BF4FF0010C02E000BF4FF0010CD8
:100A40004DF804CD4FEA410C7FEA6C5C4FEA430C51
:100A500018BF7FEA6C5C1BD001B050EA410C0CBFA0
:100A600052EA430C91EA030F02BF90EA020F002002
:100A7000704710F1000F91EA030F58BF994208BF69
:100A800090422CBFD8176FEAE37040F00100704726
:100A90004FEA410C7FEA6C5C02D150EA013C07D17D
:100AA0004FEA430C7FEA6C5CD6D152EA033CD3D0C8
:100AB0005DF8040B704700BF8446104662468C46C2
:100AC0001946634600E000BF01B5FFF7B7FF0028F5
:100AD00048BF10F1000F01BD4DF808EDFFF7F4FF1E
:100AE0000CBF012000205DF808FB00BF4DF808EDA9
:100AF000FFF7EAFF34BF012000205DF808FB00BFCC
:100B00004DF808EDFFF7E0FF94BF012000205DF8ED
:100B100008FB00BF4DF808EDFFF7CEFF94BF0120A2
:100B200000205DF808FB00BF4DF808EDFFF7C4FF9B
:100B300034BF012000205DF808FB00BF4FEA410CE4
:100B40007FEA6C5C02D150EA013C0AD14FEA430CC7
:100B50007FEA6C5C02D152EA033C02D14FF0000004
:100B600070474FF0010070474FEA410212F5001242
:100B700015D211D56FF47873B3EB625212D94FEAE4
:100B8000C12343F0004343EA505311F0004F23FACE
:100B900002F018BF404270474FF00000704750EA23
:100BA000013005D111F0004008BF6FF000407047E0
:100BB0004FF00000704700BF53B94AB9002908BF81
:100BC00000281CBF4FF0FF314FF0FF3000F088B914
:100BD000ADF1080C6DE904CE00F006F8DDF804E094
:100BE000DDE9022304B070472DE9F047089D8E46E9
:100BF00004468846002B4AD18A42174662D9B2FA87
:100C000082F64EB1C6F1200301FA06F820FA03F38A
:100C1000B74043EA0808B4404FEA174E1FFA87FC72
:100C2000B8FBFEF1230C0EFB118843EA084301FBDD
:100C30000CF29A4209D9FB1801F1FF3080F0EA80EA
:100C40009A4240F2E78002393B449A1AA3B2B2FBBF
:100C5000FEF00EFB102243EA024300FB0CFC9C4515
:100C600009D9FB1800F1FF3280F0D6809C4540F294
:100C7000D3803B44023840EA0140A3EB0C0300213F
:100C80001DB1F3400022C5E90032BDE8F0878B4278
:100C900005D90DB1C5E9000100210846F5E7B3FA11
:100CA00083F1002946D1734502D3824200F20581C7
:100CB000841A6EEB030201209046002DE5D0C5E9B1
:100CC0000048E2E7002A00F09080B2FA82F6002E97
:100CD00040F0A4808A1A030C4FEA174E80B2BCB2CF
:100CE0000121B2FBFEFC0EFB1C2243EA024304FB83
:100CF0000CF29A4207D9FB180CF1FF3802D29A4243
:100D000000F2E080C4469B1AB3FBFEF20EFB1233E6
:100D100040EA034302FB04F49C4207D9FB1802F1AA
:100D2000FF3002D29C4200F2CA8002461B1B42EAFC
:100D30000C40A5E7C1F120068B4022FA06F71F43BD
:100D40000EFA01F420FA06F32EFA06FE4FEA1749CE
:100D5000234300FA01F81FFA87FCBEFBF9F01C0CD4
:100D600009FB10EE44EA0E4400FB0CFEA64502FA15
:100D700001F209D93C1900F1FF3A80F09C80A645A8
:100D800040F2998002383C44A4EB0E041FFA83FE23
:100D9000B4FBF9F309FB13444EEA044403FB0CFCD7
:100DA000A44508D93C1903F1FF3E80F08280A44598
:100DB0007FD9023B3C4443EA0040A4EB0C04A0FB77
:100DC00002EC64457346E14662D35FD05DB1B8EB97
:100DD000030264EB090404FA06F622FA01F31E4347
:100DE000CC40C5E9006400214FE7B1FBF2FC010CE7
:100DF00041EA0E4180B240EA01423B4638463C4659
:100E0000B846BE462026B1FBF7F1A2EB080241EA44
:100E10000C4166E7014618E710462CE7C6F12002B0
:100E20002EFA02F3B740B14020FA02F24FEA174E11
:100E30000A43B3FBFEF8BCB20EFB1833110C41EAB7
:100E4000034108FB04F9B04089454FEA104380B2E2
:100E50003ED9791808F1FF3C01D289451FD8A1EB92
:100E60000901B1FBFEF909FB04F80EFB191192B25E
:100E700042EA0142424529D2BA1809F1FF31C4D2EF
:100E80004245C2D2A9F102013A44BEE7F0459DD2E3
:100E9000BEEB02036CEB070C0138E14696E7A7EBCB
:100EA00009094944A8F1020CB1FBFEF909FB04F859
:100EB000DBE773467FE7504666E70846FDE63B44BE
:100EC000023A33E7ACF1020C3B441CE749469CE78D
:100ED000A1EB0901C446B1FBFEF909FB04F8C4E724
:100EE000704700BF80B584B000AF03460A46FB8060
:100EF0001346BB80FB88002B06D100F037F8BB8877
:100F0000184604F07BFF2AE0FB88164A92FBF3F3B5
:100F1000FB60FB68B3F5803F02D34FF6FF73FB60C5
:100F2000FB68132B01D81423FB600F4B1B68FA6876
:100F3000013ADA62FB68013B0B4AD3600A4B1B683B
:100F4000FA685208DA630821074807F0B3F9BB884A
:100F5000184604F053FF0821034807F05BFA1037E6
:100F6000BD4680BD00093D000803002080B500AFEC
:100F70000821024807F04EFA00BF80BD0803002098
:100F800080B500AFC82140F20B20FFF7ABFF322144
:100F90000020FFF7A7FFC82140F29320FFF7A2FF30
:100FA00032210020FFF79EFF4FF496714FF44470FA
:100FB000FFF798FF00BF80BD80B500AF96214FF4CA
:100FC0004470FFF78FFF32210020FFF78BFFC8210D
:100FD00040F21740FFF786FF00BF80BD80B500AF2D
:100FE000642140F20B20FFF77DFF642140F2932043
:100FF000FFF778FF64214FF44470FFF773FFC821B7
:1010000040F21740FFF76EFF64210020FFF76AFFF0
:10101000642140F21740FFF765FF64214FF44470EC
:10102000FFF760FF4FF4967140F21740FFF75AFF49
:1010300000BF80BD80B582B000AF00237B600AE0B6
:10104000C821DC20FFF74EFF64210020FFF74AFF94
:101050007B6801337B607B68022BF1DD00BF00BF42
:101060000837BD4680BD000080B5ADF5036D00AF0B
:10107000704800F099FC0023C7F82C3820E00023CA
:10108000C7F8283813E06C49D7F82C2813465B00C2
:1010900013449B00D7F8282813441B010B4442F249
:1010A0000F721A60D7F828380133C7F82838D7F8F4
:1010B00028380B2BE7DDD7F82C380133C7F82C384C
:1010C000D7F82C380B2BDADD002387F827385B4B59
:1010D0001A685B4B1968584813465B0013449B0021
:1010E0000B441B01034404331B78002B18D0534BD3
:1010F0001A68534B1968504813465B0013449B0011
:101100000B441B01034400221A60012387F827388F
:101110004A4B1B684A4A126819464A4800F05AFC72
:10112000494B1A68464B1968434813465B00134401
:101130009B000B441B01034404331B78002B18D085
:10114000414B1A683E4B19683B4813465B001344F9
:101150009B000B441B01034400221A60012387F803
:101160002738394B1B68364A12681946354800F053
:1011700031FC324B1A68354B19682F4813465B0017
:1011800013449B000B441B01034404331B78002BC6
:1011900018D02A4B1A682D4B1968274813465B0054
:1011A00013449B000B441B01034400221A600123DB
:1011B00087F82738214B1B68244A126819462148B2
:1011C00000F008FC204B1A68204B19681A48134697
:1011D0005B0013449B000B441B01034404331B7846
:1011E000002B18D0184B1A68184B19681248134670
:1011F0005B0013449B000B441B01034400221A6054
:10120000012387F82738104B1B68104A12681946CB
:101210000C4800F0DFFB97F8273883F00103DBB2BE
:10122000002B19D00A4800F0BFFB0A4B42F20F72A4
:101230001A60DAE1F8D1000870040020F0FD00081F
:10124000F4FD000834D20008F8FD0008FCFD000899
:1012500050D20008C00D00200023C7F8203800231A
:10126000C7F81C387B4B1A687B4B19687B481346C0
:101270005B0013449B000B441B01034404331B78A5
:10128000002B25D0734B1A68734B196873481346AB
:101290005B0013449B000B441B0103441B68002BA1
:1012A00016D16C4B196807F50363A3F58663D7F86D
:1012B0001C2843F82210D7F81C385A1CC7F81C28E1
:1012C000654A116807F50362A2F5036242F823102C
:1012D000634B1A68604B1968604813465B001344FF
:1012E0009B000B441B01034404331B78002B25D0C7
:1012F0005B4B1A68584B1968584813465B001344F7
:101300009B000B441B0103441B68002B16D1544B5C
:10131000196807F50363A3F58663D7F81C2843F81B
:101320002210D7F81C385A1CC7F81C284A4A1168E2
:1013300007F50362A2F5036242F82310454B1A68D1
:10134000484B1968454813465B0013449B000B4407
:101350001B01034404331B78002B25D03D4B1A6836
:10136000404B19683D4813465B0013449B000B44F7
:101370001B0103441B68002B16D1364B196807F577
:101380000363A3F58663D7F81C2843F82210D7F827
:101390001C385A1CC7F81C28324A116807F503622A
:1013A000A2F5036242F823102D4B1A682D4B1968E1
:1013B0002A4813465B0013449B000B441B01034463
:1013C00004331B78002B25D0254B1A68254B196850
:1013D000224813465B0013449B000B441B0103444B
:1013E0001B68002B16D11E4B196807F50363A3F584
:1013F0008663D7F81C2843F82210D7F81C385A1CEB
:10140000C7F81C28174A116807F50362A2F50362A2
:1014100042F823100023C7F81838D0E007F503631B
:10142000A3F58663D7F8202853F82230C7F8103880
:10143000D7F820385A1CC7F8202807F50362A2F510
:10144000036252F82330C7F80C380023C7F8143869
:10145000B0E000BFF0FD0008F4FD000870040020BB
:10146000F8FD0008FCFD0008624AD7F8143852F86D
:101470002330D7F810281344C7F808385E4AD7F845
:10148000143852F82330D7F80C281344C7F804381E
:10149000D7F80838002BC0F28880D7F808380B2B13
:1014A00000F38380D7F80438002B7EDBD7F80438AC
:1014B0000B2B7ADC5149D7F8082813465B001344FC
:1014C0009B00D7F8042813441B010B4404331B78FA
:1014D000002B6AD04949D7F8102813465B00134403
:1014E0009B00D7F80C2813441B01CA18D7F81438EE
:1014F000134405331B7883F00103DBB2002B54D077
:101500003E49D7F8102813465B0013449B00D7F8D8
:101510000C2813441B010B441B680133C7F8003827
:101520003649D7F8082813465B0013449B00D7F8C8
:10153000042813441B010B441B68D7F800289A4267
:1015400033DA2E49D7F8082813465B0013449B0072
:10155000D7F8042813441B010B44D7F800281A605D
:10156000D7F81C38FE2B1CDC07F50363A3F5866354
:10157000D7F81C28D7F8081843F82210D7F81C38D9
:101580005A1CC7F81C2807F50362A2F50362D7F8B6
:10159000041842F82310D7F818380133C7F8183860
:1015A00003E0174800F000FA09E0D7F814380133D7
:1015B000C7F81438D7F81438032B7FF755AFD7F88E
:1015C0002028D7F81C389A42FFF628AF0B4B1B682F
:1015D0000C4A13600B4B1B6819460B4800F0FAF9D4
:1015E000D7F81818094800F0F5F907F50367BD4664
:1015F00080BD00BFD0FD0008E0FD000870040020A1
:101600008CD20008C00D0020A0D20008E0D2000853
:1016100080B586B000AF734800F0C6F900237B6147
:101620009023BB6000233B611CE00023FB6013E0C0
:101630006D493A6913465B0013449B00FA681344F2
:101640001B010B4404331B78002B02D07B69013350
:101650007B61FB680133FB60FB680B2BE8DD3B69BA
:1016600001333B613B690B2BDFDD7B6907EE903A71
:10167000F8EEE76ABB6807EE903AB8EEE77AC6EE96
:10168000877A9FED5A7A67EE877AC7ED017A5848D4
:1016900000F08AF97868FEF75FFF02460B4655486E
:1016A00000F098F9BA687969534800F093F9534B00
:1016B0001B681946524800F08DF9524800F074F941
:1016C000514B1B6842F20E7293420CDC4E4B1B686E
:1016D00019464E4800F07EF94D4800F065F94D4836
:1016E00000F062F905E04C4800F05EF94B4800F06C
:1016F0005BF94B4800F058F9D7ED017A9FED497A34
:10170000F4EEC77AF1EE10FA0CD83F4B1B6842F2A8
:101710000E72934206DC444800F046F9434800F05C
:1017200043F925E0D7ED017A9FED417AF4EEC77ACF
:10173000F1EE10FA06D83F4800F036F93E4800F0C6
:1017400033F915E0D7ED017A9FED3C7AF4EEC77AD4
:10175000F1EE10FA06D83A4800F026F9394800F0C0
:1017600023F905E0384800F01FF9384800F01CF96B
:10177000374800F019F9D7ED017A9FED2A7AF4EE97
:10178000C77AF1EE10FA0FD81F4B1B6842F20E72A7
:10179000934209DC2F4800F007F92F4800F004F9C4
:1017A0002E4800F001F915E0D7ED017A9FED2C7A73
:1017B000F4EEC77AF1EE10FA06DD2A4800F0F4F8EC
:1017C000294800F0F1F805E0284800F0EDF8284835
:1017D00000F0EAF8274800F0E7F800BF1837BD46E8
:1017E00080BD00BF0CD30008700400200000C84278
:1017F0003CD3000858D300087CD30008BC0D00205F
:1018000094D30008BCD30008C00D0020DCD300082E
:101810000CD4000844D4000874D40008A4D40008F0
:10182000DCD4000800004842FCD4000824D500089D
:101830000000824260D5000884D500080000A04264
:10184000C8D50008E8D500081CD600083CD600081A
:101850007CD60008A4D60008E4D600080CD70008FF
:10186000000096423CD7000868D70008A8D70008B7
:10187000DCD7000814D8000880B584B000AF3E481B
:1018800000F092F83D4800F08FF80023FB6006E07E
:10189000F9683B4800F09EF8FB680133FB60FB6889
:1018A0000B2BF5DD374800F07FF80B23BB6049E0D8
:1018B000B968354800F08EF800237B6039E0334981
:1018C0007A6813465B0013449B00BA6813441B01FB
:1018D0000B4404331B7883F00103DBB2002B03D0ED
:1018E0002B4800F061F821E028497A6813465B0034
:1018F00013449B00BA6813441B010B441B6842F25B
:101900000F72934203D1234800F04EF80EE01F49B6
:101910007A6813465B0013449B00BA6813441B01AA
:101920000B441B681946164800F054F87B680133D5
:101930007B607B680B2BC2DD124800F035F8BB687A
:10194000013BBB60BB68002BB2DA134B1B6842F251
:101950000E72934206DC104B1B6819460F4800F0CC
:1019600039F802E00E4800F01FF80E4800F01CF8AD
:1019700000BF1037BD4680BD40D8000878D80008A9
:101980007CD8000880D8000884D8000870040020A3
:101990008CD8000890D80008C00D002098D8000806
:1019A000CCD80008FCD8000880B582B000AF7860C1
:1019B0007868FEF765FC03469AB24FF47A7379684B
:1019C000034807F061FD00BF0837BD4680BD00BF7A
:1019D000280400200FB480B5C2B000AF07F58A72AA
:1019E00007F58473A3F582731A6007F58473A3F572
:1019F000827307F108001B68D7F810214FF480713B
:101A000009F094FA07F108031846FFF7CDFF00BF6D
:101A100007F58477BD46BDE8804004B070470000FC
:101A200080B584B002AF164B1B8807EE903AF8EEF3
:101A3000E77A9FED147A27EE877ADFED136AC7EE17
:101A4000267AC7ED017A7868FEF786FD02460B46D6
:101A50000B49098800910D48FFF7BCFF084B1B8814
:101A600040F6B732934203D80948FFF79DFF02E0E2
:101A70000848FFF799FF00BF0837BD4680BD00BF8B
:101A8000840D0020333353400000804558DF0008A8
:101A900070DF00088CDF000880B500AF0B48FFF74F
:101AA00083FF0B48FFF796FF0A48FFF793FF0A48AA
:101AB000FFF790FF0948FFF78DFF0948FFF78AFFFE
:101AC0000848FFF771FF00BF80BD00BF94DF00082A
:101AD000BCDF0008F0DF000810E000083CE0000870
:101AE00068E000089CE0000880B485B000AF87ED96
:101AF000030AC7ED020A87ED011A97ED037AD7EDC5
:101B0000027AB4EEE77AF1EE10FA01D5BB680BE089
:101B100097ED037AD7ED017AB4EEE77AF1EE10FA99
:101B200001DD7B6800E0FB6807EE903AB0EE670AE3
:101B30001437BD465DF8047B7047000080B500AFE8
:101B4000084B4FF000021A60074B4FF000021A607A
:101B5000064B4FF000021A600548FFF725FF00BF53
:101B600080BD00BF280200202C020020300200208F
:101B7000C4E000082DE9B0438AB004AF786187ED76
:101B8000040AC7ED030A87ED021AC7ED011AD7ED63
:101B9000030A97ED040A786903F0C8FF7B69BA6805
:101BA0005A603869FEF7D8FC80468946F868FEF727
:101BB000D3FC04460D46B868FEF7CEFC02460B4641
:101BC000CDE90223CDE9004542464B460348FFF7E5
:101BD00001FF00BF1837BD46BDE8B083D8E000085C
:101BE00080B584B000AF87ED010AD7ED017A9FED93
:101BF0000F7A67EE877AC7ED037ADFED0D7AF8EE9C
:101C0000677AB0EE671ADFED0B0A97ED030AFFF76C
:101C10006BFFF0EE407AFCEEE77A17EE903A7B81AC
:101C20007B8918461037BD4680BD00BFABAAAA3FCE
:101C3000E80300000000000080B485B000AF87ED2D
:101C4000030AB86079603A60D7ED037A9FED2D7A88
:101C5000F4EEC77AF1EE10FA14D5BB68D3ED007A32
:101C60009FED297A67EE877ABB68C3ED007A7B68BF
:101C7000D3ED007A9FED257A67EE877A7B68C3ED16
:101C8000007A38E0D7ED037A9FED217AF4EEC77A37
:101C9000F1EE10FA00DC2EE0BB68D3ED007A9FED88
:101CA0001D7A67EE877ABB68C3ED007A7B68D3ED57
:101CB000007A9FED197A67EE877A7B68C3ED007A28
:101CC000BB68D3ED007A9FED157AF4EEC77AF1EE9A
:101CD00010FA02DDBB68124A1A607B68D3ED007A05
:101CE0009FED107AF4EEC77AF1EE10FA00DC02E014
:101CF0007B680D4A1A6000BF1437BD465DF8047B4F
:101D0000704700BF0000B4423333333FCDCC4C3F6B
:101D10000000B4439A99993FCDCC8C3F00004844D1
:101D20000000484400401C4500401C45B0B5A2B02E
:101D300004AF87ED010AC7ED000A7868FEF70CFCD6
:101D400004460D463868FEF707FC02460B46CDE90F
:101D5000002322462B46BF48FFF73CFEBE4B1A68C5
:101D6000BD4B9B68BD4951F8233013443B66BA4BC9
:101D70005A68B94B9B68BA4951F823301344FB6544
:101D80003B6E002B08DB3B6E0B2B05DCFB6D002B49
:101D900002DBFB6D0B2B03DDB248FFF705FED2E142
:101DA000D7ED007A9FEDB07A67EE877AC7ED057AB6
:101DB000AE4B3B61AE4BFB6007F10C0207F110012B
:101DC00007F11403184697ED010AFFF735FFD7ED29
:101DD000057A97ED047AD7ED036AF0EE661AB0EE55
:101DE000471AF0EE670A97ED010AA248FFF7C2FE14
:101DF00002F0DAFAB86502F0E1FA7865FFF79EFEC4
:101E00009D4B3B654FF000037B679C4BFB640023BD
:101E10003B674FF47A73BB646FE13B6F01333B6701
:101E2000944803F0B5FE934803F026FF87ED110AAE
:101E300097ED110AFFF7D4FE0346A7F8423002F0EF
:101E4000B3FAF86302F0BAFAB863FA6BBB6DD31A4F
:101E50007B63BA6B7B6DD31A3B637A6B3B6B13442A
:101E6000DA0F13445B10FB62FB6A07EE903AF8EE60
:101E7000E77A9FED837A67EE877AC7ED0A7A97ED66
:101E80000A7AD7ED017AB4EEE77AF1EE10FA08DBC0
:101E9000B86AFEF761FB02460B467A48FFF79AFDE7
:101EA00039E14FF00003FB6600F004FC0346002B11
:101EB00000F0A18000F00AFC00F0CEFB87ED090ADB
:101EC000B7EE007AD7ED137A37EE677AD7ED1D7A41
:101ED00027EE277AD7ED136AD7ED097A66EEA77A4F
:101EE00077EE277AC7ED1D7A97ED1D7AD7ED147A34
:101EF00027EE277A644BD3ED007A77EE277A624B90
:101F0000C3ED007A604BD3ED007AF1EE677AC7ED4E
:101F1000087A97ED087AD7ED147A27EE277A5B4B8B
:101F2000D3ED007A77EE277A584BC3ED007A574B02
:101F3000D3ED007A9FED567AB1EE477ADFED546A21
:101F4000B0EE661AF0EE470AB0EE670AFFF7CCFD76
:101F5000F0EE407A4D4BC3ED007A4E4BD3ED007A54
:101F600097ED087A77EE676A97ED147AC6EE877A6E
:101F7000C7ED077A474A3B6A1360474B93ED007AF7
:101F8000D7ED087A27EE277A444BD3ED006A3F4B12
:101F9000D3ED007A66EEA77A37EE277A404BD3ED81
:101FA000006AD7ED077A66EEA77A77EE277AC7ED53
:101FB0001B7A396F3B4BA3FB01235A0913469B0045
:101FC0001344DB00CA1A002A15D12F4B1B68184690
:101FD000FEF7C2FA04460D46F86EFEF7BDFA024659
:101FE0000B46B7F842100291CDE9002322462B465A
:101FF0002D48FFF7EFFCFB6EBB61B7F84230D7ED21
:10200000067AFDEEE77A17EE902A9B1ABB66B7F8C0
:102010004230D7ED067AFDEEE77A17EE902A1344A8
:102020007B66D7ED117AB7EE007AF4EEC77AF1EE5F
:1020300010FA3BDD32231A46BB6E934201DA32239B
:10204000BB6632231A467B6E934233DA32237B66B9
:1020500030E000BF0CE10008700D0020D0FD00084A
:10206000E0FD00083CE10008000016440000FA44CE
:102070000000FA45340200200AD7A33B9A99993E02
:102080002392063E60E10008280200202C02002076
:1020900000004842300200200000002024020020FE
:1020A00004000020CDCCCCCC80E100080023BB662E
:1020B00000237B664FF47A731A46BB6E934202DDAF
:1020C0004FF47A73BB664FF47A731A467B6E934271
:1020D00002DD4FF47A737B66BB6E9BB21A46012118
:1020E000002002F095FA7B6E9BB21A460121012076
:1020F00002F08EFA052003F081FE144803F0CBFDB8
:10210000034683F00103DBB2002B04D03A6FBB6CB3
:102110009A42FFF482AE02F045FA642003F06EFEAC
:102120000B4B1B681846FEF717FA02460B46396F31
:1021300000910848FFF74EFC3A6FBB6C9A4202D3FD
:102140000548FFF731FC7837BD46B0BD34020020AA
:1021500028020020A4E10008DCE1000880B582B07C
:1021600000AF02F0E9FE2C4B9B7A002B04D02B48E9
:10217000FFF71AFC00234BE0294B1A68284B9B6899
:10218000284951F8233013447B60254B5A68244B6F
:102190009B68254951F8233013443B607B68002B32
:1021A00008DB7B680B2B05DC3B68002B02DB3B6804
:1021B0000B2B04DD1D48FFF7F7FB002328E002F09E
:1021C000CDFA02F09FFA03E000F080FA02F0E4FAA0
:1021D00002F0EAF8034640F2B5529342F4DD02F011
:1021E000EDF8034640F2B5529342EDDD02F0F4F90A
:1021F0004FF47A7003F002FE094A7B681360084AC4
:102200003B685360064B1B690133054A1361012388
:1022100018460837BD4680BD840D002010E2000836
:10222000700D0020D0FD0008E0FD000834E2000839
:102230002DE9B04388B004AF87ED030AC7ED020A69
:1022400087ED011A134AFB681360134ABB681360D9
:10225000124A7B681360FFF771FCF868FEF77CF99F
:1022600080468946B868FEF777F904460D467868D7
:10227000FEF772F902460B46CDE90223CDE900458F
:1022800042464B460648FFF7A5FB00BF1037BD4648
:10229000BDE8B083000000202402002004000020DC
:1022A0005CE2000880B500AF0C48FFF77DFB00F052
:1022B00001FA0346002B03D00948FFF775FB02E043
:1022C0000848FFF771FBF7EE000A9FED070AFFF7DA
:1022D0002DFD0648FFF768FB00BF80BD60E40008E5
:1022E00084E40008ACE4000800004043D4E40008A3
:1022F00080B584B000AF0346FB71FB7963F07F03C8
:10230000DBB27B7300233B7300224FF480511748EC
:1023100004F0B2FC07F10D0164230122144805F01A
:10232000D8F90346FB7307F10C016423012210481E
:1023300005F013FB0346BB7301224FF480510B4899
:1023400004F09AFCFB7B002B02D1BB7B002B07D057
:102350000848FFF729FB084B00221A70FF2300E012
:102360003B7B18461037BD4680BD00BF00040240CD
:10237000B0020020F8E400085002002080B584B0CC
:1023800000AF03460A46FB711346BB71FB793B73F2
:10239000BB797B7300224FF48051114804F06CFC30
:1023A00007F10C01642302220E4805F092F903465E
:1023B000FB7301224FF48051094804F05DFCFB7B64
:1023C000002B05D00848FFF7EFFA084B00221A70DF
:1023D000012003F013FD00BF1037BD4680BD00BFD4
:1023E00000040240B00200201CE50008500200205A
:1023F00080B582B000AF3C48FFF7D6FAC82003F0A2
:10240000FDFC80216B20FFF7B9FFFA2003F0F6FCFA
:1024100000216B20FFF7B2FF322003F0EFFC012117
:102420006B20FFF7ABFF322003F0E8FC00216C20AB
:10243000FFF7A4FF0A2003F0E1FC6A20FFF758FF32
:102440000346FB71FB7943F01003FB71FB791946DE
:102450006A20FFF793FF0A2003F0D0FC0421192023
:10246000FFF78CFF0A2003F0C9FC02211A20FFF7B6
:1024700085FF0A2003F0C2FC08211B20FFF77EFF26
:102480000A2003F0BBFC08211C20FFF777FF0A207D
:1024900003F0B4FC02211D20FFF770FF0A2003F0B7
:1024A000ADFC7520FFF724FF0346BB71BB791946CD
:1024B0000E48FFF78FFABB79702B09D0BB7919460C
:1024C0000B48FFF787FA0B4B00221A70002306E037
:1024D0000948FFF769FA074B01221A7001231846D1
:1024E0000837BD4680BD00BF44E5000870E5000820
:1024F00084E5000850020020ACE500082DE9B04357
:1025000088B004AF4E4B1B7883F00103DBB2002B85
:1025100003D04C48FFF748FA8EE04B48FFF744FAE7
:102520004A4B4FF47A721A614FF00003FB604FF090
:102530000003BB604FF000037B6000233B602EE094
:1025400000F0C4F8424BB3F9003007EE903AF8EED1
:10255000E77A97ED037A77EE277AC7ED037A3C4B5B
:10256000B3F9023007EE903AF8EEE77A97ED027A87
:1025700077EE277AC7ED027A354BB3F9043007EED0
:10258000903AF8EEE77A97ED017A77EE277AC7ED81
:10259000017A032003F032FC3B6801333B602B4B94
:1025A0001A693B689A42CBD8284B1B6907EE903AD0
:1025B000B8EE677AD7ED036AC6EE877A234BC3ED90
:1025C000007A224B1B6907EE903AB8EE677AD7ED96
:1025D000026AC6EE877A1D4BC3ED017A1B4B1B695D
:1025E00007EE903AB8EE677AD7ED016AC6EE877AC1
:1025F000164BC3ED027A154B01221A73134B1B685D
:102600001846FDF7A9FF80468946104B5B681846BF
:10261000FDF7A2FF04460D460C4B9B681846FDF7DC
:102620009BFF02460B46CDE90223CDE90045424619
:102630004B460848FFF7CEF91037BD46BDE8B083DA
:1026400050020020C0E50008ECE50008540200201C
:10265000940D002020E6000880B582B000AF124B38
:102660001B7B83F00103DBB2002B04D000F09EF84B
:10267000F0EE407A13E00D4BB3F9043007EE903AD8
:10268000B8EEE77A084BD3ED027A37EE677ADFEDE2
:10269000086AC7EE267AC7ED017AD7ED017AB0EE67
:1026A000670A0837BD4680BD54020020940D002003
:1026B0000000834280B400AF034B1B781846BD4630
:1026C0005DF8047B704700BF5002002080B584B0E5
:1026D00000AF2F4B1B7883F00103DBB2002B03D03C
:1026E0002C48FFF761F950E0C323FB7100224FF43F
:1026F0008051294804F0C0FAF91D642301222748BB
:1027000004F0E7FF0346FB73FB7B002B09D001229B
:102710004FF48051204804F0AFFA2148FFF744F904
:1027200033E007F10801642306221C4805F015F97F
:102730000346FB7301224FF48051174804F09CFAC2
:10274000FB7B002B03D01748FFF72EF91DE03B7AE7
:102750001BB21B021AB27B7A1BB213431AB2124B82
:102760001A80BB7A1BB21B021AB2FB7A1BB213434C
:102770001AB20D4B5A803B7B1BB21B021AB27B7BF9
:102780001BB213431AB2084B9A801037BD4680BD66
:102790005002002050E6000800040240B002002071
:1027A00084E60008A8E60008940D002080B400AF7D
:1027B000094BB3F9043007EE903AF8EEE77A9FED53
:1027C000077AC7EE876AF0EE667AB0EE670ABD4612
:1027D0005DF8047B704700BF940D00200000834229
:1027E00098B500AF03F098FA00F032F900F062FCFF
:1027F00000F096F900F01EFA00F052FA00F0F0FA3C
:1028000000F0DAFB00F02CFC00F03EFB00217B48DE
:1028100005F050FD0421794805F04CFD082177486A
:1028200005F048FD0C21754805F044FD01224FF4E8
:102830000051734804F020FA00F06EFD00F01CFD1A
:1028400002F0E8FCFFF736FF0346002B17D06D4877
:10285000FFF7AAF86C48FFF7A7F84FF4FA6003F007
:10286000CDFAFFF74BFE6948FFF79EF89FED681A17
:10287000DFED680AB7EE000AFFF7DAFC02E066480F
:10288000FFF792F801F0A4FD642003F0B7FA03F01B
:10289000A9FA034619466148FFF79CF801F084FD48
:1028A000044601F08BFD03461A4621465C48FFF7BB
:1028B00091F8642003F0A2FA01F076FD0346002BA4
:1028C00007D101F07BFD0346002B02D15548FFF7ED
:1028D0006BF8FEF755FB01221021534804F0CCF9A8
:1028E00001222021504804F0C7F94FF47A7003F018
:1028F00085FA002210214C4804F0BEF90022202164
:10290000494804F0B9F94948FFF74EF8FFF7C4F811
:102910004748FFF749F806E00A2003F06FFA102154
:10292000414804F0C2F9434B1B78DBB2002BF3D0D3
:10293000002210213C4804F09FF9002220213A484F
:1029400004F09AF9FEF738FB4FF4FA6003F056FAF8
:102950003948FFF729F801F03BFD01F061FA02F078
:10296000EBFA364B1B78DBB2012B14D1334B002230
:102970001A70334B1B7B002B06D0314B5B7B002B3B
:1029800002D001F0D1FB06E02E48FFF70DF801F070
:102990009FFB01F045FA294B1B78DBB2022B06D1D5
:1029A000264B00221A70FFF77DFCFFF78FFE03F025
:1029B00019FA0246244B1B68D31A41F2883293421B
:1029C00006D9FFF72DF803F00DFA03461E4A1360EF
:1029D00003F008FA02461D4B1B68D31AB3F5FA6FD1
:1029E00008D91021104804F060F903F0FBF9034600
:1029F000164A1360642003F001FAB0E79803002040
:102A00000008024004E8000830E8000864E8000814
:102A1000CDCCCC3D0000000084E80008B8E80008F8
:102A2000D0E80008ECE80008000402401CE90008B7
:102A300040E90008B90D002068E90008B80D002041
:102A4000700D002088E90008C40D0020C80D00208A
:102A500080B594B000AF07F1200330220021184662
:102A600008F072FA07F10C0300221A605A609A60AB
:102A7000DA601A610023BB60274B1B6C264A43F0C7
:102A800080531364244B1B6C03F08053BB60BB6802
:102A900000237B60214B1B68204A43F440431360B2
:102AA0001E4B1B6803F440437B607B6802233B6240
:102AB0000123FB6210233B630223BB630023FB6300
:102AC00010233B64A8237B640223BB640423FB64C0
:102AD00007F12003184604F01BF90346002B01D030
:102AE00000F006FC0F23FB6002233B6100237B61A7
:102AF0004FF48053BB610023FB6107F10C030221FB
:102B0000184604F07DFB0346002B01D000F0F0FBDB
:102B100000BF5037BD4680BD003802400070004005
:102B200080B584B000AF3B4600221A605A609A60BC
:102B3000DA603D4B3D4A1A603B4B4FF480325A609D
:102B4000394B00229A60384B01221A61364B012220
:102B50001A76354B002283F82020334B0022DA62AC
:102B6000314B334A9A62304B0022DA602E4B0522F9
:102B7000DA612D4B002283F830202B4B01225A6161
:102B8000294803F05FF90346002B01D000F0B0FBA9
:102B900000233B6001237B600023BB603B4619465A
:102BA000214803F013FB0346002B01D000F0A0FBEB
:102BB00002233B6002237B603B4619461A4803F020
:102BC00005FB0346002B01D000F092FB03233B6082
:102BD00003237B603B461946134803F0F7FA03468C
:102BE000002B01D000F084FB04233B6004237B60B6
:102BF0003B4619460C4803F0E9FA0346002B01D086
:102C000000F076FB05233B6005237B603B461946BD
:102C1000054803F0DBFA0346002B01D000F068FB07
:102C200000BF1037BD4680BD680200200020014073
:102C30000100000F80B500AF174B184A1A60164B01
:102C40004FF482725A60144B00229A60124B002299
:102C5000DA60114B00221A610F4B00225A610E4BB1
:102C60004FF400729A610C4B3022DA610A4B002259
:102C70001A62094B00225A62074B00229A62064BE5
:102C80000A22DA62044804F09BFC0346002B01D0C0
:102C900000F02EFB00BF80BDB002002000380040D5
:102CA00080B596B000AF07F1480300221A605A6061
:102CB0009A60DA6007F1400300221A605A6007F157
:102CC000240300221A605A609A60DA601A615A611D
:102CD0009A613B1D20220021184608F035F93E4B31
:102CE0003E4A1A603C4B14225A603B4B00229A60C9
:102CF000394BC822DA60384B00221A61364B002269
:102D00005A61354B80229A61334805F02BFA03460D
:102D1000002B01D000F0ECFA4FF48053BB6407F1B4
:102D2000480319462C4805F0BFFE0346002B01D08E
:102D300000F0DEFA284805F064FA0346002B01D0C3
:102D400000F0D6FA00233B6400237B6407F14003C4
:102D50001946214806F074FA0346002B01D000F012
:102D6000C7FA60237B626423BB620023FB620023FB
:102D70003B6300237B630023BB630023FB6307F1FA
:102D8000240308221946144805F0CCFD0346002B05
:102D900001D000F0ADFA00237B600023BB6000236C
:102DA000FB6000233B6100237B614FF40053BB6158
:102DB00000233B623B1D1946074806F0AFFA034665
:102DC000002B01D000F094FA034802F091FC00BF00
:102DD0005837BD4680BD00BF0803002000000140F9
:102DE00080B58CB000AF07F10C03242200211846F7
:102DF00008F0AAF83B1D00221A605A60214B4FF0E0
:102E000080421A601F4B00225A601E4B00229A60BB
:102E10001C4B4FF6FF72DA601A4B00221A61194BF5
:102E200080229A610323FB6000233B6101237B61C5
:102E30000023BB610023FB6100233B6201237B6213
:102E40000023BB620023FB6207F10C0319460D4807
:102E500005F044FB0346002B01D000F049FA0023A3
:102E60007B600023BB603B1D1946064806F0E8F96D
:102E70000346002B01D000F03BFA00BF3037BD46BF
:102E800080BD00BF5003002080B58EB000AF07F1B9
:102E9000280300221A605A609A60DA6007F1200362
:102EA00000221A605A603B1D00221A605A609A6024
:102EB000DA601A615A619A613D4B3E4A1A603C4B96
:102EC00004225A603A4B00229A60394B40F2463253
:102ED000DA60374B00221A61354B80229A61344800
:102EE00005F040F90346002B01D000F001FA4FF441
:102EF0008053BB6207F1280319462D4805F0D4FD25
:102F00000346002B01D000F0F3F9294805F079F9C8
:102F10000346002B01D000F0EBF900233B620023B5
:102F20007B6207F120031946214806F089F9034620
:102F3000002B01D000F0DCF960237B600023BB6034
:102F40000023FB6000237B613B1D002219461848CB
:102F500005F0E8FC0346002B01D000F0C9F93B1D49
:102F600004221946124805F0DDFC0346002B01D06F
:102F700000F0BEF93B1D082219460D4805F0D2FCB1
:102F80000346002B01D000F0B3F93B1D0C2219467B
:102F9000074805F0C7FC0346002B01D000F0A8F954
:102FA000034802F0A5FB00BF3837BD4680BD00BF17
:102FB000980300200004004080B58CB000AF07F1FA
:102FC0000C0324220021184607F0BEFF3B1D0022FF
:102FD0001A605A60204B214A1A601F4B00225A6027
:102FE0001D4B00229A601C4B4FF6FF72DA601A4BA1
:102FF00000221A61184B80229A610323FB60002390
:103000003B6101237B610023BB610023FB61002343
:103010003B6201237B620023BB620023FB6207F15A
:103020000C0319460C4805F059FA0346002B01D051
:1030300000F05EF900237B600023BB603B1D194656
:10304000054806F0FDF80346002B01D000F050F9CA
:1030500000BF3037BD4680BDE003002000080040BF
:1030600080B500AF114B124A1A60104B4FF4165244
:103070005A600E4B00229A600C4B0022DA600B4B18
:1030800000221A61094B0C225A61084B00229A61F6
:10309000064B0022DA61054806F0A6F90346002B2C
:1030A00001D000F025F900BF80BD00BF280400203A
:1030B0000014014080B588B000AF07F10C03002276
:1030C0001A605A609A60DA601A610023BB604B4B49
:1030D0001B6B4A4A43F004031363484B1B6B03F01A
:1030E0000403BB60BB6800237B60444B1B6B434AFB
:1030F00043F001031363414B1B6B03F001037B603F
:103100007B6800233B603D4B1B6B3C4A43F0020352
:1031100013633A4B1B6B03F002033B603B680022D6
:103120004FF40051364803F0A7FD002241F2303140
:10313000344803F0A1FD00224FF44071324803F0FF
:103140009BFD4FF40053FB6001233B6100237B6137
:103150000023BB6107F10C031946294803F008FC62
:103160000223FB604FF488133B6100237B6107F16E
:103170000C031946244803F0FBFB4FF48063FB600B
:103180004FF488133B6100237B6107F10C03194660
:103190001C4803F0EDFB41F23033FB6001233B613F
:1031A00000237B610023BB6107F10C03194615481E
:1031B00003F0DEFB4FF44073FB6001233B6100230F
:1031C0007B610023BB6107F10C0319460E4803F035
:1031D000CFFB00220521072003F001FB072003F0AD
:1031E0001AFB00220521282003F0F9FA282003F019
:1031F00012FB00BF2037BD4680BD00BF0038024033
:1032000000080240000402400000024080B584B083
:1032100000AF0346FB8002F0E5FDF860114B1B6830
:10322000FA68D31AC82B19D9FB88022B09D10E4B87
:1032300001221A700D4B01221A700D48FEF7B4FBE3
:1032400009E0FB88B3F5806F05D1074B02221A70A5
:103250000848FEF7A9FB034AFB68136000BF10375C
:10326000BD4680BDCC0D0020B80D0020B90D00205A
:10327000B8E90008D0E9000880B586B000AF3B1D72
:1032800000221A605A609A60DA601A6101237B603A
:103290000323BB600023FB603B1D1946124803F06B
:1032A00067FB04237B603B1D19460F4803F060FB5E
:1032B00008237B603B1D19460B4803F059FB102384
:1032C0007B603B1D1946084803F052FB20237B60BE
:1032D0003B1D1946044803F04BFB0448FEF764FB12
:1032E00000BF1837BD4680BD00000240E8E9000875
:1032F00080B500AF72B600BF1021064803F0D5FCC0
:103300002021044803F0D1FC642002F077FD00BFC7
:10331000F2E700BF0004024080B500AF00F042F8C1
:10332000184B00221A60174B00225A60154B0022DE
:103330009A60144B00221A73124B00225A73114BDD
:1033400000221A610E2200210F4807F0FDFD122213
:1033500000210E4807F0F8FD102200210C4807F06C
:10336000F3FD0C4B00221A600B4B00221A60FFF792
:103370003FF80A48FEF718FB0948FEF715FB00BFA7
:1033800080BD00BF700D0020840D0020940D002032
:10339000A80D0020BC0D0020C00D002010EA000880
:1033A00040EA000880B584B000AF0023FB604AE02B
:1033B0000023BB6041E04249FA6813465B001344B6
:1033C0009B00BA6813441B010B4442F20F721A604F
:1033D0003B49FA6813465B0013449B00BA681344E8
:1033E0001B010B44043300221A703549FA68134656
:1033F0005B0013449B00BA6813441B010B440C335D
:1034000000221A6000237B6011E02D49FA68134600
:103410005B0013449B00BA6813441B01CA187B6805
:103420001344053300221A707B6801337B607B688C
:10343000032BEADDBB680133BB60BB680B2BBADD35
:10344000FB680133FB60FB680B2BB1DD00233B60A5
:1034500025E01B493A6813465B0013449B010B446B
:10346000073301221A7016493A6813465B00134469
:103470009B010B44B53301221A70114A3B681B01B2
:103480001344083301221A700D4A3B681B01134490
:1034900003F6460301221A703B6801333B603B6828
:1034A0000B2BD6DD064B01221A71054B0122DA6087
:1034B0000448FEF779FA00BF1037BD4680BD00BF53
:1034C0007004002068EA000880B58CB000AF0023CB
:1034D000FB6218E00023BB620FE09549FA6A1346CD
:1034E0005B0013449B00BA6A13441B010B4442F275
:1034F0000F721A60BB6A0133BB62BB6A0B2BECDD37
:10350000FB6A0133FB62FB6A0B2BE3DD894B1B7B00
:1035100083F00103DBB2002B38D0874B1A68874B4E
:103520001968834813465B0013449B000B441B013E
:10353000034400221A60824B1A68804B19687C4849
:1035400013465B0013449B000B441B010344002201
:103550001A60794B1A687B4B1968754813465B00F3
:1035600013449B000B441B01034400221A60744B5C
:103570001A68744B19686E4813465B0013449B002D
:103580000B441B01034400221A6002E0684B002236
:103590001A6000237B6200233B62664B1B7B83F037
:1035A0000103DBB2002B38D0634B1A6866493B6AD3
:1035B00041F823203B6A5A1C3A62604A1268634908
:1035C00041F823205E4B1A685F493B6A41F823208B
:1035D0003B6A5A1C3A62594A12685C4941F82320F6
:1035E000554B1A6858493B6A41F823203B6A5A1CDC
:1035F0003A62544A1268554941F82320504B1A68E0
:1036000051493B6A41F823203B6A5A1C3A624D4AB1
:1036100012684E4941F823200BE04B4A3B6A0021D7
:1036200042F823103B6A5A1C3A62484A002142F889
:1036300023100023FB614FF4FA737B6198E0424A48
:103640007B6A52F823303B617B6A5A1C7A623F4A9C
:1036500052F82330FB600023BB6182E03C4ABB6927
:1036600052F823303A691344BB603A4ABB6952F8B6
:103670002330FA6813447B60BB68002B6EDBBB68A9
:103680000B2B6BDC7B68002B68DB7B680B2B65DC12
:1036900027493A6913465B0013449B00FA681344B8
:1036A0001B01CA18BB69134405331B7883F001035F
:1036B000DBB2002B52D01E493A6913465B0013441B
:1036C0009B00FA6813441B010B441B6801333B60E9
:1036D0001749BA6813465B0013449B007A68134489
:1036E0001B010B441B683A689A4237DA1049BA68E2
:1036F00013465B0013449B007A6813441B010B4480
:103700003A681A603B6AB3F5FF7F0CDA0E493B6AF0
:10371000BA6841F823203B6A5A1C3A620B497A681E
:1037200041F823201AE00C48FEF73EF92AE000BFDA
:1037300070040020700D0020F0FD0008F4FD00086A
:10374000F8FD0008FCFD0008D00D0020D015002079
:10375000D0FD0008E0FD00089CEA0008BB690133C9
:10376000BB61BB69032B7FF779AFFB690133FB6159
:103770007A6A3B6A9A4204DAFA697B699A42FFF6EE
:103780005EAF00BFFA697B699A4202DB0548FEF72B
:103790000BF9F9690448FEF71DF900BF3037BD4643
:1037A00080BD00BFCCEA0008F8EA000880B493B0FE
:1037B00000AF924B9B687B6442F20F733B6440F214
:1037C000E733FB63002387F83B308C4B9B683B60FF
:1037D0008A4B9B6801335A4203F0030302F0030251
:1037E00058BF53427B60854B9B6803335A4203F0BA
:1037F000030302F0030258BF5342BB607F4B9B6838
:1038000002335A4203F0030302F0030258BF53424B
:10381000FB6000237B6367E07B6B9B0048333B448A
:1038200053F8483CBB61754B1A687549BB6951F840
:10383000233013447B61714B5A687249BB6951F85C
:10384000233013443B617B69002B4ADB7B690B2BE4
:1038500047DC3B69002B44DB3B690B2B41DC674BAE
:103860001A68664B5968684813465B0013449B000E
:103870000B441B01C218BB69134405331B7883F04A
:103880000103DBB2002B2CD05F497A6913465B0041
:1038900013449B003A6913441B010B440C331B680F
:1038A000002B1ED1012387F83B3057497A69134614
:1038B0005B0013449B003A6913441B010B441B68D3
:1038C0003A6C9A420DDD50497A6913465B00134405
:1038D0009B003A6913441B010B441B683B64BB69A2
:1038E0007B647B6B01337B637B6B032B94DD97F8ED
:1038F0003B3083F00103DBB2002B78D000233B6325
:1039000072E03B6B9B0048333B4453F8483CFB62FE
:103910003A4B1A683A49FB6A51F823301344BB62A8
:10392000364B5A683749FB6A51F8233013447B629F
:10393000BB6A002B55DBBB6A0B2B52DC7B6A002B6E
:103940004FDB7B6A0B2B4CDC2C4B1A682B4B5968DA
:103950002D4813465B0013449B000B441B01C21807
:10396000FB6A134405331B7883F00103DBB2002BA1
:1039700037D02549BA6A13465B0013449B007A6A24
:1039800013441B010B441B683B621F49BA6A134670
:103990005B0013449B007A6A13441B010B440C33F5
:1039A0001B68FB613A6A3B6C9A4214DB3A6A3B6CD7
:1039B0009A4203D1FA69FB6B9A420CDB3A6A3B6C80
:1039C0009A420ED1FA69FB6B9A420AD10B4B9B6863
:1039D000FA6A9A4205D13B6A3B64FB69FB63FB6A66
:1039E0007B643B6B01333B633B6B032B89DD7B6C5F
:1039F00018464C37BD465DF8047B7047700D0020BB
:103A0000D0FD0008E0FD00087004002090B58BB0E8
:103A100002AF01F091FA984B9B7A002B47D0974B5D
:103A20001A68964B5868954B9968954C13465B00FD
:103A300013449B0003441B0123440B440533012220
:103A40001A708E4B1A688D4B9B688E4951F8233043
:103A50001344FB61894B5A68884B9B688A4951F82B
:103A600023301344BB61FB69002B20DBFB690B2B6C
:103A70001DDCBB69002B1ADBBB690B2B17DC7F4BF2
:103A80009B680233594203F0030201F0030358BF5D
:103A90005A427B48F9690B465B000B449B00B969AD
:103AA0000B441B0103441344053301221A70724B6B
:103AB000DB7A002B4ED0714B9B6803335A4203F0E4
:103AC000030302F0030258BF53427B616B4B1A6839
:103AD0006A4B59686A4813465B0013449B000B44C9
:103AE0001B01C2187B691344053301221A70634B12
:103AF0001A6864497B6951F8233013443B615F4B7A
:103B00005A6861497B6951F823301344FB603B6973
:103B1000002B1FDB3B690B2B1CDCFB68002B19DB2C
:103B2000FB680B2B16DC7B690233594203F003025E
:103B300001F0030358BF5A42514839690B465B00F4
:103B40000B449B00F9680B441B01034413440533E9
:103B500001221A70484B1B7B002B4ED0474B9B68B1
:103B600001335A4203F0030302F0030258BF5342E9
:103B7000BB60424B1A68414B5968414813465B0091
:103B800013449B000B441B01C218BB68134405334C
:103B900001221A70394B1A683A49BB6851F8233030
:103BA00013447B60354B5A683749BB6851F8233062
:103BB00013443B607B68002B1FDB7B680B2B1CDCFA
:103BC0003B68002B19DB3B680B2B16DCBB68023310
:103BD000594203F0030201F0030358BF5A42284838
:103BE00079680B465B000B449B0039680B441B0152
:103BF00003441344053301221A70204B1A681F4BEB
:103C000059681F4813465B0013449B000B441B017B
:103C10000344043301221A70184B1A68174B596871
:103C2000174813465B0013449B000B441B010344DD
:103C30000C331B68581C124C13465B0013449B004A
:103C40000B441B0123440C3318600C4B19680B4BBD
:103C50005A68094B9B7A1C46074BDB7A1846064B81
:103C60001B7B0193009023460848FDF7B3FE00BF7D
:103C70002437BD4690BD00BF840D0020700D00208C
:103C800070040020D0FD0008E0FD000824EB0008CF
:103C900080B584B000AF786041E0264B9B687A68BD
:103CA000D31A04335A4203F0030302F0030258BF4D
:103CB0005342FB60FB68012B0ED100F04FFC1D4B03
:103CC0009B6801335A4203F0030302F0030258BF1A
:103CD0005342184A936022E0FB68032B0ED100F098
:103CE00021FC144B9B6803335A4203F0030302F098
:103CF000030258BF53420F4A936010E0FB68022B47
:103D00000DD100F047FC0B4B9B6802335A4203F085
:103D1000030302F0030258BF5342064A9360054B67
:103D20009B687A689A42B8D100BF00BF1037BD4681
:103D300080BD00BF700D002080B500AFFEF7BAFC5B
:103D40000346002B03D0FEF709FA034617E001F003
:103D5000F3F80C4B9B7A002B04D00B48FDF724FEA4
:103D600000230CE000F070FB084B1B690133074A8D
:103D70001361074B1B680133054A13600123184682
:103D800080BD00BF840D002050EB0008700D0020A6
:103D9000BC0D002080B400AF1C4B1B7B83F00103E3
:103DA000DBB2002B1ED0194B1A68194B1B689A42C4
:103DB00005D0164B1A68174B1B689A420DD1134B4E
:103DC0005A68154B1B689A4205D0104B5A68134B22
:103DD0001B689A4201D1012300E0002303F0010394
:103DE000DBB20DE0094B1B68002B05D1074B5B686C
:103DF000002B01D1012300E0002303F00103DBB21B
:103E00001846BD465DF8047B704700BF700D00206A
:103E1000F0FD0008F8FD0008F4FD0008FCFD0008B6
:103E200080B58AB000AF8448FDF7BEFD00237B62F9
:103E30004FF47A733B61C6E0804B1A687F4B5B6836
:103E4000796A7F48FDF7C6FDFFF7E0FDFFF73CFB11
:103E5000FFF7A0FF0346002B35D0784B1B7B83F088
:103E60000103DBB2002B27D07648FDF79DFD734B95
:103E700001221A73FDF7A0F800233B6218E000232B
:103E8000FB610FE070493A6A13465B0013449B00E4
:103E9000FA6913441B010B440C3300221A60FB69BE
:103EA0000133FB61FB690B2BECDD3B6A01333B62A9
:103EB0003B6A0B2BE3DD06E06448FDF775FD5F4BC5
:103EC00001225A7393E0FFF771FCF860F9686048CB
:103ED000FDF780FDF868FFF7DBFEFFF72DFF0346D7
:103EE000002B0DD0554B1B7B002B04D00121002053
:103EF00001F0F8FD61E00021012001F0F3FD5CE03C
:103F00005448FDF751FD0023FB7600237B6141E01F
:103F10007A69FB689A423AD0484B1A684E497B69E5
:103F200051F823301344BB60444B5A684B497B69BA
:103F300051F8233013447B60BB68002B27DBBB6840
:103F40000B2B24DC7B68002B21DB7B680B2B1EDC1E
:103F50003A4B1A68394B59683B4813465B00134487
:103F60009B000B441B01C2187B69134405331B786B
:103F700083F00103DBB2002B09D07869FFF788FEDC
:103F8000FFF7DAFE0346002B01D00123FB767B69A5
:103F900001337B617B69032B05DCFB7E83F001032E
:103FA000DBB2002BB4D1FB7E83F00103DBB2002B2C
:103FB00003D02B48FDF7F8FC19E07B6A01337B62E4
:103FC0000A2001F01BFF7A6A3B699A420FDA1B4B09
:103FD0001B7B83F00103DBB2002B7FF42DAF174B6B
:103FE0005B7B83F00103DBB2002B7FF425AF002164
:103FF000002001F077FD114B1B6919461948FDF7A8
:10400000E9FC0E4B1B7B002B0BD00C4B5B7B002B7E
:1040100007D01548FDF7C8FC00F02AF8FCF7DEFFD2
:1040200005E01248FDF7C0FCFDF704F800BF00BF33
:104030002837BD4680BD00BF74EB0008700D00201E
:1040400098EB0008B4EB000870040020E0EB0008D7
:104050000CEC00082CEC0008D0FD0008E0FD000886
:1040600058EC000874EC000898EC0008D0EC00084C
:1040700080B500AF1048FDF797FCFCF7F5FFFDF7A2
:10408000C7FAFDF7F9FB0D48FDF78EFC0C4B1B68DA
:1040900042F20E72934209DC094B1B68194609482B
:1040A000FDF798FC0848FDF77FFC02E00748FDF7A4
:1040B0007BFC00BF80BD00BF08ED000830ED0008AC
:1040C000C00D00205CED000890ED0008C0ED000878
:1040D00080B500AF104B00221A600F4B00225A60CF
:1040E0000D4B00229A600C4B00221A730A4B0022DF
:1040F0005A73094B00221A61084B00221A60084BC0
:1041000000221A60FFF74EF90648FDF74DFCFCF758
:1041100037FF00BF80BD00BF700D0020BC0D002028
:10412000C00D0020F4ED000880B500AF0448FDF795
:104130003BFC0448FDF738FC00F006F800BF80BDEA
:1041400028EE000850EE000880B586B000AF644845
:10415000FDF72AFC634B1B7B83F00103DBB2002BD2
:1041600006D1604B5B7B83F00103DBB2002B03D0F5
:104170005D48FDF719FCB0E05C48FDF715FC594BB4
:1041800000221A60574B00225A60564B00229A6058
:104190000121012001F0A6FCFCF70EFF5448FDF7B9
:1041A00003FC01F01FFEF8600023FB750DE0514B8E
:1041B0001B78DBB2022B05D14E4B00221A70012373
:1041C000FB750BE0642001F019FE01F00BFE0246C6
:1041D000FB68D31A42F20F729342E8D9FB7D83F059
:1041E0000103DBB2002B07D04348FDF7DDFB0021C4
:1041F000002001F077FC70E04048FDF7D5FB00237C
:104200003B613223BB6021E000F096FEFFF75CF9D2
:10421000FFF7CCFA78607868FFF73AFDFFF78CFD7E
:104220000346002B0BD03B6901333B612D4B1A68D1
:104230002C4B5B6839693248FDF7CCFB03E0314811
:10424000FDF7B2FB1EE0322001F0D8FD254B1A68C5
:104250002D4B1B689A4205D0224B1A682B4B1B68CA
:104260009A420BD11F4B5A68294B1B689A4209D0BE
:104270001C4B5A68274B1B689A4203D03A69BB68AB
:104280009A42C1DB0021002001F02CFC154B1A687A
:104290001D4B1B689A4205D0124B1A681B4B1B68BA
:1042A0009A4215D10F4B5A68194B1B689A4205D098
:1042B0000C4B5A68174B1B689A4209D11648FDF7F8
:1042C00073FB39691548FDF785FBFCF787FE04E0B1
:1042D0001348FDF769FBFCF7ADFE1837BD4680BDFE
:1042E00074EE0008700D002098EE0008D4EE00086F
:1042F0000CEF0008B80D00203CEF000860EF00084C
:104300007CEF00089CEF0008F0FD0008F8FD0008B5
:10431000F4FD0008FCFD0008B8EF0008D4EF000829
:10432000ECEF000880B483B000AF194B1B685B6AE8
:10433000FB80184B1B685B6ABB80174B1B88FA8895
:10434000D31A9BB27B80154B1B88BA88D31A9BB2B9
:104350003B803B885B429BB23B80B7F90220104B0D
:104360001B6813440E4A1360B7F900200D4B1B68FD
:1043700013440C4A1360084AFB881380074ABB8821
:10438000138000BF0C37BD465DF8047B704700BF4B
:1043900050030020E00300200C0000200E0000204D
:1043A000D01D0020D41D002080B500AFFFF7BAFF5C
:1043B000014B1B68184680BDD01D002080B500AFA2
:1043C000FFF7B0FF014B1B68184680BDD41D0020CD
:1043D00080B500AF3C21154804F026F93C21144873
:1043E00004F022F9114B1B684FF400425A62104B43
:1043F0001B684FF400425A62012001F0FFFC0D4B94
:104400004FF400421A800C4B4FF400421A800B4BC1
:1044100000221A600A4B00221A600A4B00229A609E
:10442000084B0022DA6000BF80BD00BFE00300201F
:10443000500300200C0000200E000020D01D0020A2
:10444000D41D0020A80D002080B58AB000AFFFF772
:10445000ABFF7862FFF7B2FF38622E4B1A682D4B24
:104460009B682D4951F823301344FB61294B5A684E
:10447000284B9B68294951F823301344BB61FB69E1
:10448000002B08DBFB690B2B05DCBB69002B02DB77
:10449000BB690B2B03DD2248FDF786FA37E04FF4AA
:1044A00048720121002000F0B3F84FF44872012156
:1044B000012000F0ADF840F2B5537B61FFF774FFC7
:1044C0003861FFF77BFFF8603A697B6AD31ABB60FB
:1044D000FA683B6AD31A7B60BA687B681344DA0FC8
:1044E00013445B103B603A687B699A4203DA01200F
:1044F00001F084FCE2E700BF00F054F8054AFB69D4
:104500001360044ABB695360642001F077FC2837CC
:10451000BD4680BD700D0020D0FD0008E0FD000804
:104520000CF0000880B500AF4FF4966140F28A208D
:104530009FED080A00F01EFB074B9B6803335A42AD
:1045400003F0030302F0030258BF5342024A936090
:1045500000BF80BD0000B442700D002080B500AFE8
:104560004FF4966140F28A209FED080A00F002FBAA
:10457000074B9B6801335A4203F0030302F0030226
:1045800058BF5342024A936000BF80BD0000B4C2CE
:10459000700D002080B500AFFFF7E0FFFFF7DEFFF2
:1045A00000BF80BD80B400AF0A4B1B6800225A6375
:1045B000084B1B6800229A63064B1B680022DA63D3
:1045C000044B1B6800221A6400BFBD465DF8047BE3
:1045D000704700BF9803002080B500AF0B4B1B68ED
:1045E00001225A63094B1B6801229A63074B1B681F
:1045F0000122DA63054B1B6801221A644FF4FA703A
:1046000001F0FCFBFFF7CEFF00BF80BD9803002048
:1046100080B584B000AF0346FB710B46BB711346F7
:10462000BB80FB79002B15D1BB79002B09D01D4B2A
:104630001B68BA889A63002240211B4802F01CFBC9
:104640002BE0184B1B68BA885A63164B1B68002274
:104650009A6322E0BB79002B14BF01230023DBB255
:1046600083F00103DBB2FB73FB7B03F00103FB73FD
:10467000FB7B002B09D00B4B1B68BA881A64002205
:1046800001210A4802F0F8FA07E0064B1B680022F5
:104690001A64044B1B68BA88DA6300BF1037BD4642
:1046A00080BD00BF980300200000024000040240CB
:1046B00080B485B000AF87ED030AC7ED020A87ED2D
:1046C000011A97ED037AD7ED027AB4EEE77AF1EEAC
:1046D00010FA01D5BB680BE097ED037AD7ED017AAC
:1046E000B4EEE77AF1EE10FA01DD7B6800E0FB68DA
:1046F00007EE903AB0EE670A1437BD465DF8047BCA
:104700007047000080B500AFFFF74EFE03460D4A2C
:104710001360FFF753FE03460B4A13600B4B4FF039
:1047200000021A600A4B4FF000021A60094B4FF06A
:1047300000021A6001F056FB0346074A136000BFEF
:1047400080BD00BFD81D0020DC1D0020E01D002022
:10475000E41D0020E81D0020EC1D002080B500AF06
:10476000094B4FF000021A60084B4FF000021A602C
:10477000074B4FF000021A6001F034FB0346054A74
:10478000136000BF80BD00BFF41D0020F81D002095
:10479000FC1D0020EC1D002080B588B000AF01F0AA
:1047A00021FB38616C4B1B683A69D31A07EE903ACB
:1047B000B8EE677ADFED696AC7EE267AC7ED077A49
:1047C000D7ED077AF5EEC07AF1EE10FA01D8644B16
:1047D000FB61614A3B691360FDF73EFF87ED030A09
:1047E00097ED037AD7ED077A27EE277A5D4BD3ED65
:1047F000007A77EE277A5B4BC3ED007A594BD3ED05
:10480000007A9FED597AB1EE477ADFED576AB0EE44
:10481000661AF0EE470AB0EE670AFFF749FFF0EEBE
:10482000407A504BC3ED007A504BD3ED007A97EDB0
:10483000037A77EE676A97ED077AC6EE877AC7ED57
:10484000027A9FED4B7A4B4BD3ED007A27EE277A15
:10485000DFED477AF7EE006A76EEE76AD7ED027A87
:1048600066EEA77A77EE277A424BC3ED007A424B89
:1048700093ED007AD7ED037A27EE277A3F4BD3EDFD
:10488000006A384BD3ED007A66EEA77A37EE277AC6
:104890003B4BD3ED006A374BD3ED007A66EEA77A37
:1048A00077EE277AC7ED017A4FF42F733B603B68B0
:1048B00007EE903AB8EEE77AD7ED017A77EE677AAD
:1048C000B0EE670A08F068FCF0EE407AFDEEE77A99
:1048D00017EE903ABB613B6807EE903AB8EEE77A84
:1048E000D7ED017A77EE277AB0EE670A08F054FC2C
:1048F000F0EE407AFDEEE77A17EE903A7B61BB6905
:10490000B3F5487F02DD4FF44873BB617B69B3F5B3
:10491000487F02DD4FF448737B61BB69002B01DAED
:104920000023BB617B69002B01DA00237B617B697B
:104930009BB21A4601210020FFF76AFEBB699BB2B9
:104940001A4601210120FFF763FE084AFB68136045
:1049500000BF2037BD4680BDEC1D002000007A441A
:104960006F12833AF81D00200000FA44F41D002065
:104970009A99593FFC1D00201000002014000020CF
:10498000F01D002080B483B000AF87ED010AD7EDA1
:10499000017AF5EEC07AF1EE10FA02DB4FF07E53A9
:1049A00000E0054B07EE903AB0EE670A0C37BD46C3
:1049B0005DF8047B704700BF000080BF80B500AF8A
:1049C000094B4FF000021A60084B4FF000021A60CA
:1049D000074B4FF000021A6001F004FA0346054A43
:1049E000136000BF80BD00BF001E0020041E002019
:1049F000081E0020EC1D002080B588B000AF87EDB8
:104A0000030AC7ED020A786001F0ECF9B8614E4B79
:104A10001B68BA69D31A07EE903AB8EE677ADFEDF1
:104A20004B6AC7EE267AC7ED077AD7ED077AF5EE1F
:104A3000C07AF1EE10FA01D8454BFB61424ABB69DE
:104A400013607B68002B02D07B68FA691A6097EDCF
:104A5000037AD7ED027A77EE677AC7ED057A97ED9C
:104A6000057AD7ED077A27EE277A3A4BD3ED007A0D
:104A700077EE277A374BC3ED007A364BD3ED007AC9
:104A80009FED327AF4EEC77AF1EE10FA02DD324A87
:104A9000304B1A60DFED2D7AB1EE677A2D4BD3EDF6
:104AA000007AB4EEE77AF1EE10FA06DDDFED277A50
:104AB000F1EE677A274BC3ED007A284BD3ED007AED
:104AC00097ED057A77EE676A97ED077AC6EE877AF3
:104AD000C7ED047A9FED227A224BD3ED007A27EEC0
:104AE000277ADFED1F7AF7EE006A76EEE76AD7EDF8
:104AF000047A66EEA77A77EE277A1A4BC3ED007A2E
:104B0000164A7B691360184B93ED007AD7ED057A4E
:104B100027EE277A154BD3ED006A0E4BD3ED007AC2
:104B200066EEA77A37EE277A114BD3ED006A0D4B6C
:104B3000D3ED007A66EEA77A77EE277AB0EE670AB1
:104B40002037BD4680BD00BFEC1D002000007A4428
:104B50006F12033B001E002000007A44041E002058
:104B60006666663F081E002010000020140000202A
:104B7000F01D002080B52DED028B98B000AF87EDC1
:104B8000030AB8607960BB683B2B01DC3C23BB6047
:104B9000BB68B3F5C87F02DD4FF4C873BB60FFF795
:104BA0000DFF4FF00003FB65FB68FB6301F01AF992
:104BB000B8630023BB6501F015F9786501F012F9BF
:104BC00078637A6B7B6DD31A07EE903AB8EE677A0A
:104BD000DFEDA76AC7EE267AC7ED147AD7ED147A0F
:104BE000F5EEC07AF1EE10FA01D8A24B3B657B6B73
:104BF0007B65FDF76BFDFDF72FFD87ED0C0A97ED4B
:104C00000C7AD7ED147A67EE277A97ED177A77EE5C
:104C1000277AC7ED177A97ED0F7AD7ED177A77EEE7
:104C2000677AC7ED0B7A944BD3ED007A37EEA77A0B
:104C3000D7ED0B7AF0EEE77A67EE277ADFED8F0A91
:104C4000B0EE670A08F06AFAF0EE407AB0EE670A52
:104C500008F046FA87ED0A0A894BD3ED007AB0EEE8
:104C6000671ADFED860A97ED0A0AFFF721FDB0EE1D
:104C7000408A97ED0B0AFFF785FEF0EE407A68EE6A
:104C8000277AC7ED137AD7ED137AB0EEE77A7D4B2A
:104C9000D3ED007AB4EEE77AF1EE10FA02D54FF0D8
:104CA0000003FB644FF000033B6107F1100318465B
:104CB000D7ED0C0A97ED130AFFF79EFE87ED090A60
:104CC000D7ED137AF0EEE77AF5EEC07AF1EE10FA4E
:104CD00006DD97ED137ADFED6C6AC7EE267A01E008
:104CE000DFED667AC7ED087A97ED087AD7ED097A95
:104CF00077EE277AC7ED077ABB6807EE903AB8EEF1
:104D0000E77AD7ED077AF0EEE77AF6EE006A67EE1B
:104D1000A67A77EE277AC7ED067ABB6807EE903A57
:104D2000B8EEE77AD7ED077AF0EEE77AF6EE006AAA
:104D300067EEA67A77EE277AC7ED057AD7ED077A80
:104D4000F5EEC07AF1EE10FA06DB002387F84B305F
:104D5000012387F84A3005E0012387F84B30002310
:104D600087F84A30D7ED0B7AB0EEE77A474BD3EDB0
:104D7000007AB4EEE77AF1EE10FA22D8D7ED0C7A89
:104D8000B0EEE77A424BD3ED007AB4EEE77AF1EE7B
:104D900010FA16D8002201210020FFF739FC00226A
:104DA00001210120FFF734FCBB6D002B01D17B6B8F
:104DB000BB657A6BBB6DD21A364B1B689A4240D3E7
:104DC0004AE00023BB6597ED050A08F0E5F9F0EE2F
:104DD000407AFDEEE77A17EE903A7B6497ED060A8B
:104DE00008F0DAF9F0EE407AFDEEE77A17EE903A45
:104DF0003B647B6C002B01DA00237B647B6CB3F596
:104E00007A7F02DD4FF47A737B643B6C002B01DA0E
:104E100000233B643B6CB3F57A7F02DD4FF47A7379
:104E20003B647B6C9AB297F84B3019460020FFF731
:104E3000EFFB3B6C9AB297F84A3019460120FFF716
:104E4000E7FB7A6BBB6BD31A7A689A4203D30220D2
:104E500000F0D4FFB2E600BFFFF7A4FB3C2000F057
:104E6000CDFF00BF6037BD46BDEC028B80BD00BFEB
:104E700000007A446F12833A1C00002000000000FA
:104E8000180000202C00002097FFB03F20000020D9
:104E9000240000202800002080B588B000AF786092
:104EA00007F10C0300221A605A609A60DA6000234E
:104EB000FB837B68FB6001233B6104237B6107F17B
:104EC0000C031946184801F081F90346002B04D061
:104ED0001648FCF769FD002322E0134800F0F6FFB6
:104EE0000346002B04D01248FCF75EFD002317E0B8
:104EF00064210D4801F0D1F80346002B07D00D487E
:104F0000FCF752FD084801F095F8002308E0064838
:104F100001F04EF90346FB83034801F08BF8FB8B4D
:104F200018462037BD4680BD6802002014F30008F3
:104F300034F300084CF3000890B595B000AFAB4BCC
:104F400007F134040FCB84E80F00A94B07F12404C8
:104F50000FCB84E80F00A74B07F114040FCB84E8B4
:104F60000F00A54A07F10C0392E8030083E8030051
:104F70000023FB6460E0FB6C9B0050333B4453F820
:104F80003C0CFB6C5B0050333B4433F8443C002248
:104F9000194601F071FE0A2000F030FFFB6C9B0007
:104FA00050333B4453F82C3C1846FFF775FF03463B
:104FB000A7F84830FB6C9B0050333B4453F83C0C43
:104FC000FB6C5B0050333B4433F8443C01221946F0
:104FD00001F052FE0A2000F011FFFB6C9B005033E1
:104FE0003B4453F82C3C1846FFF756FF0346A7F8FE
:104FF0004630B7F84620B7F84830D31A9BB21AB2F9
:10500000FB6C5B0050333B4423F84C2CFB6C9B0047
:1050100050333B4453F83C0CFB6C5B0050333B4437
:1050200033F8443C0022194601F026FE322000F0FD
:10503000E5FEFB6C0133FB64FB6C032B9BDD002066
:10504000FFF72AFF03461A466C4B1A80B7F9063061
:105050009AB26A4B5A80B7F90A309AB2674B9A8073
:10506000B7F908309AB2654BDA80B7F904309AB2D2
:10507000624B1A81624B93F82230002B32D05F4B87
:105080001C89002000F07CF903469C4207D85B4B4A
:105090005C88012000F074F903469C4201D9012389
:1050A00000E0002303F00103DAB2544B9A72534B31
:1050B000DC88022000F064F903469C428CBF012387
:1050C0000023DAB24D4BDA724C4B9C88032000F07F
:1050D00057F903469C428CBF01230023DAB2474BA9
:1050E0001A7329E0454B1A89464B1B889A4205D80A
:1050F000424B5A88434B1B889A4201D9012300E056
:10510000002303F00103DAB23C4B9A723B4BDA887E
:105110003D4B1B889A428CBF01230023DAB2374BE8
:10512000DA72364B9A88384B1B889A428CBF01231F
:105130000023DAB2314B1A73314B93F82230002B33
:1051400050D02F4B1B8AC73B2C4A1288934221DC3C
:105150002B4B1B8A03F2F313284A1288934219DB64
:10516000264B1B8940F6AB52934213D8234B5B88E6
:1051700040F6AB5293420DD8204BDB8840F6AB5241
:10518000934207D81D4B9B8840F6AB52934201D8FF
:10519000012300E0002387F84B3097F84B3003F0F1
:1051A000010387F84B3097F84B3083F00103DBB2F3
:1051B000002B0DD0154B1B780133DAB2134B1A704C
:1051C000124B1B78052B0DD9114B00221A7009E0E8
:1051D0000E4B1B78002B05D00C4B1B78013BDAB231
:1051E0000A4B1A7000BF5437BD4690BD9CF30008AF
:1051F000ACF30008BCF30008CCF30008840D0020D9
:105200000C1E00200A00002008000020401E002084
:1052100030000020B0B58EB000AF4B48FCF7C4FBA7
:105220004A4B5B6C03F48073002B03D04848FCF7B7
:10523000BBFB02E04748FCF7B7FB444B1B6B03F09A
:105240000103002B03D04448FCF7AEFB02E04348C7
:10525000FCF7AAFB424B1B6C012B03D14148FCF726
:10526000A3FB05E03E4B1B6C19463F48FCF7B2FB25
:105270003E48FCF799FB3E4B07F120041D460FCD3D
:105280000FC42B6823603B4B07F10C041D460FCD68
:105290000FC42B68236000237B634BE07B6B9B0078
:1052A00038333B4453F8183C1846FFF7F5FD0346E6
:1052B0001A467B6B5B0038333B4423F8382C7B6BFE
:1052C0009B0038333B4453F82C1C7B6B9B003833DA
:1052D0003B4453F8183C002B1FD07B6B9B003833AA
:1052E0003B4453F8183C022B15D07B6B9B003833A2
:1052F0003B4453F8183C032B0BD07B6B9B0038339B
:105300003B4453F8183C042B01D1042206E005224B
:1053100004E0032202E0022200E000227B6B5B003B
:1053200038333B4433F8383C1348FCF753FB7B6B72
:1053300001337B637B6B042BB0DD1048FCF734FB3F
:1053400000BF3837BD46B0BDA0F5000800380240A8
:10535000C4F50008E0F50008FCF5000818F60008A0
:105360006802002034F600084CF6000864F60008D5
:1053700094F60008E0F6000884F600087CF50008C2
:1053800080B483B000AF78607B68002B0ADB7B6859
:10539000032B07DC0D4B93F8223083F00103DBB2C3
:1053A000002B08D07B68012B02DC094B1B8807E02F
:1053B000084B1B8804E0054A7B68043332F813303D
:1053C00018460C37BD465DF8047B70470C1E002064
:1053D0000A0000200800002080B483B000AF002342
:1053E0007B60104B5B6C0F4A43F4804353640D4B5E
:1053F0005B6C03F480437B607B6800233B60094B5C
:105400001B6C084A43F080531364064B1B6C03F07B
:1054100080533B603B6800BF0C37BD465DF8047BA2
:10542000704700BF0038024080B58AB000AF786096
:1054300007F1140300221A605A609A60DA601A6158
:105440007B681B68174A934227D100233B61164BA8
:105450005B6C154A43F480735364134B5B6C03F429
:1054600080733B613B690023FB600F4B1B6B0E4A53
:1054700043F0010313630C4B1B6B03F00103FB6050
:10548000FB683D237B610323BB610023FB6107F1C4
:1054900014031946054801F06BFA00BF2837BD46D2
:1054A00080BD00BF002001400038024000000240E3
:1054B00080B58AB000AF786007F1140300221A604B
:1054C0005A609A60DA601A617B681B68194A9342D5
:1054D0002CD100233B61184B1B6C174A43F48043CB
:1054E0001364154B1B6C03F480433B613B69002341
:1054F000FB60114B1B6B104A43F0020313630E4B0E
:105500001B6B03F00203FB60FB684FF460437B619D
:105510000223BB610023FB6103233B6205237B6203
:1055200007F114031946054801F022FA00BF283795
:10553000BD4680BD003800400038024000040240F3
:1055400080B584B000AF78607B681B68184A9342CE
:1055500016D10023FB60174B5B6C164A43F0010326
:105560005364144B5B6C03F00103FB60FB68002287
:105570000721192001F033F9192001F04CF912E04C
:105580007B681B680C4A93420DD10023BB60094B1A
:105590001B6C084A43F002031364064B1B6C03F0B8
:1055A0000203BB60BB6800BF1037BD4680BD00BFB3
:1055B00000000140003802400004004080B58CB07B
:1055C00000AF786007F11C0300221A605A609A60ED
:1055D000DA601A617B681B68B3F1804F4BD10023FE
:1055E000BB613F4B1B6C3E4A43F0010313643C4BD1
:1055F0001B6C03F00103BB61BB6900237B61384B6B
:105600001B6B374A43F001031363354B1B6B03F0ED
:1056100001037B617B6900233B61314B1B6B304A8B
:1056200043F0020313632E4B1B6B03F002033B6139
:105630003B694FF40043FB6102233B6200237B6222
:105640000023BB620123FB6207F11C0319462548B6
:1056500001F08EF90823FB6102233B6200237B6289
:105660000023BB620123FB6207F11C0319461E489D
:1056700001F07EF930E07B681B681C4A93422BD115
:105680000023FB60164B1B6C154A43F004031364A4
:10569000134B1B6C03F00403FB60FB680023BB602F
:1056A0000F4B1B6B0E4A43F0020313630C4B1B6B37
:1056B00003F00203BB60BB68C023FB6102233B62B3
:1056C00000237B620023BB620223FB6207F11C0301
:1056D0001946054801F04CF900BF3037BD4680BD82
:1056E0000038024000000240000402400008004070
:1056F00080B58AB000AF786007F1140300221A6009
:105700005A609A60DA601A617B681B68334A934278
:105710001FD100233B61324B1B6B314A43F0010325
:1057200013632F4B1B6B03F001033B613B694FF489
:1057300080637B610223BB610023FB6100233B622A
:1057400001237B6207F114031946264801F010F982
:1057500040E07B681B68244A93423BD10023FB60F6
:105760001F4B1B6B1E4A43F0010313631C4B1B6B47
:1057700003F00103FB60FB680023BB60184B1B6B4D
:10578000174A43F002031363154B1B6B03F002032C
:10579000BB60BB68C0237B610223BB610023FB614C
:1057A00000233B6202237B6207F1140319460D4874
:1057B00001F0DEF803237B610223BB610023FB6160
:1057C00000233B6202237B6207F11403194607485A
:1057D00001F0CEF800BF2837BD4680BD0000014073
:1057E0000038024000000240000400400004024073
:1057F00080B58AB000AF786007F1140300221A6008
:105800005A609A60DA601A617B681B681D4A93428D
:1058100034D100233B611C4B5B6C1B4A43F02003DB
:105820005364194B5B6C03F020033B613B6900231D
:10583000FB60154B1B6B144A43F001031363124BBF
:105840001B6B03F00103FB60FB684FF4C0537B61EB
:105850000223BB610023FB6103233B6208237B62BD
:1058600007F114031946094801F082F800220621C5
:10587000472000F0B4FF472000F0CDFF00BF2837DD
:10588000BD4680BD001401400038024000000240C7
:1058900080B400AF00BFFDE780B400AF00BFFDE7FC
:1058A00080B400AF00BFFDE780B400AF00BFFDE7EC
:1058B00080B400AF00BFFDE780B400AF00BFBD46BD
:1058C0005DF8047B704780B400AF00BFBD465DF853
:1058D000047B704780B400AF00BFBD465DF8047B19
:1058E000704780B500AF00F069FA00BF80BD80B599
:1058F00000AF022001F0F4F900BF80BD80B500AF19
:10590000024802F01FFF00BF80BD00BF0803002057
:1059100080B500AF4FF4806001F0E2F900BF80BDB8
:1059200080B500AF024803F03BFE00BF80BD00BF62
:105930002804002080B400AF01231846BD465DF85E
:10594000047B704780B582B000AF7860396005F0A5
:105950004DFB034616221A604FF0FF3318460837F6
:10596000BD4680BD80B582B000AF78604FF0FF319A
:105970007868FFF7E7FF00BFFDE780B586B000AFAE
:10598000F860B9607A6000237B610AE0AFF30080C1
:105990000146BB685A1CBA60CAB21A707B690133EF
:1059A0007B617A697B689A42F0DB7B68184618371E
:1059B000BD4680BD80B586B000AFF860B9607A6042
:1059C00000237B6109E0BB685A1CBA601B7818464B
:1059D000AFF300807B6901337B617A697B689A420F
:1059E000F1DB7B6818461837BD4680BD80B483B0B4
:1059F00000AF78604FF0FF3318460C37BD465DF8B6
:105A0000047B704780B483B000AF786039603B6836
:105A10004FF400525A60002318460C37BD465DF81B
:105A2000047B704780B483B000AF786001231846D0
:105A30000C37BD465DF8047B704780B485B000AF7D
:105A4000F860B9607A60002318461437BD465DF8E7
:105A5000047B704780B586B000AF7860144A154B60
:105A6000D31A7B617B693B61134B1B68002B02D10E
:105A7000114B124A1A60104B1A687B6813443A693A
:105A80009A4207D205F0B2FA03460C221A604FF090
:105A9000FF3309E0084B1B68FB60074B1A687B6803
:105AA0001344054A1360FB6818461837BD4680BD8D
:105AB0000000022000040000441E0020981F002067
:105AC00080B400AF064BD3F88830054A43F4700326
:105AD000C2F8883000BFBD465DF8047B704700BF48
