:020000040800F2
:10000000000002202D500008D5480008DD480008F7
:10001000E5480008ED480008F54800080000000029
:10002000000000000000000000000000FD48000883
:100030000B49000800000000194900082749000882
:100040007D5000087D5000087D5000087D5000085C
:100050007D5000087D5000087D500008334900089D
:100060007D5000087D5000087D5000087D5000083C
:100070007D5000087D5000087D5000087D5000082C
:100080007D5000087D5000087D50000800000000F1
:100090000000000000000000000000007D5000088B
:1000A0007D500008414900087D5000087D5000083F
:1000B0007D5000087D5000087D5000087D500008EC
:1000C0007D5000087D5000087D5000087D500008DC
:1000D0007D5000087D5000087D50000800000000A1
:1000E000554900087D5000087D50000800000000C0
:1000F0000000000000000000000000007D5000082B
:10010000000000007D5000087D5000087D50000870
:1001100000000000000000000000000000000000DF
:100120007D5000087D5000087D5000087D5000087B
:100130007D500008000000000000000000000000EA
:100140000000000000000000000000007D500008DA
:100150007D5000087D5000087D500008654900086A
:100160007D5000087D5000080000000000000000E5
:10017000000000000000000000000000000000007F
:10018000000000007D50000800000000000000009A
:080190007D5000087D500008BD
:1001A00010B5054C237833B9044B13B10448AFF3B1
:1001B00000800123237010BDFC010020000000001E
:1001C00008C6000808B5034B1BB103490348AFF349
:1001D000008008BD000000000002002008C60008E2
:1001E00001F0FF01102A2BDB10F0070F08D010F8E8
:1001F000013B013A8B422DD010F0070F42B3F6D1EC
:10020000F0B441EA012141EA014122F007047FF004
:1002100000070023F0E80256083C85EA010586EA5B
:10022000010685FA47F5A3FA87F586FA47F6A5FA97
:1002300087F68EB9EED1F0BC01F0FF0102F00702A3
:1002400032B110F8013B013A83EA010313B1F8D14E
:100250000020704701387047002D06BF354603382F
:10026000073815F0010F07D1013015F4807F02BF68
:10027000013015F4C03F0130F0BC0138704700BFB9
:10028000034613F8012B002AFBD1181A01387047D6
:1002900081F0004102E000BF83F0004330B54FEA37
:1002A00041044FEA430594EA050F08BF90EA020FA4
:1002B0001FBF54EA000C55EA020C7FEA645C7FEA37
:1002C000655C00F0E2804FEA5454D4EB5555B8BF5A
:1002D0006D420CDD2C4480EA020281EA030382EACB
:1002E000000083EA010180EA020281EA0303362D5D
:1002F00088BF30BD11F0004F4FEA01314FF4801C30
:100300004CEA113102D0404261EB410113F0004F41
:100310004FEA03334CEA133302D0524263EB4303F8
:1003200094EA050F00F0A780A4F10104D5F1200E96
:100330000DDB02FA0EFC22FA05F2801841F10001F1
:1003400003FA0EF2801843FA05F359410EE0A5F1C5
:1003500020050EF1200E012A03FA0EFC28BF4CF0F6
:10036000020C43FA05F3C01851EBE37101F00045AC
:1003700007D54FF0000EDCF1000C7EEB00006EEBB9
:100380000101B1F5801F1BD3B1F5001F0CD3490843
:100390005FEA30004FEA3C0C04F101044FEA44529A
:1003A00012F5800F80F09A80BCF1004F08BF5FEA21
:1003B000500C50F1000041EB045141EA050130BD01
:1003C0005FEA4C0C404141EB0101013C28BFB1F513
:1003D000801FE9D291F0000F04BF01460020B1FA5E
:1003E00081F308BF2033A3F10B03B3F120020CDA31
:1003F0000C3208DD02F1140CC2F10C0201FA0CF00F
:1004000021FA02F10CE002F11402D8BFC2F1200C73
:1004100001FA02F120FA0CFCDCBF41EA0C01904029
:10042000E41AA2BF01EB0451294330BD6FEA040472
:100430001F3C1CDA0C340EDC04F11404C4F120025D
:1004400020FA04F001FA02F340EA030021FA04F36F
:1004500045EA030130BDC4F10C04C4F1200220FAC6
:1004600002F001FA04F340EA0300294630BD21FA04
:1004700004F0294630BD94F0000F83F4801306BFCA
:1004800081F480110134013D4EE77FEA645C18BFBE
:100490007FEA655C29D094EA050F08BF90EA020F55
:1004A00005D054EA000C04BF1946104630BD91EA4D
:1004B000030F1EBF0021002030BD5FEA545C05D150
:1004C0004000494128BF41F0004130BD14F580048F
:1004D0003CBF01F5801130BD01F0004545F0FE4103
:1004E00041F470014FF0000030BD7FEA645C1ABF38
:1004F000194610467FEA655C1CBF0B46024650EA6F
:10050000013406BF52EA033591EA030F41F400219A
:1005100030BD00BF90F0000F04BF0021704730B520
:100520004FF4806404F132044FF000054FF00001F5
:1005300050E700BF90F0000F04BF0021704730B5B6
:100540004FF4806404F1320410F0004548BF40428B
:100550004FF000013EE700BF42004FEAE2014FEAE0
:1005600031014FEA02701FBF12F07F4393F07F4FBB
:1005700081F06051704732F07F4208BF704793F0BE
:100580007F4F04BF41F40021704730B54FF46074D1
:1005900001F0004521F000411CE700BF50EA0102D4
:1005A00008BF704730B54FF000050AE050EA01027D
:1005B00008BF704730B511F0004502D5404261EBED
:1005C00041014FF4806404F132045FEA915C3FF42E
:1005D000D8AE4FF003025FEADC0C18BF03325FEACB
:1005E000DC0C18BF033202EBDC02C2F1200300FA7C
:1005F00003FC20FA02F001FA03FE40EA0E0021FAA1
:1006000002F11444BDE600BF70B54FF0FF0C4CF48E
:10061000E06C1CEA11541DBF1CEA135594EA0C0F40
:1006200095EA0C0F00F0DEF82C4481EA030621EA7B
:100630004C5123EA4C5350EA013518BF52EA0335B6
:1006400041F4801143F4801338D0A0FB02CE4FF068
:100650000005E1FB02E506F00042E0FB03E54FF098
:100660000006E1FB03569CF0000F18BF4EF0010E90
:10067000A4F1FF04B6F5007F64F5407404D25FEA8C
:100680004E0E6D4146EB060642EAC62141EA55513F
:100690004FEAC52040EA5E504FEACE2EB4F1FD0C81
:1006A00088BFBCF5E06F1ED8BEF1004F08BF5FEAFF
:1006B000500E50F1000041EB045170BD06F00046B1
:1006C00046EA010140EA020081EA0301B4EB5C045E
:1006D000C2BFD4EB0C0541EA045170BD41F4801156
:1006E0004FF0000E013C00F3AB8014F1360FDEBF7B
:1006F000002001F0004170BDC4F10004203C35DA57
:100700000C341BDC04F11404C4F1200500FA05F3D9
:1007100020FA04F001FA05F240EA020001F000427A
:1007200021F0004110EBD37021FA04F642EB0601F0
:100730005EEA430E08BF20EAD37070BDC4F10C041A
:10074000C4F1200500FA04F320FA05F001FA04F2DE
:1007500040EA020001F0004110EBD37041F10001CA
:100760005EEA430E08BF20EAD37070BDC4F12005D5
:1007700000FA05F24EEA020E20FA04F301FA05F23D
:1007800043EA020321FA04F001F0004121FA04F2E5
:1007900020EA020000EBD3705EEA430E08BF20EAB5
:1007A000D37070BD94F0000F0FD101F000464000EF
:1007B00041EB010111F4801F08BF013CF7D041EA71
:1007C000060195F0000F18BF704703F00046520075
:1007D00043EB030313F4801F08BF013DF7D043EA46
:1007E0000603704794EA0C0F0CEA135518BF95EAFC
:1007F0000C0F0CD050EA410618BF52EA4306D1D183
:1008000081EA030101F000414FF0000070BD50EAA1
:10081000410606BF1046194652EA430619D094EA2B
:100820000C0F02D150EA013613D195EA0C0F05D115
:1008300052EA03361CBF104619460AD181EA030169
:1008400001F0004141F0FE4141F470014FF0000021
:1008500070BD41F0FE4141F4780170BD70B54FF0BC
:10086000FF0C4CF4E06C1CEA11541DBF1CEA13553C
:1008700094EA0C0F95EA0C0F00F0A7F8A4EB05041E
:1008800081EA030E52EA03354FEA013100F0888015
:100890004FEA03334FF0805545EA131343EA1263DE
:1008A0004FEA022245EA111545EA10654FEA002693
:1008B0000EF000419D4208BF964244F1FD0404F54C
:1008C000407402D25B084FEA3202B61A65EB0305A8
:1008D0005B084FEA32024FF480104FF4002CB6EB65
:1008E000020E75EB030E22BFB61A754640EA0C00E5
:1008F0005B084FEA3202B6EB020E75EB030E22BF25
:10090000B61A754640EA5C005B084FEA3202B6EB65
:10091000020E75EB030E22BFB61A754640EA9C0024
:100920005B084FEA3202B6EB020E75EB030E22BFF4
:10093000B61A754640EADC0055EA060E18D04FEAB2
:10094000051545EA16754FEA06164FEAC30343EA52
:1009500052734FEAC2025FEA1C1CC0D111F4801F1F
:100960000BD141EA00014FF000004FF0004CB6E718
:1009700011F4801F04BF01430020B4F1FD0C88BFB7
:10098000BCF5E06F3FF6AFAEB5EB030C04BFB6EBC2
:10099000020C5FEA500C50F1000041EB045170BDB5
:1009A0000EF0004E4EEA113114EB5C04C2BFD4EBE2
:1009B0000C0541EA045170BD41F480114FF0000E66
:1009C000013C90E645EA060E8DE60CEA135594EAE2
:1009D0000C0F08BF95EA0C0F3FF43BAF94EA0C0FE5
:1009E0000AD150EA01347FF434AF95EA0C0F7FF45A
:1009F00025AF104619462CE795EA0C0F06D152EAAE
:100A000003353FF4FDAE1046194622E750EA410691
:100A100018BF52EA43067FF4C5AE50EA41047FF4A2
:100A20000DAF52EA43057FF4EBAE12E74FF0FF3C07
:100A300006E000BF4FF0010C02E000BF4FF0010CD8
:100A40004DF804CD4FEA410C7FEA6C5C4FEA430C51
:100A500018BF7FEA6C5C1BD001B050EA410C0CBFA0
:100A600052EA430C91EA030F02BF90EA020F002002
:100A7000704710F1000F91EA030F58BF994208BF69
:100A800090422CBFD8176FEAE37040F00100704726
:100A90004FEA410C7FEA6C5C02D150EA013C07D17D
:100AA0004FEA430C7FEA6C5CD6D152EA033CD3D0C8
:100AB0005DF8040B704700BF8446104662468C46C2
:100AC0001946634600E000BF01B5FFF7B7FF0028F5
:100AD00048BF10F1000F01BD4DF808EDFFF7F4FF1E
:100AE0000CBF012000205DF808FB00BF4DF808EDA9
:100AF000FFF7EAFF34BF012000205DF808FB00BFCC
:100B00004DF808EDFFF7E0FF94BF012000205DF8ED
:100B100008FB00BF4DF808EDFFF7CEFF94BF0120A2
:100B200000205DF808FB00BF4DF808EDFFF7C4FF9B
:100B300034BF012000205DF808FB00BF4FEA410CE4
:100B40007FEA6C5C02D150EA013C0AD14FEA430CC7
:100B50007FEA6C5C02D152EA033C02D14FF0000004
:100B600070474FF0010070474FEA410212F5001242
:100B700015D211D56FF47873B3EB625212D94FEAE4
:100B8000C12343F0004343EA505311F0004F23FACE
:100B900002F018BF404270474FF00000704750EA23
:100BA000013005D111F0004008BF6FF000407047E0
:100BB0004FF00000704700BF53B94AB9002908BF81
:100BC00000281CBF4FF0FF314FF0FF3000F088B914
:100BD000ADF1080C6DE904CE00F006F8DDF804E094
:100BE000DDE9022304B070472DE9F047089D8E46E9
:100BF00004468846002B4AD18A42174662D9B2FA87
:100C000082F64EB1C6F1200301FA06F820FA03F38A
:100C1000B74043EA0808B4404FEA174E1FFA87FC72
:100C2000B8FBFEF1230C0EFB118843EA084301FBDD
:100C30000CF29A4209D9FB1801F1FF3080F0EA80EA
:100C40009A4240F2E78002393B449A1AA3B2B2FBBF
:100C5000FEF00EFB102243EA024300FB0CFC9C4515
:100C600009D9FB1800F1FF3280F0D6809C4540F294
:100C7000D3803B44023840EA0140A3EB0C0300213F
:100C80001DB1F3400022C5E90032BDE8F0878B4278
:100C900005D90DB1C5E9000100210846F5E7B3FA11
:100CA00083F1002946D1734502D3824200F20581C7
:100CB000841A6EEB030201209046002DE5D0C5E9B1
:100CC0000048E2E7002A00F09080B2FA82F6002E97
:100CD00040F0A4808A1A030C4FEA174E80B2BCB2CF
:100CE0000121B2FBFEFC0EFB1C2243EA024304FB83
:100CF0000CF29A4207D9FB180CF1FF3802D29A4243
:100D000000F2E080C4469B1AB3FBFEF20EFB1233E6
:100D100040EA034302FB04F49C4207D9FB1802F1AA
:100D2000FF3002D29C4200F2CA8002461B1B42EAFC
:100D30000C40A5E7C1F120068B4022FA06F71F43BD
:100D40000EFA01F420FA06F32EFA06FE4FEA1749CE
:100D5000234300FA01F81FFA87FCBEFBF9F01C0CD4
:100D600009FB10EE44EA0E4400FB0CFEA64502FA15
:100D700001F209D93C1900F1FF3A80F09C80A645A8
:100D800040F2998002383C44A4EB0E041FFA83FE23
:100D9000B4FBF9F309FB13444EEA044403FB0CFCD7
:100DA000A44508D93C1903F1FF3E80F08280A44598
:100DB0007FD9023B3C4443EA0040A4EB0C04A0FB77
:100DC00002EC64457346E14662D35FD05DB1B8EB97
:100DD000030264EB090404FA06F622FA01F31E4347
:100DE000CC40C5E9006400214FE7B1FBF2FC010CE7
:100DF00041EA0E4180B240EA01423B4638463C4659
:100E0000B846BE462026B1FBF7F1A2EB080241EA44
:100E10000C4166E7014618E710462CE7C6F12002B0
:100E20002EFA02F3B740B14020FA02F24FEA174E11
:100E30000A43B3FBFEF8BCB20EFB1833110C41EAB7
:100E4000034108FB04F9B04089454FEA104380B2E2
:100E50003ED9791808F1FF3C01D289451FD8A1EB92
:100E60000901B1FBFEF909FB04F80EFB191192B25E
:100E700042EA0142424529D2BA1809F1FF31C4D2EF
:100E80004245C2D2A9F102013A44BEE7F0459DD2E3
:100E9000BEEB02036CEB070C0138E14696E7A7EBCB
:100EA00009094944A8F1020CB1FBFEF909FB04F859
:100EB000DBE773467FE7504666E70846FDE63B44BE
:100EC000023A33E7ACF1020C3B441CE749469CE78D
:100ED000A1EB0901C446B1FBFEF909FB04F8C4E724
:100EE000704700BF80B584B000AF03460A46FB8060
:100EF0001346BB80FB88002B06D100F037F8BB8877
:100F0000184604F02FF92AE0FB88164A92FBF3F307
:100F1000FB60FB68B3F5803F02D34FF6FF73FB60C5
:100F2000FB68132B01D81423FB600F4B1B68FA6876
:100F3000013ADA62FB68013B0B4AD3600A4B1B683B
:100F4000FA685208DA630821074806F067FBBB8895
:100F5000184604F007F90821034806F00FFC103783
:100F6000BD4680BD00093D00C802002080B500AF2D
:100F70000821024806F002FC00BF80BDC802002024
:100F800080B500AFC82140F20B20FFF7ABFF322144
:100F90000020FFF7A7FFC82140F29320FFF7A2FF30
:100FA00032210020FFF79EFF4FF496714FF44470FA
:100FB000FFF798FF00BF80BD80B500AF96214FF4CA
:100FC0004470FFF78FFF32210020FFF78BFFC8210D
:100FD00040F21740FFF786FF00BF80BD80B500AF2D
:100FE000642140F20B20FFF77DFF642140F2932043
:100FF000FFF778FF64214FF44470FFF773FFC821B7
:1010000040F21740FFF76EFF64210020FFF76AFFF0
:10101000642140F21740FFF765FF64214FF44470EC
:10102000FFF760FF4FF4967140F21740FFF75AFF49
:1010300000BF80BD80B582B000AF00237B600AE0B6
:10104000C821DC20FFF74EFF64210020FFF74AFF94
:101050007B6801337B607B68022BF1DD00BF00BF42
:101060000837BD4680BD80B500AF32214FF47A709D
:10107000FFF738FF00BF80BD80B500AF1E214FF4E1
:101080004870FFF72FFF00BF80BD000080B582B021
:1010900000AF78607868FFF7F3F803469AB24FF430
:1010A0007A737968034807F0A3FB00BF0837BD4691
:1010B00080BD00BFE80300200FB480B5C2B000AF10
:1010C00007F58A7207F58473A3F582731A6007F532
:1010D0008473A3F5827307F108001B68D7F8102109
:1010E0004FF4807109F0F8F807F108031846FFF78C
:1010F000CDFF00BF07F58477BD46BDE8804004B052
:101100007047000080B594B000AF4448FFF7BEFFC1
:101110000F23FB6458E03B4640220021184609F0AB
:10112000E9F80023BB6438E03D49BB6C1A01FB6C55
:1011300013441B010B4404331B78002B1DD038498A
:10114000BB6C1A01FB6C13441B010B441B6842F27D
:101150000E72934208DC3249BB6C1A01FB6C1344DB
:101160001B010B441B6801E040F2E73307F140002C
:101170001A462C4909F01CF805E007F140032A49FA
:10118000184609F015F807F140023B46114618468B
:1011900009F0B8F8BB6C0133BB64BB6C0F2BC3DD2B
:1011A0003B461846FFF76CF803461A463B46134485
:1011B0001E4A1188927819809A703B461846FFF7AC
:1011C00065FFFB6C013BFB64FB6C002BA3DA184B47
:1011D0001968174B5A68164B9B681648FFF76CFF47
:1011E000134B1B7B002B01D0134B00E0134B194614
:1011F0001348FFF761FF0E4B5B7B002B01D00E4BBA
:1012000000E00E4B19460F48FFF756FF0E48FFF758
:101210003DFF00BF5037BD4680BD00BF20C600085F
:101220003004002038C6000840C6000848C6000840
:10123000301400204CC6000874C6000878C60008A8
:101240007CC6000894C60008ACC60008F0B587B09C
:1012500006AF134B1B881D46114B1B891E46104BB6
:101260005B889C460E4BDB881A460D4B9B881946C3
:101270000B4B9B7A18460A4BDB7A1C46084B1B7BB0
:1012800004930394029001910092634632462946EA
:101290000448FFF711FF00BF0437BD46F0BD00BF93
:1012A00044140020C4C6000880B584B002AF0F4BC0
:1012B0001B685B6AA3F500437B600D4B1B685B6A90
:1012C000A3F500433B600B4B19680A4B5A68094B66
:1012D00098683B6801937B68009303460648FFF7D4
:1012E000EBFE00BF0837BD4680BD00BF10030020E5
:1012F000A00300203014002008C7000880B582B089
:1013000000AF01F0B9FF87ED010A02F005F838607F
:101310002448FFF7BBFE244B1B6919462348FFF7FF
:10132000CBFE7868FFF718F902460B462048FFF716
:10133000C3FE39681F48FFF7BFFED7ED017A9FED66
:101340001E7AF4EEC77AF1EE10FA06D83B68002B4D
:1013500003DD1A48FFF79AFE1CE0D7ED017A9FEDF6
:10136000187AF4EEC77AF1EE10FA03D81548FFF7B1
:101370008DFE0FE0D7ED017A9FED137AF4EEC77A78
:10138000F1EE10FA03D81148FFF780FE02E0104892
:10139000FFF77CFE0F48FFF779FE00BF0837BD4618
:1013A00080BD00BF38C700083014002058C70008AF
:1013B00070C7000894C7000800004842B8C700087A
:1013C00000008242D8C700080000A04204C80008FC
:1013D0002CC8000850C8000880B584B002AF164B76
:1013E0001B8807EE903AF8EEE77A9FED147A27EE25
:1013F000877ADFED136AC7EE267AC7ED017A78683F
:10140000FFF7AAF802460B460B49098800910D48E0
:10141000FFF752FE084B1B8840F6B732934203D8C1
:101420000948FFF733FE02E00848FFF72FFE00BF30
:101430000837BD4680BD00BF4414002033335340FD
:101440000000804570C8000888C80008A4C80008CB
:1014500080B584B000AF0346FB71FB7963F07F0376
:10146000DBB27B7300233B7300224FF4805117489B
:1014700004F0B6FD07F10D0164230122144805F0C4
:10148000DCFA0346FB7307F10C01642301221048C8
:1014900005F017FC0346BB7301224FF480510B4843
:1014A00004F09EFDFB7B002B02D1BB7B002B07D001
:1014B0000848FFF7EBFD084B00221A70FF2300E0FD
:1014C0003B7B18461037BD4680BD00BF000402407C
:1014D00070020020C4C900081802002080B584B042
:1014E00000AF03460A46FB711346BB71FB793B73A1
:1014F000BB797B7300224FF48051114804F070FDDA
:1015000007F10C01642302220E4805F096FA034607
:10151000FB7301224FF48051094804F061FDFB7B0D
:10152000002B05D00848FFF7B1FD084B00221A70C8
:10153000012003F017FE00BF1037BD4680BD00BF7D
:101540000004024070020020E8C9000818020020D0
:1015500080B582B000AF3C48FFF798FDC82003F08B
:1015600001FE80216B20FFF7B9FFFA2003F0FAFD9E
:1015700000216B20FFF7B2FF322003F0F3FD0121C1
:101580006B20FFF7ABFF322003F0ECFD00216C2055
:10159000FFF7A4FF0A2003F0E5FD6A20FFF758FFDC
:1015A0000346FB71FB7943F01003FB71FB7919468D
:1015B0006A20FFF793FF0A2003F0D4FD04211920CD
:1015C000FFF78CFF0A2003F0CDFD02211A20FFF760
:1015D00085FF0A2003F0C6FD08211B20FFF77EFFD0
:1015E0000A2003F0BFFD08211C20FFF777FF0A2027
:1015F00003F0B8FD02211D20FFF770FF0A2003F061
:10160000B1FD7520FFF724FF0346BB71BB79194676
:101610000E48FFF751FDBB79702B09D0BB791946F5
:101620000B48FFF749FD0B4B00221A70002306E020
:101630000948FFF72BFD074B01221A7001231846BA
:101640000837BD4680BD00BF10CA00083CCA00086C
:1016500050CA00081802002078CA000880B582B07D
:1016600000AF274B1B7883F00103DBB2002B03D0C4
:101670002448FFF70BFD3FE02348FFF707FD234B0E
:1016800064229A604FF000037B6000233B6014E00B
:1016900000F070F81E4BB3F9043007EE903AF8EE04
:1016A000E77A97ED017A77EE277AC7ED017A032082
:1016B00003F058FD3B6801333B60144B9A683B686C
:1016C0009A42E5D8114B9B6807EE903AB8EE677ADC
:1016D000D7ED016AC6EE877A0C4BC3ED007A0B4B4F
:1016E00001221A71094B1B681846FEF735FF0246A6
:1016F0000B460848FFF7E0FC0837BD4680BD00BF39
:10170000180200208CCA0008B8CA00081C02002079
:1017100054140020ECCA000880B582B000AF124B10
:101720001B7983F00103DBB2002B04D000F07EF8BC
:10173000F0EE407A13E00D4BB3F9043007EE903A27
:10174000B8EEE77A084BD3ED007A37EE677ADFED33
:10175000086AC7EE267AC7ED017AD7ED017AB0EEB6
:10176000670A0837BD4680BD1C02002054140020C3
:101770000000834280B584B000AF254B1B7883F016
:101780000103DBB2002B03D02248FFF77FFC3CE0D3
:10179000C323FB7100224FF480511F4804F020FC4A
:1017A000F91D642301221D4805F047F90346FB7328
:1017B000FB7B002B09D001224FF48051164804F026
:1017C0000FFC1748FFF762FC1FE007F108016423D4
:1017D0000622124805F075FA0346FB7301224FF406
:1017E00080510D4804F0FCFBFB7B002B03D00D481F
:1017F000FFF74CFC09E03B7B1BB21B021AB27B7B60
:101800001BB213431AB2084B9A801037BD4680BDF5
:10181000180200200CCB00080004024070020020D7
:1018200040CB000864CB00085414002080B400AF03
:10183000094BB3F9043007EE903AF8EEE77A9FEDE2
:10184000077AC7EE876AF0EE667AB0EE670ABD46A1
:101850005DF8047B704700BF5414002000008342F1
:1018600080B500AF2848FFF711FC0021274805F09C
:10187000D5FE0421254805F0D1FE0821234805F0B6
:10188000CDFE0C21214805F0C9FE01224FF4005184
:101890001F4804F0A5FB00F03FFD02F009FDFFF733
:1018A00057FE0346002B0FD01A48FFF7EFFB1A48EC
:1018B000FFF7ECFB4FF4FA6003F054FCFFF7CEFEA9
:1018C0001648FFF7E3FB02E01548FFF7DFFB01F0E6
:1018D000ABFD642003F046FC01F06CFD0346002BD9
:1018E00008D101F071FD0346002B03D10D48FFF72D
:1018F000CDFB02E00C48FFF7C9FB00F00BFE0B48E4
:10190000FFF7C4FB00BF80BDB8CC0008580300201F
:1019100000080240ECCC000820CD000858CD00089B
:1019200078CD0008B4CD0008ECCD000818CE000832
:1019300080B582B000AF03F009FC78601C4B1B68D7
:101940007A68D31A42F21072934216D9194B1B7857
:1019500083F00103DBB2002B0FD0FFF73DFD164BE8
:101960001B78002B03D01548FFF790FB02E01448CA
:10197000FFF78CFB0E4A7B681360124B1B687A687A
:10198000D31AB3F5FA6F0FD90B4B1B78002B04D089
:1019900010210D4804F03DFB03E020210A4804F02B
:1019A00038FB084A7B68136000BF0837BD4680BD1E
:1019B0007C1400207B1400207A1400204CCF0008F7
:1019C0008CCF0008801400200004024080B500AFD6
:1019D00003F056FB00F0C4F800F0BCFB00F028F95F
:1019E00000F078F900F0ACF900F04AFA00F034FBAE
:1019F00000F086FB00F098FA04F062FF03461846F8
:101A000000F062FDFFF72CFFFFF7BAFA03F0B0F821
:101A10004548FFF73BFB4548FFF738FB4448FFF7D5
:101A200035FB4448FFF732FB03F090FB0346424A84
:101A3000136003F08BFB0346404A136001F030FD56
:101A40003F4B1B78DBB2012B33D13D4B00221A7088
:101A50003C4B1B7883F00103DBB2002B12D03A4BD6
:101A60001B78002B0ED03948FFF710FBFFF7A4FAC4
:101A70004FF47A7003F076FB324B01221A7001F0BA
:101A800057FB16E001F0E8FB0346002B05D0304879
:101A9000FFF7FCFAFFF732FC0BE02B4B1B7883F0CF
:101AA0000103DBB2002B04D02A48FFF7EFFAFFF75F
:101AB000C1FA234B1B78DBB2022B28D1204B00222A
:101AC0001A70204B1B78002B12D001F0C5FB034687
:101AD00083F00103DBB2002B0AD01F48FFF7D6FAD0
:101AE00001F026FDFFF7A6FA164B00221A700EE051
:101AF0001A48FFF7CBFAFFF705FBFFF7A7FBFFF745
:101B0000D3FB104B1B78002B01D0FFF7F7FBFFF73F
:101B10000FFF0C4B1B78002B01D001F09DFB3220F6
:101B200003F020FB8CE700BFB8CF0008E0CF00082F
:101B300004D000082CD000087C1400208014002061
:101B4000781400207B1400207A14002048D000086C
:101B500074D00008B0D00008E0D00008F8D0000829
:101B600080B594B000AF07F1200330220021184661
:101B700008F0C0FB07F10C0300221A605A609A605B
:101B8000DA601A610023BB60274B1B6C264A43F0C6
:101B900080531364244B1B6C03F08053BB60BB6801
:101BA00000237B60214B1B68204A43F440431360B1
:101BB0001E4B1B6803F440437B607B6802233B623F
:101BC0000123FB6210233B630223BB630023FB63FF
:101BD00010233B64A8237B640223BB640423FB64BF
:101BE00007F12003184604F047FA0346002B01D002
:101BF00000F0CEFB0F23FB6002233B6100237B61DF
:101C00004FF48053BB610023FB6107F10C030221F9
:101C1000184604F0A9FC0346002B01D000F0B8FBE5
:101C200000BF5037BD4680BD003802400070004004
:101C300080B584B000AF3B4600221A605A609A60BB
:101C4000DA60214B214A1A601F4B4FF480325A60F0
:101C50001D4B00229A601C4B00221A611A4B002275
:101C60001A76194B002283F82020174B0022DA62E3
:101C7000154B174A9A62144B0022DA60124B01226C
:101C8000DA61114B002283F830200F4B01225A6198
:101C90000D4803F08BFA0346002B01D000F078FBCF
:101CA00000233B6001237B600423BB603B46194655
:101CB000054803F03FFC0346002B01D000F068FB11
:101CC00000BF1037BD4680BD280200200020014023
:101CD0000100000F80B500AF174B184A1A60164B71
:101CE0004FF482725A60144B00229A60124B002209
:101CF000DA60114B00221A610F4B00225A610E4B21
:101D00004FF400729A610C4B3022DA610A4B0022C8
:101D10001A62094B00225A62074B00229A62064B54
:101D20000A22DA62044804F0FFFD0346002B01D0CA
:101D300000F02EFB00BF80BD700200200038004084
:101D400080B596B000AF07F1480300221A605A60D0
:101D50009A60DA6007F1400300221A605A6007F1C6
:101D6000240300221A605A609A60DA601A615A618C
:101D70009A613B1D20220021184608F0BBFA3E4B19
:101D80003E4A1A603C4B14225A603B4B00229A6038
:101D9000394BC822DA60384B00221A61364B0022D8
:101DA0005A61354B80229A61334805F08FFB034618
:101DB000002B01D000F0ECFA4FF48053BB6407F124
:101DC000480319462C4806F023F80346002B01D09F
:101DD00000F0DEFA284805F0C8FB0346002B01D0CE
:101DE00000F0D6FA00233B6400237B6407F1400334
:101DF0001946214806F0D8FB0346002B01D000F01D
:101E0000C7FA60237B626423BB620023FB6200236A
:101E10003B6300237B630023BB630023FB6307F169
:101E2000240308221946144805F030FF0346002B0E
:101E300001D000F0ADFA00237B600023BB600023DB
:101E4000FB6000233B6100237B614FF40053BB61C7
:101E500000233B623B1D1946074806F013FC03466E
:101E6000002B01D000F094FA034802F063FC00BF9D
:101E70005837BD4680BD00BFC802002000000140A9
:101E800080B58CB000AF07F10C0324220021184666
:101E900008F030FA3B1D00221A605A60214B4FF0C7
:101EA00080421A601F4B00225A601E4B00229A602B
:101EB0001C4B4FF6FF72DA601A4B00221A61194B65
:101EC00080229A610323FB6000233B6101237B6135
:101ED0000023BB610023FB6100233B6201237B6283
:101EE0000023BB620023FB6207F10C0319460D4877
:101EF00005F0A8FC0346002B01D000F049FA0023AE
:101F00007B600023BB603B1D1946064806F04CFB76
:101F10000346002B01D000F03BFA00BF3037BD462E
:101F200080BD00BF1003002080B58EB000AF07F168
:101F3000280300221A605A609A60DA6007F12003D1
:101F400000221A605A603B1D00221A605A609A6093
:101F5000DA601A615A619A613D4B3E4A1A603C4B05
:101F600004225A603A4B00229A60394B40F24632C2
:101F7000DA60374B00221A61354B80229A6134486F
:101F800005F0A4FA0346002B01D000F001FA4FF44B
:101F90008053BB6207F1280319462D4805F038FF2E
:101FA0000346002B01D000F0F3F9294805F0DDFAD3
:101FB0000346002B01D000F0EBF900233B62002325
:101FC0007B6207F120031946214806F0EDFA03462B
:101FD000002B01D000F0DCF960237B600023BB60A4
:101FE0000023FB6000237B613B1D0022194618483B
:101FF00005F04CFE0346002B01D000F0C9F93B1D53
:1020000004221946124805F041FE0346002B01D078
:1020100000F0BEF93B1D082219460D4805F036FEBA
:102020000346002B01D000F0B3F93B1D0C221946EA
:10203000074805F02BFE0346002B01D000F0A8F95D
:10204000034802F077FB00BF3837BD4680BD00BFB4
:10205000580300200004004080B58CB000AF07F1A9
:102060000C0324220021184608F044F93B1D0022ED
:102070001A605A60204B214A1A601F4B00225A6096
:102080001D4B00229A601C4B4FF6FF72DA601A4B10
:1020900000221A61184B80229A610323FB600023FF
:1020A0003B6101237B610023BB610023FB610023B3
:1020B0003B6201237B620023BB620023FB6207F1CA
:1020C0000C0319460C4805F0BDFB0346002B01D05C
:1020D00000F05EF900237B600023BB603B1D1946C6
:1020E000054806F061FA0346002B01D000F050F9D4
:1020F00000BF3037BD4680BDA0030020000800406F
:1021000080B500AF114B124A1A60104B4FF41652B3
:102110005A600E4B00229A600C4B0022DA600B4B87
:1021200000221A61094B0C225A61084B00229A6165
:10213000064B0022DA61054806F00AFB0346002B35
:1021400001D000F025F900BF80BD00BFE8030020EA
:102150000014014080B588B000AF07F10C030022E5
:102160001A605A609A60DA601A610023BB604B4BB8
:102170001B6B4A4A43F004031363484B1B6B03F089
:102180000403BB60BB6800237B60444B1B6B434A6A
:1021900043F001031363414B1B6B03F001037B60AE
:1021A0007B6800233B603D4B1B6B3C4A43F00203C2
:1021B00013633A4B1B6B03F002033B603B68002246
:1021C0004FF40051364803F00BFF002241F230314A
:1021D000344803F005FF00224FF44071324803F009
:1021E000FFFE4FF40053FB6001233B6100237B6142
:1021F0000023BB6107F10C031946294803F06CFD6D
:102200000223FB604FF488133B6100237B6107F1DD
:102210000C031946244803F05FFD4FF48063FB6014
:102220004FF488133B6100237B6107F10C031946CF
:102230001C4803F051FD41F23033FB6001233B6148
:1022400000237B610023BB6107F10C03194615488D
:1022500003F042FD4FF44073FB6001233B61002318
:102260007B610023BB6107F10C0319460E4803F0A4
:1022700033FD00220521072003F065FC072003F051
:102280007EFC00220521282003F05DFC282003F0BD
:1022900076FC00BF2037BD4680BD00BF003802403D
:1022A00000080240000402400000024080B584B0F3
:1022B00000AF0346FB8002F049FFF860114B1B683A
:1022C000FA68D31AC82B19D9FB88022B09D10E4BF7
:1022D00001221A700D4B01221A700D48FEF7D6FE2E
:1022E00009E0FB88B3F5806F05D1074B02221A7015
:1022F0000848FEF7CBFE034AFB68136000BF1037A7
:10230000BD4680BD8414002078140020791400207C
:1023100020D1000838D1000880B586B000AF3B1D41
:1023200000221A605A609A60DA601A6101237B60A9
:102330000323BB600023FB603B1D1946124803F0DA
:10234000CBFC04237B603B1D19460F4803F0C4FC03
:1023500008237B603B1D19460B4803F0BDFC10238E
:102360007B603B1D1946084803F0B6FC20237B60C8
:102370003B1D1946044803F0AFFC0448FEF786FEF7
:1023800000BF1837BD4680BD0000024050D1000894
:1023900080B500AF72B600BF1021064803F039FEC9
:1023A0002021044803F035FE642002F0DBFE00BF6C
:1023B000F2E700BF0004024080B483B000AF786051
:1023C0007B680022C3F884287B68D3F884287B6864
:1023D000C3F8802800BF0C37BD465DF8047B70470A
:1023E00080B483B000AF78607B68D3F880287B68C6
:1023F000D3F884389A420CBF01230023DBB218467D
:102400000C37BD465DF8047B704780B485B000AFE3
:10241000F8603B1D83E80600FB68D3F88438B3F509
:10242000887F0EDAFB68D3F88438591CFA68C2F842
:102430008418FA68DB0013443A1D92E8030083E82D
:10244000030000BF1437BD465DF8047B704790B4AD
:1024500082B000AF786039603B68D3F88038591C8F
:102460003A68C2F8801879683A680C46DB00134471
:1024700093E8030084E8030078680837BD4690BC01
:102480007047000080B485B000AF78600C4B5B688B
:10249000FB600C4B1A687B6802FB03F3BB6000E037
:1024A00000BF074B5A68FB68D31ABA689A42F7D83C
:1024B00000BF00BF1437BD465DF8047B704700BF06
:1024C000001000E0281D002080B483B000AF7860C9
:1024D0000C4BDB680B4A43F08073D3600A4B1B68DC
:1024E000094A43F0010313607B68084AA2FB0323F7
:1024F0009B0C074A136000BF0C37BD465DF8047B98
:10250000704700BFF0ED00E0001000E083DE1B43E9
:10251000281D002080B586B002AF5A48FEF7B6FDF0
:102520000023FB603EE00023BB6035E05649FB68BA
:102530001A01BB6813441B010B4442F20F721A606C
:102540005149FB681A01BB6813441B010B44043357
:1025500000221A704C49FB681A01BB6813441B0126
:102560000B440C3300221A6000237B600EE04649C6
:10257000FB681A01BB6813441B01CA187B6813442B
:10258000053300221A707B6801337B607B68032B64
:10259000EDDDBB680133BB60BB680F2BC6DDFB689C
:1025A0000133FB60FB680F2BBDDD00233B601FE0A8
:1025B000354A3B681B021344073301221A70324A22
:1025C0003B681B021344F53301221A702E4A3B6804
:1025D0001B011344083301221A702B4A3B681B016C
:1025E000134403F6067301221A703B6801333B6003
:1025F0003B680F2BDCDD254B07221A60244B07229A
:102600001A60244B08221A60234B08221A60234BBD
:1026100000221A60214B00225A60204B00229A604F
:102620001E4B00221A731D4B00225A731B4B0022B3
:102630001A61154B01221A71134B0122DA60184BF3
:1026400000221A60174B00221A601022102116482F
:10265000FEF732FD0D4B19680D4B1A680D4B1868CB
:102660000D4B1B68009303461048FEF725FD1048EC
:10267000FEF70CFD0F48FEF709FD00BF1037BD4601
:1026800080BD00BF78D100083004002088140020ED
:102690008C1400209014002094140020301400208A
:1026A000981400209C140020A4D10008B8D1000880
:1026B000D8D1000808D2000880B598B000AF002338
:1026C000FB6515E00023BB650CE08449FB6D1A0136
:1026D000BB6D13441B010B4442F20F721A60BB6DB9
:1026E0000133BB65BB6D0F2BEFDDFB6D0133FB656C
:1026F000FB6D0F2BE6DD7A48FFF75EFE794B1B7B07
:1027000083F00103DBB2002B60D0774B1A68774B64
:102710001B687249120113441B010B4400221A600A
:10272000734B1A68714B1B686C49120113441B01EF
:102730000B4400221A606C4B1A686E4B1B68674989
:10274000120113441B010B4400221A60684B1A68E3
:10275000684B1B686149120113441B010B440022A2
:102760001A60614B1B687B63604B1B68BB6307F19E
:10277000340393E806005A48FFF747FE5C4B1B689A
:10278000FB625A4B1B683B6307F12C0393E806007E
:102790005348FFF73AFE544B1B687B62554B1B684E
:1027A000BB6207F1240393E806004D48FFF72DFEB6
:1027B0004F4B1B68FB614F4B1B683B6207F11C03CF
:1027C00093E806004648FFF720FE0DE0434B002249
:1027D0001A6000237B610023BB6107F1140393E8B7
:1027E00006003F48FFF711FE00237B6568E007F114
:1027F0000C033B491846FFF72AFEFB68FB643B6964
:10280000BB6400233B6558E03449FB6C1A01BB6C88
:1028100013441B01CA183B6D134405331B78002B6E
:1028200045D1354A3B6D52F82330FA6C13447B6432
:10283000324A3B6D52F82330BA6C13443B647B6CD4
:10284000002B36DB7B6C0F2B33DC3B6C002B30DB3F
:102850003B6C0F2B2DDC2149FB6C1A01BB6C134424
:102860001B010B441B680133FB631C497B6C1A0181
:102870003B6C13441B010B441B68FA6B9A4219DA38
:1028800016497B6C1A013B6C13441B010B44FA6B19
:102890001A607B6C7B603B6CBB603B1D93E8060061
:1028A0000F48FFF7B2FD7B6D01337B6502E000BF8F
:1028B00000E000BF3B6D01333B653B6D032BA3DDA7
:1028C0000748FFF78DFD0346002B90D0796D0C482B
:1028D000FEF7F2FB00BF6037BD4680BD300400202C
:1028E000A014002030140020881400208C14002034
:1028F000901400209414002058E2000868E20008B8
:1029000038D2000880B493B000AF894B9B687B64D9
:1029100042F20F733B6440F2E733FB63002387F816
:102920003B30834B9B683B60814B9B6801335A4231
:1029300003F0030302F0030258BF53427B607C4B59
:102940009B6803335A4203F0030302F0030258BFAB
:102950005342BB60764B9B6802335A4203F0030339
:1029600002F0030258BF5342FB6000237B635CE02C
:102970007B6B9B0048333B4453F8483CBB616C4B3A
:102980001A686B4B5B686B49120113441B01CA1830
:10299000BB69134405331B78002B40D1644B1A6884
:1029A0006549BB6951F8233013447B61604B5A6819
:1029B0006249BB6951F8233013443B617B69002BAA
:1029C0002FDB7B690F2B2CDC3B69002B29DB3B6960
:1029D0000F2B26DC57497B691A013B6913441B0105
:1029E0000B440C331B68002B1CD1012387F83B30B0
:1029F00050497B691A013B6913441B010B441B6856
:102A00003A6C9A420EDD4B497B691A013B691344CB
:102A10001B010B441B683B64BB697B6402E000BF85
:102A200000E000BF7B6B01337B637B6B032B9FDD7F
:102A300097F83B3083F00103DBB2002B70D000230A
:102A40003B636AE03B6B9B0048333B4453F8483C94
:102A5000FB62374B1A68364B5B68364912011344E8
:102A60001B01CA18FB6A134405331B78002B4ED197
:102A70002F4B1A683049FB6A51F823301344BB626C
:102A80002B4B5A682D49FB6A51F8233013447B6263
:102A9000BB6A002B3DDBBB6A0F2B3ADC7B6A002B49
:102AA00037DB7B6A0F2B34DC2249BB6A1A017B6A55
:102AB00013441B010B441B683B621E49BB6A1A018D
:102AC0007B6A13441B010B440C331B68FB613A6A9D
:102AD0003B6C9A4214DB3A6A3B6C9A4203D1FA6926
:102AE000FB6B9A420CDB3A6A3B6C9A4212D1FA6950
:102AF000FB6B9A420ED10E4B9B68FA6A9A4209D13F
:102B00003B6A3B64FB69FB63FB6A7B6402E000BFDA
:102B100000E000BF3B6B01333B633B6B032B91DD5C
:102B20007B6C18464C37BD465DF8047B704700BF90
:102B3000301400203004002058E2000868E2000849
:102B400080B584B000AF78601E4B9B68FB607A68EC
:102B5000FB68D31A04335A4203F0030302F0030262
:102B600058BF5342BB60BB68032B23D801A252F865
:102B700023F000BFB52B0008852B0008952B00081B
:102B8000A52B00081048FEF781FA00F0ADFCFEF717
:102B900073FA0FE00D48FEF779FA00F0C1FCFEF77A
:102BA0006BFA07E00A48FEF771FA00F079FCFEF7CD
:102BB00063FA00BF034A7B68936000BF1037BD46CD
:102BC00080BD00BF301400205CD2000870D2000825
:102BD00084D2000880B582B000AF324B1B68314A06
:102BE000526819463048FEF767FA2E4B1A682D4B8B
:102BF0009B682E4951F8233013447B60294B5A6857
:102C0000284B9B682A4951F8233013443B607B686A
:102C1000002B08DB7B680F2B05DC3B68002B02DBFD
:102C20003B680F2B04DD2348FEF730FA002335E024
:102C30003A6879682048FEF73FFA00F05DFD40F2FF
:102C4000B55000F0AFFC174A7B681360154A3B682B
:102C50005360144B1B690133124A1361114B1A68FC
:102C6000104B5B681549120113441B010B440433DC
:102C700001221A700B4B1A680A4B5B680F4811014E
:102C80001944090101440C31096801310B48120152
:102C900013441B0103440C33196001231846083701
:102CA000BD4680BD3014002098D2000858E20008CC
:102CB00068E20008B8D20008D4D20008300400202E
:102CC00080B400AF1C4B1B7B83F00103DBB2002BF5
:102CD0001ED0194B1A68194B1B689A4205D0164B27
:102CE0001A68174B1B689A420DD1134B5A68154B43
:102CF0001B689A4205D0104B5A68134B1B689A42C6
:102D000001D1012300E0002303F00103DBB20DE059
:102D1000094B1B68002B05D1074B5B68002B01D1C9
:102D2000012300E0002303F00103DBB21846BD4697
:102D30005DF8047B704700BF301400208814002029
:102D4000901400208C1400209414002080B588B0CA
:102D500000AF01F0D5F8854B9B7A002B41D0844B16
:102D60001968834B5A68824B9B68824809010A4460
:102D7000120102441344053301221A707C4B1A6875
:102D80007B4B9B687C4951F823301344FB61784BA3
:102D90005A68774B9B68794951F823301344BB61DB
:102DA000FB69002B1DDBFB690F2B1ADCBB69002BB9
:102DB00017DBBB690F2B14DC6D4B9B6802335A4247
:102DC00003F0030302F0030258BF53426948FA6953
:102DD0001101BA690A441201024413440533012265
:102DE0001A70624BDB7A002B48D0614B9B6803332F
:102DF0005A4203F0030302F0030258BF53427B61BF
:102E00005B4B1A685A4B5B685A49120113441B0109
:102E1000CA187B691344053301221A70544B1A688F
:102E200055497B6951F8233013443B61504B5A6834
:102E300052497B6951F823301344FB603B69002BF6
:102E40001CDB3B690F2B19DCFB68002B16DBFB68D6
:102E50000F2B13DC7B6902335A4203F0030302F0A9
:102E6000030258BF534243483A691101FA680A44C1
:102E7000120102441344053301221A703B4B1B7BA1
:102E8000002B48D03A4B9B6801335A4203F00303AE
:102E900002F0030258BF5342BB60354B1A68344BF3
:102EA0005B683449120113441B01CA18BB68134400
:102EB000053301221A702E4B1A682F49BB6851F84E
:102EC000233013447B602A4B5A682C49BB6851F865
:102ED000233013443B607B68002B1CDB7B680F2B8B
:102EE00019DC3B68002B16DB3B680F2B13DCBB683F
:102EF00002335A4203F0030302F0030258BF534265
:102F00001C487A6811013A680A44120102441344C9
:102F1000053301221A70154B9B7A002B07D1134BF6
:102F2000DB7A002B03D1114B1B7B002B19D00F4BED
:102F30009B7A002B01D0124900E012490B4BDB7A3F
:102F4000002B01D00E4A00E00E4A084B1B7B002BE1
:102F500001D00B4B00E00B4B0B48FEF7ADF8FEF732
:102F600082F800BF2037BD4680BD00BF441400205A
:102F7000301400203004002058E2000868E2000805
:102F8000E0D20008E4D20008E8D20008B0B586B06C
:102F900002AF5B48FEF77AF84FF440737B60002382
:102FA000FB6063E0FFF7D2FEFFF786FBFFF7AAFCAA
:102FB00038603868FFF7C4FDFFF70CFE034683F066
:102FC0000103DBB2002B2BD04E48FEF75FF8002345
:102FD000BB6020E0BA683B689A4219D04A4B1A6835
:102FE000494B5B684949120113441B01CA18BB686D
:102FF000134405331B7883F00103DBB2002B07D0A9
:10300000B868FFF79DFDFFF7E5FD0346002B06D1ED
:10301000BB680133BB60BB68032BDBDD00E000BF96
:10302000F9683B4B83FB01235A10CB17D21A134686
:103030009B001344CA1A002A12D1334B1C68324B2E
:103040005D68314B9B68184601F002FE0346009311
:103050002B462246F9682F48FEF72EF8FEF752F865
:10306000FB680133FB60642002F07CF8FFF728FE68
:10307000034683F00103DBB2002B03D0FA687B68C0
:103080009A428FDBFFF71CFE0346002B26D01E4B17
:103090001B7B83F00103DBB2002B11D01A4B012202
:1030A0001A731D48FDF7F2FFFDF798FF01F092FD3E
:1030B0004FF4FA6002F056F81848FDF7E7FF15E004
:1030C000114B01225A731648FDF7E0FFFDF786FF0A
:1030D00001F080FD134B01221A6007E07968124865
:1030E000FDF7EAFFFDF7A6FF01F093FD064B1B6914
:1030F00019460E48FDF7E0FF00BF1037BD46B0BDD2
:103100000CD3000834D30008301400203004002011
:103110006766666664D3000890D30008ACD30008E5
:10312000C8D3000898140020E8D3000814D400087D
:1031300080B588B002AF3E48FDF7A8FF3D4B1B7B32
:1031400083F00103DBB2002B06D03B48FDF79EFF66
:1031500001F030FDFFF71AFF364B1B7B002B11D01F
:10316000344B5B7B83F00103DBB2002B0AD0334886
:10317000FDF78CFF01F026FD4FF47A7001F0F2FFAD
:10318000FFF704FF2B4B5B7B002B4DD02C48FDF74A
:103190007DFFFEF7B3F84FF48073BB6000237B61C3
:1031A00000233B6119E00023FB6010E025493B69E7
:1031B0001A01FB6813441B010B4404331B78002BDA
:1031C00002D07B6901337B61FB680133FB60FB68E4
:1031D0000F2BEBDD3B6901333B613B690F2BE2DDDC
:1031E0007B6907EE903AF8EEE76ABB6807EE903A23
:1031F000B8EEE77AC6EE877A9FED137A67EE877AA4
:10320000C7ED017A7868FDF7A7F902460B46CDE9CC
:103210000023BA6879690D48FDF74EFF0C48FDF7A9
:1032200035FF0C4B01221A6000BF1837BD4680BD28
:1032300034D40008301400205CD4000880D4000886
:10324000A4D40008300400200000C842C8D40008FC
:10325000F8D400089814002080B400AF054B1B6818
:10326000002B14BF01230023DBB21846BD465DF8D6
:10327000047B70479814002080B485B000AF214BC8
:103280001B69002B02D1DFED207A34E01F4B1B6855
:1032900083EAE372A2EBE3721D4B1B68002BB8BFFD
:1032A0005B421344FB60194B1B6883EAE372A2EB99
:1032B000E372174B1B68002BB8BF5B421344BB6023
:1032C000FA68BB6813447B607B68002B02D1DFED9A
:1032D000117A10E07B6807EE903AF8EEE76A094B46
:1032E0001B6907EE903AB8EEE77AC6EE877A9FED53
:1032F000097A67EE877AB0EE670A1437BD465DF843
:10330000047B704730140020000000008814002067
:103310008C1400200000C84280B400AF034B1B682F
:103320001846BD465DF8047B704700BF300400209E
:1033300080B483B000AF194B1B685B6AFB80184BED
:103340001B685B6ABB80174B1B88FA88D31A9BB239
:103350007B80154B1B88BA88D31A9BB23B803B8875
:103360005B429BB23B80B7F90220104B1B681344B1
:103370000E4A1360B7F900200D4B1B6813440C4A2A
:103380001360084AFB881380074ABB88138000BF7C
:103390000C37BD465DF8047B704700BF100300206A
:1033A000A003002000000020020000202C1D0020AF
:1033B000301D002080B500AFFFF7BAFF014B1B683E
:1033C000184680BD2C1D002080B500AFFFF7B0FF70
:1033D000014B1B68184680BD301D002080B400AF33
:1033E0000B4B00221A600B4B00221A600A4B1B6821
:1033F0005B6A9AB2094B1A80094B1B685B6A9AB2E6
:10340000084B1A8000BFBD465DF8047B704700BFC3
:103410002C1D0020301D0020100300200000002083
:10342000A00300200200002080B500AF3C21154819
:1034300004F0AEFA3C21144804F0AAFA114B1B68C0
:103440004FF400425A62104B1B684FF400425A621C
:10345000012001F087FE0D4B4FF400421A800C4B07
:103460004FF400421A800B4B00221A600A4B0022D4
:103470001A600A4B00229A60084B0022DA6000BFF3
:1034800080BD00BFA003002010030020000000202A
:10349000020000202C1D0020301D00206814002098
:1034A00080B500AF40F2DC514FF42F7001F014FCF6
:1034B00000F056FA4FF496614FF402709FED080A3F
:1034C00000F02AFB074B9B6803335A4203F00303C7
:1034D00002F0030258BF5342024A936000BF80BD0E
:1034E0000000B4423014002080B500AF4FF4966164
:1034F0004FF402709FED080A00F00EFB074B9B682B
:1035000001335A4203F0030302F0030258BF53424F
:10351000024A936000BF80BD0000B4C23014002096
:1035200080B500AFFFF7E0FFFFF7DEFF00BF80BD13
:1035300080B400AF0A4B1B6800225A63084B1B681B
:1035400000229A63064B1B680022DA63044B1B6857
:1035500000221A6400BFBD465DF8047B704700BFBF
:103560005803002080B500AF0D4B1B684FF47A72F2
:103570005A630B4B1B684FF47A729A63084B1B68B3
:103580004FF47A72DA63064B1B684FF47A721A644E
:10359000C82001F0E7FDFFF7CBFF00BF80BD00BFF3
:1035A0005803002080B58AB000AF7860FFF716FF9F
:1035B000FFF700FF7862FFF707FF3862FEF7DAF8DF
:1035C00000F0BEF8FFF7F6FEF861FFF7FDFEB86108
:1035D000FA697B6AD31A7B61BA693B6AD31A3B6189
:1035E0007A693B691344DA0F13445B10FB60BA69D4
:1035F000F9690948FDF760FDFA687B689A4203DAC9
:10360000012001F0AFFDD9E700BFFFF7ABFF00BF1E
:103610002837BD4680BD00BF28D5000880B584B0DE
:1036200000AF0346FB710B46BB711346BB80FB79B1
:10363000002B15D1BB79002B08D0174B1B68BA881B
:103640005A63154B1B6800229A6320E0124B1B68DB
:10365000BA889A6300224021104802F0C1FC16E0AB
:10366000BB79FB73FB7B002B09D00B4B1B68BA8823
:103670001A64002201210A4802F0B2FC07E0064B5E
:103680001B6800221A64044B1B68BA88DA6300BF07
:103690001037BD4680BD00BF580300200000024027
:1036A0000004024080B485B000AF87ED030AC7ED87
:1036B000020A87ED011A97ED037AD7ED027AB4EE8C
:1036C000E77AF1EE10FA01D5BB680BE097ED037ACB
:1036D000D7ED017AB4EEE77AF1EE10FA01DD7B68FE
:1036E00000E0FB6807EE903AB0EE670A1437BD467B
:1036F0005DF8047B7047000080B500AF0B4B4FF0C6
:1037000000021A600A4B4FF000021A60094B4FF09A
:1037100000021A60084B4FF000021A6001F016FD1B
:103720000346064A136000BF80BD00BF381D00205D
:103730003C1D0020401D0020441D0020341D0020A1
:1037400080B588B000AF01F001FD38616C4B1B689B
:103750003A69D31A07EE903AB8EE677ADFED696AF4
:10376000C7EE267AC7ED077AD7ED077AF5EEC07A6D
:10377000F1EE10FA01D8644BFB61614A3B691360BA
:10378000FDF7CAFF87ED030A97ED037AD7ED077AB5
:1037900027EE277A5D4BD3ED007A77EE277A5B4BE5
:1037A000C3ED007A594BD3ED007AB1EE047AB1EE55
:1037B000477AF1EE046AB0EE661AF0EE470AB0EE10
:1037C000670AFFF76FFFF0EE407A504BC3ED007AC7
:1037D0004F4BD3ED007A97ED037A77EE676A97ED5A
:1037E000077AC6EE877AC7ED027A9FED4A7A4A4B8E
:1037F000D3ED007A27EE277ADFED467AF7EE006AFE
:1038000076EEE76AD7ED027A66EEA77A77EE277A48
:10381000414BC3ED007A414B93ED007AD7ED037A2B
:1038200027EE277A3E4BD3ED006A384BD3ED007A72
:1038300066EEA77A37EE277A3A4BD3ED006A364B1D
:10384000D3ED007A66EEA77A77EE277AC7ED017A94
:1038500040F23A233B603B6807EE903AB8EEE77AD5
:10386000D7ED017A77EE677AB0EE670A08F0A8FE26
:10387000F0EE407AFDEEE77A17EE903ABB613B68D6
:1038800007EE903AB8EEE77AD7ED017A77EE277A2D
:10389000B0EE670A08F094FEF0EE407AFDEEE77AAB
:1038A00017EE903A7B61BB69B3F5966F02DD4FF47A
:1038B0009663BB617B69B3F5966F02DD4FF4966347
:1038C0007B61BB69002B01DA0023BB617B69002BA4
:1038D00001DA00237B617B699BB21A46012100203B
:1038E000FFF79CFEBB699BB21A4601210120FFF73E
:1038F00095FE074AFB68136000BF2037BD4680BDB8
:10390000341D002000007A446F12833A3C1D0020D1
:10391000381D002007D06F3F401D0020040000200C
:10392000080000200C00002080B483B000AF87EDB9
:10393000010AD7ED017AF5EEC07AF1EE10FA02DB5A
:103940004FF07E5300E0054B07EE903AB0EE670A69
:103950000C37BD465DF8047B704700BF000080BF98
:1039600080B500AF094B4FF000021A60084B4FF0D2
:1039700000021A60074B4FF000021A6001F0E6FBEC
:103980000346054A136000BF80BD00BF481D0020EC
:103990004C1D0020501D0020341D002080B588B033
:1039A00000AF87ED030AC7ED020A786001F0CEFB95
:1039B000B8614E4B1B68BA69D31A07EE903AB8EE5D
:1039C000677ADFED4B6AC7EE267AC7ED077AD7ED47
:1039D000077AF5EEC07AF1EE10FA01D8454BFB619B
:1039E000424ABB6913607B68002B02D07B68FA698E
:1039F0001A6097ED037AD7ED027A77EE677AC7ED12
:103A0000057A97ED057AD7ED077A27EE277A3A4BB4
:103A1000D3ED007A77EE277A374BC3ED007A364B39
:103A2000D3ED007AB2EE047AF4EEC77AF1EE10FA32
:103A300002DD324A304B1A60F2EE047AB1EE677A58
:103A40002D4BD3ED007AB4EEE77AF1EE10FA06DDF5
:103A5000F2EE047AF1EE677A274BC3ED007A284B39
:103A6000D3ED007A97ED057A77EE676A97ED077ADE
:103A7000C6EE877AC7ED047A9FED227A224BD3ED0A
:103A8000007A27EE277ADFED1F7AF7EE006A76EEEE
:103A9000E76AD7ED047A66EEA77A77EE277A1A4BB3
:103AA000C3ED007A164A7B691360184B93ED007AD8
:103AB000D7ED057A27EE277A154BD3ED006A0E4B2A
:103AC000D3ED007A66EEA77A37EE277A114BD3ED65
:103AD000006A0D4BD3ED007A66EEA77A77EE277A6F
:103AE000B0EE670A2037BD4680BD00BF341D002000
:103AF00000007A446F12033B481D00200000204163
:103B00004C1D00206666663F501D0020040000200A
:103B1000080000200C00002080B52DED028B98B02D
:103B200000AF87ED030AB8607960BB683B2B01DC0E
:103B30003C23BB60BB68B3F5C87F02DD4FF4C8739C
:103B4000BB60FFF70DFF4FF00003FB65FB68FB63F5
:103B500001F0FCFAB8630023BB6501F0F7FA786561
:103B600001F0F4FA78637A6B7B6DD31A07EE903A22
:103B7000B8EE677ADFEDA76AC7EE267AC7ED147A4A
:103B8000D7ED147AF5EEC07AF1EE10FA01D8A24B17
:103B90003B657B6B7B65FDF7EDFDFDF7BDFD87EDBF
:103BA0000C0A97ED0C7AD7ED147A67EE277A97ED29
:103BB000177A77EE277AC7ED177A97ED0F7AD7ED58
:103BC000177A77EE677AC7ED0B7A944BD3ED007ACC
:103BD00037EEA77AD7ED0B7AF0EEE77A67EE277A21
:103BE000DFED8F0AB0EE670A08F080FCF0EE407A55
:103BF000B0EE670A08F05CFC87ED0A0A894BD3ED4A
:103C0000007AB0EE671ADFED860A97ED0A0AFFF731
:103C100049FDB0EE408A97ED0B0AFFF785FEF0EE06
:103C2000407A68EE277AC7ED137AD7ED137AB0EEB3
:103C3000E77A7D4BD3ED007AB4EEE77AF1EE10FA35
:103C400002D54FF00003FB644FF000033B6107F126
:103C500010031846D7ED0C0A97ED130AFFF79EFEE6
:103C600087ED090AD7ED137AF0EEE77AF5EEC07A20
:103C7000F1EE10FA06DD97ED137ADFED6C6AC7EE10
:103C8000267A01E0DFED667AC7ED087A97ED087ACB
:103C9000D7ED097A77EE277AC7ED077ABB6807EE8A
:103CA000903AB8EEE77AD7ED077AF0EEE77AF6EEDB
:103CB000006A67EEA67A77EE277AC7ED067ABB68C8
:103CC00007EE903AB8EEE77AD7ED077AF0EEE77AAA
:103CD000F6EE006A67EEA67A77EE277AC7ED057AE8
:103CE000D7ED077AF5EEC07AF1EE10FA06DB002385
:103CF00087F84B30012387F84A3005E0012387F825
:103D00004B30002387F84A30D7ED0B7AB0EEE77AD4
:103D1000474BD3ED007AB4EEE77AF1EE10FA22D8F1
:103D2000D7ED0C7AB0EEE77A424BD3ED007AB4EEE1
:103D3000E77AF1EE10FA16D8002201210020FFF7F1
:103D40006DFC002201210120FFF768FCBB6D002BF8
:103D500001D17B6BBB657A6BBB6DD21A364B1B688E
:103D60009A4240D34AE00023BB6597ED050A08F06C
:103D700027FCF0EE407AFDEEE77A17EE903A7B648E
:103D800097ED060A08F01CFCF0EE407AFDEEE77AAB
:103D900017EE903A3B647B6C002B01DA00237B64C6
:103DA0007B6CB3F57A7F02DD4FF47A737B643B6CF6
:103DB000002B01DA00233B643B6CB3F57A7F02DD14
:103DC0004FF47A733B647B6C9AB297F84B30194688
:103DD0000020FFF723FC3B6C9AB297F84A30194653
:103DE0000120FFF71BFC7A6BBB6BD31A7A689A42EF
:103DF00003D3022001F0B6F9B2E600BFFFF798FB4B
:103E00003C2001F0AFF900BF6037BD46BDEC028B2E
:103E100080BD00BF00007A446F12833A1400002076
:103E200000000000100000202400002097FFB03F99
:103E3000180000201C0000202000002080B500AFEA
:103E400000224FF400710B4802F0CAF800224FF430
:103E50000071094802F0C4F800224FF4807105484F
:103E600002F0BEF800224FF48071034802F0B8F867
:103E700000BF80BD000402400000024080B588B051
:103E800000AF786007F10C0300221A605A609A6054
:103E9000DA607B68FB6001233B6107237B6107F1EC
:103EA0000C031946154801F045FB0346002B01D0D1
:103EB00000231FE00520FEF7E5FA104801F0BAF9EB
:103EC0000A210E4801F09DFA0C4801F025FB0B4831
:103ED00001F064FA094801F0ADF90A21074801F040
:103EE00090FA064801F018FB0346FB83034801F0F3
:103EF00055FAFB8B18462037BD4680BD28020020AE
:103F0000F0B593B004AFFFF799FF0520FFF7B6FFB8
:103F100003467B820220FFF7B1FF03463B82042069
:103F2000FFF7ACFF0346FB810320FFF7A7FF034623
:103F3000BB8101224FF40071A04802F051F8012228
:103F40004FF480719E4802F04BF83220FEF79AFA47
:103F50000520FFF793FF03467B810220FFF78EFFCA
:103F600003463B81FFF76AFF01224FF4007194483A
:103F700002F036F801224FF48071904802F030F8D8
:103F80005020FEF77FFA0420FFF778FF0346FB80FE
:103F90000320FFF773FF0346BB80FFF74FFF7A89CB
:103FA0007B8A9A4204D97A897B8AD31A7B6301E09F
:103FB00000237B633A893B8A9A4204D93A893B8A37
:103FC000D31A3B6301E000233B63FA88FB899A42E2
:103FD00004D9FA88FB89D31AFB6201E00023FB6253
:103FE000BA88BB899A4204D9BA88BB89D31ABB6202
:103FF00001E00023BB62734B1B68042B02DD714B95
:1040000000221A607B6B4FF47A7202FB03F36E4A54
:10401000A2FB03239B097B633B6B4FF47A7202FB89
:1040200003F3694AA2FB03239B093B63FB6A4FF43A
:104030007A7202FB03F3644AA2FB03239B09FB622F
:10404000BB6A4FF47A7202FB03F35F4AA2FB0323BD
:104050009B09BB625B4B1B685C497A6B41F8232070
:10406000584B1B685A493A6B41F82320554B1B6843
:104070005849FA6A41F82320524B1B685649BA6ADC
:1040800041F823204F4B1B6801334E4A1360002335
:104090007B6200233B620023FB610023BB610023A2
:1040A0007B611EE0494A7B6952F823307A6A1344E7
:1040B0007B62474A7B6952F823303A6A13443B6279
:1040C000444A7B6952F82330FA691344FB61424A3F
:1040D0007B6952F82330BA691344BB617B690133B1
:1040E0007B617B69042BDDDD7B6A3C4AA2FB0323F9
:1040F0009B089AB23A4B1A813B6A384AA2FB0323C7
:104100009B089AB2364B5A80FB69344AA2FB0323C0
:104110009B089AB2324BDA80BB69304AA2FB032378
:104120009B089AB22E4B9A800020FFF7A7FE034609
:104130001A462B4B1A802B4B93F82230002B32D08F
:10414000274B1C89002000F08DF803469C4207D8BD
:10415000234B5C88012000F085F803469C4201D97E
:10416000012300E0002303F00103DAB21C4B9A7232
:104170001B4BDC88022000F075F803469C428CBF84
:1041800001230023DAB2164BDA72154B9C88032008
:1041900000F068F803469C428CBF01230023DAB28A
:1041A0000F4B1A7338E00E4B1B89322B03D80C4B84
:1041B0005B88322B18D9012317E000BF00040240AE
:1041C00000000240881D0020D34D62108C1D00208D
:1041D000A01D0020B41D0020C81D0020CDCCCCCCDB
:1041E00044140020541D0020002303F00103DAB220
:1041F0001A4B9A72194BDB88142B8CBF01230023B6
:10420000DAB2164BDA72154B9B88142B8CBF012344
:104210000023DAB2114B1A73104B1B891C460F4B4B
:104220005B881D460D4B9B7A1E460C4BDB881A465D
:104230000A4BDB7A1946094B9B881846074B1B7BB8
:10424000039302900191009233462A462146044886
:10425000FCF732FF00BF3C37BD46F0BD44140020E0
:1042600018D8000880B483B000AF78607B68002B5A
:104270000ADB7B68032B07DC0C4B93F8223083F0BE
:104280000103DBB2002B06D07B68012B01DC32235B
:1042900006E0142304E0054A7B68043332F8133047
:1042A00018460C37BD465DF8047B7047541D00204E
:1042B000B0B58EB000AF4B48FCF7E8FE4A4B5B6CE4
:1042C00003F48073002B03D04848FCF7DFFE02E0C4
:1042D0004748FCF7DBFE444B1B6B03F00103002B4C
:1042E00003D04448FCF7D2FE02E04348FCF7CEFE80
:1042F000424B1B6C012B03D14148FCF7C7FE05E084
:104300003E4B1B6C19463F48FCF7D6FE3E48FCF777
:10431000BDFE3E4B07F120041D460FCD0FC42B6898
:1043200023603B4B07F10C041D460FCD0FC42B68D7
:10433000236000237B634BE07B6B9B0038333B4463
:1043400053F8183C1846FFF799FD03461A467B6B55
:104350005B0038333B4423F8382C7B6B9B003833AD
:104360003B4453F82C1C7B6B9B0038333B4453F885
:10437000183C002B1FD07B6B9B0038333B4453F819
:10438000183C022B15D07B6B9B0038333B4453F811
:10439000183C032B0BD07B6B9B0038333B4453F80A
:1043A000183C042B01D1042206E0052204E003227C
:1043B00002E0022200E000227B6B5B0038333B44CA
:1043C00033F8383C1348FCF777FE7B6B01337B6393
:1043D0007B6B042BB0DD1048FCF758FE00BF38376C
:1043E000BD46B0BD90DF000800380240B4DF0008D1
:1043F000D0DF0008ECDF000808E0000828020020F9
:1044000024E000083CE0000854E0000884E00008D4
:10441000D0E0000874E000086CDF000880B483B0CE
:1044200000AF00237B60104B5B6C0F4A43F480436A
:1044300053640D4B5B6C03F480437B607B6800230B
:104440003B60094B1B6C084A43F080531364064BD6
:104450001B6C03F080533B603B6800BF0C37BD46CC
:104460005DF8047B704700BF0038024080B58AB019
:1044700000AF786007F1140300221A605A609A6056
:10448000DA601A617B681B68174A934227D10023C0
:104490003B61164B5B6C154A43F480735364134BBA
:1044A0005B6C03F480733B613B690023FB600F4B43
:1044B0001B6B0E4A43F0010313630C4B1B6B03F0A1
:1044C0000103FB60FB683D237B610323BB61002389
:1044D000FB6107F114031946054801F0FDFB00BF1D
:1044E0002837BD4680BD00BF002001400038024093
:1044F0000000024080B58AB000AF786007F1140375
:1045000000221A605A609A60DA601A617B681B6840
:10451000194A93422CD100233B61184B1B6C174A5C
:1045200043F480431364154B1B6C03F480433B61DD
:104530003B690023FB60114B1B6B104A43F00203E5
:1045400013630E4B1B6B03F00203FB60FB684FF41D
:1045500060437B610223BB610023FB6103233B6259
:1045600005237B6207F114031946054801F0B4FBEB
:1045700000BF2837BD4680BD0038004000380240EB
:104580000004024080B584B000AF78607B681B688F
:10459000184A934216D10023FB60174B5B6C164AF6
:1045A00043F001035364144B5B6C03F00103FB60A5
:1045B000FB6800220721192001F0C5FA192001F03B
:1045C000DEFA12E07B681B680C4A93420DD100238F
:1045D000BB60094B1B6C084A43F002031364064B93
:1045E0001B6C03F00203BB60BB6800BF1037BD4605
:1045F00080BD00BF000001400038024000040040C0
:1046000080B58CB000AF786007F11C0300221A60FF
:104610005A609A60DA601A617B681B68B3F1804F58
:104620004BD10023BB613F4B1B6C3E4A43F001035F
:1046300013643C4B1B6C03F00103BB61BB6900239B
:104640007B61384B1B6B374A43F001031363354BD7
:104650001B6B03F001037B617B6900233B61314BE2
:104660001B6B304A43F0020313632E4B1B6B03F0AA
:1046700002033B613B694FF40043FB6102233B6251
:1046800000237B620023BB620123FB6207F11C0352
:104690001946254801F020FB0823FB6102233B62F9
:1046A00000237B620023BB620123FB6207F11C0332
:1046B00019461E4801F010FB30E07B681B681C4A5D
:1046C00093422BD10023FB60164B1B6C154A43F021
:1046D00004031364134B1B6C03F00403FB60FB68BF
:1046E0000023BB600F4B1B6B0E4A43F002031363A6
:1046F0000C4B1B6B03F00203BB60BB68C023FB6168
:1047000002233B6200237B620023BB620223FB6225
:1047100007F11C031946054801F0DEFA00BF3037E7
:10472000BD4680BD00380240000002400004024047
:104730000008004080B58AB000AF786007F114032C
:1047400000221A605A609A60DA601A617B681B68FE
:10475000334A93421FD100233B61324B1B6B314ADA
:1047600043F0010313632F4B1B6B03F001033B6109
:104770003B694FF480637B610223BB610023FB61D3
:1047800000233B6201237B6207F11403194626488C
:1047900001F0A2FA40E07B681B68244A93423BD1B7
:1047A0000023FB601F4B1B6B1E4A43F00103136386
:1047B0001C4B1B6B03F00103FB60FB680023BB6019
:1047C000184B1B6B174A43F002031363154B1B6B0B
:1047D00003F00203BB60BB68C0237B610223BB61A3
:1047E0000023FB6100233B6202237B6207F1140379
:1047F00019460D4801F070FA03237B610223BB6167
:104800000023FB6100233B6202237B6207F1140358
:104810001946074801F060FA00BF2837BD4680BD41
:104820000000014000380240000002400004004047
:104830000004024080B58AB000AF786007F114032D
:1048400000221A605A609A60DA601A617B681B68FD
:104850001D4A934234D100233B611C4B5B6C1B4AC5
:1048600043F020035364194B5B6C03F020033B615E
:104870003B690023FB60154B1B6B144A43F001039B
:104880001363124B1B6B03F00103FB60FB684FF4D7
:10489000C0537B610223BB610023FB6103233B62A6
:1048A00008237B6207F114031946094801F014FA42
:1048B00000220621472001F046F9472001F05FF968
:1048C00000BF2837BD4680BD0014014000380240BB
:1048D0000000024080B400AF00BFFDE780B400AF2D
:1048E00000BFFDE780B400AF00BFFDE780B400AFBC
:1048F00000BFFDE780B400AF00BFFDE780B400AFAC
:1049000000BFBD465DF8047B704780B400AF00BFB8
:10491000BD465DF8047B704780B400AF00BFBD4664
:104920005DF8047B704780B500AF00F0FBFB00BF73
:1049300080BD80B500AF022001F086FB00BF80BDC6
:1049400080B500AF024803F0B1F800BF80BD00BFE2
:10495000C802002080B500AF4FF4806001F074FB06
:1049600000BF80BD80B500AF024803F0CDFF00BF9F
:1049700080BD00BFE803002080B400AF01231846CB
:10498000BD465DF8047B704780B582B000AF7860AB
:10499000396005F011FD034616221A604FF0FF330F
:1049A00018460837BD4680BD80B582B000AF78603C
:1049B0004FF0FF317868FFF7E7FF00BFFDE780B5F4
:1049C00086B000AFF860B9607A6000237B610AE0CE
:1049D000AFF300800146BB685A1CBA60CAB21A70B5
:1049E0007B6901337B617A697B689A42F0DB7B6883
:1049F00018461837BD4680BD80B586B000AFF86058
:104A0000B9607A6000237B6109E0BB685A1CBA6018
:104A10001B781846AFF300807B6901337B617A69AC
:104A20007B689A42F1DB7B6818461837BD4680BD2B
:104A300080B483B000AF78604FF0FF3318460C3776
:104A4000BD465DF8047B704780B483B000AF7860EA
:104A500039603B684FF400525A60002318460C3707
:104A6000BD465DF8047B704780B483B000AF7860CA
:104A7000012318460C37BD465DF8047B704780B4AF
:104A800085B000AFF860B9607A600023184614372B
:104A9000BD465DF8047B704780B586B000AF786096
:104AA000144A154BD31A7B617B693B61134B1B681E
:104AB000002B02D1114B124A1A60104B1A687B6806
:104AC00013443A699A4207D205F076FC03460C2259
:104AD0001A604FF0FF3309E0084B1B68FB60074B7F
:104AE0001A687B681344054A1360FB681846183738
:104AF000BD4680BD0000022000040000DC1D002037
:104B0000301F002080B400AF064BD3F88830054A30
:104B100043F47003C2F8883000BFBD465DF8047BE3
:104B2000704700BF00ED00E080B582B000AF0346E3
:104B30000A46FB711346BB71FB79002B14BF01239E
:104B40000023DBB21A461021084801F049FABB796C
:104B5000002B14BF01230023DBB21A462021034897
:104B600001F03EFA00BF0837BD4680BD0004024098
:104B700080B582B000AF00237B6010E000210120EF
:104B8000FFF7D2FF962000F0EDFA01210020FFF799
:104B9000CBFF962000F0E6FA7B6801337B607B68F0
:104BA000022BEBDD00210020FFF7BEFF00BF08371E
:104BB000BD4680BD80B500AF00210120FFF7B4FFE6
:104BC00000BF80BD80B500AF01210020FFF7ACFF22
:104BD00000BF80BD80B582B000AF00237B6010E0D5
:104BE00001210120FFF7A0FFC82000F0BBFA00213F
:104BF0000020FFF799FFC82000F0B4FA7B6801336A
:104C00007B607B68042BEBDD00BF00BF0837BD462F
:104C100080BD80B582B000AF00237B6010E0012131
:104C20000120FFF781FF322000F09CFA00210020D4
:104C3000FFF77AFF322000F095FA7B6801337B6042
:104C40007B68092BEBDD00BF00BF0837BD4680BD88
:104C500080B483B000AF78607B68032B12D801A2C8
:104C600052F823F0754C0008794C00087D4C000880
:104C7000814C0008074B06E0074B04E0074B02E0BD
:104C8000074B00E0074B18460C37BD465DF8047B28
:104C9000704700BFA0E10008A8E10008B0E10008EB
:104CA000B8E10008C0E1000880B485B000AFF8604A
:104CB000B9607A60FA68BB689A4205DBFA687B687B
:104CC0009342A8BF134600E0BB6818461437BD46A0
:104CD0005DF8047B7047000080B59EB000AF78603F
:104CE00039604FF07C53BB65B14B7B65B14B3B6585
:104CF000B14BFB640A23BB640C237B6496233B64A7
:104D00007B68FB634FF4FA73BB634FF000037B6770
:104D10004FF000033B6700F019FA78630023FB664D
:104D200000F014FAB866002201210020FEF776FC9C
:104D3000002201210120FEF771FC00F007FA386320
:104D40003A6BBB6ED31A07EE903AB8EE677ADFED96
:104D50009B6AC7EE267AC7ED197AD7ED197AF5EE78
:104D6000C07AF1EE10FA01D8954B7B663B6BBB66BF
:104D7000FFF7C6F8934B1B89FB62924B5B88BB62C3
:104D8000FB6A483B7B62BB6A483B3B627A6A3B6A90
:104D9000134407EE903AF8EEE77AB6EE007A67EE43
:104DA000877AC7ED077A7A6A3B6AD31A07EE903A98
:104DB000F8EEE77AC7ED067A97ED077AD7ED197A1C
:104DC00067EE277A97ED1D7A77EE277AC7ED1D7A81
:104DD00097ED067AD7ED197A67EE277A97ED1C7A68
:104DE00077EE277AC7ED1C7AD7ED1D7A9FED767A9C
:104DF000F4EEC77AF1EE10FA01DD744B7B67D7ED64
:104E00001D7A9FED737AF4EEC77AF1EE10FA01D5B0
:104E1000704B7B67D7ED1C7A9FED6B7AF4EEC77A07
:104E2000F1EE10FA01DD694B3B67D7ED1C7A9FED7F
:104E3000687AF4EEC77AF1EE10FA01D5654B3B675C
:104E400097ED167AD7ED077A27EE277AD7ED156A10
:104E5000D7ED1D7A66EEA77A77EE277AC7ED057A49
:104E600097ED147AD7ED067A27EE277AD7ED136AF5
:104E7000D7ED1C7A66EEA77A77EE277AC7ED047A2B
:104E8000D7ED057AB1EE677AD7ED047A77EE677AD7
:104E9000B0EE670A07F064FB386697ED047AD7ED49
:104EA000057A77EE677AB0EE670A07F059FBF86586
:104EB000FB6B5B42FA6B1946386EFFF7F5FE3866FE
:104EC000FB6B5B42FA6B1946F86DFFF7EDFEF86578
:104ED0003B6E002B05DD3A6EBB6B9A4201DABB6B71
:104EE0003B663B6E002B07DA3B6E5B42BA6B9A4225
:104EF00002DDBB6B5B423B66FB6D002B05DDFA6D93
:104F0000BB6B9A4201DABB6BFB65FB6D002B07DACA
:104F1000FB6D5B42BA6B9A4202DDBB6B5B42FB6589
:104F20003B6EDB43DB0FFB73FB6DDB43DB0FBB73C4
:104F30003B6E002BB8BF5B42BB81FB6D002BB8BF43
:104F40005B427B81BA89FB7B19460020FEF766FB3A
:104F50007A89BB7B19460120FEF760FBD7ED077A03
:104F6000FDEEE77A17EE903A002BB8BF5B42BA6CC1
:104F70009A42ACBF012300237B72D7ED067AFDEE87
:104F8000E77A17EE903A002BB8BF5B427A6C9A42F0
:104F9000ACBF012300233B727B7A002B2ED03B7ADF
:104FA000002B2BD0FB6E002B16D13B6BFB6613E066
:104FB0000AD7A33CCDCC8C3F8FC2F53C00007A448D
:104FC0006F12833A441400200080BB440080BB442D
:104FD0000080BBC40080BBC43A6BFB6ED31A3A6C32
:104FE0009A420DD8002201210020FEF717FB002273
:104FF00001210120FEF712FB012313E00023FB66D1
:105000003A6B7B6BD31A3A689A42BFF496AE002291
:1050100001210020FEF702FB002201210120FEF702
:10502000FDFA002318467837BD4680BDDFF834D03E
:10503000FFF768FD0C480D490D4A002302E0D458E3
:10504000C4500433C4188C42F9D30A4A0A4C0023D2
:1050500001E013600432A242FBD305F0B3F9FCF780
:10506000B5FC70470000022000000020FC01002079
:1050700014E60008FC010020301F0020FEE70000BD
:1050800080B500AF0E4B1B680D4A43F400731360EC
:105090000B4B1B680A4A43F480631360084B1B6880
:1050A000074A43F480731360032000F041FD0F2092
:1050B00000F008F8FFF7B2F90023184680BD00BFE2
:1050C000003C024080B582B000AF7860124B1A6895
:1050D000124B1B7819464FF47A73B3FBF1F3B2FB12
:1050E000F3F3184600F059FD0346002B01D00123CD
:1050F0000EE07B680F2B0AD8002279684FF0FF3052
:1051000000F021FD064A7B681360002300E00123C4
:1051100018460837BD4680BD28000020300000201A
:105120002C00002080B400AF064B1B781A46064BBB
:105130001B681344044A136000BFBD465DF8047B3E
:10514000704700BF30000020E01D002080B400AF99
:10515000034B1B681846BD465DF8047B704700BFD3
:10516000E01D002080B584B000AF7860FFF7EEFF4F
:10517000B8607B68FB60FB68B3F1FF3F05D00A4B6A
:105180001B781A46FB681344FB6000BFFFF7DEFF85
:105190000246BB68D31AFA689A42F7D800BF00BF2C
:1051A0001037BD4680BD00BF3000002080B584B000
:1051B00000AF78600023FB737B68002B01D10123D3
:1051C00033E07B681B6C002B09D17868FFF74EF940
:1051D0007B6800225A647B68002283F83C207B684D
:1051E0001B6C03F01003002B18D17B681B6C23F49D
:1051F000885323F0020343F002027B681A64786844
:1052000000F0CAFA7B6800225A647B681B6C23F0AA
:10521000030343F001027B681A6401E00123FB737E
:105220007B68002283F83C20FB7B18461037BD4684
:1052300080BD000080B485B000AF78600023BB6003
:105240007B6893F83C30012B01D1022397E07B6807
:10525000012283F83C207B681B689B6803F00103F4
:10526000012B18D07B681B689A687B681B6842F02A
:1052700001029A60454B1B68454AA2FB03239A0C26
:1052800013465B001344BB6002E0BB68013BBB609C
:10529000BB68002BF9D17B681B689B6803F0010396
:1052A000012B5FD17B681B6C23F4E06323F00103C7
:1052B00043F480727B681A647B681B685B6803F444
:1052C0008063002B07D07B681B6C23F4405343F4AE
:1052D00080527B681A647B681B6C03F48053B3F5BF
:1052E000805F06D17B685B6C23F006027B685A64A2
:1052F00002E07B6800225A647B68002283F83C202D
:10530000244BFB607B681B686FF022021A60FB680D
:105310005B6803F01F03002B0FD17B681B689B6841
:1053200003F04053002B29D17B681B689A687B6887
:105330001B6842F080429A6020E07B681B68164A36
:1053400093421BD17B681B689B6803F04053002B82
:1053500014D17B681B689A687B681B6842F08042A6
:105360009A600BE07B681B6C43F010027B681A6448
:105370007B685B6C43F001027B685A64002318462B
:105380001437BD465DF8047B704700BF280000203D
:1053900083DE1B43002301400020014080B483B022
:1053A00000AF78607B6893F83C30012B01D1022379
:1053B00021E07B68012283F83C207B681B689A68A7
:1053C0007B681B6822F001029A607B681B689B68FF
:1053D00003F00103002B09D17B681B6C23F4885375
:1053E00023F0010343F001027B681A647B6800220A
:1053F00083F83C20002318460C37BD465DF8047B3B
:10540000704780B584B000AF786039600023FB60DE
:105410007B681B689B6803F48063B3F5806F13D1CE
:105420007B681B689B6803F48073B3F5807F0BD1A6
:105430007B681B6C43F020027B681A647B68002247
:1054400083F83C20012363E0FFF780FEF86021E051
:105450003B68B3F1FF3F1DD03B68002B07D0FFF73F
:1054600075FE0246FB68D31A3A689A4212D27B68EC
:105470001B681B6803F00203022B0BD07B681B6CBC
:1054800043F004027B681A647B68002283F83C20A6
:1054900003233DE07B681B681B6803F00203022BBB
:1054A000D6D17B681B686FF012021A607B681B6C98
:1054B00043F400727B681A647B681B689B6803F086
:1054C0004053002B23D17B681B7E002B1FD17B68B0
:1054D0001B68DB6A03F47003002B06D07B681B6833
:1054E0009B6803F48063002B11D17B681B6C23F451
:1054F00080727B681A647B681B6C03F48053002BFA
:1055000005D17B681B6C43F001027B681A640023A1
:1055100018461037BD4680BD80B483B000AF7860B8
:105520007B681B68DB6C18460C37BD465DF8047B56
:105530007047000080B485B000AF78603960002308
:10554000BB607B6893F83C30012B01D1022313E14F
:105550007B68012283F83C203B681B68092B25D916
:105560007B681B68D9683B681B689BB21A46134668
:105570005B0013441E3B072202FA03F3DA437B6805
:105580001B680A40DA607B681B68D9683B689A68C8
:105590003B681B689BB2184603465B0003441E3BF6
:1055A0009A407B681B680A43DA6022E07B681B68CC
:1055B00019693B681B689BB21A4613465B0013448B
:1055C000072202FA03F3DA437B681B680A401A6178
:1055D0007B681B6819693B689A683B681B689BB2CB
:1055E000184603465B0003449A407B681B680A43E5
:1055F0001A613B685B68062B24D87B681B68596B73
:105600003B685A6813469B001344053B1F2202FA6D
:1056100003F3DA437B681B680A405A637B681B68A4
:10562000596B3B681B689BB218463B685A68134627
:105630009B001344053B00FA03F27B681B680A4396
:105640005A634CE03B685B680C2B24D87B681B6872
:10565000196B3B685A6813469B001344233B1F2277
:1056600002FA03F3DA437B681B680A401A637B681B
:105670001B68196B3B681B689BB218463B685A68ED
:1056800013469B001344233B00FA03F27B681B681C
:105690000A431A6323E07B681B68D96A3B685A682F
:1056A00013469B001344413B1F2202FA03F3DA43E3
:1056B0007B681B680A40DA627B681B68D96A3B68B2
:1056C0001B689BB218463B685A6813469B001344FC
:1056D000413B00FA03F27B681B680A43DA62294BFC
:1056E000FB607B681B68284A93420FD13B681B68AC
:1056F000122B0BD1FB685B6823F40002FB685A6035
:10570000FB685B6843F48002FB685A607B681B6837
:105710001D4A93422BD13B681B681C4A934203D01D
:105720003B681B68112B22D1FB685B6823F4800265
:10573000FB685A60FB685B6843F40002FB685A60D0
:105740003B681B68114A934211D1114B1B68114AE7
:10575000A2FB03239A0C13469B0013445B00BB601F
:1057600002E0BB68013BBB60BB68002BF9D17B68E2
:10577000002283F83C20002318461437BD465DF80C
:10578000047B7047002301400020014012000010FC
:105790002800002083DE1B4380B485B000AF786012
:1057A000794BFB60FB685B6823F44032FB685A600E
:1057B000FB685A687B685B681A43FB685A607B68C1
:1057C0001B685A687B681B6822F480725A607B6889
:1057D0001B6859687B681B691A027B681B680A434F
:1057E0005A607B681B685A687B681B6822F04072AD
:1057F0005A607B681B6859687B689A687B681B687D
:105800000A435A607B681B689A687B681B6822F4AD
:1058100000629A607B681B6899687B68DA687B68BD
:105820001B680A439A607B689B6A584A934222D05D
:105830007B681B689A687B681B6822F070629A60BC
:105840007B681B6899687B689A6A7B681B680A4357
:105850009A607B681B689A687B681B6822F04052DC
:105860009A607B681B6899687B68DA6A7B681B684A
:105870000A439A600FE07B681B689A687B681B6824
:1058800022F070629A607B681B689A687B681B686C
:1058900022F040529A607B681B689A687B681B689C
:1058A00022F002029A607B681B6899687B681B7E05
:1058B0005A007B681B680A439A607B6893F8203023
:1058C000002B1BD07B681B685A687B681B6842F4FE
:1058D00000625A607B681B685A687B681B6822F408
:1058E00060425A607B681B6859687B685B6A013B51
:1058F0005A037B681B680A435A6007E07B681B6891
:105900005A687B681B6822F400625A607B681B68D7
:10591000DA6A7B681B6822F47002DA627B681B68B3
:10592000D96A7B68DB69013B1A057B681B680A43FF
:10593000DA627B681B689A687B681B6822F40072D5
:105940009A607B681B6899687B6893F830305A02CC
:105950007B681B680A439A607B681B689A687B684F
:105960001B6822F480629A607B681B6899687B6878
:105970005B699A027B681B680A439A6000BF143710
:10598000BD465DF8047B7047002301400100000F15
:1059900080B485B000AF78607B6803F00703FB60DC
:1059A0000C4BDB68BB60BA684FF6FF031340BB606B
:1059B000FB681A02BB68134343F0BF6343F4003330
:1059C000BB60044ABB68D36000BF1437BD465DF8B6
:1059D000047B704700ED00E080B400AF044BDB684F
:1059E0001B0A03F007031846BD465DF8047B7047A9
:1059F00000ED00E080B483B000AF0346FB7197F97F
:105A00000730002B0BDBFB7903F01F02074997F9E6
:105A100007305B09012000FA02F241F8232000BFA1
:105A20000C37BD465DF8047B704700BF00E100E025
:105A300080B483B000AF03463960FB7197F907303B
:105A4000002B0ADB3B68DAB20C4997F907301201E8
:105A5000D2B20B4483F800230AE03B68DAB208496B
:105A6000FB7903F00F03043B1201D2B20B441A7608
:105A700000BF0C37BD465DF8047B704700E100E0D5
:105A800000ED00E080B489B000AFF860B9607A60E2
:105A9000FB6803F00703FB61FB69C3F10703042BF9
:105AA00028BF0423BB61FB690433062B02D9FB69C1
:105AB000033B00E000237B614FF0FF32BB6902FA39
:105AC00003F3DA43BB681A407B699A404FF0FF3119
:105AD0007B6901FA03F3D9437B680B4013431846F3
