:020000040800F2
:1000000000000220295A0008294D0008314D00083F
:10001000394D0008414D0008494D0008000000001E
:10002000000000000000000000000000514D00082A
:100030005F4D0008000000006D4D00087B4D00087A
:10004000795A0008795A0008795A0008795A000844
:10005000795A0008795A0008795A0008874D000833
:10006000795A0008795A0008795A0008795A000824
:10007000795A0008795A0008795A0008795A000814
:10008000795A0008795A0008795A000800000000DF
:10009000000000000000000000000000795A000885
:1000A000795A0008954D0008795A0008795A0008D5
:1000B000795A0008795A0008795A0008795A0008D4
:1000C000795A0008795A0008795A0008795A0008C4
:1000D000795A0008795A0008795A0008000000008F
:1000E000A94D0008795A0008795A0008000000005C
:1000F000000000000000000000000000795A000825
:1001000000000000795A0008795A0008795A00085E
:1001100000000000000000000000000000000000DF
:10012000795A0008795A0008795A0008795A000863
:10013000795A0008000000000000000000000000E4
:10014000000000000000000000000000795A0008D4
:10015000795A0008795A0008795A0008B94D000800
:10016000795A0008795A00080000000000000000D9
:10017000000000000000000000000000000000007F
:1001800000000000795A0008000000000000000094
:08019000795A0008795A0008B1
:1001A00010B5054C237833B9044B13B10448AFF3B1
:1001B00000800123237010BD2802002000000000F1
:1001C00000D0000808B5034B1BB103490348AFF347
:1001D000008008BD000000002C02002000D00008B4
:1001E00001F0FF01102A2BDB10F0070F08D010F8E8
:1001F000013B013A8B422DD010F0070F42B3F6D1EC
:10020000F0B441EA012141EA014122F007047FF004
:1002100000070023F0E80256083C85EA010586EA5B
:10022000010685FA47F5A3FA87F586FA47F6A5FA97
:1002300087F68EB9EED1F0BC01F0FF0102F00702A3
:1002400032B110F8013B013A83EA010313B1F8D14E
:100250000020704701387047002D06BF354603382F
:10026000073815F0010F07D1013015F4807F02BF68
:10027000013015F4C03F0130F0BC0138704700BFB9
:10028000034613F8012B002AFBD1181A01387047D6
:1002900081F0004102E000BF83F0004330B54FEA37
:1002A00041044FEA430594EA050F08BF90EA020FA4
:1002B0001FBF54EA000C55EA020C7FEA645C7FEA37
:1002C000655C00F0E2804FEA5454D4EB5555B8BF5A
:1002D0006D420CDD2C4480EA020281EA030382EACB
:1002E000000083EA010180EA020281EA0303362D5D
:1002F00088BF30BD11F0004F4FEA01314FF4801C30
:100300004CEA113102D0404261EB410113F0004F41
:100310004FEA03334CEA133302D0524263EB4303F8
:1003200094EA050F00F0A780A4F10104D5F1200E96
:100330000DDB02FA0EFC22FA05F2801841F10001F1
:1003400003FA0EF2801843FA05F359410EE0A5F1C5
:1003500020050EF1200E012A03FA0EFC28BF4CF0F6
:10036000020C43FA05F3C01851EBE37101F00045AC
:1003700007D54FF0000EDCF1000C7EEB00006EEBB9
:100380000101B1F5801F1BD3B1F5001F0CD3490843
:100390005FEA30004FEA3C0C04F101044FEA44529A
:1003A00012F5800F80F09A80BCF1004F08BF5FEA21
:1003B000500C50F1000041EB045141EA050130BD01
:1003C0005FEA4C0C404141EB0101013C28BFB1F513
:1003D000801FE9D291F0000F04BF01460020B1FA5E
:1003E00081F308BF2033A3F10B03B3F120020CDA31
:1003F0000C3208DD02F1140CC2F10C0201FA0CF00F
:1004000021FA02F10CE002F11402D8BFC2F1200C73
:1004100001FA02F120FA0CFCDCBF41EA0C01904029
:10042000E41AA2BF01EB0451294330BD6FEA040472
:100430001F3C1CDA0C340EDC04F11404C4F120025D
:1004400020FA04F001FA02F340EA030021FA04F36F
:1004500045EA030130BDC4F10C04C4F1200220FAC6
:1004600002F001FA04F340EA0300294630BD21FA04
:1004700004F0294630BD94F0000F83F4801306BFCA
:1004800081F480110134013D4EE77FEA645C18BFBE
:100490007FEA655C29D094EA050F08BF90EA020F55
:1004A00005D054EA000C04BF1946104630BD91EA4D
:1004B000030F1EBF0021002030BD5FEA545C05D150
:1004C0004000494128BF41F0004130BD14F580048F
:1004D0003CBF01F5801130BD01F0004545F0FE4103
:1004E00041F470014FF0000030BD7FEA645C1ABF38
:1004F000194610467FEA655C1CBF0B46024650EA6F
:10050000013406BF52EA033591EA030F41F400219A
:1005100030BD00BF90F0000F04BF0021704730B520
:100520004FF4806404F132044FF000054FF00001F5
:1005300050E700BF90F0000F04BF0021704730B5B6
:100540004FF4806404F1320410F0004548BF40428B
:100550004FF000013EE700BF42004FEAE2014FEAE0
:1005600031014FEA02701FBF12F07F4393F07F4FBB
:1005700081F06051704732F07F4208BF704793F0BE
:100580007F4F04BF41F40021704730B54FF46074D1
:1005900001F0004521F000411CE700BF50EA0102D4
:1005A00008BF704730B54FF000050AE050EA01027D
:1005B00008BF704730B511F0004502D5404261EBED
:1005C00041014FF4806404F132045FEA915C3FF42E
:1005D000D8AE4FF003025FEADC0C18BF03325FEACB
:1005E000DC0C18BF033202EBDC02C2F1200300FA7C
:1005F00003FC20FA02F001FA03FE40EA0E0021FAA1
:1006000002F11444BDE600BF70B54FF0FF0C4CF48E
:10061000E06C1CEA11541DBF1CEA135594EA0C0F40
:1006200095EA0C0F00F0DEF82C4481EA030621EA7B
:100630004C5123EA4C5350EA013518BF52EA0335B6
:1006400041F4801143F4801338D0A0FB02CE4FF068
:100650000005E1FB02E506F00042E0FB03E54FF098
:100660000006E1FB03569CF0000F18BF4EF0010E90
:10067000A4F1FF04B6F5007F64F5407404D25FEA8C
:100680004E0E6D4146EB060642EAC62141EA55513F
:100690004FEAC52040EA5E504FEACE2EB4F1FD0C81
:1006A00088BFBCF5E06F1ED8BEF1004F08BF5FEAFF
:1006B000500E50F1000041EB045170BD06F00046B1
:1006C00046EA010140EA020081EA0301B4EB5C045E
:1006D000C2BFD4EB0C0541EA045170BD41F4801156
:1006E0004FF0000E013C00F3AB8014F1360FDEBF7B
:1006F000002001F0004170BDC4F10004203C35DA57
:100700000C341BDC04F11404C4F1200500FA05F3D9
:1007100020FA04F001FA05F240EA020001F000427A
:1007200021F0004110EBD37021FA04F642EB0601F0
:100730005EEA430E08BF20EAD37070BDC4F10C041A
:10074000C4F1200500FA04F320FA05F001FA04F2DE
:1007500040EA020001F0004110EBD37041F10001CA
:100760005EEA430E08BF20EAD37070BDC4F12005D5
:1007700000FA05F24EEA020E20FA04F301FA05F23D
:1007800043EA020321FA04F001F0004121FA04F2E5
:1007900020EA020000EBD3705EEA430E08BF20EAB5
:1007A000D37070BD94F0000F0FD101F000464000EF
:1007B00041EB010111F4801F08BF013CF7D041EA71
:1007C000060195F0000F18BF704703F00046520075
:1007D00043EB030313F4801F08BF013DF7D043EA46
:1007E0000603704794EA0C0F0CEA135518BF95EAFC
:1007F0000C0F0CD050EA410618BF52EA4306D1D183
:1008000081EA030101F000414FF0000070BD50EAA1
:10081000410606BF1046194652EA430619D094EA2B
:100820000C0F02D150EA013613D195EA0C0F05D115
:1008300052EA03361CBF104619460AD181EA030169
:1008400001F0004141F0FE4141F470014FF0000021
:1008500070BD41F0FE4141F4780170BD70B54FF0BC
:10086000FF0C4CF4E06C1CEA11541DBF1CEA13553C
:1008700094EA0C0F95EA0C0F00F0A7F8A4EB05041E
:1008800081EA030E52EA03354FEA013100F0888015
:100890004FEA03334FF0805545EA131343EA1263DE
:1008A0004FEA022245EA111545EA10654FEA002693
:1008B0000EF000419D4208BF964244F1FD0404F54C
:1008C000407402D25B084FEA3202B61A65EB0305A8
:1008D0005B084FEA32024FF480104FF4002CB6EB65
:1008E000020E75EB030E22BFB61A754640EA0C00E5
:1008F0005B084FEA3202B6EB020E75EB030E22BF25
:10090000B61A754640EA5C005B084FEA3202B6EB65
:10091000020E75EB030E22BFB61A754640EA9C0024
:100920005B084FEA3202B6EB020E75EB030E22BFF4
:10093000B61A754640EADC0055EA060E18D04FEAB2
:10094000051545EA16754FEA06164FEAC30343EA52
:1009500052734FEAC2025FEA1C1CC0D111F4801F1F
:100960000BD141EA00014FF000004FF0004CB6E718
:1009700011F4801F04BF01430020B4F1FD0C88BFB7
:10098000BCF5E06F3FF6AFAEB5EB030C04BFB6EBC2
:10099000020C5FEA500C50F1000041EB045170BDB5
:1009A0000EF0004E4EEA113114EB5C04C2BFD4EBE2
:1009B0000C0541EA045170BD41F480114FF0000E66
:1009C000013C90E645EA060E8DE60CEA135594EAE2
:1009D0000C0F08BF95EA0C0F3FF43BAF94EA0C0FE5
:1009E0000AD150EA01347FF434AF95EA0C0F7FF45A
:1009F00025AF104619462CE795EA0C0F06D152EAAE
:100A000003353FF4FDAE1046194622E750EA410691
:100A100018BF52EA43067FF4C5AE50EA41047FF4A2
:100A20000DAF52EA43057FF4EBAE12E74FF0FF3C07
:100A300006E000BF4FF0010C02E000BF4FF0010CD8
:100A40004DF804CD4FEA410C7FEA6C5C4FEA430C51
:100A500018BF7FEA6C5C1BD001B050EA410C0CBFA0
:100A600052EA430C91EA030F02BF90EA020F002002
:100A7000704710F1000F91EA030F58BF994208BF69
:100A800090422CBFD8176FEAE37040F00100704726
:100A90004FEA410C7FEA6C5C02D150EA013C07D17D
:100AA0004FEA430C7FEA6C5CD6D152EA033CD3D0C8
:100AB0005DF8040B704700BF8446104662468C46C2
:100AC0001946634600E000BF01B5FFF7B7FF0028F5
:100AD00048BF10F1000F01BD4DF808EDFFF7F4FF1E
:100AE0000CBF012000205DF808FB00BF4DF808EDA9
:100AF000FFF7EAFF34BF012000205DF808FB00BFCC
:100B00004DF808EDFFF7E0FF94BF012000205DF8ED
:100B100008FB00BF4DF808EDFFF7CEFF94BF0120A2
:100B200000205DF808FB00BF4DF808EDFFF7C4FF9B
:100B300034BF012000205DF808FB00BF4FEA410CE4
:100B40007FEA6C5C02D150EA013C0AD14FEA430CC7
:100B50007FEA6C5C02D152EA033C02D14FF0000004
:100B600070474FF0010070474FEA410212F5001242
:100B700015D211D56FF47873B3EB625212D94FEAE4
:100B8000C12343F0004343EA505311F0004F23FACE
:100B900002F018BF404270474FF00000704750EA23
:100BA000013005D111F0004008BF6FF000407047E0
:100BB0004FF00000704700BF53B94AB9002908BF81
:100BC00000281CBF4FF0FF314FF0FF3000F088B914
:100BD000ADF1080C6DE904CE00F006F8DDF804E094
:100BE000DDE9022304B070472DE9F047089D8E46E9
:100BF00004468846002B4AD18A42174662D9B2FA87
:100C000082F64EB1C6F1200301FA06F820FA03F38A
:100C1000B74043EA0808B4404FEA174E1FFA87FC72
:100C2000B8FBFEF1230C0EFB118843EA084301FBDD
:100C30000CF29A4209D9FB1801F1FF3080F0EA80EA
:100C40009A4240F2E78002393B449A1AA3B2B2FBBF
:100C5000FEF00EFB102243EA024300FB0CFC9C4515
:100C600009D9FB1800F1FF3280F0D6809C4540F294
:100C7000D3803B44023840EA0140A3EB0C0300213F
:100C80001DB1F3400022C5E90032BDE8F0878B4278
:100C900005D90DB1C5E9000100210846F5E7B3FA11
:100CA00083F1002946D1734502D3824200F20581C7
:100CB000841A6EEB030201209046002DE5D0C5E9B1
:100CC0000048E2E7002A00F09080B2FA82F6002E97
:100CD00040F0A4808A1A030C4FEA174E80B2BCB2CF
:100CE0000121B2FBFEFC0EFB1C2243EA024304FB83
:100CF0000CF29A4207D9FB180CF1FF3802D29A4243
:100D000000F2E080C4469B1AB3FBFEF20EFB1233E6
:100D100040EA034302FB04F49C4207D9FB1802F1AA
:100D2000FF3002D29C4200F2CA8002461B1B42EAFC
:100D30000C40A5E7C1F120068B4022FA06F71F43BD
:100D40000EFA01F420FA06F32EFA06FE4FEA1749CE
:100D5000234300FA01F81FFA87FCBEFBF9F01C0CD4
:100D600009FB10EE44EA0E4400FB0CFEA64502FA15
:100D700001F209D93C1900F1FF3A80F09C80A645A8
:100D800040F2998002383C44A4EB0E041FFA83FE23
:100D9000B4FBF9F309FB13444EEA044403FB0CFCD7
:100DA000A44508D93C1903F1FF3E80F08280A44598
:100DB0007FD9023B3C4443EA0040A4EB0C04A0FB77
:100DC00002EC64457346E14662D35FD05DB1B8EB97
:100DD000030264EB090404FA06F622FA01F31E4347
:100DE000CC40C5E9006400214FE7B1FBF2FC010CE7
:100DF00041EA0E4180B240EA01423B4638463C4659
:100E0000B846BE462026B1FBF7F1A2EB080241EA44
:100E10000C4166E7014618E710462CE7C6F12002B0
:100E20002EFA02F3B740B14020FA02F24FEA174E11
:100E30000A43B3FBFEF8BCB20EFB1833110C41EAB7
:100E4000034108FB04F9B04089454FEA104380B2E2
:100E50003ED9791808F1FF3C01D289451FD8A1EB92
:100E60000901B1FBFEF909FB04F80EFB191192B25E
:100E700042EA0142424529D2BA1809F1FF31C4D2EF
:100E80004245C2D2A9F102013A44BEE7F0459DD2E3
:100E9000BEEB02036CEB070C0138E14696E7A7EBCB
:100EA00009094944A8F1020CB1FBFEF909FB04F859
:100EB000DBE773467FE7504666E70846FDE63B44BE
:100EC000023A33E7ACF1020C3B441CE749469CE78D
:100ED000A1EB0901C446B1FBFEF909FB04F8C4E724
:100EE000704700BF80B584B000AF03460A46FB8060
:100EF0001346BB80FB88002B06D100F037F8BB8877
:100F0000184604F02DFE2AE0FB88164A92FBF3F304
:100F1000FB60FB68B3F5803F02D34FF6FF73FB60C5
:100F2000FB68132B01D81423FB600F4B1B68FA6876
:100F3000013ADA62FB68013B0B4AD3600A4B1B683B
:100F4000FA685208DA630821074807F065F8BB8899
:100F5000184604F005FE0821034807F00DF9103784
:100F6000BD4680BD00093D00F402002080B500AF01
:100F70000821024807F000F900BF80BDF4020020FC
:100F800080B500AFC82140F20B20FFF7ABFF322144
:100F90000020FFF7A7FFC82140F29320FFF7A2FF30
:100FA00032210020FFF79EFF4FF496714FF44470FA
:100FB000FFF798FF00BF80BD80B500AF96214FF4CA
:100FC0004470FFF78FFF32210020FFF78BFFC8210D
:100FD00040F21740FFF786FF00BF80BD80B500AF2D
:100FE000642140F20B20FFF77DFF642140F2932043
:100FF000FFF778FF64214FF44470FFF773FFC821B7
:1010000040F21740FFF76EFF64210020FFF76AFFF0
:10101000642140F21740FFF765FF64214FF44470EC
:10102000FFF760FF4FF4967140F21740FFF75AFF49
:1010300000BF80BD80B582B000AF00237B600AE0B6
:10104000C821DC20FFF74EFF64210020FFF74AFF94
:101050007B6801337B607B68022BF1DD00BF00BF42
:101060000837BD4680BD80B500AF32214FF47A709D
:10107000FFF738FF00BF80BD80B500AF1E214FF4E1
:101080004870FFF72FFF00BF80BD80B582B000AF72
:1010900000237B600BE064214FF4DC70FFF722FF3C
:1010A00064210020FFF71EFF7B6801337B607B68B3
:1010B000042BF0DD00BF00BF0837BD4680BD000037
:1010C00080B582B000AF78607868FFF7D9F8034642
:1010D0009AB24FF47A737968034808F087F800BF32
:1010E0000837BD4680BD00BF140400200FB480B592
:1010F000C2B000AF07F58A7207F58473A3F5827357
:101100001A6007F58473A3F5827307F108001B6862
:10111000D7F810214FF4807109F0DCFD07F10803C6
:101120001846FFF7CDFF00BF07F58477BD46BDE841
:10113000804004B07047000080B594B000AF4448D0
:10114000FFF7BEFF0F23FB6458E03B46402200211F
:10115000184609F0CDFD0023BB6438E03D49BB6C67
:101160001A01FB6C13441B010B4404331B78002B46
:101170001DD03849BB6C1A01FB6C13441B010B4496
:101180001B6842F20E72934208DC3249BB6C1A01B2
:10119000FB6C13441B010B441B6801E040F2E73376
:1011A00007F140001A462C4909F000FD05E007F15F
:1011B00040032A49184609F0F9FC07F140023B4672
:1011C0001146184609F09CFDBB6C0133BB64BB6C37
:1011D0000F2BC3DD3B461846FFF752F803461A466D
:1011E0003B4613441E4A1188927819809A703B46F8
:1011F0001846FFF765FFFB6C013BFB64FB6C002BA3
:10120000A3DA184B1968174B5A68164B9B68164897
:10121000FFF76CFF134B1B7B002B01D0134B00E03F
:10122000134B19461348FFF761FF0E4B5B7B002BF6
:1012300001D00E4B00E00E4B19460F48FFF756FF4A
:101240000E48FFF73DFF00BF5037BD4680BD00BFD1
:1012500018D000085C04002030D0000838D0000806
:1012600040D000085C14002044D000086CD0000876
:1012700070D0000874D000088CD00008A4D00008FA
:10128000F0B587B006AF134B1B881D46114B1B8969
:101290001E46104B5B889C460E4BDB881A460D4B56
:1012A0009B8819460B4B9B7A18460A4BDB7A1C46E7
:1012B000084B1B7B049303940290019100926346B8
:1012C000324629460448FFF711FF00BF0437BD46E8
:1012D000F0BD00BF70140020BCD0000880B584B001
:1012E00002AF0F4B1B685B6AA3F500437B600D4B9D
:1012F0001B685B6AA3F500433B600B4B19680A4B04
:101300005A68094B98683B6801937B6800930346D1
:101310000648FFF7EBFE00BF0837BD4680BD00BFA3
:101320003C030020CC0300205C14002000D1000806
:1013300080B582B000AF02F005FA87ED010A02F035
:1013400051FA38602448FFF7BBFE244B1B6919464D
:101350002348FFF7CBFE7868FFF7FEF802460B46FE
:101360002048FFF7C3FE39681F48FFF7BFFED7EDDF
:10137000017A9FED1E7AF4EEC77AF1EE10FA06D8E4
:101380003B68002B03DD1A48FFF79AFE1CE0D7EDFF
:10139000017A9FED187AF4EEC77AF1EE10FA03D8CD
:1013A0001548FFF78DFE0FE0D7ED017A9FED137A18
:1013B000F4EEC77AF1EE10FA03D81148FFF780FE79
:1013C00002E01048FFF77CFE0F48FFF779FE00BFF0
:1013D0000837BD4680BD00BF30D100085C14002036
:1013E00050D1000868D100088CD1000800004842A4
:1013F000B0D1000800008242D0D100080000A04215
:10140000FCD1000824D2000848D2000880B584B07E
:1014100002AF164B1B8807EE903AF8EEE77A9FED85
:10142000147A27EE877ADFED136AC7EE267AC7EDC6
:10143000017A7868FFF790F802460B460B49098855
:1014400000910D48FFF752FE084B1B8840F6B7325B
:10145000934203D80948FFF733FE02E00848FFF73C
:101460002FFE00BF0837BD4680BD00BF70140020AE
:10147000333353400000804568D2000880D2000812
:101480009CD2000880B584B000AF0346FB71FB79A5
:1014900063F07F03DBB27B7300233B7300224FF4C6
:1014A0008051174805F09AFA07F10D0164230122D3
:1014B000144805F0C0FF0346FB7307F10C016423D9
:1014C0000122104806F0FBF80346BB7301224FF4DB
:1014D00080510B4805F082FAFB7B002B02D1BB7BCD
:1014E000002B07D00848FFF7EBFD084B00221A70CD
:1014F000FF2300E03B7B18461037BD4680BD00BF90
:10150000000402409C020020BCD3000844020020DA
:1015100080B584B000AF03460A46FB711346BB7129
:10152000FB793B73BB797B7300224FF480511148E8
:1015300005F054FA07F10C01642302220E4805F06D
:101540007AFF0346FB7301224FF48051094805F0EE
:1015500045FAFB7B002B05D00848FFF7B1FD084B8F
:1015600000221A70012004F0FBFA00BF1037BD46BC
:1015700080BD00BF000402409C020020E0D30008B0
:101580004402002080B582B000AF3C48FFF798FDD0
:10159000C82004F0E5FA80216B20FFF7B9FFFA209C
:1015A00004F0DEFA00216B20FFF7B2FF322004F0D6
:1015B000D7FA01216B20FFF7ABFF322004F0D0FAFD
:1015C00000216C20FFF7A4FF0A2004F0C9FA6A206A
:1015D000FFF758FF0346FB71FB7943F01003FB71E3
:1015E000FB7919466A20FFF793FF0A2004F0B8FA46
:1015F00004211920FFF78CFF0A2004F0B1FA022120
:101600001A20FFF785FF0A2004F0AAFA08211B2000
:10161000FFF77EFF0A2004F0A3FA08211C20FFF741
:1016200077FF0A2004F09CFA02211D20FFF770FFCB
:101630000A2004F095FA7520FFF724FF0346BB71DA
:10164000BB7919460E48FFF751FDBB79702B09D0C5
:10165000BB7919460B48FFF749FD0B4B00221A7066
:10166000002306E00948FFF72BFD074B01221A7003
:10167000012318460837BD4680BD00BF08D40008C6
:1016800034D4000848D400084402002070D4000874
:1016900080B582B000AF274B1B7883F00103DBB22B
:1016A000002B03D02448FFF70BFD3FE02348FFF752
:1016B00007FD234B64229A604FF000037B600023F8
:1016C0003B6014E000F07CF81E4BB3F9043007EEE9
:1016D000903AF8EEE77A97ED017A77EE277AC7ED40
:1016E000017A032004F03CFA3B6801333B60144B61
:1016F0009A683B689A42E5D8114B9B6807EE903A8E
:10170000B8EE677AD7ED016AC6EE877A0C4BC3ED67
:10171000007A0B4B01221A71094B1B681846FEF721
:101720001BFF02460B460848FFF7E0FC0837BD46A2
:1017300080BD00BF4402002084D40008B0D400085B
:101740004802002080140020E4D4000880B582B054
:1017500000AF124B1B7983F00103DBB2002B04D0E6
:1017600000F002F9F0EE407A13E00D4BB3F90430CB
:1017700007EE903AB8EEE77A084BD3ED007A37EEF1
:10178000677ADFED086AC7EE267AC7ED017AD7EDF2
:10179000017AB0EE670A0837BD4680BD48020020D6
:1017A000801400200000834280B400AF034B1B78FC
:1017B0001846BD465DF8047B704700BF4402002018
:1017C00080B584B000AF254B1B7883F00103DBB2FA
:1017D000002B03D02248FFF773FC3CE0C323FB71CE
:1017E00000224FF480511F4805F0F8F8F91D6423DA
:1017F00001221D4805F01FFE0346FB73FB7B002BF7
:1018000009D001224FF48051164805F0E7F8174837
:10181000FFF756FC1FE007F1080164230622124877
:1018200005F04DFF0346FB7301224FF480510D4834
:1018300005F0D4F8FB7B002B03D00D48FFF740FCEC
:1018400009E03B7B1BB21B021AB27B7B1BB213432A
:101850001AB2084B9A801037BD4680BD4402002062
:1018600004D50008000402409C02002038D500087E
:101870005CD500088014002080B584B000AF2F4BE9
:101880001B7883F00103DBB2002B03D02C48FFF759
:1018900017FC50E0BB23FB7100224FF48051294814
:1018A00005F09CF8F91D64230122274805F0C3FDCB
:1018B0000346FB73FB7B002B09D001224FF48051C0
:1018C000204805F08BF82148FFF7FAFB33E007F1D9
:1018D0000801642306221C4805F0F1FE0346FB7351
:1018E00001224FF48051174805F078F8FB7B002B5C
:1018F00003D01748FFF7E4FB1DE03B7A1BB21B0245
:101900001AB27B7A1BB213431AB2124BDA80BB7A3B
:101910001BB21B021AB2FB7A1BB213431AB20D4B55
:101920001A813B7B1BB21B021AB27B7B1BB2134397
:101930001AB2084B5A811037BD4680BD44020020C0
:1019400080D50008000402409C020020B8D50008A1
:10195000DCD500088014002080B500AFFFF78CFFB5
:10196000FFF72EFF00BF80BD80B400AF094BB3F975
:10197000043007EE903AF8EEE77A9FED077AC7EE6B
:10198000876AF0EE667AB0EE670ABD465DF8047BC2
:10199000704700BF801400200000834280B582B0F1
:1019A00000AF284B1B78002B01D0274B00E0274BC2
:1019B00019462748FFF79AFB224B1B78002B3CD097
:1019C0007520FFF75FFD0346FB716A20FFF75AFDA4
:1019D0000346BB716B20FFF755FD03467B71F97918
:1019E000BA797B791B48FFF781FBBB7903F01003C1
:1019F000002B03D01848FFF763FB02E01748FFF7FE
:101A00005FFBFFF7A9FF164BB3F906301946144BDD
:101A1000B3F908301A46124BB3F90A301148FFF7F0
:101A200065FBFFF7A1FF10EE103A1846FEF794FD94
:101A300002460B460C48FFF759FB00BF0837BD466E
:101A400080BD00BF4402002000D6000804D6000874
:101A50000CD6000828D600085CD6000870D600080E
:101A60008014002084D600089CD6000880B500AF02
:101A70002848FFF725FB0021274806F0CDFA04216E
:101A8000254806F0C9FA0821234806F0C5FA0C21BA
:101A9000214806F0C1FA01224FF400511F4804F01A
:101AA0009DFF00F095FD02F02DFEFFF76BFD034654
:101AB000002B0FD01A48FFF703FB1A48FFF700FB73
:101AC0004FF4FA6004F04CF8FFF7E2FD1648FFF718
:101AD000F7FA02E01548FFF7F3FA01F00BFF642074
:101AE00004F03EF801F0CCFE0346002B08D101F0D3
:101AF000D1FE0346002B03D10D48FFF7E1FA02E0C7
:101B00000C48FFF7DDFA00F061FE0B48FFF7D8FA4A
:101B100000BF80BDB0D6000884030020000802404A
:101B2000E4D6000818D7000850D7000870D700087E
:101B3000ACD70008E4D7000810D8000880B500AF83
:101B40002148FFF7BDFA02F0F5FC204B1B88002B63
:101B500013D11E4B1B89002B0FD11C4B5B88002B14
:101B60000BD11A4BDB88002B07D1184B9B88002B1D
:101B700003D11748FFF7A4FA04E01648FFF7A0FACC
:101B8000FFF77EFBFFF742FCFFF70EFE0346002B3C
:101B900001D0FFF703FF02F07DF803F0AFFA034630
:101BA000002B06D00C48FFF78BFA0C4B01221A7061
:101BB00005E00B48FFF784FA084B01221A70094828
:101BC000FFF77EFA00BF80BD3CD8000870140020EB
:101BD00060D80008A0D80008C4D80008A6140020C7
:101BE000E8D8000824D9000880B582B000AF03F01F
:101BF000ABFF78601C4B1B687A68D31A42F21072F4
:101C0000934216D9194B1B7883F00103DBB2002BEA
:101C10000FD0FFF7FBFB164B1B78002B03D01548AA
:101C2000FFF74EFA02E01448FFF74AFA0E4A7B68C3
:101C30001360124B1B687A68D31AB3F5FA6F0FD989
:101C40000B4B1B78002B04D010210D4804F0DFFE55
:101C500003E020210A4804F0DAFE084A7B6813609A
:101C600000BF0837BD4680BDA8140020A71400207F
:101C7000A614002044D9000884D90008AC14002020
:101C80000004024080B500AF03F0F8FE00F0C4F895
:101C900000F0BCFB00F028F900F078F900F0ACF996
:101CA00000F04AFA00F034FB00F086FB00F098FAEE
:101CB00005F004FB0346184600F062FDFFF7D6FE70
:101CC000FFF73CFFFFF75CF903F07CF94448FFF7AE
:101CD000F7F94448FFF7F4F94348FFF7F1F94348AF
:101CE000FFF7EEF903F030FF0346414A136003F0BB
:101CF0002BFF03463F4A13603F4B1B78DBB2012B9F
:101D000033D13D4B00221A703C4B1B7883F001030A
:101D1000DBB2002B12D03A4B1B78002B0ED0394887
:101D2000FFF7CEF9FFF748F94FF47A7003F018FF88
:101D3000324B01221A7001F061FC16E001F0F2FC56
:101D40000346002B05D03048FFF7BAF9FFF7F0FA49
:101D50000BE02B4B1B7883F00103DBB2002B04D08C
:101D60002A48FFF7ADF9FFF765F9234B1B78DBB283
:101D7000022B28D1204B00221A70204B1B78002BFD
:101D800012D001F0CFFC034683F00103DBB2002B3D
:101D90000AD01F48FFF794F901F090FEFFF74AF9C7
:101DA000164B00221A700EE01A48FFF789F9FFF768
:101DB000C3F9FFF765FAFFF791FA104B1B78002B78
:101DC00001D0FFF7B5FAFFF70FFF0C4B1B78002B84
:101DD00001D001F0A7FC322003F0C2FE8CE700BF67
:101DE000B0D90008D8D90008FCD9000824DA0008C6
:101DF000A8140020AC140020A4140020A714002074
:101E0000A614002040DA00086CDA0008A8DA0008FE
:101E1000D8DA0008F0DA000880B594B000AF07F116
:101E2000200330220021184608F062FF07F10C035E
:101E300000221A605A609A60DA601A610023BB605F
:101E4000274B1B6C264A43F080531364244B1B6CB6
:101E500003F08053BB60BB6800237B60214B1B6891
:101E6000204A43F4404313601E4B1B6803F4404375
:101E70007B607B6802233B620123FB6210233B6390
:101E80000223BB630023FB6310233B64A8237B6412
:101E90000223BB640423FB6407F12003184604F00B
:101EA000E9FD0346002B01D000F0CEFB0F23FB60C1
:101EB00002233B6100237B614FF48053BB6100230D
:101EC000FB6107F10C030221184605F04BF80346AD
:101ED000002B01D000F0B8FB00BF5037BD4680BDDD
:101EE000003802400070004080B584B000AF3B462F
:101EF00000221A605A609A60DA60214B214A1A6007
:101F00001F4B4FF480325A601D4B00229A601C4BCD
:101F100000221A611A4B00221A76194B002283F80C
:101F20002020174B0022DA62154B174A9A62144B95
:101F30000022DA60124B0122DA61114B002283F891
:101F400030200F4B01225A610D4803F02DFE03464D
:101F5000002B01D000F078FB00233B6001237B6065
:101F60000423BB603B461946054803F0E1FF0346E6
:101F7000002B01D000F068FB00BF1037BD4680BDCC
:101F800054020020002001400100000F80B500AF86
:101F9000174B184A1A60164B4FF482725A60144B52
:101FA00000229A60124B0022DA60114B00221A6163
:101FB0000F4B00225A610E4B4FF400729A610C4B8A
:101FC0003022DA610A4B00221A62094B00225A625F
:101FD000074B00229A62064B0A22DA62044805F097
:101FE000A1F90346002B01D000F02EFB00BF80BDFD
:101FF0009C0200200038004080B596B000AF07F189
:10200000480300221A605A609A60DA6007F14003C0
:1020100000221A605A6007F1240300221A605A60F5
:102020009A60DA601A615A619A613B1D2022002190
:10203000184608F05DFE3E4B3E4A1A603C4B1422A7
:102040005A603B4B00229A60394BC822DA60384B09
:1020500000221A61364B00225A61354B80229A6168
:10206000334805F031FF0346002B01D000F0ECFAB5
:102070004FF48053BB6407F1480319462C4806F01F
:10208000C5FB0346002B01D000F0DEFA284805F01E
:102090006AFF0346002B01D000F0D6FA00233B6410
:1020A00000237B6407F140031946214806F07AFFBC
:1020B0000346002B01D000F0C7FA60237B62642343
:1020C000BB620023FB6200233B6300237B6300238E
:1020D000BB630023FB6307F124030822194614485D
:1020E00006F0D2FA0346002B01D000F0ADFA00232F
:1020F0007B600023BB600023FB6000233B61002367
:102100007B614FF40053BB6100233B623B1D1946CA
:10211000074806F0B5FF0346002B01D000F094FA03
:10212000034802F031FD00BF5837BD4680BD00BFF7
:10213000F40200200000014080B58CB000AF07F130
:102140000C0324220021184608F0D2FD3B1D00227A
:102150001A605A60214B4FF080421A601F4B0022D8
:102160005A601E4B00229A601C4B4FF6FF72DA60D9
:102170001A4B00221A61194B80229A610323FB60DB
:1021800000233B6101237B610023BB610023FB61D2
:1021900000233B6201237B620023BB620023FB62BE
:1021A00007F10C0319460D4806F04AF80346002BC8
:1021B00001D000F049FA00237B600023BB603B1D87
:1021C0001946064806F0EEFE0346002B01D000F04B
:1021D0003BFA00BF3037BD4680BD00BF3C03002046
:1021E00080B58EB000AF07F1280300221A605A6054
:1021F0009A60DA6007F1200300221A605A603B1DE2
:1022000000221A605A609A60DA601A615A619A6113
:102210003D4B3E4A1A603C4B04225A603A4B002226
:102220009A60394B40F24632DA60374B00221A612D
:10223000354B80229A61344805F046FE0346002B58
:1022400001D000F001FA4FF48053BB6207F128037C
:1022500019462D4806F0DAFA0346002B01D000F0AB
:10226000F3F9294805F07FFE0346002B01D000F06A
:10227000EBF900233B6200237B6207F12003194640
:10228000214806F08FFE0346002B01D000F0DCF958
:1022900060237B600023BB600023FB6000237B6125
:1022A0003B1D00221946184806F0EEF90346002BA4
:1022B00001D000F0C9F93B1D04221946124806F06E
:1022C000E3F90346002B01D000F0BEF93B1D0822C4
:1022D00019460D4806F0D8F90346002B01D000F04E
:1022E000B3F93B1D0C221946074806F0CDF9034609
:1022F000002B01D000F0A8F9034802F045FC00BF14
:102300003837BD4680BD00BF840300200004004074
:1023100080B58CB000AF07F10C03242200211846D1
:1023200008F0E6FC3B1D00221A605A60204B214A4F
:102330001A601F4B00225A601D4B00229A601C4BF2
:102340004FF6FF72DA601A4B00221A61184B802296
:102350009A610323FB6000233B6101237B6100231F
:10236000BB610023FB6100233B6201237B620023EE
:10237000BB620023FB6207F10C0319460C4805F011
:102380005FFF0346002B01D000F05EF900237B6065
:102390000023BB603B1D1946054806F003FE0346BB
:1023A000002B01D000F050F900BF3037BD4680BD92
:1023B000CC0300200008004080B500AF114B124A4A
:1023C0001A60104B4FF416525A600E4B00229A605E
:1023D0000C4B0022DA600B4B00221A61094B0C22D5
:1023E0005A61084B00229A61064B0022DA610548C7
:1023F00006F0ACFE0346002B01D000F025F900BF2B
:1024000080BD00BF140400200014014080B588B0D6
:1024100000AF07F10C0300221A605A609A60DA607C
:102420001A610023BB604B4B1B6B4A4A43F0040309
:102430001363484B1B6B03F00403BB60BB680023B2
:102440007B60444B1B6B434A43F001031363414BD6
:102450001B6B03F001037B607B6800233B603D4BFB
:102460001B6B3C4A43F0020313633A4B1B6B03F0B4
:1024700002033B603B6800224FF40051364804F0F1
:10248000ADFA002241F23031344804F0A7FA0022BC
:102490004FF44071324804F0A1FA4FF40053FB604E
:1024A00001233B6100237B610023BB6107F10C0327
:1024B0001946294804F00EF90223FB604FF48813F3
:1024C0003B6100237B6107F10C031946244804F0AB
:1024D00001F94FF48063FB604FF488133B610023E4
:1024E0007B6107F10C0319461C4804F0F3F841F234
:1024F0003033FB6001233B6100237B610023BB6120
:1025000007F10C031946154804F0E4F84FF4407342
:10251000FB6001233B6100237B610023BB6107F16A
:102520000C0319460E4804F0D5F8002205210720B7
:1025300004F007F8072004F020F8002205212820E5
:1025400003F0FFFF282004F018F800BF2037BD4635
:1025500080BD00BF00380240000802400004024075
:102560000000024080B584B000AF0346FB8003F05A
:10257000EBFAF860114B1B68FA68D31AC82B19D90B
:10258000FB88022B09D10E4B01221A700D4B012240
:102590001A700D48FEF794FD09E0FB88B3F5806FD3
:1025A00005D1074B02221A700848FEF789FD034A3D
:1025B000FB68136000BF1037BD4680BDB01400201B
:1025C000A4140020A514002018DB000830DB00084C
:1025D00080B586B000AF3B1D00221A605A609A6039
:1025E000DA601A6101237B600323BB600023FB6078
:1025F0003B1D1946124804F06DF804237B603B1D17
:1026000019460F4804F066F808237B603B1D194605
:102610000B4804F05FF810237B603B1D1946084807
:1026200004F058F820237B603B1D1946044804F051
:1026300051F80448FEF744FD00BF1837BD4680BD81
:102640000000024048DB000880B500AF72B600BF52
:102650001021064804F0DBF92021044804F0D7F9E2
:10266000642003F07DFA00BFF2E700BF00040240DF
:1026700080B483B000AF78607B680022C3F8842800
:102680007B68D3F884287B68C3F8802800BF0C37A8
:10269000BD465DF8047B704780B483B000AF7860BE
:1026A0007B68D3F880287B68D3F884389A420CBFC3
:1026B00001230023DBB218460C37BD465DF8047BCE
:1026C000704780B485B000AFF8603B1D83E806001A
:1026D000FB68D3F88438B3F5887F0EDAFB68D3F84B
:1026E0008438591CFA68C2F88418FA68DB0013446D
:1026F0003A1D92E8030083E8030000BF1437BD468B
:102700005DF8047B704790B482B000AF78603960A8
:102710003B68D3F88038591C3A68C2F88018796849
:102720003A680C46DB00134493E8030084E8030096
:1027300078680837BD4690BC7047000080B485B00B
:1027400000AF78600C4B5B68FB600C4B1A687B68D1
:1027500002FB03F3BB6000E000BF074B5A68FB6855
:10276000D31ABA689A42F7D800BF00BF1437BD46E3
:102770005DF8047B704700BF001000E0541D00208E
:1027800080B483B000AF78600C4BDB680B4A43F039
:102790008073D3600A4B1B68094A43F0010313603E
:1027A0007B68084AA2FB03239B0C074A136000BF07
:1027B0000C37BD465DF8047B704700BFF0ED00E0CC
:1027C000001000E083DE1B43541D002080B586B05E
:1027D00002AF5A48FEF774FC0023FB603EE0002382
:1027E000BB6035E05649FB681A01BB6813441B0106
:1027F0000B4442F20F721A605149FB681A01BB6820
:1028000013441B010B44043300221A704C49FB682B
:102810001A01BB6813441B010B440C3300221A60DD
:1028200000237B600EE04649FB681A01BB68134435
:102830001B01CA187B681344053300221A707B6899
:1028400001337B607B68032BEDDDBB680133BB602C
:10285000BB680F2BC6DDFB680133FB60FB680F2BE9
:10286000BDDD00233B601FE0354A3B681B0213447B
:10287000073301221A70324A3B681B021344F533B6
:1028800001221A702E4A3B681B01134408330122AF
:102890001A702B4A3B681B01134403F6067301228E
:1028A0001A703B6801333B603B680F2BDCDD254B26
:1028B00007221A60244B07221A60244B08221A6050
:1028C000234B08221A60234B00221A60214B00225E
:1028D0005A60204B00229A601E4B00221A731D4B37
:1028E00000225A731B4B00221A61154B01221A71E8
:1028F000134B0122DA60184B00221A60174B00229A
:102900001A60102210211648FEF7F0FB0D4B1968D3
:102910000D4B1A680D4B18680D4B1B68009303464E
:102920001048FEF7E3FB1048FEF7CAFB0F48FEF71E
:10293000C7FB00BF1037BD4680BD00BF70DB00087D
:102940005C040020B4140020B8140020BC14002043
:10295000C01400205C140020C4140020C8140020FF
:102960009CDB0008B0DB0008D0DB000800DC0008BE
:1029700080B598B000AF0023FB6515E00023BB6570
:102980000CE08449FB6D1A01BB6D13441B010B4421
:1029900042F20F721A60BB6D0133BB65BB6D0F2B2A
:1029A000EFDDFB6D0133FB65FB6D0F2BE6DD7A4838
:1029B000FFF75EFE794B1B7B83F00103DBB2002B3C
:1029C00060D0774B1A68774B1B6872491201134429
:1029D0001B010B4400221A60734B1A68714B1B6871
:1029E0006C49120113441B010B4400221A606C4B0A
:1029F0001A686E4B1B686749120113441B010B4494
:102A000000221A60684B1A68684B1B686149120102
:102A100013441B010B4400221A60614B1B687B634B
:102A2000604B1B68BB6307F1340393E806005A4808
:102A3000FFF747FE5C4B1B68FB625A4B1B683B630E
:102A400007F12C0393E806005348FFF73AFE544B76
:102A50001B687B62554B1B68BB6207F1240393E83C
:102A600006004D48FFF72DFE4F4B1B68FB614F4B97
:102A70001B683B6207F11C0393E806004648FFF71A
:102A800020FE0DE0434B00221A6000237B610023EF
:102A9000BB6107F1140393E806003F48FFF711FEFE
:102AA00000237B6568E007F10C033B491846FFF7FC
:102AB0002AFEFB68FB643B69BB6400233B6558E06E
:102AC0003449FB6C1A01BB6C13441B01CA183B6DE3
:102AD000134405331B78002B45D1354A3B6D52F822
:102AE0002330FA6C13447B64324A3B6D52F8233036
:102AF000BA6C13443B647B6C002B36DB7B6C0F2B76
:102B000033DC3B6C002B30DB3B6C0F2B2DDC214985
:102B1000FB6C1A01BB6C13441B010B441B68013393
:102B2000FB631C497B6C1A013B6C13441B010B4477
:102B30001B68FA6B9A4219DA16497B6C1A013B6CD6
:102B400013441B010B44FA6B1A607B6C7B603B6C7B
:102B5000BB603B1D93E806000F48FFF7B2FD7B6D9D
:102B600001337B6502E000BF00E000BF3B6D013335
:102B70003B653B6D032BA3DD0748FFF78DFD034647
:102B8000002B90D0796D0C48FEF7B0FA00BF60378B
:102B9000BD4680BD5C040020CC1400205C140020E5
:102BA000B4140020B8140020BC140020C01400206D
:102BB0001CEC00082CEC000830DC000880B493B05A
:102BC00000AF894B9B687B6442F20F733B6440F219
:102BD000E733FB63002387F83B30834B9B683B6004
:102BE000814B9B6801335A4203F0030302F0030256
:102BF00058BF53427B607C4B9B6803335A4203F0BF
:102C0000030302F0030258BF5342BB60764B9B683C
:102C100002335A4203F0030302F0030258BF534247
:102C2000FB6000237B635CE07B6B9B0048333B4491
:102C300053F8483CBB616C4B1A686B4B5B686B4943
:102C4000120113441B01CA18BB69134405331B78D6
:102C5000002B40D1644B1A686549BB6951F8233099
:102C600013447B61604B5A686249BB6951F8233059
:102C700013443B617B69002B2FDB7B690F2B2CDC22
:102C80003B69002B29DB3B690F2B26DC57497B690D
:102C90001A013B6913441B010B440C331B68002BC6
:102CA0001CD1012387F83B3050497B691A013B69ED
:102CB00013441B010B441B683A6C9A420EDD4B49CE
:102CC0007B691A013B6913441B010B441B683B647D
:102CD000BB697B6402E000BF00E000BF7B6B013397
:102CE0007B637B6B032B9FDD97F83B3083F0010305
:102CF000DBB2002B70D000233B636AE03B6B9B0090
:102D000048333B4453F8483CFB62374B1A68364B18
:102D10005B683649120113441B01CA18FB6A13444D
:102D200005331B78002B4ED12F4B1A683049FB6AB4
:102D300051F823301344BB622B4B5A682D49FB6A70
:102D400051F8233013447B62BB6A002B3DDBBB6A26
:102D50000F2B3ADC7B6A002B37DB7B6A0F2B34DCD2
:102D60002249BB6A1A017B6A13441B010B441B688E
:102D70003B621E49BB6A1A017B6A13441B010B4468
:102D80000C331B68FB613A6A3B6C9A4214DB3A6A6B
:102D90003B6C9A4203D1FA69FB6B9A420CDB3A6AAC
:102DA0003B6C9A4212D1FA69FB6B9A420ED10E4BE0
:102DB0009B68FA6A9A4209D13B6A3B64FB69FB63F0
:102DC000FB6A7B6402E000BF00E000BF3B6B0133A5
:102DD0003B633B6B032B91DD7B6C18464C37BD4648
:102DE0005DF8047B704700BF5C1400205C04002089
:102DF0001CEC00082CEC000880B584B000AF7860B3
:102E00002A4B9B68FB607A68FB68D31A04335A42EA
:102E100003F0030302F0030258BF5342BB60BB68D8
:102E2000032B3BD801A252F823F000BF9D2E0008CF
:102E30003D2E00085D2E00087D2E00081C48FEF780
:102E40003FF900F0C5FD1B4B40F20D621A601A4BB2
:102E500040F201621A60FEF70FF91FE01748FEF713
:102E60002FF900F0E7FD134B40F2FA521A60124BB3
:102E700040F21A621A60FEF7FFF80FE01048FEF702
:102E80001FF900F073FD0B4B40F232521A600A4BEF
:102E90004FF4A9621A60FEF7EFF800BF034A7B689F
:102EA000936000BF1037BD4680BD00BF5C1400209A
:102EB00054DC0008581D00205C1D002068DC000860
:102EC0007CDC000880B582B000AF324B1B68314A11
:102ED000526819463048FEF709F92E4B1A682D4BF7
:102EE0009B682E4951F8233013447B60294B5A6864
:102EF000284B9B682A4951F8233013443B607B6878
:102F0000002B08DB7B680F2B05DC3B68002B02DB0A
:102F10003B680F2B04DD2348FEF7D2F8002335E091
:102F20003A6879682048FEF7E1F840F69C1140F6CF
:102F30009C1000F0FDFD174A7B681360154A3B6842
:102F40005360144B1B690133124A1361114B1A6809
:102F5000104B5B681549120113441B010B440433E9
:102F600001221A700B4B1A680A4B5B680F4811015B
:102F70001944090101440C31096801310B4812015F
:102F800013441B0103440C3319600123184608370E
:102F9000BD4680BD5C14002090DC00081CEC0008DD
:102FA0002CEC0008B0DC0008CCDC00085C0400203D
:102FB00080B582B000AF534B1B68524A5268194625
:102FC0005148FEF793F84F4B1A684E4B9B684F4998
:102FD00051F8233013447B604A4B5A68494B9B6835
:102FE0004B4951F8233013443B607B68002B08DBCE
:102FF0007B680F2B05DC3B68002B02DB3B680F2B4B
:1030000004DD4448FEF75CF8002377E03A6879680D
:103010004148FEF76BF8414B1B68002B12D0404B28
:103020001B68002B0ED03D4B1B683D4A12681146B1
:10303000184600F07DFD394B00221A60384B002203
:103040001A6030E0374BDB7A002B03D1354B1B7B0A
:10305000002B14D0344B1B68012B09D14FF496611F
:103060004FF4966000F097FD2F4B00221A601AE093
:1030700040F69C1140F69C1000F08DFD13E02A4BA9
:103080001B68012B09D14FF496614FF4966000F054
:103090004FFD254B00221A6005E040F69C1140F6DA
:1030A0009C1000F045FD174A7B681360154A3B6889
:1030B0005360144B1B690133124A1361114B1A6898
:1030C000104B5B681949120113441B010B44043374
:1030D00001221A700B4B1A680A4B5B6813481101E6
:1030E0001944090101440C31096801310F481201EA
:1030F00013441B0103440C3319600123184608379D
:10310000BD4680BD5C14002090DC00081CEC00086B
:103110002CEC0008B0DC0008CCDC0008581D0020B6
:103120005C1D002070140020000000205C040020C2
:1031300080B400AF1C4B1B7B83F00103DBB2002B80
:103140001ED0194B1A68194B1B689A4205D0164BB2
:103150001A68174B1B689A420DD1134B5A68154BCE
:103160001B689A4205D0104B5A68134B1B689A4251
:1031700001D1012300E0002303F00103DBB20DE0E5
:10318000094B1B68002B05D1074B5B68002B01D155
:10319000012300E0002303F00103DBB21846BD4623
:1031A0005DF8047B704700BF5C140020B41400205D
:1031B000BC140020B8140020C0140020F0B58DB05D
:1031C00004AF01F0B7F99C4B9B7A002B41D09B4B8D
:1031D00019689A4B5A68994B9B68994809010A44A7
:1031E000120102441344053301221A70934B1A68EA
:1031F000924B9B68934951F823301344FB618F4BEA
:103200005A688E4B9B68904951F823301344BB6138
:10321000FB69002B1DDBFB690F2B1ADCBB69002B44
:1032200017DBBB690F2B14DC844B9B6802335A42BB
:1032300003F0030302F0030258BF53428048FA69C7
:103240001101BA690A4412010244134405330122F0
:103250001A70794BDB7A002B48D0784B9B6803338C
:103260005A4203F0030302F0030258BF53427B614A
:10327000724B1A68714B5B687149120113441B0150
:10328000CA187B691344053301221A706B4B1A6804
:103290006C497B6951F8233013443B61674B5A6892
:1032A00069497B6951F823301344FB603B69002B6B
:1032B0001CDB3B690F2B19DCFB68002B16DBFB6862
:1032C0000F2B13DC7B6902335A4203F0030302F035
:1032D000030258BF53425A483A691101FA680A4436
:1032E000120102441344053301221A70524B1B7B16
:1032F000002B48D0514B9B6801335A4203F0030323
:1033000002F0030258BF5342BB604C4B1A684B4B50
:103310005B684B49120113441B01CA18BB68134474
:10332000053301221A70454B1A684649BB6851F8AB
:10333000233013447B60414B5A684349BB6851F8C2
:10334000233013443B607B68002B1CDB7B680F2B16
:1033500019DC3B68002B16DB3B680F2B13DCBB68CA
:1033600002335A4203F0030302F0030258BF5342F0
:1033700033487A6811013A680A441201024413443E
:10338000053301221A702C4B9B7A002B07D12A4B54
:10339000DB7A002B03D1284B1B7B002B28D0264B3C
:1033A0009B7A002B01D0294900E02949224BDB7A86
:1033B000002B01D0254A00E0254A1F4B1B7B002B28
:1033C00001D0224B00E0224B1B48008904461A48DA
:1033D000408805461848C0880646174880880390EC
:1033E0000296019500941B48FDF780FEFDF73BFE19
:1033F000124B1A68114B5B681149120113441B01EF
:103400000B44043301221A700C4B1A680B4B5B6897
:103410000B4811011944090101440C3109680131BB
:103420000748120113441B0103440C33196000BF09
:103430002437BD46F0BD00BF701400205C1400208E
:103440005C0400201CEC00082CEC0008D8DC000810
:10345000DCDC0008E0DC0008B0B586B002AF5B48F9
:10346000FDF72EFE4FF440737B600023FB6063E0AA
:10347000FFF7A4FE0A2002F073FBFFF779FAFFF7CB
:103480009DFB38603868FFF7B7FCFFF791FD0346F6
:1034900083F00103DBB2002B2BD04D48FDF710FE6B
:1034A0000023BB6020E0BA683B689A4219D0494BC0
:1034B0001A68484B5B684849120113441B01CA183B
:1034C000BB68134405331B7883F00103DBB2002B88
:1034D00007D0B868FFF790FCFFF7F4FC0346002B19
:1034E00006D1BB680133BB60BB68032BDBDD00E0AA
:1034F00000BFF968394B83FB01235A10CB17D21A4E
:1035000013469B001344CA1A002A12D1314B1C687F
:10351000304B5D682F4B9B68184601F0C3FD034696
:1035200000932B462246F9682D48FDF7DFFDFDF795
:1035300003FEFB680133FB60FFF7FAFD034683F0EF
:103540000103DBB2002B03D0FA687B689A428FDB61
:10355000FFF7EEFD0346002B26D01E4B1B7B83F0AE
:103560000103DBB2002B11D01A4B01221A731D4844
:10357000FDF7A6FDFDF732FD01F056FD4FF4FA60B0
:1035800002F0EEFA1848FDF79BFD15E0114B012201
:103590005A731648FDF794FDFDF720FD01F044FD38
:1035A000134B01221A6007E079681248FDF79EFD6F
:1035B000FDF740FD01F057FD064B1B6919460E480B
:1035C000FDF794FD00BF1037BD46B0BD1CDD0008FF
:1035D00044DD00085C1400205C0400206766666619
:1035E00074DD0008A0DD0008BCDD0008D8DD00089F
:1035F000C4140020F8DD000824DE000880B588B07F
:1036000002AF3E48FDF75CFD3D4B1B7B83F00103A1
:10361000DBB2002B06D03B48FDF752FD01F0F4FC75
:10362000FFF71AFF364B1B7B002B11D0344B5B7B13
:1036300083F00103DBB2002B0AD03348FDF740FDD5
:1036400001F0EAFC4FF47A7002F08AFAFFF704FF07
:103650002B4B5B7B002B4DD02C48FDF731FDFDF74C
:1036600067FE4FF48073BB6000237B6100233B61E6
:1036700019E00023FB6010E025493B691A01FB6853
:1036800013441B010B4404331B78002B02D07B69CD
:1036900001337B61FB680133FB60FB680F2BEBDDC3
:1036A0003B6901333B613B690F2BE2DD7B6907EE30
:1036B000903AF8EEE76ABB6807EE903AB8EEE77A20
:1036C000C6EE877A9FED137A67EE877AC7ED017AA7
:1036D0007868FCF741FF02460B46CDE90023BA6843
:1036E00079690D48FDF702FD0C48FDF7E9FC0C4B2C
:1036F00001221A6000BF1837BD4680BD44DE0008B5
:103700005C1400206CDE000890DE0008B4DE0008C7
:103710005C0400200000C842D8DE000808DF000872
:10372000C414002080B400AF054B1B68002B14BFED
:1037300001230023DBB21846BD465DF8047B7047C9
:10374000C414002080B485B000AF214B1B69002B4E
:1037500002D1DFED207A34E01F4B1B6883EAE3726D
:10376000A2EBE3721D4B1B68002BB8BF5B421344F6
:10377000FB60194B1B6883EAE372A2EBE372174B01
:103780001B68002BB8BF5B421344BB60FA68BB6880
:1037900013447B607B68002B02D1DFED117A10E0CF
:1037A0007B6807EE903AF8EEE76A094B1B6907EE73
:1037B000903AB8EEE77AC6EE877A9FED097A67EE1F
:1037C000877AB0EE670A1437BD465DF8047B704710
:1037D0005C14002000000000B4140020B814002085
:1037E0000000C84280B400AF034B1B681846BD46BA
:1037F0005DF8047B704700BF5C04002080B483B098
:1038000000AF194B1B685B6AFB80184B1B685B6A37
:10381000BB80174B1B88FA88D31A9BB27B80154B51
:103820001B88BA88D31A9BB23B803B885B429BB211
:103830003B80B7F90220104B1B6813440E4A1360FB
:10384000B7F900200D4B1B6813440C4A1360084A5B
:10385000FB881380074ABB88138000BF0C37BD4626
:103860005DF8047B704700BF3C030020CC030020C0
:103870000400002006000020601D0020641D0020C0
:1038800080B500AFFFF7BAFF014B1B68184680BD3B
:10389000601D002080B500AFFFF7B0FF014B1B6833
:1038A000184680BD641D002080B400AF0B4B002281
:1038B0001A600B4B00221A600A4B1B685B6A9AB2B3
:1038C000094B1A80094B1B685B6A9AB2084B1A8035
:1038D00000BFBD465DF8047B704700BF601D00203F
:1038E000641D00203C03002004000020CC030020C5
:1038F0000600002080B500AF3C21154804F046FDCD
:103900003C21144804F042FD114B1B684FF4004267
:103910005A62104B1B684FF400425A62012002F0B9
:103920001FF90D4B4FF400421A800C4B4FF400422C
:103930001A800B4B00221A600A4B00221A600A4BB5
:1039400000229A60084B0022DA6000BF80BD00BFF1
:10395000CC0300203C0300200400002006000020CF
:10396000601D0020641D00209414002080B500AF6D
:10397000144B9B7A002B06D04FF47A614FF41670EB
:1039800001F016FC05E040F2BD3140F2BD3000F020
:10399000CFF800F0FFFA4FF496614FF402709FEDFC
:1039A0000A0A00F0D3FB094B9B6803335A4203F029
:1039B000030302F0030258BF5342044A936000BF5E
:1039C00080BD00BF701400200000B4425C140020D1
:1039D00080B500AF144B9B7A002B06D040F6B8316F
:1039E0004FF4167001F0E4FB05E040F2BD3140F207
:1039F000BD3000F09DF800F0CDFA4FF496614FF421
:103A000002709FED0A0A00F0A1FB094B9B6801338D
:103A10005A4203F0030302F0030258BF5342044A20
:103A2000936000BF80BD00BF701400200000B4C2CE
:103A30005C14002080B500AF1D4B9B7A002B06D094
:103A400040F6B8314FF4167001F0B2FB05E040F2D9
:103A5000BD3140F2BD3000F06BF84FF496614FF489
:103A600002709FED140A00F071FB4FF496614FF461
:103A700002709FED100A00F069FB0F4B9B68013349
:103A80005A4203F0030302F0030258BF53420A4AAA
:103A90009360094B9B6801335A4203F0030302F021
:103AA000030258BF5342044A936000BF80BD00BF69
:103AB000701400200000B4C25C14002080B400AF79
:103AC0000A4B1B6800225A63084B1B6800229A634A
:103AD000064B1B680022DA63044B1B6800221A6441
:103AE00000BFBD465DF8047B704700BF8403002023
:103AF00080B500AF0D4B1B684FF47A725A630B4BC5
:103B00001B684FF47A729A63084B1B684FF47A7201
:103B1000DA63064B1B684FF47A721A64142002F0C1
:103B20001FF8FFF7CBFF00BF80BD00BF840300205C
:103B300080B588B000AF78603960FFF7B5FEFFF759
:103B40009FFEF861FFF7A6FEB86100F0EFF8FDF701
:103B500037FE00F00FF9FFF793FE7861FFF79AFE4A
:103B60003861FA697B69D31AFB60BA693B69D31A79
:103B7000BB60FA687B689A4207DABA683B689A4287
:103B800003DA012001F0ECFFE1E7FFF7B1FF00BF2E
:103B90002037BD4680BD80B58AB000AF78603960FF
:103BA000FFF782FEFFF76CFE7862FFF773FE386264
:103BB0000023FB614FF41673BB61B969F86901F02A
:103BC00077FD01F0ADFD3220FEF7B8FDFFF758FE9E
:103BD0007861FFF75FFE38617A6A7B69D31AFB6010
:103BE0003A6A3B69D31ABB60FA687B689A4207DA83
:103BF000BA683B689A4203DA012001F0B1FFE0E7BE
:103C0000FFF776FF00BF2837BD4680BD80B584B082
:103C100000AF0346FB710B46BB711346BB80FB79BB
:103C2000002B15D1BB79002B08D0174B1B68BA8825
:103C30005A63154B1B6800229A6320E0124B1B68E5
:103C4000BA889A6300224021104802F0C7FE16E0AD
:103C5000BB79FB73FB7B002B09D00B4B1B68BA882D
:103C60001A64002201210A4802F0B8FE07E0064B60
:103C70001B6800221A64044B1B68BA88DA6300BF11
:103C80001037BD4680BD00BF840300200000024005
:103C90000004024080B582B002AFFFF7AFFD094BD0
:103CA0001968094B1A68094B1B68586A084B1B684E
:103CB0005B6A009303460748FDF718FA00BFBD464C
:103CC00080BD00BF601D0020641D00203C0300205B
:103CD000CC030020DCDF000880B485B000AF87EDA6
:103CE000030AC7ED020A87ED011A97ED037AD7EDB3
:103CF000027AB4EEE77AF1EE10FA01D5BB680BE078
:103D000097ED037AD7ED017AB4EEE77AF1EE10FA87
:103D100001DD7B6800E0FB6807EE903AB0EE670AD1
:103D20001437BD465DF8047B7047000080B500AFD6
:103D30000B4B4FF000021A600A4B4FF000021A6062
:103D4000094B4FF000021A60084B4FF000021A6056
:103D500001F0FAFE0346064A136000BF80BD00BFB3
:103D60006C1D0020701D0020741D0020781D002097
:103D7000681D002080B588B000AF01F0E5FE386115
:103D80006C4B1B683A69D31A07EE903AB8EE677A23
:103D9000DFED696AC7EE267AC7ED077AD7ED077AB5
:103DA000F5EEC07AF1EE10FA01D8644BFB61614A7E
:103DB0003B691360FDF7CAFC87ED030A97ED037AB0
:103DC000D7ED077A27EE277A5D4BD3ED007A77EEB1
:103DD000277A5B4BC3ED007A594BD3ED007AB1EEF5
:103DE000047AB1EE477AF1EE046AB0EE661AF0EEAC
:103DF000470AB0EE670AFFF76FFFF0EE407A504BCC
:103E0000C3ED007A4F4BD3ED007A97ED037A77EE4E
:103E1000676A97ED077AC6EE877AC7ED027A9FED5B
:103E20004A7A4A4BD3ED007A27EE277ADFED467ABD
:103E3000F7EE006A76EEE76AD7ED027A66EEA77AC9
:103E400077EE277A414BC3ED007A414B93ED007A30
:103E5000D7ED037A27EE277A3E4BD3ED006A384B35
:103E6000D3ED007A66EEA77A37EE277A3A4BD3ED98
:103E7000006A364BD3ED007A66EEA77A77EE277AA2
:103E8000C7ED017A40F23A233B603B6807EE903A77
:103E9000B8EEE77AD7ED017A77EE677AB0EE670A87
:103EA00009F08AF8F0EE407AFDEEE77A17EE903AE4
:103EB000BB613B6807EE903AB8EEE77AD7ED017A3E
:103EC00077EE277AB0EE670A09F076F8F0EE407ADE
:103ED000FDEEE77A17EE903A7B61BB69B3F5966F1A
:103EE00002DD4FF49663BB617B69B3F5966F02DD2B
:103EF0004FF496637B61BB69002B01DA0023BB6141
:103F00007B69002B01DA00237B617B699BB21A4637
:103F100001210020FFF77AFEBB699BB21A460121FE
:103F20000120FFF773FE074AFB68136000BF2037CC
:103F3000BD4680BD681D002000007A446F12833AA0
:103F4000701D00206C1D002007D06F3F741D0020E5
:103F5000080000200C0000201000002080B483B076
:103F600000AF87ED010AD7ED017AF5EEC07AF1EEE8
:103F700010FA02DB4FF07E5300E0054B07EE903A5B
:103F8000B0EE670A0C37BD465DF8047B704700BF92
:103F9000000080BF80B500AF094B4FF000021A60EF
:103FA000084B4FF000021A60074B4FF000021A60F6
:103FB00001F0CAFD0346054A136000BF80BD00BF83
:103FC0007C1D0020801D0020841D0020681D002015
:103FD00080B588B000AF87ED030AC7ED020A7860AC
:103FE00001F0B2FDB8614E4B1B68BA69D31A07EEF7
:103FF000903AB8EE677ADFED4B6AC7EE267AC7EDE6
:10400000077AD7ED077AF5EEC07AF1EE10FA01D80B
:10401000454BFB61424ABB6913607B68002B02D0B1
:104020007B68FA691A6097ED037AD7ED027A77EE2A
:10403000677AC7ED057A97ED057AD7ED077A27EE0F
:10404000277A3A4BD3ED007A77EE277A374BC3EDD8
:10405000007A364BD3ED007AB2EE047AF4EEC77AEA
:10406000F1EE10FA02DD324A304B1A60F2EE047AB9
:10407000B1EE677A2D4BD3ED007AB4EEE77AF1EE2C
:1040800010FA06DDF2EE047AF1EE677A274BC3ED03
:10409000007A284BD3ED007A97ED057A77EE676AC0
:1040A00097ED077AC6EE877AC7ED047A9FED227AFC
:1040B000224BD3ED007A27EE277ADFED1F7AF7EE59
:1040C000006A76EEE76AD7ED047A66EEA77A77EEB5
:1040D000277A1A4BC3ED007A164A7B691360184B96
:1040E00093ED007AD7ED057A27EE277A154BD3EDBD
:1040F000006A0E4BD3ED007A66EEA77A37EE277A88
:10410000114BD3ED006A0D4BD3ED007A66EEA77A22
:1041100077EE277AB0EE670A2037BD4680BD00BF34
:10412000681D002000007A446F12033B7C1D0020B4
:1041300000002041801D00206666663F841D00202F
:10414000080000200C0000201000002080B52DED9C
:10415000028B98B000AF87ED030AB8607960BB6846
:104160003B2B01DC3C23BB60BB68B3F5C87F02DDA1
:104170004FF4C873BB60FFF70DFF4FF00003FB6502
:10418000FB68FB6301F0E0FCB8630023BB6501F052
:10419000DBFC786501F0D8FC78637A6B7B6DD31A11
:1041A00007EE903AB8EE677ADFEDA76AC7EE267A97
:1041B000C7ED147AD7ED147AF5EEC07AF1EE10FA65
:1041C00001D8A24B3B657B6B7B65FDF7F9FAFDF7E8
:1041D000BDFA87ED0C0A97ED0C7AD7ED147A67EEED
:1041E000277A97ED177A77EE277AC7ED177A97ED4A
:1041F0000F7AD7ED177A77EE677AC7ED0B7A944B83
:10420000D3ED007A37EEA77AD7ED0B7AF0EEE77AA6
:1042100067EE277ADFED8F0AB0EE670A08F062FEDC
:10422000F0EE407AB0EE670A08F03EFE87ED0A0A2B
:10423000894BD3ED007AB0EE671ADFED860A97ED71
:104240000A0AFFF749FDB0EE408A97ED0B0AFFF727
:1042500085FEF0EE407A68EE277AC7ED137AD7ED47
:10426000137AB0EEE77A7D4BD3ED007AB4EEE77ABD
:10427000F1EE10FA02D54FF00003FB644FF000039B
:104280003B6107F110031846D7ED0C0A97ED130AAE
:10429000FFF79EFE87ED090AD7ED137AF0EEE77A75
:1042A000F5EEC07AF1EE10FA06DD97ED137ADFED48
:1042B0006C6AC7EE267A01E0DFED667AC7ED087A10
:1042C00097ED087AD7ED097A77EE277AC7ED077A66
:1042D000BB6807EE903AB8EEE77AD7ED077AF0EED2
:1042E000E77AF6EE006A67EEA67A77EE277AC7EDF0
:1042F000067ABB6807EE903AB8EEE77AD7ED077A10
:10430000F0EEE77AF6EE006A67EEA67A77EE277AA5
:10431000C7ED057AD7ED077AF5EEC07AF1EE10FA1F
:1043200006DB002387F84B30012387F84A3005E08D
:10433000012387F84B30002387F84A30D7ED0B7AFA
:10434000B0EEE77A474BD3ED007AB4EEE77AF1EEC0
:1043500010FA22D8D7ED0C7AB0EEE77A424BD3EDC3
:10436000007AB4EEE77AF1EE10FA16D800220121B5
:104370000020FFF74BFC002201210120FFF746FC43
:10438000BB6D002B01D17B6BBB657A6BBB6DD21A09
:10439000364B1B689A4240D34AE00023BB6597ED39
:1043A000050A08F009FEF0EE407AFDEEE77A17EE16
:1043B000903A7B6497ED060A08F0FEFDF0EE407A35
:1043C000FDEEE77A17EE903A3B647B6C002B01DA46
:1043D00000237B647B6CB3F57A7F02DD4FF47A7344
:1043E0007B643B6C002B01DA00233B643B6CB3F530
:1043F0007A7F02DD4FF47A733B647B6C9AB297F854
:104400004B3019460020FFF701FC3B6C9AB297F83D
:104410004A3019460120FFF7F9FB7A6BBB6BD31AC0
:104420007A689A4203D3022001F09AFBB2E600BFF9
:10443000FFF75EFB3C2001F093FB00BF6037BD46F9
:10444000BDEC028B80BD00BF00007A446F12833A3E
:1044500018000020000000001400002028000020A8
:1044600097FFB03F1C000020200000202400002007
:1044700080B500AF00224FF400710B4802F0AEFA95
:1044800000224FF40071094802F0A8FA00224FF40C
:104490008071054802F0A2FA00224FF480710348AF
:1044A00002F09CFA00BF80BD000402400000024000
:1044B00080B588B000AF786007F10C0300221A6065
:1044C0005A609A60DA607B68FB6001233B610723D6
:1044D0007B6107F10C031946154801F029FD0346DD
:1044E000002B01D000231FE00520FEF727F910481C
:1044F00001F09EFB0A210E4801F081FC0C4801F0FE
:1045000009FD0B4801F048FC094801F091FB0A2124
:10451000074801F074FC064801F0FCFC0346FB83ED
:10452000034801F039FCFB8B18462037BD4680BD9F
:104530005402002080B588B000AFFFF799FF052036
:10454000FFF7B6FF0346BB830220FFF7B1FF034628
:10455000FB830420FFF7ACFF03467B810320FFF7BA
:10456000A7FF03463B8101224FF40071614802F02E
:1045700035FA01224FF480715F4802F02FFA3220A1
:10458000FEF7DCF80520FFF793FF0346FB800220CF
:10459000FFF78EFF0346BB80FFF76AFF01224FF44F
:1045A0000071554802F01AFA01224FF48071514807
:1045B00002F014FA5020FEF7C1F80420FFF778FF4C
:1045C00003467B800320FFF773FF03463B80FFF722
:1045D0004FFFFA88BB8B9A4204D9FA88BB8BD31A57
:1045E000BB6101E00023BB61BA88FB8B9A4204D90E
:1045F000BA88FB8BD31A7B6101E000237B617A8848
:104600007B899A4204D97A887B89D31A3B6101E07D
:1046100000233B613A883B899A4204D93A883B8916
:10462000D31AFB6001E00023FB60BB694FF47A7290
:1046300002FB03F3314AA2FB03239B09BB617B69A5
:104640004FF47A7202FB03F32C4AA2FB03239B096B
:104650007B613B694FF47A7202FB03F3274AA2FBAA
:1046600003239B093B61FB684FF47A7202FB03F35F
:10467000224AA2FB03239B09FB60BB699AB2204B31
:104680001A817B699AB21E4B5A803B699AB21C4BC5
:10469000DA80FB689AB21A4B9A800020FFF708FF75
:1046A00003461A46164B1A80154B1B89062B03D856
:1046B000134B5B88062B01D9012300E0002303F094
:1046C0000103DAB20E4B9A720D4BDB880B2B8CBFB9
:1046D00001230023DAB20A4BDA72094B9B880E2BB6
:1046E0008CBF01230023DAB2054B1A7300BF2037B9
:1046F000BD4680BD0004024000000240D34D621060
:1047000070140020B0B58EB000AF4B48FCF7D8FC59
:104710004A4B5B6C03F48073002B03D04848FCF7D2
:10472000CFFC02E04748FCF7CBFC444B1B6B03F08B
:104730000103002B03D04448FCF7C2FC02E04348CD
:10474000FCF7BEFC424B1B6C012B03D14148FCF72C
:10475000B7FC05E03E4B1B6C19463F48FCF7C6FC16
:104760003E48FCF7ADFC3E4B07F120041D460FCD43
:104770000FC42B6823603B4B07F10C041D460FCD83
:104780000FC42B68236000237B634BE07B6B9B0093
:1047900038333B4453F8183C1846FFF789FE03466C
:1047A0001A467B6B5B0038333B4423F8382C7B6B19
:1047B0009B0038333B4453F82C1C7B6B9B003833F5
:1047C0003B4453F8183C002B1FD07B6B9B003833C5
:1047D0003B4453F8183C022B15D07B6B9B003833BD
:1047E0003B4453F8183C032B0BD07B6B9B003833B6
:1047F0003B4453F8183C042B01D1042206E0052267
:1048000004E0032202E0022200E000227B6B5B0056
:1048100038333B4433F8383C1348FCF767FC7B6B78
:1048200001337B637B6B042BB0DD1048FCF748FC45
:1048300000BF3837BD46B0BD54E90008003802401B
:1048400078E9000894E90008B0E90008CCE900081C
:1048500054020020E8E9000800EA000818EA00080D
:1048600048EA000894EA000838EA000830E900083D
:1048700080B483B000AF00237B60104B5B6C0F4AA9
:1048800043F4804353640D4B5B6C03F480437B60C3
:104890007B6800233B60094B1B6C084A43F0805344
:1048A0001364064B1B6C03F080533B603B6800BFF6
:1048B0000C37BD465DF8047B704700BF00380240EE
:1048C00080B58AB000AF786007F1140300221A6047
:1048D0005A609A60DA601A617B681B68174A9342D3
:1048E00027D100233B61164B5B6C154A43F4807360
:1048F0005364134B5B6C03F480733B613B6900238F
:10490000FB600F4B1B6B0E4A43F0010313630C4B10
:104910001B6B03F00103FB60FB683D237B610323FA
:10492000BB610023FB6107F114031946054801F040
:10493000D1FE00BF2837BD4680BD00BF002001402A
:10494000003802400000024080B58AB000AF7860B5
:1049500007F1140300221A605A609A60DA601A6143
:104960007B681B68194A93422CD100233B61184B8A
:104970001B6C174A43F480431364154B1B6C03F400
:1049800080433B613B690023FB60114B1B6B104A6A
:1049900043F0020313630E4B1B6B03F00203FB6037
:1049A000FB684FF460437B610223BB610023FB6122
:1049B00003233B6205237B6207F114031946054874
:1049C00001F088FE00BF2837BD4680BD003800409A
:1049D000003802400004024080B584B000AF786027
:1049E0007B681B68184A934216D10023FB60174B63
:1049F0005B6C164A43F001035364144B5B6C03F089
:104A00000103FB60FB6800220721192001F099FDDA
:104A1000192001F0B2FD12E07B681B680C4A93423A
:104A20000DD10023BB60094B1B6C084A43F0020305
:104A30001364064B1B6C03F00203BB60BB6800BF32
:104A40001037BD4680BD00BF000001400038024065
:104A50000004004080B58CB000AF786007F11C0303
:104A600000221A605A609A60DA601A617B681B68DB
:104A7000B3F1804F4BD10023BB613F4B1B6C3E4ACF
:104A800043F0010313643C4B1B6C03F00103BB6157
:104A9000BB6900237B61384B1B6B374A43F0010332
:104AA0001363354B1B6B03F001037B617B690023B0
:104AB0003B61314B1B6B304A43F0020313632E4BB7
:104AC0001B6B03F002033B613B694FF40043FB6146
:104AD00002233B6200237B620023BB620123FB6253
:104AE00007F11C031946254801F0F4FD0823FB617A
:104AF00002233B6200237B620023BB620123FB6233
:104B000007F11C0319461E4801F0E4FD30E07B6804
:104B10001B681C4A93422BD10023FB60164B1B6C75
:104B2000154A43F004031364134B1B6C03F0040396
:104B3000FB60FB680023BB600F4B1B6B0E4A43F00E
:104B4000020313630C4B1B6B03F00203BB60BB68D7
:104B5000C023FB6102233B6200237B620023BB6214
:104B60000223FB6207F11C031946054801F0B2FD60
:104B700000BF3037BD4680BD003802400000024013
:104B8000000402400008004080B58AB000AF7860A1
:104B900007F1140300221A605A609A60DA601A6101
:104BA0007B681B68334A93421FD100233B61324B21
:104BB0001B6B314A43F0010313632F4B1B6B03F054
:104BC00001033B613B694FF480637B610223BB615E
:104BD0000023FB6100233B6201237B6207F1140386
:104BE0001946264801F076FD40E07B681B68244AA0
:104BF00093423BD10023FB601F4B1B6B1E4A43F0CB
:104C0000010313631C4B1B6B03F00103FB60FB6888
:104C10000023BB60184B1B6B174A43F0020313635E
:104C2000154B1B6B03F00203BB60BB68C0237B61A9
:104C30000223BB610023FB6100233B6202237B62F2
:104C400007F1140319460D4801F044FD03237B616D
:104C50000223BB610023FB6100233B6202237B62D2
:104C600007F114031946074801F034FD00BF283747
:104C7000BD4680BD000001400038024000000240F7
:104C8000000400400004024080B58AB000AF7860A4
:104C900007F1140300221A605A609A60DA601A6100
:104CA0007B681B681D4A934234D100233B611C4B37
:104CB0005B6C1B4A43F020035364194B5B6C03F09D
:104CC00020033B613B690023FB60154B1B6B144ABF
:104CD00043F001031363124B1B6B03F00103FB60F2
:104CE000FB684FF4C0537B610223BB610023FB616F
:104CF00003233B6208237B6207F11403194609482A
:104D000001F0E8FC00220621472001F01AFC4720B0
:104D100001F033FC00BF2837BD4680BD00140140C0
:104D2000003802400000024080B400AF00BFFDE741
:104D300080B400AF00BFFDE780B400AF00BFFDE767
:104D400080B400AF00BFFDE780B400AF00BFFDE757
:104D500080B400AF00BFBD465DF8047B704780B4EF
:104D600000AF00BFBD465DF8047B704780B400AF64
:104D700000BFBD465DF8047B704780B500AF00F012
:104D8000CFFE00BF80BD80B500AF022001F05AFE0B
:104D900000BF80BD80B500AF024803F085FB00BFB7
:104DA00080BD00BFF402002080B500AF4FF48060EA
:104DB00001F048FE00BF80BD80B500AF024804F09E
:104DC000A1FA00BF80BD00BF1404002080B400AF72
:104DD00001231846BD465DF8047B704780B582B05C
:104DE00000AF7860396005F0E5FF034616221A60CF
:104DF0004FF0FF3318460837BD4680BD80B582B0FE
:104E000000AF78604FF0FF317868FFF7E7FF00BF31
:104E1000FDE780B586B000AFF860B9607A60002326
:104E20007B610AE0AFF300800146BB685A1CBA60A0
:104E3000CAB21A707B6901337B617A697B689A42D6
:104E4000F0DB7B6818461837BD4680BD80B586B05C
:104E500000AFF860B9607A6000237B6109E0BB684D
:104E60005A1CBA601B781846AFF300807B69013387
:104E70007B617A697B689A42F1DB7B681846183758
:104E8000BD4680BD80B483B000AF78604FF0FF3383
:104E900018460C37BD465DF8047B704780B483B07C
:104EA00000AF786039603B684FF400525A600023CD
:104EB00018460C37BD465DF8047B704780B483B05C
:104EC00000AF7860012318460C37BD465DF8047BBF
:104ED000704780B485B000AFF860B9607A60002395
:104EE00018461437BD465DF8047B704780B586B020
:104EF00000AF7860144A154BD31A7B617B693B6124
:104F0000134B1B68002B02D1114B124A1A60104B35
:104F10001A687B6813443A699A4207D205F04AFF3F
:104F200003460C221A604FF0FF3309E0084B1B6860
:104F3000FB60074B1A687B681344054A1360FB68E3
:104F400018461837BD4680BD00000220000400004E
:104F5000881D0020F81E002080B400AF064BD3F857
:104F60008830054A43F47003C2F8883000BFBD465C
:104F70005DF8047B704700BF00ED00E080B582B0B3
:104F800000AF03460A46FB711346BB71FB79002B49
:104F900014BF01230023DBB21A461021084801F098
:104FA0001DFDBB79002B14BF01230023DBB21A4681
:104FB0002021034801F012FD00BF0837BD4680BD27
:104FC0000004024080B582B000AF00237B6010E097
:104FD00000210120FFF7D2FF962000F0C1FD012142
:104FE0000020FFF7CBFF962000F0BAFD7B6801336D
:104FF0007B607B68022BEBDD00210020FFF7BEFF0A
:1050000000BF0837BD4680BD80B500AF002101203C
:10501000FFF7B4FF00BF80BD80B500AF01210020C5
:10502000FFF7ACFF00BF80BD80B582B000AF0023AA
:105030007B6010E001210120FFF7A0FFC82000F0F5
:105040008FFD00210020FFF799FFC82000F088FDA8
:105050007B6801337B607B68042BEBDD00BF00BF06
:105060000837BD4680BD80B582B000AF00237B60AD
:1050700010E001210120FFF781FF322000F070FDD8
:1050800000210020FFF77AFF322000F069FD7B68E5
:1050900001337B607B68092BEBDD00BF00BF083765
:1050A000BD4680BD80B483B000AF78607B68032BC1
:1050B00012D801A252F823F0C9500008CD500008C0
:1050C000D1500008D5500008074B06E0074B04E01C
:1050D000074B02E0074B00E0074B18460C37BD4674
:1050E0005DF8047B704700BF64EB00086CEB0008C0
:1050F00074EB00087CEB000884EB000880B582B0FC
:1051000000AF0123FB711A4B1B8840F6B732934264
:1051100006D81848FBF7D4FFFBF7B7FF0023FB7155
:10512000134B1B89002B10D1114B5B88002B0CD12A
:105130000F4BDB88002B08D10D4B9B88002B04D133
:105140000D48FBF7BDFF0023FB717520FCF79AF9B2
:105150000346BB71BB79712B04D00848FBF7B0FF45
:105160000023FB71FB7918460837BD4680BD00BFA0
:10517000701400208CEB0008B0EB0008D8EB00089E
:1051800080B485B000AFF860B9607A60FA68BB6837
:105190009A4205DBFA687B689342A8BF134600E099
:1051A000BB6818461437BD465DF8047B70470000A5
:1051B00080B5A0B000AF78603960B04B3B66B04BB3
:1051C000FB65B04BBB65B04B7B6500233B650A2399
:1051D000FB640C23BB6496237B647B683B644FF4C5
:1051E000FA73FB634FF00003FB674FF00003BB67EC
:1051F00000F0AAFCB86300237B6700F0A5FC3867C9
:10520000002201210020FEF701FD002201210120E2
:10521000FEF7FCFC00F098FC78637A6B3B6FD31AC6
:1052200007EE903AB8EE677ADFED986AC7EE267A15
:10523000C7ED1B7AD7ED1B7AF5EEC07AF1EE10FAC6
:1052400001D8934BFB667B6B3B67FFF773F9914B80
:105250001B893B638F4B5B88FB623B6B503BBB62A4
:10526000FB6A503B7B62BA6A7B6A134407EE903A52
:10527000F8EEE77AB6EE007A67EE877AC7ED087A3D
:10528000BA6A7B6AD21A3B6D134407EE903AF8EE85
:10529000E77AC7ED077A97ED087AD7ED1B7A67EEC4
:1052A000277A97ED1F7A77EE277AC7ED1F7A97ED69
:1052B000077AD7ED1B7A67EE277A97ED1E7A77EE9D
:1052C000277AC7ED1E7AD7ED1F7A9FED737AF4EE39
:1052D000C77AF1EE10FA01DD704BFB67D7ED1F7A4C
:1052E0009FED6F7AF4EEC77AF1EE10FA01D56D4BAF
:1052F000FB67D7ED1E7A9FED687AF4EEC77AF1EE80
:1053000010FA01DD654BBB67D7ED1E7A9FED647A1D
:10531000F4EEC77AF1EE10FA01D5624BBB6797ED58
:10532000187AD7ED087A27EE277AD7ED176AD7EDE6
:105330001F7A66EEA77A77EE277AC7ED067A97EDA1
:10534000167AD7ED077A27EE277AD7ED156AD7EDCB
:105350001E7A66EEA77A77EE277AC7ED057AD7ED43
:10536000067AB1EE677AD7ED057A77EE677AB0EE16
:10537000670A07F0F1FDB86697ED057AD7ED067A72
:1053800077EE677AB0EE670A07F0E6FD78663B6C69
:105390005B423A6C1946B86EFFF7F2FEB8663B6C9A
:1053A0005B423A6C1946786EFFF7EAFE786697ED35
:1053B000080A07F0D1FD0346002BB8BF5B42FA6C28
:1053C0009A42ACBF01230023FB7497ED070A07F054
:1053D000C3FD0346002BB8BF5B42BA6C9A42ACBF18
:1053E00001230023BB74FB7C002B04D0BB7C002B6F
:1053F00001D0012300E000237B747B7C03F00103D8
:105400007B747B7C83F00103DBB2002B28D0BB6E66
:10541000002B05DDBA6EFB6B9A4201DAFB6BBB66B3
:10542000BB6E002B07DABB6E5B42FA6B9A4202DD61
:10543000FB6B5B42BB667B6E002B05DD7A6EFB6B04
:105440009A4201DAFB6B7B667B6E002B0CDA7B6E7B
:105450005B42FA6B9A4207DDFB6B5B427B6603E0C3
:105460000023BB6600237B66BB6E002B1CD17B6ECA
:10547000002B19D1FEF73CFB34E000BF0000F041E7
:105480009A99993E00002841CDCCCC3D00007A4449
:105490006F12833A701400200000C8420000C84216
:1054A0000000C8C20000C8C2BB6EDB43DB0F3B7408
:1054B0007B6EDB43DB0FFB73BB6E002BB8BF5B4225
:1054C000BB817B6E002BB8BF5B427B81BA893B7C82
:1054D00019460020FEF79AFB7A89FB7B19460120CA
:1054E000FEF794FB7B7C002B0ED07B6F002B01D151
:1054F0007B6B7B677A6B7B6FD31A7A6C9A4205D889
:10550000FEF7F6FA01230BE000237B677A6BBB6B97
:10551000D31A3A689A42BFF47DAEFEF7E9FA002347
:1055200018468037BD4680BD80B48BB000AFF860B0
:10553000B9607A603B60BB681B68FA689A4203DB1B
:105540007B68D3ED007A6BE03B6803F18043013B5D
:105550009B00BA6813441B68FA689A4209DC3B68EE
:1055600003F18043013B9B007A681344D3ED007A3A
:1055700056E000237B6245E07B6A9B00BA681344D7
:105580001B683B627B6A01339B00BA6813441B684B
:10559000FB61FA683B6A9A4231DCFA68FB699A421D
:1055A0002DDBFA68FB69D31A07EE903AF8EEE76A4A
:1055B0003A6AFB69D31A07EE903AB8EEE77AC6EE7C
:1055C000877AC7ED067A7B6A9B007A6813441B686A
:1055D0007B617B6A01339B007A6813441B683B61E3
:1055E00097ED057AD7ED047A37EE677AD7ED067A2C
:1055F00027EE277AD7ED047A77EE277A10E07B6AD8
:1056000001337B623B68013B7A6A9A42B4DB3B68B8
:1056100003F18043013B9B007A681344D3ED007A89
:10562000B0EE670A2C37BD465DF8047B704780B446
:1056300085B000AFF860B9607A60FA68BB689A42DA
:1056400005DBFA687B689342A8BF134600E0BB689D
:1056500018461437BD465DF8047B704780B485B0AA
:1056600000AF87ED030AC7ED020A87ED011A97ED37
:10567000037AD7ED027AB4EEE77AF1EE10FA01D5AB
:10568000BB680BE097ED037AD7ED017AB4EEE77AC9
:10569000F1EE10FA01DD7B6800E0FB6807EE903A5E
:1056A000B0EE670A1437BD465DF8047B7047000012
:1056B00080B582B000AF786039607B68012B06D07E
:1056C0007B68022B01D1022302E0002300E00123CA
:1056D0000D4A13700D4A3B6813600D4B4FF00002EA
:1056E0001A600C4B4FF000021A600B4B4FF0000297
:1056F0001A6000F029FA0346084A1360FEF71AFF01
:1057000000BF0837BD4680BD901D0020300000203E
:10571000941D0020981D00209C1D0020A01D00202D
:1057200080B58CB000AFFEF705FF00F00DFAF86110
:10573000A64B1B68FA69D31A07EE903AB8EE677A5F
:10574000DFEDA36AC7EE267AC7ED0B7AD7ED0B7AA9
:10575000F5EEC07AF1EE10FA01D89E4BFB629B4A3F
:10576000FB6913609C4BDB7AFB769B4B1B7BBB7608
:10577000994B9B7A7B76994B1B78002B1AD1FB7E39
:10578000002B06D0BB7E002B03D0944B00221A7056
:1057900010E0FB7E002B03D0904B01221A7009E031
:1057A000BB7E002B03D08D4B02221A7002E08B4B84
:1057B00000221A704FF00003BB62874BDB8818464B
:1057C0002023874A8749FFF7AFFE87ED050A824B02
:1057D0009B8818462123844A8449FFF7A5FE87ED5C
:1057E000040AFB7E002B0CD0BB7E002B09D0804B23
:1057F00093ED007AD7ED057A77EE677AC7ED0A7AEE
:105800001CE0FB7E002B09D0794B93ED007AD7ED9D
:10581000057A77EE677AC7ED0A7A0FE0BB7E002B38
:1058200009D0744BD3ED007A97ED047A77EE677A5E
:10583000C7ED0A7A02E04FF00003BB6297ED0A7AE7
:10584000D7ED0B7A27EE277A6B4BD3ED007A77EE04
:10585000277A694BC3ED007A674B93ED007A674B6B
:10586000D3ED007AF1EE677A644BD3ED006AB0EEC7
:10587000661AF0EE670AB0EE470AFFF7EFFEF0EEA9
:10588000407A5D4BC3ED007A5D4BD3ED007A97ED26
:105890000A7A77EE676A97ED0B7AC6EE877AC7EDDC
:1058A000037A584B93ED007A574BD3ED007A27EEED
:1058B000277A544BD3ED007AF7EE006A76EEE76A6A
:1058C000D7ED037A66EEA77A77EE277A4E4BC3EDD3
:1058D000007A4E4B93ED007AD7ED0A7A27EE277ABD
:1058E0004B4BD3ED006A444BD3ED007A66EEA77ABA
:1058F00037EE277A474BD3ED006A434BD3ED007A5E
:1059000066EEA77A77EE277AC7ED027A424BD3ED9F
:10591000007A97ED027A67EE277AC7ED017A384A66
:10592000BB6A13603D4B1B683B603B6807EE903AD7
:10593000B8EEE77AD7ED017A77EE677AB0EE670ACC
:1059400007F00AFB364B1B681A460021FFF76FFE73
:1059500078623B6807EE903AB8EEE77AD7ED017AC5
:1059600077EE277AB0EE670A07F0F6FA2C4B1B6841
:105970001A460021FFF75BFE38627B6A002B07DDC9
:10598000284B1B687A6A9A4202DA264B1B687B62B4
:105990003B6A002B07DD234B1B683A6A9A4202DA06
:1059A000204B1B683B623B6A9BB21A4601210020D8
:1059B000FEF72CF97B6A9BB21A4601210120FEF703
:1059C00025F900BF3037BD4680BD00BFA01D0020B7
:1059D00000007A446F12833A70140020901D00205A
:1059E000DCED00085CED0008D8EC000854EC000881
:1059F0005000002054000020941D0020480000208A
:105A0000981D0020440000209C1D00203C00002028
:105A10008C1D0020400000204C00002030000020A1
:105A20003800002034000020DFF834D0FFF794FA6B
:105A30000C480D490D4A002302E0D458C4500433E9
:105A4000C4188C42F9D30A4A0A4C002301E01360BF
:105A50000432A242FBD305F0B3F9FCF713F9704707
:105A6000000002200000002028020020E4F10008CD
:105A700028020020F41E0020FEE7000080B500AFE1
:105A80000E4B1B680D4A43F4007313600B4B1B68ED
:105A90000A4A43F480631360084B1B68074A43F4C7
:105AA00080731360032000F041FD0F2000F008F820
:105AB000FEF7DEFE0023184680BD00BF003C02401A
:105AC00080B582B000AF7860124B1A68124B1B7819
:105AD00019464FF47A73B3FBF1F3B2FBF3F31846B4
