:020000040800F2
:10000000000002206D5B00083957000841570008C6
:1000100049570008515700085957000800000000D0
:100020000000000000000000000000006157000810
:100030006F570008000000007D5700088B5700082C
:10004000BD5B0008BD5B0008BD5B0008BD5B000830
:10005000BD5B0008BD5B0008BD5B0008975700084A
:10006000BD5B0008BD5B0008BD5B0008BD5B000810
:10007000BD5B0008BD5B0008BD5B0008BD5B000800
:10008000BD5B0008BD5B0008BD5B00080000000010
:10009000000000000000000000000000BD5B000840
:1000A000BD5B0008A5570008BD5B0008BD5B0008EC
:1000B000BD5B0008BD5B0008BD5B0008BD5B0008C0
:1000C000BD5B0008BD5B0008BD5B0008BD5B0008B0
:1000D000BD5B0008BD5B0008BD5B000800000000C0
:1000E000B9570008BD5B0008BD5B000800000000B8
:1000F000000000000000000000000000BD5B0008E0
:1001000000000000BD5B0008BD5B0008BD5B00088F
:1001100000000000000000000000000000000000DF
:10012000BD5B0008BD5B0008BD5B0008BD5B00084F
:10013000BD5B00080000000000000000000000009F
:10014000000000000000000000000000BD5B00088F
:10015000BD5B0008BD5B0008BD5B0008C957000817
:10016000BD5B0008BD5B000800000000000000004F
:10017000000000000000000000000000000000007F
:1001800000000000BD5B000800000000000000004F
:08019000BD5B0008BD5B000827
:1001A00010B5054C237833B9044B13B10448AFF3B1
:1001B00000800123237010BDF40100200000000026
:1001C000D0CF000808B5034B1BB103490348AFF378
:1001D000008008BD00000000F8010020D0CF00081A
:1001E00001F0FF01102A2BDB10F0070F08D010F8E8
:1001F000013B013A8B422DD010F0070F42B3F6D1EC
:10020000F0B441EA012141EA014122F007047FF004
:1002100000070023F0E80256083C85EA010586EA5B
:10022000010685FA47F5A3FA87F586FA47F6A5FA97
:1002300087F68EB9EED1F0BC01F0FF0102F00702A3
:1002400032B110F8013B013A83EA010313B1F8D14E
:100250000020704701387047002D06BF354603382F
:10026000073815F0010F07D1013015F4807F02BF68
:10027000013015F4C03F0130F0BC0138704700BFB9
:10028000034613F8012B002AFBD1181A01387047D6
:1002900081F0004102E000BF83F0004330B54FEA37
:1002A00041044FEA430594EA050F08BF90EA020FA4
:1002B0001FBF54EA000C55EA020C7FEA645C7FEA37
:1002C000655C00F0E2804FEA5454D4EB5555B8BF5A
:1002D0006D420CDD2C4480EA020281EA030382EACB
:1002E000000083EA010180EA020281EA0303362D5D
:1002F00088BF30BD11F0004F4FEA01314FF4801C30
:100300004CEA113102D0404261EB410113F0004F41
:100310004FEA03334CEA133302D0524263EB4303F8
:1003200094EA050F00F0A780A4F10104D5F1200E96
:100330000DDB02FA0EFC22FA05F2801841F10001F1
:1003400003FA0EF2801843FA05F359410EE0A5F1C5
:1003500020050EF1200E012A03FA0EFC28BF4CF0F6
:10036000020C43FA05F3C01851EBE37101F00045AC
:1003700007D54FF0000EDCF1000C7EEB00006EEBB9
:100380000101B1F5801F1BD3B1F5001F0CD3490843
:100390005FEA30004FEA3C0C04F101044FEA44529A
:1003A00012F5800F80F09A80BCF1004F08BF5FEA21
:1003B000500C50F1000041EB045141EA050130BD01
:1003C0005FEA4C0C404141EB0101013C28BFB1F513
:1003D000801FE9D291F0000F04BF01460020B1FA5E
:1003E00081F308BF2033A3F10B03B3F120020CDA31
:1003F0000C3208DD02F1140CC2F10C0201FA0CF00F
:1004000021FA02F10CE002F11402D8BFC2F1200C73
:1004100001FA02F120FA0CFCDCBF41EA0C01904029
:10042000E41AA2BF01EB0451294330BD6FEA040472
:100430001F3C1CDA0C340EDC04F11404C4F120025D
:1004400020FA04F001FA02F340EA030021FA04F36F
:1004500045EA030130BDC4F10C04C4F1200220FAC6
:1004600002F001FA04F340EA0300294630BD21FA04
:1004700004F0294630BD94F0000F83F4801306BFCA
:1004800081F480110134013D4EE77FEA645C18BFBE
:100490007FEA655C29D094EA050F08BF90EA020F55
:1004A00005D054EA000C04BF1946104630BD91EA4D
:1004B000030F1EBF0021002030BD5FEA545C05D150
:1004C0004000494128BF41F0004130BD14F580048F
:1004D0003CBF01F5801130BD01F0004545F0FE4103
:1004E00041F470014FF0000030BD7FEA645C1ABF38
:1004F000194610467FEA655C1CBF0B46024650EA6F
:10050000013406BF52EA033591EA030F41F400219A
:1005100030BD00BF90F0000F04BF0021704730B520
:100520004FF4806404F132044FF000054FF00001F5
:1005300050E700BF90F0000F04BF0021704730B5B6
:100540004FF4806404F1320410F0004548BF40428B
:100550004FF000013EE700BF42004FEAE2014FEAE0
:1005600031014FEA02701FBF12F07F4393F07F4FBB
:1005700081F06051704732F07F4208BF704793F0BE
:100580007F4F04BF41F40021704730B54FF46074D1
:1005900001F0004521F000411CE700BF50EA0102D4
:1005A00008BF704730B54FF000050AE050EA01027D
:1005B00008BF704730B511F0004502D5404261EBED
:1005C00041014FF4806404F132045FEA915C3FF42E
:1005D000D8AE4FF003025FEADC0C18BF03325FEACB
:1005E000DC0C18BF033202EBDC02C2F1200300FA7C
:1005F00003FC20FA02F001FA03FE40EA0E0021FAA1
:1006000002F11444BDE600BF70B54FF0FF0C4CF48E
:10061000E06C1CEA11541DBF1CEA135594EA0C0F40
:1006200095EA0C0F00F0DEF82C4481EA030621EA7B
:100630004C5123EA4C5350EA013518BF52EA0335B6
:1006400041F4801143F4801338D0A0FB02CE4FF068
:100650000005E1FB02E506F00042E0FB03E54FF098
:100660000006E1FB03569CF0000F18BF4EF0010E90
:10067000A4F1FF04B6F5007F64F5407404D25FEA8C
:100680004E0E6D4146EB060642EAC62141EA55513F
:100690004FEAC52040EA5E504FEACE2EB4F1FD0C81
:1006A00088BFBCF5E06F1ED8BEF1004F08BF5FEAFF
:1006B000500E50F1000041EB045170BD06F00046B1
:1006C00046EA010140EA020081EA0301B4EB5C045E
:1006D000C2BFD4EB0C0541EA045170BD41F4801156
:1006E0004FF0000E013C00F3AB8014F1360FDEBF7B
:1006F000002001F0004170BDC4F10004203C35DA57
:100700000C341BDC04F11404C4F1200500FA05F3D9
:1007100020FA04F001FA05F240EA020001F000427A
:1007200021F0004110EBD37021FA04F642EB0601F0
:100730005EEA430E08BF20EAD37070BDC4F10C041A
:10074000C4F1200500FA04F320FA05F001FA04F2DE
:1007500040EA020001F0004110EBD37041F10001CA
:100760005EEA430E08BF20EAD37070BDC4F12005D5
:1007700000FA05F24EEA020E20FA04F301FA05F23D
:1007800043EA020321FA04F001F0004121FA04F2E5
:1007900020EA020000EBD3705EEA430E08BF20EAB5
:1007A000D37070BD94F0000F0FD101F000464000EF
:1007B00041EB010111F4801F08BF013CF7D041EA71
:1007C000060195F0000F18BF704703F00046520075
:1007D00043EB030313F4801F08BF013DF7D043EA46
:1007E0000603704794EA0C0F0CEA135518BF95EAFC
:1007F0000C0F0CD050EA410618BF52EA4306D1D183
:1008000081EA030101F000414FF0000070BD50EAA1
:10081000410606BF1046194652EA430619D094EA2B
:100820000C0F02D150EA013613D195EA0C0F05D115
:1008300052EA03361CBF104619460AD181EA030169
:1008400001F0004141F0FE4141F470014FF0000021
:1008500070BD41F0FE4141F4780170BD70B54FF0BC
:10086000FF0C4CF4E06C1CEA11541DBF1CEA13553C
:1008700094EA0C0F95EA0C0F00F0A7F8A4EB05041E
:1008800081EA030E52EA03354FEA013100F0888015
:100890004FEA03334FF0805545EA131343EA1263DE
:1008A0004FEA022245EA111545EA10654FEA002693
:1008B0000EF000419D4208BF964244F1FD0404F54C
:1008C000407402D25B084FEA3202B61A65EB0305A8
:1008D0005B084FEA32024FF480104FF4002CB6EB65
:1008E000020E75EB030E22BFB61A754640EA0C00E5
:1008F0005B084FEA3202B6EB020E75EB030E22BF25
:10090000B61A754640EA5C005B084FEA3202B6EB65
:10091000020E75EB030E22BFB61A754640EA9C0024
:100920005B084FEA3202B6EB020E75EB030E22BFF4
:10093000B61A754640EADC0055EA060E18D04FEAB2
:10094000051545EA16754FEA06164FEAC30343EA52
:1009500052734FEAC2025FEA1C1CC0D111F4801F1F
:100960000BD141EA00014FF000004FF0004CB6E718
:1009700011F4801F04BF01430020B4F1FD0C88BFB7
:10098000BCF5E06F3FF6AFAEB5EB030C04BFB6EBC2
:10099000020C5FEA500C50F1000041EB045170BDB5
:1009A0000EF0004E4EEA113114EB5C04C2BFD4EBE2
:1009B0000C0541EA045170BD41F480114FF0000E66
:1009C000013C90E645EA060E8DE60CEA135594EAE2
:1009D0000C0F08BF95EA0C0F3FF43BAF94EA0C0FE5
:1009E0000AD150EA01347FF434AF95EA0C0F7FF45A
:1009F00025AF104619462CE795EA0C0F06D152EAAE
:100A000003353FF4FDAE1046194622E750EA410691
:100A100018BF52EA43067FF4C5AE50EA41047FF4A2
:100A20000DAF52EA43057FF4EBAE12E74FF0FF3C07
:100A300006E000BF4FF0010C02E000BF4FF0010CD8
:100A40004DF804CD4FEA410C7FEA6C5C4FEA430C51
:100A500018BF7FEA6C5C1BD001B050EA410C0CBFA0
:100A600052EA430C91EA030F02BF90EA020F002002
:100A7000704710F1000F91EA030F58BF994208BF69
:100A800090422CBFD8176FEAE37040F00100704726
:100A90004FEA410C7FEA6C5C02D150EA013C07D17D
:100AA0004FEA430C7FEA6C5CD6D152EA033CD3D0C8
:100AB0005DF8040B704700BF8446104662468C46C2
:100AC0001946634600E000BF01B5FFF7B7FF0028F5
:100AD00048BF10F1000F01BD4DF808EDFFF7F4FF1E
:100AE0000CBF012000205DF808FB00BF4DF808EDA9
:100AF000FFF7EAFF34BF012000205DF808FB00BFCC
:100B00004DF808EDFFF7E0FF94BF012000205DF8ED
:100B100008FB00BF4DF808EDFFF7CEFF94BF0120A2
:100B200000205DF808FB00BF4DF808EDFFF7C4FF9B
:100B300034BF012000205DF808FB00BF4FEA410CE4
:100B40007FEA6C5C02D150EA013C0AD14FEA430CC7
:100B50007FEA6C5C02D152EA033C02D14FF0000004
:100B600070474FF0010070474FEA410212F5001242
:100B700015D211D56FF47873B3EB625212D94FEAE4
:100B8000C12343F0004343EA505311F0004F23FACE
:100B900002F018BF404270474FF00000704750EA23
:100BA000013005D111F0004008BF6FF000407047E0
:100BB0004FF00000704700BF53B94AB9002908BF81
:100BC00000281CBF4FF0FF314FF0FF3000F088B914
:100BD000ADF1080C6DE904CE00F006F8DDF804E094
:100BE000DDE9022304B070472DE9F047089D8E46E9
:100BF00004468846002B4AD18A42174662D9B2FA87
:100C000082F64EB1C6F1200301FA06F820FA03F38A
:100C1000B74043EA0808B4404FEA174E1FFA87FC72
:100C2000B8FBFEF1230C0EFB118843EA084301FBDD
:100C30000CF29A4209D9FB1801F1FF3080F0EA80EA
:100C40009A4240F2E78002393B449A1AA3B2B2FBBF
:100C5000FEF00EFB102243EA024300FB0CFC9C4515
:100C600009D9FB1800F1FF3280F0D6809C4540F294
:100C7000D3803B44023840EA0140A3EB0C0300213F
:100C80001DB1F3400022C5E90032BDE8F0878B4278
:100C900005D90DB1C5E9000100210846F5E7B3FA11
:100CA00083F1002946D1734502D3824200F20581C7
:100CB000841A6EEB030201209046002DE5D0C5E9B1
:100CC0000048E2E7002A00F09080B2FA82F6002E97
:100CD00040F0A4808A1A030C4FEA174E80B2BCB2CF
:100CE0000121B2FBFEFC0EFB1C2243EA024304FB83
:100CF0000CF29A4207D9FB180CF1FF3802D29A4243
:100D000000F2E080C4469B1AB3FBFEF20EFB1233E6
:100D100040EA034302FB04F49C4207D9FB1802F1AA
:100D2000FF3002D29C4200F2CA8002461B1B42EAFC
:100D30000C40A5E7C1F120068B4022FA06F71F43BD
:100D40000EFA01F420FA06F32EFA06FE4FEA1749CE
:100D5000234300FA01F81FFA87FCBEFBF9F01C0CD4
:100D600009FB10EE44EA0E4400FB0CFEA64502FA15
:100D700001F209D93C1900F1FF3A80F09C80A645A8
:100D800040F2998002383C44A4EB0E041FFA83FE23
:100D9000B4FBF9F309FB13444EEA044403FB0CFCD7
:100DA000A44508D93C1903F1FF3E80F08280A44598
:100DB0007FD9023B3C4443EA0040A4EB0C04A0FB77
:100DC00002EC64457346E14662D35FD05DB1B8EB97
:100DD000030264EB090404FA06F622FA01F31E4347
:100DE000CC40C5E9006400214FE7B1FBF2FC010CE7
:100DF00041EA0E4180B240EA01423B4638463C4659
:100E0000B846BE462026B1FBF7F1A2EB080241EA44
:100E10000C4166E7014618E710462CE7C6F12002B0
:100E20002EFA02F3B740B14020FA02F24FEA174E11
:100E30000A43B3FBFEF8BCB20EFB1833110C41EAB7
:100E4000034108FB04F9B04089454FEA104380B2E2
:100E50003ED9791808F1FF3C01D289451FD8A1EB92
:100E60000901B1FBFEF909FB04F80EFB191192B25E
:100E700042EA0142424529D2BA1809F1FF31C4D2EF
:100E80004245C2D2A9F102013A44BEE7F0459DD2E3
:100E9000BEEB02036CEB070C0138E14696E7A7EBCB
:100EA00009094944A8F1020CB1FBFEF909FB04F859
:100EB000DBE773467FE7504666E70846FDE63B44BE
:100EC000023A33E7ACF1020C3B441CE749469CE78D
:100ED000A1EB0901C446B1FBFEF909FB04F8C4E724
:100EE000704700BF80B584B000AF03460A46FB8060
:100EF0001346BB80FB88002B06D100F037F8BB8877
:100F0000184604F0CFFE2AE0FB88164A92FBF3F362
:100F1000FB60FB68B3F5803F02D34FF6FF73FB60C5
:100F2000FB68132B01D81423FB600F4B1B68FA6876
:100F3000013ADA62FB68013B0B4AD3600A4B1B683B
:100F4000FA685208DA630821074807F007F9BB88F6
:100F5000184604F0A7FE0821034807F0AFF9103740
:100F6000BD4680BD00093D00F402002080B500AF01
:100F70000821024807F0A2F900BF80BDF40200205A
:100F800080B500AFC82140F20B20FFF7ABFF322144
:100F90000020FFF7A7FFC82140F29320FFF7A2FF30
:100FA00032210020FFF79EFF4FF496714FF44470FA
:100FB000FFF798FF00BF80BD80B500AF96214FF4CA
:100FC0004470FFF78FFF32210020FFF78BFFC8210D
:100FD00040F21740FFF786FF00BF80BD80B500AF2D
:100FE000642140F20B20FFF77DFF642140F2932043
:100FF000FFF778FF64214FF44470FFF773FFC821B7
:1010000040F21740FFF76EFF64210020FFF76AFFF0
:10101000642140F21740FFF765FF64214FF44470EC
:10102000FFF760FF4FF4967140F21740FFF75AFF49
:1010300000BF80BD80B582B000AF00237B600AE0B6
:10104000C821DC20FFF74EFF64210020FFF74AFF94
:101050007B6801337B607B68022BF1DD00BF00BF42
:101060000837BD4680BD000080B5ADF5036D00AF0B
:10107000634800F04DFC0023C7F82C381DE0002326
:10108000C7F8283810E05F49D7F82C381A01D7F88C
:10109000283813441B010B4442F20F721A60D7F830
:1010A00028380133C7F82838D7F828380F2BEADD5D
:1010B000D7F82C380133C7F82C38D7F82C380F2B39
:1010C000DDDD002387F827384F4B1A684F4B1B682C
:1010D0004C49120113441B010B4404331B78002BB1
:1010E00015D0494B1A68494B1B68464912011344F5
:1010F0001B010B4400221A60012387F82738424B5A
:101100001B68424A12681946414800F017FC414BDF
:101110001A683E4B1B683B49120113441B010B44E8
:1011200004331B78002B15D03A4B1A68374B1B68D9
:101130003449120113441B010B4400221A6001239D
:1011400087F82738334B1B68304A126819463048F5
:1011500000F0F4FB2C4B1A682F4B1B682949120135
:1011600013441B010B4404331B78002B15D0264B72
:101170001A68294B1B682349120113441B010B44B5
:1011800000221A60012387F827381F4B1B68224A68
:10119000126819461E4800F0D1FB1E4B1A681E4B00
:1011A0001B681849120113441B010B4404331B78BC
:1011B000002B15D0174B1A68174B1B6811491201E9
:1011C00013441B010B4400221A60012387F82738BF
:1011D000104B1B68104A126819460D4800F0AEFB10
:1011E00097F8273883F00103DBB2002B1AD00B48A5
:1011F00000F08EFB0A4B42F20F721A60BAE100BF98
:10120000E8CF00085C040020ECFB0008F0FB0008BD
:1012100024D00008F4FB0008F8FB000840D00008C8
:10122000AC1400200023C7F820380023C7F81C386E
:10123000B84B1A68B84B1B68B849120113441B011C
:101240000B4404331B78002B22D0B24B1A68B24BEC
:101250001B68B249120113441B010B441B68002B8D
:1012600016D1AC4B196807F50363A3F58663D7F86D
:101270001C2843F82210D7F81C385A1CC7F81C2821
:10128000A54A116807F50362A2F5036242F823102C
:10129000A34B1A68A04B1B68A049120113441B0101
:1012A0000B4404331B78002B22D09D4B1A689A4BB9
:1012B0001B689A49120113441B010B441B68002B45
:1012C00016D1974B196807F50363A3F58663D7F822
:1012D0001C2843F82210D7F81C385A1CC7F81C28C1
:1012E0008D4A116807F50362A2F5036242F82310E4
:1012F000884B1A688B4B1B688849120113441B01E9
:101300000B4404331B78002B22D0824B1A68854B88
:101310001B688249120113441B010B441B68002BFC
:1013200016D17C4B196807F50363A3F58663D7F8DC
:101330001C2843F82210D7F81C385A1CC7F81C2860
:10134000784A116807F50362A2F5036242F8231098
:10135000734B1A68734B1B687049120113441B01CD
:101360000B4404331B78002B22D06D4B1A686D4B55
:101370001B686A49120113441B010B441B68002BB4
:1013800016D1674B196807F50363A3F58663D7F891
:101390001C2843F82210D7F81C385A1CC7F81C2800
:1013A000604A116807F50362A2F5036242F8231050
:1013B0000023C7F81838C7E007F50363A3F5866371
:1013C000D7F8202853F82230C7F81038D7F820383B
:1013D0005A1CC7F8202807F50362A2F5036252F8E9
:1013E0002330C7F80C380023C7F81438A7E04E4A5A
:1013F000D7F8143852F82330D7F810281344C7F818
:1014000008384A4AD7F8143852F82330D7F80C284D
:101410001344C7F80438D7F80838002BC0F28A8084
:10142000D7F808380F2B00F38580D7F80438002B45
:10143000C0F28080D7F804380F2B7BDC3749D7F80F
:1014400008381A01D7F8043813441B010B4404333D
:101450001B78002B6ED03149D7F810381A01D7F815
:101460000C3813441B01CA18D7F814381344053339
:101470001B7883F00103DBB2002B5BD02749D7F840
:1014800010381A01D7F80C3813441B010B441B68A1
:101490000133C7F800382149D7F808381A01D7F8BE
:1014A000043813441B010B441B68D7F800289A42E8
:1014B00040DA1A49D7F808381A01D7F80438134423
:1014C0001B010B44D7F800281A60D7F81C38FE2BF4
:1014D0001CDC07F50363A3F58663D7F81C28D7F84F
:1014E000081843F82210D7F81C385A1CC7F81C28D3
:1014F00007F50362A2F50362D7F8041842F8231037
:10150000D7F818380133C7F8183813E0084800F046
:10151000FFF919E0ECFB0008F0FB00085C04002078
:10152000F4FB0008F8FB0008CCFB0008DCFB00081B
:101530007CD00008D7F814380133C7F81438D7F82E
:101540001438032B7FF753AFD7F82028D7F81C386F
:101550009A42FFF631AF094B1B68094A1360084BEA
:101560001B681946074800F0E9F9D7F8181806482B
:1015700000F0E4F907F50367BD4680BD5C04002078
:10158000AC14002090D00008D0D0000880B586B000
:1015900000AF724800F0BCF900237B614FF4807308
:1015A000BB6000233B6119E00023FB6010E06C4945
:1015B0003B691A01FB6813441B010B4404331B787D
:1015C000002B02D07B6901337B61FB680133FB6038
:1015D000FB680F2BEBDD3B6901333B613B690F2B54
:1015E000E2DD7B6907EE903AF8EEE76ABB6807EE4A
:1015F000903AB8EEE77AC6EE877A9FED5A7A67EEB0
:10160000877AC7ED017A584800F082F97868FEF7CA
:10161000A3FF02460B46554800F090F9BA68796975
:10162000534800F08BF9534B1B681946524800F0A1
:1016300085F9524800F06CF9514B1B6842F20E726A
:1016400093420CDC4E4B1B6819464E4800F076F96D
:101650004D4800F05DF94D4800F05AF905E04C485E
:1016600000F056F94B4800F053F94B4800F050F9A0
:10167000D7ED017A9FED497AF4EEC77AF1EE10FAD0
:101680000CD83F4B1B6842F20E72934206DC444872
:1016900000F03EF9434800F03BF925E0D7ED017A30
:1016A0009FED417AF4EEC77AF1EE10FA06D83F4882
:1016B00000F02EF93E4800F02BF915E0D7ED017A45
:1016C0009FED3C7AF4EEC77AF1EE10FA06D83A486C
:1016D00000F01EF9394800F01BF905E0384800F029
:1016E00017F9384800F014F9374800F011F9D7ED30
:1016F000017A9FED2A7AF4EEC77AF1EE10FA0FD84C
:101700001F4B1B6842F20E72934209DC2F4800F017
:10171000FFF82F4800F0FCF82E4800F0F9F815E02B
:10172000D7ED017A9FED2C7AF4EEC77AF1EE10FA3C
:1017300006DD2A4800F0ECF8294800F0E9F805E059
:10174000284800F0E5F8284800F0E2F8274800F0C3
:10175000DFF800BF1837BD4680BD00BFFCD00008D1
:101760005C0400200000C8422CD1000848D10008C9
:101770006CD10008A814002084D10008ACD1000866
:10178000AC140020CCD10008FCD1000834D20008F1
:1017900064D2000894D20008CCD20008000048426D
:1017A000ECD2000814D300080000824250D3000895
:1017B00074D300080000A042B8D30008D8D30008B2
:1017C0000CD400082CD400086CD4000894D4000871
:1017D000D4D40008FCD40008000096422CD50008A0
:1017E00058D5000898D50008CCD5000804D60008C4
:1017F00080B584B000AF3A4800F08AF8394800F06C
:1018000087F80023FB6006E0F968374800F096F897
:10181000FB680133FB60FB680F2BF5DD334800F0FC
:1018200077F80F23BB6040E0B968314800F086F8D4
:1018300000237B6030E02F497B681A01BB681344AA
:101840001B010B4404331B7883F00103DBB2002B34
:1018500003D0294800F05CF81BE026497B681A0198
:10186000BB6813441B010B441B6842F20F72934286
:1018700003D1224800F04CF80BE01E497B681A01A6
:10188000BB6813441B010B441B681946164800F043
:1018900055F87B6801337B607B680F2BCBDD1348E9
:1018A00000F036F8BB68013BBB60BB68002BBBDABD
:1018B000134B1B6842F20E72934206DC104B1B68FE
:1018C0001946104800F03AF802E00F4800F020F8FE
:1018D0000E4800F01DF800BF1037BD4680BD00BFA8
:1018E00030D6000868D600086CD6000870D600080C
:1018F00074D600085C0400207CD6000880D600085E
:10190000AC14002088D60008BCD60008ECD600082D
:1019100080B582B000AF78607868FEF7B1FC03460E
:101920009AB24FF47A737968034807F001FD00BF5B
:101930000837BD4680BD00BF140400200FB480B539
:10194000C2B000AF07F58A7207F58473A3F58273FE
:101950001A6007F58473A3F5827307F108001B680A
:10196000D7F810214FF4807109F034FA07F1080319
:101970001846FFF7CDFF00BF07F58477BD46BDE8E9
:10198000804004B07047000080B584B002AF164BB1
:101990001B8807EE903AF8EEE77A9FED147A27EE6F
:1019A000877ADFED136AC7EE267AC7ED017A786889
:1019B000FEF7D2FD02460B460B49098800910D48FF
:1019C000FFF7BCFF084B1B8840F6B732934203D8A1
:1019D0000948FFF79DFF02E00848FFF799FF00BFA5
:1019E0000837BD4680BD00BF70140020333353401C
:1019F0000000804548DD000860DD00087CDD00084F
:101A000080B500AF0B48FFF783FF0B48FFF796FF49
:101A10000A48FFF793FF0A48FFF790FF0948FFF7CE
:101A20008DFF0948FFF78AFF0848FFF771FF00BFE5
:101A300080BD00BF84DD0008ACDD0008E0DD0008EB
:101A400000DE00082CDE000858DE00088CDE0008EE
:101A500080B485B000AF87ED030AC7ED020A87EDB9
:101A6000011A97ED037AD7ED027AB4EEE77AF1EE38
:101A700010FA01D5BB680BE097ED037AD7ED017A38
:101A8000B4EEE77AF1EE10FA01DD7B6800E0FB6866
:101A900007EE903AB0EE670A1437BD465DF8047B56
:101AA0007047000080B500AF084B4FF000021A608D
:101AB000074B4FF000021A60064B4FF000021A600D
:101AC0000548FFF725FF00BF80BD00BF14020020BE
:101AD000180200201C020020B4DE00082DE9B043EB
:101AE0008AB004AF786187ED040AC7ED030A87ED79
:101AF000021AC7ED011AD7ED030A97ED040A7869B7
:101B000003F068FF7B69BA685A603869FEF724FD04
:101B100080468946F868FEF71FFD04460D46B86802
:101B2000FEF71AFD02460B46CDE90223CDE900453A
:101B300042464B460348FFF701FF00BF1837BD463A
:101B4000BDE8B083C8DE000880B584B000AF87ED83
:101B5000010AD7ED017A9FED0F7A67EE877AC7ED1C
:101B6000037ADFED0D7AF8EE677AB0EE671ADFEDF3
:101B70000B0A97ED030AFFF76BFFF0EE407AFCEEDD
:101B8000E77A17EE903A7B817B8918461037BD467D
:101B900080BD00BFABAAAA3FE80300000000000020
:101BA00080B485B000AF87ED030AB86079603A6011
:101BB000D7ED037A9FED2D7AF4EEC77AF1EE10FAA5
:101BC00014D5BB68D3ED007A9FED297A67EE877A4A
:101BD000BB68C3ED007A7B68D3ED007A9FED257A70
:101BE00067EE877A7B68C3ED007A38E0D7ED037A39
:101BF0009FED217AF4EEC77AF1EE10FA00DC2EE0C8
:101C0000BB68D3ED007A9FED1D7A67EE877ABB68DB
:101C1000C3ED007A7B68D3ED007A9FED197A67EE09
:101C2000877A7B68C3ED007ABB68D3ED007A9FEDBD
:101C3000157AF4EEC77AF1EE10FA02DDBB68124AAB
:101C40001A607B68D3ED007A9FED107AF4EEC77AC4
:101C5000F1EE10FA00DC02E07B680D4A1A6000BF6A
:101C60001437BD465DF8047B704700BF0000B442E6
:101C70003333333FCDCC4C3F0000B4439A99993F66
:101C8000CDCC8C3F000048440000484400401C4537
:101C900000401C45B0B5A2B004AF87ED010AC7ED06
:101CA000000A7868FEF758FC04460D463868FEF7CF
:101CB00053FC02460B46CDE9002322462B46BF4883
:101CC000FFF73CFEBE4B1A68BD4B9B68BD4951F8FF
:101CD000233013443B66BA4B5A68B94B9B68BA49E8
:101CE00051F823301344FB653B6E002B08DB3B6E41
:101CF0000F2B05DCFB6D002B02DBFB6D0F2B03DDD7
:101D0000B248FFF705FED2E1D7ED007A9FEDB07A39
:101D100067EE877AC7ED057AAE4B3B61AE4BFB6051
:101D200007F10C0207F1100107F11403184697EDB3
:101D3000010AFFF735FFD7ED057A97ED047AD7ED65
:101D4000036AF0EE661AB0EE471AF0EE670A97EDF6
:101D5000010AA248FFF7C2FE02F036FCB86502F0A5
:101D60003DFC7865FFF79EFE9D4B3B654FF0000301
:101D70007B679C4BFB6400233B674FF47A73BB6427
:101D80006FE13B6F01333B67944803F055FE934886
:101D900003F0C6FE87ED110A97ED110AFFF7D4FE96
:101DA0000346A7F8423002F00FFCF86302F016FC7D
:101DB000B863FA6BBB6DD31A7B63BA6B7B6DD31AB6
:101DC0003B637A6B3B6B1344DA0F13445B10FB628B
:101DD000FB6A07EE903AF8EEE77A9FED837A67EEBA
:101DE000877AC7ED0A7A97ED0A7AD7ED017AB4EED1
:101DF000E77AF1EE10FA08DBB86AFEF7ADFB0246AF
:101E00000B467A48FFF79AFD39E14FF00003FB6675
:101E100000F0F0FB0346002B00F0A18000F0F6FB81
:101E200000F0BAFB87ED090AB7EE007AD7ED137A16
:101E300037EE677AD7ED1D7A27EE277AD7ED136A4A
:101E4000D7ED097A66EEA77A77EE277AC7ED1D7A85
:101E500097ED1D7AD7ED147A27EE277A644BD3EDF0
:101E6000007A77EE277A624BC3ED007A604BD3EDB0
:101E7000007AF1EE677AC7ED087A97ED087AD7ED28
:101E8000147A27EE277A5B4BD3ED007A77EE277A28
:101E9000584BC3ED007A574BD3ED007A9FED567A3D
:101EA000B1EE477ADFED546AB0EE661AF0EE470AFB
:101EB000B0EE670AFFF7CCFDF0EE407A4D4BC3ED74
:101EC000007A4E4BD3ED007A97ED087A77EE676A89
:101ED00097ED147AC6EE877AC7ED077A474A3B6AD0
:101EE0001360474B93ED007AD7ED087A27EE277AF7
:101EF000444BD3ED006A3F4BD3ED007A66EEA77AF0
:101F000037EE277A404BD3ED006AD7ED077A66EEBD
:101F1000A77A77EE277AC7ED1B7A396F3B4BA3FB85
:101F200001235A0913469B001344DB00CA1A002AF6
:101F300015D12F4B1B681846FEF70EFB04460D46C5
:101F4000F86EFEF709FB02460B46B7F84210029105
:101F5000CDE9002322462B462D48FFF7EFFCFB6E10
:101F6000BB61B7F84230D7ED067AFDEEE77A17EE9F
:101F7000902A9B1ABB66B7F84230D7ED067AFDEE81
:101F8000E77A17EE902A13447B66D7ED117AB7EE05
:101F9000007AF4EEC77AF1EE10FA3BDD32231A46EE
:101FA000BB6E934201DA3223BB6632231A467B6E44
:101FB000934233DA32237B6630E000BFFCDE000858
:101FC0005C140020CCFB0008DCFB00082CDF0008C0
:101FD000000016440000FA440000FA4520020020E8
:101FE0000AD7A33B9A99993E0152FC3D50DF000865
:101FF0001402002018020020000048421C020020A9
:10200000000000201002002004000020CDCCCCCC29
:1020100070DF00080023BB6600237B664FF47A73F1
:102020001A46BB6E934202DD4FF47A73BB664FF4DF
:102030007A731A467B6E934202DD4FF47A737B66A5
:10204000BB6E9BB21A460121002002F017FC7B6E8A
:102050009BB21A460121012002F010FC052003F07A
:1020600021FE144803F06BFD034683F00103DBB24D
:10207000002B04D03A6FBB6C9A42FFF482AE02F0A0
:10208000C7FB642003F00EFE0B4B1B681846FEF7DF
:1020900063FA02460B46396F00910848FFF74EFC81
:1020A0003A6FBB6C9A4202D30548FFF731FC783790
:1020B000BD46B0BD200200201402002094DF0008BD
:1020C000CCDF000880B582B000AF02F093FE214B58
:1020D0009B7A002B04D02048FFF71AFC002334E041
:1020E0001E4B1A681D4B9B681D4951F82330134441
:1020F0007B601A4B5A68194B9B681A4951F8233078
:1021000013443B607B68002B08DB7B680F2B05DCEE
:102110003B68002B02DB3B680F2B04DD1248FFF706
:10212000F7FB002311E0F7EE000A9FED100AFFF71E
:10213000B1FD0A4A7B681360084A3B685360074B4D
:102140001B690133054A1361012318460837BD4650
:1021500080BD00BF7014002000E000085C14002067
:10216000CCFB0008DCFB000824E00008000034433E
:102170002DE9B04388B004AF87ED030AC7ED020A2A
:1021800087ED011A134AFB681360134ABB6813609A
:10219000124A7B681360FFF785FCF868FEF7DCF9EC
:1021A00080468946B868FEF7D7F904460D46786838
:1021B000FEF7D2F902460B46CDE90223CDE90045F0
:1021C00042464B460648FFF7B9FB00BF1037BD46F5
:1021D000BDE8B083000000201002002004000020B1
:1021E0004CE0000880B500AF0C48FFF791FB00F011
:1021F00001FA0346002B03D00948FFF789FB02E0F0
:102200000848FFF785FBF7EE000A9FED070AFFF786
:1022100041FD0648FFF77CFB00BF80BD50E200088F
:1022200074E200089CE2000800003443C4E20008A5
:1022300080B584B000AF0346FB71FB7963F07F0388
:10224000DBB27B7300233B7300224FF480511748AD
:1022500004F066FC07F10D0164230122144805F027
:102260008CF90346FB7307F10C016423012210482B
:1022700005F0C7FA0346BB7301224FF480510B48A7
:1022800004F04EFCFB7B002B02D1BB7B002B07D064
:102290000848FFF73DFB084B00221A70FF2300E0BF
:1022A0003B7B18461037BD4680BD00BF000402408E
:1022B0009C020020E8E200083C02002080B584B0C7
:1022C00000AF03460A46FB711346BB71FB793B73B3
:1022D000BB797B7300224FF48051114804F020FC3D
:1022E00007F10C01642302220E4805F046F903466B
:1022F000FB7301224FF48051094804F011FCFB7B71
:10230000002B05D00848FFF703FB084B00221A708A
:10231000012003F0C7FC00BF1037BD4680BD00BFE1
:10232000000402409C0200200CE300083C02002054
:1023300080B582B000AF3C48FFF7EAFAC82003F04E
:10234000B1FC80216B20FFF7B9FFFA2003F0AAFC53
:1023500000216B20FFF7B2FF322003F0A3FC012124
:102360006B20FFF7ABFF322003F09CFC00216C20B8
:10237000FFF7A4FF0A2003F095FC6A20FFF758FF3F
:102380000346FB71FB7943F01003FB71FB7919469F
:102390006A20FFF793FF0A2003F084FC0421192030
:1023A000FFF78CFF0A2003F07DFC02211A20FFF7C3
:1023B00085FF0A2003F076FC08211B20FFF77EFF33
:1023C0000A2003F06FFC08211C20FFF777FF0A208A
:1023D00003F068FC02211D20FFF770FF0A2003F0C4
:1023E00061FC7520FFF724FF0346BB71BB791946DA
:1023F0000E48FFF7A3FABB79702B09D0BB791946B9
:102400000B48FFF79BFA0B4B00221A70002306E0E3
:102410000948FFF77DFA074B01221A70012318467D
:102420000837BD4680BD00BF34E3000860E3000804
:1024300074E300083C0200209CE300082DE9B0434F
:1024400088B004AF4E4B1B7883F00103DBB2002B46
:1024500003D04C48FFF75CFA8EE04B48FFF758FA80
:102460004A4B4FF47A721A614FF00003FB604FF051
:102470000003BB604FF000037B6000233B602EE055
:1024800000F0C4F8424BB3F9003007EE903AF8EE92
:10249000E77A97ED037A77EE277AC7ED037A3C4B1C
:1024A000B3F9023007EE903AF8EEE77A97ED027A48
:1024B00077EE277AC7ED027A354BB3F9043007EE91
:1024C000903AF8EEE77A97ED017A77EE277AC7ED42
:1024D000017A032003F0E6FB3B6801333B602B4BA2
:1024E0001A693B689A42CBD8284B1B6907EE903A91
:1024F000B8EE677AD7ED036AC6EE877A234BC3ED51
:10250000007A224B1B6907EE903AB8EE677AD7ED56
:10251000026AC6EE877A1D4BC3ED017A1B4B1B691D
:1025200007EE903AB8EE677AD7ED016AC6EE877A81
:10253000164BC3ED027A154B01221A73134B1B681D
:102540001846FEF709F880468946104B5B68184626
:10255000FEF702F804460D460C4B9B681846FDF743
:10256000FBFF02460B46CDE90223CDE9004542467A
:102570004B460848FFF7E2F91037BD46BDE8B08387
:102580003C020020B0E30008DCE300084002002029
:102590008014002010E4000880B582B000AF124B18
:1025A0001B7B83F00103DBB2002B04D000F09EF80C
:1025B000F0EE407A13E00D4BB3F9043007EE903A99
:1025C000B8EEE77A084BD3ED027A37EE677ADFEDA3
:1025D000086AC7EE267AC7ED017AD7ED017AB0EE28
:1025E000670A0837BD4680BD4002002080140020E5
:1025F0000000834280B400AF034B1B781846BD46F1
:102600005DF8047B704700BF3C02002080B584B0B9
:1026100000AF2F4B1B7883F00103DBB2002B03D0FC
:102620002C48FFF775F950E0C323FB7100224FF4EB
:102630008051294804F074FAF91D642301222748C7
:1026400004F09BFF0346FB73FB7B002B09D00122A8
:102650004FF48051204804F063FA2148FFF758F9FD
:1026600033E007F10801642306221C4805F0C9F88D
:102670000346FB7301224FF48051174804F050FACF
:10268000FB7B002B03D01748FFF742F91DE03B7A94
:102690001BB21B021AB27B7A1BB213431AB2124B43
:1026A0001A80BB7A1BB21B021AB2FB7A1BB213430D
:1026B0001AB20D4B5A803B7B1BB21B021AB27B7BBA
:1026C0001BB213431AB2084B9A801037BD4680BD27
:1026D0003C02002040E40008000402409C0200206C
:1026E00074E4000898E400088014002080B400AF6F
:1026F000094BB3F9043007EE903AF8EEE77A9FED14
:10270000077AC7EE876AF0EE667AB0EE670ABD46D2
:102710005DF8047B704700BF8014002000008342F6
:102720000FB480B5C2B000AF07F58A7207F58473A5
:10273000A3F582731A6007F58473A3F5827307F11A
:1027400008001B68D7F810214FF4807108F042FB95
:1027500007F1080319460548FFF7F0F800BF07F531
:102760008477BD46BDE8804004B07047F4E50008BA
:1027700080B485B000AF87ED030AC7ED020A87ED8C
:10278000011A97ED037AD7ED027AB4EEE77AF1EE0B
:1027900010FA01D5BB680BE097ED037AD7ED017A0B
:1027A000B4EEE77AF1EE10FA01DD7B6800E0FB6839
:1027B00007EE903AB0EE670A1437BD465DF8047B29
:1027C00070470000B0B598B006AFF860B9607A60A5
:1027D0003B60BB6D002B01D10523BB657A683B686C
:1027E00013443233FA6D9A4204D27A683B68134438
:1027F0003233FB6501F0FCFEFB687B64FB683B64E5
:102800007B6C9BB21A460121002002F037F83B6C2A
:102810009BB21A460121012002F030F86E48FFF702
:102820007FFF03F033FA38633B6BFB6301F0CCFEB0
:10283000B86301F0D3FE78633B6BFB62B9E003F051
:1028400025FAB862BA6AFB6AD31A7B627A6A7B6835
:102850009A424AD37A683B6813447A6A9A4244D2CD
:10286000FB6807EE903AB8EEE77ABB6807EE903A5D
:10287000F8EEE77A77EE677A9FED581ADFED580A9F
:10288000B0EE670AFFF774FFF0EE407AFDEEE77AEC
:1028900017EE903A7B64FB6807EE903AB8EEE77A61
:1028A000BB6807EE903AF8EEE77A77EE277A9FED6D
:1028B0004B1ADFED4B0AB0EE670AFFF759FFF0EE57
:1028C000407AFDEEE77A17EE903A3B647B6C9BB260
:1028D0001A460121002001F0D1FF3B6C9BB21A4641
:1028E0000121012001F0CAFF11E0FB687B64FB6855
:1028F0003B647B6C9BB21A460121002001F0BEFFB5
:102900003B6C9BB21A460121012001F0B7FFBA6A65
:10291000FB6B9A424AD301F057FE386201F05EFE2B
:10292000F861BB6D07EE903AB8EE677ADFED2B6A7F
:10293000C7EE267AC7ED067A3A6ABB6BD31A07EE62
:10294000903AF8EEE76A97ED067AC6EE877AC7ED19
:10295000057AFA697B6BD31A07EE903AF8EEE76ACC
:1029600097ED067AC6EE877AC7ED047A7869FDF7A7
:10297000F3FD04460D463869FDF7EEFD02460B46B1
:10298000CDE90423CDE90245FB6901933B6A00933D
:102990003B6C7A6C796A1348FFF7C2FE3B6ABB63F3
:1029A000FB697B63FA6BBB6D1344FB63012003F08F
:1029B00079F903F06BF902463B6BD31AFA6D9A4230
:1029C000BFF43DAF01F024FF0748FFF7A9FE00BFA9
:1029D0004837BD46B0BD00BF90E6000800007A440D
:1029E00000000000D8E60008F8E6000890B583B0C3
:1029F00002AF03F0E5F800F043F900F073FC00F0DB
:102A0000A7F900F02FFA00F063FA00F001FB00F0E4
:102A1000EBFB00F03DFC00F04FFB0021834805F08C
:102A20009DFB0421814805F099FB08217F4805F0B2
:102A300095FB0C217D4805F091FB01224FF40051DC
:102A40007B4804F06DF800F07FFD00F02DFD02F0F2
:102A500039FBFFF7CFFD0346002B17D07548FEF773
:102A600057FF7548FEF754FF4FF4FA6003F01AF968
:102A7000FFF7E4FC7148FEF74BFF9FED711ADFEDA5
:102A8000710AB7EE000AFFF773FB02E06E48FEF72B
:102A90003FFF01F0D3FD642003F004F903F0F6F8E2
:102AA000034619466948FEF749FF01F08DFD0446CB
:102AB00001F094FD03461A4621466548FEF73EFFA5
:102AC00040F6B83301930A2300934FF448734FF450
:102AD0007A7264214FF41670FFF774FE01F0B2FEB3
:102AE000642003F0DFF801F06FFD0346002B07D1EF
:102AF00001F074FD0346002B02D15648FEF708FF93
:102B0000FEF73EFA01221021534804F009F8012291
:102B10002021514804F004F84FF47A7003F0C2F811
:102B2000002210214C4803F0FBFF002220214A48DC
:102B300003F0F6FF4948FEF7EBFEFEF761FF484859
:102B4000FEF7E6FE06E00A2003F0ACF8102142484A
:102B500003F0FFFF434B1B78DBB2002BF3D00022C6
:102B600010213D4803F0DCFF002220213A4803F009
:102B7000D7FFFEF721FA4FF4FA6003F093F83A48D2
:102B8000FEF7C6FE01F05AFD01F060FA02F032F9DC
:102B9000364B1B78DBB2012B14D1344B00221A7058
:102BA000334B1B7B002B06D0314B5B7B002B02D0C1
:102BB00001F0CAFB06E02F48FEF7AAFE01F098FBE1
:102BC00001F044FA294B1B78DBB2022B06D1274BCC
:102BD00000221A70FFF706FBFFF718FD03F056F806
:102BE0000246254B1B68D31A41F28832934206D91C
:102BF000FEF7CAFE03F04AF803461F4A136003F0CB
:102C000045F802461D4B1B68D31AB3F5FA6F08D975
:102C10001021114803F09DFF03F038F80346174ACE
:102C20001360642003F03EF8B0E700BF8403002087
:102C3000000802401CE7000848E700087CE700089D
:102C4000CDCCCC3D000000009CE70008D0E7000898
:102C5000E8E7000804E800080004024034E800083F
:102C600058E80008A514002080E80008A4140020FB
:102C70005C140020A0E80008B0140020B414002068
:102C800080B594B000AF07F1200330220021184630
:102C900008F0AEF807F10C0300221A605A609A603F
:102CA000DA601A610023BB60274B1B6C264A43F095
:102CB00080531364244B1B6C03F08053BB60BB68D0
:102CC00000237B60214B1B68204A43F44043136080
:102CD0001E4B1B6803F440437B607B6802233B620E
:102CE0000123FB6210233B630223BB630023FB63CE
:102CF00010233B64A8237B640223BB640423FB648E
:102D000007F12003184603F057FF0346002B01D0BC
:102D100000F006FC0F23FB6002233B6100237B6174
:102D20004FF48053BB610023FB6107F10C030221C8
:102D3000184604F0B9F90346002B01D000F0F0FB6F
:102D400000BF5037BD4680BD0038024000700040D3
:102D500080B584B000AF3B4600221A605A609A608A
:102D6000DA603D4B3D4A1A603B4B4FF480325A606B
:102D7000394B00229A60384B01221A61364B0122EE
:102D80001A76354B002283F82020334B0022DA627A
:102D9000314B334A9A62304B0022DA602E4B0522C7
:102DA000DA612D4B002283F830202B4B01225A612F
:102DB000294802F09BFF0346002B01D000F0B0FB36
:102DC00000233B6001237B600023BB603B46194628
:102DD000214803F04FF90346002B01D000F0A0FB7F
:102DE00002233B6002237B603B4619461A4803F0EE
:102DF00041F90346002B01D000F092FB03233B6016
:102E000003237B603B461946134803F033F903461E
:102E1000002B01D000F084FB04233B6004237B6083
:102E20003B4619460C4803F025F90346002B01D018
:102E300000F076FB05233B6005237B603B4619468B
:102E4000054803F017F90346002B01D000F068FB9A
:102E500000BF1037BD4680BD540200200020014055
:102E60000100000F80B500AF174B184A1A60164BCF
:102E70004FF482725A60144B00229A60124B002267
:102E8000DA60114B00221A610F4B00225A610E4B7F
:102E90004FF400729A610C4B3022DA610A4B002227
:102EA0001A62094B00225A62074B00229A62064BB3
:102EB0000A22DA62044804F0D7FA0346002B01D054
:102EC00000F02EFB00BF80BD9C02002000380040B7
:102ED00080B596B000AF07F1480300221A605A602F
:102EE0009A60DA6007F1400300221A605A6007F125
:102EF000240300221A605A609A60DA601A615A61EB
:102F00009A613B1D20220021184607F071FF3E4BBD
:102F10003E4A1A603C4B14225A603B4B00229A6096
:102F2000394BC822DA60384B00221A61364B002236
:102F30005A61354B80229A61334805F067F80346A1
:102F4000002B01D000F0ECFA4FF48053BB6407F182
:102F5000480319462C4805F0FBFC0346002B01D022
:102F600000F0DEFA284805F0A0F80346002B01D057
:102F700000F0D6FA00233B6400237B6407F1400392
:102F80001946214806F0B0F80346002B01D000F0A6
:102F9000C7FA60237B626423BB620023FB620023C9
:102FA0003B6300237B630023BB630023FB6307F1C8
:102FB000240308221946144805F008FC0346002B98
:102FC00001D000F0ADFA00237B600023BB6000233A
:102FD000FB6000233B6100237B614FF40053BB6126
:102FE00000233B623B1D1946074806F0EBF80346F9
:102FF000002B01D000F094FA034802F0CDFA00BF94
:103000005837BD4680BD00BFF402002000000140DB
:1030100080B58CB000AF07F10C03242200211846C4
:1030200007F0E6FE3B1D00221A605A60214B4FF06C
:1030300080421A601F4B00225A601E4B00229A6089
:103040001C4B4FF6FF72DA601A4B00221A61194BC3
:1030500080229A610323FB6000233B6101237B6193
:103060000023BB610023FB6100233B6201237B62E1
:103070000023BB620023FB6207F10C0319460D48D5
:1030800005F080F90346002B01D000F049FA002337
:103090007B600023BB603B1D1946064806F024F800
:1030A0000346002B01D000F03BFA00BF3037BD468D
:1030B00080BD00BF3C03002080B58EB000AF07F19B
:1030C000280300221A605A609A60DA6007F1200330
:1030D00000221A605A603B1D00221A605A609A60F2
:1030E000DA601A615A619A613D4B3E4A1A603C4B64
:1030F00004225A603A4B00229A60394B40F2463221
:10310000DA60374B00221A61354B80229A613448CD
:1031100004F07CFF0346002B01D000F001FA4FF4CD
:103120008053BB6207F1280319462D4805F010FCB7
:103130000346002B01D000F0F3F9294804F0B5FF55
:103140000346002B01D000F0EBF900233B62002383
:103150007B6207F120031946214805F0C5FF0346AD
:10316000002B01D000F0DCF960237B600023BB6002
:103170000023FB6000237B613B1D00221946184899
:1031800005F024FB0346002B01D000F0C9F93B1DDC
:1031900004221946124805F019FB0346002B01D002
:1031A00000F0BEF93B1D082219460D4805F00EFB44
:1031B0000346002B01D000F0B3F93B1D0C22194649
:1031C000074805F003FB0346002B01D000F0A8F9E7
:1031D000034802F0E1F900BF3837BD4680BD00BFAB
:1031E000840300200004004080B58CB000AF07F1DC
:1031F0000C0324220021184607F0FAFD3B1D002293
:103200001A605A60204B214A1A601F4B00225A60F4
:103210001D4B00229A601C4B4FF6FF72DA601A4B6E
:1032200000221A61184B80229A610323FB6000235D
:103230003B6101237B610023BB610023FB61002311
:103240003B6201237B620023BB620023FB6207F128
:103250000C0319460C4805F095F80346002B01D0E5
:1032600000F05EF900237B600023BB603B1D194624
:10327000054805F039FF0346002B01D000F050F956
:1032800000BF3037BD4680BDCC03002000080040A1
:1032900080B500AF114B124A1A60104B4FF4165212
:1032A0005A600E4B00229A600C4B0022DA600B4BE6
:1032B00000221A61094B0C225A61084B00229A61C4
:1032C000064B0022DA61054805F0E2FF0346002BB9
:1032D00001D000F025F900BF80BD00BF140400201C
:1032E0000014014080B588B000AF07F10C03002244
:1032F0001A605A609A60DA601A610023BB604B4B17
:103300001B6B4A4A43F004031363484B1B6B03F0E7
:103310000403BB60BB6800237B60444B1B6B434AC8
:1033200043F001031363414B1B6B03F001037B600C
:103330007B6800233B603D4B1B6B3C4A43F0020320
:1033400013633A4B1B6B03F002033B603B680022A4
:103350004FF40051364803F0E3FB002241F23031D4
:10336000344803F0DDFB00224FF44071324803F093
:10337000D7FB4FF40053FB6001233B6100237B61CB
:103380000023BB6107F10C031946294803F044FAF6
:103390000223FB604FF488133B6100237B6107F13C
:1033A0000C031946244803F037FA4FF48063FB609E
:1033B0004FF488133B6100237B6107F10C0319462E
:1033C0001C4803F029FA41F23033FB6001233B61D2
:1033D00000237B610023BB6107F10C0319461548EC
:1033E00003F01AFA4FF44073FB6001233B610023A2
:1033F0007B610023BB6107F10C0319460E4803F003
:103400000BFA00220521072003F03DF9072003F005
:1034100056F900220521282003F035F9282003F071
:103420004EF900BF2037BD4680BD00BF00380240C6
:1034300000080240000402400000024080B584B051
:1034400000AF0346FB8002F021FCF860114B1B68C3
:10345000FA68D31AC82B19D9FB88022B09D10E4B55
:1034600001221A700D4B01221A700D48FEF750FA16
:1034700009E0FB88B3F5806F05D1074B02221A7073
:103480000848FEF745FA034AFB68136000BF10378F
:10349000BD4680BDB8140020A4140020A51400204F
:1034A000D0E80008E8E8000880B586B000AF3B1D12
:1034B00000221A605A609A60DA601A6101237B6008
:1034C0000323BB600023FB603B1D1946124803F039
:1034D000A3F904237B603B1D19460F4803F09CF9B8
:1034E00008237B603B1D19460B4803F095F9102318
:1034F0007B603B1D1946084803F08EF920237B6052
:103500003B1D1946044803F087F90448FEF700FA0A
:1035100000BF1837BD4680BD0000024000E900082A
:1035200080B500AF72B600BF1021064803F011FB52
:103530002021044803F00DFB642002F0B3FB00BF20
:10354000F2E700BF0004024080B500AF00F042F88F
:10355000184B00221A60174B00225A60154B0022AC
:103560009A60144B00221A73124B00225A73114BAB
:1035700000221A610E2200210F4807F039FC1222A6
:1035800000210E4807F034FC102200210C4807F0FF
:103590002FFC0C4B00221A600B4B00221A60FEF726
:1035A000C7FE0A48FEF7B4F90948FEF7B1F900BFB3
:1035B00080BD00BF5C140020701400208014002027
:1035C00094140020A8140020AC14002028E900085E
:1035D00058E9000880B584B000AF0023FB603EE0EE
:1035E0000023BB6035E03949FB681A01BB6813440E
:1035F0001B010B4442F20F721A603449FB681A0136
:10360000BB6813441B010B44043300221A702F497A
:10361000FB681A01BB6813441B010B440C330022E6
:103620001A6000237B600EE02849FB681A01BB6822
:1036300013441B01CA187B681344053300221A7017
:103640007B6801337B607B68032BEDDDBB68013356
:10365000BB60BB680F2BC6DDFB680133FB60FB68FA
:103660000F2BBDDD00233B601FE0184A3B681B02A7
:103670001344073301221A70144A3B681B02134497
:10368000F53301221A70114A3B681B0113440833B9
:1036900001221A700D4A3B681B01134403F606739E
:1036A00001221A703B6801333B603B680F2BDCDD65
:1036B000064B01221A71054B0122DA600448FEF71D
:1036C00027F900BF1037BD4680BD00BF5C04002055
:1036D00080E9000880B5ADF5036D00AF0023C7F8A1
:1036E0002C381DE00023C7F8283810E0C849D7F867
:1036F0002C381A01D7F8283813441B010B4442F226
:103700000F721A60D7F828380133C7F82838D7F86D
:1037100028380F2BEADDD7F82C380133C7F82C38BE
:10372000D7F82C380F2BDDDDBA4B1B7B83F0010360
:10373000DBB2002B2CD0B84B1A68B84B1B68B449CD
:10374000120113441B010B4400221A60B44B1A6887
:10375000B24B1B68AE49120113441B010B440022FB
:103760001A60AD4B1A68AF4B1B68A949120113448C
:103770001B010B4400221A60A94B1A68A94B1B6855
:10378000A349120113441B010B4400221A6002E0FA
:103790009F4B00221A600023C7F824380023C7F883
:1037A00020389C4B1B7B83F00103DBB2002B5CD0E9
:1037B000994B196807F50363A3F22C43D7F8202827
:1037C00043F82210D7F820385A1CC7F82028934A0B
:1037D000116807F50362A2F62C0242F82310904B01
:1037E000196807F50363A3F22C43D7F8202843F8A0
:1037F0002210D7F820385A1CC7F82028874A1168A9
:1038000007F50362A2F62C0242F82310824B1968D6
:1038100007F50363A3F22C43D7F8202843F82210BE
:10382000D7F820385A1CC7F820287E4A116807F5B7
:103830000362A2F62C0242F82310794B196807F5AF
:103840000363A3F22C43D7F8202843F82210D7F8BB
:1038500020385A1CC7F82028724A116807F50362FD
:10386000A2F62C0242F8231014E007F50363A3F23A
:103870002C43D7F82028002143F82210D7F820380D
:103880005A1CC7F8202807F50362A2F62C02002173
:1038900042F823100023C7F81C38A7E007F503639C
:1038A000A3F22C43D7F8242853F82230C7F8143851
:1038B000D7F824385A1CC7F8242807F50362A2F663
:1038C0002C0252F82330C7F810380023C7F81838F4
:1038D00087E0554AD7F8183852F82330D7F814281B
:1038E0001344C7F80C38514AD7F8183852F8233027
:1038F000D7F810281344C7F80838D7F80C38002B2D
:103900006ADBD7F80C380F2B66DCD7F80838002BA9
:1039100062DBD7F808380F2B5EDC3D49D7F8143846
:103920001A01D7F8103813441B01CA18D7F81838F1
:10393000134405331B7883F00103DBB2002B4BD01B
:103940003349D7F814381A01D7F8103813441B013B
:103950000B441B680133C7F804382D49D7F80C38DD
:103960001A01D7F8083813441B010B441B68D7F819
:1039700004289A4230DA2649D7F80C381A01D7F8C9
:10398000083813441B010B44D7F804281A60D7F8F1
:103990002038FE2B1CDC07F50363A3F22C43D7F879
:1039A0002028D7F80C1843F82210D7F820385A1CD2
:1039B000C7F8202807F50362A2F62C02D7F80818EA
:1039C00042F82310D7F81C380133C7F81C3803E03D
:1039D0001748FDF79DFF09E0D7F818380133C7F8FD
:1039E0001838D7F81838032B7FF773AFD7F8242887
:1039F000D7F820389A42FFF651AFD7F81C180D4877
:103A0000FDF79CFF00BF07F50367BD4680BD00BF03
:103A10005C0400205C140020ECFB0008F0FB0008B4
:103A2000F4FB0008F8FB0008CCFB0008DCFB0008F6
:103A3000B4E90008C8E9000880B493B000AF884B2F
:103A40009B687B6442F20F733B6440F2E733FB6395
:103A5000002387F83B30824B9B683B60804B9B6820
:103A600001335A4203F0030302F0030258BF5342EA
:103A70007B607B4B9B6803335A4203F0030302F0E5
:103A8000030258BF5342BB60754B9B6802335A42D6
:103A900003F0030302F0030258BF5342FB6000230C
:103AA0007B635BE07B6B9B0048333B4453F8483CB3
:103AB000BB616B4B1A686B49BB6951F823301344E7
:103AC0007B61674B5A686849BB6951F823301344DE
:103AD0003B617B69002B3EDB7B690F2B3BDC3B6949
:103AE000002B38DB3B690F2B35DC5D4B1A685C4BD8
:103AF0005B685E49120113441B01CA18BB69134479
:103B000005331B7883F00103DBB2002B23D0574928
:103B10007B691A013B6913441B010B440C331B687E
:103B2000002B18D1012387F83B3050497B691A01DB
:103B30003B6913441B010B441B683A6C9A420ADD33
:103B40004A497B691A013B6913441B010B441B68FA
:103B50003B64BB697B647B6B01337B637B6B032BB7
:103B6000A0DD97F83B3083F00103DBB2002B6FD070
:103B700000233B6369E03B6B9B0048333B4453F8B5
:103B8000483CFB62364B1A683649FB6A51F82330D1
:103B90001344BB62324B5A683349FB6A51F82330F5
:103BA00013447B62BB6A002B4CDBBB6A0F2B49DCE6
:103BB0007B6A002B46DB7B6A0F2B43DC284B1A68A1
:103BC000274B5B682949120113441B01CA18FB6A81
:103BD000134405331B7883F00103DBB2002B31D093
:103BE0002249BB6A1A017B6A13441B010B441B6800
:103BF0003B621E49BB6A1A017B6A13441B010B44DA
:103C00000C331B68FB613A6A3B6C9A4214DB3A6ADC
:103C10003B6C9A4203D1FA69FB6B9A420CDB3A6A1D
:103C20003B6C9A420ED1FA69FB6B9A420AD10C4B5B
:103C30009B68FA6A9A4205D13B6A3B64FB69FB6365
:103C4000FB6A7B643B6B01333B633B6B032B92DD75
:103C50007B6C18464C37BD465DF8047B704700BF4F
:103C60005C140020CCFB0008DCFB00085C04002096
:103C700090B58BB002AF01F0BDF88A4B9B7A002B58
:103C800041D0894B1968884B5A68874B9B68874895
:103C900009010A44120102441344053301221A7037
:103CA000814B1A68804B9B68814951F8233013443B
:103CB000FB617D4B5A687C4B9B687E4951F82330F1
:103CC0001344BB61FB69002B1DDBFB690F2B1ADC66
:103CD000BB69002B17DBBB690F2B14DC724B9B6895
:103CE00002335A4203F0030302F0030258BF534267
:103CF0006E48FA691101BA690A4412010244134478
:103D0000053301221A70674BDB7A002B48D0664BD3
:103D10009B6803335A4203F0030302F0030258BFC7
:103D200053427B61604B1A685F4B5B685F491201CD
:103D300013441B01CA187B691344053301221A700E
:103D4000594B1A685A497B6951F8233013443B6137
:103D5000554B5A6857497B6951F823301344FB602F
:103D60003B69002B1CDB3B690F2B19DCFB68002B2C
:103D700016DBFB680F2B13DC7B6902335A4203F01E
:103D8000030302F0030258BF534248483A69110145
:103D9000FA680A44120102441344053301221A70DE
:103DA000404B1B7B002B48D03F4B9B6801335A4252
:103DB00003F0030302F0030258BF5342BB603A4BC7
:103DC0001A68394B5B683949120113441B01CA1840
:103DD000BB681344053301221A70334B1A68344907
:103DE000BB6851F8233013447B602F4B5A6831492C
:103DF000BB6851F8233013443B607B68002B1CDB0D
:103E00007B680F2B19DC3B68002B16DB3B680F2B04
:103E100013DCBB6802335A4203F0030302F00302CF
:103E200058BF534221487A6811013A680A44120186
:103E300002441344053301221A701B4B1A681A4BB3
:103E40005B681A49120113441B010B44043301221D
:103E50001A70154B1A68144B5B6814481101194409
:103E6000090101440C310968013110481201134461
:103E70001B0103440C3319600B4B19680A4B5A6839
:103E8000084B9B7A1C46074BDB7A1846054B1B7B7D
:103E90000193009023460848FDF750FD00BF2437EA
:103EA000BD4690BD701400205C1400205C0400200E
:103EB000CCFB0008DCFB0008F0E9000880B584B00A
:103EC00000AF786041E0264B9B687A68D31A0433D0
:103ED0005A4203F0030302F0030258BF5342FB604F
:103EE000FB68012B0ED100F06FFC1D4B9B6801336A
:103EF0005A4203F0030302F0030258BF5342184A28
:103F0000936022E0FB68032B0ED100F041FC144BC0
:103F10009B6803335A4203F0030302F0030258BFC5
:103F200053420F4A936010E0FB68022B0DD100F062
:103F300067FC0B4B9B6802335A4203F0030302F009
:103F4000030258BF5342064A9360054B9B687A6848
:103F50009A42B8D100BF00BF1037BD4680BD00BF38
:103F60005C14002080B500AFFEF744FB0346002B35
:103F700003D0FEF7A7F8034617E000F03BFF0C4B19
:103F80009B7A002B04D00B48FDF7C2FC00230CE009
:103F900000F090FB084B1B690133074A1361074B84
:103FA0001B680133054A13600123184680BD00BF1A
:103FB000701400201CEA00085C140020A8140020E3
:103FC00080B400AF1C4B1B7B83F00103DBB2002BE2
:103FD0001ED0194B1A68194B1B689A4205D0164B14
:103FE0001A68174B1B689A420DD1134B5A68154B30
:103FF0001B689A4205D0104B5A68134B1B689A42B3
:1040000001D1012300E0002303F00103DBB20DE046
:10401000094B1B68002B05D1074B5B68002B01D1B6
:10402000012300E0002303F00103DBB21846BD4684
:104030005DF8047B704700BF5C140020ECFB0008B7
:10404000F4FB0008F0FB0008F8FB000880B58AB01C
:1040500000AF8148FDF75CFC00237B624FF47A736C
:104060003B61C0E07D4B1A687C4B5B68796A7C4899
:10407000FDF764FCFFF7FCFDFFF72CFBFFF7A0FF4B
:104080000346002B32D0754B1B7B83F00103DBB260
:10409000002B24D07348FDF73BFC704B01221A73B0
:1040A000FCF78AFF00233B6215E00023FB610CE074
:1040B0006D493B6A1A01FB6913441B010B440C3325
:1040C00000221A60FB690133FB61FB690F2BEFDDF6
:1040D0003B6A01333B623B6A0F2BE6DD06E0634837
:1040E000FDF716FC5D4B01225A7390E0FFF7A4FC2C
:1040F000F860F9685E48FDF721FCF868FFF7DEFE1E
:10410000FFF730FF0346002B0DD0544B1B7B002BD9
:1041100004D00121002001F039FC5EE000210120E3
:1041200001F034FC59E05348FDF7F2FB0023FB7625
:1041300000237B613EE07A69FB689A4237D0474BA7
:104140001A684D497B6951F823301344BB60434BD7
:104150005A684A497B6951F8233013447B60BB6835
:10416000002B24DBBB680F2B21DC7B68002B1EDBC4
:104170007B680F2B1BDC394B1A68384B5B683A495C
:10418000120113441B01CA187B69134405331B78C1
:1041900083F00103DBB2002B09D07869FFF78EFEB4
:1041A000FFF7E0FE0346002B01D00123FB767B697D
:1041B00001337B617B69032B05DCFB7E83F001030C
:1041C000DBB2002BB7D1FB7E83F00103DBB2002B07
:1041D00003D02B48FDF79CFB19E07B6A01337B621F
:1041E0000A2001F05FFD7A6A3B699A420FDA1B4BA5
:1041F0001B7B83F00103DBB2002B7FF433AF174B43
:104200005B7B83F00103DBB2002B7FF42BAF00213B
:10421000002001F0BBFB114B1B6919461948FDF743
:104220008DFB0E4B1B7B002B0BD00C4B5B7B002BB9
:1042300007D01548FDF76CFB00F02AF8FCF7CEFE1E
:1042400005E01248FDF764FBFCF7F4FE00BF00BF79
:104250002837BD4680BD00BF40EA00085C1400203E
:1042600064EA000880EA00085C040020ACEA000868
:10427000D8EA0008F8EA0008CCFB0008DCFB0008DC
:1042800024EB000840EB000864EB00089CEB0008FE
:1042900080B500AF1048FDF73BFBFCF7E5FEFDF7EE
:1042A00075F9FDF7A5FA0D48FDF732FB0C4B1B68BD
:1042B00042F20E72934209DC094B1B681946094809
:1042C000FDF73CFB0848FDF723FB02E00748FDF73C
:1042D0001FFB00BF80BD00BFD4EB0008FCEB000853
:1042E000AC14002028EC00085CEC00088CEC000802
:1042F00080B500AF104B00221A600F4B00225A60AD
:104300000D4B00229A600C4B00221A730A4B0022BC
:104310005A73094B00221A61084B00221A60084B9D
:1043200000221A60FFF756F90648FDF7F1FAFCF78C
:1043300027FE00BF80BD00BF5C140020A814002031
:10434000AC140020C0EC000880B500AF0448FDF7B5
:10435000DFFA0448FDF7DCFA00F006F800BF80BD84
:10436000F4EC00081CED000880B586B000AF64488E
:10437000FDF7CEFA634B1B7B83F00103DBB2002B0E
:1043800006D1604B5B7B83F00103DBB2002B03D0D3
:104390005D48FDF7BDFAB0E05C48FDF7B9FA594B4E
:1043A00000221A60574B00225A60564B00229A6036
:1043B0000121012001F0EAFAFCF7FEFD5448FDF767
:1043C000A7FA01F063FCF8600023FB750DE0514B88
:1043D0001B78DBB2022B05D14E4B00221A70012351
:1043E000FB750BE0642001F05DFC01F04FFC024620
:1043F000FB68D31A42F20F729342E8D9FB7D83F037
:104400000103DBB2002B07D04348FDF781FA0021FE
:10441000002001F0BBFA70E04048FDF779FA002374
:104420003B613223BB6021E000F0E4FCFFF752F96E
:10443000FFF702FB78607868FFF740FDFFF792FD19
:104440000346002B0BD03B6901333B612D4B1A68AF
:104450002C4B5B6839693248FDF770FA03E031484C
:10446000FDF756FA1EE0322001F01CFC254B1A68BD
:104470002D4B1B689A4205D0224B1A682B4B1B68A8
:104480009A420BD11F4B5A68294B1B689A4209D09C
:104490001C4B5A68274B1B689A4203D03A69BB6889
:1044A0009A42C1DB0021002001F070FA154B1A6816
:1044B0001D4B1B689A4205D0124B1A681B4B1B6898
:1044C0009A4215D10F4B5A68194B1B689A4205D076
:1044D0000C4B5A68174B1B689A4209D11648FDF7D6
:1044E00017FA39691548FDF729FAFCF777FD04E05A
:1044F0001348FDF70DFAFCF79DFD1837BD4680BD4A
:1045000040ED00085C14002064ED0008A0ED0008F8
:10451000D8ED0008A414002008EE00082CEE0008D6
:1045200048EE000868EE0008ECFB0008F4FB000809
:10453000F0FB0008F8FB000884EE0008A0EE00087D
:10454000B8EE000880B483B000AF194B1B685B6AFB
:10455000FB80184B1B685B6ABB80174B1B88FA8873
:10456000D31A9BB27B80154B1B88BA88D31A9BB297
:104570003B803B885B429BB23B80B7F90220104BEB
:104580001B6813440E4A1360B7F900200D4B1B68DB
:1045900013440C4A1360084AFB881380074ABB88FF
:1045A000138000BF0C37BD465DF8047B704700BF29
:1045B0003C030020CC030020080000200A0000205B
:1045C000BC140020C014002080B500AFFFF7BAFF74
:1045D000014B1B68184680BDBC14002080B500AF9D
:1045E000FFF7B0FF014B1B68184680BDC0140020C8
:1045F00080B400AF0B4B00221A600B4B00221A60F4
:104600000A4B1B685B6A9AB2094B1A80094B1B68FC
:104610005B6A9AB2084B1A8000BFBD465DF8047B06
:10462000704700BFBC140020C01400203C030020D1
:1046300008000020CC0300200A00002080B500AF55
:104640003C21154803F044FF3C21144803F040FF8F
:10465000114B1B684FF400425A62104B1B684FF419
:1046600000425A62012001F01DFB0D4B4FF4004245
:104670001A800C4B4FF400421A800B4B00221A6038
:104680000A4B00221A600A4B00229A60084B002253
:10469000DA6000BF80BD00BFCC0300203C030020D7
:1046A000080000200A000020BC140020C0140020D4
:1046B0009414002080B58AB000AFFFF785FF7862C0
:1046C000FFF78CFF38622E4B1A682D4B9B682D49E3
:1046D00051F823301344FB61294B5A68284B9B68DF
:1046E000294951F823301344BB61FB69002B08DBD7
:1046F000FB690F2B05DCBB69002B02DBBB690F2BB1
:1047000003DD2248FDF704F937E04FF44872012138
:10471000002000F0B3F84FF448720121012000F0AE
:10472000ADF840F2B5537B61FFF74EFF3861FFF7FC
:1047300055FFF8603A697B6AD31ABB60FA683B6A36
:10474000D31A7B60BA687B681344DA0F13445B109A
:104750003B603A687B699A4203DA012001F0A2FAD1
:10476000E2E700BF00F054F8054AFB691360044A11
:10477000BB695360642001F095FA2837BD4680BDBF
:104780005C140020CCFB0008DCFB0008D8EE00081D
:1047900080B500AF4FF496614FF402709FED080AA8
:1047A00000F0FEF8074B9B6803335A4203F0030303
:1047B00002F0030258BF5342024A936000BF80BD1B
:1047C0000000B4425C14002080B500AF4FF4966145
:1047D0004FF402709FED080A00F0E2F8074B9B6867
:1047E00001335A4203F0030302F0030258BF53425D
:1047F000024A936000BF80BD0000B4C25C14002078
:1048000080B500AFFFF7E0FFFFF7DEFF00BF80BD20
:1048100080B400AF0A4B1B6800225A63084B1B6828
:1048200000229A63064B1B680022DA63044B1B6864
:1048300000221A6400BFBD465DF8047B704700BFCC
:104840008403002080B500AF0B4B1B6801225A6324
:10485000094B1B6801229A63074B1B680122DA632C
:10486000054B1B6801221A644FF4FA7001F01AFA22
:10487000FFF7CEFF00BF80BD8403002080B584B069
:1048800000AF0346FB710B46BB711346BB80FB793F
:10489000002B15D1BB79002B09D01D4B1B68BA88A2
:1048A0009A63002240211B4802F03AF92BE0184B92
:1048B0001B68BA885A63164B1B6800229A6322E071
:1048C000BB79002B14BF01230023DBB283F001036B
:1048D000DBB2FB73FB7B03F00103FB73FB7B002B61
:1048E00009D00B4B1B68BA881A64002201210A48C0
:1048F00002F016F907E0064B1B6800221A64044B0D
:104900001B68BA88DA6300BF1037BD4680BD00BFA0
:1049100084030020000002400004024080B485B0FF
:1049200000AF87ED030AC7ED020A87ED011A97ED84
:10493000037AD7ED027AB4EEE77AF1EE10FA01D5F8
:10494000BB680BE097ED037AD7ED017AB4EEE77A16
:10495000F1EE10FA01DD7B6800E0FB6807EE903AAB
:10496000B0EE670A1437BD465DF8047B704700005F
:1049700080B500AF074B4FF000021A60064B4FF0B6
:1049800000021A6001F082F90346044A136000BF76
:1049900080BD00BFCC140020D0140020C41400201F
:1049A00080B598B000AF87ED030AB8607960BB6846
:1049B000312B01DC3223BB60BB68B3F57A7F02DDAB
:1049C0004FF47A73BB60FFF7D3FF4FF00003FB6532
:1049D00001F05CF9B864D7ED037AF5EEC07AF1EE38
:1049E00010FA01DB012301E04FF0FF337B64D7EDC8
:1049F000037AF0EEE77AC7ED107A4FF07F53FB634E
:104A0000844BBB6301F042F9B86501F03FF978636C
:104A10007A6BBB6DD31A07EE903AB8EE677ADFED8A
:104A20007E6AC7EE267AC7ED157AD7ED157AF5EED0
:104A3000C07AF1EE10FA01D8784B7B657B6BBB65D1
:104A4000FDF7E4FDFDF7A8FD87ED0C0A97ED0C7A64
:104A5000D7ED157A67EE277A97ED177A77EE277AF2
:104A6000C7ED177AD7ED177AF0EEE77AC7ED0B7A34
:104A700097ED107AD7ED0B7A77EE677AC7ED0A7A61
:104A800097ED0A7AD7ED0F7AB4EEE77AF1EE10FAE5
:104A90000BD8D7ED0C7AF0EEE77A97ED0E7AB4EEFC
:104AA000E77AF1EE10FA00F3A88001F0EFF8024681
:104AB000BB6CD31A7A689A42C0F0A180584B93ED30
:104AC000007AD7ED0A7A67EE277A564B93ED007A93
:104AD000B0EE471ADFED540AB0EE670AFFF71EFF8B
:104AE000B0EE407A7B6C07EE903AF8EEE77A67EE2C
:104AF000277AC7ED097AD7ED0C0A97ED090A00F07D
:104B000095F887ED080A7B6CDB0FFB617B6C002B53
:104B1000CCBF01230023DBB2BB61BB6807EE903A38
:104B2000B8EEE77AD7ED087A77EE677AB0EE670AE3
:104B300008F02AFAF0EE407AFDEEE77A17EE903AA6
:104B40003B65BB6807EE903AB8EEE77AD7ED087A96
:104B500077EE277AB0EE670A08F016FAF0EE407AA0
:104B6000FDEEE77A17EE903AFB643B6D002B01DA1D
:104B700000233B65FB6C002B01DA0023FB643B6DDB
:104B8000B3F57A7F02DD4FF47A733B65FB6CB3F5C6
:104B90007A7F02DD4FF47A73FB6428237B613B6DDF
:104BA000002B05DD3A6D7B699A4201DA7B693B6532
:104BB000FB6C002B05DDFA6C7B699A4201DA7B699C
:104BC000FB64FB69002B14BF01230023DBB23A6DA9
:104BD00092B219460020FFF751FEBB69002B14BFAB
:104BE00001230023DBB2FA6C92B219460120FFF7D1
:104BF00045FE032001F056F807E700BF00E000BFC4
:104C0000FFF706FE502001F04DF800BF6037BD46AB
:104C100080BD00BF0000A04100007A446F12833ABB
:104C200014000020180000200000000080B588B0AB
:104C300000AF87ED010AC7ED000A01F027F8B8615F
:104C40003C4B1B68BA69D31A07EE903AB8EE677A04
:104C5000DFED396AC7EE267AC7ED077AD7ED077A16
:104C6000F5EEC07AF1EE10FA01D8344BFB61314A0F
:104C7000BB69136097ED017AD7ED007A77EE677A1A
:104C8000C7ED057A97ED057AD7ED077A27EE277AF3
:104C90002B4BD3ED007A77EE277A294BC3ED007AC0
:104CA000274BD3ED007A9FED247AB1EE477ADFED02
:104CB000226AB0EE661AF0EE470AB0EE670AFFF716
:104CC0002DFEF0EE407A1E4BC3ED007A1D4BD3ED66
:104CD000007A97ED057A77EE676A97ED077AC6EE68
:104CE000877AC7ED047A174A7B691360164B93EDF8
:104CF000007AD7ED057A27EE277A144BD3ED006AB8
:104D00000F4BD3ED007A66EEA77A37EE277A104B79
:104D1000D3ED006AD7ED047A66EEA77A77EE277AAC
:104D2000C7ED037AFB6807EE903AB0EE670A2037CA
:104D3000BD4680BDC414002000007A446F12033BBE
:104D4000CC140020D01400200C000020C814002037
:104D50001000002080B588B000AF786007F10C0328
:104D600000221A605A609A60DA600023FB837B6835
:104D7000FB6001233B6104237B6107F10C031946AF
:104D8000184801F077F90346002B04D01648FCF7C9
:104D9000BFFD002322E0134800F0ECFF0346002B88
:104DA00004D01248FCF7B4FD002317E064210D483D
:104DB00001F0C7F80346002B07D00D48FCF7A8FD0B
:104DC000084801F08BF8002308E0064801F044F998
:104DD0000346FB83034801F081F8FB8B184620371C
:104DE000BD4680BD54020020E0F1000800F200083A
:104DF00018F2000890B595B000AFAA4B07F1340443
:104E00000FCB84E80F00A84B07F124040FCB84E8F4
:104E10000F00A64B07F114040FCB84E80F00A44A3F
:104E200007F10C0392E8030083E803000023FB640E
:104E300060E0FB6C9B0050333B4453F83C0CFB6C34
:104E40005B0050333B4433F8443C0022194601F0E8
:104E500067FE0A2000F026FFFB6C9B0050333B44AA
:104E600053F82C3C1846FFF775FF0346A7F8483067
:104E7000FB6C9B0050333B4453F83C0CFB6C5B00D9
:104E800050333B4433F8443C0122194601F048FEBC
:104E90000A2000F007FFFB6C9B0050333B4453F8A3
:104EA0002C3C1846FFF756FF0346A7F84630B7F8E4
:104EB0004620B7F84830D31A9BB21AB2FB6C5B009D
:104EC00050333B4423F84C2CFB6C9B0050333B4449
:104ED00053F83C0CFB6C5B0050333B4433F8443CD0
:104EE0000022194601F01CFE322000F0DBFEFB6CB4
:104EF0000133FB64FB6C032B9BDD0020FFF72AFFD3
:104F000003461A466B4B1A80B7F906309AB2694BC2
:104F10005A80B7F90A309AB2664B9A80B7F90830CE
:104F20009AB2644BDA80B7F904309AB2614B1A81B5
:104F3000614B93F82230002B32D05E4B1C8900204D
:104F400000F076F903469C4207D85A4B5C88012052
:104F500000F06EF903469C4201D9012300E00023D2
:104F600003F00103DAB2534B9A72524BDC880220F1
:104F700000F05EF903469C428CBF01230023DAB2A5
:104F80004C4BDA724B4B9C88032000F051F90346DE
:104F90009C428CBF01230023DAB2464B1A7327E0F0
:104FA000444B1B89B3F5FA6F04D8424B5B88B3F5C9
:104FB000FA6F01D9012300E0002303F00103DAB204
:104FC0003C4B9A723B4BDB8840F2DC5293428CBFE5
:104FD00001230023DAB2374BDA72364B9B8840F25A
:104FE000DC5293428CBF01230023DAB2314B1A7397
:104FF000314B93F82230002B50D02F4B1B8AC73BEC
:105000002C4A1288934221DC2B4B1B8A03F2F313A8
:10501000284A1288934219DB264B1B8940F6AB5273
:10502000934213D8234B5B8840F6AB5293420DD882
:10503000204BDB8840F6AB52934207D81D4B9B8830
:1050400040F6AB52934201D8012300E0002387F8D9
:105050004B3097F84B3003F0010387F84B3097F84B
:105060004B3083F00103DBB2002B0DD0134B1B78C8
:105070000133DAB2114B1A70104B1B78052B0DD986
:105080000F4B00221A7009E00C4B1B78002B05D047
:105090000A4B1B78013BDAB2084B1A7000BF543739
:1050A000BD4690BD68F2000878F2000888F200085A
:1050B00098F2000870140020D41400200815002075
:1050C0001C000020B0B58EB000AF4B48FCF720FCB0
:1050D0004A4B5B6C03F48073002B03D04848FCF709
:1050E00017FC02E04748FCF713FC444B1B6B03F032
:1050F0000103002B03D04448FCF70AFC02E04348BC
:10510000FCF706FC424B1B6C012B03D14148FCF71A
:10511000FFFB05E03E4B1B6C19463F48FCF70EFCBD
:105120003E48FCF7F5FB3E4B07F120041D460FCD32
:105130000FC42B6823603B4B07F10C041D460FCDB9
:105140000FC42B68236000237B634BE07B6B9B00C9
:1051500038333B4453F8183C1846FFF7FBFD034631
:105160001A467B6B5B0038333B4423F8382C7B6B4F
:105170009B0038333B4453F82C1C7B6B9B0038332B
:105180003B4453F8183C002B1FD07B6B9B003833FB
:105190003B4453F8183C022B15D07B6B9B003833F3
:1051A0003B4453F8183C032B0BD07B6B9B003833EC
:1051B0003B4453F8183C042B01D1042206E005229D
:1051C00004E0032202E0022200E000227B6B5B008D
:1051D00038333B4433F8383C1348FCF7AFFB7B6B68
:1051E00001337B637B6B042BB0DD1048FCF790FB35
:1051F00000BF3837BD46B0BD6CF40008003802402F
:1052000090F40008ACF40008C8F40008E4F40008C6
:105210005402002000F5000818F5000830F50008D9
:1052200060F50008ACF5000850F5000848F40008E7
:1052300080B483B000AF78607B68002B0ADB7B68AA
:10524000032B07DC0D4B93F8223083F00103DBB214
:10525000002B08D07B68012B02DC4FF4FA6307E0D7
:1052600040F2DC5304E0054A7B68043332F8133023
:1052700018460C37BD465DF8047B7047D4140020F7
:1052800080B483B000AF00237B60104B5B6C0F4A8F
:1052900043F4804353640D4B5B6C03F480437B60A9
:1052A0007B6800233B60094B1B6C084A43F080532A
:1052B0001364064B1B6C03F080533B603B6800BFDC
:1052C0000C37BD465DF8047B704700BF00380240D4
:1052D00080B58AB000AF786007F1140300221A602D
:1052E0005A609A60DA601A617B681B68174A9342B9
:1052F00027D100233B61164B5B6C154A43F4807346
:105300005364134B5B6C03F480733B613B69002374
:10531000FB600F4B1B6B0E4A43F0010313630C4BF6
:105320001B6B03F00103FB60FB683D237B610323E0
:10533000BB610023FB6107F114031946054801F026
:105340006BFA00BF2837BD4680BD00BF002001407A
:10535000003802400000024080B58AB000AF78609B
:1053600007F1140300221A605A609A60DA601A6129
:105370007B681B68194A93422CD100233B61184B70
:105380001B6C174A43F480431364154B1B6C03F4E6
:1053900080433B613B690023FB60114B1B6B104A50
:1053A00043F0020313630E4B1B6B03F00203FB601D
:1053B000FB684FF460437B610223BB610023FB6108
:1053C00003233B6205237B6207F11403194605485A
:1053D00001F022FA00BF2837BD4680BD00380040EA
:1053E000003802400004024080B584B000AF78600D
:1053F0007B681B68184A934216D10023FB60174B49
:105400005B6C164A43F001035364144B5B6C03F06E
:105410000103FB60FB6800220721192001F033F92A
:10542000192001F04CF912E07B681B680C4A93428A
:105430000DD10023BB60094B1B6C084A43F00203EB
:105440001364064B1B6C03F00203BB60BB6800BF18
:105450001037BD4680BD00BF00000140003802404B
:105460000004004080B58CB000AF786007F11C03E9
:1054700000221A605A609A60DA601A617B681B68C1
:10548000B3F1804F4BD10023BB613F4B1B6C3E4AB5
:1054900043F0010313643C4B1B6C03F00103BB613D
:1054A000BB6900237B61384B1B6B374A43F0010318
:1054B0001363354B1B6B03F001037B617B69002396
:1054C0003B61314B1B6B304A43F0020313632E4B9D
:1054D0001B6B03F002033B613B694FF40043FB612C
:1054E00002233B6200237B620023BB620123FB6239
:1054F00007F11C031946254801F08EF90823FB61CA
:1055000002233B6200237B620023BB620123FB6218
:1055100007F11C0319461E4801F07EF930E07B6854
:105520001B681C4A93422BD10023FB60164B1B6C5B
:10553000154A43F004031364134B1B6C03F004037C
:10554000FB60FB680023BB600F4B1B6B0E4A43F0F4
:10555000020313630C4B1B6B03F00203BB60BB68BD
:10556000C023FB6102233B6200237B620023BB62FA
:105570000223FB6207F11C031946054801F04CF9B0
:1055800000BF3037BD4680BD0038024000000240F9
:10559000000402400008004080B58AB000AF786087
:1055A00007F1140300221A605A609A60DA601A61E7
:1055B0007B681B68334A93421FD100233B61324B07
:1055C0001B6B314A43F0010313632F4B1B6B03F03A
:1055D00001033B613B694FF480637B610223BB6144
:1055E0000023FB6100233B6201237B6207F114036C
:1055F0001946264801F010F940E07B681B68244AF0
:1056000093423BD10023FB601F4B1B6B1E4A43F0B0
:10561000010313631C4B1B6B03F00103FB60FB686E
:105620000023BB60184B1B6B174A43F00203136344
:10563000154B1B6B03F00203BB60BB68C0237B618F
:105640000223BB610023FB6100233B6202237B62D8
:1056500007F1140319460D4801F0DEF803237B61BE
:105660000223BB610023FB6100233B6202237B62B8
:1056700007F114031946074801F0CEF800BF283798
:10568000BD4680BD000001400038024000000240DD
:10569000000400400004024080B58AB000AF78608A
:1056A00007F1140300221A605A609A60DA601A61E6
:1056B0007B681B681D4A934234D100233B611C4B1D
:1056C0005B6C1B4A43F020035364194B5B6C03F083
:1056D00020033B613B690023FB60154B1B6B144AA5
:1056E00043F001031363124B1B6B03F00103FB60D8
:1056F000FB684FF4C0537B610223BB610023FB6155
:1057000003233B6208237B6207F11403194609480F
:1057100001F082F800220621472000F0B4FF472064
:1057200000F0CDFF00BF2837BD4680BD001401400A
:10573000003802400000024080B400AF00BFFDE727
:1057400080B400AF00BFFDE780B400AF00BFFDE74D
:1057500080B400AF00BFFDE780B400AF00BFFDE73D
:1057600080B400AF00BFBD465DF8047B704780B4D5
:1057700000AF00BFBD465DF8047B704780B400AF4A
:1057800000BFBD465DF8047B704780B500AF00F0F8
:1057900069FA00BF80BD80B500AF022001F0F4F9C6
:1057A00000BF80BD80B500AF024802F01FFF00BF00
:1057B00080BD00BFF402002080B500AF4FF48060D0
:1057C00001F0E2F900BF80BD80B500AF024803F0F0
:1057D0003BFE00BF80BD00BF1404002080B400AFBA
:1057E00001231846BD465DF8047B704780B582B042
:1057F00000AF7860396005F04DFB034616221A6051
:105800004FF0FF3318460837BD4680BD80B582B0E3
:1058100000AF78604FF0FF317868FFF7E7FF00BF17
:10582000FDE780B586B000AFF860B9607A6000230C
:105830007B610AE0AFF300800146BB685A1CBA6086
:10584000CAB21A707B6901337B617A697B689A42BC
:10585000F0DB7B6818461837BD4680BD80B586B042
:1058600000AFF860B9607A6000237B6109E0BB6833
:105870005A1CBA601B781846AFF300807B6901336D
:105880007B617A697B689A42F1DB7B68184618373E
:10589000BD4680BD80B483B000AF78604FF0FF3369
:1058A00018460C37BD465DF8047B704780B483B062
:1058B00000AF786039603B684FF400525A600023B3
:1058C00018460C37BD465DF8047B704780B483B042
:1058D00000AF7860012318460C37BD465DF8047BA5
:1058E000704780B485B000AFF860B9607A6000237B
:1058F00018461437BD465DF8047B704780B586B006
:1059000000AF7860144A154BD31A7B617B693B6109
:10591000134B1B68002B02D1114B124A1A60104B1B
:105920001A687B6813443A699A4207D205F0B2FAC2
:1059300003460C221A604FF0FF3309E0084B1B6846
:10594000FB60074B1A687B681344054A1360FB68C9
:1059500018461837BD4680BD000002200004000034
:105960000C1500206016002080B400AF064BD3F861
:105970008830054A43F47003C2F8883000BFBD4642
:105980005DF8047B704700BF00ED00E080B582B099
:1059900000AF03460A46FB711346BB71FB79002B2F
:1059A00014BF01230023DBB21A461021084801F07E
:1059B000B7F8BB79002B14BF01230023DBB21A46D2
:1059C0002021034801F0ACF800BF0837BD4680BD78
:1059D0000004024080B584B000AFF86087ED020A91
:1059E000C7ED010AFB687A681A6097ED017AF6EE56
:1059F000006AC7EE267AFB68C3ED017AFB68BA68D5
:105A0000DA60FB684FF000029A6000F03FF902464E
:105A1000FB681A61FB6801221A75FB68D3ED006A06
:105A2000FB6893ED017AC6EE877AFB68C3ED067AD0
:105A300000BF1037BD4680BD80B586B000AF78602E
:105A40007B681B7D83F00103DBB2002B61D100F08A
:105A50001DF978617B681B697A69D31A07EE903A61
:105A6000B8EE677ADFED2D6AC7EE267AC7ED047AC5
:105A70007B68D3ED067A97ED047AB4EEE77AF1EE1F
:105A800010FA0AD57B6893ED017AD7ED047A67EEB8
:105A9000277A7B68C3ED027A3CE07B68D3ED067A17
:105AA00077EEA77A97ED047AB4EEE77AF1EE10FA82
:105AB00027D57B68D3ED067A97ED047A77EE677A7F
:105AC000C7ED037A7B6893ED007A7B68D3ED016ABA
:105AD000D7ED037A66EEA77A77EE677A7B68C3ED37
