:020000040800F2
:10000000000002207D560008E1530008E953000873
:10001000F1530008F95300080154000800000000E3
:10002000000000000000000000000000095400086B
:10003000175400080000000025540008335400083D
:10004000CD560008CD560008CD560008CD56000804
:10005000CD560008CD560008CD5600083F54000884
:10006000CD560008CD560008CD560008CD560008E4
:10007000CD560008CD560008CD560008CD560008D4
:10008000CD560008CD560008CD56000800000000EF
:10009000000000000000000000000000CD56000835
:1000A000CD5600084D540008CD560008CD56000826
:1000B000CD560008CD560008CD560008CD56000894
:1000C000CD560008CD560008CD560008CD56000884
:1000D000CD560008CD560008CD560008000000009F
:1000E00061540008CD560008CD56000800000000FD
:1000F000000000000000000000000000CD560008D5
:1001000000000000CD560008CD560008CD5600086E
:1001100000000000000000000000000000000000DF
:10012000CD560008CD560008CD560008CD56000823
:10013000CD56000800000000000000000000000094
:10014000000000000000000000000000CD56000884
:10015000CD560008CD560008CD5600087154000851
:10016000CD560008CD560008000000000000000039
:10017000000000000000000000000000000000007F
:1001800000000000CD560008000000000000000044
:08019000CD560008CD56000811
:1001A00010B5054C237833B9044B13B10448AFF3B1
:1001B00000800123237010BDDC010020000000003E
:1001C00098CA000808B5034B1BB103490348AFF3B5
:1001D000008008BD00000000E001002098CA00086F
:1001E00001F0FF01102A2BDB10F0070F08D010F8E8
:1001F000013B013A8B422DD010F0070F42B3F6D1EC
:10020000F0B441EA012141EA014122F007047FF004
:1002100000070023F0E80256083C85EA010586EA5B
:10022000010685FA47F5A3FA87F586FA47F6A5FA97
:1002300087F68EB9EED1F0BC01F0FF0102F00702A3
:1002400032B110F8013B013A83EA010313B1F8D14E
:100250000020704701387047002D06BF354603382F
:10026000073815F0010F07D1013015F4807F02BF68
:10027000013015F4C03F0130F0BC0138704700BFB9
:10028000034613F8012B002AFBD1181A01387047D6
:1002900081F0004102E000BF83F0004330B54FEA37
:1002A00041044FEA430594EA050F08BF90EA020FA4
:1002B0001FBF54EA000C55EA020C7FEA645C7FEA37
:1002C000655C00F0E2804FEA5454D4EB5555B8BF5A
:1002D0006D420CDD2C4480EA020281EA030382EACB
:1002E000000083EA010180EA020281EA0303362D5D
:1002F00088BF30BD11F0004F4FEA01314FF4801C30
:100300004CEA113102D0404261EB410113F0004F41
:100310004FEA03334CEA133302D0524263EB4303F8
:1003200094EA050F00F0A780A4F10104D5F1200E96
:100330000DDB02FA0EFC22FA05F2801841F10001F1
:1003400003FA0EF2801843FA05F359410EE0A5F1C5
:1003500020050EF1200E012A03FA0EFC28BF4CF0F6
:10036000020C43FA05F3C01851EBE37101F00045AC
:1003700007D54FF0000EDCF1000C7EEB00006EEBB9
:100380000101B1F5801F1BD3B1F5001F0CD3490843
:100390005FEA30004FEA3C0C04F101044FEA44529A
:1003A00012F5800F80F09A80BCF1004F08BF5FEA21
:1003B000500C50F1000041EB045141EA050130BD01
:1003C0005FEA4C0C404141EB0101013C28BFB1F513
:1003D000801FE9D291F0000F04BF01460020B1FA5E
:1003E00081F308BF2033A3F10B03B3F120020CDA31
:1003F0000C3208DD02F1140CC2F10C0201FA0CF00F
:1004000021FA02F10CE002F11402D8BFC2F1200C73
:1004100001FA02F120FA0CFCDCBF41EA0C01904029
:10042000E41AA2BF01EB0451294330BD6FEA040472
:100430001F3C1CDA0C340EDC04F11404C4F120025D
:1004400020FA04F001FA02F340EA030021FA04F36F
:1004500045EA030130BDC4F10C04C4F1200220FAC6
:1004600002F001FA04F340EA0300294630BD21FA04
:1004700004F0294630BD94F0000F83F4801306BFCA
:1004800081F480110134013D4EE77FEA645C18BFBE
:100490007FEA655C29D094EA050F08BF90EA020F55
:1004A00005D054EA000C04BF1946104630BD91EA4D
:1004B000030F1EBF0021002030BD5FEA545C05D150
:1004C0004000494128BF41F0004130BD14F580048F
:1004D0003CBF01F5801130BD01F0004545F0FE4103
:1004E00041F470014FF0000030BD7FEA645C1ABF38
:1004F000194610467FEA655C1CBF0B46024650EA6F
:10050000013406BF52EA033591EA030F41F400219A
:1005100030BD00BF90F0000F04BF0021704730B520
:100520004FF4806404F132044FF000054FF00001F5
:1005300050E700BF90F0000F04BF0021704730B5B6
:100540004FF4806404F1320410F0004548BF40428B
:100550004FF000013EE700BF42004FEAE2014FEAE0
:1005600031014FEA02701FBF12F07F4393F07F4FBB
:1005700081F06051704732F07F4208BF704793F0BE
:100580007F4F04BF41F40021704730B54FF46074D1
:1005900001F0004521F000411CE700BF50EA0102D4
:1005A00008BF704730B54FF000050AE050EA01027D
:1005B00008BF704730B511F0004502D5404261EBED
:1005C00041014FF4806404F132045FEA915C3FF42E
:1005D000D8AE4FF003025FEADC0C18BF03325FEACB
:1005E000DC0C18BF033202EBDC02C2F1200300FA7C
:1005F00003FC20FA02F001FA03FE40EA0E0021FAA1
:1006000002F11444BDE600BF70B54FF0FF0C4CF48E
:10061000E06C1CEA11541DBF1CEA135594EA0C0F40
:1006200095EA0C0F00F0DEF82C4481EA030621EA7B
:100630004C5123EA4C5350EA013518BF52EA0335B6
:1006400041F4801143F4801338D0A0FB02CE4FF068
:100650000005E1FB02E506F00042E0FB03E54FF098
:100660000006E1FB03569CF0000F18BF4EF0010E90
:10067000A4F1FF04B6F5007F64F5407404D25FEA8C
:100680004E0E6D4146EB060642EAC62141EA55513F
:100690004FEAC52040EA5E504FEACE2EB4F1FD0C81
:1006A00088BFBCF5E06F1ED8BEF1004F08BF5FEAFF
:1006B000500E50F1000041EB045170BD06F00046B1
:1006C00046EA010140EA020081EA0301B4EB5C045E
:1006D000C2BFD4EB0C0541EA045170BD41F4801156
:1006E0004FF0000E013C00F3AB8014F1360FDEBF7B
:1006F000002001F0004170BDC4F10004203C35DA57
:100700000C341BDC04F11404C4F1200500FA05F3D9
:1007100020FA04F001FA05F240EA020001F000427A
:1007200021F0004110EBD37021FA04F642EB0601F0
:100730005EEA430E08BF20EAD37070BDC4F10C041A
:10074000C4F1200500FA04F320FA05F001FA04F2DE
:1007500040EA020001F0004110EBD37041F10001CA
:100760005EEA430E08BF20EAD37070BDC4F12005D5
:1007700000FA05F24EEA020E20FA04F301FA05F23D
:1007800043EA020321FA04F001F0004121FA04F2E5
:1007900020EA020000EBD3705EEA430E08BF20EAB5
:1007A000D37070BD94F0000F0FD101F000464000EF
:1007B00041EB010111F4801F08BF013CF7D041EA71
:1007C000060195F0000F18BF704703F00046520075
:1007D00043EB030313F4801F08BF013DF7D043EA46
:1007E0000603704794EA0C0F0CEA135518BF95EAFC
:1007F0000C0F0CD050EA410618BF52EA4306D1D183
:1008000081EA030101F000414FF0000070BD50EAA1
:10081000410606BF1046194652EA430619D094EA2B
:100820000C0F02D150EA013613D195EA0C0F05D115
:1008300052EA03361CBF104619460AD181EA030169
:1008400001F0004141F0FE4141F470014FF0000021
:1008500070BD41F0FE4141F4780170BD70B54FF0BC
:10086000FF0C4CF4E06C1CEA11541DBF1CEA13553C
:1008700094EA0C0F95EA0C0F00F0A7F8A4EB05041E
:1008800081EA030E52EA03354FEA013100F0888015
:100890004FEA03334FF0805545EA131343EA1263DE
:1008A0004FEA022245EA111545EA10654FEA002693
:1008B0000EF000419D4208BF964244F1FD0404F54C
:1008C000407402D25B084FEA3202B61A65EB0305A8
:1008D0005B084FEA32024FF480104FF4002CB6EB65
:1008E000020E75EB030E22BFB61A754640EA0C00E5
:1008F0005B084FEA3202B6EB020E75EB030E22BF25
:10090000B61A754640EA5C005B084FEA3202B6EB65
:10091000020E75EB030E22BFB61A754640EA9C0024
:100920005B084FEA3202B6EB020E75EB030E22BFF4
:10093000B61A754640EADC0055EA060E18D04FEAB2
:10094000051545EA16754FEA06164FEAC30343EA52
:1009500052734FEAC2025FEA1C1CC0D111F4801F1F
:100960000BD141EA00014FF000004FF0004CB6E718
:1009700011F4801F04BF01430020B4F1FD0C88BFB7
:10098000BCF5E06F3FF6AFAEB5EB030C04BFB6EBC2
:10099000020C5FEA500C50F1000041EB045170BDB5
:1009A0000EF0004E4EEA113114EB5C04C2BFD4EBE2
:1009B0000C0541EA045170BD41F480114FF0000E66
:1009C000013C90E645EA060E8DE60CEA135594EAE2
:1009D0000C0F08BF95EA0C0F3FF43BAF94EA0C0FE5
:1009E0000AD150EA01347FF434AF95EA0C0F7FF45A
:1009F00025AF104619462CE795EA0C0F06D152EAAE
:100A000003353FF4FDAE1046194622E750EA410691
:100A100018BF52EA43067FF4C5AE50EA41047FF4A2
:100A20000DAF52EA43057FF4EBAE12E74FF0FF3C07
:100A300006E000BF4FF0010C02E000BF4FF0010CD8
:100A40004DF804CD4FEA410C7FEA6C5C4FEA430C51
:100A500018BF7FEA6C5C1BD001B050EA410C0CBFA0
:100A600052EA430C91EA030F02BF90EA020F002002
:100A7000704710F1000F91EA030F58BF994208BF69
:100A800090422CBFD8176FEAE37040F00100704726
:100A90004FEA410C7FEA6C5C02D150EA013C07D17D
:100AA0004FEA430C7FEA6C5CD6D152EA033CD3D0C8
:100AB0005DF8040B704700BF8446104662468C46C2
:100AC0001946634600E000BF01B5FFF7B7FF0028F5
:100AD00048BF10F1000F01BD4DF808EDFFF7F4FF1E
:100AE0000CBF012000205DF808FB00BF4DF808EDA9
:100AF000FFF7EAFF34BF012000205DF808FB00BFCC
:100B00004DF808EDFFF7E0FF94BF012000205DF8ED
:100B100008FB00BF4DF808EDFFF7CEFF94BF0120A2
:100B200000205DF808FB00BF4DF808EDFFF7C4FF9B
:100B300034BF012000205DF808FB00BF4FEA410CE4
:100B40007FEA6C5C02D150EA013C0AD14FEA430CC7
:100B50007FEA6C5C02D152EA033C02D14FF0000004
:100B600070474FF0010070474FEA410212F5001242
:100B700015D211D56FF47873B3EB625212D94FEAE4
:100B8000C12343F0004343EA505311F0004F23FACE
:100B900002F018BF404270474FF00000704750EA23
:100BA000013005D111F0004008BF6FF000407047E0
:100BB0004FF00000704700BF53B94AB9002908BF81
:100BC00000281CBF4FF0FF314FF0FF3000F088B914
:100BD000ADF1080C6DE904CE00F006F8DDF804E094
:100BE000DDE9022304B070472DE9F047089D8E46E9
:100BF00004468846002B4AD18A42174662D9B2FA87
:100C000082F64EB1C6F1200301FA06F820FA03F38A
:100C1000B74043EA0808B4404FEA174E1FFA87FC72
:100C2000B8FBFEF1230C0EFB118843EA084301FBDD
:100C30000CF29A4209D9FB1801F1FF3080F0EA80EA
:100C40009A4240F2E78002393B449A1AA3B2B2FBBF
:100C5000FEF00EFB102243EA024300FB0CFC9C4515
:100C600009D9FB1800F1FF3280F0D6809C4540F294
:100C7000D3803B44023840EA0140A3EB0C0300213F
:100C80001DB1F3400022C5E90032BDE8F0878B4278
:100C900005D90DB1C5E9000100210846F5E7B3FA11
:100CA00083F1002946D1734502D3824200F20581C7
:100CB000841A6EEB030201209046002DE5D0C5E9B1
:100CC0000048E2E7002A00F09080B2FA82F6002E97
:100CD00040F0A4808A1A030C4FEA174E80B2BCB2CF
:100CE0000121B2FBFEFC0EFB1C2243EA024304FB83
:100CF0000CF29A4207D9FB180CF1FF3802D29A4243
:100D000000F2E080C4469B1AB3FBFEF20EFB1233E6
:100D100040EA034302FB04F49C4207D9FB1802F1AA
:100D2000FF3002D29C4200F2CA8002461B1B42EAFC
:100D30000C40A5E7C1F120068B4022FA06F71F43BD
:100D40000EFA01F420FA06F32EFA06FE4FEA1749CE
:100D5000234300FA01F81FFA87FCBEFBF9F01C0CD4
:100D600009FB10EE44EA0E4400FB0CFEA64502FA15
:100D700001F209D93C1900F1FF3A80F09C80A645A8
:100D800040F2998002383C44A4EB0E041FFA83FE23
:100D9000B4FBF9F309FB13444EEA044403FB0CFCD7
:100DA000A44508D93C1903F1FF3E80F08280A44598
:100DB0007FD9023B3C4443EA0040A4EB0C04A0FB77
:100DC00002EC64457346E14662D35FD05DB1B8EB97
:100DD000030264EB090404FA06F622FA01F31E4347
:100DE000CC40C5E9006400214FE7B1FBF2FC010CE7
:100DF00041EA0E4180B240EA01423B4638463C4659
:100E0000B846BE462026B1FBF7F1A2EB080241EA44
:100E10000C4166E7014618E710462CE7C6F12002B0
:100E20002EFA02F3B740B14020FA02F24FEA174E11
:100E30000A43B3FBFEF8BCB20EFB1833110C41EAB7
:100E4000034108FB04F9B04089454FEA104380B2E2
:100E50003ED9791808F1FF3C01D289451FD8A1EB92
:100E60000901B1FBFEF909FB04F80EFB191192B25E
:100E700042EA0142424529D2BA1809F1FF31C4D2EF
:100E80004245C2D2A9F102013A44BEE7F0459DD2E3
:100E9000BEEB02036CEB070C0138E14696E7A7EBCB
:100EA00009094944A8F1020CB1FBFEF909FB04F859
:100EB000DBE773467FE7504666E70846FDE63B44BE
:100EC000023A33E7ACF1020C3B441CE749469CE78D
:100ED000A1EB0901C446B1FBFEF909FB04F8C4E724
:100EE000704700BF80B584B000AF03460A46FB8060
:100EF0001346BB80FB88002B06D100F037F8BB8877
:100F0000184604F057FC2AE0FB88164A92FBF3F3DC
:100F1000FB60FB68B3F5803F02D34FF6FF73FB60C5
:100F2000FB68132B01D81423FB600F4B1B68FA6876
:100F3000013ADA62FB68013B0B4AD3600A4B1B683B
:100F4000FA685208DA630821074806F08FFEBB886A
:100F5000184604F02FFC0821034806F037FF10372D
:100F6000BD4680BD00093D00B002002080B500AF45
:100F70000821024806F02AFF00BF80BDB002002011
:100F800080B500AFC82140F20B20FFF7ABFF322144
:100F90000020FFF7A7FFC82140F29320FFF7A2FF30
:100FA00032210020FFF79EFF4FF496714FF44470FA
:100FB000FFF798FF00BF80BD80B500AF96214FF4CA
:100FC0004470FFF78FFF32210020FFF78BFFC8210D
:100FD00040F21740FFF786FF00BF80BD80B500AF2D
:100FE000642140F20B20FFF77DFF642140F2932043
:100FF000FFF778FF64214FF44470FFF773FFC821B7
:1010000040F21740FFF76EFF64210020FFF76AFFF0
:10101000642140F21740FFF765FF64214FF44470EC
:10102000FFF760FF4FF4967140F21740FFF75AFF49
:1010300000BF80BD80B582B000AF00237B600AE0B6
:10104000C821DC20FFF74EFF64210020FFF74AFF94
:101050007B6801337B607B68022BF1DD00BF00BF42
:101060000837BD4680BD000080B5ADF5036D00AF0B
:10107000634800F04DFC0023C7F82C381DE0002326
:10108000C7F8283810E05F49D7F82C381A01D7F88C
:10109000283813441B010B4442F20F721A60D7F830
:1010A00028380133C7F82838D7F828380F2BEADD5D
:1010B000D7F82C380133C7F82C38D7F82C380F2B39
:1010C000DDDD002387F827384F4B1A684F4B1B682C
:1010D0004C49120113441B010B4404331B78002BB1
:1010E00015D0494B1A68494B1B68464912011344F5
:1010F0001B010B4400221A60012387F82738424B5A
:101100001B68424A12681946414800F017FC414BDF
:101110001A683E4B1B683B49120113441B010B44E8
:1011200004331B78002B15D03A4B1A68374B1B68D9
:101130003449120113441B010B4400221A6001239D
:1011400087F82738334B1B68304A126819463048F5
:1011500000F0F4FB2C4B1A682F4B1B682949120135
:1011600013441B010B4404331B78002B15D0264B72
:101170001A68294B1B682349120113441B010B44B5
:1011800000221A60012387F827381F4B1B68224A68
:10119000126819461E4800F0D1FB1E4B1A681E4B00
:1011A0001B681849120113441B010B4404331B78BC
:1011B000002B15D0174B1A68174B1B6811491201E9
:1011C00013441B010B4400221A60012387F82738BF
:1011D000104B1B68104A126819460D4800F0AEFB10
:1011E00097F8273883F00103DBB2002B1AD00B48A5
:1011F00000F08EFB0A4B42F20F721A60BAE100BF98
:10120000B0CA00081804002060F0000864F000086C
:10121000ECCA000868F000086CF0000808CB000871
:10122000681400200023C7F820380023C7F81C38B2
:10123000B84B1A68B84B1B68B849120113441B011C
:101240000B4404331B78002B22D0B24B1A68B24BEC
:101250001B68B249120113441B010B441B68002B8D
:1012600016D1AC4B196807F50363A3F58663D7F86D
:101270001C2843F82210D7F81C385A1CC7F81C2821
:10128000A54A116807F50362A2F5036242F823102C
:10129000A34B1A68A04B1B68A049120113441B0101
:1012A0000B4404331B78002B22D09D4B1A689A4BB9
:1012B0001B689A49120113441B010B441B68002B45
:1012C00016D1974B196807F50363A3F58663D7F822
:1012D0001C2843F82210D7F81C385A1CC7F81C28C1
:1012E0008D4A116807F50362A2F5036242F82310E4
:1012F000884B1A688B4B1B688849120113441B01E9
:101300000B4404331B78002B22D0824B1A68854B88
:101310001B688249120113441B010B441B68002BFC
:1013200016D17C4B196807F50363A3F58663D7F8DC
:101330001C2843F82210D7F81C385A1CC7F81C2860
:10134000784A116807F50362A2F5036242F8231098
:10135000734B1A68734B1B687049120113441B01CD
:101360000B4404331B78002B22D06D4B1A686D4B55
:101370001B686A49120113441B010B441B68002BB4
:1013800016D1674B196807F50363A3F58663D7F891
:101390001C2843F82210D7F81C385A1CC7F81C2800
:1013A000604A116807F50362A2F5036242F8231050
:1013B0000023C7F81838C7E007F50363A3F5866371
:1013C000D7F8202853F82230C7F81038D7F820383B
:1013D0005A1CC7F8202807F50362A2F5036252F8E9
:1013E0002330C7F80C380023C7F81438A7E04E4A5A
:1013F000D7F8143852F82330D7F810281344C7F818
:1014000008384A4AD7F8143852F82330D7F80C284D
:101410001344C7F80438D7F80838002BC0F28A8084
:10142000D7F808380F2B00F38580D7F80438002B45
:10143000C0F28080D7F804380F2B7BDC3749D7F80F
:1014400008381A01D7F8043813441B010B4404333D
:101450001B78002B6ED03149D7F810381A01D7F815
:101460000C3813441B01CA18D7F814381344053339
:101470001B7883F00103DBB2002B5BD02749D7F840
:1014800010381A01D7F80C3813441B010B441B68A1
:101490000133C7F800382149D7F808381A01D7F8BE
:1014A000043813441B010B441B68D7F800289A42E8
:1014B00040DA1A49D7F808381A01D7F80438134423
:1014C0001B010B44D7F800281A60D7F81C38FE2BF4
:1014D0001CDC07F50363A3F58663D7F81C28D7F84F
:1014E000081843F82210D7F81C385A1CC7F81C28D3
:1014F00007F50362A2F50362D7F8041842F8231037
:10150000D7F818380133C7F8183813E0084800F046
:10151000FFF919E060F0000864F0000818040020EA
:1015200068F000086CF0000840F0000850F0000877
:1015300044CB0008D7F814380133C7F81438D7F86B
:101540001438032B7FF753AFD7F82028D7F81C386F
:101550009A42FFF631AF094B1B68094A1360084BEA
:101560001B681946074800F0E9F9D7F8181806482B
:1015700000F0E4F907F50367BD4680BD18040020BC
:101580006814002058CB000898CB000880B586B0BE
:1015900000AF724800F0BCF900237B614FF4807308
:1015A000BB6000233B6119E00023FB6010E06C4945
:1015B0003B691A01FB6813441B010B4404331B787D
:1015C000002B02D07B6901337B61FB680133FB6038
:1015D000FB680F2BEBDD3B6901333B613B690F2B54
:1015E000E2DD7B6907EE903AF8EEE76ABB6807EE4A
:1015F000903AB8EEE77AC6EE877A9FED5A7A67EEB0
:10160000877AC7ED017A584800F082F97868FEF7CA
:10161000A3FF02460B46554800F090F9BA68796975
:10162000534800F08BF9534B1B681946524800F0A1
:1016300085F9524800F06CF9514B1B6842F20E726A
:1016400093420CDC4E4B1B6819464E4800F076F96D
:101650004D4800F05DF94D4800F05AF905E04C485E
:1016600000F056F94B4800F053F94B4800F050F9A0
:10167000D7ED017A9FED497AF4EEC77AF1EE10FAD0
:101680000CD83F4B1B6842F20E72934206DC444872
:1016900000F03EF9434800F03BF925E0D7ED017A30
:1016A0009FED417AF4EEC77AF1EE10FA06D83F4882
:1016B00000F02EF93E4800F02BF915E0D7ED017A45
:1016C0009FED3C7AF4EEC77AF1EE10FA06D83A486C
:1016D00000F01EF9394800F01BF905E0384800F029
:1016E00017F9384800F014F9374800F011F9D7ED30
:1016F000017A9FED2A7AF4EEC77AF1EE10FA0FD84C
:101700001F4B1B6842F20E72934209DC2F4800F017
:10171000FFF82F4800F0FCF82E4800F0F9F815E02B
:10172000D7ED017A9FED2C7AF4EEC77AF1EE10FA3C
:1017300006DD2A4800F0ECF8294800F0E9F805E059
:10174000284800F0E5F8284800F0E2F8274800F0C3
:10175000DFF800BF1837BD4680BD00BFC4CB00080E
:10176000180400200000C842F4CB000810CC000888
:1017700034CC0008641400204CCC000874CC000861
:101780006814002094CC0008C4CC0008FCCC0008ED
:101790002CCD00085CCD000894CD00080000484224
:1017A000B4CD0008DCCD00080000824218CE00084D
:1017B0003CCE00080000A04280CE0008A0CE000869
:1017C000D4CE0008F4CE000834CF00085CCF000867
:1017D0009CCF0008C4CF000800009642F4CF000858
:1017E00020D0000860D0000894D00008CCD00008B9
:1017F00080B584B000AF3A4800F08AF8394800F06C
:1018000087F80023FB6006E0F968374800F096F897
:10181000FB680133FB60FB680F2BF5DD334800F0FC
:1018200077F80F23BB6040E0B968314800F086F8D4
:1018300000237B6030E02F497B681A01BB681344AA
:101840001B010B4404331B7883F00103DBB2002B34
:1018500003D0294800F05CF81BE026497B681A0198
:10186000BB6813441B010B441B6842F20F72934286
:1018700003D1224800F04CF80BE01E497B681A01A6
:10188000BB6813441B010B441B681946164800F043
:1018900055F87B6801337B607B680F2BCBDD1348E9
:1018A00000F036F8BB68013BBB60BB68002BBBDABD
:1018B000134B1B6842F20E72934206DC104B1B68FE
:1018C0001946104800F03AF802E00F4800F020F8FE
:1018D0000E4800F01DF800BF1037BD4680BD00BFA8
:1018E000F8D0000830D1000834D1000838D1000801
:1018F0003CD100081804002044D1000848D1000859
:101900006814002050D1000884D10008B4D1000828
:1019100080B582B000AF78607868FEF7B1FC03460E
:101920009AB24FF47A737968034807F089FA00BFD6
:101930000837BD4680BD00BFD00300200FB480B57E
:10194000C2B000AF07F58A7207F58473A3F58273FE
:101950001A6007F58473A3F5827307F108001B680A
:10196000D7F810214FF4807108F0BCFF07F108038D
:101970001846FFF7CDFF00BF07F58477BD46BDE8E9
:10198000804004B07047000080B584B002AF164BB1
:101990001B8807EE903AF8EEE77A9FED147A27EE6F
:1019A000877ADFED136AC7EE267AC7ED017A786889
:1019B000FEF7D2FD02460B460B49098800910D48FF
:1019C000FFF7BCFF084B1B8840F6B732934203D8A1
:1019D0000948FFF79DFF02E00848FFF799FF00BFA5
:1019E0000837BD4680BD00BF2C1400203333534060
:1019F0000000804510D8000828D8000844D8000806
:101A000080B500AF0B48FFF783FF0B48FFF796FF49
:101A10000A48FFF793FF0A48FFF790FF0948FFF7CE
:101A20008DFF0948FFF78AFF0848FFF771FF00BFE5
:101A300080BD00BF4CD8000874D80008A8D80008A2
:101A4000C8D80008F4D8000820D9000854D90008E4
:101A500080B584B000AF0346FB71FB7963F07F0370
:101A6000DBB27B7300233B7300224FF48051174895
:101A700004F0DEFD07F10D0164230122144805F096
:101A800004FB0346FB7307F10C0164230122104899
:101A900005F03FFC0346BB7301224FF480510B4815
:101AA00004F0C6FDFB7B002B02D1BB7B002B07D0D3
:101AB0000848FFF72DFF084B00221A70FF2300E0B3
:101AC0003B7B18461037BD4680BD00BF0004024076
:101AD000580200207CD90008F801002080B584B0AD
:101AE00000AF03460A46FB711346BB71FB793B739B
:101AF000BB797B7300224FF48051114804F098FDAC
:101B000007F10C01642302220E4805F0BEFA0346D9
:101B1000FB7301224FF48051094804F089FDFB7BDF
:101B2000002B05D00848FFF7F3FE084B00221A707F
:101B3000012003F03FFE00BF1037BD4680BD00BF4F
:101B40000004024058020020A0D90008F80100203B
:101B500080B582B000AF3C48FFF7DAFEC82003F042
:101B600029FE80216B20FFF7B9FFFA2003F022FE47
:101B700000216B20FFF7B2FF322003F01BFE012192
:101B80006B20FFF7ABFF322003F014FE00216C2026
:101B9000FFF7A4FF0A2003F00DFE6A20FFF758FFAD
:101BA0000346FB71FB7943F01003FB71FB79194687
:101BB0006A20FFF793FF0A2003F0FCFD042119209F
:101BC000FFF78CFF0A2003F0F5FD02211A20FFF732
:101BD00085FF0A2003F0EEFD08211B20FFF77EFFA2
:101BE0000A2003F0E7FD08211C20FFF777FF0A20F9
:101BF00003F0E0FD02211D20FFF770FF0A2003F033
:101C0000D9FD7520FFF724FF0346BB71BB79194648
:101C10000E48FFF793FEBB79702B09D0BB791946AC
:101C20000B48FFF78BFE0B4B00221A70002306E0D7
:101C30000948FFF76DFE074B01221A700123184671
:101C40000837BD4680BD00BFC8D90008F4D90008D8
:101C500008DA0008F801002030DA00082DE9B04366
:101C600088B004AF4E4B1B7883F00103DBB2002B2E
:101C700003D04C48FFF74CFE8EE04B48FFF748FE80
:101C80004A4B4FF47A721A614FF00003FB604FF039
:101C90000003BB604FF000037B6000233B602EE03D
:101CA00000F096F8424BB3F9003007EE903AF8EEA8
:101CB000E77A97ED037A77EE277AC7ED037A3C4B04
:101CC000B3F9023007EE903AF8EEE77A97ED027A30
:101CD00077EE277AC7ED027A354BB3F9043007EE79
:101CE000903AF8EEE77A97ED017A77EE277AC7ED2A
:101CF000017A032003F05EFD3B6801333B602B4B10
:101D00001A693B689A42CBD8284B1B6907EE903A78
:101D1000B8EE677AD7ED036AC6EE877A234BC3ED38
:101D2000007A224B1B6907EE903AB8EE677AD7ED3E
:101D3000026AC6EE877A1D4BC3ED017A1B4B1B6905
:101D400007EE903AB8EE677AD7ED016AC6EE877A69
:101D5000164BC3ED027A154B01221A73134B1B6805
:101D60001846FEF7F9FB80468946104B5B6818461B
:101D7000FEF7F2FB04460D460C4B9B681846FEF737
:101D8000EBFB02460B46CDE90223CDE90045424676
:101D90004B460848FFF7D2FD1037BD46BDE8B0837B
:101DA000F801002044DA000870DA0008FC01002085
:101DB0003C140020A4DA000880B400AF034B1B7869
:101DC0001846BD465DF8047B704700BFF80100204F
:101DD00080B584B000AF2F4B1B7883F00103DBB2DA
:101DE000002B03D02C48FFF793FD50E0C323FB7179
:101DF00000224FF48051294804F01AFCF91D642395
:101E00000122274805F041F90346FB73FB7B002BB9
:101E100009D001224FF48051204804F009FC2148E8
:101E2000FFF776FD33E007F10801642306221C4822
:101E300005F06FFA0346FB7301224FF480511748F7
:101E400004F0F6FBFB7B002B03D01748FFF760FD87
:101E50001DE03B7A1BB21B021AB27B7A1BB2134302
:101E60001AB2124B1A80BB7A1BB21B021AB2FB7A4F
:101E70001BB213431AB20D4B5A803B7B1BB21B02A1
:101E80001AB27B7B1BB213431AB2084B9A801037ED
:101E9000BD4680BDF8010020D4DA000800040240ED
:101EA0005802002008DB00082CDB00083C1400204E
:101EB00080B584B000AF2F4B1B7883F00103DBB2F9
:101EC000002B03D02C48FFF723FD50E0BB23FB7110
:101ED00000224FF48051294804F0AAFBF91D642325
:101EE0000122274805F0D1F80346FB73FB7B002B4A
:101EF00009D001224FF48051204804F099FB214879
:101F0000FFF706FD33E007F10801642306221C48B1
:101F100005F0FFF90346FB7301224FF48051174887
:101F200004F086FBFB7B002B03D01748FFF7F0FC87
:101F30001DE03B7A1BB21B021AB27B7A1BB2134321
:101F40001AB2124BDA80BB7A1BB21B021AB2FB7AAE
:101F50001BB213431AB20D4B1A813B7B1BB21B02FF
:101F60001AB27B7B1BB213431AB2084B5A8110374B
:101F7000BD4680BDF801002050DB0008000402408F
:101F80005802002088DB0008ACDB00083C1400206D
:101F900080B500AFFFF78CFFFFF71AFF00BF80BDD1
:101FA00080B400AF094BB3F9043007EE903AF8EE75
:101FB000E77A9FED077AC7EE876AF0EE667AB0EEB1
:101FC000670ABD465DF8047B704700BF3C140020E3
:101FD00000008342B0B584B002AF2E4B1B78002BBB
:101FE00001D02D4B00E02D4B19462D48FFF7A6FCE4
:101FF000284B1B78002B48D07520FFF729FD03469E
:10200000FB716A20FFF724FD0346BB716B20FFF7CD
:102010001FFD03467B71F979BA797B792148FFF777
:102020008DFCBB7903F01003002B03D01E48FFF793
:102030006FFC02E01D48FFF76BFCFFF7A9FF1C4B8C
:10204000B3F900301C461A4BB3F902301D46FFF7B6
:10205000A7FF10EE103A1846FEF77EFA02460B462E
:10206000CDE900232A4621461248FFF767FC104BB2
:10207000B3F9063019460E4BB3F908301A460C4B2B
:10208000B3F90A300C48FFF759FC00BF0837BD46CA
:10209000B0BD00BFF8010020D0DB0008D4DB000891
:1020A000DCDB0008F8DB00082CDC000840DC000862
:1020B0003C14002054DC000870DC000898B500AF28
:1020C00003F006FB00F044F900F074FC00F0A8F9FE
:1020D00000F030FA00F064FA00F002FB00F0ECFBD4
:1020E00000F03EFC00F050FB0021874805F0BEFDEB
:1020F0000421854805F0BAFD0821834805F0B6FDA6
:102100000C21814805F0B2FD01224FF400517F48B7
:1021100004F08EFA00F080FD00F02EFD02F0EAF9E6
:10212000FFF74AFE034683F00103DBB2002B02D027
:102130007748FFF7EDFBFFF791FDFFF74BFF02F04C
:10214000CBF8744B1B88002B12D1724B1B89002BD0
:102150000ED1704B5B88002B0AD16E4BDB88002BB5
:1021600006D16C4B9B88002B02D16B48FFF7D0FB4C
:1021700001F0C2FD01F09AFD642003F01BFB0CE0AE
:1021800001F072FF01F07EFD044601F085FD03467B
:102190001A4621466148FFF7D1FB01F073FD034663
:1021A000B3F5FA6FECDD01F077FD0346B3F5FA6F96
:1021B000E6DD01F0EDFE642003F0FCFA01F062FDC3
:1021C0000346002B07D101F067FD0346002B02D127
:1021D0005348FFF79DFBFEF7D3FE01221021514823
:1021E00004F026FA012220214E4804F021FA4FF48F
:1021F0007A7003F0DFFA002210214A4804F018FA3E
:1022000000222021474804F013FA4748FFF780FBDB
:10221000FFF7F6FB4548FFF77BFB06E00A2003F0DB
:10222000C9FA10213F4804F01CFA414B1B78DBB27D
:10223000002BF3D0002210213A4804F0F9F90022D3
:102240002021384804F0F4F9FEF7B6FE4FF4FA60A6
:1022500003F0B0FA3748FFF75BFB01F04DFD02F0E9
:10226000FFF901F051FA02F037F8334B1B78DBB27B
:10227000012B14D1304B00221A70304B1B7B002BEA
:1022800006D02E4B5B7B002B02D001F0BBFB06E09F
:102290002B48FFF73DFB01F089FB01F035FA264B97
:1022A0001B78DBB2022B07D1234B00221A7001F0FE
:1022B0007DFB2448FFF72CFB03F070FA0246224B0B
:1022C0001B68D31A41F28832934206D9FFF75CFBB0
:1022D00003F064FA03461C4A136003F05FFA0246F7
:1022E0001A4B1B68D31AB3F5FA6F08D910210D48A1
:1022F00004F0B7F903F052FA0346144A136064205D
:1023000003F058FAAFE700BF400300200008024086
:1023100088DC00082C140020BCDC0008F4DC000879
:1023200004DD00080004024034DD000858DD000828
:102330006114002080DD00086014002018140020C3
:10234000A0DD0008CCDD00086C1400207014002013
:1023500080B594B000AF07F1200330220021184669
:1023600008F0CEFA07F10C0300221A605A609A6056
:10237000DA601A610023BB60274B1B6C264A43F0CE
:1023800080531364244B1B6C03F08053BB60BB6809
:1023900000237B60214B1B68204A43F440431360B9
:1023A0001E4B1B6803F440437B607B6802233B6247
:1023B0000123FB6210233B630223BB630023FB6307
:1023C00010233B64A8237B640223BB640423FB64C7
:1023D00007F12003184604F077F90346002B01D0DB
:1023E00000F006FC0F23FB6002233B6100237B61AE
:1023F0004FF48053BB610023FB6107F10C03022102
:10240000184604F0D9FB0346002B01D000F0F0FB86
:1024100000BF5037BD4680BD00380240007000400C
:1024200080B584B000AF3B4600221A605A609A60C3
:10243000DA603D4B3D4A1A603B4B4FF480325A60A4
:10244000394B00229A60384B01221A61364B012227
:102450001A76354B002283F82020334B0022DA62B3
:10246000314B334A9A62304B0022DA602E4B052200
:10247000DA612D4B002283F830202B4B01225A6168
:10248000294803F0BBF90346002B01D000F0B0FB54
:1024900000233B6001237B600023BB603B46194661
:1024A000214803F06FFB0346002B01D000F0A0FB96
:1024B00002233B6002237B603B4619461A4803F027
:1024C00061FB0346002B01D000F092FB03233B602D
:1024D00003237B603B461946134803F053FB034636
:1024E000002B01D000F084FB04233B6004237B60BD
:1024F0003B4619460C4803F045FB0346002B01D030
:1025000000F076FB05233B6005237B603B461946C4
:10251000054803F037FB0346002B01D000F068FBB1
:1025200000BF1037BD4680BD1002002000200140D2
:102530000100000F80B500AF174B184A1A60164B08
:102540004FF482725A60144B00229A60124B0022A0
:10255000DA60114B00221A610F4B00225A610E4BB8
:102560004FF400729A610C4B3022DA610A4B002260
:102570001A62094B00225A62074B00229A62064BEC
:102580000A22DA62044804F0F7FC0346002B01D06B
:1025900000F02EFB00BF80BD580200200038004034
:1025A00080B596B000AF07F1480300221A605A6068
:1025B0009A60DA6007F1400300221A605A6007F15E
:1025C000240300221A605A609A60DA601A615A6124
:1025D0009A613B1D20220021184608F091F93E4BDC
:1025E0003E4A1A603C4B14225A603B4B00229A60D0
:1025F000394BC822DA60384B00221A61364B002270
:102600005A61354B80229A61334805F087FA0346B8
:10261000002B01D000F0ECFA4FF48053BB6407F1BB
:10262000480319462C4805F01BFF0346002B01D038
:1026300000F0DEFA284805F0C0FA0346002B01D06E
:1026400000F0D6FA00233B6400237B6407F14003CB
:102650001946214806F0D0FA0346002B01D000F0BD
:10266000C7FA60237B626423BB620023FB62002302
:102670003B6300237B630023BB630023FB6307F101
:10268000240308221946144805F028FE0346002BAF
:1026900001D000F0ADFA00237B600023BB60002373
:1026A000FB6000233B6100237B614FF40053BB615F
:1026B00000233B623B1D1946074806F00BFB03460F
:1026C000002B01D000F094FA034802F0B9FD00BFDE
:1026D0005837BD4680BD00BFB00200200000014059
:1026E00080B58CB000AF07F10C03242200211846FE
:1026F00008F006F93B1D00221A605A60214B4FF08A
:1027000080421A601F4B00225A601E4B00229A60C2
:102710001C4B4FF6FF72DA601A4B00221A61194BFC
:1027200080229A610323FB6000233B6101237B61CC
:102730000023BB610023FB6100233B6201237B621A
:102740000023BB620023FB6207F10C0319460D480E
:1027500005F0A0FB0346002B01D000F049FA00234E
:102760007B600023BB603B1D1946064806F044FA17
:102770000346002B01D000F03BFA00BF3037BD46C6
:1027800080BD00BFF802002080B58EB000AF07F119
:10279000280300221A605A609A60DA6007F1200369
:1027A00000221A605A603B1D00221A605A609A602B
:1027B000DA601A615A619A613D4B3E4A1A603C4B9D
:1027C00004225A603A4B00229A60394B40F246325A
:1027D000DA60374B00221A61354B80229A61344807
:1027E00005F09CF90346002B01D000F001FA4FF4EC
:1027F0008053BB6207F1280319462D4805F030FECF
:102800000346002B01D000F0F3F9294805F0D5F973
:102810000346002B01D000F0EBF900233B620023BC
:102820007B6207F120031946214806F0E5F90346CB
:10283000002B01D000F0DCF960237B600023BB603B
:102840000023FB6000237B613B1D002219461848D2
:1028500005F044FD0346002B01D000F0C9F93B1DF3
:1028600004221946124805F039FD0346002B01D019
:1028700000F0BEF93B1D082219460D4805F02EFD5B
:102880000346002B01D000F0B3F93B1D0C22194682
:10289000074805F023FD0346002B01D000F0A8F9FE
:1028A000034802F0CDFC00BF3837BD4680BD00BFF5
:1028B000400300200004004080B58CB000AF07F159
:1028C0000C0324220021184608F01AF83B1D0022B0
:1028D0001A605A60204B214A1A601F4B00225A602E
:1028E0001D4B00229A601C4B4FF6FF72DA601A4BA8
:1028F00000221A61184B80229A610323FB60002397
:102900003B6101237B610023BB610023FB6100234A
:102910003B6201237B620023BB620023FB6207F161
:102920000C0319460C4805F0B5FA0346002B01D0FC
:1029300000F05EF900237B600023BB603B1D19465D
:10294000054806F059F90346002B01D000F050F974
:1029500000BF3037BD4680BD88030020000800401E
:1029600080B500AF114B124A1A60104B4FF416524B
:102970005A600E4B00229A600C4B0022DA600B4B1F
:1029800000221A61094B0C225A61084B00229A61FD
:10299000064B0022DA61054806F002FA0346002BD6
:1029A00001D000F025F900BF80BD00BFD00300209A
:1029B0000014014080B588B000AF07F10C0300227D
:1029C0001A605A609A60DA601A610023BB604B4B50
:1029D0001B6B4A4A43F004031363484B1B6B03F021
:1029E0000403BB60BB6800237B60444B1B6B434A02
:1029F00043F001031363414B1B6B03F001037B6046
:102A00007B6800233B603D4B1B6B3C4A43F0020359
:102A100013633A4B1B6B03F002033B603B680022DD
:102A20004FF40051364803F003FE002241F23031EA
:102A3000344803F0FDFD00224FF44071324803F0AA
:102A4000F7FD4FF40053FB6001233B6100237B61E2
:102A50000023BB6107F10C031946294803F064FC0D
:102A60000223FB604FF488133B6100237B6107F175
:102A70000C031946244803F057FC4FF48063FB60B5
:102A80004FF488133B6100237B6107F10C03194667
:102A90001C4803F049FC41F23033FB6001233B61E9
:102AA00000237B610023BB6107F10C031946154825
:102AB00003F03AFC4FF44073FB6001233B610023B9
:102AC0007B610023BB6107F10C0319460E4803F03C
:102AD0002BFC00220521072003F05DFB072003F0FB
:102AE00076FB00220521282003F055FB282003F067
:102AF0006EFB00BF2037BD4680BD00BF00380240DE
:102B000000080240000402400000024080B584B08A
:102B100000AF0346FB8002F041FEF860114B1B68DA
:102B2000FA68D31AC82B19D9FB88022B09D10E4B8E
:102B300001221A700D4B01221A700D48FEF7E8FEB3
:102B400009E0FB88B3F5806F05D1074B02221A70AC
:102B50000848FEF7DDFE034AFB68136000BF10372C
:102B6000BD4680BD74140020601400206114002054
:102B7000E8DD000800DE000880B586B000AF3B1D30
:102B800000221A605A609A60DA601A6101237B6041
:102B90000323BB600023FB603B1D1946124803F072
:102BA000C3FB04237B603B1D19460F4803F0BCFBAD
:102BB00008237B603B1D19460B4803F0B5FB10232F
:102BC0007B603B1D1946084803F0AEFB20237B6069
:102BD0003B1D1946044803F0A7FB0448FEF798FE86
:102BE00000BF1837BD4680BD0000024018DE000857
:102BF00080B500AF72B600BF1021064803F031FD6A
:102C00002021044803F02DFD642002F0D3FD00BF15
:102C1000F2E700BF0004024080B500AF00F042F8C8
:102C2000184B00221A60174B00225A60154B0022E5
:102C30009A60144B00221A73124B00225A73114BE4
:102C400000221A610E2200210F4807F059FE1222BD
:102C500000210E4807F054FE102200210C4807F016
:102C60004FFE0C4B00221A600B4B00221A60FEF73D
:102C70006FFF0A48FEF74CFE0948FEF749FE00BF09
:102C800080BD00BF181400202C1400203C1400202C
:102C900050140020641400206814002040DE000856
:102CA00070DE000880B584B000AF0023FB603EE01A
:102CB0000023BB6035E03949FB681A01BB68134447
:102CC0001B010B4442F20F721A603449FB681A016F
:102CD000BB6813441B010B44043300221A702F49B4
:102CE000FB681A01BB6813441B010B440C33002220
:102CF0001A6000237B600EE02849FB681A01BB685C
:102D000013441B01CA187B681344053300221A7050
:102D10007B6801337B607B68032BEDDDBB6801338F
:102D2000BB60BB680F2BC6DDFB680133FB60FB6833
:102D30000F2BBDDD00233B601FE0184A3B681B02E0
:102D40001344073301221A70144A3B681B021344D0
:102D5000F53301221A70114A3B681B0113440833F2
:102D600001221A700D4A3B681B01134403F60673D7
:102D700001221A703B6801333B603B680F2BDCDD9E
:102D8000064B01221A71054B0122DA600448FEF756
:102D9000BFFD00BF1037BD4680BD00BF1804002036
:102DA00098DE000880B5ADF5036D00AF0023C7F8CD
:102DB0002C381DE00023C7F8283810E0C849D7F8A0
:102DC0002C381A01D7F8283813441B010B4442F25F
:102DD0000F721A60D7F828380133C7F82838D7F8A7
:102DE00028380F2BEADDD7F82C380133C7F82C38F8
:102DF000D7F82C380F2BDDDDBA4B1B7B83F001039A
:102E0000DBB2002B2CD0B84B1A68B84B1B68B44906
:102E1000120113441B010B4400221A60B44B1A68C0
:102E2000B24B1B68AE49120113441B010B44002234
:102E30001A60AD4B1A68AF4B1B68A94912011344C5
:102E40001B010B4400221A60A94B1A68A94B1B688E
:102E5000A349120113441B010B4400221A6002E033
:102E60009F4B00221A600023C7F824380023C7F8BC
:102E700020389C4B1B7B83F00103DBB2002B5CD022
:102E8000994B196807F50363A3F22C43D7F8202860
:102E900043F82210D7F820385A1CC7F82028934A44
:102EA000116807F50362A2F62C0242F82310904B3A
:102EB000196807F50363A3F22C43D7F8202843F8D9
:102EC0002210D7F820385A1CC7F82028874A1168E2
:102ED00007F50362A2F62C0242F82310824B196810
:102EE00007F50363A3F22C43D7F8202843F82210F8
:102EF000D7F820385A1CC7F820287E4A116807F5F1
:102F00000362A2F62C0242F82310794B196807F5E8
:102F10000363A3F22C43D7F8202843F82210D7F8F4
:102F200020385A1CC7F82028724A116807F5036236
:102F3000A2F62C0242F8231014E007F50363A3F273
:102F40002C43D7F82028002143F82210D7F8203846
:102F50005A1CC7F8202807F50362A2F62C020021AC
:102F600042F823100023C7F81C38A7E007F50363D5
:102F7000A3F22C43D7F8242853F82230C7F814388A
:102F8000D7F824385A1CC7F8242807F50362A2F69C
:102F90002C0252F82330C7F810380023C7F818382D
:102FA00087E0554AD7F8183852F82330D7F8142854
:102FB0001344C7F80C38514AD7F8183852F8233060
:102FC000D7F810281344C7F80838D7F80C38002B66
:102FD0006ADBD7F80C380F2B66DCD7F80838002BE3
:102FE00062DBD7F808380F2B5EDC3D49D7F8143880
:102FF0001A01D7F8103813441B01CA18D7F818382B
:10300000134405331B7883F00103DBB2002B4BD054
:103010003349D7F814381A01D7F8103813441B0174
:103020000B441B680133C7F804382D49D7F80C3816
:103030001A01D7F8083813441B010B441B68D7F852
:1030400004289A4230DA2649D7F80C381A01D7F802
:10305000083813441B010B44D7F804281A60D7F82A
:103060002038FE2B1CDC07F50363A3F22C43D7F8B2
:103070002028D7F80C1843F82210D7F820385A1C0B
:10308000C7F8202807F50362A2F62C02D7F8081823
:1030900042F82310D7F81C380133C7F81C3803E076
:1030A0001748FEF735FC09E0D7F818380133C7F8A0
:1030B0001838D7F81838032B7FF773AFD7F82428C0
:1030C000D7F820389A42FFF651AFD7F81C180D48B0
:1030D000FEF734FC00BF07F50367BD4680BD00BFA7
:1030E000180400201814002060F0000864F00008A4
:1030F00068F000086CF0000840F0000850F000088C
:10310000CCDE0008E0DE000880B493B000AF884B4E
:103110009B687B6442F20F733B6440F2E733FB63CE
:10312000002387F83B30824B9B683B60804B9B6859
:1031300001335A4203F0030302F0030258BF534223
:103140007B607B4B9B6803335A4203F0030302F01E
:10315000030258BF5342BB60754B9B6802335A420F
:1031600003F0030302F0030258BF5342FB60002345
:103170007B635BE07B6B9B0048333B4453F8483CEC
:10318000BB616B4B1A686B49BB6951F82330134420
:103190007B61674B5A686849BB6951F82330134417
:1031A0003B617B69002B3EDB7B690F2B3BDC3B6982
:1031B000002B38DB3B690F2B35DC5D4B1A685C4B11
:1031C0005B685E49120113441B01CA18BB691344B2
:1031D00005331B7883F00103DBB2002B23D0574962
:1031E0007B691A013B6913441B010B440C331B68B8
:1031F000002B18D1012387F83B3050497B691A0115
:103200003B6913441B010B441B683A6C9A420ADD6C
:103210004A497B691A013B6913441B010B441B6833
:103220003B64BB697B647B6B01337B637B6B032BF0
:10323000A0DD97F83B3083F00103DBB2002B6FD0A9
:1032400000233B6369E03B6B9B0048333B4453F8EE
:10325000483CFB62364B1A683649FB6A51F823300A
:103260001344BB62324B5A683349FB6A51F823302E
:1032700013447B62BB6A002B4CDBBB6A0F2B49DC1F
:103280007B6A002B46DB7B6A0F2B43DC284B1A68DA
:10329000274B5B682949120113441B01CA18FB6ABA
:1032A000134405331B7883F00103DBB2002B31D0CC
:1032B0002249BB6A1A017B6A13441B010B441B6839
:1032C0003B621E49BB6A1A017B6A13441B010B4413
:1032D0000C331B68FB613A6A3B6C9A4214DB3A6A16
:1032E0003B6C9A4203D1FA69FB6B9A420CDB3A6A57
:1032F0003B6C9A420ED1FA69FB6B9A420AD10C4B95
:103300009B68FA6A9A4205D13B6A3B64FB69FB639E
:10331000FB6A7B643B6B01333B633B6B032B92DDAE
:103320007B6C18464C37BD465DF8047B704700BF88
:103330001814002040F0000850F000081804002085
:1033400090B58BB002AF00F0C7FF8A4B9B7A002B81
:1033500041D0894B1968884B5A68874B9B688748CE
:1033600009010A44120102441344053301221A7070
:10337000814B1A68804B9B68814951F82330134474
:10338000FB617D4B5A687C4B9B687E4951F823302A
:103390001344BB61FB69002B1DDBFB690F2B1ADC9F
:1033A000BB69002B17DBBB690F2B14DC724B9B68CE
:1033B00002335A4203F0030302F0030258BF5342A0
:1033C0006E48FA691101BA690A44120102441344B1
:1033D000053301221A70674BDB7A002B48D0664B0D
:1033E0009B6803335A4203F0030302F0030258BF01
:1033F00053427B61604B1A685F4B5B685F49120107
:1034000013441B01CA187B691344053301221A7047
:10341000594B1A685A497B6951F8233013443B6170
:10342000554B5A6857497B6951F823301344FB6068
:103430003B69002B1CDB3B690F2B19DCFB68002B65
:1034400016DBFB680F2B13DC7B6902335A4203F057
:10345000030302F0030258BF534248483A6911017E
:10346000FA680A44120102441344053301221A7017
:10347000404B1B7B002B48D03F4B9B6801335A428B
:1034800003F0030302F0030258BF5342BB603A4B00
:103490001A68394B5B683949120113441B01CA1879
:1034A000BB681344053301221A70334B1A68344940
:1034B000BB6851F8233013447B602F4B5A68314965
:1034C000BB6851F8233013443B607B68002B1CDB46
:1034D0007B680F2B19DC3B68002B16DB3B680F2B3E
:1034E00013DCBB6802335A4203F0030302F0030209
:1034F00058BF534221487A6811013A680A441201C0
:1035000002441344053301221A701B4B1A681A4BEC
:103510005B681A49120113441B010B440433012256
:103520001A70154B1A68144B5B6814481101194442
:10353000090101440C31096801311048120113449A
:103540001B0103440C3319600B4B19680A4B5A6872
:10355000084B9B7A1C46074BDB7A1846054B1B7BB6
:103560000193009023460848FEF7E8F900BF24378E
:10357000BD4690BD2C140020181400201804002013
:1035800040F0000850F0000808DF000880B584B063
:1035900000AF786041E0264B9B687A68D31A043309
:1035A0005A4203F0030302F0030258BF5342FB6088
:1035B000FB68012B0ED100F089FC1D4B9B68013389
:1035C0005A4203F0030302F0030258BF5342184A61
:1035D000936022E0FB68032B0ED100F037FC144B04
:1035E0009B6803335A4203F0030302F0030258BFFF
:1035F00053420F4A936010E0FB68022B0DD100F09C
:10360000A5FC0B4B9B6802335A4203F0030302F004
:10361000030258BF5342064A9360054B9B687A6881
:103620009A42B8D100BF00BF1037BD4680BD00BF71
:103630001814002080B500AF00F04EFE0B4B9B7AB3
:10364000002B04D00A48FEF763F900230CE000F0D9
:103650008FFB084B1B690133064A1361064B1B683D
:103660000133054A13600123184680BD2C14002045
:1036700034DF0008181400206414002080B400AF68
:103680001C4B1B7B83F00103DBB2002B1ED0194BBC
:103690001A68194B1B689A4205D0164B1A68174BCB
:1036A0001B689A420DD1134B5A68154B1B689A42FE
:1036B00005D0104B5A68134B1B689A4201D1012365
:1036C00000E0002303F00103DBB20DE0094B1B68AF
:1036D000002B05D1074B5B68002B01D1012300E0D3
:1036E000002303F00103DBB21846BD465DF8047BFE
:1036F000704700BF1814002060F0000868F0000850
:1037000064F000086CF0000880B58AB000AF814812
:10371000FEF7FEF800237B624FF47A733B61C0E052
:103720007D4B1A687C4B5B68796A7C48FEF706F92A
:10373000FFF706FEFFF736FBFFF7A0FF0346002B5F
:1037400032D0754B1B7B83F00103DBB2002B24D0FE
:103750007348FEF7DDF8704B01221A73FDF72CFC5D
:1037600000233B6215E00023FB610CE06D493B6ADE
:103770001A01FB6913441B010B440C3300221A602D
:10378000FB690133FB61FB690F2BEFDD3B6A013302
:103790003B623B6A0F2BE6DD06E06348FEF7B8F8B4
:1037A0005D4B01225A7390E0FFF7AEFCF860F968B8
:1037B0005E48FEF7C3F8F868FFF7E8FEFFF73AFF48
:1037C0000346002B0DD0544B1B7B002B04D0012152
:1037D000002001F02FFF5EE00021012001F02AFF10
:1037E00059E05348FEF794F80023FB7600237B61F1
:1037F0003EE07A69FB689A4237D0474B1A684D49D8
:103800007B6951F823301344BB60434B5A684A49E3
:103810007B6951F8233013447B60BB68002B24DBA9
:10382000BB680F2B21DC7B68002B1EDB7B680F2B1A
:103830001BDC394B1A68384B5B683A491201134458
:103840001B01CA187B69134405331B7883F00103FD
:10385000DBB2002B09D07869FFF798FEFFF7EAFE8C
:103860000346002B01D00123FB767B6901337B618A
:103870007B69032B05DCFB7E83F00103DBB2002BAD
:10388000B7D1FB7E83F00103DBB2002B03D02B48C2
:10389000FEF73EF819E07B6A01337B620A2001F0F3
:1038A00089FF7A6A3B699A420FDA1B4B1B7B83F0D4
:1038B0000103DBB2002B7FF433AF174B5B7B83F04C
:1038C0000103DBB2002B7FF42BAF0021002001F0BD
:1038D000B1FE114B1B6919461948FEF72FF80E4B24
:1038E0001B7B002B0BD00C4B5B7B002B07D01548B0
:1038F000FEF70EF800F02AF8FDF770FB05E012481D
:10390000FEF706F8FDF796FB00BF00BF2837BD465F
:1039100080BD00BF58DF0008181400207CDF0008BD
:1039200098DF000818040020C4DF0008F0DF00085A
:1039300010E0000840F0000850F000083CE00008EB
:1039400058E000087CE00008B4E0000880B500AF53
:103950001048FDF7DDFFFDF787FBFDF717FEFDF7CC
:1039600047FF0D48FDF7D4FF0C4B1B6842F20E7267
:10397000934209DC094B1B6819460948FDF7DEFF35
:103980000848FDF7C5FF02E00748FDF7C1FF00BF8B
:1039900080BD00BFECE0000814E1000868140020BE
:1039A00040E1000874E10008A4E1000880B500AF20
:1039B000104B00221A600F4B00225A600D4B002260
:1039C0009A600C4B00221A730A4B00225A73094B5F
:1039D00000221A61084B00221A60084B00221A606C
:1039E000FFF760F90648FDF793FFFDF7C9FA00BF3E
:1039F00080BD00BF1814002064140020681400204B
:103A0000D8E1000880B500AF0448FDF781FF044805
:103A1000FDF77EFF00F006F800BF80BD0CE2000855
:103A200034E2000880B586B000AF6448FDF770FF4F
:103A3000634B1B7B83F00103DBB2002B06D1604B91
:103A40005B7B83F00103DBB2002B03D05D48FDF705
:103A50005FFFB0E05C48FDF75BFF594B00221A6046
:103A6000574B00225A60564B00229A6001210120D8
:103A700001F0E0FDFDF7A0FA5448FDF749FF01F021
:103A80008DFEF8600023FB750DE0514B1B78DBB217
:103A9000022B05D14E4B00221A700123FB750BE05F
:103AA000642001F087FE01F079FE0246FB68D31A1C
:103AB00042F20F729342E8D9FB7D83F00103DBB23F
:103AC000002B07D04348FDF723FF0021002001F021
:103AD000B1FD70E04048FDF71BFF00233B6132233E
:103AE000BB6021E000F0F8FBFFF75CF9FFF70CFB8F
:103AF00078607868FFF74AFDFFF79CFD0346002BCE
:103B00000BD03B6901333B612D4B1A682C4B5B6832
:103B100039693248FDF712FF03E03148FDF7F8FE3E
:103B20001EE0322001F046FE254B1A682D4B1B6823
:103B30009A4205D0224B1A682B4B1B689A420BD134
:103B40001F4B5A68294B1B689A4209D01C4B5A6874
:103B5000274B1B689A4203D03A69BB689A42C1DB83
:103B60000021002001F066FD154B1A681D4B1B68F3
:103B70009A4205D0124B1A681B4B1B689A4215D10A
:103B80000F4B5A68194B1B689A4205D00C4B5A6868
:103B9000174B1B689A4209D11648FDF7B9FE3969DF
:103BA0001548FDF7CBFEFDF719FA04E01348FDF7C1
:103BB000AFFEFDF73FFA1837BD4680BD58E200085A
:103BC000181400207CE20008B8E20008F0E20008C7
:103BD0006014002020E3000844E3000860E30008CC
:103BE00080E3000860F0000868F0000864F0000856
:103BF0006CF000089CE30008B8E30008D0E300087C
:103C000080B483B000AF194B1B685B6AFB80184B14
:103C10001B685B6ABB80174B1B88FA88D31A9BB260
:103C20007B80154B1B88BA88D31A9BB23B803B889C
:103C30005B429BB23B80B7F90220104B1B681344D8
:103C40000E4A1360B7F900200D4B1B6813440C4A51
:103C50001360084AFB881380074ABB88138000BFA3
:103C60000C37BD465DF8047B704700BFF8020020AA
:103C700088030020000000200200002078140020AB
:103C80007C14002080B500AFFFF7BAFF014B1B6822
:103C9000184680BD7814002080B500AFFFF7B0FF54
:103CA000014B1B68184680BD7C14002080B400AF17
:103CB0000B4B00221A600B4B00221A600A4B1B6848
:103CC0005B6A9AB2094B1A80094B1B685B6A9AB20D
:103CD000084B1A8000BFBD465DF8047B704700BFEB
:103CE000781400207C140020F8020020000000203E
:103CF000880300200200002080B500AF3C21154859
:103D000004F06EF93C21144804F06AF9114B1B6869
:103D10004FF400425A62104B1B684FF400425A6243
:103D2000012001F047FD0D4B4FF400421A800C4B6F
:103D30004FF400421A800B4B00221A600A4B0022FB
:103D40001A600A4B00229A60084B0022DA6000BF1A
:103D500080BD00BF88030020F80200200000002082
:103D600002000020781400207C1400205014002051
:103D700080B58AB000AFFFF785FF7862FFF78CFF50
:103D800038622E4B1A682D4B9B682D4951F8233011
:103D90001344FB61294B5A68284B9B68294951F809
:103DA00023301344BB61FB69002B08DBFB690F2B3D
:103DB00005DCBB69002B02DBBB690F2B03DD22484E
:103DC000FDF7A6FD37E04FF448720121002000F016
:103DD000FBF84FF448720121012000F0F5F84FF490
:103DE0007A737B61FFF74EFF3861FFF755FFF8608C
:103DF0003A697B6AD31ABB60FA683B6AD31A7B6064
:103E0000BA687B681344DA0F13445B103B603A686E
:103E10007B699A4203DA012001F0CCFCE2E700BFA3
:103E200000F09CF8054AFB691360044ABB695360C3
:103E3000642001F0BFFC2837BD4680BD1814002067
:103E400040F0000850F00008F0E3000880B584B0AE
:103E500000AFFFF721FFF8604FF448720021002007
:103E600000F0B2F84FF448720121012000F0ACF8E4
:103E70004FF4FA73BB60FFF70FFF78607A68FB6856
:103E8000D31A002BB8BF5B423B603A68BB689A42CA
:103E900003DA012001F08EFCEDE700BF00F05EF8D0
:103EA000094B9B6803335A4203F0030302F00302F9
:103EB00058BF5342044A9360C82001F07BFC00BF06
:103EC0001037BD4680BD00BF1814002080B584B0F7
:103ED00000AFFFF7D7FEF8604FF4487201210020D1
:103EE00000F072F84FF448720021012000F06CF8E5
:103EF0004FF4FA73BB60FFF7C5FE78607A68FB6821
:103F0000D31A002BB8BF5B423B603A68BB689A4249
:103F100003DA012001F04EFCEDE700BF00F01EF8CF
:103F2000094B9B6801335A4203F0030302F003027A
:103F300058BF5342044A9360C82001F03BFC00BFC5
:103F40001037BD4680BD00BF1814002080B500AFFB
:103F5000FFF7BCFFFFF7BAFF00BF80BD80B400AF22
:103F60000A4B1B6800225A63084B1B6800229A63A5
:103F7000064B1B680022DA63044B1B6800221A649C
:103F800000BFBD465DF8047B704700BF40030020C2
:103F900080B500AF0B4B1B6801225A63094B1B68AD
:103FA00001229A63074B1B680122DA63054B1B68E9
:103FB00001221A644FF4FA7001F0FCFBFFF7CEFF08
:103FC00000BF80BD4003002080B584B000AF034631
:103FD000FB710B46BB711346BB80FB79002B15D1DF
:103FE000BB79002B09D01D4B1B68BA889A6300224D
:103FF00040211B4802F01CFB2BE0184B1B68BA88C1
:104000005A63164B1B6800229A6322E0BB79002B8F
:1040100014BF01230023DBB283F00103DBB2FB7387
:10402000FB7B03F00103FB73FB7B002B09D00B4BE5
:104030001B68BA881A64002201210A4802F0F8FAC3
:1040400007E0064B1B6800221A64044B1B68BA8801
:10405000DA6300BF1037BD4680BD00BF40030020BB
:10406000000002400004024080B584B000AFFFF7BA
:1040700009FE0346444A1360FFF704FE0346424A22
:104080001360414B1A68414B1B68D31A07EE903AF4
:10409000F8EEE77A3E4BC3ED007A3E4B93ED007AA3
:1040A0003B4BD3ED007A77EE277A3A4BC3ED007A9B
:1040B000374B93ED007A384BD3ED007A77EE677A81
:1040C000364BC3ED007A364B93ED007A304BD3ED8F
:1040D000007A27EE277A334BD3ED006A2D4BD3EDD0
:1040E000007A66EEA77A37EE277A2F4BD3ED006A77
:1040F0002A4BD3ED007A66EEA77A77EE277AC7EDE2
:10410000017A9FED2A7AD7ED017A77EE677AFDEE94
:10411000E77A17EE903AFB60D7ED017A9FED237AAC
:1041200077EE877AFDEEE77A17EE903ABB60FB6890
:10413000B3F57A7F01DD6423FB60BB68B3F57A7F5A
:1041400002DD4FF47A73BB60FB68002B01DA0023B9
:10415000FB60BB68002B01DA0023BB60BB689BB22D
:104160001A4601210020FFF72FFFFB689BB21A4679
:1041700001210120FFF728FF054B1B68064A136049
:1041800000BF1037BD4680BD781400207C1400208D
:104190008C14002094140020901400209814002007
:1041A000801400208414002088140020000016448D
:1041B00080B500AF01224FF480710D4802F038FA4B
:1041C00001224FF400710A4802F032FA01224FF442
:1041D0008071084802F02CFA01224FF40071054862
:1041E00002F026FA022001F0E5FA00BF80BD00BF10
:1041F000000002400004024080B500AF00224FF4EE
:1042000080710B4802F014FA00224FF40071084844
:1042100002F00EFA00224FF48071064802F008FA0C
:1042200000224FF40071034802F002FA00BF80BD83
:10423000000002400004024080B588B000AF786002
:1042400007F10C0300221A605A609A60DA600023BA
:10425000FB837B68FB6001233B6104237B6107F1E7
:104260000C031946184801F08DFC0346002B04D0BE
:104270001648FDF74DFB002322E0134801F002FB36
:104280000346002B04D01248FDF742FB002317E041
:1042900064210D4801F0DDFB0346002B07D00D48DB
:1042A000FDF736FB084801F0A1FB002308E00648B3
:1042B00001F05AFC0346FB83034801F097FBFB8B9C
:1042C00018462037BD4680BD10020020F8E60008E1
:1042D00018E7000830E7000890B585B000AFFFF799
:1042E0008BFF012001F066FA0220FFF7A5FF0346CD
:1042F000FB810320FFF7A0FF0346BB810420FFF7EB
:104300009BFF03467B810520FFF796FF03463B8119
:10431000FFF74EFF0020FFF78FFF03461A46714B51
:104320001A800220FFF788FF03461A46FB89D31A3A
:104330009AB26C4B5A800320FFF77EFF03461A4661
:10434000BB89D31A9AB2674B9A800420FFF774FF97
:1043500003461A467B89D31A9AB2624BDA8005204B
:10436000FFF76AFF03461A463B89D31A9AB25D4BA0
:104370001A81FFF741FF5C4B93F82230002B32D0BB
:10438000584B1C89002000F0A7FD03469C4207D82B
:10439000544B5C88012000F09FFD03469C4201D9EC
:1043A000012300E0002303F00103DAB24D4B9A72BF
:1043B0004C4BDC88022000F08FFD03469C428CBFF2
:1043C00001230023DAB2474BDA72464B9C88032064
:1043D00000F082FD03469C428CBF01230023DAB229
:1043E000404B1A7327E03F4B1B89B3F5FA6F04D893
:1043F0003C4B5B88B3F5FA6F01D9012300E0002341
:1044000003F00103DAB2374B9A72364BDB8840F285
:10441000DC5293428CBF01230023DAB2314BDA72B3
:10442000304B9B8840F2DC5293428CBF0123002327
:10443000DAB22C4B1A732C4B93F82230002B4CD051
:10444000294B1B8AC73B274A1288934221DC264B03
:104450001B8A03F2F313234A1288934219DB214B80
:104460001B8940F6AB52934213D81E4B5B8840F633
:10447000AB5293420DD81B4BDB8840F6AB529342B4
:1044800007D8184B9B8840F6AB52934201D80123C2
:1044900000E00023FB71FB7903F00103FB71FB7962
:1044A00083F00103DBB2002B0DD0104B1B780133DE
:1044B000DAB20E4B1A700D4B1B78052B0DD90C4B35
:1044C00000221A7009E0094B1B78002B05D0074B1E
:1044D0001B78013BDAB2054B1A7000BF1437BD469A
:1044E00090BD00BF2C1400209C140020D01400208C
:1044F00004000020B0B58EB000AF4B48FDF708FABD
:104500004A4B5B6C03F48073002B03D04848FDF7E3
:10451000FFF902E04748FDF7FBF9444B1B6B03F042
:104520000103002B03D04448FDF7F2F902E04348B1
:10453000FDF7EEF9424B1B6C012B03D14148FDF70F
:10454000E7F905E03E4B1B6C19463F48FDF7F6F9CD
:104550003E48FDF7DDF93E4B07F120041D460FCD27
:104560000FC42B6823603B4B07F10C041D460FCD95
:104570000FC42B68236000237B634BE07B6B9B00A5
:1045800038333B4453F8183C1846FFF755FE0346B2
:104590001A467B6B5B0038333B4423F8382C7B6B2B
:1045A0009B0038333B4453F82C1C7B6B9B00383307
:1045B0003B4453F8183C002B1FD07B6B9B003833D7
:1045C0003B4453F8183C022B15D07B6B9B003833CF
:1045D0003B4453F8183C032B0BD07B6B9B003833C8
:1045E0003B4453F8183C042B01D1042206E0052279
:1045F00004E0032202E0022200E000227B6B5B0069
:1046000038333B4433F8383C1348FDF797F97B6B5C
:1046100001337B637B6B042BB0DD1048FDF778F929
:1046200000BF3837BD46B0BD1CE900080038024065
:1046300040E900085CE9000878E9000894E900080E
:1046400010020020B0E90008C8E90008E0E900080D
:1046500010EA00085CEA000800EA0008F8E8000830
:1046600090B5A5B000AFA948FDF752F9342200215A
:10467000A74806F045F9A748FDF74AF9A64B1B6C79
:10468000012B0CD0A548FDF743F9A34801F0B6F87B
:104690000346002B03D0A248FDF73AF9F0E3A14B03
:1046A0005B6C03F48073002B03D19F48FDF730F956
:1046B000E6E39C4B1B6B03F00103002B03D19B48EB
:1046C000FDF726F9DCE39A48FDF722F99948FDF752
:1046D0001FF9FFF791FD642001F06CF807F1480322
:1046E00000221A605A609A60DA6032233B66002327
:1046F000C7F88C3027E00520FFF79EFD03461A46D9
:10470000BB6C1344BB640220FFF796FD03461A46B8
:10471000FB6C1344FB640420FFF78EFD03461A462E
:104720003B6D13443B650320FFF786FD03461A46A5
:104730007B6D13447B650A2001F03CF8D7F88C3080
:104740000133C7F88C30D7F88C303A6E9A42D2D801
:10475000BA6C3B6EB2FBF3F39AB26D4B1A80FA6CF3
:104760003B6EB2FBF3F39AB2694B5A803A6D3B6EE3
:10477000B2FBF3F39AB2664B9A807A6D3B6EB2FB52
:10478000F3F39AB2624BDA806B48FDF7C1F8604BE5
:104790001B8819466948FDF7D1F85D4B5B881946BF
:1047A0006748FDF7CBF85A4B9B8819466548FDF7DB
:1047B000C5F8574BDB8819466348FDF7BFF86348D7
:1047C000FDF7A6F8FFF7F4FC322000F0F3FF07F145
:1047D000380300221A605A609A60DA603223FB655F
:1047E0005B4A07F1300392E8030083E8030007F116
:1047F000280300221A605A600023C7F888307AE044
:104800000520FFF719FD03463B800220FFF714FD4A
:1048100003467B800420FFF70FFD0346BB80032087
:10482000FFF70AFD0346FB800023C7F8843056E0FB
:10483000D7F884309B0090333B4453F8582CD7F87A
:1048400084305B0090333B4433F8903C1A44D7F8F3
:1048500084309B0090333B4443F8582CD7F8843085
:104860005B0090333B4433F8902CD7F884305B00E6
:1048700090333B4433F8603C9A420DD2D7F88430F1
:104880005B0090333B4433F8902CD7F884305B00C6
:1048900090333B4423F8602CD7F884305B0090338E
:1048A0003B4433F8902CD7F884305B0090333B4482
:1048B00033F8683C9A420DD9D7F884305B009033C6
:1048C0003B4433F8902CD7F884305B0090333B4462
:1048D00023F8682CD7F884300133C7F88430D7F830
:1048E0008430032BA4DD0A2000F064FFD7F8883061
:1048F0000133C7F88830D7F88830FA6D9A423FF60E
:104900007FAF0023C7F8803076E000BF70EA000870
:104910009C14002098EA000810020020BCEA00085D
:10492000F0EA0008003802401CEB000838EB0008F1
:1049300054EB000878EB0008B4EB0008D8EB000853
:10494000ECEB000800EC000814EC000828EC000870
:10495000F8EF0008D7F880309B0090333B4453F8C1
:10496000582CFB6DB2FBF3F39AB2D7F880305B00A2
:1049700090333B4423F8702CD7F880305B009033A1
:104980003B4433F8601CAF4AD7F8803008335B00F3
:1049900013440A465A80D7F880305B0090333B447A
:1049A00033F8681CA74AD7F880300C335B001344F7
:1049B0000A465A80D7F880305B0090333B4433F886
:1049C000683C1A46D7F880305B0090333B4433F89C
:1049D000603CD31A07EE903AF8EEE77A994AD7F896
:1049E000803008339B0013440433C3ED007AD7F8BA
:1049F00080300133C7F88030D7F88030032BA9DD31
:104A00009148FCF785FF3B8C1C468E4B5B6A184631
:104A1000FBF7A2FD02460B4621468C48FCF78EFFB1
:104A20007B8C1C46874B9B6A1846FBF795FD02461C
:104A30000B4621468648FCF781FFBB8C1C46814B08
:104A4000DB6A1846FBF788FD02460B462146814883
:104A5000FCF774FFFB8C1C467A4B1B6B1846FBF76C
:104A60007BFD02460B4621467B48FCF767FF7B48EF
:104A7000FCF74EFF0023FB6728E0FB6F5B009033E1
:104A80003B4433F8702C6F49FB6F31F813309A4276
:104A900012D9FB6F5B0090333B4433F8702C6949AB
:104AA000FB6F31F81330D31A9AB2FB6F5B0090336F
:104AB0003B4423F8782C06E0FB6F5B0090333B44CB
:104AC000002223F8782CFB6F0133FB67FB6F032B6D
:104AD000D3DD0023BB678DE0BB6F012B30DC594A6F
:104AE000BB6F32F8133007EE903AB8EEE77ABB6F3F
:104AF0005B0090333B4433F8783C07EE903AF8EE95
:104B0000E77ADFED576A67EEA67A37EE277A4D4AE5
:104B1000BB6F08339B0013440433D3ED007AF0EEEF
:104B2000086A67EEA67A77EE277AFCEEE77A17EE48
:104B3000903A99B2434ABB6F043322F813102FE026
:104B4000404ABB6F32F8133007EE903AB8EEE77A7E
:104B5000BB6F5B0090333B4433F8783C07EE903AF0
:104B6000F8EEE77ADFED3F6A67EEA67A37EE277A4E
:104B7000344ABB6F08339B0013440433D3ED007AEF
:104B8000F0EE086A67EEA67A77EE277AFCEEE77A0F
:104B900017EE903A99B22B4ABB6F043322F81310E8
:104BA000284ABB6F32F8133063332649BA6F043298
:104BB00031F8122093420ADB224ABB6F32F81330DD
:104BC000643399B21F4ABB6F043322F813101D4A95
:104BD000BB6F043332F8133040F6AC52934206D91F
:104BE000184ABB6F043340F6AC5122F81310BB6F68
:104BF0000133BB67BB6F032B7FF76EAF1A48FCF71F
:104C000087FE104B1B8919461848FCF797FE0D4B81
:104C10005B8919461648FCF791FE0A4B9B89194699
:104C20001448FCF78BFE074BDB8919461248FCF74A
:104C300085FE1248FCF76CFE00237B6700233B6770
:104C40002CE000BF9C14002060EC000888EC0008F9
:104C5000ACEC0008D0EC0008F4EC000818ED0008FB
:104C6000CDCCCC3E9A99993E54ED0008D8EB000883
:104C7000ECEB000800EC000814EC00087CED0008E8
:104C80000020FFF7D9FA03461A467B6F13447B676F
:104C90000A2000F08FFD3B6F01333B673B6F132B06
:104CA000EEDD7B6F784AA2FB03231B099AB2774B98
:104CB0001A82764B1B8A07EE903AF8EEE77A9FED60
:104CC000747A27EE877ADFED736AC7EE267AC7ED2E
:104CD000167A6E4B1B8A1C46B86DFBF73DFC0246EC
:104CE0000B4621466C48FCF729FE6C48FCF710FE89
:104CF000012387F86F306A4B07F108040FCB84E873
:104D00000F000023BB6679E0012387F86730BB6E94
:104D10005B0090333B4433F8783C312B12D8BB6EA8
:104D20009B0090333B4453F8881CBB6E5B00903370
:104D30003B4433F8783C1A465A48FCF7FFFD002301
:104D400087F86730514ABB6E08339B001344043325
:104D5000D3ED007A9FED547AF4EEC77AF1EE10FAB3
:104D600018DDBB6E9B0090333B4453F8884C474A98
:104D7000BB6E08339B00134404331B681846FBF7D3
:104D8000EBFB02460B4621464848FCF7D7FD0023C3
:104D900087F867303D4ABB6E32F8133040F6D86270
:104DA000934205D8394ABB6E32F81330092B10D81C
:104DB000BB6E9B0090333B4453F8881C334ABB6E58
:104DC00032F813301A463A48FCF7B8FD002387F84A
:104DD000673097F86730002B0AD0BB6E9B0090338A
:104DE0003B4453F8883C19463248FCF7A7FD02E0E3
:104DF000002387F86F30BB6E0133BB66BB6E032B9D
:104E000082DDD7ED167AB0EE087AF4EEC77AF1EECD
:104E100010FA06D52848FCF77BFD002387F86F3091
:104E200012E0D7ED167AB1EE027AF4EEC77AF1EE1F
:104E300010FA06DD2148FCF76BFD002387F86F3080
:104E400002E01F48FCF764FD104A97F86F3082F8C3
:104E50002230FFF7D1F90D4B93F82230002B06D00A
:104E60001848FCF755FD1848FCF752FD05E01748B7
:104E7000FCF74EFD1648FCF74BFD1648FCF748FDC5
:104E80009437BD4690BD00BFCDCCCCCC9C14002047
:104E90003333534000008045ACED0008CCED0008F2
:104EA00030F00008F0ED0008000048431CEE000858
:104EB00044EE000874EE000888EE0008B0EE00082A
:104EC000D4EE0008ECEE000824EF00085CEF0008C8
:104ED00098EF0008D0EF000880B483B000AF78608E
:104EE0007B68002B0ADB7B68032B07DC0D4B93F8F8
:104EF000223083F00103DBB2002B08D07B68012B4A
:104F000002DC4FF4FA6307E040F2DC5304E0054AA8
:104F10007B68043332F8133018460C37BD465DF811
:104F2000047B70479C14002080B483B000AF002342
:104F30007B60104B5B6C0F4A43F4804353640D4B12
:104F40005B6C03F480437B607B6800233B60094B10
:104F50001B6C084A43F080531364064B1B6C03F030
:104F600080533B603B6800BF0C37BD465DF8047B57
:104F7000704700BF0038024080B58AB000AF78604B
:104F800007F1140300221A605A609A60DA601A610D
:104F90007B681B68174A934227D100233B61164B5D
:104FA0005B6C154A43F480735364134B5B6C03F4DE
:104FB00080733B613B690023FB600F4B1B6B0E4A08
:104FC00043F0010313630C4B1B6B03F00103FB6005
:104FD000FB683D237B610323BB610023FB6107F179
:104FE00014031946054801F09FF900BF2837BD4654
:104FF00080BD00BF00200140003802400000024098
:1050000080B58AB000AF786007F1140300221A60FF
:105010005A609A60DA601A617B681B68194A934289
:105020002CD100233B61184B1B6C174A43F480437F
:105030001364154B1B6C03F480433B613B690023F5
:10504000FB60114B1B6B104A43F0020313630E4BC2
:105050001B6B03F00203FB60FB684FF460437B6152
:105060000223BB610023FB6103233B6205237B62B8
:1050700007F114031946054801F056F900BF283717
:10508000BD4680BD003800400038024000040240A8
:1050900080B584B000AF78607B681B68184A934283
:1050A00016D10023FB60174B5B6C164A43F00103DB
:1050B0005364144B5B6C03F00103FB60FB6800223C
:1050C0000721192001F067F8192001F080F812E09B
:1050D0007B681B680C4A93420DD10023BB60094BCF
:1050E0001B6C084A43F002031364064B1B6C03F06D
:1050F0000203BB60BB6800BF1037BD4680BD00BF68
:1051000000000140003802400004004080B58CB02F
:1051100000AF786007F11C0300221A605A609A60A1
:10512000DA601A617B681B68B3F1804F4BD10023B2
:10513000BB613F4B1B6C3E4A43F0010313643C4B85
:105140001B6C03F00103BB61BB6900237B61384B1F
:105150001B6B374A43F001031363354B1B6B03F0A2
:1051600001037B617B6900233B61314B1B6B304A40
:1051700043F0020313632E4B1B6B03F002033B61EE
:105180003B694FF40043FB6102233B6200237B62D7
:105190000023BB620123FB6207F11C03194625486B
:1051A00001F0C2F80823FB6102233B6200237B620B
:1051B0000023BB620123FB6207F11C0319461E4852
:1051C00001F0B2F830E07B681B681C4A93422BD197
:1051D0000023FB60164B1B6C154A43F00403136459
:1051E000134B1B6C03F00403FB60FB680023BB60E4
:1051F0000F4B1B6B0E4A43F0020313630C4B1B6BEC
:1052000003F00203BB60BB68C023FB6102233B6267
:1052100000237B620023BB620223FB6207F11C03B5
:105220001946054801F080F800BF3037BD4680BD03
:105230000038024000000240000402400008004024
:1052400080B58AB000AF786007F1140300221A60BD
:105250005A609A60DA601A617B681B68334A93422D
:105260001FD100233B61324B1B6B314A43F00103DA
:1052700013632F4B1B6B03F001033B613B694FF43E
:1052800080637B610223BB610023FB6100233B62DF
:1052900001237B6207F114031946264801F044F804
:1052A00040E07B681B68244A93423BD10023FB60AB
:1052B0001F4B1B6B1E4A43F0010313631C4B1B6BFC
:1052C00003F00103FB60FB680023BB60184B1B6B02
:1052D000174A43F002031363154B1B6B03F00203E1
:1052E000BB60BB68C0237B610223BB610023FB6101
:1052F00000233B6202237B6207F1140319460D4829
:1053000001F012F803237B610223BB610023FB61E0
:1053100000233B6202237B6207F11403194607480E
:1053200001F002F800BF2837BD4680BD00000140F3
:105330000038024000000240000400400004024027
:1053400080B58AB000AF786007F1140300221A60BC
:105350005A609A60DA601A617B681B681D4A934242
:1053600034D100233B611C4B5B6C1B4A43F0200390
:105370005364194B5B6C03F020033B613B690023D2
:10538000FB60154B1B6B144A43F001031363124B74
:105390001B6B03F00103FB60FB684FF4C0537B61A0
:1053A0000223BB610023FB6103233B6208237B6272
:1053B00007F114031946094800F0B6FF0022062140
:1053C000472000F0E8FE472000F001FF00BF28372B
:1053D000BD4680BD0014014000380240000002407C
:1053E00080B400AF00BFFDE780B400AF00BFFDE7B1
:1053F00080B400AF00BFFDE780B400AF00BFFDE7A1
:1054000080B400AF00BFFDE780B400AF00BFBD4671
:105410005DF8047B704780B400AF00BFBD465DF807
:10542000047B704780B400AF00BFBD465DF8047BCD
:10543000704780B500AF00F09DF900BF80BD80B51A
:1054400000AF022001F028F900BF80BD80B500AF99
:10545000024802F053FE00BF80BD00BFB002002032
:1054600080B500AF4FF4806001F016F900BF80BD39
:1054700080B500AF024803F06FFD00BF80BD00BFE4
:10548000D003002080B400AF01231846BD465DF86C
:10549000047B704780B582B000AF7860396005F05A
:1054A00081FA034616221A604FF0FF331846083778
:1054B000BD4680BD80B582B000AF78604FF0FF314F
:1054C0007868FFF7E7FF00BFFDE780B586B000AF63
:1054D000F860B9607A6000237B610AE0AFF3008076
:1054E0000146BB685A1CBA60CAB21A707B690133A4
:1054F0007B617A697B689A42F0DB7B6818461837D3
:10550000BD4680BD80B586B000AFF860B9607A60F6
:1055100000237B6109E0BB685A1CBA601B781846FF
:10552000AFF300807B6901337B617A697B689A42C3
:10553000F1DB7B6818461837BD4680BD80B483B068
:1055400000AF78604FF0FF3318460C37BD465DF86A
:10555000047B704780B483B000AF786039603B68EB
:105560004FF400525A60002318460C37BD465DF8D0
:10557000047B704780B483B000AF78600123184685
:105580000C37BD465DF8047B704780B485B000AF32
:10559000F860B9607A60002318461437BD465DF89C
:1055A000047B704780B586B000AF7860144A154B15
:1055B000D31A7B617B693B61134B1B68002B02D1C3
:1055C000114B124A1A60104B1A687B6813443A69EF
:1055D0009A4207D205F0E6F903460C221A604FF012
:1055E000FF3309E0084B1B68FB60074B1A687B68B8
:1055F0001344054A1360FB6818461837BD4680BD42
:105600000000022000040000D4140020281600200E
:1056100080B400AF064BD3F88830054A43F47003DA
:10562000C2F8883000BFBD465DF8047B704700BFFC
:1056300000ED00E080B582B000AF03460A46FB7182
:105640001346BB71FB79002B14BF01230023DBB28F
:105650001A461021084800F0EBFFBB79002B14BF5D
:1056600001230023DBB21A462021034800F0E0FFAB
:1056700000BF0837BD4680BD00040240DFF834D0CB
:10568000FFF7C6FF0C480D490D4A002302E0D4582D
:10569000C4500433C4188C42F9D30A4A0A4C00237C
:1056A00001E013600432A242FBD305F081F9FCF75C
:1056B00005FD70470000022000000020DC010020F2
:1056C0000CF40008DC01002028160020FEE7000092
:1056D00080B500AF0E4B1B680D4A43F40073136096
:1056E0000B4B1B680A4A43F480631360084B1B682A
:1056F000074A43F480731360032000F041FD0F203C
:1057000000F008F8FFF710FC0023184680BD00BF2A
:10571000003C024080B582B000AF7860124B1A683E
:10572000124B1B7819464FF47A73B3FBF1F3B2FBBB
:10573000F3F3184600F059FD0346002B01D0012376
:105740000EE07B680F2B0AD8002279684FF0FF30FB
:1057500000F021FD064A7B681360002300E001236E
:1057600018460837BD4680BD080000201000002004
:105770000C00002080B400AF064B1B781A46064B85
:105780001B681344044A136000BFBD465DF8047BE8
:10579000704700BF10000020D814002080B400AF74
:1057A000034B1B681846BD465DF8047B704700BF7D
:1057B000D814002080B584B000AF7860FFF7EEFF0A
:1057C000B8607B68FB60FB68B3F1FF3F05D00A4B14
:1057D0001B781A46FB681344FB6000BFFFF7DEFF2F
:1057E0000246BB68D31AFA689A42F7D800BF00BFD6
:1057F0001037BD4680BD00BF1000002080B584B0CA
:1058000000AF78600023FB737B68002B01D101237C
:1058100033E07B681B6C002B09D17868FFF7ACFB89
:105820007B6800225A647B68002283F83C207B68F6
:105830001B6C03F01003002B18D17B681B6C23F446
:10584000885323F0020343F002027B681A647868ED
:1058500000F0CAFA7B6800225A647B681B6C23F054
:10586000030343F001027B681A6401E00123FB7328
:105870007B68002283F83C20FB7B18461037BD462E
:1058800080BD000080B485B000AF78600023BB60AD
:105890007B6893F83C30012B01D1022397E07B68B1
:1058A000012283F83C207B681B689B6803F001039E
:1058B000012B18D07B681B689A687B681B6842F0D4
:1058C00001029A60454B1B68454AA2FB03239A0CD0
:1058D00013465B001344BB6002E0BB68013BBB6046
:1058E000BB68002BF9D17B681B689B6803F0010340
:1058F000012B5FD17B681B6C23F4E06323F0010371
:1059000043F480727B681A647B681B685B6803F4ED
:105910008063002B07D07B681B6C23F4405343F457
:1059200080527B681A647B681B6C03F48053B3F568
:10593000805F06D17B685B6C23F006027B685A644B
:1059400002E07B6800225A647B68002283F83C20D6
:10595000244BFB607B681B686FF022021A60FB68B7
:105960005B6803F01F03002B0FD17B681B689B68EB
:1059700003F04053002B29D17B681B689A687B6831
:105980001B6842F080429A6020E07B681B68164AE0
:1059900093421BD17B681B689B6803F04053002B2C
:1059A00014D17B681B689A687B681B6842F0804250
:1059B0009A600BE07B681B6C43F010027B681A64F2
:1059C0007B685B6C43F001027B685A6400231846D5
:1059D0001437BD465DF8047B704700BF0800002007
:1059E00083DE1B43002301400020014080B483B0CC
:1059F00000AF78607B6893F83C30012B01D1022323
:105A000021E07B68012283F83C207B681B689A6850
:105A10007B681B6822F001029A607B681B689B68A8
:105A200003F00103002B09D17B681B6C23F488531E
:105A300023F0010343F001027B681A647B680022B3
:105A400083F83C20002318460C37BD465DF8047BE4
:105A5000704780B584B000AF786039600023FB6088
:105A60007B681B689B6803F48063B3F5806F13D178
:105A70007B681B689B6803F48073B3F5807F0BD150
:105A80007B681B6C43F020027B681A647B680022F1
:105A900083F83C20012363E0FFF780FEF86021E0FB
:105AA0003B68B3F1FF3F1DD03B68002B07D0FFF7E9
:105AB00075FE0246FB68D31A3A689A4212D27B6896
:105AC0001B681B6803F00203022B0BD07B681B6C66
:105AD00043F004027B681A647B68002283F83C2050
