:020000040800F2
:1000000000000220F95D0008C5590008CD5900081C
:10001000D5590008DD590008E55900080000000026
:10002000000000000000000000000000ED59000882
:10003000FB59000800000000095A0008175A000880
:10004000495E0008495E0008495E0008495E0008F4
:10005000495E0008495E0008495E0008235A00080E
:10006000495E0008495E0008495E0008495E0008D4
:10007000495E0008495E0008495E0008495E0008C4
:10008000495E0008495E0008495E00080000000063
:10009000000000000000000000000000495E0008B1
:1000A000495E0008315A0008495E0008495E0008B0
:1000B000495E0008495E0008495E0008495E000884
:1000C000495E0008495E0008495E0008495E000874
:1000D000495E0008495E0008495E00080000000013
:1000E000455A0008495E0008495E0008000000000B
:1000F000000000000000000000000000495E000851
:1001000000000000495E0008495E0008495E0008E2
:1001100000000000000000000000000000000000DF
:10012000495E0008495E0008495E0008495E000813
:10013000495E000800000000000000000000000010
:10014000000000000000000000000000495E000800
:10015000495E0008495E0008495E0008555A0008DB
:10016000495E0008495E0008000000000000000031
:10017000000000000000000000000000000000007F
:1001800000000000495E00080000000000000000C0
:08019000495E0008495E000809
:1001A00010B5054C237833B9044B13B10448AFF3B1
:1001B00000800123237010BDE40100200000000036
:1001C00048D2000808B5034B1BB103490348AFF3FD
:1001D000008008BD00000000E801002048D20008AF
:1001E00001F0FF01102A2BDB10F0070F08D010F8E8
:1001F000013B013A8B422DD010F0070F42B3F6D1EC
:10020000F0B441EA012141EA014122F007047FF004
:1002100000070023F0E80256083C85EA010586EA5B
:10022000010685FA47F5A3FA87F586FA47F6A5FA97
:1002300087F68EB9EED1F0BC01F0FF0102F00702A3
:1002400032B110F8013B013A83EA010313B1F8D14E
:100250000020704701387047002D06BF354603382F
:10026000073815F0010F07D1013015F4807F02BF68
:10027000013015F4C03F0130F0BC0138704700BFB9
:10028000034613F8012B002AFBD1181A01387047D6
:1002900081F0004102E000BF83F0004330B54FEA37
:1002A00041044FEA430594EA050F08BF90EA020FA4
:1002B0001FBF54EA000C55EA020C7FEA645C7FEA37
:1002C000655C00F0E2804FEA5454D4EB5555B8BF5A
:1002D0006D420CDD2C4480EA020281EA030382EACB
:1002E000000083EA010180EA020281EA0303362D5D
:1002F00088BF30BD11F0004F4FEA01314FF4801C30
:100300004CEA113102D0404261EB410113F0004F41
:100310004FEA03334CEA133302D0524263EB4303F8
:1003200094EA050F00F0A780A4F10104D5F1200E96
:100330000DDB02FA0EFC22FA05F2801841F10001F1
:1003400003FA0EF2801843FA05F359410EE0A5F1C5
:1003500020050EF1200E012A03FA0EFC28BF4CF0F6
:10036000020C43FA05F3C01851EBE37101F00045AC
:1003700007D54FF0000EDCF1000C7EEB00006EEBB9
:100380000101B1F5801F1BD3B1F5001F0CD3490843
:100390005FEA30004FEA3C0C04F101044FEA44529A
:1003A00012F5800F80F09A80BCF1004F08BF5FEA21
:1003B000500C50F1000041EB045141EA050130BD01
:1003C0005FEA4C0C404141EB0101013C28BFB1F513
:1003D000801FE9D291F0000F04BF01460020B1FA5E
:1003E00081F308BF2033A3F10B03B3F120020CDA31
:1003F0000C3208DD02F1140CC2F10C0201FA0CF00F
:1004000021FA02F10CE002F11402D8BFC2F1200C73
:1004100001FA02F120FA0CFCDCBF41EA0C01904029
:10042000E41AA2BF01EB0451294330BD6FEA040472
:100430001F3C1CDA0C340EDC04F11404C4F120025D
:1004400020FA04F001FA02F340EA030021FA04F36F
:1004500045EA030130BDC4F10C04C4F1200220FAC6
:1004600002F001FA04F340EA0300294630BD21FA04
:1004700004F0294630BD94F0000F83F4801306BFCA
:1004800081F480110134013D4EE77FEA645C18BFBE
:100490007FEA655C29D094EA050F08BF90EA020F55
:1004A00005D054EA000C04BF1946104630BD91EA4D
:1004B000030F1EBF0021002030BD5FEA545C05D150
:1004C0004000494128BF41F0004130BD14F580048F
:1004D0003CBF01F5801130BD01F0004545F0FE4103
:1004E00041F470014FF0000030BD7FEA645C1ABF38
:1004F000194610467FEA655C1CBF0B46024650EA6F
:10050000013406BF52EA033591EA030F41F400219A
:1005100030BD00BF90F0000F04BF0021704730B520
:100520004FF4806404F132044FF000054FF00001F5
:1005300050E700BF90F0000F04BF0021704730B5B6
:100540004FF4806404F1320410F0004548BF40428B
:100550004FF000013EE700BF42004FEAE2014FEAE0
:1005600031014FEA02701FBF12F07F4393F07F4FBB
:1005700081F06051704732F07F4208BF704793F0BE
:100580007F4F04BF41F40021704730B54FF46074D1
:1005900001F0004521F000411CE700BF50EA0102D4
:1005A00008BF704730B54FF000050AE050EA01027D
:1005B00008BF704730B511F0004502D5404261EBED
:1005C00041014FF4806404F132045FEA915C3FF42E
:1005D000D8AE4FF003025FEADC0C18BF03325FEACB
:1005E000DC0C18BF033202EBDC02C2F1200300FA7C
:1005F00003FC20FA02F001FA03FE40EA0E0021FAA1
:1006000002F11444BDE600BF70B54FF0FF0C4CF48E
:10061000E06C1CEA11541DBF1CEA135594EA0C0F40
:1006200095EA0C0F00F0DEF82C4481EA030621EA7B
:100630004C5123EA4C5350EA013518BF52EA0335B6
:1006400041F4801143F4801338D0A0FB02CE4FF068
:100650000005E1FB02E506F00042E0FB03E54FF098
:100660000006E1FB03569CF0000F18BF4EF0010E90
:10067000A4F1FF04B6F5007F64F5407404D25FEA8C
:100680004E0E6D4146EB060642EAC62141EA55513F
:100690004FEAC52040EA5E504FEACE2EB4F1FD0C81
:1006A00088BFBCF5E06F1ED8BEF1004F08BF5FEAFF
:1006B000500E50F1000041EB045170BD06F00046B1
:1006C00046EA010140EA020081EA0301B4EB5C045E
:1006D000C2BFD4EB0C0541EA045170BD41F4801156
:1006E0004FF0000E013C00F3AB8014F1360FDEBF7B
:1006F000002001F0004170BDC4F10004203C35DA57
:100700000C341BDC04F11404C4F1200500FA05F3D9
:1007100020FA04F001FA05F240EA020001F000427A
:1007200021F0004110EBD37021FA04F642EB0601F0
:100730005EEA430E08BF20EAD37070BDC4F10C041A
:10074000C4F1200500FA04F320FA05F001FA04F2DE
:1007500040EA020001F0004110EBD37041F10001CA
:100760005EEA430E08BF20EAD37070BDC4F12005D5
:1007700000FA05F24EEA020E20FA04F301FA05F23D
:1007800043EA020321FA04F001F0004121FA04F2E5
:1007900020EA020000EBD3705EEA430E08BF20EAB5
:1007A000D37070BD94F0000F0FD101F000464000EF
:1007B00041EB010111F4801F08BF013CF7D041EA71
:1007C000060195F0000F18BF704703F00046520075
:1007D00043EB030313F4801F08BF013DF7D043EA46
:1007E0000603704794EA0C0F0CEA135518BF95EAFC
:1007F0000C0F0CD050EA410618BF52EA4306D1D183
:1008000081EA030101F000414FF0000070BD50EAA1
:10081000410606BF1046194652EA430619D094EA2B
:100820000C0F02D150EA013613D195EA0C0F05D115
:1008300052EA03361CBF104619460AD181EA030169
:1008400001F0004141F0FE4141F470014FF0000021
:1008500070BD41F0FE4141F4780170BD70B54FF0BC
:10086000FF0C4CF4E06C1CEA11541DBF1CEA13553C
:1008700094EA0C0F95EA0C0F00F0A7F8A4EB05041E
:1008800081EA030E52EA03354FEA013100F0888015
:100890004FEA03334FF0805545EA131343EA1263DE
:1008A0004FEA022245EA111545EA10654FEA002693
:1008B0000EF000419D4208BF964244F1FD0404F54C
:1008C000407402D25B084FEA3202B61A65EB0305A8
:1008D0005B084FEA32024FF480104FF4002CB6EB65
:1008E000020E75EB030E22BFB61A754640EA0C00E5
:1008F0005B084FEA3202B6EB020E75EB030E22BF25
:10090000B61A754640EA5C005B084FEA3202B6EB65
:10091000020E75EB030E22BFB61A754640EA9C0024
:100920005B084FEA3202B6EB020E75EB030E22BFF4
:10093000B61A754640EADC0055EA060E18D04FEAB2
:10094000051545EA16754FEA06164FEAC30343EA52
:1009500052734FEAC2025FEA1C1CC0D111F4801F1F
:100960000BD141EA00014FF000004FF0004CB6E718
:1009700011F4801F04BF01430020B4F1FD0C88BFB7
:10098000BCF5E06F3FF6AFAEB5EB030C04BFB6EBC2
:10099000020C5FEA500C50F1000041EB045170BDB5
:1009A0000EF0004E4EEA113114EB5C04C2BFD4EBE2
:1009B0000C0541EA045170BD41F480114FF0000E66
:1009C000013C90E645EA060E8DE60CEA135594EAE2
:1009D0000C0F08BF95EA0C0F3FF43BAF94EA0C0FE5
:1009E0000AD150EA01347FF434AF95EA0C0F7FF45A
:1009F00025AF104619462CE795EA0C0F06D152EAAE
:100A000003353FF4FDAE1046194622E750EA410691
:100A100018BF52EA43067FF4C5AE50EA41047FF4A2
:100A20000DAF52EA43057FF4EBAE12E74FF0FF3C07
:100A300006E000BF4FF0010C02E000BF4FF0010CD8
:100A40004DF804CD4FEA410C7FEA6C5C4FEA430C51
:100A500018BF7FEA6C5C1BD001B050EA410C0CBFA0
:100A600052EA430C91EA030F02BF90EA020F002002
:100A7000704710F1000F91EA030F58BF994208BF69
:100A800090422CBFD8176FEAE37040F00100704726
:100A90004FEA410C7FEA6C5C02D150EA013C07D17D
:100AA0004FEA430C7FEA6C5CD6D152EA033CD3D0C8
:100AB0005DF8040B704700BF8446104662468C46C2
:100AC0001946634600E000BF01B5FFF7B7FF0028F5
:100AD00048BF10F1000F01BD4DF808EDFFF7F4FF1E
:100AE0000CBF012000205DF808FB00BF4DF808EDA9
:100AF000FFF7EAFF34BF012000205DF808FB00BFCC
:100B00004DF808EDFFF7E0FF94BF012000205DF8ED
:100B100008FB00BF4DF808EDFFF7CEFF94BF0120A2
:100B200000205DF808FB00BF4DF808EDFFF7C4FF9B
:100B300034BF012000205DF808FB00BF4FEA410CE4
:100B40007FEA6C5C02D150EA013C0AD14FEA430CC7
:100B50007FEA6C5C02D152EA033C02D14FF0000004
:100B600070474FF0010070474FEA410212F5001242
:100B700015D211D56FF47873B3EB625212D94FEAE4
:100B8000C12343F0004343EA505311F0004F23FACE
:100B900002F018BF404270474FF00000704750EA23
:100BA000013005D111F0004008BF6FF000407047E0
:100BB0004FF00000704700BF53B94AB9002908BF81
:100BC00000281CBF4FF0FF314FF0FF3000F088B914
:100BD000ADF1080C6DE904CE00F006F8DDF804E094
:100BE000DDE9022304B070472DE9F047089D8E46E9
:100BF00004468846002B4AD18A42174662D9B2FA87
:100C000082F64EB1C6F1200301FA06F820FA03F38A
:100C1000B74043EA0808B4404FEA174E1FFA87FC72
:100C2000B8FBFEF1230C0EFB118843EA084301FBDD
:100C30000CF29A4209D9FB1801F1FF3080F0EA80EA
:100C40009A4240F2E78002393B449A1AA3B2B2FBBF
:100C5000FEF00EFB102243EA024300FB0CFC9C4515
:100C600009D9FB1800F1FF3280F0D6809C4540F294
:100C7000D3803B44023840EA0140A3EB0C0300213F
:100C80001DB1F3400022C5E90032BDE8F0878B4278
:100C900005D90DB1C5E9000100210846F5E7B3FA11
:100CA00083F1002946D1734502D3824200F20581C7
:100CB000841A6EEB030201209046002DE5D0C5E9B1
:100CC0000048E2E7002A00F09080B2FA82F6002E97
:100CD00040F0A4808A1A030C4FEA174E80B2BCB2CF
:100CE0000121B2FBFEFC0EFB1C2243EA024304FB83
:100CF0000CF29A4207D9FB180CF1FF3802D29A4243
:100D000000F2E080C4469B1AB3FBFEF20EFB1233E6
:100D100040EA034302FB04F49C4207D9FB1802F1AA
:100D2000FF3002D29C4200F2CA8002461B1B42EAFC
:100D30000C40A5E7C1F120068B4022FA06F71F43BD
:100D40000EFA01F420FA06F32EFA06FE4FEA1749CE
:100D5000234300FA01F81FFA87FCBEFBF9F01C0CD4
:100D600009FB10EE44EA0E4400FB0CFEA64502FA15
:100D700001F209D93C1900F1FF3A80F09C80A645A8
:100D800040F2998002383C44A4EB0E041FFA83FE23
:100D9000B4FBF9F309FB13444EEA044403FB0CFCD7
:100DA000A44508D93C1903F1FF3E80F08280A44598
:100DB0007FD9023B3C4443EA0040A4EB0C04A0FB77
:100DC00002EC64457346E14662D35FD05DB1B8EB97
:100DD000030264EB090404FA06F622FA01F31E4347
:100DE000CC40C5E9006400214FE7B1FBF2FC010CE7
:100DF00041EA0E4180B240EA01423B4638463C4659
:100E0000B846BE462026B1FBF7F1A2EB080241EA44
:100E10000C4166E7014618E710462CE7C6F12002B0
:100E20002EFA02F3B740B14020FA02F24FEA174E11
:100E30000A43B3FBFEF8BCB20EFB1833110C41EAB7
:100E4000034108FB04F9B04089454FEA104380B2E2
:100E50003ED9791808F1FF3C01D289451FD8A1EB92
:100E60000901B1FBFEF909FB04F80EFB191192B25E
:100E700042EA0142424529D2BA1809F1FF31C4D2EF
:100E80004245C2D2A9F102013A44BEE7F0459DD2E3
:100E9000BEEB02036CEB070C0138E14696E7A7EBCB
:100EA00009094944A8F1020CB1FBFEF909FB04F859
:100EB000DBE773467FE7504666E70846FDE63B44BE
:100EC000023A33E7ACF1020C3B441CE749469CE78D
:100ED000A1EB0901C446B1FBFEF909FB04F8C4E724
:100EE000704700BF80B584B000AF03460A46FB8060
:100EF0001346BB80FB88002B06D100F037F8BB8877
:100F0000184605F015F82AE0FB88164A92FBF3F321
:100F1000FB60FB68B3F5803F02D34FF6FF73FB60C5
:100F2000FB68132B01D81423FB600F4B1B68FA6876
:100F3000013ADA62FB68013B0B4AD3600A4B1B683B
:100F4000FA685208DA630821074807F065FABB8897
:100F5000184604F0EDFF0821034807F00DFB103799
:100F6000BD4680BD00093D00E402002080B500AF11
:100F70000821024807F000FB00BF80BDE40200200A
:100F800080B500AFC82140F20B20FFF7ABFF322144
:100F90000020FFF7A7FFC82140F29320FFF7A2FF30
:100FA00032210020FFF79EFF4FF496714FF44470FA
:100FB000FFF798FF00BF80BD80B500AF96214FF4CA
:100FC0004470FFF78FFF32210020FFF78BFFC8210D
:100FD00040F21740FFF786FF00BF80BD80B500AF2D
:100FE000642140F20B20FFF77DFF642140F2932043
:100FF000FFF778FF64214FF44470FFF773FFC821B7
:1010000040F21740FFF76EFF64210020FFF76AFFF0
:10101000642140F21740FFF765FF64214FF44470EC
:10102000FFF760FF4FF4967140F21740FFF75AFF49
:1010300000BF80BD80B582B000AF00237B600AE0B6
:10104000C821DC20FFF74EFF64210020FFF74AFF94
:101050007B6801337B607B68022BF1DD00BF00BF42
:101060000837BD4680BD000080B5ADF5036D00AF0B
:10107000634800F04DFC0023C7F82C381DE0002326
:10108000C7F8283810E05F49D7F82C381A01D7F88C
:10109000283813441B010B4442F20F721A60D7F830
:1010A00028380133C7F82838D7F828380F2BEADD5D
:1010B000D7F82C380133C7F82C38D7F82C380F2B39
:1010C000DDDD002387F827384F4B1A684F4B1B682C
:1010D0004C49120113441B010B4404331B78002BB1
:1010E00015D0494B1A68494B1B68464912011344F5
:1010F0001B010B4400221A60012387F82738424B5A
:101100001B68424A12681946414800F017FC414BDF
:101110001A683E4B1B683B49120113441B010B44E8
:1011200004331B78002B15D03A4B1A68374B1B68D9
:101130003449120113441B010B4400221A6001239D
:1011400087F82738334B1B68304A126819463048F5
:1011500000F0F4FB2C4B1A682F4B1B682949120135
:1011600013441B010B4404331B78002B15D0264B72
:101170001A68294B1B682349120113441B010B44B5
:1011800000221A60012387F827381F4B1B68224A68
:10119000126819461E4800F0D1FB1E4B1A681E4B00
:1011A0001B681849120113441B010B4404331B78BC
:1011B000002B15D0174B1A68174B1B6811491201E9
:1011C00013441B010B4400221A60012387F82738BF
:1011D000104B1B68104A126819460D4800F0AEFB10
:1011E00097F8273883F00103DBB2002B1AD00B48A5
:1011F00000F08EFB0A4B42F20F721A60BAE100BF98
:1012000060D200084C040020FCFC000800FD00082F
:101210009CD2000804FD000808FD0008B8D20008B0
:101220009C1400200023C7F820380023C7F81C387E
:10123000B84B1A68B84B1B68B849120113441B011C
:101240000B4404331B78002B22D0B24B1A68B24BEC
:101250001B68B249120113441B010B441B68002B8D
:1012600016D1AC4B196807F50363A3F58663D7F86D
:101270001C2843F82210D7F81C385A1CC7F81C2821
:10128000A54A116807F50362A2F5036242F823102C
:10129000A34B1A68A04B1B68A049120113441B0101
:1012A0000B4404331B78002B22D09D4B1A689A4BB9
:1012B0001B689A49120113441B010B441B68002B45
:1012C00016D1974B196807F50363A3F58663D7F822
:1012D0001C2843F82210D7F81C385A1CC7F81C28C1
:1012E0008D4A116807F50362A2F5036242F82310E4
:1012F000884B1A688B4B1B688849120113441B01E9
:101300000B4404331B78002B22D0824B1A68854B88
:101310001B688249120113441B010B441B68002BFC
:1013200016D17C4B196807F50363A3F58663D7F8DC
:101330001C2843F82210D7F81C385A1CC7F81C2860
:10134000784A116807F50362A2F5036242F8231098
:10135000734B1A68734B1B687049120113441B01CD
:101360000B4404331B78002B22D06D4B1A686D4B55
:101370001B686A49120113441B010B441B68002BB4
:1013800016D1674B196807F50363A3F58663D7F891
:101390001C2843F82210D7F81C385A1CC7F81C2800
:1013A000604A116807F50362A2F5036242F8231050
:1013B0000023C7F81838C7E007F50363A3F5866371
:1013C000D7F8202853F82230C7F81038D7F820383B
:1013D0005A1CC7F8202807F50362A2F5036252F8E9
:1013E0002330C7F80C380023C7F81438A7E04E4A5A
:1013F000D7F8143852F82330D7F810281344C7F818
:1014000008384A4AD7F8143852F82330D7F80C284D
:101410001344C7F80438D7F80838002BC0F28A8084
:10142000D7F808380F2B00F38580D7F80438002B45
:10143000C0F28080D7F804380F2B7BDC3749D7F80F
:1014400008381A01D7F8043813441B010B4404333D
:101450001B78002B6ED03149D7F810381A01D7F815
:101460000C3813441B01CA18D7F814381344053339
:101470001B7883F00103DBB2002B5BD02749D7F840
:1014800010381A01D7F80C3813441B010B441B68A1
:101490000133C7F800382149D7F808381A01D7F8BE
:1014A000043813441B010B441B68D7F800289A42E8
:1014B00040DA1A49D7F808381A01D7F80438134423
:1014C0001B010B44D7F800281A60D7F81C38FE2BF4
:1014D0001CDC07F50363A3F58663D7F81C28D7F84F
:1014E000081843F82210D7F81C385A1CC7F81C28D3
:1014F00007F50362A2F50362D7F8041842F8231037
:10150000D7F818380133C7F8183813E0084800F046
:10151000FFF919E0FCFC000800FD00084C04002065
:1015200004FD000808FD0008DCFC0008ECFC0008D5
:10153000F4D20008D7F814380133C7F81438D7F8B4
:101540001438032B7FF753AFD7F82028D7F81C386F
:101550009A42FFF631AF094B1B68094A1360084BEA
:101560001B681946074800F0E9F9D7F8181806482B
:1015700000F0E4F907F50367BD4680BD4C04002088
:101580009C14002008D3000848D3000880B586B01A
:1015900000AF724800F0BCF900237B614FF4807308
:1015A000BB6000233B6119E00023FB6010E06C4945
:1015B0003B691A01FB6813441B010B4404331B787D
:1015C000002B02D07B6901337B61FB680133FB6038
:1015D000FB680F2BEBDD3B6901333B613B690F2B54
:1015E000E2DD7B6907EE903AF8EEE76ABB6807EE4A
:1015F000903AB8EEE77AC6EE877A9FED5A7A67EEB0
:10160000877AC7ED017A584800F082F97868FEF7CA
:10161000A3FF02460B46554800F090F9BA68796975
:10162000534800F08BF9534B1B681946524800F0A1
:1016300085F9524800F06CF9514B1B6842F20E726A
:1016400093420CDC4E4B1B6819464E4800F076F96D
:101650004D4800F05DF94D4800F05AF905E04C485E
:1016600000F056F94B4800F053F94B4800F050F9A0
:10167000D7ED017A9FED497AF4EEC77AF1EE10FAD0
:101680000CD83F4B1B6842F20E72934206DC444872
:1016900000F03EF9434800F03BF925E0D7ED017A30
:1016A0009FED417AF4EEC77AF1EE10FA06D83F4882
:1016B00000F02EF93E4800F02BF915E0D7ED017A45
:1016C0009FED3C7AF4EEC77AF1EE10FA06D83A486C
:1016D00000F01EF9394800F01BF905E0384800F029
:1016E00017F9384800F014F9374800F011F9D7ED30
:1016F000017A9FED2A7AF4EEC77AF1EE10FA0FD84C
:101700001F4B1B6842F20E72934209DC2F4800F017
:10171000FFF82F4800F0FCF82E4800F0F9F815E02B
:10172000D7ED017A9FED2C7AF4EEC77AF1EE10FA3C
:1017300006DD2A4800F0ECF8294800F0E9F805E059
:10174000284800F0E5F8284800F0E2F8274800F0C3
:10175000DFF800BF1837BD4680BD00BF74D3000856
:101760004C0400200000C842A4D30008C0D30008E5
:10177000E4D3000898140020FCD3000824D4000807
:101780009C14002044D4000874D40008ACD4000891
:10179000DCD400080CD5000844D5000800004842FD
:1017A00064D500088CD5000800008242C8D5000826
:1017B000ECD500080000A04230D6000850D6000842
:1017C00084D60008A4D60008E4D600080CD7000888
:1017D0004CD7000874D7000800009642A4D7000830
:1017E000D0D7000810D8000844D800087CD80008DA
:1017F00080B584B000AF3A4800F08AF8394800F06C
:1018000087F80023FB6006E0F968374800F096F897
:10181000FB680133FB60FB680F2BF5DD334800F0FC
:1018200077F80F23BB6040E0B968314800F086F8D4
:1018300000237B6030E02F497B681A01BB681344AA
:101840001B010B4404331B7883F00103DBB2002B34
:1018500003D0294800F05CF81BE026497B681A0198
:10186000BB6813441B010B441B6842F20F72934286
:1018700003D1224800F04CF80BE01E497B681A01A6
:10188000BB6813441B010B441B681946164800F043
:1018900055F87B6801337B607B680F2BCBDD1348E9
:1018A00000F036F8BB68013BBB60BB68002BBBDABD
:1018B000134B1B6842F20E72934206DC104B1B68FE
:1018C0001946104800F03AF802E00F4800F020F8FE
:1018D0000E4800F01DF800BF1037BD4680BD00BFA8
:1018E000A8D80008E0D80008E4D80008E8D8000824
:1018F000ECD800084C040020F4D80008F8D8000800
:101900009C14002000D9000834D9000864D90008CC
:1019100080B582B000AF78607868FEF7B1FC03460E
:101920009AB24FF47A737968034807F05FFE00BFFC
:101930000837BD4680BD00BF040400200FB480B549
:10194000C2B000AF07F58A7207F58473A3F58273FE
:101950001A6007F58473A3F5827307F108001B680A
:10196000D7F810214FF4807109F092FB07F10803BA
:101970001846FFF7CDFF00BF07F58477BD46BDE8E9
:10198000804004B07047000080B584B002AF164BB1
:101990001B8807EE903AF8EEE77A9FED147A27EE6F
:1019A000877ADFED136AC7EE267AC7ED017A786889
:1019B000FEF7D2FD02460B460B49098800910D48FF
:1019C000FFF7BCFF084B1B8840F6B732934203D8A1
:1019D0000948FFF79DFF02E00848FFF799FF00BFA5
:1019E0000837BD4680BD00BF60140020333353402C
:1019F00000008045C0DF0008D8DF0008F4DF0008E1
:101A000080B500AF0B48FFF783FF0B48FFF796FF49
:101A10000A48FFF793FF0A48FFF790FF0948FFF7CE
:101A20008DFF0948FFF78AFF0848FFF771FF00BFE5
:101A300080BD00BFFCDF000824E0000858E000087B
:101A400078E00008A4E00008D0E0000804E1000805
:101A500080B485B000AF87ED030AC7ED020A87EDB9
:101A6000011A97ED037AD7ED027AB4EEE77AF1EE38
:101A700010FA01D5BB680BE097ED037AD7ED017A38
:101A8000B4EEE77AF1EE10FA01DD7B6800E0FB6866
:101A900007EE903AB0EE670A1437BD465DF8047B56
:101AA0007047000080B500AF084B4FF000021A608D
:101AB000074B4FF000021A60064B4FF000021A600D
:101AC0000548FFF725FF00BF80BD00BF04020020CE
:101AD000080200200C0200202CE100082DE9B04390
:101AE0008AB004AF786187ED040AC7ED030A87ED79
:101AF000021AC7ED011AD7ED030A97ED040A7869B7
:101B000004F0AEF87B69BA685A603869FEF724FDC4
:101B100080468946F868FEF71FFD04460D46B86802
:101B2000FEF71AFD02460B46CDE90223CDE900453A
:101B300042464B460348FFF701FF00BF1837BD463A
:101B4000BDE8B08340E1000880B584B000AF87ED08
:101B5000010AD7ED017A9FED0F7A67EE877AC7ED1C
:101B6000037ADFED0D7AF8EE677AB0EE671ADFEDF3
:101B70000B0A97ED030AFFF76BFFF0EE407AFCEEDD
:101B8000E77A17EE903A7B817B8918461037BD467D
:101B900080BD00BFABAAAA3FE80300000000000020
:101BA00080B485B000AF87ED030AB86079603A6011
:101BB000D7ED037A9FED2D7AF4EEC77AF1EE10FAA5
:101BC00014D5BB68D3ED007A9FED297A67EE877A4A
:101BD000BB68C3ED007A7B68D3ED007A9FED257A70
:101BE00067EE877A7B68C3ED007A38E0D7ED037A39
:101BF0009FED217AF4EEC77AF1EE10FA00DC2EE0C8
:101C0000BB68D3ED007A9FED1D7A67EE877ABB68DB
:101C1000C3ED007A7B68D3ED007A9FED197A67EE09
:101C2000877A7B68C3ED007ABB68D3ED007A9FEDBD
:101C3000157AF4EEC77AF1EE10FA02DDBB68124AAB
:101C40001A607B68D3ED007A9FED107AF4EEC77AC4
:101C5000F1EE10FA00DC02E07B680D4A1A6000BF6A
:101C60001437BD465DF8047B704700BF0000B442E6
:101C70003333333FCDCC4C3F0000B4439A99993F66
:101C8000CDCC8C3F000048440000484400401C4537
:101C900000401C45B0B5A2B004AF87ED010AC7ED06
:101CA000000A7868FEF758FC04460D463868FEF7CF
:101CB00053FC02460B46CDE9002322462B46BF4883
:101CC000FFF73CFEBE4B1A68BD4B9B68BD4951F8FF
:101CD000233013443B66BA4B5A68B94B9B68BA49E8
:101CE00051F823301344FB653B6E002B08DB3B6E41
:101CF0000F2B05DCFB6D002B02DBFB6D0F2B03DDD7
:101D0000B248FFF705FED6E1D7ED007A9FEDB07A35
:101D100067EE877AC7ED057AAE4B3B61AE4BFB6051
:101D200007F10C0207F1100107F11403184697EDB3
:101D3000010AFFF735FFD7ED057A97ED047AD7ED65
:101D4000036AF0EE661AB0EE471AF0EE670A97EDF6
:101D5000010AA248FFF7C2FE02F026FBB86502F0B6
:101D60002DFB7865FFF79EFE9D4B3B654FF0000312
:101D70007B679C4BFB6400233B674FF47A73BB6427
:101D800073E13B6F01333B67944803F09BFF93483B
:101D900004F00CF887ED110A97ED110AFFF7D4FE55
:101DA0000346A7F8423002F0FFFAF86302F006FBA0
:101DB000B863FA6BBB6DD31A7B63BA6B7B6DD31AB6
:101DC0003B637A6B3B6B1344DA0F13445B10FB628B
:101DD000FB6A07EE903AF8EEE77A9FED837A67EEBA
:101DE000877AC7ED0A7A97ED0A7AD7ED017AB4EED1
:101DF000E77AF1EE10FA08DBB86AFEF7ADFB0246AF
:101E00000B467A48FFF79AFD3DE14FF00003FB6671
:101E100000F0F8FB0346002B00F0A18000F0FEFB71
:101E200000F0C2FB87ED090AB7EE007AD7ED137A0E
:101E300037EE677AD7ED1D7A27EE277AD7ED136A4A
:101E4000D7ED097A66EEA77A77EE277AC7ED1D7A85
:101E500097ED1D7AD7ED147A27EE277A644BD3EDF0
:101E6000007A77EE277A624BC3ED007A604BD3EDB0
:101E7000007AF1EE677AC7ED087A97ED087AD7ED28
:101E8000147A27EE277A5B4BD3ED007A77EE277A28
:101E9000584BC3ED007A574BD3ED007A9FED567A3D
:101EA000B1EE477ADFED546AB0EE661AF0EE470AFB
:101EB000B0EE670AFFF7CCFDF0EE407A4D4BC3ED74
:101EC000007A4E4BD3ED007A97ED087A77EE676A89
:101ED00097ED147AC6EE877AC7ED077A474A3B6AD0
:101EE0001360474B93ED007AD7ED087A27EE277AF7
:101EF000444BD3ED006A3F4BD3ED007A66EEA77AF0
:101F000037EE277A404BD3ED006AD7ED077A66EEBD
:101F1000A77A77EE277AC7ED1B7A396F3B4BA3FB85
:101F200001235A0913469B001344DB00CA1A002AF6
:101F300015D12F4B1B681846FEF70EFB04460D46C5
:101F4000F86EFEF709FB02460B46B7F84210029105
:101F5000CDE9002322462B462D48FFF7EFFCFB6E10
:101F6000BB61B7F84230D7ED067AFDEEE77A17EE9F
:101F7000902A9B1ABB66B7F84230D7ED067AFDEE81
:101F8000E77A17EE902A13447B66D7ED117AB7EE05
:101F9000007AF4EEC77AF1EE10FA3BDD32231A46EE
:101FA000BB6E934201DA3223BB6632231A467B6E44
:101FB000934233DA32237B6630E000BF74E10008DD
:101FC0004C140020DCFC0008ECFC0008A4E1000834
:101FD000000016440000FA440000FA4510020020F8
:101FE0000AD7A33B9A99993EEC51383EC8E10008C4
:101FF0000402002008020020000048420C020020D9
:10200000000000200002002004000020CDCCCCCC39
:10201000E8E100080023BB6600237B664FF47A7377
:102020001A46BB6E934202DD4FF47A73BB664FF4DF
:102030007A731A467B6E934202DD4FF47A737B66A5
:10204000BB6E9BB20093012380221C49002002F04A
:102050000BFB7B6E9BB200930123022218490820E0
:1020600002F002FB052003F063FF164803F0ADFE0B
:10207000034683F00103DBB2002B04D03A6FBB6C44
:102080009A42FFF47EAE02F0D5FA642003F050FFCE
:102090000D4B1B681846FEF75FFA02460B46396F78
:1020A00000910A48FFF74AFC3A6FBB6C9A4202D390
:1020B0000748FFF72DFC7837BD46B0BD0000024051
:1020C0000004024010020020040200200CE200087C
:1020D00044E2000880B582B000AF02F0EFFB214B74
:1020E0009B7A002B04D02048FFF712FC002334E039
:1020F0001E4B1A681D4B9B681D4951F82330134431
:102100007B601A4B5A68194B9B681A4951F8233067
:1021100013443B607B68002B08DB7B680F2B05DCDE
:102120003B68002B02DB3B680F2B04DD1248FFF7F6
:10213000EFFB002311E0F7EE000A9FED100AFFF716
:10214000A9FD0A4A7B681360084A3B685360074B45
:102150001B690133054A1361012318460837BD4640
:1021600080BD00BF6014002078E200084C140020FD
:10217000DCFC0008ECFC00089CE200080000344392
:102180002DE9B04388B004AF87ED030AC7ED020A1A
:1021900087ED011A134AFB681360134ABB6813608A
:1021A000124A7B681360FFF77DFCF868FEF7D4F9EC
:1021B00080468946B868FEF7CFF904460D46786830
:1021C000FEF7CAF902460B46CDE90223CDE90045E8
:1021D00042464B460648FFF7B1FB00BF1037BD46ED
:1021E000BDE8B083000000200002002004000020B1
:1021F000C4E2000880B500AF0C48FFF789FB00F08F
:1022000001FA0346002B03D00948FFF781FB02E0E7
:102210000848FFF77DFBF7EE000A9FED070AFFF77E
:1022200039FD0648FFF774FB00BF80BDC8E4000815
:10223000ECE4000814E50008000034433CE5000825
:1022400080B584B000AF0346FB71FB7963F07F0378
:10225000DBB27B7300233B7300224FF4805117489D
:1022600004F0BCFD07F10D0164230122144805F0C0
:10227000E2FA0346FB7307F10C01642301221048C4
:1022800005F01DFC0346BB7301224FF480510B483F
:1022900004F0A4FDFB7B002B02D1BB7B002B07D0FD
:1022A0000848FFF735FB084B00221A70FF2300E0B7
:1022B0003B7B18461037BD4680BD00BF000402407E
:1022C0008C02002060E500082C02002080B584B05C
:1022D00000AF03460A46FB711346BB71FB793B73A3
:1022E000BB797B7300224FF48051114804F076FDD6
:1022F00007F10C01642302220E4805F09CFA034604
:10230000FB7301224FF48051094804F067FDFB7B09
:10231000002B05D00848FFF7FBFA084B00221A7083
:10232000012003F005FE00BF1037BD4680BD00BF91
:10233000000402408C02002084E500082C020020EA
:1023400080B582B000AF3C48FFF7E2FAC82003F046
:10235000EFFD80216B20FFF7B9FFFA2003F0E8FDC5
:1023600000216B20FFF7B2FF322003F0E1FD0121D5
:102370006B20FFF7ABFF322003F0DAFD00216C2069
:10238000FFF7A4FF0A2003F0D3FD6A20FFF758FFF0
:102390000346FB71FB7943F01003FB71FB7919468F
:1023A0006A20FFF793FF0A2003F0C2FD04211920E1
:1023B000FFF78CFF0A2003F0BBFD02211A20FFF774
:1023C00085FF0A2003F0B4FD08211B20FFF77EFFE4
:1023D0000A2003F0ADFD08211C20FFF777FF0A203B
:1023E00003F0A6FD02211D20FFF770FF0A2003F075
:1023F0009FFD7520FFF724FF0346BB71BB7919468B
:102400000E48FFF79BFABB79702B09D0BB791946B0
:102410000B48FFF793FA0B4B00221A70002306E0DB
:102420000948FFF775FA074B01221A700123184675
:102430000837BD4680BD00BFACE50008D8E5000800
:10244000ECE500082C02002014E600082DE9B0435A
:1024500088B004AF4E4B1B7883F00103DBB2002B36
:1024600003D04C48FFF754FA8EE04B48FFF750FA80
:102470004A4B4FF47A721A614FF00003FB604FF041
:102480000003BB604FF000037B6000233B602EE045
:1024900000F0C4F8424BB3F9003007EE903AF8EE82
:1024A000E77A97ED037A77EE277AC7ED037A3C4B0C
:1024B000B3F9023007EE903AF8EEE77A97ED027A38
:1024C00077EE277AC7ED027A354BB3F9043007EE81
:1024D000903AF8EEE77A97ED017A77EE277AC7ED32
:1024E000017A032003F024FD3B6801333B602B4B52
:1024F0001A693B689A42CBD8284B1B6907EE903A81
:10250000B8EE677AD7ED036AC6EE877A234BC3ED40
:10251000007A224B1B6907EE903AB8EE677AD7ED46
:10252000026AC6EE877A1D4BC3ED017A1B4B1B690D
:1025300007EE903AB8EE677AD7ED016AC6EE877A71
:10254000164BC3ED027A154B01221A73134B1B680D
:102550001846FEF701F880468946104B5B6818461E
:10256000FDF7FAFF04460D460C4B9B681846FDF735
:10257000F3FF02460B46CDE90223CDE90045424672
:102580004B460848FFF7DAF91037BD46BDE8B0837F
:102590002C02002028E6000854E600083002002043
:1025A0007014002088E6000880B582B000AF124B9E
:1025B0001B7B83F00103DBB2002B04D000F09EF8FC
:1025C000F0EE407A13E00D4BB3F9043007EE903A89
:1025D000B8EEE77A084BD3ED027A37EE677ADFED93
:1025E000086AC7EE267AC7ED017AD7ED017AB0EE18
:1025F000670A0837BD4680BD3002002070140020F5
:102600000000834280B400AF034B1B781846BD46E0
:102610005DF8047B704700BF2C02002080B584B0B9
:1026200000AF2F4B1B7883F00103DBB2002B03D0EC
:102630002C48FFF76DF950E0C323FB7100224FF4E3
:102640008051294804F0CAFBF91D64230122274860
:1026500005F0F1F80346FB73FB7B002B09D0012248
:102660004FF48051204804F0B9FB2148FFF750F99E
:1026700033E007F10801642306221C4805F01FFA25
:102680000346FB7301224FF48051174804F0A6FB68
:10269000FB7B002B03D01748FFF73AF91DE03B7A8C
:1026A0001BB21B021AB27B7A1BB213431AB2124B33
:1026B0001A80BB7A1BB21B021AB2FB7A1BB21343FD
:1026C0001AB20D4B5A803B7B1BB21B021AB27B7BAA
:1026D0001BB213431AB2084B9A801037BD4680BD17
:1026E0002C020020B8E60008000402408C02002002
:1026F000ECE6000810E700087014002080B400AF7A
:10270000094BB3F9043007EE903AF8EEE77A9FED03
:10271000077AC7EE876AF0EE667AB0EE670ABD46C2
:102720005DF8047B704700BF7014002000008342F6
:1027300080B500AF03F08AFB00F092F900F0C2FC14
:1027400000F0F6F900F07EFA00F0B2FA00F050FB6B
:1027500000F03AFC00F08CFC00F09EFB0021A44845
:1027600005F05AFE0421A24805F056FE0821A048B3
:1027700005F052FE0C219E4805F04EFE01224FF45A
:1027800000519C4804F02AFB00F0CEFD00F07CFDD7
:1027900002F0A2F9FFF736FF0346002B17D0964848
:1027A000FFF7B6F89548FFF7B3F84FF4FA6003F077
:1027B000BFFBFFF74BFE9248FFF7AAF89FED911A77
:1027C000DFED910AB7EE000AFFF7DAFC02E08F486E
:1027D000FFF79EF801F0E8FD0346002B07D101F05A
:1027E000EDFD0346002B02D18948FFF791F8FEF773
:1027F000C7FB01221021874804F0F0FA01222021B2
:10280000844804F0EBFA4FF47A7003F091FB002255
:102810001021804804F0E2FA002220217D4804F0D3
:10282000DDFA7D48FFF774F8FFF7EAF87B48FFF719
:102830006FF806E00A2003F07BFB1021754804F0D6
:10284000E6FA774B1B78DBB2002BF3D00022102185
:10285000704804F0C3FA002220216E4804F0BEFA4A
:10286000FEF7AAFB4FF4FA6003F062FB6D48FFF736
:102870004FF801F0ADFD02F0E5F901F0D7FA02F0F2
:102880001DF8694B1B78DBB2012B14D1664B00227B
:102890001A70664B1B7B002B06D0644B5B7B002BB6
:1028A00002D001F041FC06E06148FFF731F801F089
:1028B0000FFC01F0BBFA5C4B1B78DBB2022B30D172
:1028C000594B00221A70594B1B7B83F00103DBB27A
:1028D000002B21D0554B5B7B83F00103DBB2002B37
:1028E0001AD0544B1B78002B14BF01230023DBB2FA
:1028F00083F00103DBB203F00103DAB24D4B1A702F
:102900004C4B1B78002B03D04B48FFF701F808E035
:102910004A48FEF7FDFF04E001F0DAFB4848FEF705
:10292000F7FF03F0F9FA0246464B1B68D31A642BF3
:1029300037D903F0F1FA0346424A136002214248B4
:1029400004F034FA0346002B26D14FF4806131485D
:1029500004F02CFA0346002B1ED13C4B1B68002BC5
:1029600005D103F0D9FA0346384A136018E003F0A2
:10297000D3FA0246354B1B68D31AB3F57A7F0FD9C9
:102980003348FEF7C5FFFFF735FC304B00221A60D5
:10299000254B00221A7003E02E4B00221A6000E043
:1029A00000BF03F0B9FA02462B4B1B68D31A41F261
:1029B0008832934206D9FEF7E7FF03F0ADFA0346EB
:1029C000254A136003F0A8FA0246244B1B68D31A69
:1029D000B3F5FA6F08D910210E4804F018FA03F085
:1029E0009BFA03461D4A1360642003F0A1FA46E7F0
:1029F00074030020000802406CE8000898E8000812
:102A0000CCE80008CDCCCC3D00000000ECE800088C
:102A100020E900080004024050E9000874E90008B9
:102A2000951400209CE90008941400204C14002008
:102A3000BCE90008A0140020ECE9000828EA00081E
:102A400038EA0008A414002000000240A814002066
:102A500054EA0008AC140020B0140020B414002084
:102A600080B594B000AF07F1200330220021184652
:102A700008F01CFB07F10C0300221A605A609A60F0
:102A8000DA601A610023BB60274B1B6C264A43F0B7
:102A900080531364244B1B6C03F08053BB60BB68F2
:102AA00000237B60214B1B68204A43F440431360A2
:102AB0001E4B1B6803F440437B607B6802233B6230
:102AC0000123FB6210233B630223BB630023FB63F0
:102AD00010233B64A8237B640223BB640423FB64B0
:102AE00007F12003184604F0C5F90346002B01D076
:102AF00000F006FC0F23FB6002233B6100237B6197
:102B00004FF48053BB610023FB6107F10C030221EA
:102B1000184604F027FC0346002B01D000F0F0FB20
:102B200000BF5037BD4680BD0038024000700040F5
:102B300080B584B000AF3B4600221A605A609A60AC
:102B4000DA603D4B3D4A1A603B4B4FF480325A608D
:102B5000394B00229A60384B01221A61364B012210
:102B60001A76354B002283F82020334B0022DA629C
:102B7000314B334A9A62304B0022DA602E4B0522E9
:102B8000DA612D4B002283F830202B4B01225A6151
:102B9000294803F0F1F90346002B01D000F0B0FB07
:102BA00000233B6001237B600023BB603B4619464A
:102BB000214803F0A5FB0346002B01D000F0A0FB49
:102BC00002233B6002237B603B4619461A4803F010
:102BD00097FB0346002B01D000F092FB03233B60E0
:102BE00003237B603B461946134803F089FB0346E9
:102BF000002B01D000F084FB04233B6004237B60A6
:102C00003B4619460C4803F07BFB0346002B01D0E2
:102C100000F076FB05233B6005237B603B461946AD
:102C2000054803F06DFB0346002B01D000F068FB64
:102C300000BF1037BD4680BD440200200020014087
:102C40000100000F80B500AF174B184A1A60164BF1
:102C50004FF482725A60144B00229A60124B002289
:102C6000DA60114B00221A610F4B00225A610E4BA1
:102C70004FF400729A610C4B3022DA610A4B002249
:102C80001A62094B00225A62074B00229A62064BD5
:102C90000A22DA62044804F045FD0346002B01D005
:102CA00000F02EFB00BF80BD8C02002000380040E9
:102CB00080B596B000AF07F1480300221A605A6051
:102CC0009A60DA6007F1400300221A605A6007F147
:102CD000240300221A605A609A60DA601A615A610D
:102CE0009A613B1D20220021184608F0DFF93E4B77
:102CF0003E4A1A603C4B14225A603B4B00229A60B9
:102D0000394BC822DA60384B00221A61364B002258
:102D10005A61354B80229A61334805F0D5FA034653
:102D2000002B01D000F0ECFA4FF48053BB6407F1A4
:102D3000480319462C4805F069FF0346002B01D0D3
:102D400000F0DEFA284805F00EFB0346002B01D008
:102D500000F0D6FA00233B6400237B6407F14003B4
:102D60001946214806F01EFB0346002B01D000F057
:102D7000C7FA60237B626423BB620023FB620023EB
:102D80003B6300237B630023BB630023FB6307F1EA
:102D9000240308221946144805F076FE0346002B4A
:102DA00001D000F0ADFA00237B600023BB6000235C
:102DB000FB6000233B6100237B614FF40053BB6148
:102DC00000233B623B1D1946074806F059FB0346AA
:102DD000002B01D000F094FA034802F023FD00BF5D
:102DE0005837BD4680BD00BFE4020020000001400E
:102DF00080B58CB000AF07F10C03242200211846E7
:102E000008F054F93B1D00221A605A60214B4FF024
:102E100080421A601F4B00225A601E4B00229A60AB
:102E20001C4B4FF6FF72DA601A4B00221A61194BE5
:102E300080229A610323FB6000233B6101237B61B5
:102E40000023BB610023FB6100233B6201237B6203
:102E50000023BB620023FB6207F10C0319460D48F7
:102E600005F0EEFB0346002B01D000F049FA0023E9
:102E70007B600023BB603B1D1946064806F092FAB2
:102E80000346002B01D000F03BFA00BF3037BD46AF
:102E900080BD00BF2C03002080B58EB000AF07F1CD
:102EA000280300221A605A609A60DA6007F1200352
:102EB00000221A605A603B1D00221A605A609A6014
:102EC000DA601A615A619A613D4B3E4A1A603C4B86
:102ED00004225A603A4B00229A60394B40F2463243
:102EE000DA60374B00221A61354B80229A613448F0
:102EF00005F0EAF90346002B01D000F001FA4FF487
:102F00008053BB6207F1280319462D4805F07EFE69
:102F10000346002B01D000F0F3F9294805F023FA0D
:102F20000346002B01D000F0EBF900233B620023A5
:102F30007B6207F120031946214806F033FA034665
:102F4000002B01D000F0DCF960237B600023BB6024
:102F50000023FB6000237B613B1D002219461848BB
:102F600005F092FD0346002B01D000F0C9F93B1D8E
:102F700004221946124805F087FD0346002B01D0B4
:102F800000F0BEF93B1D082219460D4805F07CFDF6
:102F90000346002B01D000F0B3F93B1D0C2219466B
:102FA000074805F071FD0346002B01D000F0A8F999
:102FB000034802F037FC00BF3837BD4680BD00BF74
:102FC000740300200004004080B58CB000AF07F10E
:102FD0000C0324220021184608F068F83B1D00224B
:102FE0001A605A60204B214A1A601F4B00225A6017
:102FF0001D4B00229A601C4B4FF6FF72DA601A4B91
:1030000000221A61184B80229A610323FB6000237F
:103010003B6101237B610023BB610023FB61002333
:103020003B6201237B620023BB620023FB6207F14A
:103030000C0319460C4805F003FB0346002B01D096
:1030400000F05EF900237B600023BB603B1D194646
:10305000054806F0A7F90346002B01D000F050F90F
:1030600000BF3037BD4680BDBC03002000080040D3
:1030700080B500AF114B124A1A60104B4FF4165234
:103080005A600E4B00229A600C4B0022DA600B4B08
:1030900000221A61094B0C225A61084B00229A61E6
:1030A000064B0022DA61054806F050FA0346002B71
:1030B00001D000F025F900BF80BD00BF040400204E
:1030C0000014014080B588B000AF07F10C03002266
:1030D0001A605A609A60DA601A610023BB604B4B39
:1030E0001B6B4A4A43F004031363484B1B6B03F00A
:1030F0000403BB60BB6800237B60444B1B6B434AEB
:1031000043F001031363414B1B6B03F001037B602E
:103110007B6800233B603D4B1B6B3C4A43F0020342
:1031200013633A4B1B6B03F002033B603B680022C6
:103130004FF40051364803F051FE002241F2303185
:10314000344803F04BFE00224FF44071324803F044
:1031500045FE4FF40053FB6001233B6100237B617C
:103160000023BB6107F10C031946294803F09AFCC0
:103170000223FB604FF488133B6100237B6107F15E
:103180000C031946244803F08DFC4FF48063FB6068
:103190004FF488133B6100237B6107F10C03194650
:1031A0001C4803F07FFC41F23033FB6001233B619C
:1031B00000237B610023BB6107F10C03194615480E
:1031C00003F070FC4FF44073FB6001233B6100236C
:1031D0007B610023BB6107F10C0319460E4803F025
:1031E00061FC00220521072003F093FB072003F078
:1031F000ACFB00220521282003F08BFB282003F0E4
:10320000A4FB00BF2037BD4680BD00BF0038024090
:1032100000080240000402400000024080B584B073
:1032200000AF0346FB8002F077FEF860114B1B688D
:10323000FA68D31AC82B19D9FB88022B09D10E4B77
:1032400001221A700D4B01221A700D48FEF760FB27
:1032500009E0FB88B3F5806F05D1074B02221A7095
:103260000848FEF755FB034AFB68136000BF1037A0
:10327000BD4680BDB8140020941400209514002091
:1032800084EA00089CEA000880B586B000AF3B1DC8
:1032900000221A605A609A60DA601A6101237B602A
:1032A0000323BB600023FB603B1D1946124803F05B
:1032B000F9FB04237B603B1D19460F4803F0F2FB2A
:1032C00008237B603B1D19460B4803F0EBFB1023E2
:1032D0007B603B1D1946084803F0E4FB20237B601C
:1032E0003B1D1946044803F0DDFB0448FEF710FBC4
:1032F00000BF1837BD4680BD00000240B4EA000898
:1033000080B500AF72B600BF1021064803F07FFD04
:103310002021044803F07BFD642002F009FE00BF79
:10332000F2E700BF0004024080B500AF00F042F8B1
:10333000184B00221A60174B00225A60154B0022CE
:103340009A60144B00221A73124B00225A73114BCD
:1033500000221A610E2200210F4807F0A7FE122258
:1033600000210E4807F0A2FE102200210C4807F0B1
:103370009DFE0C4B00221A600B4B00221A60FEF7D8
:10338000DFFF0A48FEF7C4FA0948FEF7C1FA00BF9A
:1033900080BD00BF4C140020601400207014002079
:1033A00084140020981400209C140020DCEA0008FB
:1033B0000CEB000880B584B000AF0023FB603EE05A
:1033C0000023BB6035E03949FB681A01BB68134430
:1033D0001B010B4442F20F721A603449FB681A0158
:1033E000BB6813441B010B44043300221A702F499D
:1033F000FB681A01BB6813441B010B440C33002209
:103400001A6000237B600EE02849FB681A01BB6844
:1034100013441B01CA187B681344053300221A7039
:103420007B6801337B607B68032BEDDDBB68013378
:10343000BB60BB680F2BC6DDFB680133FB60FB681C
:103440000F2BBDDD00233B601FE0184A3B681B02C9
:103450001344073301221A70144A3B681B021344B9
:10346000F53301221A70114A3B681B0113440833DB
:1034700001221A700D4A3B681B01134403F60673C0
:1034800001221A703B6801333B603B680F2BDCDD87
:10349000064B01221A71054B0122DA600448FEF73F
:1034A00037FA00BF1037BD4680BD00BF4C04002076
:1034B00034EB000880B5ADF5036D00AF0023C7F80D
:1034C0002C381DE00023C7F8283810E0C849D7F889
:1034D0002C381A01D7F8283813441B010B4442F248
:1034E0000F721A60D7F828380133C7F82838D7F890
:1034F00028380F2BEADDD7F82C380133C7F82C38E1
:10350000D7F82C380F2BDDDDBA4B1B7B83F0010382
:10351000DBB2002B2CD0B84B1A68B84B1B68B449EF
:10352000120113441B010B4400221A60B44B1A68A9
:10353000B24B1B68AE49120113441B010B4400221D
:103540001A60AD4B1A68AF4B1B68A94912011344AE
:103550001B010B4400221A60A94B1A68A94B1B6877
:10356000A349120113441B010B4400221A6002E01C
:103570009F4B00221A600023C7F824380023C7F8A5
:1035800020389C4B1B7B83F00103DBB2002B5CD00B
:10359000994B196807F50363A3F22C43D7F8202849
:1035A00043F82210D7F820385A1CC7F82028934A2D
:1035B000116807F50362A2F62C0242F82310904B23
:1035C000196807F50363A3F22C43D7F8202843F8C2
:1035D0002210D7F820385A1CC7F82028874A1168CB
:1035E00007F50362A2F62C0242F82310824B1968F9
:1035F00007F50363A3F22C43D7F8202843F82210E1
:10360000D7F820385A1CC7F820287E4A116807F5D9
:103610000362A2F62C0242F82310794B196807F5D1
:103620000363A3F22C43D7F8202843F82210D7F8DD
:1036300020385A1CC7F82028724A116807F503621F
:10364000A2F62C0242F8231014E007F50363A3F25C
:103650002C43D7F82028002143F82210D7F820382F
:103660005A1CC7F8202807F50362A2F62C02002195
:1036700042F823100023C7F81C38A7E007F50363BE
:10368000A3F22C43D7F8242853F82230C7F8143873
:10369000D7F824385A1CC7F8242807F50362A2F685
:1036A0002C0252F82330C7F810380023C7F8183816
:1036B00087E0554AD7F8183852F82330D7F814283D
:1036C0001344C7F80C38514AD7F8183852F8233049
:1036D000D7F810281344C7F80838D7F80C38002B4F
:1036E0006ADBD7F80C380F2B66DCD7F80838002BCC
:1036F00062DBD7F808380F2B5EDC3D49D7F8143869
:103700001A01D7F8103813441B01CA18D7F8183813
:10371000134405331B7883F00103DBB2002B4BD03D
:103720003349D7F814381A01D7F8103813441B015D
:103730000B441B680133C7F804382D49D7F80C38FF
:103740001A01D7F8083813441B010B441B68D7F83B
:1037500004289A4230DA2649D7F80C381A01D7F8EB
:10376000083813441B010B44D7F804281A60D7F813
:103770002038FE2B1CDC07F50363A3F22C43D7F89B
:103780002028D7F80C1843F82210D7F820385A1CF4
:10379000C7F8202807F50362A2F62C02D7F808180C
:1037A00042F82310D7F81C380133C7F81C3803E05F
:1037B0001748FEF7ADF809E0D7F818380133C7F815
:1037C0001838D7F81838032B7FF773AFD7F82428A9
:1037D000D7F820389A42FFF651AFD7F81C180D4899
:1037E000FEF7ACF800BF07F50367BD4680BD00BF1C
:1037F0004C0400204C140020FCFC000800FD0008D4
:1038000004FD000808FD0008DCFC0008ECFC0008D2
:1038100068EB00087CEB000880B493B000AF884BE5
:103820009B687B6442F20F733B6440F2E733FB63B7
:10383000002387F83B30824B9B683B60804B9B6842
:1038400001335A4203F0030302F0030258BF53420C
:103850007B607B4B9B6803335A4203F0030302F007
:10386000030258BF5342BB60754B9B6802335A42F8
:1038700003F0030302F0030258BF5342FB6000232E
:103880007B635BE07B6B9B0048333B4453F8483CD5
:10389000BB616B4B1A686B49BB6951F82330134409
:1038A0007B61674B5A686849BB6951F82330134400
:1038B0003B617B69002B3EDB7B690F2B3BDC3B696B
:1038C000002B38DB3B690F2B35DC5D4B1A685C4BFA
:1038D0005B685E49120113441B01CA18BB6913449B
:1038E00005331B7883F00103DBB2002B23D057494B
:1038F0007B691A013B6913441B010B440C331B68A1
:10390000002B18D1012387F83B3050497B691A01FD
:103910003B6913441B010B441B683A6C9A420ADD55
:103920004A497B691A013B6913441B010B441B681C
:103930003B64BB697B647B6B01337B637B6B032BD9
:10394000A0DD97F83B3083F00103DBB2002B6FD092
:1039500000233B6369E03B6B9B0048333B4453F8D7
:10396000483CFB62364B1A683649FB6A51F82330F3
:103970001344BB62324B5A683349FB6A51F8233017
:1039800013447B62BB6A002B4CDBBB6A0F2B49DC08
:103990007B6A002B46DB7B6A0F2B43DC284B1A68C3
:1039A000274B5B682949120113441B01CA18FB6AA3
:1039B000134405331B7883F00103DBB2002B31D0B5
:1039C0002249BB6A1A017B6A13441B010B441B6822
:1039D0003B621E49BB6A1A017B6A13441B010B44FC
:1039E0000C331B68FB613A6A3B6C9A4214DB3A6AFF
:1039F0003B6C9A4203D1FA69FB6B9A420CDB3A6A40
:103A00003B6C9A420ED1FA69FB6B9A420AD10C4B7D
:103A10009B68FA6A9A4205D13B6A3B64FB69FB6387
:103A2000FB6A7B643B6B01333B633B6B032B92DD97
:103A30007B6C18464C37BD465DF8047B704700BF71
:103A40004C140020DCFC0008ECFC00084C040020B6
:103A500090B58BB002AF00F031FF8A4B9B7A002B00
:103A600041D0894B1968884B5A68874B9B688748B7
:103A700009010A44120102441344053301221A7059
:103A8000814B1A68804B9B68814951F8233013445D
:103A9000FB617D4B5A687C4B9B687E4951F8233013
:103AA0001344BB61FB69002B1DDBFB690F2B1ADC88
:103AB000BB69002B17DBBB690F2B14DC724B9B68B7
:103AC00002335A4203F0030302F0030258BF534289
:103AD0006E48FA691101BA690A441201024413449A
:103AE000053301221A70674BDB7A002B48D0664BF6
:103AF0009B6803335A4203F0030302F0030258BFEA
:103B000053427B61604B1A685F4B5B685F491201EF
:103B100013441B01CA187B691344053301221A7030
:103B2000594B1A685A497B6951F8233013443B6159
:103B3000554B5A6857497B6951F823301344FB6051
:103B40003B69002B1CDB3B690F2B19DCFB68002B4E
:103B500016DBFB680F2B13DC7B6902335A4203F040
:103B6000030302F0030258BF534248483A69110167
:103B7000FA680A44120102441344053301221A7000
:103B8000404B1B7B002B48D03F4B9B6801335A4274
:103B900003F0030302F0030258BF5342BB603A4BE9
:103BA0001A68394B5B683949120113441B01CA1862
:103BB000BB681344053301221A70334B1A68344929
:103BC000BB6851F8233013447B602F4B5A6831494E
:103BD000BB6851F8233013443B607B68002B1CDB2F
:103BE0007B680F2B19DC3B68002B16DB3B680F2B27
:103BF00013DCBB6802335A4203F0030302F00302F2
:103C000058BF534221487A6811013A680A441201A8
:103C100002441344053301221A701B4B1A681A4BD5
:103C20005B681A49120113441B010B44043301223F
:103C30001A70154B1A68144B5B681448110119442B
:103C4000090101440C310968013110481201134483
:103C50001B0103440C3319600B4B19680A4B5A685B
:103C6000084B9B7A1C46074BDB7A1846054B1B7B9F
:103C70000193009023460848FDF760FE00BF2437FB
:103C8000BD4690BD601400204C1400204C04002060
:103C9000DCFC0008ECFC0008A4EB000880B584B054
:103CA00000AF786041E0264B9B687A68D31A0433F2
:103CB0005A4203F0030302F0030258BF5342FB6071
:103CC000FB68012B0ED100F06DFC1D4B9B6801338E
:103CD0005A4203F0030302F0030258BF5342184A4A
:103CE000936022E0FB68032B0ED100F01BFC144B09
:103CF0009B6803335A4203F0030302F0030258BFE8
:103D000053420F4A936010E0FB68022B0DD100F084
:103D100089FC0B4B9B6802335A4203F0030302F009
:103D2000030258BF5342064A9360054B9B687A686A
:103D30009A42B8D100BF00BF1037BD4680BD00BF5A
:103D40004C14002080B500AFFEF75CFC0346002B4E
:103D500003D0FEF7BFF9034617E000F0AFFD0C4BB0
:103D60009B7A002B04D00B48FDF7D2FD00230CE01A
:103D700000F06AFB084B1B690133074A1361074BCC
:103D80001B680133054A13600123184680BD00BF3C
:103D900060140020D0EB00084C1400209814002080
:103DA00080B400AF1C4B1B7B83F00103DBB2002B04
:103DB0001ED0194B1A68194B1B689A4205D0164B36
:103DC0001A68174B1B689A420DD1134B5A68154B52
:103DD0001B689A4205D0104B5A68134B1B689A42D5
:103DE00001D1012300E0002303F00103DBB20DE069
:103DF000094B1B68002B05D1074B5B68002B01D1D9
:103E0000012300E0002303F00103DBB21846BD46A6
:103E10005DF8047B704700BF4C140020FCFC0008D8
:103E200004FD000800FD000808FD000880B58AB008
:103E300000AF8148FDF76CFD00237B624FF47A737D
:103E40003B61C0E07D4B1A687C4B5B68796A7C48BB
:103E5000FDF774FDFFF7FCFDFFF72CFBFFF7A0FF5C
:103E60000346002B32D0754B1B7B83F00103DBB282
:103E7000002B24D07348FDF74BFD704B01221A73C1
:103E8000FDF79AF800233B6215E00023FB610CE08C
:103E90006D493B6A1A01FB6913441B010B440C3347
:103EA00000221A60FB690133FB61FB690F2BEFDD18
:103EB0003B6A01333B623B6A0F2BE6DD06E0634859
:103EC000FDF726FD5D4B01225A7390E0FFF7A4FC3D
:103ED000F860F9685E48FDF731FDF868FFF7DEFE2F
:103EE000FFF730FF0346002B0DD0544B1B7B002BFC
:103EF00004D00121002001F08FFE5EE000210120AE
:103F000001F08AFE59E05348FDF702FD0023FB76DD
:103F100000237B613EE07A69FB689A4237D0474BC9
:103F20001A684D497B6951F823301344BB60434BF9
:103F30005A684A497B6951F8233013447B60BB6857
:103F4000002B24DBBB680F2B21DC7B68002B1EDBE6
:103F50007B680F2B1BDC394B1A68384B5B683A497E
:103F6000120113441B01CA187B69134405331B78E3
:103F700083F00103DBB2002B09D07869FFF78EFED6
:103F8000FFF7E0FE0346002B01D00123FB767B699F
:103F900001337B617B69032B05DCFB7E83F001032E
:103FA000DBB2002BB7D1FB7E83F00103DBB2002B29
:103FB00003D02B48FDF7ACFC19E07B6A01337B6230
:103FC0000A2001F0B5FF7A6A3B699A420FDA1B4B6F
:103FD0001B7B83F00103DBB2002B7FF433AF174B65
:103FE0005B7B83F00103DBB2002B7FF42BAF00215E
:103FF000002001F011FE114B1B6919461948FDF70D
:104000009DFC0E4B1B7B002B0BD00C4B5B7B002BCA
:1040100007D01548FDF77CFC00F02AF8FCF7DEFF1E
:1040200005E01248FDF774FCFDF704F800BF00BF7F
:104030002837BD4680BD00BFF4EB00084C140020BB
:1040400018EC000834EC00084C04002060EC000878
:104050008CEC0008ACEC0008DCFC0008ECFC000870
:10406000D8EC0008F4EC000818ED000850ED00084A
:1040700080B500AF1048FDF74BFCFCF7F5FFFDF7EE
:1040800085FAFDF7B5FB0D48FDF742FC0C4B1B68AC
:1040900042F20E72934209DC094B1B68194609482B
:1040A000FDF74CFC0848FDF733FC02E00748FDF73C
:1040B0002FFC00BF80BD00BF88ED0008B0ED0008F8
:1040C0009C140020DCED000810EE000840EE000813
:1040D00080B500AF104B00221A600F4B00225A60CF
:1040E0000D4B00229A600C4B00221A730A4B0022DF
:1040F0005A73094B00221A61084B00221A60084BC0
:1041000000221A60FFF756F90648FDF701FCFCF79C
:1041100037FF00BF80BD00BF4C1400209814002062
:104120009C14002074EE000880B500AF0448FDF731
:10413000EFFB0448FDF7ECFB00F006F800BF80BD84
:10414000A8EE0008D0EE000880B586B000AF644845
:10415000FDF7DEFB634B1B7B83F00103DBB2002B1F
:1041600006D1604B5B7B83F00103DBB2002B03D0F5
:104170005D48FDF7CDFBB0E05C48FDF7C9FB594B4E
:1041800000221A60574B00225A60564B00229A6058
:104190000121012001F040FDFCF70EFF5448FDF71E
:1041A000B7FB01F0B9FEF8600023FB750DE0514B41
:1041B0001B78DBB2022B05D14E4B00221A70012373
:1041C000FB750BE0642001F0B3FE01F0A5FE024692
:1041D000FB68D31A42F20F729342E8D9FB7D83F059
:1041E0000103DBB2002B07D04348FDF791FB002110
:1041F000002001F011FD70E04048FDF789FB00232D
:104200003B613223BB6021E000F058FBFFF752F91D
:10421000FFF702FB78607868FFF740FDFFF792FD3B
:104220000346002B0BD03B6901333B612D4B1A68D1
:104230002C4B5B6839693248FDF780FB03E031485D
:10424000FDF766FB1EE0322001F072FE254B1A6876
:104250002D4B1B689A4205D0224B1A682B4B1B68CA
:104260009A420BD11F4B5A68294B1B689A4209D0BE
:104270001C4B5A68274B1B689A4203D03A69BB68AB
:104280009A42C1DB0021002001F0C6FC154B1A68E0
:104290001D4B1B689A4205D0124B1A681B4B1B68BA
:1042A0009A4215D10F4B5A68194B1B689A4205D098
:1042B0000C4B5A68174B1B689A4209D11648FDF7F8
:1042C00027FB39691548FDF739FBFCF787FE04E049
:1042D0001348FDF71DFBFCF7ADFE1837BD4680BD4A
:1042E000F4EE00084C14002018EF000854EF00080A
:1042F0008CEF000894140020BCEF0008E0EF0008E9
:10430000FCEF00081CF00008FCFC000804FD00089D
:1043100000FD000808FD000838F0000854F000080F
:104320006CF0000880B483B000AF194B1B685B6A67
:10433000FB80184B1B685B6ABB80174B1B88FA8895
:10434000D31A9BB27B80154B1B88BA88D31A9BB2B9
:104350003B803B885B429BB23B80B7F90220104B0D
:104360001B6813440E4A1360B7F900200D4B1B68FD
:1043700013440C4A1360084AFB881380074ABB8821
:10438000138000BF0C37BD465DF8047B704700BF4B
:104390002C030020BC030020080000200A0000209D
:1043A000BC140020C014002080B500AFFFF7BAFF96
:1043B000014B1B68184680BDBC14002080B500AFBF
:1043C000FFF7B0FF014B1B68184680BDC0140020EA
:1043D00080B500AF3C21154804F0D8F93C211448C1
:1043E00004F0D4F9114B1B684FF400425A62104B91
:1043F0001B684FF400425A62012001F099FD0D4BF9
:104400004FF400421A800C4B4FF400421A800B4BC1
:1044100000221A600A4B00221A600A4B00229A609E
:10442000084B0022DA6000BF80BD00BFBC03002043
:104430002C030020080000200A000020BC140020EB
:10444000C01400208414002080B58AB000AFFFF7AC
:10445000ABFF7862FFF7B2FF38622E4B1A682D4B24
:104460009B682D4951F823301344FB61294B5A684E
:10447000284B9B68294951F823301344BB61FB69E1
:10448000002B08DBFB690F2B05DCBB69002B02DB73
:10449000BB690F2B03DD2248FDF73AFA37E04FF4F2
:1044A00048720121002000F025F94FF448720121E3
:1044B000012000F01FF94FF47A737B61FFF774FF5E
:1044C0003861FFF77BFFF8603A697B6AD31ABB60FB
:1044D000FA683B6AD31A7B60BA687B681344DA0FC8
:1044E00013445B103B603A687B699A4203DA01200F
:1044F00001F01EFDE2E700BF00F09CF8054AFB69F1
:104500001360044ABB695360642001F011FD283731
:10451000BD4680BD4C140020DCFC0008ECFC00080B
:104520008CF0000880B584B000AFFFF747FFF8605B
:104530004FF448720021002000F0DCF84FF448727C
:104540000121012000F0D6F84FF4FA73BB60FFF7A9
:1045500035FF78607A68FB68D31A002BB8BF5B42DE
:104560003B603A68BB689A4203DA012001F0E0FC44
:10457000EDE700BF00F05EF8094B9B6803335A4239
:1045800003F0030302F0030258BF5342044A93604E
:10459000C82001F0CDFC00BF1037BD4680BD00BF74
:1045A0004C14002080B584B000AFFFF7FDFEF8602A
:1045B0004FF448720121002000F09CF84FF448723B
:1045C0000021012000F096F84FF4FA73BB60FFF76A
:1045D000EBFE78607A68FB68D31A002BB8BF5B42A9
:1045E0003B603A68BB689A4203DA012001F0A0FC04
:1045F000EDE700BF00F01EF8094B9B6801335A42FB
:1046000003F0030302F0030258BF5342044A9360CD
:10461000C82001F08DFC00BF1037BD4680BD00BF33
:104620004C14002080B500AFFFF7BCFFFFF7BAFFC6
:1046300000BF80BD80B400AF0A4B1B6800225A63E4
:10464000084B1B6800229A63064B1B680022DA6342
:10465000044B1B6800221A6400BFBD465DF8047B52
:10466000704700BF7403002080B584B000AFB9600C
:1046700011461A460346FB810B46BB811346FB716C
:104680003B8BB3F57A7F02D94FF47A733B83FB8976
:10469000002B04D1164B1B683A8B5A6313E0FB893D
:1046A000042B04D1124B1A683B8B93630BE0FB89FC
:1046B000082B04D10E4B1A683B8BD36303E00C4BE1
:1046C0001A683B8B1364FB79002B06D0BB89002250
:1046D0001946B86802F082FB05E0BB890122194641
:1046E000B86802F07BFB00BF1037BD4680BD00BF3D
:1046F0007403002080B584B000AF0346FB710B4605
:10470000BB711346BB80FB79002B15D1BB79002B05
:1047100009D01D4B1B68BA889A63002240211B48B0
:1047200002F05CFB2BE0184B1B68BA885A63164BEF
:104730001B6800229A6322E0BB79002B14BF01237F
:104740000023DBB283F00103DBB2FB73FB7B03F0DE
:104750000103FB73FB7B002B09D00B4B1B68BA8852
:104760001A64002201210A4802F038FB07E0064BD8
:104770001B6800221A64044B1B68BA88DA6300BF06
:104780001037BD4680BD00BF74030020000002400A
:104790000004024080B500AF01224FF480710D4843
:1047A00002F01CFB01224FF400710A4802F016FBD4
:1047B00001224FF48071084802F010FB01224FF4EF
:1047C0000071054802F00AFB022001F0B1FB00BFB6
:1047D00080BD00BF000002400004024080B500AF71
:1047E00000224FF480710B4802F0F8FA00224FF4D7
:1047F0000071084802F0F2FA00224FF48071064876
:1048000002F0ECFA00224FF40071034802F0E6FADD
:1048100000BF80BD000002400004024080B588B0A7
:1048200000AF786007F10C0300221A605A609A60AA
:10483000DA600023FB837B68FB6001233B61042378
:104840007B6107F10C031946184801F059FD034636
:10485000002B04D01648FDF75BF8002322E0134834
:1048600001F0CEFB0346002B04D01248FDF750F8B0
:10487000002317E064210D4801F0A9FC0346002B3A
:1048800007D00D48FDF744F8084801F06DFC0023FF
:1048900008E0064801F026FD0346FB83034801F0CB
:1048A00063FCFB8B18462037BD4680BD44020020C8
:1048B00094F30008B4F30008CCF3000890B585B079
:1048C00000AFFFF78BFF012001F032FB0220FFF762
:1048D000A5FF0346FB810320FFF7A0FF0346BB8132
:1048E0000420FFF79BFF03467B810520FFF796FF1F
:1048F00003463B81FFF74EFF0020FFF78FFF034683
:104900001A46714B1A800220FFF788FF03461A46A9
:10491000FB89D31A9AB26C4B5A800320FFF77EFFB3
:1049200003461A46BB89D31A9AB2674B9A80042071
:10493000FFF774FF03461A467B89D31A9AB2624B7B
:10494000DA800520FFF76AFF03461A463B89D31A2F
:104950009AB25D4B1A81FFF741FF5C4B93F822300E
:10496000002B32D0584B1C89002000F0A7FD0346D5
:104970009C4207D8544B5C88012000F09FFD034601
:104980009C4201D9012300E0002303F00103DAB2C5
:104990004D4B9A724C4BDC88022000F08FFD034691
:1049A0009C428CBF01230023DAB2474BDA72464B9C
:1049B0009C88032000F082FD03469C428CBF0123AB
:1049C0000023DAB2404B1A7327E03F4B1B89B3F543
:1049D000FA6F04D83C4B5B88B3F5FA6F01D9012319
:1049E00000E0002303F00103DAB2374B9A72364B32
:1049F000DB8840F2DC5293428CBF01230023DAB201
:104A0000314BDA72304B9B8840F2DC5293428CBFC0
:104A100001230023DAB22C4B1A732C4B93F822306B
:104A2000002B4CD0294B1B8AC73B274A1288934244
:104A300021DC264B1B8A03F2F313234A128893428C
:104A400019DB214B1B8940F6AB52934213D81E4B06
:104A50005B8840F6AB5293420DD81B4BDB8840F687
:104A6000AB52934207D8184B9B8840F6AB52934207
:104A700001D8012300E00023FB71FB7903F001035F
:104A8000FB71FB7983F00103DBB2002B0DD0104BDF
:104A90001B780133DAB20E4B1A700D4B1B78052BC5
:104AA0000DD90C4B00221A7009E0094B1B78002B22
:104AB00005D0074B1B78013BDAB2054B1A7000BFDB
:104AC0001437BD4690BD00BF60140020C414002000
:104AD000F81400200C000020B0B58EB000AF4B4899
:104AE000FCF716FF4A4B5B6C03F48073002B03D07A
:104AF0004848FCF70DFF02E04748FCF709FF444B2C
:104B00001B6B03F00103002B03D04448FCF700FFAC
:104B100002E04348FCF7FCFE424B1B6C012B03D127
:104B20004148FCF7F5FE05E03E4B1B6C19463F483B
:104B3000FCF704FF3E48FCF7EBFE3E4B07F1200478
:104B40001D460FCD0FC42B6823603B4B07F10C04AF
:104B50001D460FCD0FC42B68236000237B634BE001
:104B60007B6B9B0038333B4453F8183C1846FFF7E7
:104B700055FE03461A467B6B5B0038333B4423F8F3
:104B8000382C7B6B9B0038333B4453F82C1C7B6BDD
:104B90009B0038333B4453F8183C002B1FD07B6BF1
:104BA0009B0038333B4453F8183C022B15D07B6BE9
:104BB0009B0038333B4453F8183C032B0BD07B6BE2
:104BC0009B0038333B4453F8183C042B01D104229A
:104BD00006E0052204E0032202E0022200E00022B7
:104BE0007B6B5B0038333B4433F8383C1348FCF7AD
:104BF000A5FE7B6B01337B637B6B042BB0DD104820
:104C0000FCF786FE00BF3837BD46B0BDB8F50008DA
:104C100000380240DCF50008F8F5000814F600083A
:104C200030F60008440200204CF6000864F6000844
:104C30007CF60008ACF60008F8F600089CF60008C0
:104C400094F5000890B5A5B000AFA948FCF760FE48
:104C500034220021A74806F029FAA748FCF758FE9D
:104C6000A64B1B6C012B0CD0A548FCF751FEA348AA
:104C700001F082F90346002B03D0A248FCF748FE5E
:104C8000F0E3A14B5B6C03F48073002B03D19F48CE
:104C9000FCF73EFEE6E39C4B1B6B03F00103002B8D
:104CA00003D19B48FCF734FEDCE39A48FCF730FE66
:104CB0009948FCF72DFEFFF791FD642001F038F9CB
:104CC00007F1480300221A605A609A60DA603223C2
:104CD0003B660023C7F88C3027E00520FFF79EFDD8
:104CE00003461A46BB6C1344BB640220FFF796FDD3
:104CF00003461A46FB6C1344FB640420FFF78EFD49
:104D000003461A463B6D13443B650320FFF786FDBF
:104D100003461A467B6D13447B650A2001F008F9AF
:104D2000D7F88C300133C7F88C30D7F88C303A6E16
:104D30009A42D2D8BA6C3B6EB2FBF3F39AB26D4B87
:104D40001A80FA6C3B6EB2FBF3F39AB2694B5A804D
:104D50003A6D3B6EB2FBF3F39AB2664B9A807A6D72
:104D60003B6EB2FBF3F39AB2624BDA806B48FCF70E
:104D7000CFFD604B1B8819466948FCF7DFFD5D4B92
:104D80005B8819466748FCF7D9FD5A4B9B88194642
:104D90006548FCF7D3FD574BDB8819466348FCF7A1
:104DA000CDFD6348FCF7B4FDFFF7F4FC322001F0C1
:104DB000BFF807F1380300221A605A609A60DA607F
:104DC0003223FB655B4A07F1300392E8030083E876
:104DD000030007F1280300221A605A600023C7F875
:104DE00088307AE00520FFF719FD03463B8002205A
:104DF000FFF714FD03467B800420FFF70FFD0346F9
:104E0000BB800320FFF70AFD0346FB800023C7F8A1
:104E1000843056E0D7F884309B0090333B4453F8FD
:104E2000582CD7F884305B0090333B4433F8903CE7
:104E30001A44D7F884309B0090333B4443F8582CF5
:104E4000D7F884305B0090333B4433F8902CD7F88C
:104E500084305B0090333B4433F8603C9A420DD27F
:104E6000D7F884305B0090333B4433F8902CD7F86C
:104E700084305B0090333B4423F8602CD7F88430B7
:104E80005B0090333B4433F8902CD7F884305B00C0
:104E900090333B4433F8683C9A420DD9D7F88430BC
:104EA0005B0090333B4433F8902CD7F884305B00A0
:104EB00090333B4423F8682CD7F884300133C7F88B
:104EC0008430D7F88430032BA4DD0A2001F030F8B9
:104ED000D7F888300133C7F88830D7F88830FA6DB2
:104EE0009A423FF67FAF0023C7F8803076E000BFDC
:104EF0000CF70008C414002034F700084402002016
:104F000058F700088CF7000800380240B8F700088E
:104F1000D4F70008F0F7000814F8000850F800086B
:104F200074F8000888F800089CF80008B0F8000839
:104F3000C4F8000894FC0008D7F880309B00903338
:104F40003B4453F8582CFB6DB2FBF3F39AB2D7F8FD
:104F500080305B0090333B4423F8702CD7F88030CE
:104F60005B0090333B4433F8601CAF4AD7F8803085
:104F700008335B0013440A465A80D7F880305B0040
:104F800090333B4433F8681CA74AD7F880300C3381
:104F90005B0013440A465A80D7F880305B00903398
:104FA0003B4433F8683C1A46D7F880305B009033B6
:104FB0003B4433F8603CD31A07EE903AF8EEE77AB8
:104FC000994AD7F8803008339B0013440433C3ED6B
:104FD000007AD7F880300133C7F88030D7F88030B6
:104FE000032BA9DD9148FCF793FC3B8C1C468E4BB0
:104FF0005B6A1846FBF7B0FA02460B4621468C481E
:10500000FCF79CFC7B8C1C46874B9B6A1846FBF785
:10501000A3FA02460B4621468648FCF78FFCBB8C60
:105020001C46814BDB6A1846FBF796FA02460B4694
:1050300021468148FCF782FCFB8C1C467A4B1B6B9B
:105040001846FBF789FA02460B4621467B48FCF7D7
:1050500075FC7B48FCF75CFC0023FB6728E0FB6FDA
:105060005B0090333B4433F8702C6F49FB6F31F891
:1050700013309A4212D9FB6F5B0090333B4433F8F4
:10508000702C6949FB6F31F81330D31A9AB2FB6F59
:105090005B0090333B4423F8782C06E0FB6F5B0009
:1050A00090333B44002223F8782CFB6F0133FB67DD
:1050B000FB6F032BD3DD0023BB678DE0BB6F012BA0
:1050C00030DC594ABB6F32F8133007EE903AB8EE35
:1050D000E77ABB6F5B0090333B4433F8783C07EED4
:1050E000903AF8EEE77ADFED576A67EEA67A37EE88
:1050F000277A4D4ABB6F08339B0013440433D3ED2A
:10510000007AF0EE086A67EEA67A77EE277AFCEE70
:10511000E77A17EE903A99B2434ABB6F043322F80C
:1051200013102FE0404ABB6F32F8133007EE903A6D
:10513000B8EEE77ABB6F5B0090333B4433F8783CC2
:1051400007EE903AF8EEE77ADFED3F6A67EEA67A6F
:1051500037EE277A344ABB6F08339B00134404337D
:10516000D3ED007AF0EE086A67EEA67A77EE277A3A
:10517000FCEEE77A17EE903A99B22B4ABB6F0433F4
:1051800022F81310284ABB6F32F8133063332649D4
:10519000BA6F043231F8122093420ADB224ABB6F05
:1051A00032F81330643399B21F4ABB6F043322F8CC
:1051B00013101D4ABB6F043332F8133040F6AC5263
:1051C000934206D9184ABB6F043340F6AC5122F81B
:1051D0001310BB6F0133BB67BB6F032B7FF76EAF41
:1051E0001A48FCF795FB104B1B8919461848FCF729
:1051F000A5FB0D4B5B8919461648FCF79FFB0A4B34
:105200009B8919461448FCF799FB074BDB89194623
:105210001248FCF793FB1248FCF77AFB00237B67EC
:1052200000233B672CE000BFC4140020FCF80008FA
:1052300024F9000848F900086CF9000890F9000802
:10524000B4F90008CDCCCC3E9A99993EF0F900080B
:1052500074F8000888F800089CF80008B0F8000806
:1052600018FA00080020FFF7D9FA03461A467B6FA8
:1052700013447B670A2000F05BFE3B6F01333B6702
:105280003B6F132BEEDD7B6F784AA2FB03231B09D8
:105290009AB2774B1A82764B1B8A07EE903AF8EE59
:1052A000E77A9FED747A27EE877ADFED736AC7EEAF
:1052B000267AC7ED167A6E4B1B8A1C46B86DFBF733
:1052C0004BF902460B4621466C48FCF737FB6C480D
:1052D000FCF71EFB012387F86F306A4B07F10804C7
:1052E0000FCB84E80F000023BB6679E0012387F829
:1052F0006730BB6E5B0090333B4433F8783C312B16
:1053000012D8BB6E9B0090333B4453F8881CBB6E95
:105310005B0090333B4433F8783C1A465A48FCF71C
:105320000DFB002387F86730514ABB6E08339B00A2
:1053300013440433D3ED007A9FED547AF4EEC77A28
:10534000F1EE10FA18DDBB6E9B0090333B4453F82E
:10535000884C474ABB6E08339B00134404331B68D8
:105360001846FBF7F9F802460B4621464848FCF779
:10537000E5FA002387F867303D4ABB6E32F81330F8
:1053800040F6D862934205D8394ABB6E32F81330E2
:10539000092B10D8BB6E9B0090333B4453F8881CFC
:1053A000334ABB6E32F813301A463A48FCF7C6FA55
:1053B000002387F8673097F86730002B0AD0BB6E60
:1053C0009B0090333B4453F8883C19463248FCF725
:1053D000B5FA02E0002387F86F30BB6E0133BB667D
:1053E000BB6E032B82DDD7ED167AB0EE087AF4EEB1
:1053F000C77AF1EE10FA06D52848FCF789FA00239F
:1054000087F86F3012E0D7ED167AB1EE027AF4EE3B
:10541000C77AF1EE10FA06DD2148FCF779FA00238D
:1054200087F86F3002E01F48FCF772FA104A97F8CD
:105430006F3082F82230FFF7D1F90D4B93F822300C
:10544000002B06D01848FCF763FA1848FCF760FAFE
:1054500005E01748FCF75CFA1648FCF759FA1648BD
:10546000FCF756FA9437BD4690BD00BFCDCCCCCCEE
:10547000C4140020333353400000804548FA00082C
:1054800068FA0008CCFC00088CFA000800004843C9
:10549000B8FA0008E0FA000810FB000824FB000836
:1054A0004CFB000870FB000888FB0008C0FB0008EC
:1054B000F8FB000834FC00086CFC000880B483B0E2
:1054C00000AF78607B68002B0ADB7B68032B07DC6E
:1054D0000D4B93F8223083F00103DBB2002B08D090
:1054E0007B68012B02DC4FF4FA6307E040F2DC53E7
:1054F00004E0054A7B68043332F8133018460C3751
:10550000BD465DF8047B7047C414002080B483B0AE
:1055100000AF00237B60104B5B6C0F4A43F4804369
:1055200053640D4B5B6C03F480437B607B6800230A
:105530003B60094B1B6C084A43F080531364064BD5
:105540001B6C03F080533B603B6800BF0C37BD46CB
:105550005DF8047B704700BF0038024080B58AB018
:1055600000AF786007F1140300221A605A609A6055
:10557000DA601A617B681B68174A934227D10023BF
:105580003B61164B5B6C154A43F480735364134BB9
:105590005B6C03F480733B613B690023FB600F4B42
:1055A0001B6B0E4A43F0010313630C4B1B6B03F0A0
:1055B0000103FB60FB683D237B610323BB61002388
:1055C000FB6107F114031946054801F06BFA00BFAF
:1055D0002837BD4680BD00BF002001400038024092
:1055E0000000024080B58AB000AF786007F1140374
:1055F00000221A605A609A60DA601A617B681B6840
:10560000194A93422CD100233B61184B1B6C174A5B
:1056100043F480431364154B1B6C03F480433B61DC
:105620003B690023FB60114B1B6B104A43F00203E4
:1056300013630E4B1B6B03F00203FB60FB684FF41C
:1056400060437B610223BB610023FB6103233B6258
:1056500005237B6207F114031946054801F022FA7D
:1056600000BF2837BD4680BD0038004000380240EA
:105670000004024080B584B000AF78607B681B688E
:10568000184A934216D10023FB60174B5B6C164AF5
:1056900043F001035364144B5B6C03F00103FB60A4
:1056A000FB6800220721192001F033F9192001F0CD
:1056B0004CF912E07B681B680C4A93420DD1002321
:1056C000BB60094B1B6C084A43F002031364064B92
:1056D0001B6C03F00203BB60BB6800BF1037BD4604
:1056E00080BD00BF000001400038024000040040BF
:1056F00080B58CB000AF786007F11C0300221A60FF
:105700005A609A60DA601A617B681B68B3F1804F57
:105710004BD10023BB613F4B1B6C3E4A43F001035E
:1057200013643C4B1B6C03F00103BB61BB6900239A
:105730007B61384B1B6B374A43F001031363354BD6
:105740001B6B03F001037B617B6900233B61314BE1
:105750001B6B304A43F0020313632E4B1B6B03F0A9
:1057600002033B613B694FF40043FB6102233B6250
:1057700000237B620023BB620123FB6207F11C0351
:105780001946254801F08EF90823FB6102233B628C
:1057900000237B620023BB620123FB6207F11C0331
:1057A00019461E4801F07EF930E07B681B681C4AF0
:1057B00093422BD10023FB60164B1B6C154A43F020
:1057C00004031364134B1B6C03F00403FB60FB68BE
:1057D0000023BB600F4B1B6B0E4A43F002031363A5
:1057E0000C4B1B6B03F00203BB60BB68C023FB6167
:1057F00002233B6200237B620023BB620223FB6225
:1058000007F11C031946054801F04CF900BF303779
:10581000BD4680BD00380240000002400004024046
:105820000008004080B58AB000AF786007F114032B
:1058300000221A605A609A60DA601A617B681B68FD
:10584000334A93421FD100233B61324B1B6B314AD9
:1058500043F0010313632F4B1B6B03F001033B6108
:105860003B694FF480637B610223BB610023FB61D2
:1058700000233B6201237B6207F11403194626488B
:1058800001F010F940E07B681B68244A93423BD149
:105890000023FB601F4B1B6B1E4A43F00103136385
:1058A0001C4B1B6B03F00103FB60FB680023BB6018
:1058B000184B1B6B174A43F002031363154B1B6B0A
:1058C00003F00203BB60BB68C0237B610223BB61A2
:1058D0000023FB6100233B6202237B6207F1140378
:1058E00019460D4801F0DEF803237B610223BB61FA
:1058F0000023FB6100233B6202237B6207F1140358
:105900001946074801F0CEF800BF2837BD4680BDD4
:105910000000014000380240000002400004004046
:105920000004024080B58AB000AF786007F114032C
:1059300000221A605A609A60DA601A617B681B68FC
:105940001D4A934234D100233B611C4B5B6C1B4AC4
:1059500043F020035364194B5B6C03F020033B615D
:105960003B690023FB60154B1B6B144A43F001039A
:105970001363124B1B6B03F00103FB60FB684FF4D6
:10598000C0537B610223BB610023FB6103233B62A5
:1059900008237B6207F114031946094801F082F8D5
:1059A00000220621472000F0B4FF472000F0CDFF81
:1059B00000BF2837BD4680BD0014014000380240BA
:1059C0000000024080B400AF00BFFDE780B400AF2C
:1059D00000BFFDE780B400AF00BFFDE780B400AFBB
:1059E00000BFFDE780B400AF00BFFDE780B400AFAB
:1059F00000BFBD465DF8047B704780B400AF00BFB8
:105A0000BD465DF8047B704780B400AF00BFBD4663
:105A10005DF8047B704780B500AF00F069FA00BF05
:105A200080BD80B500AF022001F00CFA00BF80BD40
:105A300080B500AF024802F037FF00BF80BD00BF55
:105A4000E402002080B500AF4FF4806001F0FAF965
:105A500000BF80BD80B500AF024803F053FE00BF19
:105A600080BD00BF0404002080B400AF01231846AD
:105A7000BD465DF8047B704780B582B000AF7860AA
:105A8000396005F065FB034616221A604FF0FF33BC
:105A900018460837BD4680BD80B582B000AF78603B
:105AA0004FF0FF317868FFF7E7FF00BFFDE780B5F3
:105AB00086B000AFF860B9607A6000237B610AE0CD
:105AC000AFF300800146BB685A1CBA60CAB21A70B4
:105AD0007B6901337B617A697B689A42F0DB7B6882
