:020000040800F2
:10000000000002205D700008D5570008DD57000889
:10001000E5570008ED570008F557000800000000FC
:10002000000000000000000000000000FD57000874
:100030000B58000800000000195800082758000855
:10004000AD700008AD700008AD700008AD7000081C
:10005000AD700008AD700008AD700008335800089E
:10006000AD700008AD700008AD700008AD700008FC
:10007000AD700008AD700008AD700008AD700008EC
:10008000AD700008AD700008AD7000080000000001
:10009000000000000000000000000000AD7000083B
:1000A000AD70000841580008AD700008AD70000840
:1000B000AD700008AD700008AD700008AD700008AC
:1000C000AD700008AD700008AD700008AD7000089C
:1000D000AD700008AD700008AD70000800000000B1
:1000E00055580008AD700008AD7000080000000011
:1000F000000000000000000000000000AD700008DB
:1001000000000000AD700008AD700008AD70000880
:1001100000000000000000000000000000000000DF
:10012000AD700008AD700008AD700008AD7000083B
:10013000AD7000080000000000000000000000009A
:10014000000000000000000000000000AD7000088A
:10015000AD700008AD700008AD700008655800086B
:10016000AD700008AD700008000000000000000045
:10017000000000000000000000000000000000007F
:1001800000000000AD70000800000000000000004A
:08019000AD700008AD7000081D
:1001A00010B5054C237833B9044B13B10448AFF3B1
:1001B00000800123237010BD3802002000000000E1
:1001C00038E6000808B5034B1BB103490348AFF3F9
:1001D000008008BD000000003C02002038E6000856
:1001E00001F0FF01102A2BDB10F0070F08D010F8E8
:1001F000013B013A8B422DD010F0070F42B3F6D1EC
:10020000F0B441EA012141EA014122F007047FF004
:1002100000070023F0E80256083C85EA010586EA5B
:10022000010685FA47F5A3FA87F586FA47F6A5FA97
:1002300087F68EB9EED1F0BC01F0FF0102F00702A3
:1002400032B110F8013B013A83EA010313B1F8D14E
:100250000020704701387047002D06BF354603382F
:10026000073815F0010F07D1013015F4807F02BF68
:10027000013015F4C03F0130F0BC0138704700BFB9
:10028000034613F8012B002AFBD1181A01387047D6
:1002900081F0004102E000BF83F0004330B54FEA37
:1002A00041044FEA430594EA050F08BF90EA020FA4
:1002B0001FBF54EA000C55EA020C7FEA645C7FEA37
:1002C000655C00F0E2804FEA5454D4EB5555B8BF5A
:1002D0006D420CDD2C4480EA020281EA030382EACB
:1002E000000083EA010180EA020281EA0303362D5D
:1002F00088BF30BD11F0004F4FEA01314FF4801C30
:100300004CEA113102D0404261EB410113F0004F41
:100310004FEA03334CEA133302D0524263EB4303F8
:1003200094EA050F00F0A780A4F10104D5F1200E96
:100330000DDB02FA0EFC22FA05F2801841F10001F1
:1003400003FA0EF2801843FA05F359410EE0A5F1C5
:1003500020050EF1200E012A03FA0EFC28BF4CF0F6
:10036000020C43FA05F3C01851EBE37101F00045AC
:1003700007D54FF0000EDCF1000C7EEB00006EEBB9
:100380000101B1F5801F1BD3B1F5001F0CD3490843
:100390005FEA30004FEA3C0C04F101044FEA44529A
:1003A00012F5800F80F09A80BCF1004F08BF5FEA21
:1003B000500C50F1000041EB045141EA050130BD01
:1003C0005FEA4C0C404141EB0101013C28BFB1F513
:1003D000801FE9D291F0000F04BF01460020B1FA5E
:1003E00081F308BF2033A3F10B03B3F120020CDA31
:1003F0000C3208DD02F1140CC2F10C0201FA0CF00F
:1004000021FA02F10CE002F11402D8BFC2F1200C73
:1004100001FA02F120FA0CFCDCBF41EA0C01904029
:10042000E41AA2BF01EB0451294330BD6FEA040472
:100430001F3C1CDA0C340EDC04F11404C4F120025D
:1004400020FA04F001FA02F340EA030021FA04F36F
:1004500045EA030130BDC4F10C04C4F1200220FAC6
:1004600002F001FA04F340EA0300294630BD21FA04
:1004700004F0294630BD94F0000F83F4801306BFCA
:1004800081F480110134013D4EE77FEA645C18BFBE
:100490007FEA655C29D094EA050F08BF90EA020F55
:1004A00005D054EA000C04BF1946104630BD91EA4D
:1004B000030F1EBF0021002030BD5FEA545C05D150
:1004C0004000494128BF41F0004130BD14F580048F
:1004D0003CBF01F5801130BD01F0004545F0FE4103
:1004E00041F470014FF0000030BD7FEA645C1ABF38
:1004F000194610467FEA655C1CBF0B46024650EA6F
:10050000013406BF52EA033591EA030F41F400219A
:1005100030BD00BF90F0000F04BF0021704730B520
:100520004FF4806404F132044FF000054FF00001F5
:1005300050E700BF90F0000F04BF0021704730B5B6
:100540004FF4806404F1320410F0004548BF40428B
:100550004FF000013EE700BF42004FEAE2014FEAE0
:1005600031014FEA02701FBF12F07F4393F07F4FBB
:1005700081F06051704732F07F4208BF704793F0BE
:100580007F4F04BF41F40021704730B54FF46074D1
:1005900001F0004521F000411CE700BF50EA0102D4
:1005A00008BF704730B54FF000050AE050EA01027D
:1005B00008BF704730B511F0004502D5404261EBED
:1005C00041014FF4806404F132045FEA915C3FF42E
:1005D000D8AE4FF003025FEADC0C18BF03325FEACB
:1005E000DC0C18BF033202EBDC02C2F1200300FA7C
:1005F00003FC20FA02F001FA03FE40EA0E0021FAA1
:1006000002F11444BDE600BF70B54FF0FF0C4CF48E
:10061000E06C1CEA11541DBF1CEA135594EA0C0F40
:1006200095EA0C0F00F0DEF82C4481EA030621EA7B
:100630004C5123EA4C5350EA013518BF52EA0335B6
:1006400041F4801143F4801338D0A0FB02CE4FF068
:100650000005E1FB02E506F00042E0FB03E54FF098
:100660000006E1FB03569CF0000F18BF4EF0010E90
:10067000A4F1FF04B6F5007F64F5407404D25FEA8C
:100680004E0E6D4146EB060642EAC62141EA55513F
:100690004FEAC52040EA5E504FEACE2EB4F1FD0C81
:1006A00088BFBCF5E06F1ED8BEF1004F08BF5FEAFF
:1006B000500E50F1000041EB045170BD06F00046B1
:1006C00046EA010140EA020081EA0301B4EB5C045E
:1006D000C2BFD4EB0C0541EA045170BD41F4801156
:1006E0004FF0000E013C00F3AB8014F1360FDEBF7B
:1006F000002001F0004170BDC4F10004203C35DA57
:100700000C341BDC04F11404C4F1200500FA05F3D9
:1007100020FA04F001FA05F240EA020001F000427A
:1007200021F0004110EBD37021FA04F642EB0601F0
:100730005EEA430E08BF20EAD37070BDC4F10C041A
:10074000C4F1200500FA04F320FA05F001FA04F2DE
:1007500040EA020001F0004110EBD37041F10001CA
:100760005EEA430E08BF20EAD37070BDC4F12005D5
:1007700000FA05F24EEA020E20FA04F301FA05F23D
:1007800043EA020321FA04F001F0004121FA04F2E5
:1007900020EA020000EBD3705EEA430E08BF20EAB5
:1007A000D37070BD94F0000F0FD101F000464000EF
:1007B00041EB010111F4801F08BF013CF7D041EA71
:1007C000060195F0000F18BF704703F00046520075
:1007D00043EB030313F4801F08BF013DF7D043EA46
:1007E0000603704794EA0C0F0CEA135518BF95EAFC
:1007F0000C0F0CD050EA410618BF52EA4306D1D183
:1008000081EA030101F000414FF0000070BD50EAA1
:10081000410606BF1046194652EA430619D094EA2B
:100820000C0F02D150EA013613D195EA0C0F05D115
:1008300052EA03361CBF104619460AD181EA030169
:1008400001F0004141F0FE4141F470014FF0000021
:1008500070BD41F0FE4141F4780170BD70B54FF0BC
:10086000FF0C4CF4E06C1CEA11541DBF1CEA13553C
:1008700094EA0C0F95EA0C0F00F0A7F8A4EB05041E
:1008800081EA030E52EA03354FEA013100F0888015
:100890004FEA03334FF0805545EA131343EA1263DE
:1008A0004FEA022245EA111545EA10654FEA002693
:1008B0000EF000419D4208BF964244F1FD0404F54C
:1008C000407402D25B084FEA3202B61A65EB0305A8
:1008D0005B084FEA32024FF480104FF4002CB6EB65
:1008E000020E75EB030E22BFB61A754640EA0C00E5
:1008F0005B084FEA3202B6EB020E75EB030E22BF25
:10090000B61A754640EA5C005B084FEA3202B6EB65
:10091000020E75EB030E22BFB61A754640EA9C0024
:100920005B084FEA3202B6EB020E75EB030E22BFF4
:10093000B61A754640EADC0055EA060E18D04FEAB2
:10094000051545EA16754FEA06164FEAC30343EA52
:1009500052734FEAC2025FEA1C1CC0D111F4801F1F
:100960000BD141EA00014FF000004FF0004CB6E718
:1009700011F4801F04BF01430020B4F1FD0C88BFB7
:10098000BCF5E06F3FF6AFAEB5EB030C04BFB6EBC2
:10099000020C5FEA500C50F1000041EB045170BDB5
:1009A0000EF0004E4EEA113114EB5C04C2BFD4EBE2
:1009B0000C0541EA045170BD41F480114FF0000E66
:1009C000013C90E645EA060E8DE60CEA135594EAE2
:1009D0000C0F08BF95EA0C0F3FF43BAF94EA0C0FE5
:1009E0000AD150EA01347FF434AF95EA0C0F7FF45A
:1009F00025AF104619462CE795EA0C0F06D152EAAE
:100A000003353FF4FDAE1046194622E750EA410691
:100A100018BF52EA43067FF4C5AE50EA41047FF4A2
:100A20000DAF52EA43057FF4EBAE12E74FF0FF3C07
:100A300006E000BF4FF0010C02E000BF4FF0010CD8
:100A40004DF804CD4FEA410C7FEA6C5C4FEA430C51
:100A500018BF7FEA6C5C1BD001B050EA410C0CBFA0
:100A600052EA430C91EA030F02BF90EA020F002002
:100A7000704710F1000F91EA030F58BF994208BF69
:100A800090422CBFD8176FEAE37040F00100704726
:100A90004FEA410C7FEA6C5C02D150EA013C07D17D
:100AA0004FEA430C7FEA6C5CD6D152EA033CD3D0C8
:100AB0005DF8040B704700BF8446104662468C46C2
:100AC0001946634600E000BF01B5FFF7B7FF0028F5
:100AD00048BF10F1000F01BD4DF808EDFFF7F4FF1E
:100AE0000CBF012000205DF808FB00BF4DF808EDA9
:100AF000FFF7EAFF34BF012000205DF808FB00BFCC
:100B00004DF808EDFFF7E0FF94BF012000205DF8ED
:100B100008FB00BF4DF808EDFFF7CEFF94BF0120A2
:100B200000205DF808FB00BF4DF808EDFFF7C4FF9B
:100B300034BF012000205DF808FB00BF4FEA410CE4
:100B40007FEA6C5C02D150EA013C0AD14FEA430CC7
:100B50007FEA6C5C02D152EA033C02D14FF0000004
:100B600070474FF0010070474FEA410212F5001242
:100B700015D211D56FF47873B3EB625212D94FEAE4
:100B8000C12343F0004343EA505311F0004F23FACE
:100B900002F018BF404270474FF00000704750EA23
:100BA000013005D111F0004008BF6FF000407047E0
:100BB0004FF00000704700BF4FEA4102B2F1E0433E
:100BC00024BFB3F5001CDCF1FE5C0DD901F0004C34
:100BD0004FEAC0024CEA5070B2F1004F40EB830084
:100BE00008BF20F00100704711F0804F21D113F1B0
:100BF0003872BCBF01F00040704741F480114FEAE9
:100C00005252C2F11802C2F1200C10FA0CF320FA71
:100C100002F018BF40F001004FEAC1234FEAD3238E
:100C200003FA0CFC40EA0C0023FA02F34FEA4303F8
:100C3000CCE77FEA625307D150EA01331EBF4FF081
:100C4000FE4040F44000704701F0004040F0FE409C
:100C500040F40000704700BF53B94AB9002908BFEB
:100C600000281CBF4FF0FF314FF0FF3000F088B973
:100C7000ADF1080C6DE904CE00F006F8DDF804E0F3
:100C8000DDE9022304B070472DE9F047089D8E4648
:100C900004468846002B4AD18A42174662D9B2FAE6
:100CA00082F64EB1C6F1200301FA06F820FA03F3EA
:100CB000B74043EA0808B4404FEA174E1FFA87FCD2
:100CC000B8FBFEF1230C0EFB118843EA084301FB3D
:100CD0000CF29A4209D9FB1801F1FF3080F0EA804A
:100CE0009A4240F2E78002393B449A1AA3B2B2FB1F
:100CF000FEF00EFB102243EA024300FB0CFC9C4575
:100D000009D9FB1800F1FF3280F0D6809C4540F2F3
:100D1000D3803B44023840EA0140A3EB0C0300219E
:100D20001DB1F3400022C5E90032BDE8F0878B42D7
:100D300005D90DB1C5E9000100210846F5E7B3FA70
:100D400083F1002946D1734502D3824200F2058126
:100D5000841A6EEB030201209046002DE5D0C5E910
:100D60000048E2E7002A00F09080B2FA82F6002EF6
:100D700040F0A4808A1A030C4FEA174E80B2BCB22E
:100D80000121B2FBFEFC0EFB1C2243EA024304FBE2
:100D90000CF29A4207D9FB180CF1FF3802D29A42A2
:100DA00000F2E080C4469B1AB3FBFEF20EFB123346
:100DB00040EA034302FB04F49C4207D9FB1802F10A
:100DC000FF3002D29C4200F2CA8002461B1B42EA5C
:100DD0000C40A5E7C1F120068B4022FA06F71F431D
:100DE0000EFA01F420FA06F32EFA06FE4FEA17492E
:100DF000234300FA01F81FFA87FCBEFBF9F01C0C34
:100E000009FB10EE44EA0E4400FB0CFEA64502FA74
:100E100001F209D93C1900F1FF3A80F09C80A64507
:100E200040F2998002383C44A4EB0E041FFA83FE82
:100E3000B4FBF9F309FB13444EEA044403FB0CFC36
:100E4000A44508D93C1903F1FF3E80F08280A445F7
:100E50007FD9023B3C4443EA0040A4EB0C04A0FBD6
:100E600002EC64457346E14662D35FD05DB1B8EBF6
:100E7000030264EB090404FA06F622FA01F31E43A6
:100E8000CC40C5E9006400214FE7B1FBF2FC010C46
:100E900041EA0E4180B240EA01423B4638463C46B8
:100EA000B846BE462026B1FBF7F1A2EB080241EAA4
:100EB0000C4166E7014618E710462CE7C6F1200210
:100EC0002EFA02F3B740B14020FA02F24FEA174E71
:100ED0000A43B3FBFEF8BCB20EFB1833110C41EA17
:100EE000034108FB04F9B04089454FEA104380B242
:100EF0003ED9791808F1FF3C01D289451FD8A1EBF2
:100F00000901B1FBFEF909FB04F80EFB191192B2BD
:100F100042EA0142424529D2BA1809F1FF31C4D24E
:100F20004245C2D2A9F102013A44BEE7F0459DD242
:100F3000BEEB02036CEB070C0138E14696E7A7EB2A
:100F400009094944A8F1020CB1FBFEF909FB04F8B8
:100F5000DBE773467FE7504666E70846FDE63B441D
:100F6000023A33E7ACF1020C3B441CE749469CE7EC
:100F7000A1EB0901C446B1FBFEF909FB04F8C4E783
:100F8000704700BF80B584B000AF03460A46FB80BF
:100F90001346BB80FB88002B06D100F037F8BB88D6
:100FA000184606F0F7F82AE0FB88164A92FBF3F39E
:100FB000FB60FB68B3F5803F02D34FF6FF73FB6025
:100FC000FB68132B01D81423FB600F4B1B68FA68D6
:100FD000013ADA62FB68013B0B4AD3600A4B1B689B
:100FE000FA685208DA630821074808F02FFBBB882B
:100FF000184606F0CFF80821034808F0D7FB103751
:10100000BD4680BD00093D000403002080B500AF4F
:101010000821024808F0CAFB00BF80BD040300207D
:1010200080B500AFC82140F20B20FFF7ABFF3221A3
:101030000020FFF7A7FFC82140F29320FFF7A2FF8F
:1010400032210020FFF79EFF4FF496714FF4447059
:10105000FFF798FF00BF80BD80B500AF96214FF429
:101060004470FFF78FFF32210020FFF78BFFC8216C
:1010700040F21740FFF786FF00BF80BD80B500AF8C
:10108000642140F20B20FFF77DFF642140F29320A2
:10109000FFF778FF64214FF44470FFF773FFC82116
:1010A00040F21740FFF76EFF64210020FFF76AFF50
:1010B000642140F21740FFF765FF64214FF444704C
:1010C000FFF760FF4FF4967140F21740FFF75AFFA9
:1010D00000BF80BD80B582B000AF00237B600AE016
:1010E000C821DC20FFF74EFF64210020FFF74AFFF4
:1010F0007B6801337B607B68022BF1DD00BF00BFA2
:101100000837BD4680BD80B500AF32214FF47A70FC
:10111000FFF738FF00BF80BD80B500AF1E214FF440
:101120004870FFF72FFF00BF80BD80B582B000AFD1
:1011300000237B600BE064214FF4DC70FFF722FF9B
:1011400064210020FFF71EFF7B6801337B607B6812
:10115000042BF0DD00BF00BF0837BD4680BD000096
:1011600080B582B000AF78607868FFF789F80346F1
:101170009AB24FF47A737968034809F051FB00BFC3
:101180000837BD4680BD00BF240400200FB480B5E1
:10119000C2B000AF07F58A7207F58473A3F58273B6
:1011A0001A6007F58473A3F5827307F108001B68C2
:1011B000D7F810214FF480710BF0A6F807F108035F
:1011C0001846FFF7CDFF00BF07F58477BD46BDE8A1
:1011D000804004B07047000080B594B000AF444830
:1011E000FFF7BEFF0F23FB6458E03B46402200217F
:1011F00018460BF097F80023BB6438E03D49BB6C00
:101200001A01FB6C13441B010B4404331B78002BA5
:101210001DD03849BB6C1A01FB6C13441B010B44F5
:101220001B6842F20E72934208DC3249BB6C1A0111
:10123000FB6C13441B010B441B6801E040F2E733D5
:1012400007F140001A462C490AF0CAFF05E007F1F1
:1012500040032A4918460AF0C3FF07F140023B4603
:10126000114618460BF066F8BB6C0133BB64BB6CCF
:101270000F2BC3DD3B461846FFF702F803461A461C
:101280003B4613441E4A1188927819809A703B4657
:101290001846FFF765FFFB6C013BFB64FB6C002B02
:1012A000A3DA184B1968174B5A68164B9B681648F7
:1012B000FFF76CFF134B1B7B002B01D0134B00E09F
:1012C000134B19461348FFF761FF0E4B5B7B002B56
:1012D00001D00E4B00E00E4B19460F48FFF756FFAA
:1012E0000E48FFF73DFF00BF5037BD4680BD00BF31
:1012F00050E600086C04002068E6000870E600086C
:1013000078E600086C1400207CE60008A4E60008DB
:10131000A8E60008ACE60008C4E60008DCE6000821
:10132000F0B587B006AF134B1B881D46114B1B89C8
:101330001E46104B5B889C460E4BDB881A460D4BB5
:101340009B8819460B4B9B7A18460A4BDB7A1C4646
:10135000084B1B7B04930394029001910092634617
:10136000324629460448FFF711FF00BF0437BD4647
:10137000F0BD00BF80140020F4E6000880B584B002
:1013800002AF0F4B1B685B6AA3F500437B600D4BFC
:101390001B685B6AA3F500433B600B4B19680A4B63
:1013A0005A68094B98683B6801937B680093034631
:1013B0000648FFF7EBFE00BF0837BD4680BD00BF03
:1013C0004C030020DC0300206C14002038E70008E8
:1013D00080B582B000AF02F04DFA87ED010A02F04D
:1013E00099FA38602448FFF7BBFE244B1B69194665
:1013F0002348FFF7CBFE7868FFF7AEF802460B46AE
:101400002048FFF7C3FE39681F48FFF7BFFED7ED3E
:10141000017A9FED1E7AF4EEC77AF1EE10FA06D843
:101420003B68002B03DD1A48FFF79AFE1CE0D7ED5E
:10143000017A9FED187AF4EEC77AF1EE10FA03D82C
:101440001548FFF78DFE0FE0D7ED017A9FED137A77
:10145000F4EEC77AF1EE10FA03D81148FFF780FED8
:1014600002E01048FFF77CFE0F48FFF779FE00BF4F
:101470000837BD4680BD00BF68E700086C14002037
:1014800088E70008A0E70008C4E700080000484219
:10149000E8E700080000824208E800080000A042D7
:1014A00034E800085CE8000880E8000880B584B0F3
:1014B00002AF164B1B8807EE903AF8EEE77A9FEDE5
:1014C000147A27EE877ADFED136AC7EE267AC7ED26
:1014D000017A7868FFF740F802460B460B49098805
:1014E00000910D48FFF752FE084B1B8840F6B732BB
:1014F000934203D80948FFF733FE02E00848FFF79C
:101500002FFE00BF0837BD4680BD00BF80140020FD
:101510003333534000008045A0E80008B8E80008D5
:10152000D4E8000880B584B000AF0346FB71FB79B6
:1015300063F07F03DBB27B7300233B7300224FF425
:101540008051174806F064FD07F10D016423012264
:10155000144807F08AFA0346FB7307F10C01642371
:101560000122104807F0C5FB0346BB7301224FF46C
:1015700080510B4806F04CFDFB7B002B02D1BB7B5E
:10158000002B07D00848FFF7EBFD084B00221A702C
:10159000FF2300E03B7B18461037BD4680BD00BFEF
:1015A00000040240AC020020F4E9000854020020CC
:1015B00080B584B000AF03460A46FB711346BB7189
:1015C000FB793B73BB797B7300224FF48051114848
:1015D00006F01EFD07F10C01642302220E4807F0FD
:1015E00044FA0346FB7301224FF48051094806F088
:1015F0000FFDFB7B002B05D00848FFF7B1FD084B22
:1016000000221A70012005F0C5FD00BF1037BD464D
:1016100080BD00BF00040240AC02002018EA0008B0
:101620005402002080B582B000AF3C48FFF798FD1F
:10163000C82005F0AFFD80216B20FFF7B9FFFA202D
:1016400005F0A8FD00216B20FFF7B2FF322005F066
:10165000A1FD01216B20FFF7ABFF322005F09AFDC1
:1016600000216C20FFF7A4FF0A2005F093FD6A20FB
:10167000FFF758FF0346FB71FB7943F01003FB7142
:10168000FB7919466A20FFF793FF0A2005F082FDD7
:1016900004211920FFF78CFF0A2005F07BFD0221B1
:1016A0001A20FFF785FF0A2005F074FD08211B2092
:1016B000FFF77EFF0A2005F06DFD08211C20FFF7D3
:1016C00077FF0A2005F066FD02211D20FFF770FF5D
:1016D0000A2005F05FFD7520FFF724FF0346BB716C
:1016E000BB7919460E48FFF751FDBB79702B09D025
:1016F000BB7919460B48FFF749FD0B4B00221A70C6
:10170000002306E00948FFF72BFD074B01221A7062
:10171000012318460837BD4680BD00BF40EA0008D7
:101720006CEA000880EA000854020020A8EA0008D9
:1017300080B582B000AF274B1B7883F00103DBB28A
:10174000002B03D02448FFF70BFD3FE02348FFF7B1
:1017500007FD234B64229A604FF000037B60002357
:101760003B6014E000F07CF81E4BB3F9043007EE48
:10177000903AF8EEE77A97ED017A77EE277AC7ED9F
:10178000017A032005F006FD3B6801333B60144BF2
:101790009A683B689A42E5D8114B9B6807EE903AED
:1017A000B8EE677AD7ED016AC6EE877A0C4BC3EDC7
:1017B000007A0B4B01221A71094B1B681846FEF781
:1017C000CBFE02460B460848FFF7E0FC0837BD4653
:1017D00080BD00BF54020020BCEA0008E8EA00080F
:1017E00058020020901400201CEB000880B582B045
:1017F00000AF124B1B7983F00103DBB2002B04D046
:1018000000F002F9F0EE407A13E00D4BB3F904302A
:1018100007EE903AB8EEE77A084BD3ED007A37EE50
:10182000677ADFED086AC7EE267AC7ED017AD7ED51
:10183000017AB0EE670A0837BD4680BD5802002025
:10184000901400200000834280B400AF034B1B784B
:101850001846BD465DF8047B704700BF5402002067
:1018600080B584B000AF254B1B7883F00103DBB259
:10187000002B03D02248FFF773FC3CE0C323FB712D
:1018800000224FF480511F4806F0C2FBF91D64236B
:1018900001221D4807F0E9F80346FB73FB7B002B90
:1018A00009D001224FF48051164806F0B1FB1748C9
:1018B000FFF756FC1FE007F10801642306221248D7
:1018C00007F017FA0346FB7301224FF480510D48CD
:1018D00006F09EFBFB7B002B03D00D48FFF740FC7E
:1018E00009E03B7B1BB21B021AB27B7B1BB213438A
:1018F0001AB2084B9A801037BD4680BD54020020B2
:101900003CEB000800040240AC02002070EB000831
:1019100094EB00089014002080B584B000AF2F4BEA
:101920001B7883F00103DBB2002B03D02C48FFF7B8
:1019300017FC50E0BB23FB7100224FF48051294873
:1019400006F066FBF91D64230122274807F08DF895
:101950000346FB73FB7B002B09D001224FF480511F
:10196000204806F055FB2148FFF7FAFB33E007F16A
:101970000801642306221C4807F0BBF90346FB73E9
:1019800001224FF48051174806F042FBFB7B002BED
:1019900003D01748FFF7E4FB1DE03B7A1BB21B02A4
:1019A0001AB27B7A1BB213431AB2124BDA80BB7A9B
:1019B0001BB21B021AB2FB7A1BB213431AB20D4BB5
:1019C0001A813B7B1BB21B021AB27B7B1BB21343F7
:1019D0001AB2084B5A811037BD4680BD5402002010
:1019E000B8EB000800040240AC020020F0EB000855
:1019F00014EC00089014002080B500AFFFF78CFFB6
:101A0000FFF72EFF00BF80BD80B400AF094BB3F9D4
:101A1000043007EE903AF8EEE77A9FED077AC7EECA
:101A2000876AF0EE667AB0EE670ABD465DF8047B21
:101A3000704700BF901400200000834280B582B040
:101A400000AF284B1B78002B01D0274B00E0274B21
:101A500019462748FFF79AFB224B1B78002B3CD0F6
:101A60007520FFF75FFD0346FB716A20FFF75AFD03
:101A70000346BB716B20FFF755FD03467B71F97977
:101A8000BA797B791B48FFF781FBBB7903F0100320
:101A9000002B03D01848FFF763FB02E01748FFF75D
:101AA0005FFBFFF7A9FF164BB3F906301946144B3D
:101AB000B3F908301A46124BB3F90A301148FFF750
:101AC00065FBFFF7A1FF10EE103A1846FEF744FD44
:101AD00002460B460C48FFF759FB00BF0837BD46CE
:101AE00080BD00BF5402002038EC00083CEC000828
:101AF00044EC000860EC000894EC0008A8EC000836
:101B000090140020BCEC0008D4EC000880B500AFB5
:101B10002848FFF725FB0021274807F097FD0421FF
:101B2000254807F093FD0821234807F08FFD0C217D
:101B3000214807F08BFD01224FF400511F4806F0A9
:101B400067FA00F09DFD03F067F9FFF76BFD0346B0
:101B5000002B0FD01A48FFF703FB1A48FFF700FBD2
:101B60004FF4FA6005F016FBFFF7E2FD1648FFF7A9
:101B7000F7FA02E01548FFF7F3FA02F0E1F8642003
:101B800005F008FB02F0A2F80346002B08D102F092
:101B9000A7F80346002B03D10D48FFF7E1FA02E056
:101BA0000C48FFF7DDFA00F0D9FE0B48FFF7D8FA32
:101BB00000BF80BDE8EC000894030020000802404C
:101BC0001CED000850ED000888ED0008A8ED0008A5
:101BD000E4ED00081CEE000848EE000880B500AFF8
:101BE0002148FFF7BDFA03F01DF8204B1B88002B9E
:101BF00013D11E4B1B89002B0FD11C4B5B88002B74
:101C00000BD11A4BDB88002B07D1184B9B88002B7C
:101C100003D11748FFF7A4FA04E01648FFF7A0FA2B
:101C2000FFF77EFBFFF742FCFFF70EFE0346002B9B
:101C300001D0FFF703FF02F0A7FB03F0B5FF034657
:101C4000002B06D00C48FFF78BFA0C4B01221A70C0
:101C500005E00B48FFF784FA084B01221A70094887
:101C6000FFF77EFA00BF80BD74EE000880140020EC
:101C700098EE0008D8EE0008FCEE0008B61400202C
:101C800020EF00085CEF000880B582B000AF05F0DF
:101C900075FA78601C4B1B687A68D31A42F210728E
:101CA000934216D9194B1B7883F00103DBB2002B4A
:101CB0000FD0FFF7FBFB164B1B78002B03D015480A
:101CC000FFF74EFA02E01448FFF74AFA0E4A7B6823
:101CD0001360124B1B687A68D31AB3F5FA6F0FD9E9
:101CE0000B4B1B78002B04D010210D4806F0A9F9EE
:101CF00003E020210A4806F0A4F9084A7B68136033
:101D000000BF0837BD4680BDB8140020B7140020BE
:101D1000B61400207CEF0008BCEF0008BC140020C3
:101D20000004024080B500AF05F0C2F900F0CCF825
:101D300000F0C4FB00F030F900F080F900F0B4F9D5
:101D400000F052FA00F03CFB00F08EFB00F0A0FA2D
:101D500006F0CEFD0346184600F0DAFDFFF7D6FE8A
:101D6000FFF73CFFFFF75CF903F082FE4748FFF7FF
:101D7000F7F94748FFF7F4F94648FFF7F1F9464805
:101D8000FFF7EEF905F0FAF90346444A136005F04F
:101D9000F5F90346424A1360424B1B78DBB2012B34
:101DA0003AD1404B00221A703F4B1B7883F001035D
:101DB000DBB2002B12D03D4B1B78002B0ED03C48E1
:101DC000FFF7CEF9FFF748F94FF47A7005F0E2F922
:101DD000354B01221A7001F09FFC1DE001F03AFD25
:101DE0000346002B0CD03348FFF7BAF9FFF7F0FA9F
:101DF00001F09CFD3048FFF7B3F903F0F7F90BE071
:101E00002A4B1B7883F00103DBB2002B04D02B4854
:101E1000FFF7A6F9FFF75EF9224B1B78DBB2022B26
:101E200028D1204B00221A701F4B1B78002B12D098
:101E300001F010FD034683F00103DBB2002B0AD052
:101E40001F48FFF78DF902F071F8FFF743F9164BC1
:101E500000221A700EE01B48FFF782F9FFF7BCF969
:101E6000FFF75EFAFFF78AFA0F4B1B78002B01D0C1
:101E7000FFF7AEFAFFF708FF0B4B1B78002B01D0E2
:101E800001F0E8FC322005F085F985E7E8EF00086D
:101E900010F0000834F000085CF00008B8140020CE
:101EA000BC140020B4140020B7140020B614002085
:101EB00078F00008A4F00008E0F00008F8F000084E
:101EC00028F1000840F1000880B594B000AF07F198
:101ED00020033022002118460AF024FA07F10C03EF
:101EE00000221A605A609A60DA601A610023BB60AF
:101EF000274B1B6C264A43F080531364244B1B6C06
:101F000003F08053BB60BB6800237B60214B1B68E0
:101F1000204A43F4404313601E4B1B6803F44043C4
:101F20007B607B6802233B620123FB6210233B63DF
:101F30000223BB630023FB6310233B64A8237B6461
:101F40000223BB640423FB6407F12003184606F058
:101F5000ABF80346002B01D000F0CEFB0F23FB6053
:101F600002233B6100237B614FF48053BB6100235C
:101F7000FB6107F10C030221184606F00DFB034636
:101F8000002B01D000F0B8FB00BF5037BD4680BD2C
:101F9000003802400070004080B584B000AF3B467E
:101FA00000221A605A609A60DA60214B214A1A6056
:101FB0001F4B4FF480325A601D4B00229A601C4B1D
:101FC00000221A611A4B00221A76194B002283F85C
:101FD0002020174B0022DA62154B174A9A62144BE5
:101FE0000022DA60124B0122DA61114B002283F8E1
:101FF00030200F4B01225A610D4805F0EFF80346DF
:10200000002B01D000F078FB00233B6001237B60B4
:102010000423BB603B461946054805F0A3FA034676
:10202000002B01D000F068FB00BF1037BD4680BD1B
:1020300064020020002001400100000F80B500AFC5
:10204000174B184A1A60164B4FF482725A60144BA1
:1020500000229A60124B0022DA60114B00221A61B2
:102060000F4B00225A610E4B4FF400729A610C4BD9
:102070003022DA610A4B00221A62094B00225A62AE
:10208000074B00229A62064B0A22DA62044806F0E5
:1020900063FC0346002B01D000F02EFB00BF80BD87
:1020A000AC0200200038004080B596B000AF07F1C8
:1020B000480300221A605A609A60DA6007F1400310
:1020C00000221A605A6007F1240300221A605A6045
:1020D0009A60DA601A615A619A613B1D20220021E0
:1020E00018460AF01FF93E4B3E4A1A603C4B142238
:1020F0005A603B4B00229A60394BC822DA60384B59
:1021000000221A61364B00225A61354B80229A61B7
:10211000334807F0F3F90346002B01D000F0ECFA46
:102120004FF48053BB6407F1480319462C4807F06D
:1021300087FE0346002B01D000F0DEFA284807F0A6
:102140002CFA0346002B01D000F0D6FA00233B64A2
:1021500000237B6407F140031946214808F03CFA4C
:102160000346002B01D000F0C7FA60237B62642392
:10217000BB620023FB6200233B6300237B630023DD
:10218000BB630023FB6307F12403082219461448AC
:1021900007F094FD0346002B01D000F0ADFA0023B8
:1021A0007B600023BB600023FB6000233B610023B6
:1021B0007B614FF40053BB6100233B623B1D19461A
:1021C000074808F077FA0346002B01D000F094FA94
:1021D000034803F02FFA00BF5837BD4680BD00BF4B
:1021E000040300200000014080B58CB000AF07F16F
:1021F0000C032422002118460AF094F83B1D00220B
:102200001A605A60214B4FF080421A601F4B002227
:102210005A601E4B00229A601C4B4FF6FF72DA6028
:102220001A4B00221A61194B80229A610323FB602A
:1022300000233B6101237B610023BB610023FB6121
:1022400000233B6201237B620023BB620023FB620D
:1022500007F10C0319460D4807F00CFB0346002B51
:1022600001D000F049FA00237B600023BB603B1DD6
:102270001946064808F0B0F90346002B01D000F0DB
:102280003BFA00BF3037BD4680BD00BF4C03002085
:1022900080B58EB000AF07F1280300221A605A60A3
:1022A0009A60DA6007F1200300221A605A603B1D31
:1022B00000221A605A609A60DA601A615A619A6163
:1022C0003D4B3E4A1A603C4B04225A603A4B002276
:1022D0009A60394B40F24632DA60374B00221A617D
:1022E000354B80229A61344807F008F90346002BE9
:1022F00001D000F001FA4FF48053BB6207F12803CC
:1023000019462D4807F09CFD0346002B01D000F034
:10231000F3F9294807F041F90346002B01D000F0FA
:10232000EBF900233B6200237B6207F1200319468F
:10233000214808F051F90346002B01D000F0DCF9E8
:1023400060237B600023BB600023FB6000237B6174
:102350003B1D00221946184807F0B0FC0346002B2D
:1023600001D000F0C9F93B1D04221946124807F0BC
:10237000A5FC0346002B01D000F0BEF93B1D08224E
:1023800019460D4807F09AFC0346002B01D000F0D7
:10239000B3F93B1D0C221946074807F08FFC034692
:1023A000002B01D000F0A8F9034803F043F900BF67
:1023B0003837BD4680BD00BF9403002000040040B4
:1023C00080B58CB000AF07F10C0324220021184621
:1023D00009F0A8FF3B1D00221A605A60204B214AD9
:1023E0001A601F4B00225A601D4B00229A601C4B42
:1023F0004FF6FF72DA601A4B00221A61184B8022E6
:102400009A610323FB6000233B6101237B6100236E
:10241000BB610023FB6100233B6201237B6200233D
:10242000BB620023FB6207F10C0319460C4807F05E
:1024300021FA0346002B01D000F05EF900237B60F7
:102440000023BB603B1D1946054808F0C5F803464C
:10245000002B01D000F050F900BF3037BD4680BDE1
:10246000DC0300200008004080B500AF114B124A89
:102470001A60104B4FF416525A600E4B00229A60AD
:102480000C4B0022DA600B4B00221A61094B0C2224
:102490005A61084B00229A61064B0022DA61054816
:1024A00008F06EF90346002B01D000F025F900BFBB
:1024B00080BD00BF240400200014014080B588B016
:1024C00000AF07F10C0300221A605A609A60DA60CC
:1024D0001A610023BB604B4B1B6B4A4A43F0040359
:1024E0001363484B1B6B03F00403BB60BB68002302
:1024F0007B60444B1B6B434A43F001031363414B26
:102500001B6B03F001037B607B6800233B603D4B4A
:102510001B6B3C4A43F0020313633A4B1B6B03F003
:1025200002033B603B6800224FF40051364805F03F
:102530006FFD002241F23031344805F069FD002280
:102540004FF44071324805F063FD4FF40053FB60D7
:1025500001233B6100237B610023BB6107F10C0376
:102560001946294805F0D0FB0223FB604FF488137D
:102570003B6100237B6107F10C031946244805F0F9
:10258000C3FB4FF48063FB604FF488133B6100236F
:102590007B6107F10C0319461C4805F0B5FB41F2BD
:1025A0003033FB6001233B6100237B610023BB616F
:1025B00007F10C031946154805F0A6FB4FF44073CC
:1025C000FB6001233B6100237B610023BB6107F1BA
:1025D0000C0319460E4805F097FB00220521072041
:1025E00005F0C9FA072005F0E2FA002205212820AB
:1025F00005F0C1FA282005F0DAFA00BF2037BD4601
:1026000080BD00BF003802400008024000040240C4
:102610000000024080B584B000AF0346FB8004F0A8
:10262000ADFDF860114B1B68FA68D31AC82B19D995
:10263000FB88022B09D10E4B01221A700D4B01228F
:102640001A700D48FEF78CFD09E0FB88B3F5806F2A
:1026500005D1074B02221A700848FEF781FD034A94
:10266000FB68136000BF1037BD4680BDC01400205A
:10267000B4140020B514002068F1000880F10008AF
:1026800080B586B000AF3B1D00221A605A609A6088
:10269000DA601A6101237B600323BB600023FB60C7
:1026A0003B1D1946124805F02FFB04237B603B1DA0
:1026B00019460F4805F028FB08237B603B1D19468F
:1026C0000B4805F021FB10237B603B1D1946084891
:1026D00005F01AFB20237B603B1D1946044805F0DA
:1026E00013FB0448FEF73CFD00BF1837BD4680BD14
:1026F0000000024098F1000880B500AF72B600BF3C
:102700001021064805F09DFC2021044805F099FCA5
:10271000642004F03FFD00BFF2E700BF0004024068
:1027200080B487B000AFF860B9607A60FB701F4971
:10273000FB681A01BB6813449B00CA187B681344EA
:10274000FA781A701A4A7B6852F82330FA681344F0
:102750007B61184A7B6852F82330BA6813443B61A6
:102760007B69002B1BDB7B690F2B18DC3B69002B83
:1027700015DB3B690F2B12DC7B6802335A4203F0F6
:10278000030302F0030258BF534208487A6911015B
:102790003A690A44920002441344FA781A7000BF5E
:1027A0001C37BD465DF8047B704700BFDC14002079
:1027B0007C0301088C03010880B485B000AFF86089
:1027C000B9607A60FB680F2B05D8BB680F2B02D865
:1027D0007B68032B01D901230AE00849FB681A0131
:1027E000BB6813449B00CA187B68134493F90030FC
:1027F00018461437BD465DF8047B7047DC14002092
:1028000080B483B000AF78607B680022C3F884286E
:102810007B68D3F884287B68C3F8802800BF0C3716
:10282000BD465DF8047B704780B483B000AF78602C
:102830007B68D3F880287B68D3F884389A420CBF31
:1028400001230023DBB218460C37BD465DF8047B3C
:10285000704780B485B000AFF8603B1D83E8060088
:10286000FB68D3F88438B3F5887F0EDAFB68D3F8B9
:102870008438591CFA68C2F88418FA68DB001344DB
:102880003A1D92E8030083E8030000BF1437BD46F9
:102890005DF8047B704790B482B000AF7860396017
:1028A0003B68D3F88038591C3A68C2F880187968B8
:1028B0003A680C46DB00134493E8030084E8030005
:1028C00078680837BD4690BC7047000080B485B07A
:1028D00000AF78600C4B5B68FB600C4B1A687B6840
:1028E00002FB03F3BB6000E000BF074B5A68FB68C4
:1028F000D31ABA689A42F7D800BF00BF1437BD4652
:102900005DF8047B704700BF001000E064210020E8
:1029100080B483B000AF78600C4BDB680B4A43F0A7
:102920008073D3600A4B1B68094A43F001031360AC
:102930007B68084AA2FB03239B0C074A136000BF75
:102940000C37BD465DF8047B704700BFF0ED00E03A
:10295000001000E083DE1B436421002080B58AB0B4
:1029600002AF6C48FEF7FCFB0023FB613EE0002356
:10297000BB6135E06849FB691A01BB6913441B015F
:102980000B4442F20F721A606349FB691A01BB697A
:1029900013441B010B44043300221A705E49FB6987
:1029A0001A01BB6913441B010B440C3300221A604B
:1029B00000237B610EE05849FB691A01BB6913448F
:1029C0001B01CA187B691344053300221A707B6906
:1029D00001337B617B69032BEDDDBB690133BB6197
:1029E000BB690F2BC6DDFB690133FB61FB690F2B54
:1029F000BDDD00233B611FE00023FB6016E00023E8
:102A0000BB600DE045493B691A01FB6813449B001C
:102A1000CA18BB681344FF221A70BB680133BB603D
:102A2000BB68032BEEDDFB680133FB60FB680F2BFB
:102A3000E5DD3B6901333B613B690F2BDCDD0023A6
:102A40007B601DE0354A7B689B0113440233012201
:102A50001A70324A7B689B0113443C3301221A707E
:102A60002E4A7B689B0013440122DA702B4A7B6854
:102A70009B001344012283F8C1237B6801337B60F0
:102A80007B680F2BDEDD264B07221A60254B0722C1
:102A90001A60254B08221A60244B08221A60244B26
:102AA00000221A60224B00225A60214B00229A60B9
:102AB0001F4B00221A731E4B00225A731C4B00221C
:102AC0001A61154B01221A71134B0122DA60194B5E
:102AD00000221A60184B00221A6010221021174899
:102AE000FEF754FB0E4B19680E4B1A680E4B186814
:102AF0000E4B1B68009303461148FEF747FB114835
:102B0000FEF72EFB1048FEF72BFB00BF2037BD461B
:102B100080BD00BFC0F100086C040020DC14002060
:102B2000C4140020C8140020CC140020D0140020AD
:102B30006C140020D4140020D8140020ECF10008FC
:102B400000F2000820F2000850F2000880B598B0AA
:102B500000AF0023FB6515E00023BB650CE0844952
:102B6000FB6D1A01BB6D13441B010B4442F20F7243
:102B70001A60BB6D0133BB65BB6D0F2BEFDDFB6DC9
:102B80000133FB65FB6D0F2BE6DD7A48FFF738FE5E
:102B9000794B1B7B83F00103DBB2002B60D0774BBA
:102BA0001A68774B1B687249120113441B010B44CE
:102BB00000221A60734B1A68714B1B686C49120132
:102BC00013441B010B4400221A606C4B1A686E4BB5
:102BD0001B686749120113441B010B4400221A6051
:102BE000684B1A68684B1B686149120113441B014A
:102BF0000B4400221A60614B1B687B63604B1B68AF
:102C0000BB6307F1340393E806005A48FFF721FE3F
:102C10005C4B1B68FB625A4B1B683B6307F12C0340
:102C200093E806005348FFF714FE544B1B687B6281
:102C3000554B1B68BB6207F1240393E806004D481F
:102C4000FFF707FE4F4B1B68FB614F4B1B683B6256
:102C500007F11C0393E806004648FFF7FAFD0DE074
:102C6000434B00221A6000237B610023BB6107F104
:102C7000140393E806003F48FFF7EBFD00237B6554
:102C800068E007F10C033B491846FFF704FEFB68B8
:102C9000FB643B69BB6400233B6558E03B49FB6C2C
:102CA0001A01BB6C13449B00CA183B6D134493F983
:102CB0000030012B45D0364A3B6D52F82330FA6C78
:102CC00013447B64334A3B6D52F82330BA6C13448F
:102CD0003B647B6C002B36DB7B6C0F2B33DC3B6C5B
:102CE000002B30DB3B6C0F2B2DDC2149FB6C1A01D8
:102CF000BB6C13441B010B441B680133FB631C4971
:102D00007B6C1A013B6C13441B010B441B68FA6B70
:102D10009A4219DA16497B6C1A013B6C13441B0169
:102D20000B44FA6B1A607B6C7B603B6CBB603B1D99
:102D300093E806000F48FFF78CFD7B6D01337B6540
:102D400002E000BF00E000BF3B6D01333B653B6D1F
:102D5000032BA3DD0748FFF767FD0346002B90D048
:102D6000796D0D48FEF712FA00BF6037BD4680BD91
:102D70006C040020DC1800206C140020C414002017
:102D8000C8140020CC140020D0140020DC14002033
:102D90007C0301088C03010880F2000880B493B022
:102DA00000AF894B9B687B6442F20F733B6440F237
:102DB000E733FB63002387F83B30834B9B683B6022
:102DC000814B9B6801335A4203F0030302F0030274
:102DD00058BF53427B607C4B9B6803335A4203F0DD
:102DE000030302F0030258BF5342BB60764B9B685B
:102DF00002335A4203F0030302F0030258BF534266
:102E0000FB6000237B635CE07B6B9B0048333B44AF
:102E100053F8483CBB616C4B1A686B4B5B686B4961
:102E2000120113449B00CA18BB69134493F9003084
:102E3000012B40D0644B1A686549BB6951F82330B7
:102E400013447B61604B5A686249BB6951F8233077
:102E500013443B617B69002B2FDB7B690F2B2CDC40
:102E60003B69002B29DB3B690F2B26DC5A497B6928
:102E70001A013B6913441B010B440C331B68002BE4
:102E80001CD1012387F83B3053497B691A013B6908
:102E900013441B010B441B683A6C9A420EDD4E49E9
:102EA0007B691A013B6913441B010B441B683B649B
:102EB000BB697B6402E000BF00E000BF7B6B0133B5
:102EC0007B637B6B032B9FDD97F83B3083F0010323
:102ED000DBB2002B70D000233B636AE03B6B9B00AE
:102EE00048333B4453F8483CFB62374B1A68364B37
:102EF0005B683649120113449B00CA18FB6A1344ED
:102F000093F90030012B4ED02F4B1A683049FB6AE1
:102F100051F823301344BB622B4B5A682D49FB6A8E
:102F200051F8233013447B62BB6A002B3DDBBB6A44
:102F30000F2B3ADC7B6A002B37DB7B6A0F2B34DCF0
:102F40002549BB6A1A017B6A13441B010B441B68A9
:102F50003B622149BB6A1A017B6A13441B010B4483
:102F60000C331B68FB613A6A3B6C9A4214DB3A6A89
:102F70003B6C9A4203D1FA69FB6B9A420CDB3A6ACA
:102F80003B6C9A4212D1FA69FB6B9A420ED10E4BFE
:102F90009B68FA6A9A4209D13B6A3B64FB69FB630E
:102FA000FB6A7B6402E000BF00E000BF3B6B0133C3
:102FB0003B633B6B032B91DD7B6C18464C37BD4666
:102FC0005DF8047B704700BF6C140020DC14002007
:102FD0007C0301088C0301086C04002080B584B0D8
:102FE00000AF78602A4B9B68FB607A68FB68D31A55
:102FF00004335A4203F0030302F0030258BF534262
:10300000BB60BB68032B3BD801A252F823F000BF82
:10301000813000082130000841300008613000088C
:103020001C48FEF79DF800F0FFFE1B4B40F2CA5211
:103030001A601A4B40F2CA521A60FEF76DF81FE090
:103040001748FEF78DF800F027FF134B40F2AC5203
:103050001A60124B40F2AC521A60FEF75DF80FE0B6
:103060001048FEF77DF800F0A7FE0B4B40F26E52C1
:103070001A600A4B40F26E521A60FEF74DF800BF1C
:10308000034A7B68936000BF1037BD4680BD00BF18
:103090006C140020A4F20008682100206C2100209C
:1030A000B8F20008CCF2000880B586B000AF3A4B09
:1030B0001B68394A526819463848FEF767F8364B9C
:1030C0001B687B61344B5B683B61334B9B68FB60E7
:1030D000314B1A68304B9B68314951F82330134407
:1030E000BB602D4B5A682C4B9B682E4951F82330FE
:1030F00013447B60BB68002B08DBBB680F2B05DC2F
:103100007B68002B02DB7B680F2B04DD2648FEF773
:1031100027F800233BE07A68B9682448FEF736F8C0
:1031200040F6C41140F6C41001F070F81A4ABB68AA
:103130001360194A7B685360174B1B690133164AA9
:1031400013610023FA6839697869FFF7E9FA124BCD
:103150001A68114B5B681649120113441B010B449A
:10316000043301221A700C4B1A680B4B5B68104831
:1031700011011944090101440C31096801310C485D
:10318000120113441B0103440C3319600123184638
:103190001837BD4680BD00BF6C140020E0F2000867
:1031A0007C0301088C03010800F300081CF30008ED
:1031B0006C04002080B586B000AF5B4B1B685A4A98
:1031C000526819465948FDF7E1FF574B1B687B6170
:1031D000554B5B683B61544B9B68FB60524B1A68D4
:1031E000514B9B68524951F823301344BB604E4BFE
:1031F0005A684D4B9B684F4951F8233013447B600C
:10320000BB68002B08DBBB680F2B05DC7B68002B41
:1032100002DB7B680F2B04DD4748FDF7A1FF00238D
:103220007DE07A68B9684548FDF7B0FF444B1B68FC
:10323000002B12D0434B1B68002B0ED0404B1B6859
:10324000404A12681146184600F0E0FF3C4B00224D
:103250001A603C4B00221A6030E03B4BDB7A002BBB
:1032600003D1394B1B7B002B14D0384B1B68012B2F
:1032700009D140F2E24140F2E24000F0FCFF334B62
:1032800000221A601AE040F6C41140F6C41000F0A3
:1032900087FE13E02D4B1B68012B09D140F2E24160
:1032A00040F2E24000F0B2FF284B00221A6005E035
:1032B00040F6C41140F6C41000F00CFF1A4ABB6877
:1032C0001360194A7B685360174B1B690133164A18
:1032D0001361154B1A68144B5B681D4912011344A6
:1032E0001B010B44043301221A700F4B1A680E4B5A
:1032F0005B68174811011944090101440C31096840
:1033000001311348120113441B0103440C331960AB
:103310000023FA6839697869FFF702FA0123184631
:103320001837BD4680BD00BF6C140020E0F20008D5
:103330007C0301088C03010800F300081CF300085B
:10334000682100206C210020801400200000002053
:103350006C04002080B400AF1C4B1B7B83F0010386
:10336000DBB2002B1ED0194B1A68194B1B689A420E
:1033700005D0164B1A68174B1B689A420DD1134B98
:103380005A68154B1B689A4205D0104B5A68134B6C
:103390001B689A4201D1012300E0002303F00103DE
:1033A000DBB20DE0094B1B68002B05D1074B5B68B6
:1033B000002B01D1012300E0002303F00103DBB265
:1033C0001846BD465DF8047B704700BF6C140020B2
:1033D000C4140020CC140020C8140020D0140020F5
:1033E000F0B587B004AF01F01DFC4E4B9B68033372
:1033F0005A4203F0030302F0030258BF53427B60BA
:10340000484B9B6801335A4203F0030302F0030266
:1034100058BF53423B60444B9B7A002B09D0414B31
:103420001868404B59683F4B9A680123FFF778F9B9
:1034300008E03C4B18683B4B59683A4B9A680023AC
:10344000FFF76EF9384BDB7A002B08D0354B186844
:10345000344B596801237A68FFF762F907E0314B72
:103460001868304B596800237A68FFF759F92E4BDA
:103470001B7B002B08D02B4B18682A4B5968012363
:103480003A68FFF74DF907E0264B1868254B596855
:1034900000233A68FFF744F9234B9B7A002B07D1AE
:1034A000214BDB7A002B03D11F4B1B7B002B28D039
:1034B0001D4B9B7A002B01D01C4900E01C491A4B84
:1034C000DB7A002B01D0194A00E0194A164B1B7B0E
:1034D000002B01D0154B00E0154B13480089044622
:1034E0001148408805461048C08806460E48808826
:1034F00003900296019500940E48FDF747FEFDF7F4
:1035000002FE084B1A68074B5B680B491201134413
:103510001B010B44043301221A7000BF0C37BD4657
:10352000F0BD00BF6C1400208014002028F30008B8
:103530002CF3000830F300086C040020B0B588B00C
:1035400002AF6848FDF70CFE4FF440737B60002328
:103550007B6160E0FFF744FF0A2003F01BFEFFF7EA
:10356000F5FAFFF71BFC38603868FFF737FDFFF707
:1035700021FE034683F00103DBB2002B28D05A481A
:10358000FDF7EEFD00233B611DE03A693B689A427E
:1035900016D0564B1A68554B5B68554912011344B7
:1035A0009B00CA183B69134493F90030012B07D0E4
:1035B0003869FFF713FDFFF777FD0346002B06D1AF
:1035C0003B6901333B613B69032BDEDD00E000BF5B
:1035D0007969484B83FB01235A10CB17D21A134643
:1035E0009B001344CA1A002A12D1404B1C683F4B5F
:1035F0005D683E4B9B68184602F0AAFA03460093AA
:103600002B46224679693C48FDF7C0FDFDF7E4FDF5
:103610007B6901337B61FFF79DFE034683F0010365
:10362000DBB2002B03D07A697B689A4292DBFFF70A
:1036300091FE0346002B42D02C4B1B7B83F00103F1
:10364000DBB2002B2DD0294B01221A732B48FDF73A
:1036500087FDFDF713FD0023FB6015E00023BB6031
:103660000CE02749FB681A01BB6813441B010B449B
:103670000C3300221A60BB680133BB60BB680F2BA0
:10368000EFDDFB680133FB60FB680F2BE6DD02F02A
:1036900021FA4FF4FA6003F07DFD1A48FDF760FD52
:1036A00015E0124B01225A731748FDF759FDFDF73B
:1036B000E5FC02F00FFA154B01221A6007E0796869
:1036C0001348FDF763FDFDF705FD02F022FA074BF5
:1036D0001B6919460F48FDF759FD00BF1837BD4655
:1036E000B0BD00BF6CF3000894F300086C14002018
:1036F000DC14002067666666C4F30008F0F3000877
:103700006C0400200CF4000828F40008D4140020F5
:1037100048F4000874F4000880B588B002AF42484D
:10372000FDF71EFD414B1B7B83F00103DBB2002B39
:1037300006D03F48FDF714FD02F0BCF9FFF7FEFE8E
:103740003A4B1B7B002B11D0384B5B7B83F0010382
:10375000DBB2002B0AD03748FDF702FD02F0B2F9C8
:103760004FF47A7003F016FDFFF7E8FE2F4B5B7BFA
:10377000002B54D03048FDF7F3FCFDF729FE4FF441
:103780008073BB6000237B6100233B6119E0002351
:10379000FB6010E029493B691A01FB6813441B01D7
:1037A0000B4404331B78002B02D07B6901337B610F
:1037B000FB680133FB60FB680F2BEBDD3B690133DA
:1037C0003B613B690F2BE2DD7B6907EE903AF8EE37
:1037D000E76ABB6807EE903AB8EEE77AC6EE877AFA
:1037E0009FED177A67EE877AC7ED017A7868FCF764
:1037F000B3FE02460B46CDE90023BA687969114849
:10380000FDF7C4FC1048FDF7ABFC00F0FDF800F03C
:103810008DF80E48FDF7A4FC0D4B01221A6000BF85
:103820001837BD4680BD00BF94F400086C1400201A
:10383000BCF40008E0F4000804F500086C04002063
:103840000000C84228F5000858F5000898F500085F
:10385000D414002080B400AF054B1B68002B14BFAC
:1038600001230023DBB21846BD465DF8047B704798
:10387000D414002080B485B000AF214B1B69002B0D
:1038800002D1DFED207A34E01F4B1B6883EAE3723C
:10389000A2EBE3721D4B1B68002BB8BF5B421344C5
:1038A000FB60194B1B6883EAE372A2EBE372174BD0
:1038B0001B68002BB8BF5B421344BB60FA68BB684F
:1038C00013447B607B68002B02D1DFED117A10E09E
:1038D0007B6807EE903AF8EEE76A094B1B6907EE42
:1038E000903AB8EEE77AC6EE877A9FED097A67EEEE
:1038F000877AB0EE670A1437BD465DF8047B7047DF
:103900006C14002000000000C4140020C814002023
:103910000000C84280B400AF034B1B681846BD4688
:103920005DF8047B704700BF6C04002080B584B054
:1039300000AF2F48FDF714FC0023FB6006E0F96898
:103940002C48FDF723FCFB680133FB60FB680F2B61
:10395000F5DD2948FDF704FC0F23BB6040E0B968A2
:103960002448FDF713FC00237B6030E023497B688B
:103970001A01BB6813441B010B4404331B7883F00A
:103980000103DBB2002B03D01D48FDF7E9FB1BE070
:103990001A497B681A01BB6813441B010B441B685E
:1039A00042F20F72934203D11648FDF7D9FB0BE0A8
:1039B00012497B681A01BB6813441B010B441B6846
:1039C00019460C48FDF7E2FB7B6801337B607B689E
:1039D0000F2BCBDD0848FDF7C3FBBB68013BBB6089
:1039E000BB68002BBBDA00BF00BF1037BD4680BDEF
:1039F000C8F50008F8F50008FCF500086C04002084
:103A000000F6000804F6000880B59EB000AF002361
:103A10007B6715E000233B670CE083497B6F1A014D
:103A20003B6F13441B010B4442F20F721A603B6F51
:103A300001333B673B6F0F2BEFDD7B6F01337B6700
:103A40007B6F0F2BE6DD0723FB650723BB65FB6D53
:103A5000FB62FB6D01333B63FB6D7B63FB6D0133ED
:103A6000BB63BB6DFB61BB6D3B62BB6D01337B62B6
:103A7000BB6D0133BB620023FB666C48FEF7C0FEE2
:103A80000023BB6631E0BB6E9B0078333B4453F8A8
:103A90004C3C3B64BB6E9B0078333B4453F85C3C2E
:103AA000FB6361493B6C1A01FB6B13441B010B4424
:103AB00004331B78002B15D05B493B6C1A01FB6B60
:103AC00013441B010B4400221A603B6C7B61FB6BAF
:103AD000BB6107F1140393E806005448FEF7B9FEF2
:103AE0000123FB66BB6E0133BB66BB6E032BCADDD5
:103AF000FB6E002B07D14E48FDF732FB4D4B4FF0CC
:103B0000FF321A608CE000237B6678E007F10C033B
:103B100046491846FEF7BFFEFB687B653B693B657F
:103B200000233B6668E044497B6D1A013B6D1344FA
:103B30009B00CA183B6E134493F90030012B53D0FD
:103B40003E4A3B6E52F823307A6D1344FB643C4A84
:103B50003B6E52F823303A6D1344BB64FB6C002B70
:103B600044DBFB6C0F2B41DCBB6C002B3EDBBB6CE6
:103B70000F2B3BDC2C49FB6C1A01BB6C13441B0163
:103B80000B4404331B7883F00103DBB2002B2FD1ED
:103B900025497B6D1A013B6D13441B010B441B68C7
:103BA00001337B642049FB6C1A01BB6C13441B017D
:103BB0000B441B687A6C9A421BDA1B49FB6C1A0196
:103BC000BB6C13441B010B447A6C1A60FB6C7B606A
:103BD000BB6CBB603B1D93E806001448FEF739FE42
:103BE0007B6E01337B6604E000BF02E000BF00E0B3
:103BF00000BF3B6E01333B663B6E032B93DD0B48EE
:103C0000FEF712FE0346002B80D0074B1B68094AC3
:103C10001360084B1B687A6E19460A48FDF7B6FA1E
:103C20007837BD4680BD00BF6C040020DC18002042
:103C30000CF6000804000020DC1400207C030108BE
:103C40008C03010834F6000880B483B000AF194B30
:103C50001B685B6AFB80184B1B685B6ABB80174B59
:103C60001B88FA88D31A9BB27B80154B1B88BA88B5
:103C7000D31A9BB23B803B885B429BB23B80B7F937
:103C80000220104B1B6813440E4A1360B7F9002042
:103C90000D4B1B6813440C4A1360084AFB881380C1
:103CA000074ABB88138000BF0C37BD465DF8047B14
:103CB000704700BF4C030020DC03002008000020F8
:103CC0000A000020702100207421002080B500AF80
:103CD000FFF7BAFF014B1B68184680BD702100201A
:103CE00080B500AFFFF7B0FF014B1B68184680BDE1
:103CF0007421002080B400AF0B4B00221A600B4BE4
:103D000000221A600A4B1B685B6A9AB2094B1A8040
:103D1000094B1B685B6A9AB2084B1A8000BFBD460C
:103D20005DF8047B704700BF7021002074210020E3
:103D30004C03002008000020DC0300200A000020C3
:103D400080B500AF3C21154805F03AFE3C211448EF
:103D500005F036FE114B1B684FF400425A62104BBF
:103D60001B684FF400425A62012003F013FA0D4B16
:103D70004FF400421A800C4B4FF400421A800B4B58
:103D800000221A600A4B00221A600A4B00229A6035
:103D9000084B0022DA6000BF80BD00BFDC030020BA
:103DA0004C030020080000200A00002070210020A1
:103DB00074210020A414002080B500AF174B9B7A1B
:103DC000002B0CD04FF4FA614FF4167001F046FF4F
:103DD0004FF47A714FF4167002F0FCF805E040F2EF
:103DE000BD3140F2BD3000F011FA00F04BFC4FF451
:103DF00096614FF402709FED0A0A00F01FFD094B17
:103E00009B6803335A4203F0030302F0030258BFD6
:103E10005342044A936000BF80BD00BF801400205D
:103E20000000B4426C14002080B500AF174B9B7AA1
:103E3000002B0CD04FF4FA614FF4167001F00EFF16
:103E40004FF47A714FF4167002F0C4F805E040F2B6
:103E5000BD3140F2BD3000F0D9F900F013FC4FF451
:103E600096614FF402709FED0A0A00F0E7FC094BDF
:103E70009B6801335A4203F0030302F0030258BF68
:103E80005342044A936000BF80BD00BF80140020ED
:103E90000000B4C26C14002080B500AF204B9B7AA8
:103EA000002B0CD04FF4FA614FF4167001F0D6FEDF
:103EB0004FF47A714FF4167002F08CF805E040F27E
:103EC000BD3140F2BD3000F0A1F94FF496614FF4DE
:103ED00002709FED140A00F0B1FC4FF496614FF4AC
:103EE00002709FED100A00F0A9FC0F4B9B68013394
:103EF0005A4203F0030302F0030258BF53420A4A36
:103F00009360094B9B6801335A4203F0030302F0AC
:103F1000030258BF5342044A936000BF80BD00BFF4
:103F2000801400200000B4C26C14002080B400AFE4
:103F30000A4B1B6800225A63084B1B6800229A63D5
:103F4000064B1B680022DA63044B1B6800221A64CC
:103F500000BFBD465DF8047B704700BF940300209E
:103F600080B500AF0D4B1B684FF47A725A630B4B50
:103F70001B684FF47A729A63084B1B684FF47A728D
:103F8000DA63064B1B684FF47A721A64C82003F098
:103F900001F9FFF7CBFF00BF80BD00BF94030020F5
:103FA00080B590B000AF78603960FFF7A3FEFFF7EF
:103FB0008DFE7863FFF794FE386340F6B83140F227
:103FC0003A2002F045FE02F077FB02F0DBFB7A6854
:103FD0003B681344DA0F13445B10FB624FF4FA732F
:103FE000FB6320E0F86B02F0DDFB4FF44870FEF756
:103FF0006DFCFFF76BFEB862FFF772FE7862BA6A7B
:104000007B6BD21A796A3B6BCB1A1344DA0F1344D9
:104010005B103B623B6A2E4A934201DA00BF06E026
:10402000FB6B0133FB63FB6BB3F5617FDADBFFF7FF
:104030004DFEF861FFF754FEB861FA697B6BD21A46
:10404000B9693B6BCB1A1344DA0F13445B107B61E5
:104050007B695A42FB6AA3F2B4539A4208DA4FF4DE
:10406000617002F09FFB4FF44870FEF72FFCDEE713
:1040700000BF40F2A323BB6322E0B86B02F092FBC7
:104080004FF46170FEF722FCFFF720FE3861FFF766
:1040900027FEF8603A697B6BD21AF9683B6BCB1A42
:1040A0001344DA0F13445B10BB60BB685B42FA6ACF
:1040B0009A4202DCFFF754FF06E0BB6B013BBB6397
:1040C000BB6BC82BD9DC00BF00BF4037BD4680BDED
:1040D000EDFAFFFF80B590B000AF78603960FFF770
:1040E00009FEFFF7F3FD7863FFF7FAFD386300F090
:1040F00097F97A683B681344DA0F13445B10FB624C
:104100004FF4FA73FB6322E0FDF7AAFBF86B00F0B3
:10411000ABF94FF46170FEF7D9FBFFF7D7FDB8623A
:10412000FFF7DEFD7862BA6A7B6BD21A796A3B6B65
:10413000CB1A1344DA0F13445B103B623B6A324ADA
:10414000934201DA00BF06E0FB6B0133FB63FB6BBC
:10415000B3F5617FD8DBFFF7B9FDF861FFF7C0FD6C
:10416000B861FA697B6BD21AB9693B6BCB1A1344FD
:10417000DA0F13445B107B617B695A42FB6AA3F23E
:10418000B4539A420ADAFDF76BFB4FF4617000F00A
:104190006BF94FF46170FEF799FBDCE700BF4FF459
:1041A0004873BB6328E0FDF75BFBB86B00F05CF97C
:1041B0004FF47A70FEF78AFBFFF788FD3861FFF74E
:1041C0008FFDF8603A697B6BD21AF9683B6BCB1AAA
:1041D0001344DA0F13445B10BB60BB685B42FA6A9E
:1041E0009A4206DCFFF7BCFE4FF4FA7002F0D2FFF1
:1041F00006E0BB6B013BBB63BB6BC82BD3DC00BFD2
:1042000000BF4037BD4680BDEDFAFFFF80B588B0E6
:1042100000AF78603960FFF76DFDFFF757FDF8617B
:10422000FFF75EFDB86100F0FBF8FDF719FB40F207
:104230003A2000F019F9FFF749FD7861FFF750FDCA
:104240003861FA697B69D31AFB60BA693B69D31A92
:10425000BB60FA687B689A4207DABA683B689A42A0
:1042600003DA012002F096FFDFE7FFF779FE00BFD7
:104270002037BD4680BD80B58AB000AF7860396018
:10428000FFF738FDFFF722FD7862FFF729FD38625E
:104290000023FB6140F28A23BB61B969F86901F030
:1042A000E9FF40F6B83140F23A2002F0D1FC02F0CA
:1042B00003FA02F067FA40F28A2002F073FA322021
:1042C000FEF704FBFFF702FD7861FFF709FD386197
:1042D0007A6A7B69D31AFB603A6A3B69D31ABB607E
:1042E000FA687B689A4204DABA683B689A4200DA54
:1042F000E1E7FFF735FE00BF2837BD4680BD00006F
:1043000080B584B000AF0346FB710B46BB7113460A
:10431000BB80FB79002B15D1BB79002B08D0174B44
:104320001B68BA885A63154B1B6800229A6320E009
:10433000124B1B68BA889A6300224021104803F090
:1043400067FE16E0BB79FB73FB7B002B09D00B4BA0
:104350001B68BA881A64002201210A4803F058FE3B
:1043600007E0064B1B6800221A64044B1B68BA88DE
:10437000DA6300BF1037BD4680BD00BF9403002044
:10438000000002400004024080B582B002AFFFF797
:104390005BFC094B1968094B1A68094B1B68586A82
:1043A000084B1B685B6A009303460748FCF7EEFE68
:1043B00000BFBD4680BD00BF7021002074210020D9
:1043C0004C030020DC0300200CF7000880B485B00B
:1043D00000AF87ED030AC7ED020A87ED011A97EDDA
:1043E000037AD7ED027AB4EEE77AF1EE10FA01D54E
:1043F000BB680BE097ED037AD7ED017AB4EEE77A6C
:10440000F1EE10FA01DD7B6800E0FB6807EE903A00
:10441000B0EE670A1437BD465DF8047B70470000B4
:1044200080B500AF0B4B4FF000021A600A4B4FF003
:1044300000021A60094B4FF000021A60084B4FF05F
:1044400000021A6002F09AFE0346064A136000BF9B
:1044500080BD00BF7C21002080210020842100201D
:10446000882100207821002080B58AB000AF7860D4
:1044700002F084FEB8616B4B1B68BA69D31A07EE71
:10448000903AB8EE677ADFED686AC7EE267AC7ED34
:10449000097AD7ED097AF5EEC07AF1EE10FA01D873
:1044A000624B7B625F4ABB691360FDF79FF987ED42
:1044B000050A97ED057AD7ED097A27EE277A5C4B46
:1044C000D3ED007A77EE277A594BC3ED007A584B3B
:1044D000D3ED007AB1EE047AB1EE477AF1EE046AD8
:1044E000B0EE661AF0EE470AB0EE670AFFF76EFF0D
:1044F000F0EE407A4E4BC3ED007A4E4BD3ED007A8E
:1045000097ED057A77EE676A97ED097AC6EE877AB6
:10451000C7ED047A9FED487A484BD3ED007A27EE39
:10452000277ADFED457AF7EE006A76EEE76AD7ED97
:10453000047A66EEA77A77EE277A404BC3ED007ACD
:104540003F4B93ED007AD7ED057A27EE277A3D4B66
:10455000D3ED006A364BD3ED007A66EEA77A37EEDC
:10456000277A394BD3ED006A344BD3ED007A66EEEF
:10457000A77A77EE277AC7ED037A7B6807EE903A41
:10458000B8EEE77AD7ED037A77EE677AB0EE670A8E
:104590000AF02EF8F0EE407AFDEEE77A17EE903A48
:1045A0003B627B6807EE903AB8EEE77AD7ED037A84
:1045B00077EE277AB0EE670A0AF01AF8F0EE407A42
:1045C000FDEEE77A17EE903AFB613B6AB3F5966F22
:1045D00002DD4FF496633B62FB69B3F5966F02DD33
:1045E0004FF49663FB613B6A002B01DA00233B62C8
:1045F000FB69002B01DA0023FB61FB699BB21A46C1
:1046000001210020FFF77CFE3B6A9BB21A46012184
:104610000120FFF775FE074A7B69136000BF28374A
:10462000BD4680BD7821002000007A446F12833A95
:10463000802100207C21002007D06F3F84210020B2
:104640000C000020100000201400002080B483B073
:1046500000AF87ED010AD7ED017AF5EEC07AF1EEF1
:1046600010FA02DB4FF07E5300E0054B07EE903A64
:10467000B0EE670A0C37BD465DF8047B704700BF9B
:10468000000080BF80B500AF094B4FF000021A60F8
:10469000084B4FF000021A60074B4FF000021A60FF
:1046A00002F06CFD0346054A136000BF80BD00BFE9
:1046B0008C210020902100209421002078210020CE
:1046C00080B588B000AF87ED030AC7ED020A7860B5
:1046D00002F054FDB8614E4B1B68BA69D31A07EE5D
:1046E000903AB8EE677ADFED4B6AC7EE267AC7EDEF
:1046F000077AD7ED077AF5EEC07AF1EE10FA01D815
:10470000454BFB61424ABB6913607B68002B02D0BA
:104710007B68FA691A6097ED037AD7ED027A77EE33
:10472000677AC7ED057A97ED057AD7ED077A27EE18
:10473000277A3A4BD3ED007A77EE277A374BC3EDE1
:10474000007A364BD3ED007AB2EE047AF4EEC77AF3
:10475000F1EE10FA02DD324A304B1A60F2EE047AC2
:10476000B1EE677A2D4BD3ED007AB4EEE77AF1EE35
:1047700010FA06DDF2EE047AF1EE677A274BC3ED0C
:10478000007A284BD3ED007A97ED057A77EE676AC9
:1047900097ED077AC6EE877AC7ED047A9FED227A05
:1047A000224BD3ED007A27EE277ADFED1F7AF7EE62
:1047B000006A76EEE76AD7ED047A66EEA77A77EEBE
:1047C000277A1A4BC3ED007A164A7B691360184B9F
:1047D00093ED007AD7ED057A27EE277A154BD3EDC6
:1047E000006A0E4BD3ED007A66EEA77A37EE277A91
:1047F000114BD3ED006A0D4BD3ED007A66EEA77A2C
:1048000077EE277AB0EE670A2037BD4680BD00BF3D
:104810007821002000007A446F12033B8C21002095
:1048200000002041902100206666663F9421002010
:104830000C000020100000201400002080B52DED99
:10484000028B98B000AF87ED030AB8607960BB684F
:104850003B2B01DC3C23BB60BB68B3F5C87F02DDAA
:104860004FF4C873BB60FFF70DFF4FF00003FB650B
:10487000FB68FB6302F082FCB8630023BB6502F0B7
:104880007DFC786502F07AFC78637A6B7B6DD31AD5
:1048900007EE903AB8EE677ADFEDA76AC7EE267AA0
:1048A000C7ED147AD7ED147AF5EEC07AF1EE10FA6E
:1048B00001D8A24B3B657B6B7B65FCF7D1FFFCF716
:1048C00095FF87ED0C0A97ED0C7AD7ED147A67EE19
:1048D000277A97ED177A77EE277AC7ED177A97ED53
:1048E0000F7AD7ED177A77EE677AC7ED0B7A944B8C
:1048F000D3ED007A37EEA77AD7ED0B7AF0EEE77AB0
:1049000067EE277ADFED8F0AB0EE670A09F006FE40
:10491000F0EE407AB0EE670A09F0E2FD87ED0A0A90
:10492000894BD3ED007AB0EE671ADFED860A97ED7A
:104930000A0AFFF74BFDB0EE408A97ED0B0AFFF72E
:1049400085FEF0EE407A68EE277AC7ED137AD7ED50
:10495000137AB0EEE77A7D4BD3ED007AB4EEE77AC6
:10496000F1EE10FA02D54FF00003FB644FF00003A4
:104970003B6107F110031846D7ED0C0A97ED130AB7
:10498000FFF79EFE87ED090AD7ED137AF0EEE77A7E
:10499000F5EEC07AF1EE10FA06DD97ED137ADFED51
:1049A0006C6AC7EE267A01E0DFED667AC7ED087A19
:1049B00097ED087AD7ED097A77EE277AC7ED077A6F
:1049C000BB6807EE903AB8EEE77AD7ED077AF0EEDB
:1049D000E77AF6EE006A67EEA67A77EE277AC7EDF9
:1049E000067ABB6807EE903AB8EEE77AD7ED077A19
:1049F000F0EEE77AF6EE006A67EEA67A77EE277AAF
:104A0000C7ED057AD7ED077AF5EEC07AF1EE10FA28
:104A100006DB002387F84B30012387F84A3005E096
:104A2000012387F84B30002387F84A30D7ED0B7A03
:104A3000B0EEE77A474BD3ED007AB4EEE77AF1EEC9
:104A400010FA22D8D7ED0C7AB0EEE77A424BD3EDCC
:104A5000007AB4EEE77AF1EE10FA16D800220121BE
:104A60000020FFF74DFC002201210120FFF748FC48
:104A7000BB6D002B01D17B6BBB657A6BBB6DD21A12
:104A8000364B1B689A4240D34AE00023BB6597ED42
:104A9000050A09F0ADFDF0EE407AFDEEE77A17EE7B
:104AA000903A7B6497ED060A09F0A2FDF0EE407A99
:104AB000FDEEE77A17EE903A3B647B6C002B01DA4F
:104AC00000237B647B6CB3F57A7F02DD4FF47A734D
:104AD0007B643B6C002B01DA00233B643B6CB3F539
:104AE0007A7F02DD4FF47A733B647B6C9AB297F85D
:104AF0004B3019460020FFF703FC3B6C9AB297F845
:104B00004A3019460120FFF7FBFB7A6BBB6BD31AC7
:104B10007A689A4203D3022002F03CFBB2E600BF5F
:104B2000FFF71EFA3C2002F035FB00BF6037BD46A0
:104B3000BDEC028B80BD00BF00007A446F12833A47
:104B40001C00002000000000180000202C000020A5
:104B500097FFB03F20000020240000202800002004
:104B600080B500AF00224FF400710B4803F050FAFB
:104B700000224FF40071094803F04AFA00224FF472
:104B80008071054803F044FA00224FF48071034815
:104B900003F03EFA00BF80BD000402400000024066
:104BA00080B588B000AF786007F10C0300221A606E
:104BB0005A609A60DA607B68FB6001233B610723DF
:104BC0007B6107F10C031946154802F0CBFC034644
:104BD000002B01D000231FE00520FDF777FE1048D1
:104BE00002F040FB0A210E4802F023FC0C4802F0C0
:104BF000ABFC0B4802F0EAFB094802F033FB0A2148
:104C0000074802F016FC064802F09EFC0346FB83B0
:104C1000034802F0DBFBFB8B18462037BD4680BD06
:104C20006402002080B588B000AFFFF799FF05202F
:104C3000FFF7B6FF0346BB830220FFF7B1FF034631
:104C4000FB830420FFF7ACFF03467B810320FFF7C3
:104C5000A7FF03463B8101224FF400716A4803F02D
:104C6000D7F901224FF48071684803F0D1F932205E
:104C7000FDF72CFE0520FFF793FF0346FB80022083
:104C8000FFF78EFF0346BB80FFF76AFF01224FF458
:104C900000715E4803F0BCF901224FF480715A485C
:104CA00003F0B6F95020FDF711FE0420FFF778FF5E
:104CB00003467B800320FFF773FF03463B80FFF72B
:104CC0004FFFFA88BB8B9A4204D9FA88BB8BD31A60
:104CD000BB6101E00023BB61BA88FB8B9A4204D917
:104CE000BA88FB8BD31A7B6101E000237B617A8851
:104CF0007B899A4204D97A887B89D31A3B6101E087
:104D000000233B613A883B899A4204D93A883B891F
:104D1000D31AFB6001E00023FB60BB694FF47A7299
:104D200002FB03F33A4AA2FB03239B09BB617B69A5
:104D30004FF47A7202FB03F3354AA2FB03239B096B
:104D40007B613B694FF47A7202FB03F3304AA2FBAA
:104D500003239B093B61FB684FF47A7202FB03F368
:104D60002B4AA2FB03239B09FB60BB699AB2294B28
:104D70001A817B699AB2274B5A803B699AB2254BBC
:104D8000DA80FB689AB2234B9A800020FFF708FF75
:104D900003461A461F4B1A801E4B1B89062B03D84D
:104DA0001C4B5B88062B01D9012300E0002303F094
:104DB0000103DAB2174B9A72164B1B89062B8CBF74
:104DC00001230023DAB2134B5A73124B5B88062B74
:104DD0008CBF01230023DAB20E4B9A730D4BDB8894
:104DE0000F2B8CBF01230023DAB20A4BDA72094B76
:104DF0009B88102B8CBF01230023DAB2054B1A735A
:104E000000BF2037BD4680BD0004024000000240C4
:104E1000D34D621080140020B0B58EB000AF4B4867
:104E2000FCF79EF94A4B5B6C03F48073002B03D0B4
:104E30004848FCF795F902E04748FCF791F9444BE4
:104E40001B6B03F00103002B03D04448FCF788F9E7
:104E500002E04348FCF784F9424B1B6C012B03D161
:104E60004148FCF77DF905E03E4B1B6C19463F4875
:104E7000FCF78CF93E48FCF773F93E4B07F1200430
:104E80001D460FCD0FC42B6823603B4B07F10C046C
:104E90001D460FCD0FC42B68236000237B634BE0BE
:104EA0007B6B9B0038333B4453F8183C1846FFF7A4
:104EB00077FE03461A467B6B5B0038333B4423F88E
:104EC000382C7B6B9B0038333B4453F82C1C7B6B9A
:104ED0009B0038333B4453F8183C002B1FD07B6BAE
:104EE0009B0038333B4453F8183C022B15D07B6BA6
:104EF0009B0038333B4453F8183C032B0BD07B6B9F
:104F00009B0038333B4453F8183C042B01D1042256
:104F100006E0052204E0032202E0022200E0002273
:104F20007B6B5B0038333B4433F8383C1348FCF769
:104F30002DF97B6B01337B637B6B042BB0DD104859
:104F4000FCF70EF900BF3837BD46B0BD840001083C
:104F500000380240A8000108C4000108E000010870
:104F6000FC0001086402002018010108300101085A
:104F70004801010878010108C4010108680101081D
:104F80006000010880B584B000AFF860B9607A6055
:104F9000FB680F2B02D8BB680F2B01D900230AE056
:104FA0007A68B968F868FDF707FC0346012B14BF5F
:104FB00001230023DBB218461037BD4680BD000038
:104FC00080B58AB000AFF860B9607A603B600023BA
:104FD0007B62FB683B62BB68FB613BE07A68F96916
:104FE000386AFFF7CFFF0346002B38D0204A7B6892
:104FF00052F823303A6A1344BB611E4A7B6852F868
:105000002330FA6913447B61BB69002B2ADBBB693F
:105010000F2B27DC7B69002B24DB7B690F2B21DC2A
:105020001549BB691A017B6913441B010B441A68BB
:1050300011483B6A1901FB690B441B0103441B68BF
:10504000013B9A420DD17B6A01337B62BB693B62B3
:105050007B69FB617A6A3B689A42BFDB02E000BF72
:1050600000E000BF7B6A18462837BD4680BD00BF00
:105070007C0301088C0301086C04002080B588B013
:1050800000AF78607B68002B73DD7B6840F6C4124C
:1050900002FB03F3BB617B6840F6C41202FB03F31F
:1050A0007B61364BDB7A002B03D1344B1B7B002B0F
:1050B00001D0012300E000233B613B69002B04D0B9
:1050C0007969B869FEF76CFF03E07969B869FFF7A1
:1050D00001F80023FB6147E0294B1B68FB60284B6C
:1050E0005B68BB60264B1A68254B9B68254951F8C5
:1050F00023301344224A1360214B5A68204B9B688B
:10510000214951F8233013441D4A53601C4B1B693D
:1051100001331B4A13611A4B9A680023B968F86877
:10512000FDF7FEFA164B1A68154B5B68174912011A
:1051300013441B010B44043301221A70104B1A68EC
:105140000F4B5B68114811011944090101440C31EE
:10515000096801310D48120113441B0103440C334B
:105160001960FB690133FB61FA697B689A42B3DB22
:1051700000E000BF2037BD4680BD00BF8014002086
:105180006C1400207C0301088C0301086C040020CF
:1051900080B582B000AF03463960FB71FB79072B05
:1051A0001FD801A252F823F0C9510008D1510008BC
:1051B000D7510008DD510008E3510008E351000811
:1051C000E3510008E35100083868FFF757FF09E092
:1051D000FEF7F2FD06E0FEF727FE03E0FEF75CFEB9
:1051E00000E000BF00BF0837BD4680BD80B588B075
:1051F00000AF4FF48063FB6170E0434B1A68424B91
:105200005B684249120113441B010B441B683B615C
:105210004FF0FF33BB6100237B613BE03A4B1A68E0
:105220003B497B6951F823301344FB60364B5A6885
:1052300038497B6951F823301344BB60FB68002B6D
:1052400022DBFB680F2B1FDCBB68002B1CDBBB6861
:105250000F2B19DC2C4B1B682B4A51687A691846B6
:10526000FDF7AAFA0346012B10D02849FB681A0162
:10527000BB6813441B010B441A683B69013B9A420B
:1052800005D17B69BB6108E000BF00E000BF7B691E
:1052900001337B617B69032BC0DDBB69002B04DA22
:1052A0001D48FBF75DFF00BF2AE0B869FDF796FED9
:1052B000154B1868144B5968134B9A684023FFF735
:1052C0007FFE78607B68002B04DC01210020FFF763
:1052D0005FFF03E079680020FFF75AFF0A4B1A6866
:1052E000094B5B680949120113441B010B441B68FD
:1052F000002B05DDFB695A1EFA61002B3FF77DAFDD
:1053000000BF2037BD4680BD6C1400206C04002017
:105310007C0301088C0301089402010880B483B067
:1053200000AF00237B60104B5B6C0F4A43F480435B
:1053300053640D4B5B6C03F480437B607B680023FC
:105340003B60094B1B6C084A43F080531364064BC7
:105350001B6C03F080533B603B6800BF0C37BD46BD
:105360005DF8047B704700BF0038024080B58AB00A
:1053700000AF786007F1140300221A605A609A6047
:10538000DA601A617B681B68174A934227D10023B1
:105390003B61164B5B6C154A43F480735364134BAB
:1053A0005B6C03F480733B613B690023FB600F4B34
:1053B0001B6B0E4A43F0010313630C4B1B6B03F092
:1053C0000103FB60FB683D237B610323BB6100237A
:1053D000FB6107F114031946054802F095FC00BF74
:1053E0002837BD4680BD00BF002001400038024084
:1053F0000000024080B58AB000AF786007F1140366
:1054000000221A605A609A60DA601A617B681B6831
:10541000194A93422CD100233B61184B1B6C174A4D
:1054200043F480431364154B1B6C03F480433B61CE
:105430003B690023FB60114B1B6B104A43F00203D6
:1054400013630E4B1B6B03F00203FB60FB684FF40E
:1054500060437B610223BB610023FB6103233B624A
:1054600005237B6207F114031946054802F04CFC42
:1054700000BF2837BD4680BD0038004000380240DC
:105480000004024080B584B000AF78607B681B6880
:10549000184A934216D10023FB60174B5B6C164AE7
:1054A00043F001035364144B5B6C03F00103FB6096
:1054B000FB6800220721192002F05DFB192002F091
:1054C00076FB12E07B681B680C4A93420DD10023E7
:1054D000BB60094B1B6C084A43F002031364064B84
:1054E0001B6C03F00203BB60BB6800BF1037BD46F6
:1054F00080BD00BF000001400038024000040040B1
:1055000080B58CB000AF786007F11C0300221A60F0
:105510005A609A60DA601A617B681B68B3F1804F49
:105520004BD10023BB613F4B1B6C3E4A43F0010350
:1055300013643C4B1B6C03F00103BB61BB6900238C
:105540007B61384B1B6B374A43F001031363354BC8
:105550001B6B03F001037B617B6900233B61314BD3
:105560001B6B304A43F0020313632E4B1B6B03F09B
:1055700002033B613B694FF40043FB6102233B6242
:1055800000237B620023BB620123FB6207F11C0343
:105590001946254802F0B8FB0823FB6102233B6251
:1055A00000237B620023BB620123FB6207F11C0323
:1055B00019461E4802F0A8FB30E07B681B681C4AB5
:1055C00093422BD10023FB60164B1B6C154A43F012
:1055D00004031364134B1B6C03F00403FB60FB68B0
:1055E0000023BB600F4B1B6B0E4A43F00203136397
:1055F0000C4B1B6B03F00203BB60BB68C023FB6159
:1056000002233B6200237B620023BB620223FB6216
:1056100007F11C031946054802F076FB00BF30373E
:10562000BD4680BD00380240000002400004024038
:105630000008004080B58AB000AF786007F114031D
:1056400000221A605A609A60DA601A617B681B68EF
:10565000334A93421FD100233B61324B1B6B314ACB
:1056600043F0010313632F4B1B6B03F001033B61FA
:105670003B694FF480637B610223BB610023FB61C4
:1056800000233B6201237B6207F11403194626487D
:1056900002F03AFB40E07B681B68244A93423BD10E
:1056A0000023FB601F4B1B6B1E4A43F00103136377
:1056B0001C4B1B6B03F00103FB60FB680023BB600A
:1056C000184B1B6B174A43F002031363154B1B6BFC
:1056D00003F00203BB60BB68C0237B610223BB6194
:1056E0000023FB6100233B6202237B6207F114036A
:1056F00019460D4802F008FB03237B610223BB61BE
:105700000023FB6100233B6202237B6207F1140349
:105710001946074802F0F8FA00BF2837BD4680BD99
:105720000000014000380240000002400004004038
:105730000004024080B58AB000AF786007F114031E
:1057400000221A605A609A60DA601A617B681B68EE
:105750001D4A934234D100233B611C4B5B6C1B4AB6
:1057600043F020035364194B5B6C03F020033B614F
:105770003B690023FB60154B1B6B144A43F001038C
:105780001363124B1B6B03F00103FB60FB684FF4C8
:10579000C0537B610223BB610023FB6103233B6297
:1057A00008237B6207F114031946094802F0ACFA9A
:1057B00000220621472002F0DEF9472002F0F7F927
:1057C00000BF2837BD4680BD0014014000380240AC
:1057D0000000024080B400AF00BFFDE780B400AF1E
:1057E00000BFFDE780B400AF00BFFDE780B400AFAD
:1057F00000BFFDE780B400AF00BFFDE780B400AF9D
:1058000000BFBD465DF8047B704780B400AF00BFA9
:10581000BD465DF8047B704780B400AF00BFBD4655
:105820005DF8047B704780B500AF01F093FC00BFCA
:1058300080BD80B500AF022002F01EFC00BF80BD1D
:1058400080B500AF024804F049F900BF80BD00BF39
:105850000403002080B500AF4FF4806002F00CFC20
:1058600000BF80BD80B500AF024805F065F800BFFD
:1058700080BD00BF2404002080B400AF012318467F
:10588000BD465DF8047B704780B582B000AF78609C
:10589000396006F0A9FD034616221A604FF0FF3367
:1058A00018460837BD4680BD80B582B000AF78602D
:1058B0004FF0FF317868FFF7E7FF00BFFDE780B5E5
:1058C00086B000AFF860B9607A6000237B610AE0BF
:1058D000AFF300800146BB685A1CBA60CAB21A70A6
:1058E0007B6901337B617A697B689A42F0DB7B6874
:1058F00018461837BD4680BD80B586B000AFF86049
:10590000B9607A6000237B6109E0BB685A1CBA6009
:105910001B781846AFF300807B6901337B617A699D
:105920007B689A42F1DB7B6818461837BD4680BD1C
:1059300080B483B000AF78604FF0FF3318460C3767
:10594000BD465DF8047B704780B483B000AF7860DB
:1059500039603B684FF400525A60002318460C37F8
:10596000BD465DF8047B704780B483B000AF7860BB
:10597000012318460C37BD465DF8047B704780B4A0
:1059800085B000AFF860B9607A600023184614371C
:10599000BD465DF8047B704780B586B000AF786087
:1059A000144A154BD31A7B617B693B61134B1B680F
:1059B000002B02D1114B124A1A60104B1A687B68F7
:1059C00013443A699A4207D206F00EFD03460C22B0
:1059D0001A604FF0FF3309E0084B1B68FB60074B70
:1059E0001A687B681344054A1360FB681846183729
:1059F000BD4680BD00000220000400009821002068
:105A00003023002080B400AF064BD3F88830054A1D
:105A100043F47003C2F8883000BFBD465DF8047BD4
:105A2000704700BF00ED00E080B582B000AF0346D4
:105A30000A46FB711346BB71FB79002B14BF01238F
:105A40000023DBB21A461021084802F0E1FABB79C4
:105A5000002B14BF01230023DBB21A462021034888
:105A600002F0D6FA00BF0837BD4680BD00040240F0
:105A700080B582B000AF00237B6010E000210120E0
:105A8000FFF7D2FF962001F085FB01210020FFF7F0
:105A9000CBFF962001F07EFB7B6801337B607B6847
:105AA000022BEBDD00210020FFF7BEFF00BF08370F
:105AB000BD4680BD80B500AF00210120FFF7B4FFD7
:105AC00000BF80BD80B500AF01210020FFF7ACFF13
:105AD00000BF80BD80B582B000AF00237B6010E0C6
