:020000040800F2
:10000000000002200D670008255100082D5100084E
:10001000355100083D51000845510008000000001E
:100020000000000000000000000000004D5100082A
:100030005B5100080000000069510008775100087A
:100040005D6700085D6700085D6700085D67000880
:100050005D6700085D6700085D6700088351000860
:100060005D6700085D6700085D6700085D67000860
:100070005D6700085D6700085D6700085D67000850
:100080005D6700085D6700085D670008000000000C
:100090000000000000000000000000005D67000894
:1000A0005D670008915100085D6700085D67000802
:1000B0005D6700085D6700085D6700085D67000810
:1000C0005D6700085D6700085D6700085D67000800
:1000D0005D6700085D6700085D67000800000000BC
:1000E000A55100085D6700085D670008000000007A
:1000F0000000000000000000000000005D67000834
:10010000000000005D6700085D6700085D6700088B
:1001100000000000000000000000000000000000DF
:100120005D6700085D6700085D6700085D6700089F
:100130005D670008000000000000000000000000F3
:100140000000000000000000000000005D670008E3
:100150005D6700085D6700085D670008B55100082D
:100160005D6700085D6700080000000000000000F7
:10017000000000000000000000000000000000007F
:10018000000000005D6700080000000000000000A3
:080190005D6700085D670008CF
:1001A00010B5054C237833B9044B13B10448AFF3B1
:1001B00000800123237010BD3402002000000000E5
:1001C000E8DC000808B5034B1BB103490348AFF353
:1001D000008008BD0000000038020020E8DC0008B4
:1001E00001F0FF01102A2BDB10F0070F08D010F8E8
:1001F000013B013A8B422DD010F0070F42B3F6D1EC
:10020000F0B441EA012141EA014122F007047FF004
:1002100000070023F0E80256083C85EA010586EA5B
:10022000010685FA47F5A3FA87F586FA47F6A5FA97
:1002300087F68EB9EED1F0BC01F0FF0102F00702A3
:1002400032B110F8013B013A83EA010313B1F8D14E
:100250000020704701387047002D06BF354603382F
:10026000073815F0010F07D1013015F4807F02BF68
:10027000013015F4C03F0130F0BC0138704700BFB9
:10028000034613F8012B002AFBD1181A01387047D6
:1002900081F0004102E000BF83F0004330B54FEA37
:1002A00041044FEA430594EA050F08BF90EA020FA4
:1002B0001FBF54EA000C55EA020C7FEA645C7FEA37
:1002C000655C00F0E2804FEA5454D4EB5555B8BF5A
:1002D0006D420CDD2C4480EA020281EA030382EACB
:1002E000000083EA010180EA020281EA0303362D5D
:1002F00088BF30BD11F0004F4FEA01314FF4801C30
:100300004CEA113102D0404261EB410113F0004F41
:100310004FEA03334CEA133302D0524263EB4303F8
:1003200094EA050F00F0A780A4F10104D5F1200E96
:100330000DDB02FA0EFC22FA05F2801841F10001F1
:1003400003FA0EF2801843FA05F359410EE0A5F1C5
:1003500020050EF1200E012A03FA0EFC28BF4CF0F6
:10036000020C43FA05F3C01851EBE37101F00045AC
:1003700007D54FF0000EDCF1000C7EEB00006EEBB9
:100380000101B1F5801F1BD3B1F5001F0CD3490843
:100390005FEA30004FEA3C0C04F101044FEA44529A
:1003A00012F5800F80F09A80BCF1004F08BF5FEA21
:1003B000500C50F1000041EB045141EA050130BD01
:1003C0005FEA4C0C404141EB0101013C28BFB1F513
:1003D000801FE9D291F0000F04BF01460020B1FA5E
:1003E00081F308BF2033A3F10B03B3F120020CDA31
:1003F0000C3208DD02F1140CC2F10C0201FA0CF00F
:1004000021FA02F10CE002F11402D8BFC2F1200C73
:1004100001FA02F120FA0CFCDCBF41EA0C01904029
:10042000E41AA2BF01EB0451294330BD6FEA040472
:100430001F3C1CDA0C340EDC04F11404C4F120025D
:1004400020FA04F001FA02F340EA030021FA04F36F
:1004500045EA030130BDC4F10C04C4F1200220FAC6
:1004600002F001FA04F340EA0300294630BD21FA04
:1004700004F0294630BD94F0000F83F4801306BFCA
:1004800081F480110134013D4EE77FEA645C18BFBE
:100490007FEA655C29D094EA050F08BF90EA020F55
:1004A00005D054EA000C04BF1946104630BD91EA4D
:1004B000030F1EBF0021002030BD5FEA545C05D150
:1004C0004000494128BF41F0004130BD14F580048F
:1004D0003CBF01F5801130BD01F0004545F0FE4103
:1004E00041F470014FF0000030BD7FEA645C1ABF38
:1004F000194610467FEA655C1CBF0B46024650EA6F
:10050000013406BF52EA033591EA030F41F400219A
:1005100030BD00BF90F0000F04BF0021704730B520
:100520004FF4806404F132044FF000054FF00001F5
:1005300050E700BF90F0000F04BF0021704730B5B6
:100540004FF4806404F1320410F0004548BF40428B
:100550004FF000013EE700BF42004FEAE2014FEAE0
:1005600031014FEA02701FBF12F07F4393F07F4FBB
:1005700081F06051704732F07F4208BF704793F0BE
:100580007F4F04BF41F40021704730B54FF46074D1
:1005900001F0004521F000411CE700BF50EA0102D4
:1005A00008BF704730B54FF000050AE050EA01027D
:1005B00008BF704730B511F0004502D5404261EBED
:1005C00041014FF4806404F132045FEA915C3FF42E
:1005D000D8AE4FF003025FEADC0C18BF03325FEACB
:1005E000DC0C18BF033202EBDC02C2F1200300FA7C
:1005F00003FC20FA02F001FA03FE40EA0E0021FAA1
:1006000002F11444BDE600BF70B54FF0FF0C4CF48E
:10061000E06C1CEA11541DBF1CEA135594EA0C0F40
:1006200095EA0C0F00F0DEF82C4481EA030621EA7B
:100630004C5123EA4C5350EA013518BF52EA0335B6
:1006400041F4801143F4801338D0A0FB02CE4FF068
:100650000005E1FB02E506F00042E0FB03E54FF098
:100660000006E1FB03569CF0000F18BF4EF0010E90
:10067000A4F1FF04B6F5007F64F5407404D25FEA8C
:100680004E0E6D4146EB060642EAC62141EA55513F
:100690004FEAC52040EA5E504FEACE2EB4F1FD0C81
:1006A00088BFBCF5E06F1ED8BEF1004F08BF5FEAFF
:1006B000500E50F1000041EB045170BD06F00046B1
:1006C00046EA010140EA020081EA0301B4EB5C045E
:1006D000C2BFD4EB0C0541EA045170BD41F4801156
:1006E0004FF0000E013C00F3AB8014F1360FDEBF7B
:1006F000002001F0004170BDC4F10004203C35DA57
:100700000C341BDC04F11404C4F1200500FA05F3D9
:1007100020FA04F001FA05F240EA020001F000427A
:1007200021F0004110EBD37021FA04F642EB0601F0
:100730005EEA430E08BF20EAD37070BDC4F10C041A
:10074000C4F1200500FA04F320FA05F001FA04F2DE
:1007500040EA020001F0004110EBD37041F10001CA
:100760005EEA430E08BF20EAD37070BDC4F12005D5
:1007700000FA05F24EEA020E20FA04F301FA05F23D
:1007800043EA020321FA04F001F0004121FA04F2E5
:1007900020EA020000EBD3705EEA430E08BF20EAB5
:1007A000D37070BD94F0000F0FD101F000464000EF
:1007B00041EB010111F4801F08BF013CF7D041EA71
:1007C000060195F0000F18BF704703F00046520075
:1007D00043EB030313F4801F08BF013DF7D043EA46
:1007E0000603704794EA0C0F0CEA135518BF95EAFC
:1007F0000C0F0CD050EA410618BF52EA4306D1D183
:1008000081EA030101F000414FF0000070BD50EAA1
:10081000410606BF1046194652EA430619D094EA2B
:100820000C0F02D150EA013613D195EA0C0F05D115
:1008300052EA03361CBF104619460AD181EA030169
:1008400001F0004141F0FE4141F470014FF0000021
:1008500070BD41F0FE4141F4780170BD70B54FF0BC
:10086000FF0C4CF4E06C1CEA11541DBF1CEA13553C
:1008700094EA0C0F95EA0C0F00F0A7F8A4EB05041E
:1008800081EA030E52EA03354FEA013100F0888015
:100890004FEA03334FF0805545EA131343EA1263DE
:1008A0004FEA022245EA111545EA10654FEA002693
:1008B0000EF000419D4208BF964244F1FD0404F54C
:1008C000407402D25B084FEA3202B61A65EB0305A8
:1008D0005B084FEA32024FF480104FF4002CB6EB65
:1008E000020E75EB030E22BFB61A754640EA0C00E5
:1008F0005B084FEA3202B6EB020E75EB030E22BF25
:10090000B61A754640EA5C005B084FEA3202B6EB65
:10091000020E75EB030E22BFB61A754640EA9C0024
:100920005B084FEA3202B6EB020E75EB030E22BFF4
:10093000B61A754640EADC0055EA060E18D04FEAB2
:10094000051545EA16754FEA06164FEAC30343EA52
:1009500052734FEAC2025FEA1C1CC0D111F4801F1F
:100960000BD141EA00014FF000004FF0004CB6E718
:1009700011F4801F04BF01430020B4F1FD0C88BFB7
:10098000BCF5E06F3FF6AFAEB5EB030C04BFB6EBC2
:10099000020C5FEA500C50F1000041EB045170BDB5
:1009A0000EF0004E4EEA113114EB5C04C2BFD4EBE2
:1009B0000C0541EA045170BD41F480114FF0000E66
:1009C000013C90E645EA060E8DE60CEA135594EAE2
:1009D0000C0F08BF95EA0C0F3FF43BAF94EA0C0FE5
:1009E0000AD150EA01347FF434AF95EA0C0F7FF45A
:1009F00025AF104619462CE795EA0C0F06D152EAAE
:100A000003353FF4FDAE1046194622E750EA410691
:100A100018BF52EA43067FF4C5AE50EA41047FF4A2
:100A20000DAF52EA43057FF4EBAE12E74FF0FF3C07
:100A300006E000BF4FF0010C02E000BF4FF0010CD8
:100A40004DF804CD4FEA410C7FEA6C5C4FEA430C51
:100A500018BF7FEA6C5C1BD001B050EA410C0CBFA0
:100A600052EA430C91EA030F02BF90EA020F002002
:100A7000704710F1000F91EA030F58BF994208BF69
:100A800090422CBFD8176FEAE37040F00100704726
:100A90004FEA410C7FEA6C5C02D150EA013C07D17D
:100AA0004FEA430C7FEA6C5CD6D152EA033CD3D0C8
:100AB0005DF8040B704700BF8446104662468C46C2
:100AC0001946634600E000BF01B5FFF7B7FF0028F5
:100AD00048BF10F1000F01BD4DF808EDFFF7F4FF1E
:100AE0000CBF012000205DF808FB00BF4DF808EDA9
:100AF000FFF7EAFF34BF012000205DF808FB00BFCC
:100B00004DF808EDFFF7E0FF94BF012000205DF8ED
:100B100008FB00BF4DF808EDFFF7CEFF94BF0120A2
:100B200000205DF808FB00BF4DF808EDFFF7C4FF9B
:100B300034BF012000205DF808FB00BF4FEA410CE4
:100B40007FEA6C5C02D150EA013C0AD14FEA430CC7
:100B50007FEA6C5C02D152EA033C02D14FF0000004
:100B600070474FF0010070474FEA410212F5001242
:100B700015D211D56FF47873B3EB625212D94FEAE4
:100B8000C12343F0004343EA505311F0004F23FACE
:100B900002F018BF404270474FF00000704750EA23
:100BA000013005D111F0004008BF6FF000407047E0
:100BB0004FF00000704700BF4FEA4102B2F1E0433E
:100BC00024BFB3F5001CDCF1FE5C0DD901F0004C34
:100BD0004FEAC0024CEA5070B2F1004F40EB830084
:100BE00008BF20F00100704711F0804F21D113F1B0
:100BF0003872BCBF01F00040704741F480114FEAE9
:100C00005252C2F11802C2F1200C10FA0CF320FA71
:100C100002F018BF40F001004FEAC1234FEAD3238E
:100C200003FA0CFC40EA0C0023FA02F34FEA4303F8
:100C3000CCE77FEA625307D150EA01331EBF4FF081
:100C4000FE4040F44000704701F0004040F0FE409C
:100C500040F40000704700BF53B94AB9002908BFEB
:100C600000281CBF4FF0FF314FF0FF3000F088B973
:100C7000ADF1080C6DE904CE00F006F8DDF804E0F3
:100C8000DDE9022304B070472DE9F047089D8E4648
:100C900004468846002B4AD18A42174662D9B2FAE6
:100CA00082F64EB1C6F1200301FA06F820FA03F3EA
:100CB000B74043EA0808B4404FEA174E1FFA87FCD2
:100CC000B8FBFEF1230C0EFB118843EA084301FB3D
:100CD0000CF29A4209D9FB1801F1FF3080F0EA804A
:100CE0009A4240F2E78002393B449A1AA3B2B2FB1F
:100CF000FEF00EFB102243EA024300FB0CFC9C4575
:100D000009D9FB1800F1FF3280F0D6809C4540F2F3
:100D1000D3803B44023840EA0140A3EB0C0300219E
:100D20001DB1F3400022C5E90032BDE8F0878B42D7
:100D300005D90DB1C5E9000100210846F5E7B3FA70
:100D400083F1002946D1734502D3824200F2058126
:100D5000841A6EEB030201209046002DE5D0C5E910
:100D60000048E2E7002A00F09080B2FA82F6002EF6
:100D700040F0A4808A1A030C4FEA174E80B2BCB22E
:100D80000121B2FBFEFC0EFB1C2243EA024304FBE2
:100D90000CF29A4207D9FB180CF1FF3802D29A42A2
:100DA00000F2E080C4469B1AB3FBFEF20EFB123346
:100DB00040EA034302FB04F49C4207D9FB1802F10A
:100DC000FF3002D29C4200F2CA8002461B1B42EA5C
:100DD0000C40A5E7C1F120068B4022FA06F71F431D
:100DE0000EFA01F420FA06F32EFA06FE4FEA17492E
:100DF000234300FA01F81FFA87FCBEFBF9F01C0C34
:100E000009FB10EE44EA0E4400FB0CFEA64502FA74
:100E100001F209D93C1900F1FF3A80F09C80A64507
:100E200040F2998002383C44A4EB0E041FFA83FE82
:100E3000B4FBF9F309FB13444EEA044403FB0CFC36
:100E4000A44508D93C1903F1FF3E80F08280A445F7
:100E50007FD9023B3C4443EA0040A4EB0C04A0FBD6
:100E600002EC64457346E14662D35FD05DB1B8EBF6
:100E7000030264EB090404FA06F622FA01F31E43A6
:100E8000CC40C5E9006400214FE7B1FBF2FC010C46
:100E900041EA0E4180B240EA01423B4638463C46B8
:100EA000B846BE462026B1FBF7F1A2EB080241EAA4
:100EB0000C4166E7014618E710462CE7C6F1200210
:100EC0002EFA02F3B740B14020FA02F24FEA174E71
:100ED0000A43B3FBFEF8BCB20EFB1833110C41EA17
:100EE000034108FB04F9B04089454FEA104380B242
:100EF0003ED9791808F1FF3C01D289451FD8A1EBF2
:100F00000901B1FBFEF909FB04F80EFB191192B2BD
:100F100042EA0142424529D2BA1809F1FF31C4D24E
:100F20004245C2D2A9F102013A44BEE7F0459DD242
:100F3000BEEB02036CEB070C0138E14696E7A7EB2A
:100F400009094944A8F1020CB1FBFEF909FB04F8B8
:100F5000DBE773467FE7504666E70846FDE63B441D
:100F6000023A33E7ACF1020C3B441CE749469CE7EC
:100F7000A1EB0901C446B1FBFEF909FB04F8C4E783
:100F8000704700BF80B584B000AF03460A46FB80BF
:100F90001346BB80FB88002B06D100F037F8BB88D6
:100FA000184605F04FFC2AE0FB88164A92FBF3F343
:100FB000FB60FB68B3F5803F02D34FF6FF73FB6025
:100FC000FB68132B01D81423FB600F4B1B68FA68D6
:100FD000013ADA62FB68013B0B4AD3600A4B1B689B
:100FE000FA685208DA630821074807F087FEBB88D1
:100FF000184605F027FC0821034807F02FFF10379B
:10100000BD4680BD00093D000003002080B500AF53
:101010000821024807F022FF00BF80BD0003002026
:1010200080B500AFC82140F20B20FFF7ABFF3221A3
:101030000020FFF7A7FFC82140F29320FFF7A2FF8F
:1010400032210020FFF79EFF4FF496714FF4447059
:10105000FFF798FF00BF80BD80B500AF96214FF429
:101060004470FFF78FFF32210020FFF78BFFC8216C
:1010700040F21740FFF786FF00BF80BD80B500AF8C
:10108000642140F20B20FFF77DFF642140F29320A2
:10109000FFF778FF64214FF44470FFF773FFC82116
:1010A00040F21740FFF76EFF64210020FFF76AFF50
:1010B000642140F21740FFF765FF64214FF444704C
:1010C000FFF760FF4FF4967140F21740FFF75AFFA9
:1010D00000BF80BD80B582B000AF00237B600AE016
:1010E000C821DC20FFF74EFF64210020FFF74AFFF4
:1010F0007B6801337B607B68022BF1DD00BF00BFA2
:101100000837BD4680BD80B500AF32214FF47A70FC
:10111000FFF738FF00BF80BD80B500AF1E214FF440
:101120004870FFF72FFF00BF80BD80B582B000AFD1
:1011300000237B600BE064214FF4DC70FFF722FF9B
:1011400064210020FFF71EFF7B6801337B607B6812
:10115000042BF0DD00BF00BF0837BD4680BD000096
:1011600080B582B000AF78607868FFF789F80346F1
:101170009AB24FF47A737968034808F0A9FE00BF69
:101180000837BD4680BD00BF200400200FB480B5E5
:10119000C2B000AF07F58A7207F58473A3F58273B6
:1011A0001A6007F58473A3F5827307F108001B68C2
:1011B000D7F810214FF480710AF0FEFB07F1080305
:1011C0001846FFF7CDFF00BF07F58477BD46BDE8A1
:1011D000804004B07047000080B594B000AF48482C
:1011E000FFF7BEFF0B23FB6461E03B46402200217A
:1011F00018460AF0EFFB0023BB6441E04149BA6C9A
:1012000013465B0013449B00FA6C13441B010B4410
:1012100004331B78002B23D03A49BA6C13465B0089
:1012200013449B00FA6C13441B010B441B6842F2ED
:101230000E7293420BDC3349BA6C13465B001344C5
:101240009B00FA6C13441B010B441B6801E040F245
:10125000E73307F140001A462B490AF019FB05E075
:1012600007F14003294918460AF012FB07F1400232
:101270003B46114618460AF0B5FBBB6C0133BB6414
:10128000BB6C0B2BBADD3B461846FEF7F9FF034655
:101290001A463B4613441E4A1188927819809A7068
:1012A0003B461846FFF75CFFFB6C013BFB64FB6CA5
:1012B000002B9ADA174B1968164B5A68154B9B6826
:1012C0001548FFF763FF134B1B7B002B01D0134B1B
:1012D00000E0134B19461348FFF758FF0D4B5B7B9B
:1012E000002B01D00D4B00E00D4B19460E48FFF7C7
:1012F0004DFF0E48FFF734FF00BF5037BD4680BD9D
:1013000000DD00086804002018DD000820DD00086A
:1013100028DD0008680D00202CDD000854DD0008E1
:1013200058DD00085CDD000874DD00088CDD000875
:10133000F0B587B006AF134B1B881D46114B1B89B8
:101340001E46104B5B889C460E4BDB881A460D4BA5
:101350009B8819460B4B9B7A18460A4BDB7A1C4636
:10136000084B1B7B04930394029001910092634607
:10137000324629460448FFF709FF00BF0437BD463F
:10138000F0BD00BF7C0D0020A4DD000880B584B056
:1013900002AF0F4B1B685B6AA3F500437B600D4BEC
:1013A0001B685B6AA3F500433B600B4B19680A4B53
:1013B0005A68094B98683B6801937B680093034621
:1013C0000648FFF7E3FE00BF0837BD4680BD00BFFB
:1013D00048030020D8030020680D0020E8DD000845
:1013E00080B582B000AF02F057FA87ED010A02F033
:1013F000A3FA38602448FFF7B3FE244B1B69194653
:101400002348FFF7C3FE7868FFF7A6F802460B46AD
:101410002048FFF7BBFE39681F48FFF7B7FED7ED3E
:10142000017A9FED1E7AF4EEC77AF1EE10FA06D833
:101430003B68002B03DD1A48FFF792FE1CE0D7ED56
:10144000017A9FED187AF4EEC77AF1EE10FA03D81C
:101450001548FFF785FE0FE0D7ED017A9FED137A6F
:10146000F4EEC77AF1EE10FA03D81148FFF778FED0
:1014700002E01048FFF774FE0F48FFF771FE00BF4F
:101480000837BD4680BD00BF18DE0008680D00208B
:1014900038DE000850DE000874DE00080000484214
:1014A00098DE000800008242B8DE00080000A0427A
:1014B000E4DE00080CDF000830DF000880B584B0EF
:1014C00002AF164B1B8807EE903AF8EEE77A9FEDD5
:1014D000147A27EE877ADFED136AC7EE267AC7ED16
:1014E000017A7868FFF738F802460B460B490988FD
:1014F00000910D48FFF74AFE084B1B8840F6B732B3
:10150000934203D80948FFF72BFE02E00848FFF793
:1015100027FE00BF0837BD4680BD00BF7C0D002000
:10152000333353400000804550DF000868DF000877
:1015300084DF000880B584B000AF0346FB71FB79FF
:1015400063F07F03DBB27B7300233B7300224FF415
:101550008051174806F0B4F807F10D016423012209
:10156000144806F0DAFD0346FB7307F10C0164230F
:101570000122104806F015FF0346BB7301224FF409
:1015800080510B4806F09CF8FB7B002B02D1BB7B03
:10159000002B07D00848FFF7E3FD084B00221A7024
:1015A000FF2300E03B7B18461037BD4680BD00BFDF
:1015B00000040240A8020020A4E00008500200201D
:1015C00080B584B000AF03460A46FB711346BB7179
:1015D000FB793B73BB797B7300224FF48051114838
:1015E00006F06EF807F10C01642302220E4806F0A3
:1015F00094FD0346FB7301224FF48051094806F025
:101600005FF8FB7B002B05D00848FFF7A9FD084BCE
:1016100000221A70012005F015F900BF1037BD46F1
:1016200080BD00BF00040240A8020020C8E00008FE
:101630005002002080B582B000AF3C48FFF790FD1B
:10164000C82005F0FFF880216B20FFF7B9FFFA20D2
:1016500005F0F8F800216B20FFF7B2FF322005F00B
:10166000F1F801216B20FFF7ABFF322005F0EAF81B
:1016700000216C20FFF7A4FF0A2005F0E3F86A20A0
:10168000FFF758FF0346FB71FB7943F01003FB7132
:10169000FB7919466A20FFF793FF0A2005F0D2F87C
:1016A00004211920FFF78CFF0A2005F0CBF8022156
:1016B0001A20FFF785FF0A2005F0C4F808211B2037
:1016C000FFF77EFF0A2005F0BDF808211C20FFF778
:1016D00077FF0A2005F0B6F802211D20FFF770FF02
:1016E0000A2005F0AFF87520FFF724FF0346BB7111
:1016F000BB7919460E48FFF749FDBB79702B09D01D
:10170000BB7919460B48FFF741FD0B4B00221A70BD
:10171000002306E00948FFF723FD074B01221A705A
:10172000012318460837BD4680BD00BFF0E0000821
:101730001CE1000830E100085002002058E10008D8
:1017400080B582B000AF274B1B7883F00103DBB27A
:10175000002B03D02448FFF703FD3FE02348FFF7A9
:10176000FFFC234B64229A604FF000037B60002350
:101770003B6014E000F07CF81E4BB3F9043007EE38
:10178000903AF8EEE77A97ED017A77EE277AC7ED8F
:10179000017A032005F056F83B6801333B60144B97
:1017A0009A683B689A42E5D8114B9B6807EE903ADD
:1017B000B8EE677AD7ED016AC6EE877A0C4BC3EDB7
:1017C000007A0B4B01221A71094B1B681846FEF771
:1017D000C3FE02460B460848FFF7D8FC0837BD4653
:1017E00080BD00BF500200206CE1000898E10008B5
:1017F000540200208C0D0020CCE1000880B582B09E
:1018000000AF124B1B7983F00103DBB2002B04D035
:1018100000F002F9F0EE407A13E00D4BB3F904301A
:1018200007EE903AB8EEE77A084BD3ED007A37EE40
:10183000677ADFED086AC7EE267AC7ED017AD7ED41
:10184000017AB0EE670A0837BD4680BD5402002019
:101850008C0D00200000834280B400AF034B1B7846
:101860001846BD465DF8047B704700BF500200205B
:1018700080B584B000AF254B1B7883F00103DBB249
:10188000002B03D02248FFF76BFC3CE0C323FB7125
:1018900000224FF480511F4805F012FFF91D642308
:1018A00001221D4806F039FC0346FB73FB7B002B2D
:1018B00009D001224FF48051164805F001FF174866
:1018C000FFF74EFC1FE007F10801642306221248CF
:1018D00006F067FD0346FB7301224FF480510D486B
:1018E00005F0EEFEFB7B002B03D00D48FFF738FC24
:1018F00009E03B7B1BB21B021AB27B7B1BB213437A
:101900001AB2084B9A801037BD4680BD50020020A5
:10191000ECE1000800040240A802002020E20008D8
:1019200044E200088C0D002080B584B000AF2F4B3E
:101930001B7883F00103DBB2002B03D02C48FFF7A8
:101940000FFC50E0BB23FB7100224FF4805129486B
:1019500005F0B6FEF91D64230122274806F0DDFBE1
:101960000346FB73FB7B002B09D001224FF480510F
:10197000204805F0A5FE2148FFF7F2FB33E007F110
:101980000801642306221C4806F00BFD0346FB7386
:1019900001224FF48051174805F092FEFB7B002B8B
:1019A00003D01748FFF7DCFB1DE03B7A1BB21B029C
:1019B0001AB27B7A1BB213431AB2124BDA80BB7A8B
:1019C0001BB21B021AB2FB7A1BB213431AB20D4BA5
:1019D0001A813B7B1BB21B021AB27B7B1BB21343E7
:1019E0001AB2084B5A811037BD4680BD5002002004
:1019F00068E2000800040240A8020020A0E20008FB
:101A0000C4E200088C0D002080B500AFFFF78CFF0A
:101A1000FFF72EFF00BF80BD80B400AF094BB3F9C4
:101A2000043007EE903AF8EEE77A9FED077AC7EEBA
:101A3000876AF0EE667AB0EE670ABD465DF8047B11
:101A4000704700BF8C0D00200000834280B582B03B
:101A500000AF284B1B78002B01D0274B00E0274B11
:101A600019462748FFF792FB224B1B78002B3CD0EE
:101A70007520FFF75FFD0346FB716A20FFF75AFDF3
:101A80000346BB716B20FFF755FD03467B71F97967
:101A9000BA797B791B48FFF779FBBB7903F0100318
:101AA000002B03D01848FFF75BFB02E01748FFF755
:101AB00057FBFFF7A9FF164BB3F906301946144B35
:101AC000B3F908301A46124BB3F90A301148FFF740
:101AD0005DFBFFF7A1FF10EE103A1846FEF73CFD44
:101AE00002460B460C48FFF751FB00BF0837BD46C6
:101AF00080BD00BF50020020E8E20008ECE20008D0
:101B0000F4E2000810E3000844E3000858E300088A
:101B10008C0D00206CE3000884E3000880B500AF62
:101B20002848FFF71DFB0021274807F0E7F80421AC
:101B3000254807F0E3F80821234807F0DFF80C21D7
:101B4000214807F0DBF801224FF400511F4805F04F
:101B5000B7FD00F095FD02F0D3FFFFF76BFD0346E4
:101B6000002B0FD01A48FFF7FBFA1A48FFF7F8FAD4
:101B70004FF4FA6004F066FEFFF7E2FD1648FFF747
:101B8000EFFA02E01548FFF7EBFA01F05DFF642081
:101B900004F058FE01F01EFF0346002B08D101F0AF
:101BA00023FF0346002B03D10D48FFF7D9FA02E0CB
:101BB0000C48FFF7D5FA00F0B1FE0B48FFF7D0FA5A
:101BC00000BF80BD98E30008900300200008024099
:101BD000CCE3000800E4000838E4000858E40008FA
:101BE00094E40008CCE40008F8E4000880B500AFF5
:101BF0002148FFF7B5FA02F089FE204B1B88002B25
:101C000013D11E4B1B89002B0FD11C4B5B88002B63
:101C10000BD11A4BDB88002B07D1184B9B88002B6C
:101C200003D11748FFF79CFA04E01648FFF798FA2B
:101C3000FFF77EFBFFF742FCFFF70EFE0346002B8B
:101C400001D0FFF703FF02F013FA03F055FC03463F
:101C5000002B06D00C48FFF783FA0C4B01221A70B8
:101C600005E00B48FFF77CFA084B01221A7009487F
:101C7000FFF776FA00BF80BD24E500087C0D002048
:101C800048E5000888E50008ACE50008B20D002032
:101C9000D0E500080CE6000880B582B000AF04F083
:101CA000C5FD78601C4B1B687A68D31A42F210722B
:101CB000934216D9194B1B7883F00103DBB2002B3A
:101CC0000FD0FFF7FBFB164B1B78002B03D01548FA
:101CD000FFF746FA02E01448FFF742FA0E4A7B6823
:101CE0001360124B1B687A68D31AB3F5FA6F0FD9D9
:101CF0000B4B1B78002B04D010210D4805F0F9FC8C
:101D000003E020210A4805F0F4FC084A7B681360D0
:101D100000BF0837BD4680BDB40D0020B30D0020C4
:101D2000B20D00202CE600086CE60008B80D00207B
:101D30000004024080B500AF04F012FD00F0C4F8CA
:101D400000F0BCFB00F028F900F078F900F0ACF9E5
:101D500000F04AFA00F034FB00F086FB00F098FA3D
:101D600006F01EF90346184600F0B2FDFFF7D6FE56
:101D7000FFF73CFFFFF754F903F022FB4448FFF75D
:101D8000EFF94448FFF7ECF94348FFF7E9F9434816
:101D9000FFF7E6F904F04AFD0346414A136004F0F8
:101DA00045FD03463F4A13603F4B1B78DBB2012BD6
:101DB00033D13D4B00221A703C4B1B7883F001035A
:101DC000DBB2002B12D03A4B1B78002B0ED03948D7
:101DD000FFF7C6F9FFF740F94FF47A7004F032FDCF
:101DE000324B01221A7001F0B1FC16E001F044FD03
:101DF0000346002B05D03048FFF7B2F9FFF7F0FAA1
:101E00000BE02B4B1B7883F00103DBB2002B04D0DB
:101E10002A48FFF7A5F9FFF75DF9234B1B78DBB2E2
:101E2000022B28D1204B00221A70204B1B78002B4C
:101E300012D001F021FD034683F00103DBB2002B39
:101E40000AD01F48FFF78CF901F0E2FEFFF742F9D4
:101E5000164B00221A700EE01A48FFF781F9FFF7BF
:101E6000BBF9FFF765FAFFF791FA104B1B78002BCF
:101E700001D0FFF7B5FAFFF70FFF0C4B1B78002BD3
:101E800001D001F0F9FC322004F0DCFC8CE700BF4B
:101E900098E60008C0E60008E4E600080CE7000841
:101EA000B40D0020B80D0020B00D0020B30D0020AF
:101EB000B20D002028E7000854E7000890E700086A
:101EC000C0E70008D8E7000880B594B000AF07F17C
:101ED000200330220021184609F07CFD07F10C0395
:101EE00000221A605A609A60DA601A610023BB60AF
:101EF000274B1B6C264A43F080531364244B1B6C06
:101F000003F08053BB60BB6800237B60214B1B68E0
:101F1000204A43F4404313601E4B1B6803F44043C4
:101F20007B607B6802233B620123FB6210233B63DF
:101F30000223BB630023FB6310233B64A8237B6461
:101F40000223BB640423FB6407F12003184605F059
:101F500003FC0346002B01D000F0CEFB0F23FB60F7
:101F600002233B6100237B614FF48053BB6100235C
:101F7000FB6107F10C030221184605F065FE0346DC
:101F8000002B01D000F0B8FB00BF5037BD4680BD2C
:101F9000003802400070004080B584B000AF3B467E
:101FA00000221A605A609A60DA60214B214A1A6056
:101FB0001F4B4FF480325A601D4B00229A601C4B1D
:101FC00000221A611A4B00221A76194B002283F85C
:101FD0002020174B0022DA62154B174A9A62144BE5
:101FE0000022DA60124B0122DA61114B002283F8E1
:101FF00030200F4B01225A610D4804F047FC034684
:10200000002B01D000F078FB00233B6001237B60B4
:102010000423BB603B461946054804F0FBFD03461C
:10202000002B01D000F068FB00BF1037BD4680BD1B
:1020300060020020002001400100000F80B500AFC9
:10204000174B184A1A60164B4FF482725A60144BA1
:1020500000229A60124B0022DA60114B00221A61B2
:102060000F4B00225A610E4B4FF400729A610C4BD9
:102070003022DA610A4B00221A62094B00225A62AE
:10208000074B00229A62064B0A22DA62044805F0E6
:10209000BBFF0346002B01D000F02EFB00BF80BD2C
:1020A000A80200200038004080B596B000AF07F1CC
:1020B000480300221A605A609A60DA6007F1400310
:1020C00000221A605A6007F1240300221A605A6045
:1020D0009A60DA601A615A619A613B1D20220021E0
:1020E000184609F077FC3E4B3E4A1A603C4B1422DE
:1020F0005A603B4B00229A60394BC822DA60384B59
:1021000000221A61364B00225A61354B80229A61B7
:10211000334806F04BFD0346002B01D000F0ECFAEB
:102120004FF48053BB6407F1480319462C4807F06D
:10213000DFF90346002B01D000F0DEFA284806F054
:1021400084FD0346002B01D000F0D6FA00233B6447
:1021500000237B6407F140031946214807F094FDF2
:102160000346002B01D000F0C7FA60237B62642392
:10217000BB620023FB6200233B6300237B630023DD
:10218000BB630023FB6307F12403082219461448AC
:1021900007F0ECF80346002B01D000F0ADFA002365
:1021A0007B600023BB600023FB6000233B610023B6
:1021B0007B614FF40053BB6100233B623B1D19461A
:1021C000074807F0CFFD0346002B01D000F094FA3A
:1021D000034802F0D7FE00BF5837BD4680BD00BFA0
:1021E000000300200000014080B58CB000AF07F173
:1021F0000C0324220021184609F0ECFB3B1D0022B1
:102200001A605A60214B4FF080421A601F4B002227
:102210005A601E4B00229A601C4B4FF6FF72DA6028
:102220001A4B00221A61194B80229A610323FB602A
:1022300000233B6101237B610023BB610023FB6121
:1022400000233B6201237B620023BB620023FB620D
:1022500007F10C0319460D4806F064FE0346002BF7
:1022600001D000F049FA00237B600023BB603B1DD6
:102270001946064807F008FD0346002B01D000F080
:102280003BFA00BF3037BD4680BD00BF4803002089
:1022900080B58EB000AF07F1280300221A605A60A3
:1022A0009A60DA6007F1200300221A605A603B1D31
:1022B00000221A605A609A60DA601A615A619A6163
:1022C0003D4B3E4A1A603C4B04225A603A4B002276
:1022D0009A60394B40F24632DA60374B00221A617D
:1022E000354B80229A61344806F060FC0346002B8F
:1022F00001D000F001FA4FF48053BB6207F12803CC
:1023000019462D4807F0F4F80346002B01D000F0E1
:10231000F3F9294806F099FC0346002B01D000F0A0
:10232000EBF900233B6200237B6207F1200319468F
:10233000214807F0A9FC0346002B01D000F0DCF98E
:1023400060237B600023BB600023FB6000237B6174
:102350003B1D00221946184807F008F80346002BD9
:1023600001D000F0C9F93B1D04221946124806F0BD
:10237000FDFF0346002B01D000F0BEF93B1D0822F3
:1023800019460D4806F0F2FF0346002B01D000F07D
:10239000B3F93B1D0C221946074806F0E7FF034638
:1023A000002B01D000F0A8F9034802F0EBFD00BFBC
:1023B0003837BD4680BD00BF9003002000040040B8
:1023C00080B58CB000AF07F10C0324220021184621
:1023D00009F000FB3B1D00221A605A60204B214A85
:1023E0001A601F4B00225A601D4B00229A601C4B42
:1023F0004FF6FF72DA601A4B00221A61184B8022E6
:102400009A610323FB6000233B6101237B6100236E
:10241000BB610023FB6100233B6201237B6200233D
:10242000BB620023FB6207F10C0319460C4806F05F
:1024300079FD0346002B01D000F05EF900237B609C
:102440000023BB603B1D1946054807F01DFC0346F1
:10245000002B01D000F050F900BF3037BD4680BDE1
:10246000D80300200008004080B500AF114B124A8D
:102470001A60104B4FF416525A600E4B00229A60AD
:102480000C4B0022DA600B4B00221A61094B0C2224
:102490005A61084B00229A61064B0022DA61054816
:1024A00007F0C6FC0346002B01D000F025F900BF61
:1024B00080BD00BF200400200014014080B588B01A
:1024C00000AF07F10C0300221A605A609A60DA60CC
:1024D0001A610023BB604B4B1B6B4A4A43F0040359
:1024E0001363484B1B6B03F00403BB60BB68002302
:1024F0007B60444B1B6B434A43F001031363414B26
:102500001B6B03F001037B607B6800233B603D4B4A
:102510001B6B3C4A43F0020313633A4B1B6B03F003
:1025200002033B603B6800224FF40051364805F03F
:10253000C7F8002241F23031344805F0C1F80022DA
:102540004FF44071324805F0BBF84FF40053FB6084
:1025500001233B6100237B610023BB6107F10C0376
:102560001946294804F028FF0223FB604FF4881322
:102570003B6100237B6107F10C031946244804F0FA
:102580001BFF4FF48063FB604FF488133B61002313
:102590007B6107F10C0319461C4804F00DFF41F262
:1025A0003033FB6001233B6100237B610023BB616F
:1025B00007F10C031946154804F0FEFE4FF4407372
:1025C000FB6001233B6100237B610023BB6107F1BA
:1025D0000C0319460E4804F0EFFE002205210720E7
:1025E00004F021FE072004F03AFE002205212820F5
:1025F00004F019FE282004F032FE00BF2037BD464B
:1026000080BD00BF003802400008024000040240C4
:102610000000024080B584B000AF0346FB8004F0A8
:1026200005F9F860114B1B68FA68D31AC82B19D941
:10263000FB88022B09D10E4B01221A700D4B01228F
:102640001A700D48FEF78CFD09E0FB88B3F5806F2A
:1026500005D1074B02221A700848FEF781FD034A94
:10266000FB68136000BF1037BD4680BDBC0D002065
:10267000B00D0020B10D002000E8000818E80008A7
:1026800080B586B000AF3B1D00221A605A609A6088
:10269000DA601A6101237B600323BB600023FB60C7
:1026A0003B1D1946124804F087FE04237B603B1D46
:1026B00019460F4804F080FE08237B603B1D194635
:1026C0000B4804F079FE10237B603B1D1946084837
:1026D00004F072FE20237B603B1D1946044804F081
:1026E0006BFE0448FEF73CFD00BF1837BD4680BDB9
:1026F0000000024030E8000880B500AF72B600BFAD
:102700001021064804F0F5FF2021044804F0F1FFF1
:10271000642004F097F800BFF2E700BF0004024015
:1027200080B487B000AFF860B9607A60FB7022496E
:10273000FA6813465B0013449B00BA6813449B007D
:10274000CA187B681344FA781A701C4A7B6852F8DE
:102750002330FA6813447B61194A7B6852F82330AE
:10276000BA6813443B617B69002B1EDB7B690B2B32
:102770001BDC3B69002B18DB3B690B2B15DC7B68F2
:102780000233594203F0030201F0030358BF5A42D7
:10279000094879690B465B000B449B0039690B447F
:1027A0009B0003441344FA781A7000BF1C37BD46DF
:1027B0005DF8047B704700BFD80D002060F9000869
:1027C00070F9000880B483B000AF78607B680022A5
:1027D000C3F804257B68D3F804257B68C3F800257B
:1027E00000BF0C37BD465DF8047B704780B483B0F2
:1027F00000AF78607B68D3F800257B68D3F8043598
:102800009A420CBF01230023DBB218460C37BD46A9
:102810005DF8047B704780B485B000AFF8603B1D65
:1028200083E80600FB68D3F804359F2B0EDCFB68B9
:10283000D3F80435591CFA68C2F80415FA68DB00AD
:1028400013443A1D92E8030083E8030000BF1437E5
:10285000BD465DF8047B704790B482B000AF7860ED
:1028600039603B68D3F80035591C3A68C2F8001546
:1028700079683A680C46DB00134493E8030084E867
:10288000030078680837BD4690BC704780B485B0B7
:1028900000AF78600C4B5B68FB600C4B1A687B6880
:1028A00002FB03F3BB6000E000BF074B5A68FB6804
:1028B000D31ABA689A42F7D800BF00BF1437BD4692
:1028C0005DF8047B704700BF001000E02015002079
:1028D00080B483B000AF78600C4BDB680B4A43F0E8
:1028E0008073D3600A4B1B68094A43F001031360ED
:1028F0007B68084AA2FB03239B0C074A136000BFB6
:102900000C37BD465DF8047B704700BFF0ED00E07A
:10291000001000E083DE1B432015002080B58AB044
:1029200002AF7648FEF71CFC0023FB614AE000235F
:10293000BB6141E07249FA6913465B0013449B0096
:10294000BA6913441B010B4442F20F721A606C49BE
:10295000FA6913465B0013449B00BA6913441B01D8
:102960000B44043300221A706549FA6913465B0070
:1029700013449B00BA6913441B010B440C3300221F
:102980001A6000237B6111E05D49FA6913465B0020
:1029900013449B00BA6913441B01CA187B69134492
:1029A000053300221A707B6901337B617B69032B3D
:1029B000EADDBB690133BB61BB690B2BBADDFB6987
:1029C0000133FB61FB690B2BB1DD00233B6122E08E
:1029D0000023FB6019E00023BB6010E049493A691D
:1029E00013465B0013449B00FA6813449B00CA180B
:1029F000BB681344FF221A70BB680133BB60BB681D
:102A0000032BEBDDFB680133FB60FB680B2BE2DD86
:102A10003B6901333B613B690B2BD9DD00237B60B4
:102A200023E038497A6813465B0013441B010B44CA
:102A3000023301221A7033497A6813465B0013444B
:102A40001B010B442C3301221A702E4A7B689B0019
:102A500013440122DA702B4A7B689B001344012245
:102A600083F811227B6801337B607B680B2BD8DDF8
:102A7000254B05221A60254B05221A60244B06229D
:102A80001A60244B06221A60234B00221A60224B44
:102A900000225A60204B00229A601F4B00221A73BA
:102AA0001D4B00225A731C4B00221A61144B012249
:102AB0001A71134B0122DA60184B00221A60184B6E
:102AC00000221A600C220C211648FEF75FFB0E4B09
:102AD00019680E4B1A680E4B18680E4B1B68009352
:102AE00003461148FEF752FB1048FEF739FB104829
:102AF000FEF736FB00BF2037BD4680BD58E8000812
:102B000068040020D80D0020C00D0020C40D002056
:102B1000C80D0020CC0D0020680D0020D00D002035
:102B2000D40D002084E8000898E80008B8E8000800
:102B3000E8E8000880B598B000AF0023FB6518E016
:102B40000023BB650FE09249FA6D13465B00134406
:102B50009B00BA6D13441B010B4442F20F721A60C2
:102B6000BB6D0133BB65BB6D0B2BECDDFB6D013326
:102B7000FB65FB6D0B2BE3DD8648FFF723FE864BE1
:102B80001B7B83F00103DBB2002B6CD0834B1A68F4
:102B9000834B19687E4813465B0013449B000B442B
:102BA0001B01034400221A607E4B1A687C4B196893
:102BB000774813465B0013449B000B441B010344FE
:102BC00000221A60754B1A68774B196870481346D3
:102BD0005B0013449B000B441B01034400221A605A
:102BE000704B1A68704B1968694813465B001344B0
:102BF0009B000B441B01034400221A60674B1B68B7
:102C00007B63674B1B68BB6307F1340393E80600E3
:102C10006048FFF700FE634B1B68FB62604B1B685C
:102C20003B6307F12C0393E806005A48FFF7F3FDD6
:102C30005A4B1B687B625C4B1B68BB6207F1240329
:102C400093E806005348FFF7E6FD564B1B68FB610F
:102C5000554B1B683B6207F11C0393E806004D4887
:102C6000FFF7D9FD0DE04A4B00221A6000237B617B
:102C70000023BB6107F1140393E806004548FFF702
:102C8000CAFD00237B6574E007F10C034149184637
:102C9000FFF7E2FDFB68FB643B69BB6400233B6517
:102CA00064E04249FA6C13465B0013449B00BA6C23
:102CB00013449B00CA183B6D134493F90030012B59
:102CC0004ED03B4A3B6D52F82330FA6C13447B6480
:102CD000384A3B6D52F82330BA6C13443B647B6C2A
:102CE000002B3FDB7B6C0B2B3CDC3B6C002B39DB84
:102CF0003B6C0B2B36DC2649FA6C13465B00134405
:102D00009B00BA6C13441B010B441B680133FB632B
:102D10001F497A6C13465B0013449B003A6C1344C2
:102D20001B010B441B68FA6B9A421CDA18497A6C37
:102D300013465B0013449B003A6C13441B010B4485
:102D4000FA6B1A607B6C7B603B6CBB603B1D93E84D
:102D500006001048FFF75FFD7B6D01337B6502E0E5
:102D600000BF00E000BF3B6D01333B653B6D032BB3
:102D700097DD0848FFF73AFD0346002B84D0796DB4
:102D80000D48FEF703FA00BF6037BD4680BD00BFA7
:102D90006804002018100020680D0020C00D0020DD
:102DA000C40D0020C80D0020CC0D0020D80D00203F
:102DB00060F9000870F9000818E9000880B493B0C1
:102DC00000AF934B9B687B6442F20F733B6440F20D
:102DD000E733FB63002387F83B308D4B9B683B60F8
:102DE0008B4B9B6801335A4203F0030302F003024A
:102DF00058BF53427B60864B9B6803335A4203F0B3
:102E0000030302F0030258BF5342BB60804B9B6830
:102E100002335A4203F0030302F0030258BF534245
:102E2000FB6000237B6368E07B6B9B0048333B4483
:102E300053F8483CBB61764B1A68754B5968754826
:102E400013465B0013449B000B449B00C218BB69F4
:102E5000134493F90030012B49D06D4B1A686E4929
:102E6000BB6951F8233013447B61694B5A686B4945
:102E7000BB6951F8233013443B617B69002B38DB7D
:102E80007B690B2B35DC3B69002B32DB3B690B2B61
:102E90002FDC63497A6913465B0013449B003A694F
:102EA00013441B010B440C331B68002B22D101235C
:102EB00087F83B305A497A6913465B0013449B00FC
:102EC0003A6913441B010B441B683A6C9A4211DDAA
:102ED00053497A6913465B0013449B003A691344D3
:102EE0001B010B441B683B64BB697B6402E000BFB1
:102EF00000E000BF7B6B01337B637B6B032B93DDB7
:102F000097F83B3083F00103DBB2002B79D000232C
:102F10003B6373E03B6B9B0048333B4453F8483CB6
:102F2000FB623B4B1A683A4B59683A4813465B00C0
:102F300013449B000B449B00C218FB6A134493F993
:102F40000030012B54D0324B1A683349FB6A51F8D8
:102F500023301344BB622E4B5A683049FB6A51F848
:102F6000233013447B62BB6A002B43DBBB6A0B2B11
:102F700040DC7B6A002B3DDB7B6A0B2B3ADC28496B
:102F8000BA6A13465B0013449B007A6A13441B0120
:102F90000B441B683B622249BA6A13465B00134428
:102FA0009B007A6A13441B010B440C331B68FB61C2
:102FB0003A6A3B6C9A4214DB3A6A3B6C9A4203D100
:102FC000FA69FB6B9A420CDB3A6A3B6C9A4212D16B
:102FD000FA69FB6B9A420ED10D4B9B68FA6A9A42D2
:102FE00009D13B6A3B64FB69FB63FB6A7B6402E0DB
:102FF00000BF00E000BF3B6B01333B633B6B032B27
:1030000088DD7B6C18464C37BD465DF8047B704705
:10301000680D0020D80D002060F9000870F9000844
:103020006804002080B584B000AF78602A4B9B68AC
:10303000FB607A68FB68D31A04335A4203F0030337
:1030400002F0030258BF5342BB60BB68032B3BD85E
:1030500001A252F823F000BFC9300008693000080F
:1030600089300008A93000081C48FEF779F800F004
:1030700059FD1B4B40F20D621A601A4B40F201627F
:103080001A60FEF749F81FE01748FEF769F800F0EC
:103090007BFD134B40F2FA521A60124B40F21A6257
:1030A0001A60FEF739F80FE01048FEF759F800F003
:1030B00007FD0B4B40F232521A600A4B4FF4A962E3
:1030C0001A60FEF729F800BF034A7B68936000BFCF
:1030D0001037BD4680BD00BF680D00203CE90008E8
:1030E000241500202815002050E9000864E9000894
:1030F00090B587B000AF3E4B1B683D4A52681946F9
:103100003C48FEF743F83A4B1B687B61384B5B68E1
:103110003B61374B9B68FB60354B1A68344B9B68AF
:10312000354951F823301344BB60314B5A68304B5A
:103130009B68324951F8233013447B60BB68002BF5
:1031400008DBBB680B2B05DC7B68002B02DB7B6894
:103150000B2B04DD2A48FEF703F8002344E07A68CD
:10316000B9682848FEF712F840F6C41140F6C410BA
:1031700000F0C0FE1E4ABB6813601D4A7B685360A6
:103180001B4B1B6901331A4A13610023FA68396922
:103190007869FFF7C5FA164B1A68154B59681A4833
:1031A00013465B0013449B000B441B010344043390
:1031B00001221A700E4B1A680D4B596812481346BB
:1031C0005B0013449B000B441B0103440C331B683E
:1031D000581C0D4C13465B0013449B000B441B0111
:1031E00023440C331860012318461C37BD4690BD9C
:1031F000680D002078E9000860F9000870F90008FF
:1032000098E90008B4E900086804002090B587B088
:1032100000AF5F4B1B685E4A526819465D48FDF778
:10322000B5FF5B4B1B687B61594B5B683B61584B3F
:103230009B68FB60564B1A68554B9B68564951F882
:1032400023301344BB60524B5A68514B9B6853491F
:1032500051F8233013447B60BB68002B08DBBB684C
:103260000B2B05DC7B68002B02DB7B680B2B04DD62
:103270004B48FDF775FF002386E07A68B968494836
:10328000FDF784FF484B1B68002B12D0474B1B688F
:10329000002B0ED0444B1B68444A12681146184656
:1032A00000F028FE404B00221A60404B00221A60BA
:1032B00030E03F4BDB7A002B03D13D4B1B7B002BD7
:1032C00014D03C4B1B68012B09D140F2E24140F283
:1032D000E24000F044FE374B00221A601AE040F64C
:1032E000C41140F6C41000F0CDFC13E0314B1B6854
:1032F000012B09D140F2E24140F2E24000F0FAFD38
:103300002C4B00221A6005E040F6C41140F6C410B0
:1033100000F052FD1E4ABB6813601D4A7B68536073
:103320001B4B1B6901331A4A1361194B1A68184B5E
:103330005968214813465B0013449B000B441B0152
:103340000344043301221A70114B1A68104B596858
:10335000194813465B0013449B000B441B010344B4
:103360000C331B68581C144C13465B0013449B0021
:103370000B441B0123440C3318600023FA6839699D
:103380007869FFF7CDF9012318461C37BD4690BD7B
:10339000680D002078E9000860F9000870F900085D
:1033A00098E90008B4E90008241500202815002039
:1033B0007C0D0020000000206804002080B400AFD5
:1033C0001C4B1B7B83F00103DBB2002B1ED0194B7F
:1033D0001A68194B1B689A4205D0164B1A68174B8E
:1033E0001B689A420DD1134B5A68154B1B689A42C1
:1033F00005D0104B5A68134B1B689A4201D1012328
:1034000000E0002303F00103DBB20DE0094B1B6871
:10341000002B05D1074B5B68002B01D1012300E095
:10342000002303F00103DBB21846BD465DF8047BC0
:10343000704700BF680D0020C00D0020C80D00209F
:10344000C40D0020CC0D0020F0B587B004AF01F012
:103450005DFA4F4B9B6803335A4203F0030302F0BB
:10346000030258BF53427B60494B9B6801335A4269
:1034700003F0030302F0030258BF53423B60454B85
:103480009B7A002B09D0424B1868414B5968404B3E
:103490009A680123FFF744F908E03D4B18683C4B5C
:1034A00059683B4B9A680023FFF73AF9394BDB7AAE
:1034B000002B08D0364B1868354B596801237A68C1
:1034C000FFF72EF907E0324B1868314B596800239B
:1034D0007A68FFF725F92F4B1B7B002B08D02C4B6C
:1034E00018682B4B596801233A68FFF719F907E070
:1034F000274B1868264B596800233A68FFF710F9E4
:10350000244B9B7A002B07D1224BDB7A002B03D173
:10351000204B1B7B002B28D01E4B9B7A002B01D00D
:103520001D4900E01D491B4BDB7A002B01D01A4AD4
:1035300000E01A4A174B1B7B002B01D0164B00E012
:10354000164B144800890446124840880546114825
:10355000C08806460F488088039002960195009423
:103560000F48FDF713FEFDF7CEFD094B1A68084B17
:1035700059680C4813465B0013449B000B441B0125
:103580000344043301221A7000BF0C37BD46F0BD5E
:10359000680D00207C0D0020C0E90008C4E9000887
:1035A000C8E9000868040020B0B586B002AF5B48E7
:1035B000FDF7D6FD4FF4D8737B600023FB6063E01A
:1035C000FFF742FF0A2003F03DF9FFF7B3FAFFF7D8
:1035D000F5FB38603868FFF725FDFFF717FE034657
:1035E00083F00103DBB2002B2BD04D48FDF7B8FD73
:1035F0000023BB6020E0BA683B689A4219D0494B6F
:103600001A68484B5968484813465B0013449B00AE
:103610000B449B00C218BB68134493F90030012B84
:1036200007D0B868FFF7FEFCFFF762FD0346002BEA
:1036300006D1BB680133BB60BB68032BDBDD00E058
:1036400000BFF968394B83FB01235A10CB17D21AFC
:1036500013469B001344CA1A002A12D1314B1C682E
:10366000304B5D682F4B9B68184601F019FF0346ED
:1036700000932B462246F9682D48FDF787FDFDF79C
:10368000ABFDFB680133FB60FFF798FE034683F058
:103690000103DBB2002B03D0FA687B689A428FDB10
:1036A000FFF78CFE0346002B26D01E4B1B7B83F0BE
:1036B0000103DBB2002B11D01A4B01221A731D48F3
:1036C000FDF74EFDFDF7DAFC01F0ACFE4FF4FA60B9
:1036D00003F0B8F81848FDF743FD15E0114B01223F
:1036E0005A731648FDF73CFDFDF7C8FC01F09AFE41
:1036F000134B01221A6007E079681248FDF746FD76
:10370000FDF7E8FC01F0ADFE064B1B6919460E48BB
:10371000FDF73CFD00BF1037BD46B0BD04EA000810
:103720002CEA0008680D0020D80D00206766666648
:103730005CEA000888EA0008A4EA0008C0EA000879
:10374000D00D0020E0EA00080CEB000880B588B03E
:1037500002AF3F48FDF704FD3E4B1B7B83F00103A6
:10376000DBB2002B06D03C48FDF7FAFC01F04AFE24
:10377000FFF71AFF374B1B7B002B11D0354B5B7BC0
:1037800083F00103DBB2002B0AD03448FDF7E8FCDC
:1037900001F040FE4FF47A7003F054F8FFF704FF95
:1037A0002C4B5B7B002B4FD02D48FDF7D9FCFDF750
:1037B00017FE9023BB6000237B6100233B611CE06C
:1037C0000023FB6013E027493A6913465B0013446A
:1037D0009B00FA6813441B010B4404331B78002B35
:1037E00002D07B6901337B61FB680133FB60FB68BE
:1037F0000B2BE8DD3B6901333B613B690B2BDFDDC4
:103800007B6907EE903AF8EEE76ABB6807EE903AFC
:10381000B8EEE77AC6EE877A9FED137A67EE877A7D
:10382000C7ED017A7868FCF797FE02460B46CDE9B2
:103830000023BA6879690D48FDF7A8FC0C48FDF72C
:103840008FFC0C4B01221A6000BF1837BD4680BDAB
:103850002CEB0008680D002054EB000878EB000802
:103860009CEB0008680400200000C842C0EB000880
:10387000F0EB0008D00D002080B400AF054B1B68B2
:10388000002B14BF01230023DBB21846BD465DF8B0
:10389000047B7047D00D002080B485B000AF214B71
:1038A0001B69002B02D1DFED207A34E01F4B1B682F
:1038B00083EAE372A2EBE3721D4B1B68002BB8BFD7
:1038C0005B421344FB60194B1B6883EAE372A2EB73
:1038D000E372174B1B68002BB8BF5B421344BB60FD
:1038E000FA68BB6813447B607B68002B02D1DFED74
:1038F000117A10E07B6807EE903AF8EEE76A094B20
:103900001B6907EE903AB8EEE77AC6EE877A9FED2C
:10391000097A67EE877AB0EE670A1437BD465DF81C
:10392000047B7047680D002000000000C00D0020DF
:10393000C40D00200000C84280B400AF034B1B68D8
:103940001846BD465DF8047B704700BF6804002040
:1039500080B483B000AF194B1B685B6AFB80184BC7
:103960001B685B6ABB80174B1B88FA88D31A9BB213
:103970007B80154B1B88BA88D31A9BB23B803B884F
:103980005B429BB23B80B7F90220104B1B6813448B
:103990000E4A1360B7F900200D4B1B6813440C4A04
:1039A0001360084AFB881380074ABB88138000BF56
:1039B0000C37BD465DF8047B704700BF480300200C
:1039C000D803002004000020060000202C15002051
:1039D0003015002080B500AFFFF7BAFF014B1B6820
:1039E000184680BD2C15002080B500AFFFF7B0FF52
:1039F000014B1B68184680BD3015002080B400AF15
:103A00000B4B00221A600B4B00221A600A4B1B68FA
:103A10005B6A9AB2094B1A80094B1B685B6A9AB2BF
:103A2000084B1A8000BFBD465DF8047B704700BF9D
:103A30002C15002030150020480300200400002031
:103A4000D80300200600002080B500AF3C211548B7
:103A500005F00EFB3C21144805F00AFB114B1B68D6
:103A60004FF400425A62104B1B684FF400425A62F6
:103A7000012002F0E7FE0D4B4FF400421A800C4B80
:103A80004FF400421A800B4B00221A600A4B0022AE
:103A90001A600A4B00229A60084B0022DA6000BFCD
:103AA00080BD00BFD8030020480300200400002090
:103AB000060000202C15002030150020A00D00204D
:103AC00080B500AF144B9B7A002B06D04FF47A617F
:103AD0004FF4167001F06AFD05E040F2BD3140F28E
:103AE000BD3000F007FA00F041FC4FF496614FF44E
:103AF00002709FED0A0A00F015FD094B9B68033325
:103B00005A4203F0030302F0030258BF5342044A2F
:103B1000936000BF80BD00BF7C0D00200000B44258
:103B2000680D002080B500AF144B9B7A002B06D0A7
:103B300040F6B8314FF4167001F038FD05E040F260
:103B4000BD3140F2BD3000F0D5F900F00FFC4FF46C
:103B500096614FF402709FED0A0A00F0E3FC094BF6
:103B60009B6801335A4203F0030302F0030258BF7B
:103B70005342044A936000BF80BD00BF7C0D00200B
:103B80000000B4C2680D002080B500AF1D4B9B7AC9
:103B9000002B06D040F6B8314FF4167001F006FD48
:103BA00005E040F2BD3140F2BD3000F0A3F94FF422
:103BB00096614FF402709FED140A00F0B3FC4FF4CD
:103BC00096614FF402709FED100A00F0ABFC0F4BB2
:103BD0009B6801335A4203F0030302F0030258BF0B
:103BE00053420A4A9360094B9B6801335A4203F0DF
:103BF000030302F0030258BF5342044A936000BF1C
:103C000080BD00BF7C0D00200000B4C2680D002004
:103C100080B400AF0A4B1B6800225A63084B1B6834
:103C200000229A63064B1B680022DA63044B1B6870
:103C300000221A6400BFBD465DF8047B704700BFD8
:103C40009003002080B500AF0D4B1B684FF47A72D3
:103C50005A630B4B1B684FF47A729A63084B1B68CC
:103C60004FF47A72DA63064B1B684FF47A721A6467
:103C7000C82002F0E7FDFFF7CBFF00BF80BD00BF0B
:103C80009003002080B590B000AF78603960FFF7F6
:103C9000B5FEFFF79FFE7863FFF7A6FE386340F698
:103CA000B83140F23A2002F02BFB02F05DF802F04E
:103CB000C1F87A683B681344DA0F13445B10FB6267
:103CC0004FF4FA73FB6320E0F86B02F0C3F84FF493
:103CD0007A70FEF7DBFDFFF77DFEB862FFF784FE2A
:103CE0007862BA6A7B6BD21A796A3B6BCB1A13443F
:103CF000DA0F13445B103B623B6A2E4A934201DAAF
:103D000000BF06E0FB6B0133FB63FB6BB3F57A7F0F
:103D1000DADBFFF75FFEF861FFF766FEB861FA696C
:103D20007B6BD21AB9693B6BCB1A1344DA0F13447D
:103D30005B107B617B695A42FB6AA3F264539A422F
:103D400008DA4FF47A7002F085F84FF47A70FEF7D3
:103D50009DFDDEE700BF4FF44873BB6322E0B86B04
:103D600002F078F84FF46170FEF790FDFFF732FE35
:103D70003861FFF739FEF8603A697B6BD21AF9684F
:103D80003B6BCB1A1344DA0F13445B10BB60BB6868
:103D90005B42FA6A9A4202DCFFF754FF06E0BB6B13
:103DA000013BBB63BB6BC82BD9DC00BF00BF4037F6
:103DB000BD4680BD9DFAFFFF80B590B000AF786032
:103DC0003960FFF71BFEFFF705FE7863FFF70CFE77
:103DD000386300F099F97A683B681344DA0F1344AA
:103DE0005B10FB624FF4FA73FB6322E0FDF740FDCA
:103DF000F86B00F0ADF94FF47A70FEF747FDFFF76E
:103E0000E9FDB862FFF7F0FD7862BA6A7B6BD21AFF
:103E1000796A3B6BCB1A1344DA0F13445B103B6295
:103E20003B6A334A934201DA00BF06E0FB6B013381
:103E3000FB63FB6BB3F57A7FD8DBFFF7CBFDF86153
:103E4000FFF7D2FDB861FA697B6BD21AB9693B6B97
:103E5000CB1A1344DA0F13445B107B617B695A421F
:103E6000FB6AA3F264539A420ADAFDF701FD4FF4AC
:103E70007A7000F06DF94FF47A70FEF707FDDCE719
:103E800000BF4FF44873BB6328E0FDF7F1FCB86B4B
:103E900000F05EF94FF47A70FEF7F8FCFFF79AFD38
:103EA0003861FFF7A1FDF8603A697B6BD21AF968B7
:103EB0003B6BCB1A1344DA0F13445B10BB60BB6837
:103EC0005B42FA6A9A4206DCFFF7BCFE4FF4FA70D6
:103ED00002F0B8FC07E0BB6B013BBB63BB6BB3F507
:103EE000C87FD2DC00BF00BF4037BD4680BD00BFE9
:103EF0009DFAFFFF80B588B000AF78603960FFF7AA
:103F00007DFDFFF767FDF861FFF76EFDB86100F01A
:103F1000FBF8FDF7ADFC40F23A2000F019F9FFF78D
:103F200059FD7861FFF760FD3861FA697B69D31A42
:103F3000FB60BA693B69D31ABB60FA687B689A4236
:103F400007DABA683B689A4203DA012002F07AFC89
:103F5000DFE7FFF777FE00BF2037BD4680BD80B5A5
:103F60008AB000AF78603960FFF748FDFFF732FD97
:103F70007862FFF739FD38620023FB6140F28A2343
:103F8000BB61B969F86901F0CDFC40F6B83140F287
:103F90003A2002F0B5F901F0E7FE01F04BFF40F2E4
:103FA0008A2001F057FF3220FEF770FCFFF712FD68
:103FB0007861FFF719FD38617A6A7B69D31AFB6073
:103FC0003A6A3B69D31ABB60FA687B689A4204DAA2
:103FD000BA683B689A4200DAE1E7FFF733FE00BFB8
:103FE0002837BD4680BD000080B584B000AF0346D1
:103FF000FB710B46BB711346BB80FB79002B15D1BF
:10400000BB79002B08D0174B1B68BA885A63154B35
:104010001B6800229A6320E0124B1B68BA889A63DF
:1040200000224021104803F04BFB16E0BB79FB73E4
:10403000FB7B002B09D00B4B1B68BA881A6400224B
:1040400001210A4803F03CFB07E0064B1B680022F5
:104050001A64044B1B68BA88DA6300BF1037BD4688
:1040600080BD00BF90030020000002400004024019
:1040700080B582B002AFFFF76BFC094B1968094BA2
:104080001A68094B1B68586A084B1B685B6A0093E7
:1040900003460748FDF77AF800BFBD4680BD00BF64
:1040A0002C1500203015002048030020D8030020E4
:1040B00020ED000880B485B000AF87ED030AC7ED9E
:1040C000020A87ED011A97ED037AD7ED027AB4EE72
:1040D000E77AF1EE10FA01D5BB680BE097ED037AB1
:1040E000D7ED017AB4EEE77AF1EE10FA01DD7B68E4
:1040F00000E0FB6807EE903AB0EE670A1437BD4661
:104100005DF8047B7047000080B500AF0B4B4FF0AB
:1041100000021A600A4B4FF000021A60094B4FF080
:1041200000021A60084B4FF000021A6002F07EFB9A
:104130000346064A136000BF80BD00BF381500204B
:104140003C150020401500204415002034150020A7
:1041500080B58AB000AF786002F068FBB8616B4B45
:104160001B68BA69D31A07EE903AB8EE677ADFEDAA
:10417000686AC7EE267AC7ED097AD7ED097AF5EEB7
:10418000C07AF1EE10FA01D8624B7B625F4ABB69DC
:104190001360FDF733FB87ED050A97ED057AD7ED40
:1041A000097A27EE277A5C4BD3ED007A77EE277AEF
:1041B000594BC3ED007A584BD3ED007AB1EE047A37
:1041C000B1EE477AF1EE046AB0EE661AF0EE470AF5
:1041D000B0EE670AFFF76EFFF0EE407A4E4BC3ED8C
:1041E000007A4E4BD3ED007A97ED057A77EE676A49
:1041F00097ED097AC6EE877AC7ED047A9FED487A83
:10420000484BD3ED007A27EE277ADFED457AF7EEBB
:10421000006A76EEE76AD7ED047A66EEA77A77EE63
:10422000277A404BC3ED007A3F4B93ED007AD7EDF0
:10423000057A27EE277A3D4BD3ED006A364BD3ED56
:10424000007A66EEA77A37EE277A394BD3ED006A0B
:10425000344BD3ED007A66EEA77A77EE277AC7ED76
:10426000037A7B6807EE903AB8EEE77AD7ED037AE7
:1042700077EE677AB0EE670A09F012FDF0EE407A49
:10428000FDEEE77A17EE903A3B627B6807EE903AD4
:10429000B8EEE77AD7ED037A77EE277AB0EE670AC1
:1042A00009F0FEFCF0EE407AFDEEE77A17EE903A68
:1042B000FB613B6AB3F5966F02DD4FF496633B6298
:1042C000FB69B3F5966F02DD4FF49663FB613B6AC1
:1042D000002B01DA00233B62FB69002B01DA00238B
:1042E000FB61FB699BB21A4601210020FFF77CFEAF
:1042F0003B6A9BB21A4601210120FFF775FE074A6F
:104300007B69136000BF2837BD4680BD341500208F
:1043100000007A446F12833A3C15002038150020C3
:1043200007D06F3F40150020080000200C0000203F
:104330001000002080B483B000AF87ED010AD7EDF4
:10434000017AF5EEC07AF1EE10FA02DB4FF07E53FF
:1043500000E0054B07EE903AB0EE670A0C37BD4619
:104360005DF8047B704700BF000080BF80B500AFE0
:10437000094B4FF000021A60084B4FF000021A6020
:10438000074B4FF000021A6002F050FA0346054A4C
:10439000136000BF80BD00BF481500204C150020F1
:1043A000501500203415002080B588B000AF87ED8F
:1043B000030AC7ED020A786002F038FAB8614E4B82
:1043C0001B68BA69D31A07EE903AB8EE677ADFED48
:1043D0004B6AC7EE267AC7ED077AD7ED077AF5EE76
:1043E000C07AF1EE10FA01D8454BFB61424ABB6935
:1043F00013607B68002B02D07B68FA691A6097ED26
:10440000037AD7ED027A77EE677AC7ED057A97EDF2
:10441000057AD7ED077A27EE277A3A4BD3ED007A63
:1044200077EE277A374BC3ED007A364BD3ED007A1F
:10443000B2EE047AF4EEC77AF1EE10FA02DD324AF7
:10444000304B1A60F2EE047AB1EE677A2D4BD3ED61
:10445000007AB4EEE77AF1EE10FA06DDF2EE047AB5
:10446000F1EE677A274BC3ED007A284BD3ED007A43
:1044700097ED057A77EE676A97ED077AC6EE877A49
:10448000C7ED047A9FED227A224BD3ED007A27EE16
:10449000277ADFED1F7AF7EE006A76EEE76AD7ED4E
:1044A000047A66EEA77A77EE277A1A4BC3ED007A84
:1044B000164A7B691360184B93ED007AD7ED057AA5
:1044C00027EE277A154BD3ED006A0E4BD3ED007A19
:1044D00066EEA77A37EE277A114BD3ED006A0D4BC3
:1044E000D3ED007A66EEA77A77EE277AB0EE670A08
:1044F0002037BD4680BD00BF3415002000007A443F
:104500006F12033B48150020000020414C1500208D
:104510006666663F50150020080000200C00002051
:104520001000002080B52DED028B98B000AF87ED14
:10453000030AB8607960BB683B2B01DC3C23BB609D
:10454000BB68B3F5C87F02DD4FF4C873BB60FFF7EB
:104550000DFF4FF00003FB65FB68FB6302F066F99B
:10456000B8630023BB6502F061F9786502F05EF97B
:1045700078637A6B7B6DD31A07EE903AB8EE677A60
:10458000DFEDA76AC7EE267AC7ED147AD7ED147A65
:10459000F5EEC07AF1EE10FA01D8A24B3B657B6BC9
:1045A0007B65FDF765F9FDF729F987ED0C0A97EDB5
:1045B0000C7AD7ED147A67EE277A97ED177A77EEB3
:1045C000277AC7ED177A97ED0F7AD7ED177A77EE3E
:1045D000677AC7ED0B7A944BD3ED007A37EEA77A62
:1045E000D7ED0B7AF0EEE77A67EE277ADFED8F0AE8
:1045F000B0EE670A09F0EAFAF0EE407AB0EE670A28
:1046000009F0C6FA87ED0A0A894BD3ED007AB0EEBD
:10461000671ADFED860A97ED0A0AFFF74BFDB0EE49
:10462000408A97ED0B0AFFF785FEF0EE407A68EEC0
:10463000277AC7ED137AD7ED137AB0EEE77A7D4B80
:10464000D3ED007AB4EEE77AF1EE10FA02D54FF02E
:104650000003FB644FF000033B6107F110031846B1
:10466000D7ED0C0A97ED130AFFF79EFE87ED090AB6
:10467000D7ED137AF0EEE77AF5EEC07AF1EE10FAA4
:1046800006DD97ED137ADFED6C6AC7EE267A01E05E
:10469000DFED667AC7ED087A97ED087AD7ED097AEB
:1046A00077EE277AC7ED077ABB6807EE903AB8EE47
:1046B000E77AD7ED077AF0EEE77AF6EE006A67EE72
:1046C000A67A77EE277AC7ED067ABB6807EE903AAE
:1046D000B8EEE77AD7ED077AF0EEE77AF6EE006A01
:1046E00067EEA67A77EE277AC7ED057AD7ED077AD7
:1046F000F5EEC07AF1EE10FA06DB002387F84B30B6
:10470000012387F84A3005E0012387F84B30002366
:1047100087F84A30D7ED0B7AB0EEE77A474BD3ED06
:10472000007AB4EEE77AF1EE10FA22D8D7ED0C7ADF
:10473000B0EEE77A424BD3ED007AB4EEE77AF1EED1
:1047400010FA16D8002201210020FFF74DFC0022AC
:1047500001210120FFF748FCBB6D002B01D17B6BD1
:10476000BB657A6BBB6DD21A364B1B689A4240D33D
:104770004AE00023BB6597ED050A09F091FAF0EED7
:10478000407AFDEEE77A17EE903A7B6497ED060AE1
:1047900009F086FAF0EE407AFDEEE77A17EE903AED
:1047A0003B647B6C002B01DA00237B647B6CB3F5EC
:1047B0007A7F02DD4FF47A737B643B6C002B01DA65
:1047C00000233B643B6CB3F57A7F02DD4FF47A73D0
:1047D0003B647B6C9AB297F84B3019460020FFF788
:1047E00003FC3B6C9AB297F84A3019460120FFF758
:1047F000FBFB7A6BBB6BD31A7A689A4203D3022015
:1048000002F020F8B2E600BFFFF71CFA3C2002F0ED
:1048100019F800BF6037BD46BDEC028B80BD00BFFC
:1048200000007A446F12833A180000200000000054
:10483000140000202800002097FFB03F1C0000203B
:10484000200000202400002080B500AF00224FF49B
:1048500000710B4802F034FF00224FF40071094848
:1048600002F02EFF00224FF48071054802F028FF6D
:1048700000224FF48071034802F022FF00BF80BD88
:10488000000402400000024080B588B000AF7860AC
:1048900007F10C0300221A605A609A60DA607B68A4
:1048A000FB6001233B6107237B6107F10C03194681
:1048B000154802F0AFF90346002B01D000231FE09A
:1048C0000520FDF7E3FF104802F024F80A210E4806
:1048D00002F007F90C4802F08FF90B4802F0CEF80D
:1048E000094802F017F80A21074802F0FAF80648CA
:1048F00002F082F90346FB83034802F0BFF8FB8B0A
:1049000018462037BD4680BD6002002080B588B0C3
:1049100000AFFFF799FF0520FFF7B6FF0346BB8303
:104920000220FFF7B1FF0346FB830420FFF7ACFF33
:1049300003467B810320FFF7A7FF03463B8101224B
:104940004FF400716A4802F0BBFE01224FF48071FF
:10495000684802F0B5FE3220FDF798FF0520FFF70A
:1049600093FF0346FB800220FFF78EFF0346BB80C8
:10497000FFF76AFF01224FF400715E4802F0A0FECB
:1049800001224FF480715A4802F09AFE5020FDF740
:104990007DFF0420FFF778FF03467B800320FFF7AD
:1049A00073FF03463B80FFF74FFFFA88BB8B9A42A9
:1049B00004D9FA88BB8BD31ABB6101E00023BB6129
:1049C000BA88FB8B9A4204D9BA88FB8BD31A7B61D5
:1049D00001E000237B617A887B899A4204D97A8836
:1049E0007B89D31A3B6101E000233B613A883B8914
:1049F0009A4204D93A883B89D31AFB6001E000232C
:104A0000FB60BB694FF47A7202FB03F33A4AA2FBE4
:104A100003239B09BB617B694FF47A7202FB03F3AA
:104A2000354AA2FB03239B097B613B694FF47A72F1
:104A300002FB03F3304AA2FB03239B093B61FB68A3
:104A40004FF47A7202FB03F32B4AA2FB03239B0968
:104A5000FB60BB699AB2294B1A817B699AB2274BDA
:104A60005A803B699AB2254BDA80FB689AB2234B95
:104A70009A800020FFF708FF03461A461F4B1A8052
:104A80001E4B1B89062B03D81C4B5B88062B01D9B8
:104A9000012300E0002303F00103DAB2174B9A72FE
:104AA000164B1B89062B8CBF01230023DAB2134B54
:104AB0005A73124B5B88062B8CBF01230023DAB29A
:104AC0000E4B9A730D4BDB880F2B8CBF01230023F9
:104AD000DAB20A4BDA72094B9B88102B8CBF012388
:104AE0000023DAB2054B1A7300BF2037BD4680BDE4
:104AF0000004024000000240D34D62107C0D0020F3
:104B0000B0B58EB000AF4B48FCF72AFB4A4B5B6C4C
:104B100003F48073002B03D04848FCF721FB02E02C
:104B20004748FCF71DFB444B1B6B03F00103002BB4
:104B300003D04448FCF714FB02E04348FCF710FBA9
:104B4000424B1B6C012B03D14148FCF709FB05E0EC
:104B50003E4B1B6C19463F48FCF718FB3E48FCF7E0
:104B6000FFFA3E4B07F120041D460FCD0FC42B6802
:104B700023603B4B07F10C041D460FCD0FC42B687F
:104B8000236000237B634BE07B6B9B0038333B440B
:104B900053F8183C1846FFF777FE03461A467B6B1E
:104BA0005B0038333B4423F8382C7B6B9B00383355
:104BB0003B4453F82C1C7B6B9B0038333B4453F82D
:104BC000183C002B1FD07B6B9B0038333B4453F8C1
:104BD000183C022B15D07B6B9B0038333B4453F8B9
:104BE000183C032B0BD07B6B9B0038333B4453F8B2
:104BF000183C042B01D1042206E0052204E0032224
:104C000002E0022200E000227B6B5B0038333B4471
:104C100033F8383C1348FCF7B9FA7B6B01337B63FC
:104C20007B6B042BB0DD1048FCF79AFA00BF3837D5
:104C3000BD46B0BD98F6000800380240BCF600083A
:104C4000D8F60008F4F6000810F70008600200200B
:104C50002CF7000844F700085CF700088CF7000800
:104C6000D8F700087CF7000874F6000880B483B019
:104C700000AF00237B60104B5B6C0F4A43F4804312
:104C800053640D4B5B6C03F480437B607B680023B3
:104C90003B60094B1B6C084A43F080531364064B7E
:104CA0001B6C03F080533B603B6800BF0C37BD4674
:104CB0005DF8047B704700BF0038024080B58AB0C1
:104CC00000AF786007F1140300221A605A609A60FE
:104CD000DA601A617B681B68174A934227D1002368
:104CE0003B61164B5B6C154A43F480735364134B62
:104CF0005B6C03F480733B613B690023FB600F4BEB
:104D00001B6B0E4A43F0010313630C4B1B6B03F048
:104D10000103FB60FB683D237B610323BB61002330
:104D2000FB6107F114031946054802F045FB00BF7B
:104D30002837BD4680BD00BF00200140003802403A
:104D40000000024080B58AB000AF786007F114031C
:104D500000221A605A609A60DA601A617B681B68E8
:104D6000194A93422CD100233B61184B1B6C174A04
:104D700043F480431364154B1B6C03F480433B6185
:104D80003B690023FB60114B1B6B104A43F002038D
:104D900013630E4B1B6B03F00203FB60FB684FF4C5
:104DA00060437B610223BB610023FB6103233B6201
:104DB00005237B6207F114031946054802F0FCFA4B
:104DC00000BF2837BD4680BD003800400038024093
:104DD0000004024080B584B000AF78607B681B6837
:104DE000184A934216D10023FB60174B5B6C164A9E
:104DF00043F001035364144B5B6C03F00103FB604D
:104E0000FB6800220721192002F00DFA192002F098
:104E100026FA12E07B681B680C4A93420DD10023EE
:104E2000BB60094B1B6C084A43F002031364064B3A
:104E30001B6C03F00203BB60BB6800BF1037BD46AC
:104E400080BD00BF00000140003802400004004067
:104E500080B58CB000AF786007F11C0300221A60A7
:104E60005A609A60DA601A617B681B68B3F1804F00
:104E70004BD10023BB613F4B1B6C3E4A43F0010307
:104E800013643C4B1B6C03F00103BB61BB69002343
:104E90007B61384B1B6B374A43F001031363354B7F
:104EA0001B6B03F001037B617B6900233B61314B8A
:104EB0001B6B304A43F0020313632E4B1B6B03F052
:104EC00002033B613B694FF40043FB6102233B62F9
:104ED00000237B620023BB620123FB6207F11C03FA
:104EE0001946254802F068FA0823FB6102233B6259
:104EF00000237B620023BB620123FB6207F11C03DA
:104F000019461E4802F058FA30E07B681B681C4ABC
:104F100093422BD10023FB60164B1B6C154A43F0C8
:104F200004031364134B1B6C03F00403FB60FB6866
:104F30000023BB600F4B1B6B0E4A43F0020313634D
:104F40000C4B1B6B03F00203BB60BB68C023FB610F
:104F500002233B6200237B620023BB620223FB62CD
:104F600007F11C031946054802F026FA00BF303746
:104F7000BD4680BD003802400000024000040240EF
:104F80000008004080B58AB000AF786007F11403D4
:104F900000221A605A609A60DA601A617B681B68A6
:104FA000334A93421FD100233B61324B1B6B314A82
:104FB00043F0010313632F4B1B6B03F001033B61B1
:104FC0003B694FF480637B610223BB610023FB617B
:104FD00000233B6201237B6207F114031946264834
:104FE00002F0EAF940E07B681B68244A93423BD117
:104FF0000023FB601F4B1B6B1E4A43F0010313632E
:105000001C4B1B6B03F00103FB60FB680023BB60C0
:10501000184B1B6B174A43F002031363154B1B6BB2
:1050200003F00203BB60BB68C0237B610223BB614A
:105030000023FB6100233B6202237B6207F1140320
:1050400019460D4802F0B8F903237B610223BB61C6
:105050000023FB6100233B6202237B6207F1140300
:105060001946074802F0A8F900BF2837BD4680BDA1
:1050700000000140003802400000024000040040EF
:105080000004024080B58AB000AF786007F11403D5
:1050900000221A605A609A60DA601A617B681B68A5
:1050A0001D4A934234D100233B611C4B5B6C1B4A6D
:1050B00043F020035364194B5B6C03F020033B6106
:1050C0003B690023FB60154B1B6B144A43F0010343
:1050D0001363124B1B6B03F00103FB60FB684FF47F
:1050E000C0537B610223BB610023FB6103233B624E
:1050F00008237B6207F114031946094802F05CF9A2
:1051000000220621472002F08EF8472002F0A7F87F
:1051100000BF2837BD4680BD001401400038024062
:105120000000024080B400AF00BFFDE780B400AFD4
:1051300000BFFDE780B400AF00BFFDE780B400AF63
:1051400000BFFDE780B400AF00BFFDE780B400AF53
:1051500000BFBD465DF8047B704780B400AF00BF60
:10516000BD465DF8047B704780B400AF00BFBD460C
:105170005DF8047B704780B500AF01F043FB00BFD2
:1051800080BD80B500AF022002F0CEFA00BF80BD26
:1051900080B500AF024803F0F9FF00BF80BD00BF3B
:1051A0000003002080B500AF4FF4806002F0BCFA2D
:1051B00000BF80BD80B500AF024804F015FF00BFFE
:1051C00080BD00BF2004002080B400AF012318463A
:1051D000BD465DF8047B704780B582B000AF786053
:1051E000396006F059FC034616221A604FF0FF336F
:1051F00018460837BD4680BD80B582B000AF7860E4
:105200004FF0FF317868FFF7E7FF00BFFDE780B59B
:1052100086B000AFF860B9607A6000237B610AE075
:10522000AFF300800146BB685A1CBA60CAB21A705C
:105230007B6901337B617A697B689A42F0DB7B682A
:1052400018461837BD4680BD80B586B000AFF860FF
:10525000B9607A6000237B6109E0BB685A1CBA60C0
:105260001B781846AFF300807B6901337B617A6954
:105270007B689A42F1DB7B6818461837BD4680BDD3
:1052800080B483B000AF78604FF0FF3318460C371E
:10529000BD465DF8047B704780B483B000AF786092
:1052A00039603B684FF400525A60002318460C37AF
:1052B000BD465DF8047B704780B483B000AF786072
:1052C000012318460C37BD465DF8047B704780B457
:1052D00085B000AFF860B9607A60002318461437D3
:1052E000BD465DF8047B704780B586B000AF78603E
:1052F000144A154BD31A7B617B693B61134B1B68C6
:10530000002B02D1114B124A1A60104B1A687B68AD
:1053100013443A699A4207D206F0BEFB03460C22B8
:105320001A604FF0FF3309E0084B1B68FB60074B26
:105330001A687B681344054A1360FB6818461837DF
:10534000BD4680BD0000022000040000541500206E
:10535000F016002080B400AF064BD3F88830054A21
:1053600043F47003C2F8883000BFBD465DF8047B8B
:10537000704700BF00ED00E080B582B000AF03468B
:105380000A46FB711346BB71FB79002B14BF012346
:105390000023DBB21A461021084802F091F9BB79CC
:1053A000002B14BF01230023DBB21A46202103483F
:1053B00002F086F900BF0837BD4680BD00040240F8
:1053C00080B582B000AF00237B6010E00021012097
:1053D000FFF7D2FF962001F035FA01210020FFF7F8
:1053E000CBFF962001F02EFA7B6801337B607B684F
:1053F000022BEBDD00210020FFF7BEFF00BF0837C6
:10540000BD4680BD80B500AF00210120FFF7B4FF8D
:1054100000BF80BD80B500AF01210020FFF7ACFFC9
:1054200000BF80BD80B582B000AF00237B6010E07C
:1054300001210120FFF7A0FFC82001F003FA00219D
:105440000020FFF799FFC82001F0FCF97B680133C9
:105450007B607B68042BEBDD00BF00BF0837BD46D7
:1054600080BD80B582B000AF00237B6010E00121D9
:105470000120FFF781FF322001F0E4F90021002034
:10548000FFF77AFF322001F0DDF97B6801337B60A2
:105490007B68092BEBDD00BF00BF0837BD4680BD30
:1054A00080B483B000AF78607B68032B12D801A270
:1054B00052F823F0C5540008C9540008CD54000820
:1054C000D1540008074B06E0074B04E0074B02E00D
:1054D000074B00E0074B18460C37BD465DF8047BD0
:1054E000704700BFA8F80008B0F80008B8F8000836
:1054F000C0F80008C8F8000880B582B000AF0123EA
:10550000FB711A4B1B8840F6B732934206D81848F5
:10551000FBF726FEFBF709FE0023FB71134B1B89EB
:10552000002B10D1114B5B88002B0CD10F4BDB886B
:10553000002B08D10D4B9B88002B04D10D48FBF7A5
:105540000FFE0023FB717520FBF7F4FF0346BB71D0
:10555000BB79712B04D00848FBF702FE0023FB71D6
:10556000FB7918460837BD4680BD00BF7C0D002082
:10557000D0F80008F4F800081CF9000880B485B0E1
:1055800000AFF860B9607A60FA68BB689A4205DBE0
:10559000FA687B689342A8BF134600E0BB681846D0
:1055A0001437BD465DF8047B7047000080B5A0B09D
:1055B00000AF78603960B04B3B66B04BFB65B04BD9
:1055C000BB65B04B7B6500233B650A23FB640C2362
:1055D000BB6496237B647B683B644FF4FA73FB6384
:1055E0004FF00003FB674FF00003BB6701F01EF9AB
:1055F000B86300237B6701F019F9386700220121A5
:105600000020FEF7F1FC002201210120FEF7ECFC56
:1056100001F00CF978637A6B3B6FD31A07EE903A7E
:10562000B8EE677ADFED986AC7EE267AC7ED1B7A87
:10563000D7ED1B7AF5EEC07AF1EE10FA01D8934B54
:10564000FB667B6B3B67FFF761F9914B1B893B6303
:105650008F4B5B88FB623B6B503BBB62FB6A503BF2
:105660007B62BA6A7B6A134407EE903AF8EEE77AF7
:10567000B6EE007A67EE877AC7ED087ABA6A7B6A77
:10568000D21A3B6D134407EE903AF8EEE77AC7ED75
:10569000077A97ED087AD7ED1B7A67EE277A97EDB0
:1056A0001F7A77EE277AC7ED1F7A97ED077AD7ED45
:1056B0001B7A67EE277A97ED1E7A77EE277AC7ED89
:1056C0001E7AD7ED1F7A9FED737AF4EEC77AF1EE6A
:1056D00010FA01DD704BFB67D7ED1F7A9FED6F7AF3
:1056E000F4EEC77AF1EE10FA01D56D4BFB67D7EDFA
:1056F0001E7A9FED687AF4EEC77AF1EE10FA01DDBA
:10570000654BBB67D7ED1E7A9FED647AF4EEC77ADE
:10571000F1EE10FA01D5624BBB6797ED187AD7ED21
:10572000087A27EE277AD7ED176AD7ED1F7A66EE4B
:10573000A77A77EE277AC7ED067A97ED167AD7ED36
:10574000077A27EE277AD7ED156AD7ED1E7A66EE2F
:10575000A77A77EE277AC7ED057AD7ED067AB1EE0C
:10576000677AD7ED057A77EE677AB0EE670A08F0C8
:1057700067FAB86697ED057AD7ED067A77EE677A1D
:10578000B0EE670A08F05CFA78663B6C5B423A6CF4
:105790001946B86EFFF7F2FEB8663B6C5B423A6C96
:1057A0001946786EFFF7EAFE786697ED080A08F06A
:1057B00047FA0346002BB8BF5B42FA6C9A42ACBF73
:1057C00001230023FB7497ED070A08F039FA03461A
:1057D000002BB8BF5B42BA6C9A42ACBF01230023D6
:1057E000BB74FB7C002B04D0BB7C002B01D00123BD
:1057F00000E000237B747B7C03F001037B747B7CE3
:1058000083F00103DBB2002B28D0BB6E002B05DD3B
:10581000BA6EFB6B9A4201DAFB6BBB66BB6E002B68
:1058200007DABB6E5B42FA6B9A4202DDFB6B5B42AE
:10583000BB667B6E002B05DD7A6EFB6B9A4201DA4C
:10584000FB6B7B667B6E002B0CDA7B6E5B42FA6B2C
:105850009A4207DDFB6B5B427B6603E00023BB667D
:1058600000237B66BB6E002B1CD17B6E002B19D1F5
:10587000FEF7E8F934E000BF0000F0419A99993E44
:1058800000002841CDCCCC3D00007A446F12833A11
:105890007C0D00200000C8420000C8420000C8C2C1
:1058A0000000C8C2BB6EDB43DB0F3B747B6EDB4387
:1058B000DB0FFB73BB6E002BB8BF5B42BB817B6E03
:1058C000002BB8BF5B427B81BA893B7C1946002024
:1058D000FEF78AFB7A89FB7B19460120FEF784FBE1
:1058E0007B7C002B0ED07B6F002B01D17B6B7B6709
:1058F0007A6B7B6FD31A7A6C9A4205D8FEF7A2F9BD
:1059000001230BE000237B677A6BBB6BD31A3A68E9
:105910009A42BFF47DAEFEF795F900231846803712
:10592000BD4680BD80B582B000AF786039607B68CD
:10593000012B06D07B68022B01D1022302E0002359
:1059400000E001230F4A13700F4A3B6813600F4BAE
:105950004FF000021A600E4B4FF000021A600D4B20
:105960004FF000021A6000F061FF03460A4A13601C
:10597000FEF7CCFF094B00221A6000BF0837BD4676
:1059800080BD00BF6015002030000020641500209D
:10599000681500206C15002070150020741500207B
:1059A00080B487B000AFF860B9607A603B60BB68D4
:1059B0001B68FA689A4203DB7B68D3ED007A72E0D9
:1059C0003B6803F18043013B9B00BA6813441B68AA
:1059D000FA689A4209DC3B6803F18043013B9B0073
:1059E0007A681344D3ED007A5DE000237B6150E0D8
:1059F0007B699B00BA6813441B68FA689A4245DCCD
:105A00007B6901339B00BA6813441B68FA689A42A9
:105A10003CDB7B6901339B00BA6813441B68FA685E
:105A2000D31A07EE903AF8EEE76A7B699B00BA68F2
:105A300013441A687B6901339B00B9680B441B68E7
:105A4000D31A07EE903AB8EEE77AC6EE877AC7ED3A
:105A5000047A7B6901339B007A68134493ED007AE2
:105A60007B699B007A681344D3ED006A7B6901333C
:105A70009B007A681344D3ED007A76EEE76AD7ED9F
:105A8000047A66EEA77A77EE277A0CE07B69013319
:105A90007B613B68013B7A699A42A9DBFB6807EEB0
:105AA000903AF8EEE77AB0EE670A1C37BD465DF82B
:105AB000047B704780B590B000AF87ED030AB860F3
:105AC00079603A60FEF722FF934BDB7ABB63924B1F
:105AD0001B7B7B63904B9B7A3B63BB68002B02D0A4
