:020000040800F2
:100000000000022089390008253600082D36000836
:10001000353600083D36000845360008000000006F
:100020000000000000000000000000004D36000845
:100030005B360008000000006936000877360008CB
:10004000D9390008D9390008D9390008D939000848
:10005000D9390008D9390008D93900088336000891
:10006000D9390008D9390008D9390008D939000828
:10007000D9390008D9390008D9390008D939000818
:10008000D9390008D9390008D93900080000000022
:10009000000000000000000000000000D939000846
:1000A000D939000891360008D9390008D939000833
:1000B000D9390008D9390008D9390008D9390008D8
:1000C000D9390008D9390008D9390008D9390008C8
:1000D000D9390008D9390008D939000800000000D2
:1000E000A5360008D9390008D939000800000000F9
:1000F000000000000000000000000000D9390008E6
:1001000000000000D9390008D9390008D9390008A1
:1001100000000000000000000000000000000000DF
:10012000D9390008D9390008D9390008D939000867
:10013000D9390008000000000000000000000000A5
:10014000000000000000000000000000D939000895
:10015000D9390008D9390008D9390008B53600085E
:10016000D9390008D939000800000000000000005B
:10017000000000000000000000000000000000007F
:1001800000000000D9390008000000000000000055
:08019000D9390008D939000833
:1001A00010B5054C237833B9044B13B10448AFF3B1
:1001B00000800123237010BDD80100200000000042
:1001C000A8AD000808B5034B1BB103490348AFF3C2
:1001D000008008BD00000000DC010020A8AD000880
:1001E00001F0FF01102A2BDB10F0070F08D010F8E8
:1001F000013B013A8B422DD010F0070F42B3F6D1EC
:10020000F0B441EA012141EA014122F007047FF004
:1002100000070023F0E80256083C85EA010586EA5B
:10022000010685FA47F5A3FA87F586FA47F6A5FA97
:1002300087F68EB9EED1F0BC01F0FF0102F00702A3
:1002400032B110F8013B013A83EA010313B1F8D14E
:100250000020704701387047002D06BF354603382F
:10026000073815F0010F07D1013015F4807F02BF68
:10027000013015F4C03F0130F0BC0138704700BFB9
:10028000034613F8012B002AFBD1181A01387047D6
:1002900081F0004102E000BF83F0004330B54FEA37
:1002A00041044FEA430594EA050F08BF90EA020FA4
:1002B0001FBF54EA000C55EA020C7FEA645C7FEA37
:1002C000655C00F0E2804FEA5454D4EB5555B8BF5A
:1002D0006D420CDD2C4480EA020281EA030382EACB
:1002E000000083EA010180EA020281EA0303362D5D
:1002F00088BF30BD11F0004F4FEA01314FF4801C30
:100300004CEA113102D0404261EB410113F0004F41
:100310004FEA03334CEA133302D0524263EB4303F8
:1003200094EA050F00F0A780A4F10104D5F1200E96
:100330000DDB02FA0EFC22FA05F2801841F10001F1
:1003400003FA0EF2801843FA05F359410EE0A5F1C5
:1003500020050EF1200E012A03FA0EFC28BF4CF0F6
:10036000020C43FA05F3C01851EBE37101F00045AC
:1003700007D54FF0000EDCF1000C7EEB00006EEBB9
:100380000101B1F5801F1BD3B1F5001F0CD3490843
:100390005FEA30004FEA3C0C04F101044FEA44529A
:1003A00012F5800F80F09A80BCF1004F08BF5FEA21
:1003B000500C50F1000041EB045141EA050130BD01
:1003C0005FEA4C0C404141EB0101013C28BFB1F513
:1003D000801FE9D291F0000F04BF01460020B1FA5E
:1003E00081F308BF2033A3F10B03B3F120020CDA31
:1003F0000C3208DD02F1140CC2F10C0201FA0CF00F
:1004000021FA02F10CE002F11402D8BFC2F1200C73
:1004100001FA02F120FA0CFCDCBF41EA0C01904029
:10042000E41AA2BF01EB0451294330BD6FEA040472
:100430001F3C1CDA0C340EDC04F11404C4F120025D
:1004400020FA04F001FA02F340EA030021FA04F36F
:1004500045EA030130BDC4F10C04C4F1200220FAC6
:1004600002F001FA04F340EA0300294630BD21FA04
:1004700004F0294630BD94F0000F83F4801306BFCA
:1004800081F480110134013D4EE77FEA645C18BFBE
:100490007FEA655C29D094EA050F08BF90EA020F55
:1004A00005D054EA000C04BF1946104630BD91EA4D
:1004B000030F1EBF0021002030BD5FEA545C05D150
:1004C0004000494128BF41F0004130BD14F580048F
:1004D0003CBF01F5801130BD01F0004545F0FE4103
:1004E00041F470014FF0000030BD7FEA645C1ABF38
:1004F000194610467FEA655C1CBF0B46024650EA6F
:10050000013406BF52EA033591EA030F41F400219A
:1005100030BD00BF90F0000F04BF0021704730B520
:100520004FF4806404F132044FF000054FF00001F5
:1005300050E700BF90F0000F04BF0021704730B5B6
:100540004FF4806404F1320410F0004548BF40428B
:100550004FF000013EE700BF42004FEAE2014FEAE0
:1005600031014FEA02701FBF12F07F4393F07F4FBB
:1005700081F06051704732F07F4208BF704793F0BE
:100580007F4F04BF41F40021704730B54FF46074D1
:1005900001F0004521F000411CE700BF50EA0102D4
:1005A00008BF704730B54FF000050AE050EA01027D
:1005B00008BF704730B511F0004502D5404261EBED
:1005C00041014FF4806404F132045FEA915C3FF42E
:1005D000D8AE4FF003025FEADC0C18BF03325FEACB
:1005E000DC0C18BF033202EBDC02C2F1200300FA7C
:1005F00003FC20FA02F001FA03FE40EA0E0021FAA1
:1006000002F11444BDE600BF70B54FF0FF0C4CF48E
:10061000E06C1CEA11541DBF1CEA135594EA0C0F40
:1006200095EA0C0F00F0DEF82C4481EA030621EA7B
:100630004C5123EA4C5350EA013518BF52EA0335B6
:1006400041F4801143F4801338D0A0FB02CE4FF068
:100650000005E1FB02E506F00042E0FB03E54FF098
:100660000006E1FB03569CF0000F18BF4EF0010E90
:10067000A4F1FF04B6F5007F64F5407404D25FEA8C
:100680004E0E6D4146EB060642EAC62141EA55513F
:100690004FEAC52040EA5E504FEACE2EB4F1FD0C81
:1006A00088BFBCF5E06F1ED8BEF1004F08BF5FEAFF
:1006B000500E50F1000041EB045170BD06F00046B1
:1006C00046EA010140EA020081EA0301B4EB5C045E
:1006D000C2BFD4EB0C0541EA045170BD41F4801156
:1006E0004FF0000E013C00F3AB8014F1360FDEBF7B
:1006F000002001F0004170BDC4F10004203C35DA57
:100700000C341BDC04F11404C4F1200500FA05F3D9
:1007100020FA04F001FA05F240EA020001F000427A
:1007200021F0004110EBD37021FA04F642EB0601F0
:100730005EEA430E08BF20EAD37070BDC4F10C041A
:10074000C4F1200500FA04F320FA05F001FA04F2DE
:1007500040EA020001F0004110EBD37041F10001CA
:100760005EEA430E08BF20EAD37070BDC4F12005D5
:1007700000FA05F24EEA020E20FA04F301FA05F23D
:1007800043EA020321FA04F001F0004121FA04F2E5
:1007900020EA020000EBD3705EEA430E08BF20EAB5
:1007A000D37070BD94F0000F0FD101F000464000EF
:1007B00041EB010111F4801F08BF013CF7D041EA71
:1007C000060195F0000F18BF704703F00046520075
:1007D00043EB030313F4801F08BF013DF7D043EA46
:1007E0000603704794EA0C0F0CEA135518BF95EAFC
:1007F0000C0F0CD050EA410618BF52EA4306D1D183
:1008000081EA030101F000414FF0000070BD50EAA1
:10081000410606BF1046194652EA430619D094EA2B
:100820000C0F02D150EA013613D195EA0C0F05D115
:1008300052EA03361CBF104619460AD181EA030169
:1008400001F0004141F0FE4141F470014FF0000021
:1008500070BD41F0FE4141F4780170BD70B54FF0BC
:10086000FF0C4CF4E06C1CEA11541DBF1CEA13553C
:1008700094EA0C0F95EA0C0F00F0A7F8A4EB05041E
:1008800081EA030E52EA03354FEA013100F0888015
:100890004FEA03334FF0805545EA131343EA1263DE
:1008A0004FEA022245EA111545EA10654FEA002693
:1008B0000EF000419D4208BF964244F1FD0404F54C
:1008C000407402D25B084FEA3202B61A65EB0305A8
:1008D0005B084FEA32024FF480104FF4002CB6EB65
:1008E000020E75EB030E22BFB61A754640EA0C00E5
:1008F0005B084FEA3202B6EB020E75EB030E22BF25
:10090000B61A754640EA5C005B084FEA3202B6EB65
:10091000020E75EB030E22BFB61A754640EA9C0024
:100920005B084FEA3202B6EB020E75EB030E22BFF4
:10093000B61A754640EADC0055EA060E18D04FEAB2
:10094000051545EA16754FEA06164FEAC30343EA52
:1009500052734FEAC2025FEA1C1CC0D111F4801F1F
:100960000BD141EA00014FF000004FF0004CB6E718
:1009700011F4801F04BF01430020B4F1FD0C88BFB7
:10098000BCF5E06F3FF6AFAEB5EB030C04BFB6EBC2
:10099000020C5FEA500C50F1000041EB045170BDB5
:1009A0000EF0004E4EEA113114EB5C04C2BFD4EBE2
:1009B0000C0541EA045170BD41F480114FF0000E66
:1009C000013C90E645EA060E8DE60CEA135594EAE2
:1009D0000C0F08BF95EA0C0F3FF43BAF94EA0C0FE5
:1009E0000AD150EA01347FF434AF95EA0C0F7FF45A
:1009F00025AF104619462CE795EA0C0F06D152EAAE
:100A000003353FF4FDAE1046194622E750EA410691
:100A100018BF52EA43067FF4C5AE50EA41047FF4A2
:100A20000DAF52EA43057FF4EBAE12E74FF0FF3C07
:100A300006E000BF4FF0010C02E000BF4FF0010CD8
:100A40004DF804CD4FEA410C7FEA6C5C4FEA430C51
:100A500018BF7FEA6C5C1BD001B050EA410C0CBFA0
:100A600052EA430C91EA030F02BF90EA020F002002
:100A7000704710F1000F91EA030F58BF994208BF69
:100A800090422CBFD8176FEAE37040F00100704726
:100A90004FEA410C7FEA6C5C02D150EA013C07D17D
:100AA0004FEA430C7FEA6C5CD6D152EA033CD3D0C8
:100AB0005DF8040B704700BF8446104662468C46C2
:100AC0001946634600E000BF01B5FFF7B7FF0028F5
:100AD00048BF10F1000F01BD4DF808EDFFF7F4FF1E
:100AE0000CBF012000205DF808FB00BF4DF808EDA9
:100AF000FFF7EAFF34BF012000205DF808FB00BFCC
:100B00004DF808EDFFF7E0FF94BF012000205DF8ED
:100B100008FB00BF4DF808EDFFF7CEFF94BF0120A2
:100B200000205DF808FB00BF4DF808EDFFF7C4FF9B
:100B300034BF012000205DF808FB00BF4FEA410CE4
:100B40007FEA6C5C02D150EA013C0AD14FEA430CC7
:100B50007FEA6C5C02D152EA033C02D14FF0000004
:100B600070474FF0010070474FEA410212F5001242
:100B700015D211D56FF47873B3EB625212D94FEAE4
:100B8000C12343F0004343EA505311F0004F23FACE
:100B900002F018BF404270474FF00000704750EA23
:100BA000013005D111F0004008BF6FF000407047E0
:100BB0004FF00000704700BF53B94AB9002908BF81
:100BC00000281CBF4FF0FF314FF0FF3000F088B914
:100BD000ADF1080C6DE904CE00F006F8DDF804E094
:100BE000DDE9022304B070472DE9F047089D8E46E9
:100BF00004468846002B4AD18A42174662D9B2FA87
:100C000082F64EB1C6F1200301FA06F820FA03F38A
:100C1000B74043EA0808B4404FEA174E1FFA87FC72
:100C2000B8FBFEF1230C0EFB118843EA084301FBDD
:100C30000CF29A4209D9FB1801F1FF3080F0EA80EA
:100C40009A4240F2E78002393B449A1AA3B2B2FBBF
:100C5000FEF00EFB102243EA024300FB0CFC9C4515
:100C600009D9FB1800F1FF3280F0D6809C4540F294
:100C7000D3803B44023840EA0140A3EB0C0300213F
:100C80001DB1F3400022C5E90032BDE8F0878B4278
:100C900005D90DB1C5E9000100210846F5E7B3FA11
:100CA00083F1002946D1734502D3824200F20581C7
:100CB000841A6EEB030201209046002DE5D0C5E9B1
:100CC0000048E2E7002A00F09080B2FA82F6002E97
:100CD00040F0A4808A1A030C4FEA174E80B2BCB2CF
:100CE0000121B2FBFEFC0EFB1C2243EA024304FB83
:100CF0000CF29A4207D9FB180CF1FF3802D29A4243
:100D000000F2E080C4469B1AB3FBFEF20EFB1233E6
:100D100040EA034302FB04F49C4207D9FB1802F1AA
:100D2000FF3002D29C4200F2CA8002461B1B42EAFC
:100D30000C40A5E7C1F120068B4022FA06F71F43BD
:100D40000EFA01F420FA06F32EFA06FE4FEA1749CE
:100D5000234300FA01F81FFA87FCBEFBF9F01C0CD4
:100D600009FB10EE44EA0E4400FB0CFEA64502FA15
:100D700001F209D93C1900F1FF3A80F09C80A645A8
:100D800040F2998002383C44A4EB0E041FFA83FE23
:100D9000B4FBF9F309FB13444EEA044403FB0CFCD7
:100DA000A44508D93C1903F1FF3E80F08280A44598
:100DB0007FD9023B3C4443EA0040A4EB0C04A0FB77
:100DC00002EC64457346E14662D35FD05DB1B8EB97
:100DD000030264EB090404FA06F622FA01F31E4347
:100DE000CC40C5E9006400214FE7B1FBF2FC010CE7
:100DF00041EA0E4180B240EA01423B4638463C4659
:100E0000B846BE462026B1FBF7F1A2EB080241EA44
:100E10000C4166E7014618E710462CE7C6F12002B0
:100E20002EFA02F3B740B14020FA02F24FEA174E11
:100E30000A43B3FBFEF8BCB20EFB1833110C41EAB7
:100E4000034108FB04F9B04089454FEA104380B2E2
:100E50003ED9791808F1FF3C01D289451FD8A1EB92
:100E60000901B1FBFEF909FB04F80EFB191192B25E
:100E700042EA0142424529D2BA1809F1FF31C4D2EF
:100E80004245C2D2A9F102013A44BEE7F0459DD2E3
:100E9000BEEB02036CEB070C0138E14696E7A7EBCB
:100EA00009094944A8F1020CB1FBFEF909FB04F859
:100EB000DBE773467FE7504666E70846FDE63B44BE
:100EC000023A33E7ACF1020C3B441CE749469CE78D
:100ED000A1EB0901C446B1FBFEF909FB04F8C4E724
:100EE000704700BF80B584B000AF03460A46FB8060
:100EF0001346BB80FB88002B06D100F037F8BB8877
:100F0000184602F0DDFD2AE0FB88164A92FBF3F357
:100F1000FB60FB68B3F5803F02D34FF6FF73FB60C5
:100F2000FB68132B01D81423FB600F4B1B68FA6876
:100F3000013ADA62FB68013B0B4AD3600A4B1B683B
:100F4000FA685208DA630821074805F015F8BB88EB
:100F5000184602F0B5FD0821034805F0BDF810372A
:100F6000BD4680BD00093D00AC02002080B500AF49
:100F70000821024805F0B0F800BF80BDAC02002097
:100F800080B500AFC82140F20B20FFF7ABFF322144
:100F90000020FFF7A7FFC82140F29320FFF7A2FF30
:100FA00032210020FFF79EFF4FF496714FF44470FA
:100FB000FFF798FF00BF80BD80B582B000AF00236F
:100FC0007B600BE064214FF4DC70FFF78BFF642142
:100FD0000020FFF787FF7B6801337B607B68042B71
:100FE000F0DD00BF00BF0837BD4680BD80B582B0D0
:100FF00000AF78607868FFF743F903469AB24FF480
:101000007A737968034806F0A1F800BF0837BD4637
:1010100080BD00BFCC0300200FB480B5C2B000AFCC
:1010200007F58A7207F58473A3F582731A6007F5D2
:101030008473A3F5827307F108001B68D7F81021A9
:101040004FF4807107F0D4FD07F108031846FFF74D
:10105000CDFF00BF07F58477BD46BDE8804004B0F2
:1010600070470000F0B587B006AF134B1B881D46D4
:10107000114B1B891E46104B5B889C460E4BDB8830
:101080001A460D4B9B8819460B4B9B7A18460A4B08
:10109000DB7A1C46084B1B7B04930394029001915E
:1010A00000926346324629460448FFF7B5FF00BF69
:1010B0000437BD46F0BD00BF2814002064AE000810
:1010C00080B584B002AF164B1B8807EE903AF8EE5D
:1010D000E77A9FED147A27EE877ADFED136AC7EE81
:1010E000267AC7ED017A7868FFF736FA02460B4692
:1010F0000B49098800910D48FFF78EFF084B1B88AC
:1011000040F6B732934203D80948FFF76FFF02E079
:101110000848FFF76BFF00BF0837BD4680BD00BF22
:1011200028140020333353400000804510B00008DD
:1011300028B0000844B0000880B584B000AF034672
:10114000FB71FB7963F07F03DBB27B7300233B739E
:1011500000224FF48051174803F0F0FB07F10D0116
:1011600064230122144804F016F90346FB7307F1C7
:101170000C0164230122104804F051FA0346BB73AA
:1011800001224FF480510B4803F0D8FBFB7B002B6E
:1011900002D1BB7B002B07D00848FFF727FF084B85
:1011A00000221A70FF2300E03B7B18461037BD4633
:1011B00080BD00BF000402405402002064B100085A
:1011C000F401002080B584B000AF03460A46FB71ED
:1011D0001346BB71FB793B73BB797B7300224FF4E1
:1011E0008051114803F0AAFB07F10C01642302228D
:1011F0000E4804F0D0F80346FB7301224FF48051EF
:10120000094803F09BFBFB7B002B05D00848FFF748
:10121000EDFE084B00221A70012002F051FC00BFC5
:101220001037BD4680BD00BF0004024054020020BC
:1012300088B10008F401002080B582B000AF3C48BE
:10124000FFF7D4FEC82002F03BFC80216B20FFF7A3
:10125000B9FFFA2002F034FC00216B20FFF7B2FF47
:10126000322002F02DFC01216B20FFF7ABFF322072
:1012700002F026FC00216C20FFF7A4FF0A2002F0F8
:101280001FFC6A20FFF758FF0346FB71FB7943F010
:101290001003FB71FB7919466A20FFF793FF0A20C0
:1012A00002F00EFC04211920FFF78CFF0A2002F047
:1012B00007FC02211A20FFF785FF0A2002F000FC3C
:1012C00008211B20FFF77EFF0A2002F0F9FB08210E
:1012D0001C20FFF777FF0A2002F0F2FB02211D20FD
:1012E000FFF770FF0A2002F0EBFB7520FFF724FFE9
:1012F0000346BB71BB7919460E48FFF78DFEBB79DB
:10130000702B09D0BB7919460B48FFF785FE0B4BB4
:1013100000221A70002306E00948FFF767FE074B1A
:1013200001221A70012318460837BD4680BD00BF50
:10133000B0B10008DCB10008F0B10008F4010020F1
:1013400018B200082DE9B04388B004AF4E4B1B78AB
:1013500083F00103DBB2002B03D04C48FFF746FEBD
:101360008EE04B48FFF742FE4A4B4FF47A721A6107
:101370004FF00003FB604FF00003BB604FF0000331
:101380007B6000233B602EE000F096F8424BB3F9FF
:10139000003007EE903AF8EEE77A97ED037A77EEB1
:1013A000277AC7ED037A3C4BB3F9023007EE903A47
:1013B000F8EEE77A97ED027A77EE277AC7ED027AB0
:1013C000354BB3F9043007EE903AF8EEE77A97ED33
:1013D000017A77EE277AC7ED017A032002F070FBDD
:1013E0003B6801333B602B4B1A693B689A42CBD870
:1013F000284B1B6907EE903AB8EE677AD7ED036A7F
:10140000C6EE877A234BC3ED007A224B1B6907EEA9
:10141000903AB8EE677AD7ED026AC6EE877A1D4B2E
:10142000C3ED017A1B4B1B6907EE903AB8EE677A61
:10143000D7ED016AC6EE877A164BC3ED027A154BDB
:1014400001221A73134B1B681846FFF785F8804674
:101450008946104B5B681846FFF77EF804460D4638
:101460000C4B9B681846FFF777F802460B46CDE910
:101470000223CDE9004542464B460848FFF7CCFD24
:101480001037BD46BDE8B083F40100202CB200083F
:1014900058B20008F8010020381400208CB200086F
:1014A00080B400AF034B1B781846BD465DF8047B43
:1014B000704700BFF401002080B584B000AF2F4B0F
:1014C0001B7883F00103DBB2002B03D02C48FFF71D
:1014D0008DFD50E0C323FB7100224FF48051294859
:1014E00003F02CFAF91D64230122274803F053FF6F
:1014F0000346FB73FB7B002B09D001224FF4805184
:10150000204803F01BFA2148FFF770FD33E007F194
:101510000801642306221C4804F081F80346FB738B
:1015200001224FF48051174803F008FAFB7B002B8F
:1015300003D01748FFF75AFD1DE03B7A1BB21B0290
:101540001AB27B7A1BB213431AB2124B1A80BB7ABF
:101550001BB21B021AB2FB7A1BB213431AB20D4B19
:101560005A803B7B1BB21B021AB27B7B1BB213431C
:101570001AB2084B9A801037BD4680BDF401002096
:10158000BCB200080004024054020020F0B200087F
:1015900014B300083814002080B584B000AF2F4B7E
:1015A0001B7883F00103DBB2002B03D02C48FFF73C
:1015B0001DFD50E0BB23FB7100224FF480512948F0
:1015C00003F0BCF9F91D64230122274803F0E3FE70
:1015D0000346FB73FB7B002B09D001224FF48051A3
:1015E000204803F0ABF92148FFF700FD33E007F195
:1015F0000801642306221C4804F011F80346FB731B
:1016000001224FF48051174803F098F9FB7B002B1F
:1016100003D01748FFF7EAFC1DE03B7A1BB21B0220
:101620001AB27B7A1BB213431AB2124BDA80BB7A1E
:101630001BB21B021AB2FB7A1BB213431AB20D4B38
:101640001A813B7B1BB21B021AB27B7B1BB213437A
:101650001AB2084B5A811037BD4680BDF4010020F4
:1016600038B30008000402405402002070B30008A0
:1016700094B300083814002080B500AFFFF78CFF4A
:10168000FFF71AFF00BF80BD80B400AF094BB3F96C
:10169000043007EE903AF8EEE77A9FED077AC7EE4E
:1016A000876AF0EE667AB0EE670ABD465DF8047BA5
:1016B000704700BF3814002000008342B0B584B0EA
:1016C00002AF2E4B1B78002B01D02D4B00E02D4B91
:1016D00019462D48FFF7A0FC284B1B78002B48D05B
:1016E0007520FFF729FD0346FB716A20FFF724FDF3
:1016F0000346BB716B20FFF71FFD03467B71F97931
:10170000BA797B792148FFF787FCBB7903F0100396
:10171000002B03D01E48FFF769FC02E01D48FFF7CD
:1017200065FCFFF7A9FF1C4BB3F900301C461A4BB0
:10173000B3F902301D46FFF7A7FF10EE103A184626
:10174000FEF70AFF02460B46CDE900232A46214652
:101750001248FFF761FC104BB3F9063019460E4BE7
:10176000B3F908301A460C4BB3F90A300C48FFF7AE
:1017700053FC00BF0837BD46B0BD00BFF4010020D8
:10178000B8B30008BCB30008C4B30008E0B3000855
:1017900014B4000828B40008381400203CB4000831
:1017A00058B4000880B500AF2848FFF71FFC00219F
:1017B000274804F0E1FB0421254804F0DDFB082163
:1017C000234804F0D9FB0C21214804F0D5FB012269
:1017D0004FF400511F4803F0B1F800F0E7FC01F0AE
:1017E00093F8FFF729FD0346002B0FD01A48FFF7A7
:1017F000FDFB1A48FFF7FAFB4FF4FA6002F060F9BC
:10180000FFF7A0FD1648FFF7F1FB02E01548FFF7D0
:10181000EDFB00F043FE642002F052F900F02AFED6
:101820000346002B08D100F02FFE0346002B03D106
:101830000D48FFF7DBFB02E00C48FFF7D7FB00F099
:1018400005FD0B48FFF7D2FB00BF80BD70B4000858
:101850003C03002000080240A4B40008D8B40008EB
:1018600010B5000830B500086CB50008A4B5000834
:10187000D0B5000880B500AF2148FFF7B7FB00F0F6
:101880007BFF204B1B88002B13D11E4B1B89002B89
:101890000FD11C4B5B88002B0BD11A4BDB88002B24
:1018A00007D1184B9B88002B03D11748FFF79EFBED
:1018B00004E01648FFF79AFBFFF7D4FBFFF700FCA4
:1018C000FFF7EEFD0346002B01D0FFF7F7FE00F017
:1018D00021FE02F017F80346002B06D00C48FFF754
:1018E00085FB0C4B01221A7005E00B48FFF77EFBCD
:1018F000084B00221A700948FFF778FB00BF80BD33
:10190000FCB500082814002020B6000860B60008C6
:1019100084B600085E140020A8B60008E4B60008EB
:1019200090B583B002AF02F059F800F063F800F010
:101930005BFB00F0C7F800F017F900F04BF900F07E
:10194000E9F900F0D3FA00F025FB00F037FA03F0D4
:1019500065FC0346184600F061FEFFF723FFFFF722
:1019600089FFFFF70DFB01F0ABFF1A48FFF73EFBC5
:101970001948FFF73BFB1948FFF738FB1848FFF7FA
:1019800035FB02F091F80346164A136002F08CF81A
:101990000346154A136001F06DF800F0EDFE134B9D
:1019A0001B891946114B5B881846104BDB881C4677
:1019B0000E4B9B881A460D4B1B88019300922346C1
:1019C00002460B48FFF728FB4FF4FA7002F078F854
:1019D00000BFE2E770B7000898B70008BCB700087E
:1019E000E4B70008601400206414002028140020CC
:1019F00000B8000880B594B000AF07F12003302292
:101A00000021184607F002F907F10C0300221A60C2
:101A10005A609A60DA601A610023BB60274B1B6C26
:101A2000264A43F080531364244B1B6C03F080530D
:101A3000BB60BB6800237B60214B1B68204A43F4DA
:101A4000404313601E4B1B6803F440437B607B687C
:101A500002233B620123FB6210233B630223BB632F
:101A60000023FB6310233B64A8237B640223BB6435
:101A70000423FB6407F12003184602F0ABFF034682
:101A8000002B01D000F0CEFB0F23FB6002233B6153
:101A900000237B614FF48053BB610023FB6107F19E
:101AA0000C030221184603F00DFA0346002B01D067
:101AB00000F0B8FB00BF5037BD4680BD0038024083
:101AC0000070004080B584B000AF3B4600221A6031
:101AD0005A609A60DA60214B214A1A601F4B4FF41A
:101AE00080325A601D4B00229A601C4B00221A6102
:101AF0001A4B00221A76194B002283F82020174B2C
:101B00000022DA62154B174A9A62144B0022DA60FF
:101B1000124B0122DA61114B002283F830200F4B67
:101B200001225A610D4801F0EFFF0346002B01D05E
:101B300000F078FB00233B6001237B600423BB6043
:101B40003B461946054802F0A3F90346002B01D095
:101B500000F068FB00BF1037BD4680BD0C020020BE
:101B6000002001400100000F80B500AF174B184A5C
:101B70001A60164B4FF482725A60144B00229A601E
:101B8000124B0022DA60114B00221A610F4B002227
:101B90005A610E4B4FF400729A610C4B3022DA619D
:101BA0000A4B00221A62094B00225A62074B00229C
:101BB0009A62064B0A22DA62044803F063FB03468A
:101BC000002B01D000F02EFB00BF80BD540200208E
:101BD0000038004080B596B000AF07F148030022FE
:101BE0001A605A609A60DA6007F1400300221A60B6
:101BF0005A6007F1240300221A605A609A60DA6082
:101C00001A615A619A613B1D20220021184606F094
:101C1000FDFF3E4B3E4A1A603C4B14225A603B4B40
:101C200000229A60394BC822DA60384B00221A61D0
:101C3000364B00225A61354B80229A61334804F0BA
:101C4000F3F80346002B01D000F0ECFA4FF4805378
:101C5000BB6407F1480319462C4804F087FD03468E
:101C6000002B01D000F0DEFA284804F02CF90346DE
:101C7000002B01D000F0D6FA00233B6400237B64E4
:101C800007F140031946214805F03CF90346002BB3
:101C900001D000F0C7FA60237B626423BB6200239B
:101CA000FB6200233B6300237B630023BB630023B1
:101CB000FB6307F1240308221946144804F094FC3E
:101CC0000346002B01D000F0ADFA00237B60002317
:101CD000BB600023FB6000233B6100237B614FF46A
:101CE0000053BB6100233B623B1D1946074805F0CA
:101CF00077F90346002B01D000F094FA034801F075
:101D0000C1FB00BF5837BD4680BD00BFAC020020FC
:101D10000000014080B58CB000AF07F10C03242215
:101D20000021184606F072FF3B1D00221A605A601F
:101D3000214B4FF080421A601F4B00225A601E4B0D
:101D400000229A601C4B4FF6FF72DA601A4B002299
:101D50001A61194B80229A610323FB6000233B61C7
:101D600001237B610023BB610023FB6100233B62F5
:101D700001237B620023BB620023FB6207F10C039B
:101D800019460D4804F00CFA0346002B01D000F070
:101D900049FA00237B600023BB603B1D19460648BF
:101DA00005F0B0F80346002B01D000F03BFA00BF6D
:101DB0003037BD4680BD00BFF402002080B58EB034
:101DC00000AF07F1280300221A605A609A60DA60B7
:101DD00007F1200300221A605A603B1D00221A609E
:101DE0005A609A60DA601A615A619A613D4B3E4AC4
:101DF0001A603C4B04225A603A4B00229A60394BDD
:101E000040F24632DA60374B00221A61354B8022AD
:101E10009A61344804F008F80346002B01D000F022
:101E200001FA4FF48053BB6207F1280319462D488D
:101E300004F09CFC0346002B01D000F0F3F9294884
:101E400004F041F80346002B01D000F0EBF9002329
:101E50003B6200237B6207F120031946214805F00D
:101E600051F80346002B01D000F0DCF960237B60C1
:101E70000023BB600023FB6000237B613B1D00222D
:101E80001946184804F0B0FB0346002B01D000F0BF
:101E9000C9F93B1D04221946124804F0A5FB03466C
:101EA000002B01D000F0BEF93B1D082219460D4859
:101EB00004F09AFB0346002B01D000F0B3F93B1D60
:101EC0000C221946074804F08FFB0346002B01D073
:101ED00000F0A8F9034801F0D5FA00BF3837BD4635
:101EE00080BD00BF3C0300200004004080B58CB0E2
:101EF00000AF07F10C0324220021184606F086FEED
:101F00003B1D00221A605A60204B214A1A601F4B69
:101F100000225A601D4B00229A601C4B4FF6FF7244
:101F2000DA601A4B00221A61184B80229A6103234F
:101F3000FB6000233B6101237B610023BB61002325
:101F4000FB6100233B6201237B620023BB62002311
:101F5000FB6207F10C0319460C4804F021F9034613
:101F6000002B01D000F05EF900237B600023BB60F2
:101F70003B1D1946054804F0C5FF0346002B01D060
:101F800000F050F900BF3037BD4680BD840300200B
:101F90000008004080B500AF114B124A1A60104B88
:101FA0004FF416525A600E4B00229A600C4B0022DE
:101FB000DA600B4B00221A61094B0C225A61084B64
:101FC00000229A61064B0022DA61054805F06EF89E
:101FD0000346002B01D000F025F900BF80BD00BFF3
:101FE000CC0300200014014080B588B000AF07F199
:101FF0000C0300221A605A609A60DA601A610023AA
:10200000BB604B4B1B6B4A4A43F004031363484BC2
:102010001B6B03F00403BB60BB6800237B60444B75
:102020001B6B434A43F001031363414B1B6B03F0EB
:1020300001037B607B6800233B603D4B1B6B3C4A8C
:1020400043F0020313633A4B1B6B03F002033B6044
:102050003B6800224FF40051364802F06FFC00222A
:1020600041F23031344802F069FC00224FF44071F3
:10207000324802F063FC4FF40053FB6001233B61E4
:1020800000237B610023BB6107F10C03194629483B
:1020900002F0D0FA0223FB604FF488133B61002367
:1020A0007B6107F10C031946244802F0C3FA4FF490
:1020B0008063FB604FF488133B6100237B6107F171
:1020C0000C0319461C4802F0B5FA41F23033FB60AC
:1020D00001233B6100237B610023BB6107F10C03FB
:1020E0001946154802F0A6FA4FF44073FB6001232D
:1020F0003B6100237B610023BB6107F10C031946A0
:102100000E4802F097FA00220521072002F0C9F9D3
:10211000072002F0E2F900220521282002F0C1F98F
:10212000282002F0DAF900BF2037BD4680BD00BF8D
:102130000038024000080240000402400000024053
:1021400080B584B000AF0346FB8001F0ADFCF860C1
:10215000114B1B68FA68D31AC82B19D9FB88022BBC
:1021600009D10E4B01221A700D4B01221A700D4835
:10217000FEF73CFF09E0FB88B3F5806F05D1074B04
:1021800002221A700848FEF731FF034AFB68136009
:1021900000BF1037BD4680BD681400205C140020CD
:1021A0005D14002024B800083CB8000880B586B053
:1021B00000AF3B1D00221A605A609A60DA601A6113
:1021C00001237B600323BB600023FB603B1D19469A
:1021D000124802F02FFA04237B603B1D19460F487A
:1021E00002F028FA08237B603B1D19460B4802F0D9
:1021F00021FA10237B603B1D1946084802F01AFAA9
:1022000020237B603B1D1946044802F013FA044862
:10221000FEF7ECFE00BF1837BD4680BD000002404F
:1022200054B8000880B500AF72B600BF1021064850
:1022300002F09DFB2021044802F099FB642001F08C
:102240003FFC00BFF2E700BF0004024080B586B04B
:1022500002AF5A48FEF7CAFE0023FB603EE00023AF
:10226000BB6035E05649FB681A01BB6813441B018B
:102270000B4442F20F721A605149FB681A01BB68A5
:1022800013441B010B44043300221A704C49FB68B1
:102290001A01BB6813441B010B440C3300221A6063
:1022A00000237B600EE04649FB681A01BB681344BB
:1022B0001B01CA187B681344053300221A707B681F
:1022C00001337B607B68032BEDDDBB680133BB60B2
:1022D000BB680F2BC6DDFB680133FB60FB680F2B6F
:1022E000BDDD00233B601FE0354A3B681B02134401
:1022F000073301221A70324A3B681B021344F5333C
:1023000001221A702E4A3B681B0113440833012234
:102310001A702B4A3B681B01134403F60673012213
:102320001A703B6801333B603B680F2BDCDD254BAB
:1023300007221A60244B07221A60244B08221A60D5
:10234000234B08221A60234B00221A60214B0022E3
:102350005A60204B00229A601E4B00221A731D4BBC
:1023600000225A731B4B00221A61154B01221A716D
:10237000134B0122DA60184B00221A60174B00221F
:102380001A60102210211648FEF746FE0D4B196800
:102390000D4B1A680D4B18680D4B1B6800930346D4
:1023A0001048FEF739FE1048FEF720FE0F48FEF7F2
:1023B0001DFE00BF1037BD4680BD00BF7CB80008C1
:1023C000140400206C1400207014002074140020E9
:1023D00078140020141400207C14002080140020A5
:1023E000A8B80008BCB80008DCB800080CB90008A0
:1023F00080B483B000AF194B1B685B6AFB80184B3D
:102400001B685B6ABB80174B1B88FA88D31A9BB288
:102410007B80154B1B88BA88D31A9BB23B803B88C4
:102420005B429BB23B80B7F90220104B1B68134400
:102430000E4A1360B7F900200D4B1B6813440C4A79
:102440001360084AFB881380074ABB88138000BFCB
:102450000C37BD465DF8047B704700BFF4020020D6
:1024600084030020000000200200002084140020CB
:102470008814002080B500AFFFF7BAFF014B1B683E
:10248000184680BD8414002080B500AFFFF7B0FF70
:10249000014B1B68184680BD8814002080B500AF32
:1024A0003C21154803F022FF3C21144803F01EFF95
:1024B000114B1B684FF400425A62104B1B684FF4DB
:1024C00000425A62012001F0FBFA0D4B4FF400422A
:1024D0001A800C4B4FF400421A800B4B00221A60FA
:1024E0000A4B00221A600A4B00229A60084B002215
:1024F000DA6000BF80BD00BF84030020F40200202A
:102500000000002002000020841400208814002015
:102510004C14002080B582B002AFFFF769FF094B71
:102520001968094B1A68094B1B68586A084B1B68E5
:102530005B6A009303460748FEF76EFD00BFBD4689
:1025400080BD00BF8414002088140020F402002005
:1025500084030020E0BC000880B500AF00224FF4E7
:1025600000710B4802F0EAF900224FF400710948AB
:1025700002F0E4F900224FF48071054802F0DEF920
:1025800000224FF48071034802F0D8F900BF80BDEB
:10259000000402400000024080B588B000AF7860BF
:1025A00007F10C0300221A605A609A60DA607B68B7
:1025B000FB6001233B6107237B6107F10C03194694
:1025C000154801F065FC0346002B01D000231FE0F5
:1025D000052000F049F8104801F0DAFA0A210E4807
:1025E00001F0BDFB0C4801F045FC0B4801F084FBF9
:1025F000094801F0CDFA0A21074801F0B0FB06486E
:1026000001F038FC0346FB83034801F075FBFB8BAC
:1026100018462037BD4680BD0C02002080B483B030
:1026200000AF78600C4BDB680B4A43F08073D360DB
:102630000A4B1B68094A43F0010313607B68084A90
:10264000A2FB03239B0C074A136000BF0C37BD4657
:102650005DF8047B704700BFF0ED00E0001000E083
:1026600083DE1B43C014002080B485B000AF7860C7
:102670000C4B5B68FB600C4B1A687B6802FB03F336
:10268000BB6000E000BF074B5A68FB68D31ABA680A
:102690009A42F7D800BF00BF1437BD465DF8047BEF
:1026A000704700BF001000E0C014002080B586B065
:1026B00000AFF8600B467A607B817B890022194667
:1026C000F86802F03BF93220FFF7CEFF7868FFF799
:1026D00063FF0346FB827B8901221946F86802F0FA
:1026E0002DF93C20FFF7C0FF7868FFF755FF034640
:1026F000BB827B8900221946F86802F01FF9BA8A6A
:10270000FB8AD31A3B613B69002B02DD3B699BB21C
:1027100000E0002318461837BD4680BD80B586B05E
:1027200000AFF8600B467A607B8100237B61002359
:102730003B6110E07B897A681946F868FFF7B6FFBD
:1027400003461A467B6913447B611420FFF78CFF14
:102750003B6901333B613B690B2BEBDD7B69B3F5D7
:10276000805F02D340F6FF737B617B699BB21846A2
:102770001837BD4680BD000090B591B000AF584BF2
:1027800007F118040FCB84E80F00564B07F108043B
:102790000FCB84E80F00544A3B4692E8030083E8DD
:1027A0000300BB683988BA691846FFF7B7FF0346CC
:1027B000FB86FB687988FA691846FFF7AFFF034686
:1027C000BB863B69B9883A6A1846FFF7A7FF0346FC
:1027D0007B867B69F9887A6A1846FFF79FFF034674
:1027E0003B86424AFB8E1381404ABB8E53803F4A50
:1027F0007B8ED3803D4A3B8E93800023FB63002376
:10280000BB630AE00020FFF7C7FE03461A46FB6BD6
:102810001344FB63BB6B0133BB63BB6B072BF1DD65
:10282000FB6BDB089AB2314B1A8000F061F803466B
:10283000002B04D0002000F071FC034601E04FF4AF
:10284000FA63FB8500F054F80346002B04D0012006
:1028500000F064FC034601E04FF4FA63BB8500F02E
:1028600047F80346002B04D0022000F057FC034633
:1028700001E040F2DC537B8500F03AF80346002B80
:1028800004D0032000F04AFC034601E040F2DC5390
:102890003B85FA8EFB8D9A4203D8BA8EBB8D9A4245
:1028A00001D9012300E0002303F00103DAB20F4B4A
:1028B0009A727A8E7B8D9A428CBF01230023DAB202
:1028C0000A4BDA723A8E3B8D9A428CBF0123002369
:1028D000DAB2064B1A7300BF4437BD4690BD00BF45
:1028E0001CBF00082CBF00083CBF000828140020B3
:1028F00080B400AF034B93F822301846BD465DF814
:10290000047B70478C140020B0B58EB000AF4B48EC
:10291000FEF76CFB4A4B5B6C03F48073002B03D017
:102920004848FEF763FB02E04748FEF75FFB444B75
:102930001B6B03F00103002B03D04448FEF756FB4A
:1029400002E04348FEF752FB424B1B6C012B03D1C4
:102950004148FEF74BFB05E03E4B1B6C19463F48D8
:10296000FEF75AFB3E48FEF741FB3E4B07F12004C1
:102970001D460FCD0FC42B6823603B4B07F10C04A1
:102980001D460FCD0FC42B68236000237B634BE0F3
:102990007B6B9B0038333B4453F8183C1846FFF7D9
:1029A000FBFD03461A467B6B5B0038333B4423F840
:1029B000382C7B6B9B0038333B4453F82C1C7B6BCF
:1029C0009B0038333B4453F8183C002B1FD07B6BE3
:1029D0009B0038333B4453F8183C022B15D07B6BDB
:1029E0009B0038333B4453F8183C032B0BD07B6BD4
:1029F0009B0038333B4453F8183C042B01D104228C
:102A000006E0052204E0032202E0022200E00022A8
:102A10007B6B5B0038333B4433F8383C1348FEF79C
:102A2000FBFA7B6B01337B637B6B042BB0DD1048BF
:102A3000FEF7DCFA00BF3837BD46B0BD4CC1000818
:102A40000038024070C100088CC10008A8C100080D
:102A5000C4C100080C020020E0C10008F8C1000851
:102A600010C2000840C200088CC2000830C2000832
:102A700028C1000890B5A7B000AFA048FEF7B6FA8D
:102A8000342200219E4806F0C1F89E48FEF7AEFAB7
:102A90009D4B1B6C012B0CD09C48FEF7A7FA9A4863
:102AA00001F032F80346002B03D09948FEF79EFA56
:102AB000F3E2984B5B6C03F48073002B03D19648D0
:102AC000FEF794FAE9E2934B1B6B03F00103002B32
:102AD00003D19248FEF78AFADFE29148FEF786FAC0
:102AE0009048FEF783FAFFF737FD642000F0E8FF17
:102AF00007F1440300221A605A609A60DA603223B8
:102B0000FB660023C7F8943027E00520FFF744FD5B
:102B100003461A467B6C13447B640220FFF73CFD9E
:102B200003461A46BB6C1344BB640420FFF734FD14
:102B300003461A46FB6C1344FB640320FFF72CFD8D
:102B400003461A463B6D13443B650A2000F0B8FF6C
:102B5000D7F894300133C7F89430D7F89430FA6E30
:102B60009A42D2D87A6CFB6EB2FBF3F39AB2644B02
:102B70001A80BA6CFB6EB2FBF3F39AB2604B5A80C8
:102B8000FA6CFB6EB2FBF3F39AB25D4B9A803A6D2E
:102B9000FB6EB2FBF3F39AB2594BDA806248FEF750
:102BA00025FA574B1B8819466048FEF735FA544BF7
:102BB0005B8819465E48FEF72FFA514B9B881946F1
:102BC0005C48FEF729FA4E4BDB8819465A48FEF757
:102BD00023FA5A48FEF70AFA07F13C0300221A606A
:102BE0005A6007F12C0300221A605A609A60DA607A
:102BF000534B07F11C040FCB84E80F00514B07F136
:102C00000C040FCB84E80F004F4A3B1D92E80300F1
:102C100083E80300FFF7A0FC0023C7F8903005E12C
:102C20001423FB650023C7F88C304FF6FF73A7F819
:102C30008A300023A7F888300023C7F88430ABE03F
:102C4000D7F890309B0098333B4453F88C0CD7F85E
:102C500090305B0098333B4433F8943C0022194693
:102C600001F06CFED7F890309B0098333B4453F84A
:102C70007C3C1846FFF790FC0346A7F85A30D7F87B
:102C800090309B0098333B4453F88C0CD7F890302D
:102C90005B0098333B4433F8943C0122194601F021
:102CA0004DFED7F890309B0098333B4453F87C3C62
:102CB0001846FFF771FC0346A7F85830D7F8903054
:102CC0009B0098333B4453F88C0CD7F890305B0052
:102CD00098333B4433F8943C0022194601F02EFE11
:102CE000B7F85820B7F85A309A422FD9B7F8582079
:102CF000B7F85A30D31A9BB229E000BF5CC3000872
:102D00008C14002084C300080C020020A8C3000813
:102D1000DCC300080038024008C4000824C40008CE
:102D200040C4000864C40008A0C40008C4C400086B
:102D3000D8C40008ECC4000800C5000814C5000889
:102D40001CBF00082CBF00083CBF00080023A7F8E8
:102D50005630B7F85630D7F88C201344C7F88C306B
:102D6000B7F85620B7F88A309A4203D2B7F85630EF
:102D7000A7F88A30B7F85620B7F888309A4203D9B6
:102D8000B7F85630A7F88830022000F099FED7F83F
:102D900084300133C7F88430D7F88420FB6D9A4221
:102DA000FFF64EAFFB6DD7F88C20B2FBF3F39AB26F
:102DB000D7F890305B0098333B4423F85C2CB7F88D
:102DC0008820B7F88A30D31A07EE903AF8EEE77AFF
:102DD000D7F890309B0098333B446C3BC3ED007AAE
:102DE000D7F890309B0098333B446C3B1A68AC4951
:102DF000D7F8903008339B000B4404331A60A84A7C
:102E0000D7F8903008335B001344B7F88A205A8013
:102E1000A34AD7F890300C335B001344B7F88820EE
:102E20005A80D7F890300133C7F89030D7F89030F7
:102E3000032B7FF7F5AE9B48FEF7D8F8BB8F1C46F7
:102E4000FB6A1846FDF788FB02460B46214696486A
:102E5000FEF7E2F8FB8F1C463B6B1846FDF77CFB48
:102E600002460B4621469148FEF7D6F8B7F84030A7
:102E70001C467B6B1846FDF76FFB02460B4621464E
:102E80008B48FEF7C9F8B7F842301C46BB6B1846B2
:102E9000FDF762FB02460B4621468648FEF7BCF86A
:102EA0008548FEF7A3F80023C7F8803057E0D7F82D
:102EB0008030012B01DC814B00E0814B7B66784A3E
:102EC000D7F8803008339B0013440433D3ED007AE5
:102ED000B0EE087A67EE877AC7ED187AD7F88030B7
:102EE0005B0098333B4433F85C3C07EE903AB8EE15
:102EF000677AD7ED197A67EE277A97ED187A77EE29
:102F0000277AC7ED1F7AD7ED1F7A9FED6E7AF4EE20
:102F1000C77AF1EE10FA01D56B4BFB67D7ED1F7A3C
:102F20009FED6A7AF4EEC77AF1EE10FA01DD684B94
:102F3000FB67D7ED1F7AB6EE007A77EE877AFCEE64
:102F4000E77A17EE903A99B2554AD7F880300433B1
:102F500022F81310D7F880300133C7F88030D7F843
:102F60008030032BA3DD5B48FEF740F84C4B1B89F8
:102F700019465948FEF750F8494B5B89194657489E
:102F8000FEF74AF8464B9B8919465548FEF744F828
:102F9000434BDB8919465348FEF73EF85248FEF78B
:102FA00025F80023BB6700237B670DE00020FFF7B7
:102FB000F3FA03461A46BB6F1344BB670A2000F0BE
:102FC0007FFD7B6F01337B677B6F132BEEDDBB6F68
:102FD000464AA2FB03231B099AB2314B1A82304B9B
:102FE0001B8A07EE903AF8EEE77A9FED417A27EEDA
:102FF000877ADFED406AC7EE267AC7ED1A7A284B4A
:103000001B8A1C46B86EFDF7A7FA02460B462146FE
:103010003948FEF701F8012387F87330D7ED1A7AA3
:10302000B0EE087AF4EEC77AF1EE10FA06D533481E
:10303000FDF7DCFF002387F8733012E0D7ED1A7A32
:10304000B1EE027AF4EEC77AF1EE10FA06DD2C4802
:10305000FDF7CCFF002387F8733002E02948FDF725
:10306000C5FF0F4A97F8733082F82230FFF774FAE1
:103070000B4B93F82230002B06D02348FDF7B6FF08
:103080002248FDF7B3FF05E02148FDF7AFFF2148D7
:10309000FDF7ACFF2048FDF7A9FF9C37BD4690BD6A
:1030A0008C1400204CC5000870C5000894C50008A9
:1030B000B8C50008DCC5000800C60008CDCCCC3E71
:1030C0009A99993E000070420000704200C05A4533
:1030D00000C05A4534C6000854C6000868C6000837
:1030E0007CC6000890C60008A4C60008CDCCCCCC95
:1030F0003333534000008045D4C60008F4C60008AE
:103100001CC7000840C7000858C7000890C700083F
:10311000C8C7000804C800083CC8000880B483B0D1
:1031200000AF78607B68002B0ADB7B68032B07DC31
:103130000D4B93F8223083F00103DBB2002B08D053
:103140007B68012B02DC4FF4FA6307E040F2DC53AA
:1031500004E0054A7B68043332F8133018460C3714
:10316000BD465DF8047B70478C14002080B483B0AA
:1031700000AF00237B60104B5B6C0F4A43F480432D
:1031800053640D4B5B6C03F480437B607B680023CE
:103190003B60094B1B6C084A43F080531364064B99
:1031A0001B6C03F080533B603B6800BF0C37BD468F
:1031B0005DF8047B704700BF0038024080B58AB0DC
:1031C00000AF786007F1140300221A605A609A6019
:1031D000DA601A617B681B68174A934227D1002383
:1031E0003B61164B5B6C154A43F480735364134B7D
:1031F0005B6C03F480733B613B690023FB600F4B06
:103200001B6B0E4A43F0010313630C4B1B6B03F063
:103210000103FB60FB683D237B610323BB6100234B
:10322000FB6107F114031946054801F003FA00BFDA
:103230002837BD4680BD00BF002001400038024055
:103240000000024080B58AB000AF786007F1140337
:1032500000221A605A609A60DA601A617B681B6803
:10326000194A93422CD100233B61184B1B6C174A1F
:1032700043F480431364154B1B6C03F480433B61A0
:103280003B690023FB60114B1B6B104A43F00203A8
:1032900013630E4B1B6B03F00203FB60FB684FF4E0
:1032A00060437B610223BB610023FB6103233B621C
:1032B00005237B6207F114031946054801F0BAF9AA
:1032C00000BF2837BD4680BD0038004000380240AE
:1032D0000004024080B584B000AF78607B681B6852
:1032E000184A934216D10023FB60174B5B6C164AB9
:1032F00043F001035364144B5B6C03F00103FB6068
:10330000FB6800220721192001F0CBF8192001F0F9
:10331000E4F812E07B681B680C4A93420DD100234D
:10332000BB60094B1B6C084A43F002031364064B55
:103330001B6C03F00203BB60BB6800BF1037BD46C7
:1033400080BD00BF00000140003802400004004082
:1033500080B58CB000AF786007F11C0300221A60C2
:103360005A609A60DA601A617B681B68B3F1804F1B
:103370004BD10023BB613F4B1B6C3E4A43F0010322
:1033800013643C4B1B6C03F00103BB61BB6900235E
:103390007B61384B1B6B374A43F001031363354B9A
:1033A0001B6B03F001037B617B6900233B61314BA5
:1033B0001B6B304A43F0020313632E4B1B6B03F06D
:1033C00002033B613B694FF40043FB6102233B6214
:1033D00000237B620023BB620123FB6207F11C0315
:1033E0001946254801F026F90823FB6102233B62B8
:1033F00000237B620023BB620123FB6207F11C03F5
:1034000019461E4801F016F930E07B681B681C4A1B
:1034100093422BD10023FB60164B1B6C154A43F0E3
:1034200004031364134B1B6C03F00403FB60FB6881
:103430000023BB600F4B1B6B0E4A43F00203136368
:103440000C4B1B6B03F00203BB60BB68C023FB612A
:1034500002233B6200237B620023BB620223FB62E8
:1034600007F11C031946054801F0E4F800BF3037A6
:10347000BD4680BD0038024000000240000402400A
:103480000008004080B58AB000AF786007F11403EF
:1034900000221A605A609A60DA601A617B681B68C1
:1034A000334A93421FD100233B61324B1B6B314A9D
:1034B00043F0010313632F4B1B6B03F001033B61CC
:1034C0003B694FF480637B610223BB610023FB6196
:1034D00000233B6201237B6207F11403194626484F
:1034E00001F0A8F840E07B681B68244A93423BD176
:1034F0000023FB601F4B1B6B1E4A43F00103136349
:103500001C4B1B6B03F00103FB60FB680023BB60DB
:10351000184B1B6B174A43F002031363154B1B6BCD
:1035200003F00203BB60BB68C0237B610223BB6165
:103530000023FB6100233B6202237B6207F114033B
:1035400019460D4801F076F803237B610223BB6125
:103550000023FB6100233B6202237B6207F114031B
:103560001946074801F066F800BF2837BD4680BD00
:10357000000001400038024000000240000400400A
:103580000004024080B58AB000AF786007F11403F0
:1035900000221A605A609A60DA601A617B681B68C0
:1035A0001D4A934234D100233B611C4B5B6C1B4A88
:1035B00043F020035364194B5B6C03F020033B6121
:1035C0003B690023FB60154B1B6B144A43F001035E
:1035D0001363124B1B6B03F00103FB60FB684FF49A
:1035E000C0537B610223BB610023FB6103233B6269
:1035F00008237B6207F114031946094801F01AF801
:1036000000220621472000F04CFF472000F065FF14
:1036100000BF2837BD4680BD00140140003802407D
:103620000000024080B400AF00BFFDE780B400AFEF
:1036300000BFFDE780B400AF00BFFDE780B400AF7E
:1036400000BFFDE780B400AF00BFFDE780B400AF6E
:1036500000BFBD465DF8047B704780B400AF00BF7B
:10366000BD465DF8047B704780B400AF00BFBD4627
:103670005DF8047B704780B500AF00F001FA00BF31
:1036800080BD80B500AF022001F08CF900BF80BD85
:1036900080B500AF024802F0B7FE00BF80BD00BF9A
:1036A000AC02002080B500AF4FF4806001F07AF9E1
:1036B00000BF80BD80B500AF024803F0D3FD00BF5E
:1036C00080BD00BFCC03002080B400AF01231846AA
:1036D000BD465DF8047B704780B582B000AF78606E
:1036E000396005F0E5FA034616221A604FF0FF3301
:1036F00018460837BD4680BD80B582B000AF7860FF
:103700004FF0FF317868FFF7E7FF00BFFDE780B5B6
:1037100086B000AFF860B9607A6000237B610AE090
:10372000AFF300800146BB685A1CBA60CAB21A7077
:103730007B6901337B617A697B689A42F0DB7B6845
:1037400018461837BD4680BD80B586B000AFF8601A
:10375000B9607A6000237B6109E0BB685A1CBA60DB
:103760001B781846AFF300807B6901337B617A696F
:103770007B689A42F1DB7B6818461837BD4680BDEE
:1037800080B483B000AF78604FF0FF3318460C3739
:10379000BD465DF8047B704780B483B000AF7860AD
:1037A00039603B684FF400525A60002318460C37CA
:1037B000BD465DF8047B704780B483B000AF78608D
:1037C000012318460C37BD465DF8047B704780B472
:1037D00085B000AFF860B9607A60002318461437EE
:1037E000BD465DF8047B704780B586B000AF786059
:1037F000144A154BD31A7B617B693B61134B1B68E1
:10380000002B02D1114B124A1A60104B1A687B68C8
:1038100013443A699A4207D205F04AFA03460C2249
:103820001A604FF0FF3309E0084B1B68FB60074B41
:103830001A687B681344054A1360FB6818461837FA
:10384000BD4680BD0000022000040000C41400201A
:103850001816002080B400AF064BD3F88830054A14
:1038600043F47003C2F8883000BFBD465DF8047BA6
:10387000704700BF00ED00E080B582B000AF0346A6
:103880000A46FB711346BB71FB79002B14BF012361
:103890000023DBB21A461021084801F04FF8BB792B
:1038A000002B14BF01230023DBB21A46202103485A
:1038B00001F044F800BF0837BD4680BD0004024057
:1038C00080B582B000AF00237B6010E000210120B2
:1038D000FFF7D2FF962000F0F3F801210020FFF758
:1038E000CBFF962000F0ECF87B6801337B607B68AF
:1038F000022BEBDD00210020FFF7BEFF00BF0837E1
:10390000BD4680BD80B582B000AF0123FB711A4B6C
:103910001B8840F6B732934206D81848FDF766FB7D
:10392000FDF74AFB0023FB71134B1B89002B10D1C1
:10393000114B5B88002B0CD10F4BDB88002B08D17F
:103940000D4B9B88002B04D10D48FDF74FFB002346
:10395000FB717520FDF7F0FB0346BB71BB79712B42
:1039600004D00848FDF742FB0023FB71FB791846A1
:103970000837BD4680BD00BF281400208CC8000851
:10398000B0C80008D8C80008DFF834D0FFF762FFDD
:103990000C480D490D4A002302E0D458C4500433AA
:1039A000C4188C42F9D30A4A0A4C002301E0136080
:1039B0000432A242FBD305F081F9FDF7B1FF704755
:1039C0000000022000000020D8010020BCCC00082C
:1039D000D801002018160020FEE7000080B500AFD7
:1039E0000E4B1B680D4A43F4007313600B4B1B68AE
:1039F0000A4A43F480631360084B1B68074A43F488
:103A000080731360032000F041FD0F2000F008F8E0
:103A1000FFF7ACFB0023184680BD00BF003C02400E
:103A200080B582B000AF7860124B1A68124B1B78D9
:103A300019464FF47A73B3FBF1F3B2FBF3F3184674
:103A400000F059FD0346002B01D001230EE07B68F6
:103A50000F2B0AD8002279684FF0FF3000F021FDCB
:103A6000064A7B681360002300E0012318460837EC
:103A7000BD4680BD040000200C000020080000208E
:103A800080B400AF064B1B781A46064B1B681344E4
:103A9000044A136000BFBD465DF8047B704700BF59
:103AA0000C000020C814002080B400AF034B1B683A
:103AB0001846BD465DF8047B704700BFC81400205F
:103AC00080B584B000AF7860FFF7EEFFB8607B6828
:103AD000FB60FB68B3F1FF3F05D00A4B1B781A4629
:103AE000FB681344FB6000BFFFF7DEFF0246BB68C4
:103AF000D31AFA689A42F7D800BF00BF1037BD4604
:103B000080BD00BF0C00002080B584B000AF78609D
:103B10000023FB737B68002B01D1012333E07B681A
:103B20001B6C002B09D17868FFF748FB7B680022EB
:103B30005A647B68002283F83C207B681B6C03F08E
:103B40001003002B18D17B681B6C23F4885323F0DF
:103B5000020343F002027B681A64786800F0CAFA34
:103B60007B6800225A647B681B6C23F0030343F0DC
:103B700001027B681A6401E00123FB737B68002269
:103B800083F83C20FB7B18461037BD4680BD000003
:103B900080B485B000AF78600023BB607B6893F889
:103BA0003C30012B01D1022397E07B68012283F88E
:103BB0003C207B681B689B6803F00103012B18D035
:103BC0007B681B689A687B681B6842F001029A60F8
:103BD000454B1B68454AA2FB03239A0C13465B0026
:103BE0001344BB6002E0BB68013BBB60BB68002BB9
:103BF000F9D17B681B689B6803F00103012B5FD13F
:103C00007B681B6C23F4E06323F0010343F48072B0
:103C10007B681A647B681B685B6803F48063002B15
:103C200007D07B681B6C23F4405343F480527B68BD
:103C30001A647B681B6C03F48053B3F5805F06D174
:103C40007B685B6C23F006027B685A6402E07B6849
:103C500000225A647B68002283F83C20244BFB60DE
:103C60007B681B686FF022021A60FB685B6803F0D8
:103C70001F03002B0FD17B681B689B6803F0405328
:103C8000002B29D17B681B689A687B681B6842F00F
:103C900080429A6020E07B681B68164A93421BD1E1
:103CA0007B681B689B6803F04053002B14D17B6832
:103CB0001B689A687B681B6842F080429A600BE040
:103CC0007B681B6C43F010027B681A647B685B6C3A
:103CD00043F001027B685A64002318461437BD463E
:103CE0005DF8047B704700BF0400002083DE1B43A7
:103CF000002301400020014080B483B000AF786011
:103D00007B6893F83C30012B01D1022321E07B68D2
:103D1000012283F83C207B681B689A687B681B68DB
:103D200022F001029A607B681B689B6803F0010324
:103D3000002B09D17B681B6C23F4885323F001030B
:103D400043F001027B681A647B68002283F83C2000
:103D5000002318460C37BD465DF8047B704780B5DC
:103D600084B000AF786039600023FB607B681B681B
:103D70009B6803F48063B3F5806F13D17B681B6885
:103D80009B6803F48073B3F5807F0BD17B681B6C59
:103D900043F020027B681A647B68002283F83C2091
:103DA000012363E0FFF780FEF86021E03B68B3F198
:103DB000FF3F1DD03B68002B07D0FFF775FE024682
:103DC000FB68D31A3A689A4212D27B681B681B6858
:103DD00003F00203022B0BD07B681B6C43F0040240
:103DE0007B681A647B68002283F83C2003233DE053
:103DF0007B681B681B6803F00203022BD6D17B682B
:103E00001B686FF012021A607B681B6C43F400722F
:103E10007B681A647B681B689B6803F04053002B27
:103E200023D17B681B7E002B1FD17B681B68DB6A5C
:103E300003F47003002B06D07B681B689B6803F4B7
:103E40008063002B11D17B681B6C23F480727B682C
:103E50001A647B681B6C03F48053002B05D17B68CC
:103E60001B6C43F001027B681A640023184610376C
:103E7000BD4680BD80B483B000AF78607B681B68AE
:103E8000DB6C18460C37BD465DF8047B70470000BC
:103E900080B485B000AF786039600023BB607B6878
:103EA00093F83C30012B01D1022313E17B680122FE
:103EB00083F83C203B681B68092B25D97B681B686D
:103EC000D9683B681B689BB21A4613465B001344D3
:103ED0001E3B072202FA03F3DA437B681B680A40A1
:103EE000DA607B681B68D9683B689A683B681B6826
:103EF0009BB2184603465B0003441E3B9A407B6816
:103F00001B680A43DA6022E07B681B6819693B681A
:103F10001B689BB21A4613465B001344072202FA41
:103F200003F3DA437B681B680A401A617B681B68ED
:103F300019693B689A683B681B689BB21846034640
:103F40005B0003449A407B681B680A431A613B6824
:103F50005B68062B24D87B681B68596B3B685A68E2
:103F600013469B001344053B1F2202FA03F3DA4376
:103F70007B681B680A405A637B681B68596B3B6807
:103F80001B689BB218463B685A6813469B00134453
:103F9000053B00FA03F27B681B680A435A634CE056
:103FA0003B685B680C2B24D87B681B68196B3B68EB
:103FB0005A6813469B001344233B1F2202FA03F363
:103FC000DA437B681B680A401A637B681B68196BBD
:103FD0003B681B689BB218463B685A6813469B00B7
:103FE0001344233B00FA03F27B681B680A431A63FD
:103FF00023E07B681B68D96A3B685A6813469B00BC
:104000001344413B1F2202FA03F3DA437B681B6827
:104010000A40DA627B681B68D96A3B681B689BB2FE
:1040200018463B685A6813469B001344413B00FA0C
:1040300003F27B681B680A43DA62294BFB607B68EA
:104040001B68284A93420FD13B681B68122B0BD187
:10405000FB685B6823F40002FB685A60FB685B68DE
:1040600043F48002FB685A607B681B681D4A9342D8
:104070002BD13B681B681C4A934203D03B681B68EA
:10408000112B22D1FB685B6823F48002FB685A6025
:10409000FB685B6843F40002FB685A603B681B687E
:1040A000114A934211D1114B1B68114AA2FB032301
:1040B0009A0C13469B0013445B00BB6002E0BB6894
:1040C000013BBB60BB68002BF9D17B68002283F801
:1040D0003C20002318461437BD465DF8047B70472A
:1040E00000230140002001401200001004000020C5
:1040F00083DE1B4380B485B000AF7860794BFB60F2
:10410000FB685B6823F44032FB685A60FB685A68BE
:104110007B685B681A43FB685A607B681B685A6857
:104120007B681B6822F480725A607B681B68596840
:104130007B681B691A027B681B680A435A607B68AC
:104140001B685A687B681B6822F040725A607B6863
:104150001B6859687B689A687B681B680A435A60C9
:104160007B681B689A687B681B6822F400629A600F
:104170007B681B6899687B68DA687B681B680A4300
:104180009A607B689B6A584A934222D07B681B687E
:104190009A687B681B6822F070629A607B681B6873
:1041A00099687B689A6A7B681B680A439A607B6897
:1041B0001B689A687B681B6822F040529A607B6893
:1041C0001B6899687B68DA6A7B681B680A439A6097
:1041D0000FE07B681B689A687B681B6822F070623E
:1041E0009A607B681B689A687B681B6822F0405263
:1041F0009A607B681B689A687B681B6822F00202E1
:104200009A607B681B6899687B681B7E5A007B6894
:104210001B680A439A607B6893F82030002B1BD000
:104220007B681B685A687B681B6842F400625A60AE
:104230007B681B685A687B681B6822F460425A607E
:104240007B681B6859687B685B6A013B5A037B6823
:104250001B680A435A6007E07B681B685A687B68E2
:104260001B6822F400625A607B681B68DA6A7B680C
:104270001B6822F47002DA627B681B68D96A7B686B
:10428000DB69013B1A057B681B680A43DA627B68BD
:104290001B689A687B681B6822F400729A607B68CE
:1042A0001B6899687B6893F830305A027B681B68FA
:1042B0000A439A607B681B689A687B681B6822F4D3
:1042C00080629A607B681B6899687B685B699A0268
:1042D0007B681B680A439A6000BF1437BD465DF8CF
:1042E000047B7047002301400100000F80B485B0BB
:1042F00000AF78607B6803F00703FB600C4BDB6862
:10430000BB60BA684FF6FF031340BB60FB681A023C
:10431000BB68134343F0BF6343F40033BB60044AFC
:10432000BB68D36000BF1437BD465DF8047B70479F
:1043300000ED00E080B400AF044BDB681B0A03F023
:1043400007031846BD465DF8047B704700ED00E0AA
:1043500080B483B000AF0346FB7197F90730002BA0
:104360000BDBFB7903F01F02074997F907305B0964
:10437000012000FA02F241F8232000BF0C37BD46AD
:104380005DF8047B704700BF00E100E080B483B0BB
:1043900000AF03463960FB7197F90730002B0ADB49
:1043A0003B68DAB20C4997F907301201D2B20B44DC
:1043B00083F800230AE03B68DAB20849FB7903F08E
:1043C0000F03043B1201D2B20B441A7600BF0C3724
:1043D000BD465DF8047B704700E100E000ED00E0C1
:1043E00080B489B000AFF860B9607A60FB6803F010
:1043F0000703FB61FB69C3F10703042B28BF0423F8
:10440000BB61FB690433062B02D9FB69033B00E067
:1044100000237B614FF0FF32BB6902FA03F3DA43FA
:10442000BB681A407B699A404FF0FF317B6901FA03
:1044300003F3D9437B680B40134318462437BD462A
:104440005DF8047B7047000080B582B000AF7860F3
:104450007B68013BB3F1807F01D301230FE00A4A5F
:104460007B68013B53600F214FF0FF30FFF78EFF59
:10447000054B00229A60044B07221A60002318465D
:104480000837BD4680BD00BF10E000E080B582B0B7
:1044900000AF78607868FFF729FF00BF0837BD4696
:1044A00080BD80B586B000AF0346B9607A60FB730B
:1044B00000237B61FFF73EFF78617A68B96878690D
:1044C000FFF78EFF024697F90F3011461846FFF7A7
:1044D0005DFF00BF1837BD4680BD80B582B000AF1C
:1044E0000346FB7197F907301846FFF731FF00BF0D
:1044F0000837BD4680BD80B582B000AF786078686F
:10450000FFF7A2FF034618460837BD4680BD80B5B9
:1045100084B000AF78607B689B6DFB60FFF7C4FAE6
:10452000B8607B6893F83530DBB2022B08D07B682B
:1045300080225A657B68002283F83420012352E0F0
:104540007B681B681A687B681B6822F016021A6079
:104550007B681B685A697B681B6822F080025A617D
:104560007B681B6C002B03D17B689B6C002B07D0F6
:104570007B681B681A687B681B6822F008021A6057
:104580007B681B681A687B681B6822F001021A604E
:1045900013E0FFF789FA0246BB68D31A052B0CD942
:1045A0007B6820225A657B68032283F835207B686C
:1045B000002283F83420032315E07B681B681B6806
:1045C00003F00103002BE4D17B68DB6D3F229A40AE
:1045D000FB689A607B68012283F835207B680022A3
:1045E00083F83420002318461037BD4680BD80B4C0
:1045F00083B000AF78607B6893F83530DBB2022B74
:1046000004D07B6880225A6501230CE07B68052278
:1046100083F835207B681B681A687B681B6822F06A
:1046200001021A60002318460C37BD465DF8047B72
:104630007047000080B489B000AF78603960002313
:104640007B6100233B610023BB610023FB6159E1D7
:104650000122FB6902FA03F37B613B681B687A69FC
:1046600013403B613A697B699A4240F048813B685C
:104670005B6803F00303012B05D03B685B6803F024
:104680000303022B30D17B689B68BB61FB695B0035
:10469000032202FA03F3DB43BA691340BB613B68B0
:1046A000DA68FB695B0002FA03F3BA691343BB6182
:1046B0007B68BA699A607B685B68BB610122FB69B1
:1046C00002FA03F3DB43BA691340BB613B685B68E2
:1046D0001B0903F00102FB6902FA03F3BA691343F1
:1046E000BB617B68BA695A603B685B6803F003038F
:1046F000032B17D07B68DB68BB61FB695B0003227F
:1047000002FA03F3DB43BA691340BB613B689A6862
:10471000FB695B0002FA03F3BA691343BB617B6870
:10472000BA69DA603B685B6803F00303022B23D1AC
:10473000FB69DA087B68083253F82230BB61FB69F9
:1047400003F007039B000F2202FA03F3DB43BA696D
:104750001340BB613B681A69FB6903F007039B00C8
:1047600002FA03F3BA691343BB61FB69DA087B6899
:104770000832B96943F822107B681B68BB61FB698A
:104780005B00032202FA03F3DB43BA691340BB6107
:104790003B685B6803F00302FB695B0002FA03F30A
:1047A000BA691343BB617B68BA691A603B685B688E
:1047B00003F44033002B00F0A2800023FB60574B32
:1047C0005B6C564A43F480435364544B5B6C03F474
:1047D0008043FB60FB68524AFB699B08023352F836
:1047E0002330BB61FB6903F003039B000F2202FA35
:1047F00003F3DB43BA691340BB617B68494A9342C8
:1048000019D07B68484A934213D07B68474A934249
:104810000DD07B68464A934207D07B68454A934255
:1048200001D1042308E0072306E0032304E0022368
:1048300002E0012300E00023FA6902F00302920083
:104840009340BA691343BB613549FB699B08023346
:10485000BA6941F82320384B9B68BB613B69DB4355
:10486000BA691340BB613B685B6803F48013002B9B
:1048700003D0BA693B691343BB612F4ABB6993609C
:104880002D4BDB68BB613B69DB43BA691340BB61FD
:104890003B685B6803F40013002B03D0BA693B69E3
:1048A0001343BB61244ABB69D360234B5B68BB6184
:1048B0003B69DB43BA691340BB613B685B6803F447
:1048C0000033002B03D0BA693B691343BB611A4A1A
:1048D000BB695360184B1B68BB613B69DB43BA691A
:1048E0001340BB613B685B6803F48033002B03D04B
:1048F000BA693B691343BB610F4ABB691360FB692B
:104900000133FB61FB690F2B7FF6A2AE00BF00BF36
:104910002437BD465DF8047B704700BF0038024075
:10492000003801400000024000040240000802403C
:10493000000C024000100240003C014080B483B0F3
:1049400000AF78600B467B8013467B707B78002B32
:1049500003D07A887B689A6103E07B881A047B68BD
:104960009A6100BF0C37BD465DF8047B704780B488
:1049700085B000AF78600B467B807B685B69FB602D
:104980007A88FB6813401A04FB68D9437B880B4084
:104990001A437B689A6100BF1437BD465DF8047BFB
:1049A0007047000080B582B000AF0346FB80084B23
:1049B0005A69FB881340002B06D0054AFB885361D7
:1049C000FB881846FDF7BCFB00BF0837BD4680BD1D
:1049D000003C014080B586B000AF78607B68002B5A
:1049E00001D1012367E27B681B6803F00103002B00
:1049F00075D0884B9B6803F00C03042B0CD0854BBF
:104A00009B6803F00C03082B12D1824B5B6803F404
:104A10008003B3F5800F0BD17E4B1B6803F400338A
:104A2000002B5BD07B685B68002B57D1012342E2EF
:104A30007B685B68B3F5803F06D1764B1B68754A8F
:104A400043F4803313601DE07B685B68B3F5A02FEF
:104A50000CD1704B1B686F4A43F4802313606D4B7D
:104A60001B686C4A43F4803313600BE0694B1B688E
:104A7000684A23F480331360664B1B68654A23F44D
:104A8000802313607B685B68002B13D0FFF70CF862
:104A9000386108E0FFF708F802463B69D31A642B37
:104AA00001D9032307E25B4B1B6803F40033002B9F
:104AB000F0D014E0FEF7F8FF386108E0FEF7F4FFED
:104AC00002463B69D31A642B01D90323F3E1514B0E
:104AD0001B6803F40033002BF0D100E000BF7B68BB
:104AE0001B6803F00203002B63D04A4B9B6803F062
:104AF0000C03002B0BD0474B9B6803F00C03082BD7
:104B00001CD1444B5B6803F48003002B16D1414B4E
:104B10001B6803F00203002B05D07B68DB68012BC8
:104B200001D00123C7E13B4B1B6823F0F8027B68EF
:104B30001B69DB00374913430B603AE07B68DB6895
:104B4000002B20D0344B01221A60FEF7ADFF3861F4
:104B500008E0FEF7A9FF02463B69D31A022B01D9F0
:104B60000323A8E12B4B1B6803F00203002BF0D0BA
:104B7000284B1B6823F0F8027B681B69DB00254982
:104B800013430B6015E0244B00221A60FEF78CFFE4
:104B9000386108E0FEF788FF02463B69D31A022B12
:104BA00001D9032387E11B4B1B6803F00203002B91
:104BB000F0D17B681B6803F00803002B36D07B68BC
:104BC0005B69002B16D0154B01221A60FEF76CFFB3
:104BD000386108E0FEF768FF02463B69D31A022BF2
:104BE00001D9032367E10B4B5B6F03F00203002B3A
:104BF000F0D01BE0094B00221A60FEF755FF386128
:104C00000EE0FEF751FF02463B69D31A022B07D98B
:104C1000032350E10038024000004742800E474223
:104C2000884B5B6F03F00203002BEAD17B681B68A3
:104C300003F00403002B00F097800023FB75814BE9
:104C40001B6C03F08053002B0FD10023BB607D4B06
:104C50001B6C7C4A43F0805313647A4B1B6C03F04B
:104C60008053BB60BB680123FB75774B1B6803F463
:104C70008073002B18D1744B1B68734A43F4807304
:104C80001360FEF711FF386108E0FEF70DFF0246E2
:104C90003B69D31A022B01D903230CE16A4B1B6831
:104CA00003F48073002BF0D07B689B68012B06D146
:104CB000644B1B6F634A43F0010313671CE07B687E
:104CC0009B68052B0CD15F4B1B6F5E4A43F00403BE
:104CD00013675C4B1B6F5B4A43F0010313670BE0E8
:104CE000584B1B6F574A23F001031367554B1B6F3B
:104CF000544A23F0040313677B689B68002B15D08C
:104D0000FEF7D2FE38610AE0FEF7CEFE02463B69AE
:104D1000D31A41F28832934201D90323CBE0494BA5
:104D20001B6F03F00203002BEED014E0FEF7BCFE75
:104D300038610AE0FEF7B8FE02463B69D31A41F239
:104D40008832934201D90323B5E03E4B1B6F03F039
:104D50000203002BEED1FB7D012B05D1394B1B6CDF
:104D6000384A23F0805313647B689B69002B00F062
:104D7000A180344B9B6803F00C03082B5CD07B684C
:104D80009B69022B41D1314B00221A60FEF78CFE49
:104D9000386108E0FEF788FE02463B69D31A022B11
:104DA00001D9032387E0274B1B6803F00073002B16
:104DB000F0D17B68DA697B681B6A1A437B685B6A9F
:104DC0009B011A437B689B6A5B08013B1B041A43E7
:104DD0007B68DB6A1B061B4913434B601B4B01229C
:104DE0001A60FEF761FE386108E0FEF75DFE0246DC
:104DF0003B69D31A022B01D903235CE0114B1B68DA
:104E000003F00073002BF0D054E0104B00221A6026
:104E1000FEF74AFE386108E0FEF746FE02463B69AF
:104E2000D31A022B01D9032345E0064B1B6803F07C
:104E30000073002BF0D13DE07B689B69012B07D10B
:104E4000012338E000380240007000406000474213
:104E50001B4B5B68FB607B689B69012B28D0FB6860
:104E600003F480027B68DB699A4221D1FB6803F07E
:104E70003F027B681B6A9A421AD1FA6847F6C073F0
:104E800013407A68526A9201934211D1FB6803F48D
:104E900040327B689B6A5B08013B1B049A4207D146
:104EA000FB6803F070627B68DB6A1B069A4201D0E4
:104EB000012300E0002318461837BD4680BD00BF1F
:104EC0000038024080B584B000AF786039607B68FC
:104ED000002B01D10123CCE0684B1B6803F00703D2
:104EE0003A689A420CD9654B3A68D2B21A70634B51
:104EF0001B6803F007033A689A4201D00123B8E027
:104F00007B681B6803F00203002B20D07B681B68C2
:104F100003F00403002B05D0594B9B68584A43F417
:104F2000E05393607B681B6803F00803002B05D0F7
:104F3000534B9B68524A43F460439360504B9B68C9
:104F400023F0F0027B689B684D4913438B607B68BC
:104F50001B6803F00103002B44D07B685B68012BC6
:104F600007D1474B1B6803F40033002B19D10123F1
:104F70007FE07B685B68022B03D07B685B68032B58
:104F800007D13F4B1B6803F00073002B09D10123AD
:104F90006FE03B4B1B6803F00203002B01D10123A0
:104FA00067E0374B9B6823F003027B685B683449FA
:104FB00013438B60FEF778FDF8600AE0FEF774FD9E
:104FC0000246FB68D31A41F28832934201D9032387
:104FD0004FE02B4B9B6803F00C027B685B689B00E7
:104FE0009A42EBD1254B1B6803F007033A689A42BB
:104FF0000CD2224B3A68D2B21A70204B1B6803F0D5
:1050000007033A689A4201D0012332E07B681B68AB
:1050100003F00403002B08D0194B9B6823F4E052E3
:105020007B68DB68164913438B607B681B6803F061
:105030000803002B09D0124B9B6823F460427B6865
:105040001B69DB000E4913438B6000F021F8024618
:105050000B4B9B681B0903F00F030A49CB5C22FA38
:1050600003F3094A1360094B1B681846FEF7D8FC86
:10507000002318461037BD4680BD00BF003C0240EB
:10508000003802401CC9000804000020080000206D
:105090002DE9B04F90B000AF00237B630023FB638A
:1050A00000233B630023BB63594B9B6803F00C0355
:1050B000082B0DD0082B00F2A180002B02D0042B6E
:1050C00003D09BE0534BBB639BE0534BBB6398E027
:1050D0004F4B5B6803F03F037B634D4B5B6803F40E
:1050E0008003002B28D04A4B5B689B0900223B625F
:1050F0007A623B6AC3F308000021474B03FB01F2CD
:10510000002300FB03F31344434AA0FB0212FA629C
:105110000A46BA62FA6A1344FB627B6B0022BB61E7
:10512000FA61D7E90623D7E90A01FBF745FD0246F4
:105130000B461346FB6353E0354B5B689B0900222B
:105140003B617A613B69C3F3080A4FF0000B52469A
:105150005B464FF000004FF00001590141EAD26177
:10516000500102460B46B2EB0A0863EB0B094FF005
:1051700000024FF000034FEA891343EA98634FEAB5
:105180008812B2EB080463EB09054FF000024FF000
:105190000003EB0043EA5473E20014461D4614EB8F
:1051A0000A033B6045EB0B037B604FF000024FF0BE
:1051B0000003D7E9004529468B02214643EA915373
:1051C00021468A02104619467B6B0022BB60FA60BA
:1051D000D7E90223FBF7F0FC02460B461346FB63BC
:1051E0000B4B5B681B0C03F0030301335B003B6359
:1051F000FA6B3B6BB2FBF3F3BB6302E0054BBB63A3
:1052000000BFBB6B18464037BD46BDE8B08F00BF3E
:10521000003802400024F40040787D0180B400AFE3
:10522000034B1B681846BD465DF8047B704700BF02
:105230000400002080B500AFFFF7F0FF0246054BE9
:105240009B689B0A03F007030349CB5C22FA03F334
:10525000184680BD003802402CC9000880B500AF58
:10526000FFF7DCFF0246054B9B685B0B03F007036F
:105270000349CB5C22FA03F3184680BD0038024094
:105280002CC9000880B582B000AF78607B68002B25
:1052900001D101237BE07B685B6A002B08D17B682E
:1052A0005B68B3F5827F09D07B680022DA6105E094
:1052B0007B6800221A617B6800225A617B680022A9
:1052C0009A627B6893F85130DBB2002B06D17B6881
:1052D000002283F850207868FDF7B4FF7B68022233
:1052E00083F851207B681B681A687B681B6822F072
:1052F00040021A607B685B6803F482727B689B687B
:1053000003F404431A437B68DB6803F400631A4325
:105310007B681B6903F002031A437B685B6903F037
:1053200001031A437B689B6903F400731A437B688B
:10533000DB6903F038031A437B681B6A03F08003C0
:1053400042EA03017B689B6A03F400527B681B6896
:105350000A431A607B689B691B0C03F004017B689D
:105360005B6A03F010027B681B680A435A607B6823
:105370001B68DA697B681B6822F40062DA617B686B
:1053800000225A657B68012283F8512000231846C9
:105390000837BD4680BD80B588B000AFF860B96001
:1053A0003B601346FB80FEF77FFBF861FB887B8345
:1053B000FB6893F85130DBB2012B01D002232AE1C4
:1053C000BB68002B02D0FB88002B01D1012322E116
:1053D000FB6893F85030012B01D102231BE1FB68DD
:1053E000012283F85020FB68032283F85120FB68D8
:1053F00000225A65FB68BA681A63FB68FA889A86C5
:10540000FB68FA88DA86FB6800229A63FB68002250
:105410009A87FB680022DA87FB6800225A64FB68DF
:1054200000221A64FB689B68B3F5004F0FD1FB683C
:105430001B681A68FB681B6822F040021A60FB6850
:105440001B681A68FB681B6842F480421A60FB689C
:105450001B681B6803F04003402B07D0FB681B68E8
:105460001A68FB681B6842F040021A60FB68DB6840
:10547000B3F5006F52D1FB685B68002B02D07B8BC9
:10548000012B45D1FB681B6B1A88FB681B68DA602F
:10549000FB681B6B9A1CFB681A63FB68DB8E9BB274
:1054A000013B9AB2FB68DA8632E0FB681B689B68B6
:1054B00003F00203022B12D1FB681B6B1A88FB68F6
:1054C0001B68DA60FB681B6B9A1CFB681A63FB683D
:1054D000DB8E9BB2013B9AB2FB68DA8618E0FEF7DE
:1054E000E3FA0246FB69D31A3A689A4203D83B684A
:1054F000B3F1FF3F02D13B68002B09D1FB680122C9
:1055000083F85120FB68002283F85020032382E0B7
:10551000FB68DB8E9BB2002BC7D153E0FB685B6856
:10552000002B02D07B8B012B47D1FB681A6BFB68E9
:105530001B680C3312781A70FB681B6B5A1CFB68D3
:105540001A63FB68DB8E9BB2013B9AB2FB68DA867A
:1055500033E0FB681B689B6803F00203022B13D146
:10556000FB681A6BFB681B680C3312781A70FB68B7
:105570001B6B5A1CFB681A63FB68DB8E9BB2013BFA
:105580009AB2FB68DA8618E0FEF78EFA0246FB69EB
:10559000D31A3A689A4203D83B68B3F1FF3F02D16D
:1055A0003B68002B09D1FB68012283F85120FB687E
:1055B000002283F8502003232DE0FB68DB8E9BB292
:1055C000002BC6D1FA693968F86800F0D9FB0346A8
:1055D000002B02D0FB6820225A65FB689B68002BD9
:1055E0000AD100237B61FB681B68DB687B61FB6879
:1055F0001B689B687B617B69FB68012283F85120F3
:10560000FB68002283F85020FB685B6D002B01D003
:10561000012300E0002318462037BD4680BD80B539
:1056200088B002AFF860B9603B601346FB80FB684E
:1056300093F85130DBB2012B01D0022304E1BB68A7
:10564000002B02D0FB88002B01D10123FCE0FB687A
:105650005B68B3F5827F12D1FB689B68002B0ED18B
:10566000FB68042283F85120FA883B6800931346B4
:10567000BA68B968F86800F0EBF80346E4E0FEF7B2
:1056800013FA7861FB6893F85030012B01D10223A3
:10569000DAE0FB68012283F85020FB68042283F8DB
:1056A0005120FB6800225A65FB68BA689A63FB6860
:1056B000FA889A87FB68FA88DA87FB6800221A63FF
:1056C000FB6800229A86FB680022DA86FB680022CB
:1056D0001A64FB6800225A64FB689B68B3F5004FAC
:1056E0000FD1FB681B681A68FB681B6822F0400238
:1056F0001A60FB681B681A68FB681B6822F480420A
:105700001A60FB681B681B6803F04003402B07D03E
:10571000FB681B681A68FB681B6842F040021A604D
:10572000FB68DB68002B70D135E0FB681B689B6869
:1057300003F00103012B15D1FB681B6803F10C0278
:10574000FB689B6B1278D2B21A70FB689B6B5A1C79
:10575000FB689A63FB68DB8F9BB2013B9AB2FB68E4
:10576000DA8718E0FEF7A0F902467B69D31A3A6897
:105770009A4203D83B68B3F1FF3F02D13B68002B4C
:1057800009D1FB68012283F85120FB68002283F8CD
:105790005020032358E0FB68DB8F9BB2002BC4D161
:1057A00038E0FB681B689B6803F00103012B13D1F1
:1057B000FB681B68DA68FB689B6B92B21A80FB6817
:1057C0009B6B9A1CFB689A63FB68DB8F9BB2013B67
:1057D0009AB2FB68DA8718E0FEF766F902467B6941
:1057E000D31A3A689A4203D83B68B3F1FF3F02D11B
:1057F0003B68002B09D1FB68012283F85120FB682C
:10580000002283F8502003231EE0FB68DB8F9BB24D
:10581000002BC6D17A693968F86800F04BFA034664
:10582000002B02D0FB6820225A65FB68012283F816
:105830005120FB68002283F85020FB685B6D002B31
:1058400001D0012300E0002318461837BD4680BD73
:1058500080B58AB000AFF860B9607A607B800123C0
:105860007B62FEF721F93862FB6893F85130FB77D1
:10587000FB685B68BB617B88FB82FB7F012B0CD0E4
:10588000BB69B3F5827F06D1FB689B68002B02D110
:10589000FB7F042B01D002237FE1BB68002B05D0E6
:1058A0007B68002B02D07B88002B01D1012374E19F
:1058B000FB6893F85030012B01D102236DE1FB68A6
:1058C000012283F85020FB6893F85130DBB2042B9F
:1058D00003D0FB68052283F85120FB6800225A653B
:1058E000FB687A689A63FB687A88DA87FB687A884B
:1058F0009A87FB68BA681A63FB687A88DA86FB685D
:105900007A889A86FB6800221A64FB6800225A642F
:10591000FB681B681B6803F04003402B07D0FB6843
:105920001B681A68FB681B6842F040021A60FB683B
:10593000DB68B3F5006F7ED1FB685B68002B02D09B
:10594000FB8A012B6CD1FB681B6B1A88FB681B68F8
:10595000DA60FB681B6B9A1CFB681A63FB68DB8EC2
:105960009BB2013B9AB2FB68DA8659E0FB681B6880
:105970009B6803F00203022B1BD1FB68DB8E9BB2FA
:10598000002B16D07B6A012B13D1FB681B6B1A8886
:10599000FB681B68DA60FB681B6B9A1CFB681A6368
:1059A000FB68DB8E9BB2013B9AB2FB68DA86002370
:1059B0007B62FB681B689B6803F00103012B19D114
:1059C000FB68DB8F9BB2002B14D0FB681B68DA6886
:1059D000FB689B6B92B21A80FB689B6B9A1CFB68FE
:1059E0009A63FB68DB8F9BB2013B9AB2FB68DA8754
:1059F00001237B62FEF758F802463B6AD31A3A6BE2
:105A00009A420DD83B6BB3F1FF3F09D0FB680122EE
:105A100083F85120FB68002283F850200323BCE068
:105A2000FB68DB8E9BB2002BA0D1FB68DB8F9BB2A7
:105A3000002B9BD182E0FB685B68002B02D0FB8AC5
:105A4000012B71D1FB681A6BFB681B680C33127851
:105A50001A70FB681B6B5A1CFB681A63FB68DB8EB1
:105A60009BB2013B9AB2FB68DA865DE0FB681B687B
:105A70009B6803F00203022B1CD1FB68DB8E9BB2F8
:105A8000002B17D07B6A012B14D1FB681A6BFB68C3
:105A90001B680C3312781A70FB681B6B5A1CFB686E
:105AA0001A63FB68DB8E9BB2013B9AB2FB68DA8615
:105AB00000237B62FB681B689B6803F00103012BDA
:105AC00019D1FB68DB8F9BB2002B14D0FB681B68DD
:105AD000DA68FB689B6BD2B21A70FB689B6B5A1C2E
