:020000040800F2
:100000000000022071630008554E00085D4E000894
:10001000654E00086D4E0008754E00080000000097
:100020000000000000000000000000007D4E0008FD
:100030008B4E000800000000994E0008A74E0008F3
:10004000C1630008C1630008C1630008C163000800
:10005000C1630008C1630008C1630008B34E000813
:10006000C1630008C1630008C1630008C1630008E0
:10007000C1630008C1630008C1630008C1630008D0
:10008000C1630008C1630008C163000800000000EC
:10009000000000000000000000000000C163000834
:1000A000C1630008C14E0008C1630008C1630008B5
:1000B000C1630008C1630008C1630008C163000890
:1000C000C1630008C1630008C1630008C163000880
:1000D000C1630008C1630008C1630008000000009C
:1000E000D54E0008C1630008C1630008000000008D
:1000F000000000000000000000000000C1630008D4
:1001000000000000C1630008C1630008C16300086B
:1001100000000000000000000000000000000000DF
:10012000C1630008C1630008C1630008C16300081F
:10013000C163000800000000000000000000000093
:10014000000000000000000000000000C163000883
:10015000C1630008C1630008C1630008E54E0008E0
:10016000C1630008C1630008000000000000000037
:10017000000000000000000000000000000000007F
:1001800000000000C1630008000000000000000043
:08019000C1630008C16300080F
:1001A00010B5054C237833B9044B13B10448AFF3B1
:1001B00000800123237010BD3402002000000000E5
:1001C00048D9000808B5034B1BB103490348AFF3F6
:1001D000008008BD000000003802002048D9000857
:1001E00001F0FF01102A2BDB10F0070F08D010F8E8
:1001F000013B013A8B422DD010F0070F42B3F6D1EC
:10020000F0B441EA012141EA014122F007047FF004
:1002100000070023F0E80256083C85EA010586EA5B
:10022000010685FA47F5A3FA87F586FA47F6A5FA97
:1002300087F68EB9EED1F0BC01F0FF0102F00702A3
:1002400032B110F8013B013A83EA010313B1F8D14E
:100250000020704701387047002D06BF354603382F
:10026000073815F0010F07D1013015F4807F02BF68
:10027000013015F4C03F0130F0BC0138704700BFB9
:10028000034613F8012B002AFBD1181A01387047D6
:1002900081F0004102E000BF83F0004330B54FEA37
:1002A00041044FEA430594EA050F08BF90EA020FA4
:1002B0001FBF54EA000C55EA020C7FEA645C7FEA37
:1002C000655C00F0E2804FEA5454D4EB5555B8BF5A
:1002D0006D420CDD2C4480EA020281EA030382EACB
:1002E000000083EA010180EA020281EA0303362D5D
:1002F00088BF30BD11F0004F4FEA01314FF4801C30
:100300004CEA113102D0404261EB410113F0004F41
:100310004FEA03334CEA133302D0524263EB4303F8
:1003200094EA050F00F0A780A4F10104D5F1200E96
:100330000DDB02FA0EFC22FA05F2801841F10001F1
:1003400003FA0EF2801843FA05F359410EE0A5F1C5
:1003500020050EF1200E012A03FA0EFC28BF4CF0F6
:10036000020C43FA05F3C01851EBE37101F00045AC
:1003700007D54FF0000EDCF1000C7EEB00006EEBB9
:100380000101B1F5801F1BD3B1F5001F0CD3490843
:100390005FEA30004FEA3C0C04F101044FEA44529A
:1003A00012F5800F80F09A80BCF1004F08BF5FEA21
:1003B000500C50F1000041EB045141EA050130BD01
:1003C0005FEA4C0C404141EB0101013C28BFB1F513
:1003D000801FE9D291F0000F04BF01460020B1FA5E
:1003E00081F308BF2033A3F10B03B3F120020CDA31
:1003F0000C3208DD02F1140CC2F10C0201FA0CF00F
:1004000021FA02F10CE002F11402D8BFC2F1200C73
:1004100001FA02F120FA0CFCDCBF41EA0C01904029
:10042000E41AA2BF01EB0451294330BD6FEA040472
:100430001F3C1CDA0C340EDC04F11404C4F120025D
:1004400020FA04F001FA02F340EA030021FA04F36F
:1004500045EA030130BDC4F10C04C4F1200220FAC6
:1004600002F001FA04F340EA0300294630BD21FA04
:1004700004F0294630BD94F0000F83F4801306BFCA
:1004800081F480110134013D4EE77FEA645C18BFBE
:100490007FEA655C29D094EA050F08BF90EA020F55
:1004A00005D054EA000C04BF1946104630BD91EA4D
:1004B000030F1EBF0021002030BD5FEA545C05D150
:1004C0004000494128BF41F0004130BD14F580048F
:1004D0003CBF01F5801130BD01F0004545F0FE4103
:1004E00041F470014FF0000030BD7FEA645C1ABF38
:1004F000194610467FEA655C1CBF0B46024650EA6F
:10050000013406BF52EA033591EA030F41F400219A
:1005100030BD00BF90F0000F04BF0021704730B520
:100520004FF4806404F132044FF000054FF00001F5
:1005300050E700BF90F0000F04BF0021704730B5B6
:100540004FF4806404F1320410F0004548BF40428B
:100550004FF000013EE700BF42004FEAE2014FEAE0
:1005600031014FEA02701FBF12F07F4393F07F4FBB
:1005700081F06051704732F07F4208BF704793F0BE
:100580007F4F04BF41F40021704730B54FF46074D1
:1005900001F0004521F000411CE700BF50EA0102D4
:1005A00008BF704730B54FF000050AE050EA01027D
:1005B00008BF704730B511F0004502D5404261EBED
:1005C00041014FF4806404F132045FEA915C3FF42E
:1005D000D8AE4FF003025FEADC0C18BF03325FEACB
:1005E000DC0C18BF033202EBDC02C2F1200300FA7C
:1005F00003FC20FA02F001FA03FE40EA0E0021FAA1
:1006000002F11444BDE600BF70B54FF0FF0C4CF48E
:10061000E06C1CEA11541DBF1CEA135594EA0C0F40
:1006200095EA0C0F00F0DEF82C4481EA030621EA7B
:100630004C5123EA4C5350EA013518BF52EA0335B6
:1006400041F4801143F4801338D0A0FB02CE4FF068
:100650000005E1FB02E506F00042E0FB03E54FF098
:100660000006E1FB03569CF0000F18BF4EF0010E90
:10067000A4F1FF04B6F5007F64F5407404D25FEA8C
:100680004E0E6D4146EB060642EAC62141EA55513F
:100690004FEAC52040EA5E504FEACE2EB4F1FD0C81
:1006A00088BFBCF5E06F1ED8BEF1004F08BF5FEAFF
:1006B000500E50F1000041EB045170BD06F00046B1
:1006C00046EA010140EA020081EA0301B4EB5C045E
:1006D000C2BFD4EB0C0541EA045170BD41F4801156
:1006E0004FF0000E013C00F3AB8014F1360FDEBF7B
:1006F000002001F0004170BDC4F10004203C35DA57
:100700000C341BDC04F11404C4F1200500FA05F3D9
:1007100020FA04F001FA05F240EA020001F000427A
:1007200021F0004110EBD37021FA04F642EB0601F0
:100730005EEA430E08BF20EAD37070BDC4F10C041A
:10074000C4F1200500FA04F320FA05F001FA04F2DE
:1007500040EA020001F0004110EBD37041F10001CA
:100760005EEA430E08BF20EAD37070BDC4F12005D5
:1007700000FA05F24EEA020E20FA04F301FA05F23D
:1007800043EA020321FA04F001F0004121FA04F2E5
:1007900020EA020000EBD3705EEA430E08BF20EAB5
:1007A000D37070BD94F0000F0FD101F000464000EF
:1007B00041EB010111F4801F08BF013CF7D041EA71
:1007C000060195F0000F18BF704703F00046520075
:1007D00043EB030313F4801F08BF013DF7D043EA46
:1007E0000603704794EA0C0F0CEA135518BF95EAFC
:1007F0000C0F0CD050EA410618BF52EA4306D1D183
:1008000081EA030101F000414FF0000070BD50EAA1
:10081000410606BF1046194652EA430619D094EA2B
:100820000C0F02D150EA013613D195EA0C0F05D115
:1008300052EA03361CBF104619460AD181EA030169
:1008400001F0004141F0FE4141F470014FF0000021
:1008500070BD41F0FE4141F4780170BD70B54FF0BC
:10086000FF0C4CF4E06C1CEA11541DBF1CEA13553C
:1008700094EA0C0F95EA0C0F00F0A7F8A4EB05041E
:1008800081EA030E52EA03354FEA013100F0888015
:100890004FEA03334FF0805545EA131343EA1263DE
:1008A0004FEA022245EA111545EA10654FEA002693
:1008B0000EF000419D4208BF964244F1FD0404F54C
:1008C000407402D25B084FEA3202B61A65EB0305A8
:1008D0005B084FEA32024FF480104FF4002CB6EB65
:1008E000020E75EB030E22BFB61A754640EA0C00E5
:1008F0005B084FEA3202B6EB020E75EB030E22BF25
:10090000B61A754640EA5C005B084FEA3202B6EB65
:10091000020E75EB030E22BFB61A754640EA9C0024
:100920005B084FEA3202B6EB020E75EB030E22BFF4
:10093000B61A754640EADC0055EA060E18D04FEAB2
:10094000051545EA16754FEA06164FEAC30343EA52
:1009500052734FEAC2025FEA1C1CC0D111F4801F1F
:100960000BD141EA00014FF000004FF0004CB6E718
:1009700011F4801F04BF01430020B4F1FD0C88BFB7
:10098000BCF5E06F3FF6AFAEB5EB030C04BFB6EBC2
:10099000020C5FEA500C50F1000041EB045170BDB5
:1009A0000EF0004E4EEA113114EB5C04C2BFD4EBE2
:1009B0000C0541EA045170BD41F480114FF0000E66
:1009C000013C90E645EA060E8DE60CEA135594EAE2
:1009D0000C0F08BF95EA0C0F3FF43BAF94EA0C0FE5
:1009E0000AD150EA01347FF434AF95EA0C0F7FF45A
:1009F00025AF104619462CE795EA0C0F06D152EAAE
:100A000003353FF4FDAE1046194622E750EA410691
:100A100018BF52EA43067FF4C5AE50EA41047FF4A2
:100A20000DAF52EA43057FF4EBAE12E74FF0FF3C07
:100A300006E000BF4FF0010C02E000BF4FF0010CD8
:100A40004DF804CD4FEA410C7FEA6C5C4FEA430C51
:100A500018BF7FEA6C5C1BD001B050EA410C0CBFA0
:100A600052EA430C91EA030F02BF90EA020F002002
:100A7000704710F1000F91EA030F58BF994208BF69
:100A800090422CBFD8176FEAE37040F00100704726
:100A90004FEA410C7FEA6C5C02D150EA013C07D17D
:100AA0004FEA430C7FEA6C5CD6D152EA033CD3D0C8
:100AB0005DF8040B704700BF8446104662468C46C2
:100AC0001946634600E000BF01B5FFF7B7FF0028F5
:100AD00048BF10F1000F01BD4DF808EDFFF7F4FF1E
:100AE0000CBF012000205DF808FB00BF4DF808EDA9
:100AF000FFF7EAFF34BF012000205DF808FB00BFCC
:100B00004DF808EDFFF7E0FF94BF012000205DF8ED
:100B100008FB00BF4DF808EDFFF7CEFF94BF0120A2
:100B200000205DF808FB00BF4DF808EDFFF7C4FF9B
:100B300034BF012000205DF808FB00BF4FEA410CE4
:100B40007FEA6C5C02D150EA013C0AD14FEA430CC7
:100B50007FEA6C5C02D152EA033C02D14FF0000004
:100B600070474FF0010070474FEA410212F5001242
:100B700015D211D56FF47873B3EB625212D94FEAE4
:100B8000C12343F0004343EA505311F0004F23FACE
:100B900002F018BF404270474FF00000704750EA23
:100BA000013005D111F0004008BF6FF000407047E0
:100BB0004FF00000704700BF53B94AB9002908BF81
:100BC00000281CBF4FF0FF314FF0FF3000F088B914
:100BD000ADF1080C6DE904CE00F006F8DDF804E094
:100BE000DDE9022304B070472DE9F047089D8E46E9
:100BF00004468846002B4AD18A42174662D9B2FA87
:100C000082F64EB1C6F1200301FA06F820FA03F38A
:100C1000B74043EA0808B4404FEA174E1FFA87FC72
:100C2000B8FBFEF1230C0EFB118843EA084301FBDD
:100C30000CF29A4209D9FB1801F1FF3080F0EA80EA
:100C40009A4240F2E78002393B449A1AA3B2B2FBBF
:100C5000FEF00EFB102243EA024300FB0CFC9C4515
:100C600009D9FB1800F1FF3280F0D6809C4540F294
:100C7000D3803B44023840EA0140A3EB0C0300213F
:100C80001DB1F3400022C5E90032BDE8F0878B4278
:100C900005D90DB1C5E9000100210846F5E7B3FA11
:100CA00083F1002946D1734502D3824200F20581C7
:100CB000841A6EEB030201209046002DE5D0C5E9B1
:100CC0000048E2E7002A00F09080B2FA82F6002E97
:100CD00040F0A4808A1A030C4FEA174E80B2BCB2CF
:100CE0000121B2FBFEFC0EFB1C2243EA024304FB83
:100CF0000CF29A4207D9FB180CF1FF3802D29A4243
:100D000000F2E080C4469B1AB3FBFEF20EFB1233E6
:100D100040EA034302FB04F49C4207D9FB1802F1AA
:100D2000FF3002D29C4200F2CA8002461B1B42EAFC
:100D30000C40A5E7C1F120068B4022FA06F71F43BD
:100D40000EFA01F420FA06F32EFA06FE4FEA1749CE
:100D5000234300FA01F81FFA87FCBEFBF9F01C0CD4
:100D600009FB10EE44EA0E4400FB0CFEA64502FA15
:100D700001F209D93C1900F1FF3A80F09C80A645A8
:100D800040F2998002383C44A4EB0E041FFA83FE23
:100D9000B4FBF9F309FB13444EEA044403FB0CFCD7
:100DA000A44508D93C1903F1FF3E80F08280A44598
:100DB0007FD9023B3C4443EA0040A4EB0C04A0FB77
:100DC00002EC64457346E14662D35FD05DB1B8EB97
:100DD000030264EB090404FA06F622FA01F31E4347
:100DE000CC40C5E9006400214FE7B1FBF2FC010CE7
:100DF00041EA0E4180B240EA01423B4638463C4659
:100E0000B846BE462026B1FBF7F1A2EB080241EA44
:100E10000C4166E7014618E710462CE7C6F12002B0
:100E20002EFA02F3B740B14020FA02F24FEA174E11
:100E30000A43B3FBFEF8BCB20EFB1833110C41EAB7
:100E4000034108FB04F9B04089454FEA104380B2E2
:100E50003ED9791808F1FF3C01D289451FD8A1EB92
:100E60000901B1FBFEF909FB04F80EFB191192B25E
:100E700042EA0142424529D2BA1809F1FF31C4D2EF
:100E80004245C2D2A9F102013A44BEE7F0459DD2E3
:100E9000BEEB02036CEB070C0138E14696E7A7EBCB
:100EA00009094944A8F1020CB1FBFEF909FB04F859
:100EB000DBE773467FE7504666E70846FDE63B44BE
:100EC000023A33E7ACF1020C3B441CE749469CE78D
:100ED000A1EB0901C446B1FBFEF909FB04F8C4E724
:100EE000704700BF80B584B000AF03460A46FB8060
:100EF0001346BB80FB88002B06D100F037F8BB8877
:100F0000184605F0D1FA2AE0FB88164A92FBF3F363
:100F1000FB60FB68B3F5803F02D34FF6FF73FB60C5
:100F2000FB68132B01D81423FB600F4B1B68FA6876
:100F3000013ADA62FB68013B0B4AD3600A4B1B683B
:100F4000FA685208DA630821074807F009FDBB88F0
:100F5000184605F0A9FA0821034807F0B1FD10373B
:100F6000BD4680BD00093D000003002080B500AFF4
:100F70000821024807F0A4FD00BF80BD0003002047
:100F800080B500AFC82140F20B20FFF7ABFF322144
:100F90000020FFF7A7FFC82140F29320FFF7A2FF30
:100FA00032210020FFF79EFF4FF496714FF44470FA
:100FB000FFF798FF00BF80BD80B500AF96214FF4CA
:100FC0004470FFF78FFF32210020FFF78BFFC8210D
:100FD00040F21740FFF786FF00BF80BD80B500AF2D
:100FE000642140F20B20FFF77DFF642140F2932043
:100FF000FFF778FF64214FF44470FFF773FFC821B7
:1010000040F21740FFF76EFF64210020FFF76AFFF0
:10101000642140F21740FFF765FF64214FF44470EC
:10102000FFF760FF4FF4967140F21740FFF75AFF49
:1010300000BF80BD80B582B000AF00237B600AE0B6
:10104000C821DC20FFF74EFF64210020FFF74AFF94
:101050007B6801337B607B68022BF1DD00BF00BF42
:101060000837BD4680BD80B500AF32214FF47A709D
:10107000FFF738FF00BF80BD80B500AF1E214FF4E1
:101080004870FFF72FFF00BF80BD80B582B000AF72
:1010900000237B600BE064214FF4DC70FFF722FF3C
:1010A00064210020FFF71EFF7B6801337B607B68B3
:1010B000042BF0DD00BF00BF0837BD4680BD000037
:1010C00080B582B000AF78607868FFF7D9F8034642
:1010D0009AB24FF47A737968034808F02BFD00BF89
:1010E0000837BD4680BD00BF200400200FB480B586
:1010F000C2B000AF07F58A7207F58473A3F5827357
:101100001A6007F58473A3F5827307F108001B6862
:10111000D7F810214FF480710AF080FA07F1080324
:101120001846FFF7CDFF00BF07F58477BD46BDE841
:10113000804004B07047000080B594B000AF4848CC
:10114000FFF7BEFF0B23FB6461E03B46402200211A
:1011500018460AF071FA0023BB6441E04149BA6CB9
:1011600013465B0013449B00FA6C13441B010B44B1
:1011700004331B78002B23D03A49BA6C13465B002A
:1011800013449B00FA6C13441B010B441B6842F28E
:101190000E7293420BDC3349BA6C13465B00134466
:1011A0009B00FA6C13441B010B441B6801E040F2E6
:1011B000E73307F140001A462B490AF09BF905E096
:1011C00007F14003294918460AF094F907F1400253
:1011D0003B46114618460AF037FABB6C0133BB6434
:1011E000BB6C0B2BBADD3B461846FFF749F80346AC
:1011F0001A463B4613441E4A1188927819809A7009
:101200003B461846FFF75CFFFB6C013BFB64FB6C45
:10121000002B9ADA174B1968164B5A68154B9B68C6
:101220001548FFF763FF134B1B7B002B01D0134BBB
:1012300000E0134B19461348FFF758FF0D4B5B7B3B
:10124000002B01D00D4B00E00D4B19460E48FFF767
:101250004DFF0E48FFF734FF00BF5037BD4680BD3D
:1012600060D900086804002078D9000880D90008F7
:1012700088D90008680D00208CD90008B4D900086E
:10128000B8D90008BCD90008D4D90008ECD90008A6
:10129000F0B587B006AF134B1B881D46114B1B8959
:1012A0001E46104B5B889C460E4BDB881A460D4B46
:1012B0009B8819460B4B9B7A18460A4BDB7A1C46D7
:1012C000084B1B7B049303940290019100926346A8
:1012D000324629460448FFF709FF00BF0437BD46E0
:1012E000F0BD00BF7C0D002004DA000880B584B09A
:1012F00002AF0F4B1B685B6AA3F500437B600D4B8D
:101300001B685B6AA3F500433B600B4B19680A4BF3
:101310005A68094B98683B6801937B6800930346C1
:101320000648FFF7E3FE00BF0837BD4680BD00BF9B
:1013300048030020D8030020680D002048DA000888
:1013400080B582B000AF02F089FA87ED010A02F0A1
:10135000D5FA38602448FFF7B3FE244B1B691946C1
:101360002348FFF7C3FE7868FFF7F6F802460B46FE
:101370002048FFF7BBFE39681F48FFF7B7FED7EDDF
:10138000017A9FED1E7AF4EEC77AF1EE10FA06D8D4
:101390003B68002B03DD1A48FFF792FE1CE0D7EDF7
:1013A000017A9FED187AF4EEC77AF1EE10FA03D8BD
:1013B0001548FFF785FE0FE0D7ED017A9FED137A10
:1013C000F4EEC77AF1EE10FA03D81148FFF778FE71
:1013D00002E01048FFF774FE0F48FFF771FE00BFF0
:1013E0000837BD4680BD00BF78DA0008680D0020D0
:1013F00098DA0008B0DA0008D4DA000800004842A1
:10140000F8DA00080000824218DB00080000A04261
:1014100044DB00086CDB000890DB000880B584B07A
:1014200002AF164B1B8807EE903AF8EEE77A9FED75
:10143000147A27EE877ADFED136AC7EE267AC7EDB6
:10144000017A7868FFF788F802460B460B4909884D
:1014500000910D48FFF74AFE084B1B8840F6B73253
:10146000934203D80948FFF72BFE02E00848FFF734
:1014700027FE00BF0837BD4680BD00BF7C0D0020A1
:101480003333534000008045B0DB0008C8DB000860
:10149000E4DB000880B584B000AF0346FB71FB7944
:1014A00063F07F03DBB27B7300233B7300224FF4B6
:1014B0008051174805F036FF07F10D016423012222
:1014C000144806F05CFC0346FB7307F10C0164232F
:1014D0000122104806F097FD0346BB7301224FF42A
:1014E00080510B4805F01EFFFB7B002B02D1BB7B1C
:1014F000002B07D00848FFF7E3FD084B00221A70C5
:10150000FF2300E03B7B18461037BD4680BD00BF7F
:1015100000040240A802002004DD00085002002060
:1015200080B584B000AF03460A46FB711346BB7119
:10153000FB793B73BB797B7300224FF480511148D8
:1015400005F0F0FE07F10C01642302220E4806F0BC
:1015500016FC0346FB7301224FF48051094805F045
:10156000E1FEFB7B002B05D00848FFF7A9FD084BE7
:1015700000221A70012004F097FF00BF1037BD460B
:1015800080BD00BF00040240A802002028DD000842
:101590005002002080B582B000AF3C48FFF790FDBC
:1015A000C82004F081FF80216B20FFF7B9FFFA20EB
:1015B00004F07AFF00216B20FFF7B2FF322004F025
:1015C00073FF01216B20FFF7ABFF322004F06CFFAB
:1015D00000216C20FFF7A4FF0A2004F065FF6A20B9
:1015E000FFF758FF0346FB71FB7943F01003FB71D3
:1015F000FB7919466A20FFF793FF0A2004F054FF95
:1016000004211920FFF78CFF0A2004F04DFF02216E
:101610001A20FFF785FF0A2004F046FF08211B204F
:10162000FFF77EFF0A2004F03FFF08211C20FFF790
:1016300077FF0A2004F038FF02211D20FFF770FF1A
:101640000A2004F031FF7520FFF724FF0346BB7129
:10165000BB7919460E48FFF749FDBB79702B09D0BD
:10166000BB7919460B48FFF741FD0B4B00221A705E
:10167000002306E00948FFF723FD074B01221A70FB
:10168000012318460837BD4680BD00BF50DD000865
:101690007CDD000890DD000850020020B8DD000865
:1016A00080B582B000AF274B1B7883F00103DBB21B
:1016B000002B03D02448FFF703FD3FE02348FFF74A
:1016C000FFFC234B64229A604FF000037B600023F1
:1016D0003B6014E000F07CF81E4BB3F9043007EED9
:1016E000903AF8EEE77A97ED017A77EE277AC7ED30
:1016F000017A032004F0D8FE3B6801333B60144BB1
:101700009A683B689A42E5D8114B9B6807EE903A7D
:10171000B8EE677AD7ED016AC6EE877A0C4BC3ED57
:10172000007A0B4B01221A71094B1B681846FEF711
:1017300013FF02460B460848FFF7D8FC0837BD46A2
:1017400080BD00BF50020020CCDD0008F8DD00089D
:10175000540200208C0D00202CDE000880B582B0E1
:1017600000AF124B1B7983F00103DBB2002B04D0D6
:1017700000F002F9F0EE407A13E00D4BB3F90430BB
:1017800007EE903AB8EEE77A084BD3ED007A37EEE1
:10179000677ADFED086AC7EE267AC7ED017AD7EDE2
:1017A000017AB0EE670A0837BD4680BD54020020BA
:1017B0008C0D00200000834280B400AF034B1B78E7
:1017C0001846BD465DF8047B704700BF50020020FC
:1017D00080B584B000AF254B1B7883F00103DBB2EA
:1017E000002B03D02248FFF76BFC3CE0C323FB71C6
:1017F00000224FF480511F4805F094FDF91D642329
:1018000001221D4806F0BBFA0346FB73FB7B002B4D
:1018100009D001224FF48051164805F083FD174886
:10182000FFF74EFC1FE007F108016423062212486F
:1018300006F0E9FB0346FB7301224FF480510D488B
:1018400005F070FDFB7B002B03D00D48FFF738FC43
:1018500009E03B7B1BB21B021AB27B7B1BB213431A
:101860001AB2084B9A801037BD4680BD5002002046
:101870004CDE000800040240A802002080DE0008C0
:10188000A4DE00088C0D002080B584B000AF2F4B83
:101890001B7883F00103DBB2002B03D02C48FFF749
:1018A0000FFC50E0BB23FB7100224FF4805129480C
:1018B00005F038FDF91D64230122274806F05FFA80
:1018C0000346FB73FB7B002B09D001224FF48051B0
:1018D000204805F027FD2148FFF7F2FB33E007F130
:1018E0000801642306221C4806F08DFB0346FB73A7
:1018F00001224FF48051174805F014FDFB7B002BAB
:1019000003D01748FFF7DCFB1DE03B7A1BB21B023C
:101910001AB27B7A1BB213431AB2124BDA80BB7A2B
:101920001BB21B021AB2FB7A1BB213431AB20D4B45
:101930001A813B7B1BB21B021AB27B7B1BB2134387
:101940001AB2084B5A811037BD4680BD50020020A4
:10195000C8DE000800040240A802002000DF0008E2
:1019600024DF00088C0D002080B500AFFFF78CFF4E
:10197000FFF72EFF00BF80BD80B400AF094BB3F965
:10198000043007EE903AF8EEE77A9FED077AC7EE5B
:10199000876AF0EE667AB0EE670ABD465DF8047BB2
:1019A000704700BF8C0D00200000834280B582B0DC
:1019B00000AF284B1B78002B01D0274B00E0274BB2
:1019C00019462748FFF792FB224B1B78002B3CD08F
:1019D0007520FFF75FFD0346FB716A20FFF75AFD94
:1019E0000346BB716B20FFF755FD03467B71F97908
:1019F000BA797B791B48FFF779FBBB7903F01003B9
:101A0000002B03D01848FFF75BFB02E01748FFF7F5
:101A100057FBFFF7A9FF164BB3F906301946144BD5
:101A2000B3F908301A46124BB3F90A301148FFF7E0
:101A30005DFBFFF7A1FF10EE103A1846FEF78CFD94
:101A400002460B460C48FFF751FB00BF0837BD4666
:101A500080BD00BF5002002048DF00084CDF0008B6
:101A600054DF000870DF0008A4DF0008B8DF0008BA
:101A70008C0D0020CCDF0008E4DF000880B500AF4B
:101A80002848FFF71DFB0021274806F069FF0421C5
:101A9000254806F065FF0821234806F061FF0C2168
:101AA000214806F05DFF01224FF400511F4805F068
:101AB00039FC00F09BFD02F0BBFEFFF76BFD034617
:101AC000002B0FD01A48FFF7FBFA1A48FFF7F8FA75
:101AD0004FF4FA6004F0E8FCFFF7E2FD1648FFF768
:101AE000EFFA02E01548FFF7EBFA01F08FFF6420F0
:101AF00004F0DAFC01F050FF0346002B08D101F09E
:101B000055FF0346002B03D10D48FFF7D9FA02E039
:101B10000C48FFF7D5FA00F065FE0B48FFF7D0FA46
:101B200000BF80BDF8DF00089003002000080240DD
:101B30002CE0000860E0000898E00008B8E0000829
:101B4000F4E000082CE1000858E1000880B500AF7F
:101B50002148FFF7B5FA02F083FD204B1B88002BCC
:101B600013D11E4B1B89002B0FD11C4B5B88002B04
:101B70000BD11A4BDB88002B07D1184B9B88002B0D
:101B800003D11748FFF79CFA04E01648FFF798FACC
:101B9000FFF77EFBFFF742FCFFF70EFE0346002B2C
:101BA00001D0FFF703FF02F00BF903F03DFB034602
:101BB000002B06D00C48FFF783FA0C4B01221A7059
:101BC00005E00B48FFF77CFA084B01221A70094820
:101BD000FFF776FA00BF80BD84E100087C0D00208D
:101BE000A8E10008E8E100080CE20008B20D0020BE
:101BF00030E200086CE2000880B582B000AF04F06B
:101C000047FC78601C4B1B687A68D31A42F210724A
:101C1000934216D9194B1B7883F00103DBB2002BDA
:101C20000FD0FFF7FBFB164B1B78002B03D015489A
:101C3000FFF746FA02E01448FFF742FA0E4A7B68C3
:101C40001360124B1B687A68D31AB3F5FA6F0FD979
:101C50000B4B1B78002B04D010210D4805F07BFBAB
:101C600003E020210A4805F076FB084A7B681360F0
:101C700000BF0837BD4680BDB40D0020B30D002065
:101C8000B20D00208CE20008CCE20008B80D002064
:101C90000004024080B500AF04F094FB00F0CAF8E5
:101CA00000F0C2FB00F02EF900F07EF900F0B2F96E
:101CB00000F050FA00F03AFB00F08CFB00F09EFAC6
:101CC00005F0A0FF0346184600F066FDFFF7D6FEBC
:101CD000FFF73CFFFFF754F903F00AFA4748FFF714
:101CE000EFF94748FFF7ECF94648FFF7E9F94648AE
:101CF000FFF7E6F904F0CCFB0346444A136004F016
:101D0000C7FB0346424A136040F6B8314FF41670E1
:101D100004F07AF93F4B1B78DBB2012B33D13D4BFA
:101D200000221A703C4B1B7883F00103DBB2002BBE
:101D300012D03A4B1B78002B0ED03948FFF7C0F970
:101D4000FFF73AF94FF47A7004F0AEFB324B012200
:101D50001A7001F0DDFC16E001F070FD0346002B67
:101D600005D03048FFF7ACF9FFF7EAFA0BE02B4B50
:101D70001B7883F00103DBB2002B04D02A48FFF765
:101D80009FF9FFF757F9234B1B78DBB2022B28D1C1
:101D9000204B00221A70204B1B78002B12D001F030
:101DA0004DFD034683F00103DBB2002B0AD01F4830
:101DB000FFF786F901F00EFFFFF73CF9164B002202
:101DC0001A700EE01A48FFF77BF9FFF7B5F9FFF735
:101DD0005FFAFFF78BFA104B1B78002B01D0FFF74F
:101DE000AFFAFFF709FF0C4B1B78002B01D001F075
:101DF00025FD322004F058FB8CE700BFF8E2000814
:101E000020E3000844E300086CE30008B40D002060
:101E1000B80D0020B00D0020B30D0020B20D002041
:101E200088E30008B4E30008F0E3000820E40008B9
:101E300038E4000880B594B000AF07F120033022E9
:101E40000021184609F0F8FB07F10C0300221A6084
:101E50005A609A60DA601A610023BB60274B1B6CE2
:101E6000264A43F080531364244B1B6C03F08053C9
:101E7000BB60BB6800237B60214B1B68204A43F496
:101E8000404313601E4B1B6803F440437B607B6838
:101E900002233B620123FB6210233B630223BB63EB
:101EA0000023FB6310233B64A8237B640223BB64F1
:101EB0000423FB6407F12003184605F07FFA03466C
:101EC000002B01D000F0CEFB0F23FB6002233B610F
:101ED00000237B614FF48053BB610023FB6107F15A
:101EE0000C030221184605F0E1FC0346002B01D04B
:101EF00000F0B8FB00BF5037BD4680BD003802403F
:101F00000070004080B584B000AF3B4600221A60EC
:101F10005A609A60DA60214B214A1A601F4B4FF4D5
:101F200080325A601D4B00229A601C4B00221A61BD
:101F30001A4B00221A76194B002283F82020174BE7
:101F40000022DA62154B174A9A62144B0022DA60BB
:101F5000124B0122DA61114B002283F830200F4B23
:101F600001225A610D4804F0C3FA0346002B01D048
:101F700000F078FB00233B6001237B600423BB60FF
:101F80003B461946054804F077FC0346002B01D078
:101F900000F068FB00BF1037BD4680BD6002002026
:101FA000002001400100000F80B500AF174B184A18
:101FB0001A60164B4FF482725A60144B00229A60DA
:101FC000124B0022DA60114B00221A610F4B0022E3
:101FD0005A610E4B4FF400729A610C4B3022DA6159
:101FE0000A4B00221A62094B00225A62074B002258
:101FF0009A62064B0A22DA62044805F037FE03466D
:10200000002B01D000F02EFB00BF80BDA8020020F5
:102010000038004080B596B000AF07F148030022B9
:102020001A605A609A60DA6007F1400300221A6071
:102030005A6007F1240300221A605A609A60DA603D
:102040001A615A619A613B1D20220021184609F04D
:10205000F3FA3E4B3E4A1A603C4B14225A603B4B0B
:1020600000229A60394BC822DA60384B00221A618C
:10207000364B00225A61354B80229A61334806F074
:10208000C7FB0346002B01D000F0ECFA4FF480535D
:10209000BB6407F1480319462C4807F05BF8034678
:1020A000002B01D000F0DEFA284806F000FC0346C1
:1020B000002B01D000F0D6FA00233B6400237B64A0
:1020C00007F140031946214807F010FC0346002B96
:1020D00001D000F0C7FA60237B626423BB62002357
:1020E000FB6200233B6300237B630023BB6300236D
:1020F000FB6307F1240308221946144806F068FF21
:102100000346002B01D000F0ADFA00237B600023D2
:10211000BB600023FB6000233B6100237B614FF425
:102120000053BB6100233B623B1D1946074807F083
:102130004BFC0346002B01D000F094FA034802F058
:10214000B9FD00BF5837BD4680BD00BF0003002069
:102150000000014080B58CB000AF07F10C032422D1
:102160000021184609F068FA3B1D00221A605A60E7
:10217000214B4FF080421A601F4B00225A601E4BC9
:1021800000229A601C4B4FF6FF72DA601A4B002255
:102190001A61194B80229A610323FB6000233B6183
:1021A00001237B610023BB610023FB6100233B62B1
:1021B00001237B620023BB620023FB6207F10C0357
:1021C00019460D4806F0E0FC0346002B01D000F054
:1021D00049FA00237B600023BB603B1D194606487B
:1021E00007F084FB0346002B01D000F03BFA00BF50
:1021F0003037BD4680BD00BF4803002080B58EB09B
:1022000000AF07F1280300221A605A609A60DA6072
:1022100007F1200300221A605A603B1D00221A6059
:102220005A609A60DA601A615A619A613D4B3E4A7F
:102230001A603C4B04225A603A4B00229A60394B98
:1022400040F24632DA60374B00221A61354B802269
:102250009A61344806F0DCFA0346002B01D000F006
:1022600001FA4FF48053BB6207F1280319462D4849
:1022700006F070FF0346002B01D000F0F3F9294867
:1022800006F015FB0346002B01D000F0EBF900230C
:102290003B6200237B6207F120031946214807F0C7
:1022A00025FB0346002B01D000F0DCF960237B60A6
:1022B0000023BB600023FB6000237B613B1D0022E9
:1022C0001946184806F084FE0346002B01D000F0A2
:1022D000C9F93B1D04221946124806F079FE03464F
:1022E000002B01D000F0BEF93B1D082219460D4815
:1022F00006F06EFE0346002B01D000F0B3F93B1D43
:102300000C221946074806F063FE0346002B01D055
:1023100000F0A8F9034802F0CDFC00BF3837BD46F5
:1023200080BD00BF900300200004004080B58CB049
:1023300000AF07F10C0324220021184609F07CF9B4
:102340003B1D00221A605A60204B214A1A601F4B25
:1023500000225A601D4B00229A601C4B4FF6FF7200
:10236000DA601A4B00221A61184B80229A6103230B
:10237000FB6000233B6101237B610023BB610023E1
:10238000FB6100233B6201237B620023BB620023CD
:10239000FB6207F10C0319460C4806F0F5FB0346F7
:1023A000002B01D000F05EF900237B600023BB60AE
:1023B0003B1D1946054807F099FA0346002B01D04A
:1023C00000F050F900BF3037BD4680BDD803002073
:1023D0000008004080B500AF114B124A1A60104B44
:1023E0004FF416525A600E4B00229A600C4B00229A
:1023F000DA600B4B00221A61094B0C225A61084B20
:1024000000229A61064B0022DA61054807F042FB80
:102410000346002B01D000F025F900BF80BD00BFAE
:10242000200400200014014080B588B000AF07F1FF
:102430000C0300221A605A609A60DA601A61002365
:10244000BB604B4B1B6B4A4A43F004031363484B7E
:102450001B6B03F00403BB60BB6800237B60444B31
:102460001B6B434A43F001031363414B1B6B03F0A7
:1024700001037B607B6800233B603D4B1B6B3C4A48
:1024800043F0020313633A4B1B6B03F002033B6000
:102490003B6800224FF40051364804F043FF00220D
:1024A00041F23031344804F03DFF00224FF44071D6
:1024B000324804F037FF4FF40053FB6001233B61C7
:1024C00000237B610023BB6107F10C0319462948F7
:1024D00004F0A4FD0223FB604FF488133B6100234A
:1024E0007B6107F10C031946244804F097FD4FF473
:1024F0008063FB604FF488133B6100237B6107F12D
:102500000C0319461C4804F089FD41F23033FB608E
:1025100001233B6100237B610023BB6107F10C03B6
:102520001946154804F07AFD4FF44073FB6001230F
:102530003B6100237B610023BB6107F10C0319465B
:102540000E4804F06BFD00220521072004F09DFCDD
:10255000072004F0B6FC00220521282004F095FC99
:10256000282004F0AEFC00BF2037BD4680BD00BF70
:10257000003802400008024000040240000002400F
:1025800080B584B000AF0346FB8003F081FFF860A4
:10259000114B1B68FA68D31AC82B19D9FB88022B78
:1025A00009D10E4B01221A700D4B01221A700D48F1
:1025B000FEF786FD09E0FB88B3F5806F05D1074B78
:1025C00002221A700848FEF77BFD034AFB6813607D
:1025D00000BF1037BD4680BDBC0D0020B00D0020EF
:1025E000B10D002060E4000878E4000880B586B0F2
:1025F00000AF3B1D00221A605A609A60DA601A61CF
:1026000001237B600323BB600023FB603B1D194655
:10261000124804F003FD04237B603B1D19460F485C
:1026200004F0FCFC08237B603B1D19460B4804F0BA
:10263000F5FC10237B603B1D1946084804F0EEFCB6
:1026400020237B603B1D1946044804F0E7FC044846
:10265000FEF736FD00BF1837BD4680BD00000240C2
:1026600090E4000880B500AF72B600BF10210648A4
:1026700004F071FE2021044804F06DFE642003F094
:1026800013FF00BFF2E700BF0004024080B483B034
:1026900000AF78607B680022C3F804257B68D3F81C
:1026A00004257B68C3F8002500BF0C37BD465DF8E4
:1026B000047B704780B483B000AF78607B68D3F848
:1026C00000257B68D3F804359A420CBF0123002310
:1026D000DBB218460C37BD465DF8047B704780B40A
:1026E00085B000AFF8603B1D83E80600FB68D3F8B7
:1026F00004359F2B0EDCFB68D3F80435591CFA68AF
:10270000C2F80415FA68DB0013443A1D92E803008E
:1027100083E8030000BF1437BD465DF8047B7047B3
:1027200090B482B000AF786039603B68D3F8003570
:10273000591C3A68C2F8001579683A680C46DB0003
:10274000134493E8030084E8030078680837BD4623
:1027500090BC704780B485B000AF78600C4B5B686C
:10276000FB600C4B1A687B6802FB03F3BB6000E064
:1027700000BF074B5A68FB68D31ABA689A42F7D869
:1027800000BF00BF1437BD465DF8047B704700BF33
:10279000001000E0E012002080B483B000AF786049
:1027A0000C4BDB680B4A43F08073D3600A4B1B6809
:1027B000094A43F0010313607B68084AA2FB032324
:1027C0009B0C074A136000BF0C37BD465DF8047BC5
:1027D000704700BFF0ED00E0001000E083DE1B4317
:1027E000E012002080B586B002AF6348FEF768FCB7
:1027F0000023FB604AE00023BB6041E05F49FA68C8
:1028000013465B0013449B00BA6813441B010B443E
:1028100042F20F721A605949FA6813465B0013447A
:102820009B00BA6813441B010B44043300221A7046
:102830005249FA6813465B0013449B00BA6813447C
:102840001B010B440C3300221A6000237B6011E053
:102850004A49FA6813465B0013449B00BA68134464
:102860001B01CA187B681344053300221A707B6869
:1028700001337B607B68032BEADDBB680133BB60FF
:10288000BB680B2BBADDFB680133FB60FB680B2BCD
:10289000B1DD00233B6025E038493A6813465B0010
:1028A00013449B010B44073301221A7033493A68E1
:1028B00013465B0013449B010B44B53301221A708D
:1028C0002E4A3B681B011344083301221A702B4A1D
:1028D0003B681B01134403F6460301221A703B6850
:1028E00001333B603B680B2BD6DD254B05221A607C
:1028F000244B05221A60244B06221A60234B062221
:102900001A60234B00221A60214B00225A60204B90
:1029100000229A601E4B00221A731D4B00225A732C
:102920001B4B00221A61154B01221A71134B012215
:10293000DA60184B00221A60174B00221A600C2232
:102940000C211648FEF7D2FB0D4B19680D4B1A6887
:102950000D4B18680D4B1B68009303461048FEF79B
:10296000C5FB1048FEF7ACFB0F48FEF7A9FB00BF04
:102970001037BD4680BD00BFB8E4000868040020E1
:10298000C00D0020C40D0020C80D0020CC0D00207B
:10299000680D0020D00D0020D40D0020E4E40008D4
:1029A000F8E4000818E5000848E5000880B598B08C
:1029B00000AF0023FB6518E00023BB650FE09249E0
:1029C000FA6D13465B0013449B00BA6D13441B0160
:1029D0000B4442F20F721A60BB6D0133BB65BB6DD5
:1029E0000B2BECDDFB6D0133FB65FB6D0B2BE3DD8E
:1029F0008648FFF74BFE864B1B7B83F00103DBB25F
:102A0000002B6CD0834B1A68834B19687E481346A1
:102A10005B0013449B000B441B01034400221A601B
:102A20007E4B1A687C4B1968774813465B00134449
:102A30009B000B441B01034400221A60754B1A686B
:102A4000774B1968704813465B0013449B000B4496
:102A50001B01034400221A60704B1A68704B1968FE
:102A6000694813465B0013449B000B441B0103445D
:102A700000221A60674B1B687B63674B1B68BB6354
:102A800007F1340393E806006048FFF728FE634B24
:102A90001B68FB62604B1B683B6307F12C0393E8E8
:102AA00006005A48FFF71BFE5A4B1B687B625C4BC3
:102AB0001B68BB6207F1240393E806005348FFF745
:102AC0000EFE564B1B68FB61554B1B683B6207F1C2
:102AD0001C0393E806004D48FFF701FE0DE04A4B4A
:102AE00000221A6000237B610023BB6107F11403FD
:102AF00093E806004548FFF7F2FD00237B6574E08C
:102B000007F10C0341491846FFF70AFEFB68FB6416
:102B10003B69BB6400233B6564E03B49FA6C1346A8
:102B20005B0013449B00BA6C13441B01CA183B6D35
:102B3000134405331B78002B4ED13A4A3B6D52F8B3
:102B40002330FA6C13447B64374A3B6D52F82330D0
:102B5000BA6C13443B647B6C002B3FDB7B6C0B2B10
:102B60003CDC3B6C002B39DB3B6C0B2B36DC264909
:102B7000FA6C13465B0013449B00BA6C13441B01B0
:102B80000B441B680133FB631F497A6C13465B00DF
:102B900013449B003A6C13441B010B441B68FA6BF3
:102BA0009A421CDA18497A6C13465B0013449B0066
:102BB0003A6C13441B010B44FA6B1A607B6C7B600C
:102BC0003B6CBB603B1D93E806001048FFF787FD98
:102BD0007B6D01337B6502E000BF00E000BF3B6D11
:102BE00001333B653B6D032B97DD0848FFF762FD22
:102BF0000346002B84D0796D0C48FEF777FA00BFAE
:102C00006037BD4680BD00BF68040020D80D00209D
:102C1000680D0020C00D0020C40D0020C80D00204C
:102C2000CC0D002064F5000874F5000878E5000874
:102C300080B493B000AF934B9B687B6442F20F73F8
:102C40003B6440F2E733FB63002387F83B308D4B56
:102C50009B683B608B4B9B6801335A4203F0030334
:102C600002F0030258BF53427B60864B9B680333DC
:102C70005A4203F0030302F0030258BF5342BB6001
:102C8000804B9B6802335A4203F0030302F00302B5
:102C900058BF5342FB6000237B6368E07B6B9B0063
:102CA00048333B4453F8483CBB61764B1A68754B3C
:102CB0005968754813465B0013449B000B441B0185
:102CC000C218BB69134405331B78002B49D16D4BE7
:102CD0001A686E49BB6951F8233013447B61694B14
:102CE0005A686B49BB6951F8233013443B617B69D7
:102CF000002B38DB7B690B2B35DC3B69002B32DB8F
:102D00003B690B2B2FDC60497A6913465B00134447
:102D10009B003A6913441B010B440C331B68002BC6
:102D200022D1012387F83B3057497A6913465B006B
:102D300013449B003A6913441B010B441B683A6C13
:102D40009A4211DD50497A6913465B0013449B0097
:102D50003A6913441B010B441B683B64BB697B64E9
:102D600002E000BF00E000BF7B6B01337B637B6B45
:102D7000032B93DD97F83B3083F00103DBB2002B8C
:102D800079D000233B6373E03B6B9B0048333B44AB
:102D900053F8483CFB623B4B1A683A4B59683A4837
:102DA00013465B0013449B000B441B01C218FB6AD3
:102DB000134405331B78002B54D1324B1A68334926
:102DC000FB6A51F823301344BB622E4B5A683049DA
:102DD000FB6A51F8233013447B62BB6A002B43DB50
:102DE000BB6A0B2B40DC7B6A002B3DDB7B6A0B2B29
:102DF0003ADC2549BA6A13465B0013449B007A6AA1
:102E000013441B010B441B683B621F49BA6A1346FB
:102E10005B0013449B007A6A13441B010B440C3380
:102E20001B68FB613A6A3B6C9A4214DB3A6A3B6C62
:102E30009A4203D1FA69FB6B9A420CDB3A6A3B6C0B
:102E40009A4212D1FA69FB6B9A420ED10D4B9B68E4
:102E5000FA6A9A4209D13B6A3B64FB69FB63FB6AED
:102E60007B6402E000BF00E000BF3B6B01333B63CB
:102E70003B6B032B88DD7B6C18464C37BD465DF8F9
:102E8000047B7047680D00206804002064F500088A
:102E900074F5000880B584B000AF78602A4B9B6859
:102EA000FB607A68FB68D31A04335A4203F00303C9
:102EB00002F0030258BF5342BB60BB68032B3BD8F0
:102EC00001A252F823F000BF392F0008D92E0008C4
:102ED000F92E0008192F00081C48FEF7F1F800F041
:102EE00003FE1B4B40F20D621A601A4B40F2016266
:102EF0001A60FEF7C1F81FE01748FEF7E1F800F08E
:102F000025FE134B40F2FA521A60124B40F21A623D
:102F10001A60FEF7B1F80FE01048FEF7D1F800F0A4
:102F2000B1FD0B4B40F232521A600A4B4FF4A962CA
:102F30001A60FEF7A1F800BF034A7B68936000BFE8
:102F40001037BD4680BD00BF680D00209CE500081D
:102F5000E4120020E8120020B0E50008C4E50008F3
:102F600090B583B000AF374B1B68364A526819469C
:102F70003548FEF7BBF8334B1A68324B9B68334930
:102F800051F8233013447B602E4B5A682D4B9B68BD
:102F90002F4951F8233013443B607B68002B08DB3A
:102FA0007B680B2B05DC3B68002B02DB3B680B2BA3
:102FB00004DD2848FEF784F800233EE03A6879688B
:102FC0002548FEF793F840F6C41140F6C41000F00F
:102FD0003BFE1C4A7B6813601A4A3B685360194BDE
:102FE0001B690133174A1361164B1A68154B596850
:102FF0001A4813465B0013449B000B441B01034417
:10300000043301221A700F4B1A680E4B596813488B
:1030100013465B0013449B000B441B0103440C3319
:103020001B68581C0D4C13465B0013449B000B445B
:103030001B0123440C331860012318460C37BD468E
:1030400090BD00BF680D0020D8E5000864F50008B9
:1030500074F50008F8E5000814E60008680400208C
:1030600090B583B000AF584B1B68574A5268194659
:103070005648FEF73BF8544B1A68534B9B6854492B
:1030800051F8233013447B604F4B5A684E4B9B687A
:10309000504951F8233013443B607B68002B08DB18
:1030A0007B680B2B05DC3B68002B02DB3B680B2BA2
:1030B00004DD4948FEF704F8002380E03A687968A7
:1030C0004648FEF713F8464B1B68002B12D0454BC1
:1030D0001B68002B0ED0424B1B68424A12681146F7
:1030E000184600F0B1FD3E4B00221A603D4B002215
:1030F0001A6030E03C4BDB7A002B03D13A4B1B7B50
:10310000002B14D0394B1B68012B09D140F2E2414E
:1031100040F2E24000F0CBFD344B00221A601AE08E
:1031200040F6C41140F6C41000F0C1FD13E02F4B6F
:103130001B68012B09D140F2E24140F2E24000F06D
:1031400083FD2A4B00221A6005E040F6C41140F6C8
:10315000C41000F079FD1C4A7B6813601A4A3B6872
:103160005360194B1B690133174A1361164B1A68D8
:10317000154B59681E4813465B0013449B000B44D3
:103180001B010344043301221A700F4B1A680E4BC3
:103190005968174813465B0013449B000B441B01FE
:1031A00003440C331B68581C114C13465B0013443A
:1031B0009B000B441B0123440C3318600123184669
:1031C0000C37BD4690BD00BF680D0020D8E5000853
:1031D00064F5000874F50008F8E5000814E6000836
:1031E000E4120020E81200207C0D002000000020E6
:1031F0006804002080B400AF1C4B1B7B83F00103EC
:10320000DBB2002B1ED0194B1A68194B1B689A426F
:1032100005D0164B1A68174B1B689A420DD1134BF9
:103220005A68154B1B689A4205D0104B5A68134BCD
:103230001B689A4201D1012300E0002303F001033F
:10324000DBB20DE0094B1B68002B05D1074B5B6817
:10325000002B01D1012300E0002303F00103DBB2C6
:103260001846BD465DF8047B704700BF680D00201E
:10327000C00D0020C80D0020C40D0020CC0D002082
:10328000F0B58DB004AF01F0EBF9894B9B7A002BC0
:1032900047D0884B1A68874B5868864B9968864C8C
:1032A00013465B0013449B0003441B0123440B445F
:1032B000053301221A707F4B1A687E4B9B687F4949
:1032C00051F823301344FB617A4B5A68794B9B6861
:1032D0007B4951F823301344BB61FB69002B20DB91
:1032E000FB690B2B1DDCBB69002B1ADBBB690B2BAD
:1032F00017DC704B9B680233594203F0030201F064
:10330000030358BF5A426C48F9690B465B000B44F3
:103310009B00B9690B441B0103441344053301228C
:103320001A70634BDB7A002B4ED0624B9B680333E1
:103330005A4203F0030302F0030258BF53427B6179
:103340005C4B1A685B4B59685B4813465B0013443F
:103350009B000B441B01C2187B69134405330122F7
:103360001A70544B1A6855497B6951F8233013443D
:103370003B61504B5A6852497B6951F823301344E2
:10338000FB603B69002B1FDB3B690B2B1CDCFB68E4
:10339000002B19DBFB680B2B16DC7B6902335942CF
:1033A00003F0030201F0030358BF5A42424839694F
:1033B0000B465B000B449B00F9680B441B01034464
:1033C0001344053301221A70394B1B7B002B4ED05E
:1033D000384B9B6801335A4203F0030302F00302A7
:1033E00058BF5342BB60334B1A68324B596832485E
:1033F00013465B0013449B000B441B01C218BB68BF
:103400001344053301221A702A4B1A682B49BB68F2
:1034100051F8233013447B60264B5A682849BB6817
:1034200051F8233013443B607B68002B1FDB7B6823
:103430000B2B1CDC3B68002B19DB3B680B2B16DCD1
:10344000BB680233594203F0030201F0030358BF83
:103450005A42194879680B465B000B449B00396857
:103460000B441B0103441344053301221A70104B13
:103470009B7A002B07D10E4BDB7A002B03D10C4B30
:103480001B7B002B37D00A4B9B7A002B01D00D49B8
:1034900000E00D49064BDB7A002B01D0094A00E021
:1034A000094A034B1B7B002B10D0064B0FE000BFDB
:1034B0007C0D0020680D00206804002064F50008E1
:1034C00074F5000820E6000824E60008204B214897
:1034D000008904461F48408805461E48C0880646A5
:1034E0001C48808803900296019500941A48FDF7C5
:1034F000FDFDFDF7B8FD194B1A68184B59681848BF
:1035000013465B0013449B000B441B01034404332C
:1035100001221A70114B1A68104B59681048134653
:103520005B0013449B000B441B0103440C331B68DA
:10353000581C0B4C13465B0013449B000B441B01AF
:1035400023440C33186000BF2437BD46F0BD00BFD4
:1035500024E600087C0D002028E60008680D002005
:1035600068040020B0B586B002AF5D48FDF7A8FD45
:103570004FF4D8737B600023FB6066E0FFF780FEAA
:103580000A2002F091FFFFF711FAFFF751FB3860B4
:103590003868FFF77FFCFFF763FD034683F0010304
:1035A000DBB2002B2ED04F48FDF78AFD0023BB6015
:1035B00023E0BA683B689A421CD04B4B1A684A4BCE
:1035C00059684A4813465B0013449B000B441B0197
:1035D000C218BB68134405331B7883F00103DBB2C8
:1035E000002B07D0B868FFF755FCFFF7B9FC03467E
:1035F000002B06D1BB680133BB60BB68032BD8DD51
:1036000000E000BFF9683A4B83FB01235A10CB1747
:10361000D21A13469B001344CA1A002A12D1324B05
:103620001C68314B5D68304B9B68184601F0D0FD3B
:10363000034600932B462246F9682E48FDF756FDB7
:10364000FDF77AFDFB680133FB60FFF7D3FD03460E
:1036500083F00103DBB2002B03D0FA687B689A4247
:103660008CDBFFF7C7FD0346002B26D01E4B1B7BD0
:1036700083F00103DBB2002B11D01B4B01221A7324
:103680001D48FDF71DFDFDF7A9FC01F063FD4FF49A
:10369000FA6002F009FF1948FDF712FD15E0124B20
:1036A00001225A731648FDF70BFDFDF797FC01F058
:1036B00051FD144B01221A6007E079681248FDF7AA
:1036C00015FDFDF7B7FC01F064FD074B1B691946BA
:1036D0000E48FDF70BFD00BF1037BD46B0BD00BF63
:1036E00064E600088CE60008680D002068040020ED
:1036F00067666666BCE60008E8E6000804E70008BE
:1037000020E70008D00D002040E700086CE7000823
:1037100080B588B002AF3F48FDF7D2FC3E4B1B7B23
:1037200083F00103DBB2002B06D03C48FDF7C8FC58
:1037300001F000FDFFF716FF374B1B7B002B11D06C
:10374000354B5B7B83F00103DBB2002B0AD034489E
:10375000FDF7B6FC01F0F6FC4FF47A7002F0A4FE1F
:10376000FFF700FF2C4B5B7B002B4FD02D48FDF764
:10377000A7FCFDF7E5FD9023BB6000237B610023E0
:103780003B611CE00023FB6013E027493A691346C4
:103790005B0013449B00FA6813441B010B44043381
:1037A0001B78002B02D07B6901337B61FB680133FE
:1037B000FB60FB680B2BE8DD3B6901333B613B6938
:1037C0000B2BDFDD7B6907EE903AF8EEE76ABB680A
:1037D00007EE903AB8EEE77AC6EE877A9FED137A55
:1037E00067EE877AC7ED017A7868FCF7B5FE024686
:1037F0000B46CDE90023BA6879690D48FDF776FCE0
:103800000C48FDF75DFC0C4B01221A6000BF183715
:10381000BD4680BD8CE70008680D0020B4E70008B5
:10382000D8E70008FCE70008680400200000C84250
:1038300020E8000850E80008D00D002080B400AF58
:10384000054B1B68002B14BF01230023DBB2184675
:10385000BD465DF8047B7047D00D002080B485B074
:1038600000AF214B1B69002B02D1DFED207A34E041
:103870001F4B1B6883EAE372A2EBE3721D4B1B68CC
:10388000002BB8BF5B421344FB60194B1B6883EAF3
:10389000E372A2EBE372174B1B68002BB8BF5B42CD
:1038A0001344BB60FA68BB6813447B607B68002BE1
:1038B00002D1DFED117A10E07B6807EE903AF8EE66
:1038C000E76A094B1B6907EE903AB8EEE77AC6EE55
:1038D000877A9FED097A67EE877AB0EE670A143728
:1038E000BD465DF8047B7047680D002000000000B5
:1038F000C00D0020C40D00200000C84280B400AFFD
:10390000034B1B681846BD465DF8047B704700BF3B
:103910006804002080B483B000AF194B1B685B6A59
:10392000FB80184B1B685B6ABB80174B1B88FA88AF
:10393000D31A9BB27B80154B1B88BA88D31A9BB2D3
:103940003B803B885B429BB23B80B7F90220104B27
:103950001B6813440E4A1360B7F900200D4B1B6817
:1039600013440C4A1360084AFB881380074ABB883B
:10397000138000BF0C37BD465DF8047B704700BF65
:1039800048030020D8030020040000200600002087
:10399000EC120020F012002080B500AFFFF7BAFF54
:1039A000014B1B68184680BDEC12002080B500AFAB
:1039B000FFF7B0FF014B1B68184680BDF0120020D6
:1039C00080B400AF0B4B00221A600B4B00221A6030
:1039D0000A4B1B685B6A9AB2094B1A80094B1B6839
:1039E0005B6A9AB2084B1A8000BFBD465DF8047B43
:1039F000704700BFEC120020F012002048030020A6
:103A000004000020D80300200600002080B500AF8D
:103A10003C21154805F05EF93C21144805F05AF99F
:103A2000114B1B684FF400425A62104B1B684FF455
:103A300000425A62012002F037FD0D4B4FF4004264
:103A40001A800C4B4FF400421A800B4B00221A6074
:103A50000A4B00221A600A4B00229A60084B00228F
:103A6000DA6000BF80BD00BFD803002048030020FB
:103A70000400002006000020EC120020F0120020BC
:103A8000A00D002080B500AF144B9B7A002B06D010
:103A90004FF47A614FF4167001F020FC05E040F21B
:103AA000BD3140F2BD3000F0CFF800F009FB4FF41B
:103AB00096614FF402709FED0A0A00F0DDFB094B9E
:103AC0009B6803335A4203F0030302F0030258BF1A
:103AD0005342044A936000BF80BD00BF7C0D0020AC
:103AE0000000B442680D002080B500AF144B9B7AF3
:103AF000002B06D040F6B8314FF4167001F0EEFB03
:103B000005E040F2BD3140F2BD3000F09DF800F01C
:103B1000D7FA4FF496614FF402709FED0A0A00F055
:103B2000ABFB094B9B6801335A4203F0030302F0DD
:103B3000030258BF5342044A936000BF80BD00BFD8
:103B40007C0D00200000B4C2680D002080B500AFDD
:103B50001D4B9B7A002B06D040F6B8314FF41670FF
:103B600001F0BCFB05E040F2BD3140F2BD3000F099
:103B70006BF84FF496614FF402709FED140A00F059
:103B80007BFB4FF496614FF402709FED100A00F03A
:103B900073FB0F4B9B6801335A4203F0030302F09F
:103BA000030258BF53420A4A9360094B9B68013392
:103BB0005A4203F0030302F0030258BF5342044A7F
:103BC000936000BF80BD00BF7C0D00200000B4C228
:103BD000680D002080B400AF0A4B1B6800225A63B6
:103BE000084B1B6800229A63064B1B680022DA63AD
:103BF000044B1B6800221A6400BFBD465DF8047BBD
:103C0000704700BF9003002080B500AF0D4B1B68CC
:103C10004FF47A725A630B4B1B684FF47A729A63B3
:103C2000084B1B684FF47A72DA63064B1B684FF43B
:103C30007A721A64C82002F037FCFFF7CBFF00BF8E
:103C400080BD00BF9003002080B588B000AF7860D1
:103C50003960FFF7B5FEFFF79FFEF861FFF7A6FE9C
:103C6000B86100F0F9F8FDF7B3FD00F019F9FFF7BE
:103C700093FE7861FFF79AFE3861FA697B69D31A7F
:103C8000FB60BA693B69D31ABB60FA687B689A42E9
:103C900007DABA683B689A4203DA012002F004FCB2
:103CA000E1E7FFF7B1FF00BF2037BD4680BD80B51B
:103CB0008AB000AF78603960FFF782FEFFF76CFED4
:103CC0007862FFF773FE38620023FB6140F28A23BB
:103CD000BB61B969F86901F0BDFC40F6B8314FF439
:103CE000167002F091F901F0D7FE01F03BFF40F2AF
:103CF0008A2001F047FF3220FEF72CFDFFF74CFE33
:103D00007861FFF753FE38617A6A7B69D31AFB60EA
:103D10003A6A3B69D31ABB60FA687B689A4204DA54
:103D2000BA683B689A4200DAE1E7FFF76DFF00BF2F
:103D30002837BD4680BD000080B584B000AF034683
:103D4000FB710B46BB711346BB80FB79002B15D171
:103D5000BB79002B08D0174B1B68BA885A63154BE8
:103D60001B6800229A6320E0124B1B68BA889A6392
:103D700000224021104803F0D5FA16E0BB79FB730E
:103D8000FB7B002B09D00B4B1B68BA881A640022FE
:103D900001210A4803F0C6FA07E0064B1B6800221F
:103DA0001A64044B1B68BA88DA6300BF1037BD463B
:103DB00080BD00BF900300200000024000040240CC
:103DC00080B582B002AFFFF7A5FD094B1968094B1A
:103DD0001A68094B1B68586A084B1B685B6A00939A
:103DE00003460748FDF782F900BFBD4680BD00BF0E
:103DF000EC120020F012002048030020D80300201D
:103E000024E9000880B485B000AF87ED030AC7ED50
:103E1000020A87ED011A97ED037AD7ED027AB4EE24
:103E2000E77AF1EE10FA01D5BB680BE097ED037A63
:103E3000D7ED017AB4EEE77AF1EE10FA01DD7B6896
:103E400000E0FB6807EE903AB0EE670A1437BD4613
:103E50005DF8047B7047000080B500AF0B4B4FF05E
:103E600000021A600A4B4FF000021A60094B4FF033
:103E700000021A60084B4FF000021A6002F008FBC3
:103E80000346064A136000BF80BD00BFF812002041
:103E9000FC1200200013002004130020F412002064
:103EA00080B588B000AF02F0F3FA38616C4B1B6844
:103EB0003A69D31A07EE903AB8EE677ADFED696A8D
:103EC000C7EE267AC7ED077AD7ED077AF5EEC07A06
:103ED000F1EE10FA01D8644BFB61614A3B69136053
:103EE000FDF73CFC87ED030A97ED037AD7ED077ADF
:103EF00027EE277A5D4BD3ED007A77EE277A5B4B7E
:103F0000C3ED007A594BD3ED007AB1EE047AB1EEED
:103F1000477AF1EE046AB0EE661AF0EE470AB0EEA8
:103F2000670AFFF76FFFF0EE407A504BC3ED007A5F
:103F30004F4BD3ED007A97ED037A77EE676A97EDF2
:103F4000077AC6EE877AC7ED027A9FED4A7A4A4B26
:103F5000D3ED007A27EE277ADFED467AF7EE006A96
:103F600076EEE76AD7ED027A66EEA77A77EE277AE1
:103F7000414BC3ED007A414B93ED007AD7ED037AC4
:103F800027EE277A3E4BD3ED006A384BD3ED007A0B
:103F900066EEA77A37EE277A3A4BD3ED006A364BB6
:103FA000D3ED007A66EEA77A77EE277AC7ED017A2D
:103FB00040F23A233B603B6807EE903AB8EEE77A6E
:103FC000D7ED017A77EE677AB0EE670A09F098FCD0
:103FD000F0EE407AFDEEE77A17EE903ABB613B686F
:103FE00007EE903AB8EEE77AD7ED017A77EE277AC6
:103FF000B0EE670A09F084FCF0EE407AFDEEE77A55
:1040000017EE903A7B61BB69B3F5966F02DD4FF412
:104010009663BB617B69B3F5966F02DD4FF49663DF
:104020007B61BB69002B01DA0023BB617B69002B3C
:1040300001DA00237B617B699BB21A4601210020D3
:10404000FFF77AFEBB699BB21A4601210120FFF7F8
:1040500073FE074AFB68136000BF2037BD4680BD72
:10406000F412002000007A446F12833AFC12002000
:10407000F812002007D06F3F001300200800002036
:104080000C0000201000002080B483B000AF87ED4A
:10409000010AD7ED017AF5EEC07AF1EE10FA02DBF3
:1040A0004FF07E5300E0054B07EE903AB0EE670A02
:1040B0000C37BD465DF8047B704700BF000080BF31
:1040C00080B500AF094B4FF000021A60084B4FF06B
:1040D00000021A60074B4FF000021A6002F0D8F994
:1040E0000346054A136000BF80BD00BF08130020CF
:1040F0000C13002010130020F412002080B588B0AB
:1041000000AF87ED030AC7ED020A786002F0C0F93C
:10411000B8614E4B1B68BA69D31A07EE903AB8EEF5
:10412000677ADFED4B6AC7EE267AC7ED077AD7EDDF
:10413000077AF5EEC07AF1EE10FA01D8454BFB6133
:10414000424ABB6913607B68002B02D07B68FA6926
:104150001A6097ED037AD7ED027A77EE677AC7EDAA
:10416000057A97ED057AD7ED077A27EE277A3A4B4D
:10417000D3ED007A77EE277A374BC3ED007A364BD2
:10418000D3ED007AB2EE047AF4EEC77AF1EE10FACB
:1041900002DD324A304B1A60F2EE047AB1EE677AF1
:1041A0002D4BD3ED007AB4EEE77AF1EE10FA06DD8E
:1041B000F2EE047AF1EE677A274BC3ED007A284BD2
:1041C000D3ED007A97ED057A77EE676A97ED077A77
:1041D000C6EE877AC7ED047A9FED227A224BD3EDA3
:1041E000007A27EE277ADFED1F7AF7EE006A76EE87
:1041F000E76AD7ED047A66EEA77A77EE277A1A4B4C
:10420000C3ED007A164A7B691360184B93ED007A70
:10421000D7ED057A27EE277A154BD3ED006A0E4BC2
:10422000D3ED007A66EEA77A37EE277A114BD3EDFD
:10423000006A0D4BD3ED007A66EEA77A77EE277A07
:10424000B0EE670A2037BD4680BD00BFF4120020E3
:1042500000007A446F12033B081300200000204145
:104260000C1300206666663F101300200800002033
:104270000C0000201000002080B52DED028B98B0BE
:1042800000AF87ED030AB8607960BB683B2B01DCA7
:104290003C23BB60BB68B3F5C87F02DD4FF4C87335
:1042A000BB60FFF70DFF4FF00003FB65FB68FB638E
:1042B00002F0EEF8B8630023BB6502F0E9F8786518
:1042C00002F0E6F878637A6B7B6DD31A07EE903ACA
:1042D000B8EE677ADFEDA76AC7EE267AC7ED147AE3
:1042E000D7ED147AF5EEC07AF1EE10FA01D8A24BB0
:1042F0003B657B6B7B65FDF76BFAFDF72FFA87ED6E
:104300000C0A97ED0C7AD7ED147A67EE277A97EDC1
:10431000177A77EE277AC7ED177A97ED0F7AD7EDF0
:10432000177A77EE677AC7ED0B7A944BD3ED007A64
:1043300037EEA77AD7ED0B7AF0EEE77A67EE277AB9
:10434000DFED8F0AB0EE670A09F070FAF0EE407AFE
:10435000B0EE670A09F04CFA87ED0A0A894BD3EDF3
:10436000007AB0EE671ADFED860A97ED0A0AFFF7CA
:1043700049FDB0EE408A97ED0B0AFFF785FEF0EE9F
:10438000407A68EE277AC7ED137AD7ED137AB0EE4C
:10439000E77A7D4BD3ED007AB4EEE77AF1EE10FACE
:1043A00002D54FF00003FB644FF000033B6107F1BF
:1043B00010031846D7ED0C0A97ED130AFFF79EFE7F
:1043C00087ED090AD7ED137AF0EEE77AF5EEC07AB9
:1043D000F1EE10FA06DD97ED137ADFED6C6AC7EEA9
:1043E000267A01E0DFED667AC7ED087A97ED087A64
:1043F000D7ED097A77EE277AC7ED077ABB6807EE23
:10440000903AB8EEE77AD7ED077AF0EEE77AF6EE73
:10441000006A67EEA67A77EE277AC7ED067ABB6860
:1044200007EE903AB8EEE77AD7ED077AF0EEE77A42
:10443000F6EE006A67EEA67A77EE277AC7ED057A80
:10444000D7ED077AF5EEC07AF1EE10FA06DB00231D
:1044500087F84B30012387F84A3005E0012387F8BD
:104460004B30002387F84A30D7ED0B7AB0EEE77A6D
:10447000474BD3ED007AB4EEE77AF1EE10FA22D88A
:10448000D7ED0C7AB0EEE77A424BD3ED007AB4EE7A
:10449000E77AF1EE10FA16D8002201210020FFF78A
:1044A0004BFC002201210120FFF746FCBB6D002BD5
:1044B00001D17B6BBB657A6BBB6DD21A364B1B6827
:1044C0009A4240D34AE00023BB6597ED050A09F004
:1044D00017FAF0EE407AFDEEE77A17EE903A7B6439
:1044E00097ED060A09F00CFAF0EE407AFDEEE77A55
:1044F00017EE903A3B647B6C002B01DA00237B645F
:104500007B6CB3F57A7F02DD4FF47A737B643B6C8E
:10451000002B01DA00233B643B6CB3F57A7F02DDAC
:104520004FF47A733B647B6C9AB297F84B30194620
:104530000020FFF701FC3B6C9AB297F84A3019460D
:104540000120FFF7F9FB7A6BBB6BD31A7A689A42AA
:1045500003D3022001F0A8FFB2E600BFFFF754FB2F
:104560003C2001F0A1FF00BF6037BD46BDEC028BCF
:1045700080BD00BF00007A446F12833A180000200B
:1045800000000000140000202800002097FFB03F2A
:104590001C000020200000202400002080B500AF77
:1045A00000224FF400710B4802F0BCFE00224FF4D1
:1045B0000071094802F0B6FE00224FF480710548F0
:1045C00002F0B0FE00224FF48071034802F0AAFE10
:1045D00000BF80BD000402400000024080B588B0EA
:1045E00000AF786007F10C0300221A605A609A60ED
:1045F000DA607B68FB6001233B6107237B6107F185
:104600000C031946154802F037F90346002B01D078
:1046100000231FE00520FEF79DF8104801F0ACFFD5
:104620000A210E4802F08FF80C4802F017F90B48E7
:1046300002F056F8094801F09FFF0A21074802F0EE
:1046400082F8064802F00AF90346FB83034802F0A9
:1046500047F8FB8B18462037BD4680BD600200201E
:1046600080B588B000AFFFF799FF0520FFF7B6FFD0
:104670000346BB830220FFF7B1FF0346FB83042000
:10468000FFF7ACFF03467B810320FFF7A7FF03463C
:104690003B8101224FF40071614802F043FE012288
:1046A0004FF480715F4802F03DFE3220FEF752F871
:1046B0000520FFF793FF0346FB800220FFF78EFFE4
:1046C0000346BB80FFF76AFF01224FF40071554893
:1046D00002F028FE01224FF48071514802F022FEC0
:1046E0005020FEF737F80420FFF778FF03467B8061
:1046F0000320FFF773FF03463B80FFF74FFFFA8865
:10470000BB8B9A4204D9FA88BB8BD31ABB6101E0F8
:104710000023BB61BA88FB8B9A4204D9BA88FB8B11
:10472000D31A7B6101E000237B617A887B899A42FE
:1047300004D97A887B89D31A3B6101E000233B616D
:104740003A883B899A4204D93A883B89D31AFB605C
:1047500001E00023FB60BB694FF47A7202FB03F3B4
:10476000314AA2FB03239B09BB617B694FF47A7238
:1047700002FB03F32C4AA2FB03239B097B613B69E9
:104780004FF47A7202FB03F3274AA2FB03239B092F
:104790003B61FB684FF47A7202FB03F3224AA2FBEF
:1047A00003239B09FB60BB699AB2204B1A817B698A
:1047B0009AB21E4B5A803B699AB21C4BDA80FB6856
:1047C0009AB21A4B9A800020FFF708FF03461A4658
:1047D000164B1A80154B1B89062B03D8134B5B888D
:1047E000062B01D9012300E0002303F00103DAB214
:1047F0000E4B9A720D4BDB880B2B8CBF01230023D1
:10480000DAB20A4BDA72094B9B880E2B8CBF01235C
:104810000023DAB2054B1A7300BF2037BD4680BDB6
:104820000004024000000240D34D62107C0D0020C5
:10483000B0B58EB000AF4B48FCF742FC4A4B5B6C06
:1048400003F48073002B03D04848FCF739FC02E0E6
:104850004748FCF735FC444B1B6B03F00103002B6E
:1048600003D04448FCF72CFC02E04348FCF728FC4A
:10487000424B1B6C012B03D14148FCF721FC05E0A6
:104880003E4B1B6C19463F48FCF730FC3E48FCF79A
:1048900017FC3E4B07F120041D460FCD0FC42B68BB
:1048A00023603B4B07F10C041D460FCD0FC42B6852
:1048B000236000237B634BE07B6B9B0038333B44DE
:1048C00053F8183C1846FFF789FE03461A467B6BDF
:1048D0005B0038333B4423F8382C7B6B9B00383328
:1048E0003B4453F82C1C7B6B9B0038333B4453F800
:1048F000183C002B1FD07B6B9B0038333B4453F894
:10490000183C022B15D07B6B9B0038333B4453F88B
:10491000183C032B0BD07B6B9B0038333B4453F884
:10492000183C042B01D1042206E0052204E00322F6
:1049300002E0022200E000227B6B5B0038333B4444
:1049400033F8383C1348FCF7D1FB7B6B01337B63B6
:104950007B6B042BB0DD1048FCF7B2FB00BF38378F
:10496000BD46B0BD9CF2000800380240C0F200080D
:10497000DCF20008F8F2000814F3000860020020DE
:1049800030F3000848F3000860F3000890F30008D3
:10499000DCF3000880F3000878F2000880B483B0EC
:1049A00000AF00237B60104B5B6C0F4A43F48043E5
:1049B00053640D4B5B6C03F480437B607B68002386
:1049C0003B60094B1B6C084A43F080531364064B51
:1049D0001B6C03F080533B603B6800BF0C37BD4647
:1049E0005DF8047B704700BF0038024080B58AB094
:1049F00000AF786007F1140300221A605A609A60D1
:104A0000DA601A617B681B68174A934227D100233A
:104A10003B61164B5B6C154A43F480735364134B34
:104A20005B6C03F480733B613B690023FB600F4BBD
:104A30001B6B0E4A43F0010313630C4B1B6B03F01B
:104A40000103FB60FB683D237B610323BB61002303
:104A5000FB6107F114031946054802F0DFFA00BFB5
:104A60002837BD4680BD00BF00200140003802400D
:104A70000000024080B58AB000AF786007F11403EF
:104A800000221A605A609A60DA601A617B681B68BB
:104A9000194A93422CD100233B61184B1B6C174AD7
:104AA00043F480431364154B1B6C03F480433B6158
:104AB0003B690023FB60114B1B6B104A43F0020360
:104AC00013630E4B1B6B03F00203FB60FB684FF498
:104AD00060437B610223BB610023FB6103233B62D4
:104AE00005237B6207F114031946054802F096FA84
:104AF00000BF2837BD4680BD003800400038024066
:104B00000004024080B584B000AF78607B681B6809
:104B1000184A934216D10023FB60174B5B6C164A70
:104B200043F001035364144B5B6C03F00103FB601F
:104B3000FB6800220721192002F0A7F9192002F0D2
:104B4000C0F912E07B681B680C4A93420DD1002328
:104B5000BB60094B1B6C084A43F002031364064B0D
:104B60001B6C03F00203BB60BB6800BF1037BD467F
:104B700080BD00BF0000014000380240000400403A
:104B800080B58CB000AF786007F11C0300221A607A
:104B90005A609A60DA601A617B681B68B3F1804FD3
:104BA0004BD10023BB613F4B1B6C3E4A43F00103DA
:104BB00013643C4B1B6C03F00103BB61BB69002316
:104BC0007B61384B1B6B374A43F001031363354B52
:104BD0001B6B03F001037B617B6900233B61314B5D
:104BE0001B6B304A43F0020313632E4B1B6B03F025
:104BF00002033B613B694FF40043FB6102233B62CC
:104C000000237B620023BB620123FB6207F11C03CC
:104C10001946254802F002FA0823FB6102233B6291
:104C200000237B620023BB620123FB6207F11C03AC
:104C300019461E4802F0F2F930E07B681B681C4AF6
:104C400093422BD10023FB60164B1B6C154A43F09B
:104C500004031364134B1B6C03F00403FB60FB6839
:104C60000023BB600F4B1B6B0E4A43F00203136320
:104C70000C4B1B6B03F00203BB60BB68C023FB61E2
:104C800002233B6200237B620023BB620223FB62A0
:104C900007F11C031946054802F0C0F900BF303780
:104CA000BD4680BD003802400000024000040240C2
:104CB0000008004080B58AB000AF786007F11403A7
:104CC00000221A605A609A60DA601A617B681B6879
:104CD000334A93421FD100233B61324B1B6B314A55
:104CE00043F0010313632F4B1B6B03F001033B6184
:104CF0003B694FF480637B610223BB610023FB614E
:104D000000233B6201237B6207F114031946264806
:104D100002F084F940E07B681B68244A93423BD14F
:104D20000023FB601F4B1B6B1E4A43F00103136300
:104D30001C4B1B6B03F00103FB60FB680023BB6093
:104D4000184B1B6B174A43F002031363154B1B6B85
:104D500003F00203BB60BB68C0237B610223BB611D
:104D60000023FB6100233B6202237B6207F11403F3
:104D700019460D4802F052F903237B610223BB61FF
:104D80000023FB6100233B6202237B6207F11403D3
:104D90001946074802F042F900BF2837BD4680BDDA
:104DA00000000140003802400000024000040040C2
:104DB0000004024080B58AB000AF786007F11403A8
:104DC00000221A605A609A60DA601A617B681B6878
:104DD0001D4A934234D100233B611C4B5B6C1B4A40
:104DE00043F020035364194B5B6C03F020033B61D9
:104DF0003B690023FB60154B1B6B144A43F0010316
:104E00001363124B1B6B03F00103FB60FB684FF451
:104E1000C0537B610223BB610023FB6103233B6220
:104E200008237B6207F114031946094802F0F6F8DB
:104E300000220621472002F028F8472002F041F81E
:104E400000BF2837BD4680BD001401400038024035
:104E50000000024080B400AF00BFFDE780B400AFA7
:104E600000BFFDE780B400AF00BFFDE780B400AF36
:104E700000BFFDE780B400AF00BFFDE780B400AF26
:104E800000BFBD465DF8047B704780B400AF00BF33
:104E9000BD465DF8047B704780B400AF00BFBD46DF
:104EA0005DF8047B704780B500AF01F0DDFA00BF0C
:104EB00080BD80B500AF022002F068FA00BF80BD5F
:104EC00080B500AF024803F093FF00BF80BD00BF74
:104ED0000003002080B500AF4FF4806002F056FA66
:104EE00000BF80BD80B500AF024804F0AFFE00BF38
:104EF00080BD00BF2004002080B400AF012318460D
:104F0000BD465DF8047B704780B582B000AF786025
:104F1000396006F0F3FB034616221A604FF0FF33A8
:104F200018460837BD4680BD80B582B000AF7860B6
:104F30004FF0FF317868FFF7E7FF00BFFDE780B56E
:104F400086B000AFF860B9607A6000237B610AE048
:104F5000AFF300800146BB685A1CBA60CAB21A702F
:104F60007B6901337B617A697B689A42F0DB7B68FD
:104F700018461837BD4680BD80B586B000AFF860D2
:104F8000B9607A6000237B6109E0BB685A1CBA6093
:104F90001B781846AFF300807B6901337B617A6927
:104FA0007B689A42F1DB7B6818461837BD4680BDA6
:104FB00080B483B000AF78604FF0FF3318460C37F1
:104FC000BD465DF8047B704780B483B000AF786065
:104FD00039603B684FF400525A60002318460C3782
:104FE000BD465DF8047B704780B483B000AF786045
:104FF000012318460C37BD465DF8047B704780B42A
:1050000085B000AFF860B9607A60002318461437A5
:10501000BD465DF8047B704780B586B000AF786010
:10502000144A154BD31A7B617B693B61134B1B6898
:10503000002B02D1114B124A1A60104B1A687B6880
:1050400013443A699A4207D206F058FB03460C22F1
:105050001A604FF0FF3309E0084B1B68FB60074BF9
:105060001A687B681344054A1360FB6818461837B2
:10507000BD4680BD00000220000400001413002083
:10508000B014002080B400AF064BD3F88830054A36
:1050900043F47003C2F8883000BFBD465DF8047B5E
:1050A000704700BF00ED00E080B582B000AF03465E
:1050B0000A46FB711346BB71FB79002B14BF012319
:1050C0000023DBB21A461021084802F02BF9BB7905
:1050D000002B14BF01230023DBB21A462021034812
:1050E00002F020F900BF0837BD4680BD0004024031
:1050F00080B582B000AF00237B6010E0002101206A
:10510000FFF7D2FF962001F0CFF901210020FFF731
:10511000CBFF962001F0C8F97B6801337B607B6888
:10512000022BEBDD00210020FFF7BEFF00BF083798
:10513000BD4680BD80B500AF00210120FFF7B4FF60
:1051400000BF80BD80B500AF01210020FFF7ACFF9C
:1051500000BF80BD80B582B000AF00237B6010E04F
:1051600001210120FFF7A0FFC82001F09DF90021D7
:105170000020FFF799FFC82001F096F97B68013302
:105180007B607B68042BEBDD00BF00BF0837BD46AA
:1051900080BD80B582B000AF00237B6010E00121AC
:1051A0000120FFF781FF322001F07EF9002100206D
:1051B000FFF77AFF322001F077F97B6801337B60DB
:1051C0007B68092BEBDD00BF00BF0837BD4680BD03
:1051D00080B483B000AF78607B68032B12D801A243
:1051E00052F823F0F5510008F9510008FD5100086C
:1051F00001520008074B06E0074B04E0074B02E0B2
:10520000074B00E0074B18460C37BD465DF8047BA2
:10521000704700BFACF40008B4F40008BCF4000808
:10522000C4F40008CCF4000880B582B000AF0123BC
:10523000FB711A4B1B8840F6B732934206D81848C8
:10524000FBF73EFFFBF721FF0023FB71134B1B898C
:10525000002B10D1114B5B88002B0CD10F4BDB883E
:10526000002B08D10D4B9B88002B04D10D48FBF778
:1052700027FF0023FB717520FCF70CF90346BB7177
:10528000BB79712B04D00848FBF71AFF0023FB7190
:10529000FB7918460837BD4680BD00BF7C0D002055
:1052A000D4F40008F8F4000820F5000880B485B0B4
:1052B00000AFF860B9607A60FA68BB689A4205DBB3
:1052C000FA687B689342A8BF134600E0BB681846A3
:1052D0001437BD465DF8047B7047000080B5A0B070
:1052E00000AF78603960B04B3B66B04BFB65B04BAC
:1052F000BB65B04B7B6500233B650A23FB640C2335
:10530000BB6496237B647B683B644FF4FA73FB6356
:105310004FF00003FB674FF00003BB6701F0B8F8E4
:10532000B86300237B6701F0B3F8386700220121DE
:105330000020FEF701FD002201210120FEF7FCFC08
:1053400001F0A6F878637A6B3B6FD31A07EE903AB8
:10535000B8EE677ADFED986AC7EE267AC7ED1B7A5A
:10536000D7ED1B7AF5EEC07AF1EE10FA01D8934B27
:10537000FB667B6B3B67FFF773F9914B1B893B63C4
:105380008F4B5B88FB623B6B503BBB62FB6A503BC5
:105390007B62BA6A7B6A134407EE903AF8EEE77ACA
:1053A000B6EE007A67EE877AC7ED087ABA6A7B6A4A
:1053B000D21A3B6D134407EE903AF8EEE77AC7ED48
:1053C000077A97ED087AD7ED1B7A67EE277A97ED83
:1053D0001F7A77EE277AC7ED1F7A97ED077AD7ED18
:1053E0001B7A67EE277A97ED1E7A77EE277AC7ED5C
:1053F0001E7AD7ED1F7A9FED737AF4EEC77AF1EE3D
:1054000010FA01DD704BFB67D7ED1F7A9FED6F7AC5
:10541000F4EEC77AF1EE10FA01D56D4BFB67D7EDCC
:105420001E7A9FED687AF4EEC77AF1EE10FA01DD8C
:10543000654BBB67D7ED1E7A9FED647AF4EEC77AB1
:10544000F1EE10FA01D5624BBB6797ED187AD7EDF4
:10545000087A27EE277AD7ED176AD7ED1F7A66EE1E
:10546000A77A77EE277AC7ED067A97ED167AD7ED09
:10547000077A27EE277AD7ED156AD7ED1E7A66EE02
:10548000A77A77EE277AC7ED057AD7ED067AB1EEDF
:10549000677AD7ED057A77EE677AB0EE670A08F09B
:1054A000FFF9B86697ED057AD7ED067A77EE677A59
:1054B000B0EE670A08F0F4F978663B6C5B423A6C30
:1054C0001946B86EFFF7F2FEB8663B6C5B423A6C69
:1054D0001946786EFFF7EAFE786697ED080A08F03D
:1054E000DFF90346002BB8BF5B42FA6C9A42ACBFAF
:1054F00001230023FB7497ED070A08F0D1F9034656
:10550000002BB8BF5B42BA6C9A42ACBF01230023A8
:10551000BB74FB7C002B04D0BB7C002B01D001238F
:1055200000E000237B747B7C03F001037B747B7CB5
:1055300083F00103DBB2002B28D0BB6E002B05DD0E
:10554000BA6EFB6B9A4201DAFB6BBB66BB6E002B3B
:1055500007DABB6E5B42FA6B9A4202DDFB6B5B4281
:10556000BB667B6E002B05DD7A6EFB6B9A4201DA1F
:10557000FB6B7B667B6E002B0CDA7B6E5B42FA6BFF
:105580009A4207DDFB6B5B427B6603E00023BB6650
:1055900000237B66BB6E002B1CD17B6E002B19D1C8
:1055A000FEF732FB34E000BF0000F0419A99993ECB
:1055B00000002841CDCCCC3D00007A446F12833AE4
:1055C0007C0D00200000C8420000C8420000C8C294
:1055D0000000C8C2BB6EDB43DB0F3B747B6EDB435A
:1055E000DB0FFB73BB6E002BB8BF5B42BB817B6ED6
:1055F000002BB8BF5B427B81BA893B7C19460020F7
:10560000FEF79AFB7A89FB7B19460120FEF794FB93
:105610007B7C002B0ED07B6F002B01D17B6B7B67DB
:105620007A6B7B6FD31A7A6C9A4205D8FEF7ECFA44
:1056300001230BE000237B677A6BBB6BD31A3A68BC
:105640009A42BFF47DAEFEF7DFFA0023184680379A
:10565000BD4680BD80B582B000AF786039607B68A0
:10566000012B06D07B68022B01D1022302E000232C
:1056700000E001230F4A13700F4A3B6813600F4B81
:105680004FF000021A600E4B4FF000021A600D4BF3
:105690004FF000021A6000F0FBFE03460A4A136056
:1056A000FEF7DEFF094B00221A6000BF0837BD4637
:1056B00080BD00BF201300203000002024130020F4
:1056C000281300202C130020301300203413002056
:1056D00080B487B000AFF860B9607A603B60BB68A7
:1056E0001B68FA689A4203DB7B68D3ED007A72E0AC
:1056F0003B6803F18043013B9B00BA6813441B687D
:10570000FA689A4209DC3B6803F18043013B9B0045
:105710007A681344D3ED007A5DE000237B6150E0AA
:105720007B699B00BA6813441B68FA689A4245DC9F
:105730007B6901339B00BA6813441B68FA689A427C
:105740003CDB7B6901339B00BA6813441B68FA6831
:10575000D31A07EE903AF8EEE76A7B699B00BA68C5
:1057600013441A687B6901339B00B9680B441B68BA
:10577000D31A07EE903AB8EEE77AC6EE877AC7ED0D
:10578000047A7B6901339B007A68134493ED007AB5
:105790007B699B007A681344D3ED006A7B6901330F
:1057A0009B007A681344D3ED007A76EEE76AD7ED72
:1057B000047A66EEA77A77EE277A0CE07B690133EC
:1057C0007B613B68013B7A699A42A9DBFB6807EE83
:1057D000903AF8EEE77AB0EE670A1C37BD465DF8FE
:1057E000047B704780B590B000AF87ED030AB860C6
:1057F00079603A60FEF734FF934BDB7ABB63924BE0
:105800001B7B7B63904B9B7A3B63BB68002B02D076
:10581000BB68BA6B1A607B68002B02D07B687A6B1E
:105820001A603B68002B02D03B683A6B1A60864BCB
:10583000DB88FB62844B9B88BB624FF00003FB63F9
:10584000BB6B002B50D07B6B002B4DD020237F4AAD
:105850007F49F86AFFF73CFF87ED090A21237D4A5B
:105860007D49B86AFFF734FF87ED080A97ED097A9A
:10587000D7ED087A37EE677A784BD3ED007A67EE8A
:10588000277AC7ED0F7A764BD3ED007AB7EE007A20
:1058900037EE677A734BD3ED007A27EE277A704B99
:1058A000D3ED006AD7ED097A66EEA77A77EE277A0C
:1058B0006C4BC3ED007A6A4BD3ED007AB7EE007AF9
:1058C00037EE677A684BD3ED007A27EE277A644B80
:1058D000D3ED006AD7ED087A66EEA77A77EE277ADD
:1058E000614BC3ED007A2CE0BB6B002B11D0202361
:1058F000564A5749F86AFFF7EBFE87ED060A5B4BFD
:10590000D3ED007A97ED067A77EE677AC7ED0F7AD6
:1059100017E07B6B002B11D021234E4A4E49B86A09
:10592000FFF7D6FE87ED070A514B93ED007AD7EDCE
:10593000077A77EE677AC7ED0F7A02E04FF000033F
:10594000FB6397ED0F7AD7ED037A27EE277A494B61
:10595000D3ED007A77EE277A464BC3ED007A454BBC
:1059600093ED007A444BD3ED007AB4EEE77AF1EE92
:1059700010FA03DD404B1B683E4A13603E4BD3EDEB
:10598000007AB1EE677A3B4BD3ED007AB4EEE77A5A
:10599000F1EE10FA07DD384BD3ED007AF1EE677ABD
:1059A000344BC3ED007A354BD3ED007A97ED0F7A87
:1059B00077EE676A97ED037AC6EE877AC7ED057AC8
:1059C0002F4B93ED007A2F4BD3ED007A27EE277AF9
:1059D0002B4BD3ED007AF7EE006A76EEE76AD7ED4F
:1059E000057A66EEA77A77EE277A264BC3ED007A22
:1059F000224AFB6B1360244B93ED007AD7ED0F7AAC
:105A000027EE277A214BD3ED006A1A4BD3ED007AAB
:105A100066EEA77A37EE277A1D4BD3ED006A194B55
:105A2000D3ED007A66EEA77A77EE277AC7ED047A8F
:105A3000184B93ED007AD7ED047A67EE277AB0EE33
:105A4000670A4037BD4680BD7C0D002024F7000862
:105A5000A4F6000820F600089CF500084C00002081
:105A6000480000205C00002060000020540000205E
:105A70005800002038130020440000203C13002070
:105A800040000020401300203C000020181300209C
:105A90001C1300205000002080B500AF214B4FF0B8
:105AA00000021A60204B4FF000021A601F4B4FF0AB
:105AB00000021A6000F0ECFC03461D4A13601D4B07
:105AC0004FF000021A601C4B4FF000021A601B4B93
:105AD0004FF000021A601A4B4FF000021A6000F0FB
