:020000040800F2
:10000000000002209D450008014300080943000844
:1000100011430008194300082143000800000000B4
:10002000000000000000000000000000294300085C
:100030003743000800000000454300085343000810
:10004000ED450008ED450008ED450008ED450008C8
:10005000ED450008ED450008ED4500085F43000848
:10006000ED450008ED450008ED450008ED450008A8
:10007000ED450008ED450008ED450008ED45000898
:10008000ED450008ED450008ED45000800000000C2
:10009000000000000000000000000000ED45000826
:1000A000ED4500086D430008ED450008ED450008EA
:1000B000ED450008ED450008ED450008ED45000858
:1000C000ED450008ED450008ED450008ED45000848
:1000D000ED450008ED450008ED4500080000000072
:1000E00081430008ED450008ED45000800000000D0
:1000F000000000000000000000000000ED450008C6
:1001000000000000ED450008ED450008ED45000841
:1001100000000000000000000000000000000000DF
:10012000ED450008ED450008ED450008ED450008E7
:10013000ED45000800000000000000000000000085
:10014000000000000000000000000000ED45000875
:10015000ED450008ED450008ED4500089143000815
:10016000ED450008ED45000800000000000000001B
:10017000000000000000000000000000000000007F
:1001800000000000ED450008000000000000000035
:08019000ED450008ED450008F3
:1001A00010B5054C237833B9044B13B10448AFF3B1
:1001B00000800123237010BDDC010020000000003E
:1001C000B8B9000808B5034B1BB103490348AFF3A6
:1001D000008008BD00000000E0010020B8B9000860
:1001E00001F0FF01102A2BDB10F0070F08D010F8E8
:1001F000013B013A8B422DD010F0070F42B3F6D1EC
:10020000F0B441EA012141EA014122F007047FF004
:1002100000070023F0E80256083C85EA010586EA5B
:10022000010685FA47F5A3FA87F586FA47F6A5FA97
:1002300087F68EB9EED1F0BC01F0FF0102F00702A3
:1002400032B110F8013B013A83EA010313B1F8D14E
:100250000020704701387047002D06BF354603382F
:10026000073815F0010F07D1013015F4807F02BF68
:10027000013015F4C03F0130F0BC0138704700BFB9
:10028000034613F8012B002AFBD1181A01387047D6
:1002900081F0004102E000BF83F0004330B54FEA37
:1002A00041044FEA430594EA050F08BF90EA020FA4
:1002B0001FBF54EA000C55EA020C7FEA645C7FEA37
:1002C000655C00F0E2804FEA5454D4EB5555B8BF5A
:1002D0006D420CDD2C4480EA020281EA030382EACB
:1002E000000083EA010180EA020281EA0303362D5D
:1002F00088BF30BD11F0004F4FEA01314FF4801C30
:100300004CEA113102D0404261EB410113F0004F41
:100310004FEA03334CEA133302D0524263EB4303F8
:1003200094EA050F00F0A780A4F10104D5F1200E96
:100330000DDB02FA0EFC22FA05F2801841F10001F1
:1003400003FA0EF2801843FA05F359410EE0A5F1C5
:1003500020050EF1200E012A03FA0EFC28BF4CF0F6
:10036000020C43FA05F3C01851EBE37101F00045AC
:1003700007D54FF0000EDCF1000C7EEB00006EEBB9
:100380000101B1F5801F1BD3B1F5001F0CD3490843
:100390005FEA30004FEA3C0C04F101044FEA44529A
:1003A00012F5800F80F09A80BCF1004F08BF5FEA21
:1003B000500C50F1000041EB045141EA050130BD01
:1003C0005FEA4C0C404141EB0101013C28BFB1F513
:1003D000801FE9D291F0000F04BF01460020B1FA5E
:1003E00081F308BF2033A3F10B03B3F120020CDA31
:1003F0000C3208DD02F1140CC2F10C0201FA0CF00F
:1004000021FA02F10CE002F11402D8BFC2F1200C73
:1004100001FA02F120FA0CFCDCBF41EA0C01904029
:10042000E41AA2BF01EB0451294330BD6FEA040472
:100430001F3C1CDA0C340EDC04F11404C4F120025D
:1004400020FA04F001FA02F340EA030021FA04F36F
:1004500045EA030130BDC4F10C04C4F1200220FAC6
:1004600002F001FA04F340EA0300294630BD21FA04
:1004700004F0294630BD94F0000F83F4801306BFCA
:1004800081F480110134013D4EE77FEA645C18BFBE
:100490007FEA655C29D094EA050F08BF90EA020F55
:1004A00005D054EA000C04BF1946104630BD91EA4D
:1004B000030F1EBF0021002030BD5FEA545C05D150
:1004C0004000494128BF41F0004130BD14F580048F
:1004D0003CBF01F5801130BD01F0004545F0FE4103
:1004E00041F470014FF0000030BD7FEA645C1ABF38
:1004F000194610467FEA655C1CBF0B46024650EA6F
:10050000013406BF52EA033591EA030F41F400219A
:1005100030BD00BF90F0000F04BF0021704730B520
:100520004FF4806404F132044FF000054FF00001F5
:1005300050E700BF90F0000F04BF0021704730B5B6
:100540004FF4806404F1320410F0004548BF40428B
:100550004FF000013EE700BF42004FEAE2014FEAE0
:1005600031014FEA02701FBF12F07F4393F07F4FBB
:1005700081F06051704732F07F4208BF704793F0BE
:100580007F4F04BF41F40021704730B54FF46074D1
:1005900001F0004521F000411CE700BF50EA0102D4
:1005A00008BF704730B54FF000050AE050EA01027D
:1005B00008BF704730B511F0004502D5404261EBED
:1005C00041014FF4806404F132045FEA915C3FF42E
:1005D000D8AE4FF003025FEADC0C18BF03325FEACB
:1005E000DC0C18BF033202EBDC02C2F1200300FA7C
:1005F00003FC20FA02F001FA03FE40EA0E0021FAA1
:1006000002F11444BDE600BF70B54FF0FF0C4CF48E
:10061000E06C1CEA11541DBF1CEA135594EA0C0F40
:1006200095EA0C0F00F0DEF82C4481EA030621EA7B
:100630004C5123EA4C5350EA013518BF52EA0335B6
:1006400041F4801143F4801338D0A0FB02CE4FF068
:100650000005E1FB02E506F00042E0FB03E54FF098
:100660000006E1FB03569CF0000F18BF4EF0010E90
:10067000A4F1FF04B6F5007F64F5407404D25FEA8C
:100680004E0E6D4146EB060642EAC62141EA55513F
:100690004FEAC52040EA5E504FEACE2EB4F1FD0C81
:1006A00088BFBCF5E06F1ED8BEF1004F08BF5FEAFF
:1006B000500E50F1000041EB045170BD06F00046B1
:1006C00046EA010140EA020081EA0301B4EB5C045E
:1006D000C2BFD4EB0C0541EA045170BD41F4801156
:1006E0004FF0000E013C00F3AB8014F1360FDEBF7B
:1006F000002001F0004170BDC4F10004203C35DA57
:100700000C341BDC04F11404C4F1200500FA05F3D9
:1007100020FA04F001FA05F240EA020001F000427A
:1007200021F0004110EBD37021FA04F642EB0601F0
:100730005EEA430E08BF20EAD37070BDC4F10C041A
:10074000C4F1200500FA04F320FA05F001FA04F2DE
:1007500040EA020001F0004110EBD37041F10001CA
:100760005EEA430E08BF20EAD37070BDC4F12005D5
:1007700000FA05F24EEA020E20FA04F301FA05F23D
:1007800043EA020321FA04F001F0004121FA04F2E5
:1007900020EA020000EBD3705EEA430E08BF20EAB5
:1007A000D37070BD94F0000F0FD101F000464000EF
:1007B00041EB010111F4801F08BF013CF7D041EA71
:1007C000060195F0000F18BF704703F00046520075
:1007D00043EB030313F4801F08BF013DF7D043EA46
:1007E0000603704794EA0C0F0CEA135518BF95EAFC
:1007F0000C0F0CD050EA410618BF52EA4306D1D183
:1008000081EA030101F000414FF0000070BD50EAA1
:10081000410606BF1046194652EA430619D094EA2B
:100820000C0F02D150EA013613D195EA0C0F05D115
:1008300052EA03361CBF104619460AD181EA030169
:1008400001F0004141F0FE4141F470014FF0000021
:1008500070BD41F0FE4141F4780170BD70B54FF0BC
:10086000FF0C4CF4E06C1CEA11541DBF1CEA13553C
:1008700094EA0C0F95EA0C0F00F0A7F8A4EB05041E
:1008800081EA030E52EA03354FEA013100F0888015
:100890004FEA03334FF0805545EA131343EA1263DE
:1008A0004FEA022245EA111545EA10654FEA002693
:1008B0000EF000419D4208BF964244F1FD0404F54C
:1008C000407402D25B084FEA3202B61A65EB0305A8
:1008D0005B084FEA32024FF480104FF4002CB6EB65
:1008E000020E75EB030E22BFB61A754640EA0C00E5
:1008F0005B084FEA3202B6EB020E75EB030E22BF25
:10090000B61A754640EA5C005B084FEA3202B6EB65
:10091000020E75EB030E22BFB61A754640EA9C0024
:100920005B084FEA3202B6EB020E75EB030E22BFF4
:10093000B61A754640EADC0055EA060E18D04FEAB2
:10094000051545EA16754FEA06164FEAC30343EA52
:1009500052734FEAC2025FEA1C1CC0D111F4801F1F
:100960000BD141EA00014FF000004FF0004CB6E718
:1009700011F4801F04BF01430020B4F1FD0C88BFB7
:10098000BCF5E06F3FF6AFAEB5EB030C04BFB6EBC2
:10099000020C5FEA500C50F1000041EB045170BDB5
:1009A0000EF0004E4EEA113114EB5C04C2BFD4EBE2
:1009B0000C0541EA045170BD41F480114FF0000E66
:1009C000013C90E645EA060E8DE60CEA135594EAE2
:1009D0000C0F08BF95EA0C0F3FF43BAF94EA0C0FE5
:1009E0000AD150EA01347FF434AF95EA0C0F7FF45A
:1009F00025AF104619462CE795EA0C0F06D152EAAE
:100A000003353FF4FDAE1046194622E750EA410691
:100A100018BF52EA43067FF4C5AE50EA41047FF4A2
:100A20000DAF52EA43057FF4EBAE12E74FF0FF3C07
:100A300006E000BF4FF0010C02E000BF4FF0010CD8
:100A40004DF804CD4FEA410C7FEA6C5C4FEA430C51
:100A500018BF7FEA6C5C1BD001B050EA410C0CBFA0
:100A600052EA430C91EA030F02BF90EA020F002002
:100A7000704710F1000F91EA030F58BF994208BF69
:100A800090422CBFD8176FEAE37040F00100704726
:100A90004FEA410C7FEA6C5C02D150EA013C07D17D
:100AA0004FEA430C7FEA6C5CD6D152EA033CD3D0C8
:100AB0005DF8040B704700BF8446104662468C46C2
:100AC0001946634600E000BF01B5FFF7B7FF0028F5
:100AD00048BF10F1000F01BD4DF808EDFFF7F4FF1E
:100AE0000CBF012000205DF808FB00BF4DF808EDA9
:100AF000FFF7EAFF34BF012000205DF808FB00BFCC
:100B00004DF808EDFFF7E0FF94BF012000205DF8ED
:100B100008FB00BF4DF808EDFFF7CEFF94BF0120A2
:100B200000205DF808FB00BF4DF808EDFFF7C4FF9B
:100B300034BF012000205DF808FB00BF4FEA410CE4
:100B40007FEA6C5C02D150EA013C0AD14FEA430CC7
:100B50007FEA6C5C02D152EA033C02D14FF0000004
:100B600070474FF0010070474FEA410212F5001242
:100B700015D211D56FF47873B3EB625212D94FEAE4
:100B8000C12343F0004343EA505311F0004F23FACE
:100B900002F018BF404270474FF00000704750EA23
:100BA000013005D111F0004008BF6FF000407047E0
:100BB0004FF00000704700BF53B94AB9002908BF81
:100BC00000281CBF4FF0FF314FF0FF3000F088B914
:100BD000ADF1080C6DE904CE00F006F8DDF804E094
:100BE000DDE9022304B070472DE9F047089D8E46E9
:100BF00004468846002B4AD18A42174662D9B2FA87
:100C000082F64EB1C6F1200301FA06F820FA03F38A
:100C1000B74043EA0808B4404FEA174E1FFA87FC72
:100C2000B8FBFEF1230C0EFB118843EA084301FBDD
:100C30000CF29A4209D9FB1801F1FF3080F0EA80EA
:100C40009A4240F2E78002393B449A1AA3B2B2FBBF
:100C5000FEF00EFB102243EA024300FB0CFC9C4515
:100C600009D9FB1800F1FF3280F0D6809C4540F294
:100C7000D3803B44023840EA0140A3EB0C0300213F
:100C80001DB1F3400022C5E90032BDE8F0878B4278
:100C900005D90DB1C5E9000100210846F5E7B3FA11
:100CA00083F1002946D1734502D3824200F20581C7
:100CB000841A6EEB030201209046002DE5D0C5E9B1
:100CC0000048E2E7002A00F09080B2FA82F6002E97
:100CD00040F0A4808A1A030C4FEA174E80B2BCB2CF
:100CE0000121B2FBFEFC0EFB1C2243EA024304FB83
:100CF0000CF29A4207D9FB180CF1FF3802D29A4243
:100D000000F2E080C4469B1AB3FBFEF20EFB1233E6
:100D100040EA034302FB04F49C4207D9FB1802F1AA
:100D2000FF3002D29C4200F2CA8002461B1B42EAFC
:100D30000C40A5E7C1F120068B4022FA06F71F43BD
:100D40000EFA01F420FA06F32EFA06FE4FEA1749CE
:100D5000234300FA01F81FFA87FCBEFBF9F01C0CD4
:100D600009FB10EE44EA0E4400FB0CFEA64502FA15
:100D700001F209D93C1900F1FF3A80F09C80A645A8
:100D800040F2998002383C44A4EB0E041FFA83FE23
:100D9000B4FBF9F309FB13444EEA044403FB0CFCD7
:100DA000A44508D93C1903F1FF3E80F08280A44598
:100DB0007FD9023B3C4443EA0040A4EB0C04A0FB77
:100DC00002EC64457346E14662D35FD05DB1B8EB97
:100DD000030264EB090404FA06F622FA01F31E4347
:100DE000CC40C5E9006400214FE7B1FBF2FC010CE7
:100DF00041EA0E4180B240EA01423B4638463C4659
:100E0000B846BE462026B1FBF7F1A2EB080241EA44
:100E10000C4166E7014618E710462CE7C6F12002B0
:100E20002EFA02F3B740B14020FA02F24FEA174E11
:100E30000A43B3FBFEF8BCB20EFB1833110C41EAB7
:100E4000034108FB04F9B04089454FEA104380B2E2
:100E50003ED9791808F1FF3C01D289451FD8A1EB92
:100E60000901B1FBFEF909FB04F80EFB191192B25E
:100E700042EA0142424529D2BA1809F1FF31C4D2EF
:100E80004245C2D2A9F102013A44BEE7F0459DD2E3
:100E9000BEEB02036CEB070C0138E14696E7A7EBCB
:100EA00009094944A8F1020CB1FBFEF909FB04F859
:100EB000DBE773467FE7504666E70846FDE63B44BE
:100EC000023A33E7ACF1020C3B441CE749469CE78D
:100ED000A1EB0901C446B1FBFEF909FB04F8C4E724
:100EE000704700BF80B584B000AF03460A46FB8060
:100EF0001346BB80FB88002B06D100F037F8BB8877
:100F0000184603F0E7FB2AE0FB88164A92FBF3F34E
:100F1000FB60FB68B3F5803F02D34FF6FF73FB60C5
:100F2000FB68132B01D81423FB600F4B1B68FA6876
:100F3000013ADA62FB68013B0B4AD3600A4B1B683B
:100F4000FA685208DA630821074805F01FFEBB88DB
:100F5000184603F0BFFB0821034805F0C7FE103711
:100F6000BD4680BD00093D009C02002080B500AF59
:100F70000821024805F0BAFE00BF80BD9C02002097
:100F800080B500AFC82140F20B20FFF7ABFF322144
:100F90000020FFF7A7FFC82140F29320FFF7A2FF30
:100FA00032210020FFF79EFF4FF496714FF44470FA
:100FB000FFF798FF00BF80BD80B500AF96214FF4CA
:100FC0004470FFF78FFF32210020FFF78BFFC8210D
:100FD00040F21740FFF786FF00BF80BD80B500AF2D
:100FE000642140F20B20FFF77DFF642140F2932043
:100FF000FFF778FF64214FF44470FFF773FFC821B7
:1010000040F21740FFF76EFF64210020FFF76AFFF0
:10101000642140F21740FFF765FF64214FF44470EC
:10102000FFF760FF4FF4967140F21740FFF75AFF49
:1010300000BF80BD80B582B000AF00237B600AE0B6
:10104000C821DC20FFF74EFF64210020FFF74AFF94
:101050007B6801337B607B68022BF1DD00BF00BF42
:101060000837BD4680BD000080B5ADF5036D00AF0B
:10107000634800F04DFC0023C7F82C381DE0002326
:10108000C7F8283810E05F49D7F82C381A01D7F88C
:10109000283813441B010B4442F20F721A60D7F830
:1010A00028380133C7F82838D7F828380F2BEADD5D
:1010B000D7F82C380133C7F82C38D7F82C380F2B39
:1010C000DDDD002387F827384F4B1A684F4B1B682C
:1010D0004C49120113441B010B4404331B78002BB1
:1010E00015D0494B1A68494B1B68464912011344F5
:1010F0001B010B4400221A60012387F82738424B5A
:101100001B68424A12681946414800F017FC414BDF
:101110001A683E4B1B683B49120113441B010B44E8
:1011200004331B78002B15D03A4B1A68374B1B68D9
:101130003449120113441B010B4400221A6001239D
:1011400087F82738334B1B68304A126819463048F5
:1011500000F0F4FB2C4B1A682F4B1B682949120135
:1011600013441B010B4404331B78002B15D0264B72
:101170001A68294B1B682349120113441B010B44B5
:1011800000221A60012387F827381F4B1B68224A68
:10119000126819461E4800F0D1FB1E4B1A681E4B00
:1011A0001B681849120113441B010B4404331B78BC
:1011B000002B15D0174B1A68174B1B6811491201E9
:1011C00013441B010B4400221A60012387F82738BF
:1011D000104B1B68104A126819460D4800F0AEFB10
:1011E00097F8273883F00103DBB2002B1AD00B48A5
:1011F00000F08EFB0A4B42F20F721A60BAE100BF98
:10120000D0B9000804040020E0D40008E4D40008A9
:101210000CBA0008E8D40008ECD4000828BA00088A
:10122000541400200023C7F820380023C7F81C38C6
:10123000B84B1A68B84B1B68B849120113441B011C
:101240000B4404331B78002B22D0B24B1A68B24BEC
:101250001B68B249120113441B010B441B68002B8D
:1012600016D1AC4B196807F50363A3F58663D7F86D
:101270001C2843F82210D7F81C385A1CC7F81C2821
:10128000A54A116807F50362A2F5036242F823102C
:10129000A34B1A68A04B1B68A049120113441B0101
:1012A0000B4404331B78002B22D09D4B1A689A4BB9
:1012B0001B689A49120113441B010B441B68002B45
:1012C00016D1974B196807F50363A3F58663D7F822
:1012D0001C2843F82210D7F81C385A1CC7F81C28C1
:1012E0008D4A116807F50362A2F5036242F82310E4
:1012F000884B1A688B4B1B688849120113441B01E9
:101300000B4404331B78002B22D0824B1A68854B88
:101310001B688249120113441B010B441B68002BFC
:1013200016D17C4B196807F50363A3F58663D7F8DC
:101330001C2843F82210D7F81C385A1CC7F81C2860
:10134000784A116807F50362A2F5036242F8231098
:10135000734B1A68734B1B687049120113441B01CD
:101360000B4404331B78002B22D06D4B1A686D4B55
:101370001B686A49120113441B010B441B68002BB4
:1013800016D1674B196807F50363A3F58663D7F891
:101390001C2843F82210D7F81C385A1CC7F81C2800
:1013A000604A116807F50362A2F5036242F8231050
:1013B0000023C7F81838C7E007F50363A3F5866371
:1013C000D7F8202853F82230C7F81038D7F820383B
:1013D0005A1CC7F8202807F50362A2F5036252F8E9
:1013E0002330C7F80C380023C7F81438A7E04E4A5A
:1013F000D7F8143852F82330D7F810281344C7F818
:1014000008384A4AD7F8143852F82330D7F80C284D
:101410001344C7F80438D7F80838002BC0F28A8084
:10142000D7F808380F2B00F38580D7F80438002B45
:10143000C0F28080D7F804380F2B7BDC3749D7F80F
:1014400008381A01D7F8043813441B010B4404333D
:101450001B78002B6ED03149D7F810381A01D7F815
:101460000C3813441B01CA18D7F814381344053339
:101470001B7883F00103DBB2002B5BD02749D7F840
:1014800010381A01D7F80C3813441B010B441B68A1
:101490000133C7F800382149D7F808381A01D7F8BE
:1014A000043813441B010B441B68D7F800289A42E8
:1014B00040DA1A49D7F808381A01D7F80438134423
:1014C0001B010B44D7F800281A60D7F81C38FE2BF4
:1014D0001CDC07F50363A3F58663D7F81C28D7F84F
:1014E000081843F82210D7F81C385A1CC7F81C28D3
:1014F00007F50362A2F50362D7F8041842F8231037
:10150000D7F818380133C7F8183813E0084800F046
:10151000FFF919E0E0D40008E4D400080404002036
:10152000E8D40008ECD40008C0D40008D0D40008E7
:1015300064BA0008D7F814380133C7F81438D7F85C
:101540001438032B7FF753AFD7F82028D7F81C386F
:101550009A42FFF631AF094B1B68094A1360084BEA
:101560001B681946074800F0E9F9D7F8181806482B
:1015700000F0E4F907F50367BD4680BD04040020D0
:101580005414002078BA0008B8BA000880B586B0B4
:1015900000AF724800F0BCF900237B614FF4807308
:1015A000BB6000233B6119E00023FB6010E06C4945
:1015B0003B691A01FB6813441B010B4404331B787D
:1015C000002B02D07B6901337B61FB680133FB6038
:1015D000FB680F2BEBDD3B6901333B613B690F2B54
:1015E000E2DD7B6907EE903AF8EEE76ABB6807EE4A
:1015F000903AB8EEE77AC6EE877A9FED5A7A67EEB0
:10160000877AC7ED017A584800F082F97868FEF7CA
:10161000A3FF02460B46554800F090F9BA68796975
:10162000534800F08BF9534B1B681946524800F0A1
:1016300085F9524800F06CF9514B1B6842F20E726A
:1016400093420CDC4E4B1B6819464E4800F076F96D
:101650004D4800F05DF94D4800F05AF905E04C485E
:1016600000F056F94B4800F053F94B4800F050F9A0
:10167000D7ED017A9FED497AF4EEC77AF1EE10FAD0
:101680000CD83F4B1B6842F20E72934206DC444872
:1016900000F03EF9434800F03BF925E0D7ED017A30
:1016A0009FED417AF4EEC77AF1EE10FA06D83F4882
:1016B00000F02EF93E4800F02BF915E0D7ED017A45
:1016C0009FED3C7AF4EEC77AF1EE10FA06D83A486C
:1016D00000F01EF9394800F01BF905E0384800F029
:1016E00017F9384800F014F9374800F011F9D7ED30
:1016F000017A9FED2A7AF4EEC77AF1EE10FA0FD84C
:101700001F4B1B6842F20E72934209DC2F4800F017
:10171000FFF82F4800F0FCF82E4800F0F9F815E02B
:10172000D7ED017A9FED2C7AF4EEC77AF1EE10FA3C
:1017300006DD2A4800F0ECF8294800F0E9F805E059
:10174000284800F0E5F8284800F0E2F8274800F0C3
:10175000DFF800BF1837BD4680BD00BFE4BA0008FF
:10176000040400200000C84214BB000830BB00087D
:1017700054BB0008501400206CBB000894BB000848
:1017800054140020B4BB0008E4BB00081CBC0008D3
:101790004CBC00087CBC0008B4BC000800004842F7
:1017A000D4BC0008FCBC00080000824238BD000820
:1017B0005CBD00080000A042A0BD0008C0BD00083C
:1017C000F4BD000814BE000854BE00087CBE00082A
:1017D000BCBE0008E4BE00080000964214BF00082A
:1017E00040BF000880BF0008B4BF0008ECBF00087D
:1017F00080B584B000AF3A4800F08AF8394800F06C
:1018000087F80023FB6006E0F968374800F096F897
:10181000FB680133FB60FB680F2BF5DD334800F0FC
:1018200077F80F23BB6040E0B968314800F086F8D4
:1018300000237B6030E02F497B681A01BB681344AA
:101840001B010B4404331B7883F00103DBB2002B34
:1018500003D0294800F05CF81BE026497B681A0198
:10186000BB6813441B010B441B6842F20F72934286
:1018700003D1224800F04CF80BE01E497B681A01A6
:10188000BB6813441B010B441B681946164800F043
:1018900055F87B6801337B607B680F2BCBDD1348E9
:1018A00000F036F8BB68013BBB60BB68002BBBDABD
:1018B000134B1B6842F20E72934206DC104B1B68FE
:1018C0001946104800F03AF802E00F4800F020F8FE
:1018D0000E4800F01DF800BF1037BD4680BD00BFA8
:1018E00018C0000850C0000854C0000858C00008C4
:1018F0005CC000080404002064C0000868C0000840
:101900005414002070C00008A4C00008D4C000080F
:1019100080B582B000AF78607868FEF7B1FC03460E
:101920009AB24FF47A737968034806F019FA00BF47
:101930000837BD4680BD00BFBC0300200FB480B592
:10194000C2B000AF07F58A7207F58473A3F58273FE
:101950001A6007F58473A3F5827307F108001B680A
:10196000D7F810214FF4807107F04CFF07F10803FE
:101970001846FFF7CDFF00BF07F58477BD46BDE8E9
:10198000804004B07047000080B584B002AF164BB1
:101990001B8807EE903AF8EEE77A9FED147A27EE6F
:1019A000877ADFED136AC7EE267AC7ED017A786889
:1019B000FEF7D2FD02460B460B49098800910D48FF
:1019C000FFF7BCFF084B1B8840F6B732934203D8A1
:1019D0000948FFF79DFF02E00848FFF799FF00BFA5
:1019E0000837BD4680BD00BF181400203333534074
:1019F0000000804530C7000848C7000864C70008D9
:101A000080B500AF0B48FFF783FF0B48FFF796FF49
:101A10000A48FFF793FF0A48FFF790FF0948FFF7CE
:101A20008DFF0948FFF78AFF0848FFF771FF00BFE5
:101A300080BD00BF6CC7000894C70008C8C7000875
:101A4000E8C7000814C8000840C8000874C80008A7
:101A500080B584B000AF0346FB71FB7963F07F0370
:101A6000DBB27B7300233B7300224FF48051174895
:101A700003F06EFD07F10D0164230122144804F008
:101A800094FA0346FB7307F10C016423012210480A
:101A900004F0CFFB0346BB7301224FF480510B4887
:101AA00003F056FDFB7B002B02D1BB7B002B07D044
:101AB0000848FFF72DFF084B00221A70FF2300E0B3
:101AC0003B7B18461037BD4680BD00BF0004024076
:101AD000440200209CC80008F801002080B584B0B2
:101AE00000AF03460A46FB711346BB71FB793B739B
:101AF000BB797B7300224FF48051114803F028FD1D
:101B000007F10C01642302220E4804F04EFA03464A
:101B1000FB7301224FF48051094803F019FDFB7B50
:101B2000002B05D00848FFF7F3FE084B00221A707F
:101B3000012002F0CFFD00BF1037BD4680BD00BFC1
:101B40000004024044020020C0C80008F801002040
:101B500080B582B000AF5548FFF7DAFE5448FFF772
:101B6000D7FE642002F0B6FD7520FFF771FF034633
:101B7000FB71FB79712B25D14E48FFF7C9FE8021FF
:101B80006B20FFF7ABFF642002F0A4FD6A20FFF793
:101B90005FFF0346BB71BB7943F01003BB71BB7998
:101BA00019466A20FFF79AFF0A2002F093FD6A2087
:101BB000FFF74EFF03467B717B7903F01003002B88
:101BC0000FD00AE0FB79712219463B48FFF7B6FEB9
:101BD0003A4B00221A70002364E03948FFF798FE60
:101BE00002E03848FFF794FE01216B20FFF776FFF3
:101BF0000A2002F06FFD00216C20FFF76FFF0A2022
:101C000002F068FD07211920FFF768FF0A2002F0A3
:101C100061FD03211A20FFF761FF0A2002F05AFD3F
:101C200008211B20FFF75AFF0A2002F053FD08216C
:101C30001C20FFF753FF0A2002F04CFD03211D205A
:101C4000FFF74CFF0A2002F045FD6B20FFF700FF75
:101C500003463B711B20FFF7FBFE0346FB701C2075
:101C6000FFF7F6FE0346BB703979FA78BB78164861
:101C7000FFF764FE3B79012B0DD1FB78082B0AD1CD
:101C8000BB78082B07D11148FFF742FE0B4B01220E
:101C90001A70012306E00E48FFF73AFE074B0022B8
:101CA0001A70002318460837BD4680BDE8C80008F2
:101CB00004C9000830C9000850C90008F801002014
:101CC00088C90008BCC90008F0C9000830CA00086B
:101CD00058CA000880B400AF034B1B781846BD46B5
:101CE0005DF8047B704700BFF801002080B582B02A
:101CF00000AF02F07DFC00F025F900F055FC00F08B
:101D000089F900F011FA00F045FA00F0E3FA00F06A
:101D1000CDFB00F01FFC00F031FB0021764804F001
:101D200035FF0421744804F031FF0821724804F0A3
:101D30002DFF0C21704804F029FF01224FF40051BF
:101D40006E4803F005FC00F01BFDFFF7C3FF0346E0
:101D500083F00103DBB2002B02D06948FFF7D8FD06
:101D600001F08EFF674B1B88002B12D1654B1B893E
:101D7000002B0ED1634B5B88002B0AD1614BDB88B3
:101D8000002B06D15F4B9B88002B02D15E48FFF7EA
:101D9000BFFD01F03BFD0A2002F09CFC01F022FD9A
:101DA000786001F029FD38607B68002B05D13B6825
:101DB000002B02D15548FFF7ABFDFFF7E1F80122F8
:101DC0001021534803F0C4FB01222021504803F0A6
:101DD000BFFB4FF47A7002F07DFC002210214C48CA
:101DE00003F0B6FB00222021494803F0B1FB49482B
:101DF000FFF78EFDFFF704FE4748FFF789FD06E079
:101E00000A2002F067FC1021414803F0BAFB434B63
:101E10001B78DBB2002BF3D0002210213C4803F0EA
:101E200097FB002220213A4803F092FBFFF7C4F809
:101E30004FF4FA6002F04EFC3948FFF769FD01F0FB
:101E4000E5FC01F0E1FF01F013FA01F019FF354B59
:101E50001B78DBB2012B17D1324B00221A703248AB
:101E6000FFF756FD314B1B7B002B06D02F4B5B7BC6
:101E7000002B02D001F07AFB06E02D48FFF748FD69
:101E800001F048FB01F0F4F9264B1B78DBB2022B82
:101E90000AD1244B00221A702648FFF739FD01F0C1
:101EA00039FB2548FFF734FD02F008FC0246234BBE
:101EB0001B68D31A41F28832934206D9FFF764FDBA
:101EC00002F0FCFB03461D4A136002F0F7FB0246DA
:101ED0001B4B1B68D31AB3F5FA6F08D910210C48B5
:101EE00003F04FFB02F0EAFB0346154A136064203F
:101EF00002F0F0FBA9E700BF2C030020000802401D
:101F0000CCCC00081814002000CD000838CD000803
:101F10000004024068CD00088CCD00084D1400205C
:101F2000B4CD00084C140020D4CD000804140020C7
:101F3000ECCD000818CE000830CE00085814002060
:101F40005C14002080B594B000AF07F1200330226C
:101F50000021184607F064FC07F10C0300221A6008
:101F60005A609A60DA601A610023BB60274B1B6CD1
:101F7000264A43F080531364244B1B6C03F08053B8
:101F8000BB60BB6800237B60214B1B68204A43F485
:101F9000404313601E4B1B6803F440437B607B6827
:101FA00002233B620123FB6210233B630223BB63DA
:101FB0000023FB6310233B64A8237B640223BB64E0
:101FC0000423FB6407F12003184603F00DFB0346CE
:101FD000002B01D000F0C0FB0F23FB6002233B610C
:101FE00000237B614FF48053BB610023FB6107F149
:101FF0000C030221184603F06FFD0346002B01D0AD
:1020000000F0AAFB00BF5037BD4680BD003802403B
:102010000070004080B584B000AF3B4600221A60DB
:102020005A609A60DA603D4B3D4A1A603B4B4FF470
:1020300080325A60394B00229A60384B01221A6173
:10204000364B01221A76354B002283F82020334B81
:102050000022DA62314B334A9A62304B0022DA6056
:102060002E4B0522DA612D4B002283F830202B4BBA
:1020700001225A61294802F051FB0346002B01D08E
:1020800000F06AFB00233B6001237B600023BB6000
:102090003B461946214802F005FD0346002B01D0BE
:1020A00000F05AFB02233B6002237B603B4619464B
:1020B0001A4802F0F7FC0346002B01D000F04CFB5D
:1020C00003233B6003237B603B461946134802F021
:1020D000E9FC0346002B01D000F03EFB04233B60EB
:1020E00004237B603B4619460C4802F0DBFC0346A8
:1020F000002B01D000F030FB05233B6005237B6003
:102100003B461946054802F0CDFC0346002B01D0A2
:1021100000F022FB00BF1037BD4680BDFC0100204F
:10212000002001400100000F80B500AF174B184A96
:102130001A60164B4FF482725A60144B00229A6058
:10214000124B0022DA60114B00221A610F4B002261
:102150005A610E4B4FF400729A610C4B3022DA61D7
:102160000A4B00221A62094B00225A62074B0022D6
:102170009A62064B0A22DA62044803F08DFE034697
:10218000002B01D000F0E8FA00BF80BD440200201F
:102190000038004080B596B000AF07F14803002238
:1021A0001A605A609A60DA6007F1400300221A60F0
:1021B0005A6007F1240300221A605A609A60DA60BC
:1021C0001A615A619A613B1D20220021184607F0CE
:1021D00027FB3E4B3E4A1A603C4B14225A603B4B55
:1021E00000229A60394BC822DA60384B00221A610B
:1021F000364B00225A61354B80229A61334804F0F5
:102200001DFC0346002B01D000F0A6FA4FF48053CA
:10221000BB6407F1480319462C4805F0B1F80346A2
:10222000002B01D000F098FA284804F056FC034631
:10223000002B01D000F090FA00233B6400237B6464
:1022400007F140031946214805F066FC0346002BC0
:1022500001D000F081FA60237B626423BB6200231B
:10226000FB6200233B6300237B630023BB630023EB
:10227000FB6307F1240308221946144804F0BEFF4B
:102280000346002B01D000F067FA00237B60002397
:10229000BB600023FB6000233B6100237B614FF4A4
:1022A0000053BB6100233B623B1D1946074805F004
:1022B000A1FC0346002B01D000F04EFA034801F0C8
:1022C0004FFF00BF5837BD4680BD00BF9C020020B5
:1022D0000000014080B58CB000AF07F10C03242250
:1022E0000021184607F09CFA3B1D00221A605A6034
:1022F000214B4FF080421A601F4B00225A601E4B48
:1023000000229A601C4B4FF6FF72DA601A4B0022D3
:102310001A61194B80229A610323FB6000233B6101
:1023200001237B610023BB610023FB6100233B622F
:1023300001237B620023BB620023FB6207F10C03D5
:1023400019460D4804F036FD0346002B01D000F07D
:1023500003FA00237B600023BB603B1D194606483F
:1023600005F0DAFB0346002B01D000F0F5F900BFC1
:102370003037BD4680BD00BFE402002080B58EB07E
:1023800000AF07F1280300221A605A609A60DA60F1
:1023900007F1200300221A605A603B1D00221A60D8
:1023A0005A609A60DA601A615A619A613D4B3E4AFE
:1023B0001A603C4B04225A603A4B00229A60394B17
:1023C00040F24632DA60374B00221A61354B8022E8
:1023D0009A61344804F032FB0346002B01D000F030
:1023E000BBF94FF48053BB6207F1280319462D480F
:1023F00004F0C6FF0346002B01D000F0ADF92948D8
:1024000004F06BFB0346002B01D000F0A5F900237C
:102410003B6200237B6207F120031946214805F047
:102420007BFB0346002B01D000F096F960237B6014
:102430000023BB600023FB6000237B613B1D002267
:102440001946184804F0DAFE0346002B01D000F0CC
:1024500083F93B1D04221946124804F0CFFE0346BF
:10246000002B01D000F078F93B1D082219460D48D9
:1024700004F0C4FE0346002B01D000F06DF93B1DB3
:102480000C221946074804F0B9FE0346002B01D080
:1024900000F062F9034801F063FE00BF3837BD4623
:1024A00080BD00BF2C0300200004004080B58CB02C
:1024B00000AF07F10C0324220021184607F0B0F901
:1024C0003B1D00221A605A60204B214A1A601F4BA4
:1024D00000225A601D4B00229A601C4B4FF6FF727F
:1024E000DA601A4B00221A61184B80229A6103238A
:1024F000FB6000233B6101237B610023BB61002360
:10250000FB6100233B6201237B620023BB6200234B
:10251000FB6207F10C0319460C4804F04BFC034620
:10252000002B01D000F018F900237B600023BB6072
:102530003B1D1946054805F0EFFA0346002B01D074
:1025400000F00AF900BF3037BD4680BD740300209B
:102550000008004080B500AF114B124A1A60104BC2
:102560004FF416525A600E4B00229A600C4B002218
:10257000DA600B4B00221A61094B0C225A61084B9E
:1025800000229A61064B0022DA61054805F098FBAB
:102590000346002B01D000F0DFF800BF80BD00BF74
:1025A000BC0300200014014080B588B000AF07F1E3
:1025B0000C0300221A605A609A60DA601A610023E4
:1025C000BB604B4B1B6B4A4A43F004031363484BFD
:1025D0001B6B03F00403BB60BB6800237B60444BB0
:1025E0001B6B434A43F001031363414B1B6B03F026
:1025F00001037B607B6800233B603D4B1B6B3C4AC7
:1026000043F0020313633A4B1B6B03F002033B607E
:102610003B6800224FF40051364802F099FF002237
:1026200041F23031344802F093FF00224FF4407100
:10263000324802F08DFF4FF40053FB6001233B61F1
:1026400000237B610023BB6107F10C031946294875
:1026500002F0FAFD0223FB604FF488133B61002374
:102660007B6107F10C031946244802F0EDFD4FF49D
:102670008063FB604FF488133B6100237B6107F1AB
:102680000C0319461C4802F0DFFD41F23033FB60B9
:1026900001233B6100237B610023BB6107F10C0335
:1026A0001946154802F0D0FD4FF44073FB6001233A
:1026B0003B6100237B610023BB6107F10C031946DA
:1026C0000E4802F0C1FD00220521072002F0F3FCB4
:1026D000072002F00CFD00220521282002F0EBFC6F
:1026E000282002F004FD00BF2037BD4680BD00BF9A
:1026F000003802400008024000040240000002408E
:1027000080B584B000AF0346FB8001F0D7FFF860CE
:102710000E4B1B68FA68D31AC82B13D9FB88022BFF
:1027200006D10B4B01221A700A4B01221A7006E0E7
:10273000FB88B3F5806F02D1054B02221A70034A61
:10274000FB68136000BF1037BD4680BD60140020D9
:102750004C1400204D14002080B500AF72B600BFAD
:102760001021064802F00DFF2021044802F009FF65
:10277000642001F0AFFF00BFF2E700BF0004024099
:1027800080B500AF00F042F8184B00221A60174BDA
:1027900000225A60154B00229A60144B00221A73D3
:1027A000124B00225A73114B00221A610E22002193
:1027B0000F4807F035F8122200210E4807F030F8D4
:1027C000102200210C4807F02BF80C4B00221A6055
:1027D0000B4B00221A60FFF7BBF90A48FFF798F885
:1027E0000948FFF795F800BF80BD00BF0414002022
:1027F00018140020281400203C140020501400203D
:10280000541400204CCE00087CCE000880B584B063
:1028100000AF0023FB603EE00023BB6035E0394998
:10282000FB681A01BB6813441B010B4442F20F7290
:102830001A603449FB681A01BB6813441B010B443E
:10284000043300221A702F49FB681A01BB68134435
:102850001B010B440C3300221A6000237B600EE046
:102860002849FB681A01BB6813441B01CA187B681E
:102870001344053300221A707B6801337B607B6848
:10288000032BEDDDBB680133BB60BB680F2BC6DDDE
:10289000FB680133FB60FB680F2BBDDD00233B6051
:1028A0001FE0184A3B681B021344073301221A70C9
:1028B000144A3B681B021344F53301221A70114A73
:1028C0003B681B011344083301221A700D4A3B6810
:1028D0001B01134403F6067301221A703B6801338F
:1028E0003B603B680F2BDCDD064B01221A71054B68
:1028F0000122DA600448FFF70BF800BF1037BD462D
:1029000080BD00BF04040020A4CE000880B5ADF552
:10291000036D00AF0023C7F82C381DE00023C7F873
:10292000283810E0C849D7F82C381A01D7F82838C9
:1029300013441B010B4442F20F721A60D7F8283877
:102940000133C7F82838D7F828380F2BEADDD7F835
:102950002C380133C7F82C38D7F82C380F2BDDDD95
:10296000BA4B1B7B83F00103DBB2002B2CD0B84B9E
:102970001A68B84B1B68B449120113441B010B447D
:1029800000221A60B44B1A68B24B1B68AE491201A0
:1029900013441B010B4400221A60AD4B1A68AF4B65
:1029A0001B68A949120113441B010B4400221A6041
:1029B000A94B1A68A94B1B68A349120113441B01B8
:1029C0000B4400221A6002E09F4B00221A60002391
:1029D000C7F824380023C7F820389C4B1B7B83F0B2
:1029E0000103DBB2002B5CD0994B196807F5036338
:1029F000A3F22C43D7F8202843F82210D7F8203828
:102A00005A1CC7F82028934A116807F50362A2F6FA
:102A10002C0242F82310904B196807F50363A3F2C8
:102A20002C43D7F8202843F82210D7F820385A1C16
:102A3000C7F82028874A116807F50362A2F62C021E
:102A400042F82310824B196807F50363A3F22C4365
:102A5000D7F8202843F82210D7F820385A1CC7F896
:102A600020287E4A116807F50362A2F62C0242F87C
:102A70002310794B196807F50363A3F22C43D7F8A9
:102A8000202843F82210D7F820385A1CC7F82028ED
:102A9000724A116807F50362A2F62C0242F823106D
:102AA00014E007F50363A3F22C43D7F82028002194
:102AB00043F82210D7F820385A1CC7F8202807F509
:102AC0000362A2F62C02002142F823100023C7F86B
:102AD0001C38A7E007F50363A3F22C43D7F824289A
:102AE00053F82230C7F81438D7F824385A1CC7F8DE
:102AF000242807F50362A2F62C0252F82330C7F807
:102B000010380023C7F8183887E0554AD7F8183826
:102B100052F82330D7F814281344C7F80C38514A18
:102B2000D7F8183852F82330D7F810281344C7F8CC
:102B30000838D7F80C38002B6ADBD7F80C380F2B85
:102B400066DCD7F80838002B62DBD7F808380F2B83
:102B50005EDC3D49D7F814381A01D7F81038134411
:102B60001B01CA18D7F81838134405331B7883F0B3
:102B70000103DBB2002B4BD03349D7F814381A01CC
:102B8000D7F8103813441B010B441B680133C7F8F6
:102B900004382D49D7F80C381A01D7F808381344EF
:102BA0001B010B441B68D7F804289A4230DA2649E7
:102BB000D7F80C381A01D7F8083813441B010B4416
:102BC000D7F804281A60D7F82038FE2B1CDC07F54C
:102BD0000363A3F22C43D7F82028D7F80C1843F846
:102BE0002210D7F820385A1CC7F8202807F50362AE
:102BF000A2F62C02D7F8081842F82310D7F81C3890
:102C00000133C7F81C3803E01748FEF781FE09E0DE
:102C1000D7F818380133C7F81838D7F81838032B05
:102C20007FF773AFD7F82428D7F820389A42FFF6F9
:102C300051AFD7F81C180D48FEF780FE00BF07F50E
:102C40000367BD4680BD00BF0404002004140020BB
:102C5000E0D40008E4D40008E8D40008ECD400086C
:102C6000C0D40008D0D40008D8CE0008ECCE0008AC
:102C700080B493B000AF884B9B687B6442F20F73C3
:102C80003B6440F2E733FB63002387F83B30824B21
:102C90009B683B60804B9B6801335A4203F00303FF
:102CA00002F0030258BF53427B607B4B9B680333A7
:102CB0005A4203F0030302F0030258BF5342BB60C1
:102CC000754B9B6802335A4203F0030302F0030280
:102CD00058BF5342FB6000237B635BE07B6B9B0030
:102CE00048333B4453F8483CBB616B4B1A686B4913
:102CF000BB6951F8233013447B61674B5A686849BC
:102D0000BB6951F8233013443B617B69002B3EDBE8
:102D10007B690F2B3BDC3B69002B38DB3B690F2BBE
:102D200035DC5D4B1A685C4B5B685E4912011344ED
:102D30001B01CA18BB69134405331B7883F00103D8
:102D4000DBB2002B23D057497B691A013B6913443E
:102D50001B010B440C331B68002B18D1012387F88F
:102D60003B3050497B691A013B6913441B010B44FA
:102D70001B683A6C9A420ADD4A497B691A013B6931
:102D800013441B010B441B683B64BB697B647B6B76
:102D900001337B637B6B032BA0DD97F83B3083F023
:102DA0000103DBB2002B6FD000233B6369E03B6B78
:102DB0009B0048333B4453F8483CFB62364B1A684F
:102DC0003649FB6A51F823301344BB62324B5A68D0
:102DD0003349FB6A51F8233013447B62BB6A002BF2
:102DE0004CDBBB6A0F2B49DC7B6A002B46DB7B6A22
:102DF0000F2B43DC284B1A68274B5B6829491201CB
:102E000013441B01CA18FB6A134405331B7883F073
:102E10000103DBB2002B31D02249BB6A1A017B6A65
:102E200013441B010B441B683B621E49BB6A1A0119
:102E30007B6A13441B010B440C331B68FB613A6A29
:102E40003B6C9A4214DB3A6A3B6C9A4203D1FA69B2
:102E5000FB6B9A420CDB3A6A3B6C9A420ED1FA69E0
:102E6000FB6B9A420AD10C4B9B68FA6A9A4205D1D5
:102E70003B6A3B64FB69FB63FB6A7B643B6B01332E
:102E80003B633B6B032B92DD7B6C18464C37BD4696
:102E90005DF8047B704700BF04140020C0D4000814
:102EA000D0D400080404002090B58BB002AF00F02D
:102EB000E7FE8A4B9B7A002B41D0894B1968884BDF
:102EC0005A68874B9B68874809010A4412010244EB
:102ED0001344053301221A70814B1A68804B9B689A
:102EE000814951F823301344FB617D4B5A687C4B78
:102EF0009B687E4951F823301344BB61FB69002B6A
:102F00001DDBFB690F2B1ADCBB69002B17DBBB69D0
:102F10000F2B14DC724B9B6802335A4203F00303FD
:102F200002F0030258BF53426E48FA691101BA69B0
:102F30000A44120102441344053301221A70674BFC
:102F4000DB7A002B48D0664B9B6803335A4203F070
:102F5000030302F0030258BF53427B61604B1A68BF
:102F60005F4B5B685F49120113441B01CA187B6900
:102F70001344053301221A70594B1A685A497B6968
:102F800051F8233013443B61554B5A6857497B69CC
:102F900051F823301344FB603B69002B1CDB3B6979
:102FA0000F2B19DCFB68002B16DBFB680F2B13DCE7
:102FB0007B6902335A4203F0030302F0030258BF55
:102FC000534248483A691101FA680A44120102441E
:102FD0001344053301221A70404B1B7B002B48D051
:102FE0003F4B9B6801335A4203F0030302F0030294
:102FF00058BF5342BB603A4B1A68394B5B6839493A
:10300000120113441B01CA18BB6813440533012283
:103010001A70334B1A683449BB6851F82330134493
:103020007B602F4B5A683149BB6851F823301344F9
:103030003B607B68002B1CDB7B680F2B19DC3B683B
:10304000002B16DB3B680F2B13DCBB6802335A42A4
:1030500003F0030302F0030258BF534221487A6889
:1030600011013A680A441201024413440533012253
:103070001A701B4B1A681A4B5B681A4912011344E9
:103080001B010B44043301221A70154B1A68144BB0
:103090005B68144811011944090101440C310968A5
:1030A00001311048120113441B0103440C33196011
:1030B0000B4B19680A4B5A68084B9B7A1C46074B06
:1030C000DB7A1846054B1B7B01930090234608488A
:1030D000FEF734FC00BF2437BD4690BD1814002015
:1030E0000414002004040020C0D40008D0D4000838
:1030F00014CF000880B584B000AF786041E0264B63
:103100009B687A68D31A04335A4203F0030302F02F
:10311000030258BF5342FB60FB68012B0ED100F045
:1031200071FC1D4B9B6801335A4203F0030302F00C
:10313000030258BF5342184A936022E0FB68032BF6
:103140000ED100F013FC144B9B6803335A4203F07A
:10315000030302F0030258BF53420F4A936010E08A
:10316000FB68022B0DD100F099FC0B4B9B680233DE
:103170005A4203F0030302F0030258BF5342064AC7
:103180009360054B9B687A689A42B8D100BF00BF34
:103190001037BD4680BD00BF0414002080B500AFCD
:1031A00000F06EFD0B4B9B7A002B04D00A48FEF713
:1031B000AFFB00230CE000F061FB084B1B690133FF
:1031C000064A1361064B1B680133054A136001234D
:1031D000184680BD1814002040CF000804140020B9
:1031E0005014002080B400AF1C4B1B7B83F0010304
:1031F000DBB2002B1ED0194B1A68194B1B689A4280
:1032000005D0164B1A68174B1B689A420DD1134B09
:103210005A68154B1B689A4205D0104B5A68134BDD
:103220001B689A4201D1012300E0002303F001034F
:10323000DBB20DE0094B1B68002B05D1074B5B6827
:10324000002B01D1012300E0002303F00103DBB2D6
:103250001846BD465DF8047B704700BF041400208B
:10326000E0D40008E8D40008E4D40008ECD4000856
:1032700080B58AB000AF8148FEF74AFB00237B622D
:103280004FF47A733B61C0E07D4B1A687C4B5B68FE
:10329000796A7C48FEF752FBFFF706FEFFF736FB24
:1032A000FFF7A0FF0346002B32D0754B1B7B83F04A
:1032B0000103DBB2002B24D07348FEF729FB704BCF
:1032C00001221A73FDF778FE00233B6215E000230C
:1032D000FB610CE06D493B6A1A01FB6913441B0159
:1032E0000B440C3300221A60FB690133FB61FB695C
:1032F0000F2BEFDD3B6A01333B623B6A0F2BE6DDB0
:1033000006E06348FEF704FB5D4B01225A7390E030
:10331000FFF7AEFCF860F9685E48FEF70FFBF8684F
:10332000FFF7E8FEFFF73AFF0346002B0DD0544BA2
:103330001B7B002B04D00121002001F00BF95EE083
:103340000021012001F006F959E05348FEF7E0FAA8
:103350000023FB7600237B613EE07A69FB689A429A
:1033600037D0474B1A684D497B6951F823301344D5
:10337000BB60434B5A684A497B6951F82330134478
:103380007B60BB68002B24DBBB680F2B21DC7B68D8
:10339000002B1EDB7B680F2B1BDC394B1A68384B6C
:1033A0005B683A49120113441B01CA187B69134434
:1033B00005331B7883F00103DBB2002B09D0786959
:1033C000FFF798FEFFF7EAFE0346002B01D001232A
:1033D000FB767B6901337B617B69032B05DCFB7E1C
:1033E00083F00103DBB2002BB7D1FB7E83F0010336
:1033F000DBB2002B03D02B48FEF78AFA19E07B6A78
:1034000001337B620A2001F065F97A6A3B699A42CE
:103410000FDA1B4B1B7B83F00103DBB2002B7FF425
:1034200033AF174B5B7B83F00103DBB2002B7FF4E0
:103430002BAF0021002001F08DF8114B1B691946BC
:103440001948FEF77BFA0E4B1B7B002B0BD00C4B65
:103450005B7B002B07D01548FEF75AFA00F02AF8DC
:10346000FDF7BCFD05E01248FEF752FAFDF7E2FD5C
:1034700000BF00BF2837BD4680BD00BF64CF000835
:103480000414002088CF0008A4CF00080404002002
:10349000D0CF0008FCCF00081CD00008C0D4000822
:1034A000D0D4000848D0000864D0000888D00008B4
:1034B000C0D0000880B500AF1048FEF729FAFDF72C
:1034C000D3FDFEF763F8FEF793F90D48FEF720FAF7
:1034D0000C4B1B6842F20E72934209DC094B1B68CD
:1034E00019460948FEF72AFA0848FEF711FA02E0E1
:1034F0000748FEF70DFA00BF80BD00BFF8D00008F6
:1035000020D10008541400204CD1000880D10008BC
:10351000B0D1000880B500AF104B00221A600F4BED
:1035200000225A600D4B00229A600C4B00221A7345
:103530000A4B00225A73094B00221A61084B0022E1
:103540001A60084B00221A60FFF760F90648FEF780
:10355000DFF9FDF715FD00BF80BD00BF041400209A
:103560005014002054140020E4D1000880B500AFAE
:103570000448FEF7CDF90448FEF7CAF900F006F852
:1035800000BF80BD18D2000840D2000880B586B0C8
:1035900000AF6448FEF7BCF9634B1B7B83F001036B
:1035A000DBB2002B06D1604B5B7B83F00103DBB207
:1035B000002B03D05D48FEF7ABF9B0E05C48FEF7A6
:1035C000A7F9594B00221A60574B00225A60564BFC
:1035D00000229A600121012000F0BCFFFDF7ECFC05
:1035E0005448FEF795F901F069F8F8600023FB757F
:1035F0000DE0514B1B78DBB2022B05D14E4B002264
:103600001A700123FB750BE0642001F063F801F0F0
:1036100055F80246FB68D31A42F20F729342E8D97A
:10362000FB7D83F00103DBB2002B07D04348FEF79C
:103630006FF90021002000F08DFF70E04048FEF798
:1036400067F900233B613223BB6021E000F018FBE7
:10365000FFF75CF9FFF70CFB78607868FFF74AFD2D
:10366000FFF79CFD0346002B0BD03B6901333B6108
:103670002D4B1A682C4B5B6839693248FEF75EF9AE
:1036800003E03148FEF744F91EE0322001F022F851
:10369000254B1A682D4B1B689A4205D0224B1A689D
:1036A0002B4B1B689A420BD11F4B5A68294B1B6846
:1036B0009A4209D01C4B5A68274B1B689A4203D088
:1036C0003A69BB689A42C1DB0021002000F042FF4A
:1036D000154B1A681D4B1B689A4205D0124B1A688D
:1036E0001B4B1B689A4215D10F4B5A68194B1B682C
:1036F0009A4205D00C4B5A68174B1B689A4209D165
:103700001648FEF705F939691548FEF717F9FDF770
:1037100065FC04E01348FEF7FBF8FDF78BFC183757
:10372000BD4680BD64D200080414002088D2000881
:10373000C4D20008FCD200084C1400202CD300088E
:1037400050D300086CD300088CD30008E0D40008E4
:10375000E8D40008E4D40008ECD40008A8D300089A
:10376000C4D30008DCD3000880B483B000AF174B8B
:103770001B685B6AFB80164B1B685B6ABB80154B42
:103780001B88FA88D31A9BB27B80134B1B88BA889C
:10379000D31A9BB23B80B7F90220104B1B6813442D
:1037A0000E4A1360B7F900200D4B1B6813440C4AF6
:1037B0001360084AFB881380074ABB88138000BF48
:1037C0000C37BD465DF8047B704700BFE402002063
:1037D0007403002000000020020000206414002078
:1037E0006814002080B500AFFFF7BEFF014B1B68D7
:1037F000184680BD6414002080B500AFFFF7B4FF09
:10380000014B1B68184680BD6814002080B500AFCE
:103810003C21134803F074FB3C21124803F070FB79
:103820000F4B1B684FF400425A620E4B1B684FF45B
:1038300000425A620C4B4FF400421A800B4B4FF47B
:1038400000421A800A4B00221A600A4B00221A60BA
:10385000094B00229A60084B0022DA6000BF80BD4D
:1038600074030020E4020020000000200200002079
:1038700064140020681400203C14002080B58CB033
:1038800002AFFFF7AFFF7862FFF7B6FF3862314B48
:103890001A68304B9B68304951F823301344FB6160
:1038A0002C4B5A682B4B9B682C4951F823301344FE
:1038B000BB61FB69002B08DBFB690F2B05DCBB69D7
:1038C000002B02DBBB690F2B03DD2548FEF720F838
:1038D0003DE04FF4487300930123802221490020EA
:1038E00000F0FEF84FF448730093012302221E49B2
:1038F000082000F0F5F84FF47A737B61FFF772FF50
:103900003861FFF779FFF8603A697B6AD31ABB60C8
:10391000FA683B6AD31A7B60BA687B681344DA0F93
:1039200013445B103B603A687B699A4203DA0120DA
:1039300000F0D0FEE2E700BF00F0B8F8054AFB69EE
:103940001360044ABB695360642000F0C3FE28374B
:10395000BD4680BD04140020C0D40008D0D40008A7
:10396000FCD30008000002400004024080B588B08B
:1039700002AFFFF737FF7861FFF73EFF38614FF482
:1039800048730093002380221B49002000F0A8F810
:103990004FF448730093012302221849082000F0D5
:1039A0009FF84FF4FA73FB60FFF726FFB860BA6820
:1039B0003B69D31A002BB8BF5B427B607A68FB6817
:1039C0009A4203DA012000F085FEEDE700BF00F027
:1039D0006DF80B4B9B6803335A4203F0030302F06C
:1039E000030258BF5342064A9360C82000F072FE9B
:1039F00000BF1837BD4680BD0000024000040240F1
:103A00000414002080B588B002AFFFF7EBFE7861A8
:103A1000FFF7F2FE38614FF44873009301238022D0
:103A20001B49002000F05CF84FF44873009300231A
:103A300002221849082000F053F84FF4FA73FB6093
:103A4000FFF7D0FEB860BA687B69D31A002BB8BF05
:103A50005B427B607A68FB689A4203DA012000F0DF
:103A600039FEEDE700BF00F021F80B4B9B680133F6
:103A70005A4203F0030302F0030258BF5342064ABE
:103A80009360C82000F026FE00BF1837BD4680BDF9
:103A900000000240000402400414002080B500AF82
:103AA000FFF7B0FFFFF7AEFF00BF80BD80B582B06B
:103AB00002AF00230093012380220749002000F079
:103AC0000FF800230093012302220449082000F08C
:103AD00007F800BFBD4680BD000002400004024060
:103AE00080B584B000AFB96011461A460346FB8129
:103AF0000B46BB811346FB71FB89002B04D1124B93
:103B00001B683A8B5A6313E0FB89042B04D10E4BDC
:103B10001A683B8B93630BE0FB89082B04D10A4B9B
:103B20001A683B8BD36303E0074B1A683B8B136423
:103B3000FB791A46BB891946B86801F009FD00BF38
:103B40001037BD4680BD00BF2C03002080B500AFFC
:103B500001224FF480710D4801F0FAFC01224FF46C
:103B600000710A4801F0F4FC01224FF4807108480A
:103B700001F0EEFC01224FF40071054801F0E8FC71
:103B8000022000F0A7FD00BF80BD00BF0000024082
:103B90000004024080B500AF00224FF480710B4852
:103BA00001F0D6FC00224FF40071084801F0D0FC6F
:103BB00000224FF48071064801F0CAFC00224FF445
:103BC0000071034801F0C4FC00BF80BD000002404A
:103BD0000004024080B588B000AF7860274800F04C
:103BE000E1FD0346002B01D0002343E00023FB61ED
:103BF00018E03221214800F0BCFE0346002B04D01F
:103C00001E4800F083FE002334E01C4800F03CFF17
:103C10000246FB699B0020333B4443F8182CFB69A8
:103C20000133FB61FB69042BE3DD144800F06EFEF9
:103C30007B68052B1DD801A252F823F0553C0008E3
:103C4000733C00085B3C0008613C0008673C0008CE
:103C50006D3C0008BB689BB20CE0FB689BB209E0BE
:103C60003B699BB206E07B699BB203E0BB699BB2F8
:103C700000E0002318462037BD4680BDFC0100202F
:103C800080B584B000AFFFF785FF012000F022FD72
:103C90000220FFF79FFF0346FB810320FFF79AFFF7
:103CA0000346BB810420FFF795FF03467B81052077
:103CB000FFF790FF03463B81FFF748FF0020FFF727
:103CC00089FF03461A464C4B1A800220FFF782FFF9
:103CD00003461A46FB89D31A9AB2474B5A800320EF
:103CE000FFF778FF03461A46BB89D31A9AB2424BB4
:103CF0009A800420FFF76EFF03461A467B89D31A89
:103D00009AB23D4BDA800520FFF764FF03461A465E
:103D10003B89D31A9AB2384B1A81FFF73BFF364BD7
:103D20001B89B3F5FA6F04D8334B5B88B3F5FA6F90
:103D300001D9012300E0002303F00103DAB22E4B86
:103D40009A722D4BDB8840F2DC5293428CBF0123E8
:103D50000023DAB2284BDA72274B9B8840F2DC5200
:103D600093428CBF01230023DAB2234B1A73224BF8
:103D70001B88642B15D9204B1B89B3F57A6F10D2A1
:103D80001D4B5B88B3F57A6F0BD21B4BDB88B3F509
:103D90007A6F06D2184B9B88B3F57A6F01D2012354
:103DA00000E00023FB71FB7903F00103FB71FB7959
:103DB00083F00103DBB2002B10D0104B1B780133D2
:103DC000DAB20E4B1A700D4B1B78052B10D90C4B29
:103DD00000221A700B48FDF79BFD09E0074B1B788A
:103DE000002B05D0054B1B78013BDAB2034B1A7050
:103DF00000BF1037BD4680BD181400206C14002091
:103E00000400002058D4000880B582B000AF0C48F0
:103E1000FDF77EFD00237B6007E0FFF731FF3220D6
:103E200000F058FC7B6801337B607B68092BF4DD74
:103E30000448FDF76DFD00BF0837BD4680BD00BFDB
:103E400084D40008A0D4000880B483B000AF00235D
:103E50007B60104B5B6C0F4A43F4804353640D4B03
:103E60005B6C03F480437B607B6800233B60094B01
:103E70001B6C084A43F080531364064B1B6C03F021
:103E800080533B603B6800BF0C37BD465DF8047B48
:103E9000704700BF0038024080B58AB000AF78603C
:103EA00007F1140300221A605A609A60DA601A61FE
:103EB0007B681B68174A934227D100233B61164B4E
:103EC0005B6C154A43F480735364134B5B6C03F4CF
:103ED00080733B613B690023FB600F4B1B6B0E4AF9
:103EE00043F0010313630C4B1B6B03F00103FB60F6
:103EF000FB683D237B610323BB610023FB6107F16A
:103F000014031946054801F09FF900BF2837BD4644
:103F100080BD00BF00200140003802400000024088
:103F200080B58AB000AF786007F1140300221A60F0
:103F30005A609A60DA601A617B681B68194A93427A
:103F40002CD100233B61184B1B6C174A43F4804370
:103F50001364154B1B6C03F480433B613B690023E6
:103F6000FB60114B1B6B104A43F0020313630E4BB3
:103F70001B6B03F00203FB60FB684FF460437B6143
:103F80000223BB610023FB6103233B6205237B62A9
:103F900007F114031946054801F056F900BF283708
:103FA000BD4680BD00380040003802400004024099
:103FB00080B584B000AF78607B681B68184A934274
:103FC00016D10023FB60174B5B6C164A43F00103CC
:103FD0005364144B5B6C03F00103FB60FB6800222D
:103FE0000721192001F067F8192001F080F812E08C
:103FF0007B681B680C4A93420DD10023BB60094BC0
:104000001B6C084A43F002031364064B1B6C03F05D
:104010000203BB60BB6800BF1037BD4680BD00BF58
:1040200000000140003802400004004080B58CB020
:1040300000AF786007F11C0300221A605A609A6092
:10404000DA601A617B681B68B3F1804F4BD10023A3
:10405000BB613F4B1B6C3E4A43F0010313643C4B76
:104060001B6C03F00103BB61BB6900237B61384B10
:104070001B6B374A43F001031363354B1B6B03F093
:1040800001037B617B6900233B61314B1B6B304A31
:1040900043F0020313632E4B1B6B03F002033B61DF
:1040A0003B694FF40043FB6102233B6200237B62C8
:1040B0000023BB620123FB6207F11C03194625485C
:1040C00001F0C2F80823FB6102233B6200237B62FC
:1040D0000023BB620123FB6207F11C0319461E4843
:1040E00001F0B2F830E07B681B681C4A93422BD188
:1040F0000023FB60164B1B6C154A43F0040313644A
:10410000134B1B6C03F00403FB60FB680023BB60D4
:104110000F4B1B6B0E4A43F0020313630C4B1B6BDC
:1041200003F00203BB60BB68C023FB6102233B6258
:1041300000237B620023BB620223FB6207F11C03A6
:104140001946054801F080F800BF3037BD4680BDF4
:104150000038024000000240000402400008004015
:1041600080B58AB000AF786007F1140300221A60AE
:104170005A609A60DA601A617B681B68334A93421E
:104180001FD100233B61324B1B6B314A43F00103CB
:1041900013632F4B1B6B03F001033B613B694FF42F
:1041A00080637B610223BB610023FB6100233B62D0
:1041B00001237B6207F114031946264801F044F8F5
:1041C00040E07B681B68244A93423BD10023FB609C
:1041D0001F4B1B6B1E4A43F0010313631C4B1B6BED
:1041E00003F00103FB60FB680023BB60184B1B6BF3
:1041F000174A43F002031363154B1B6B03F00203D2
:10420000BB60BB68C0237B610223BB610023FB61F1
:1042100000233B6202237B6207F1140319460D4819
:1042200001F012F803237B610223BB610023FB61D1
:1042300000233B6202237B6207F1140319460748FF
:1042400001F002F800BF2837BD4680BD00000140E4
:104250000038024000000240000400400004024018
:1042600080B58AB000AF786007F1140300221A60AD
:104270005A609A60DA601A617B681B681D4A934233
:1042800034D100233B611C4B5B6C1B4A43F0200381
:104290005364194B5B6C03F020033B613B690023C3
:1042A000FB60154B1B6B144A43F001031363124B65
:1042B0001B6B03F00103FB60FB684FF4C0537B6191
:1042C0000223BB610023FB6103233B6208237B6263
:1042D00007F114031946094800F0B6FF0022062131
:1042E000472000F0E8FE472000F001FF00BF28371C
:1042F000BD4680BD0014014000380240000002406D
:1043000080B400AF00BFFDE780B400AF00BFFDE7A1
:1043100080B400AF00BFFDE780B400AF00BFFDE791
:1043200080B400AF00BFFDE780B400AF00BFBD4662
:104330005DF8047B704780B400AF00BFBD465DF8F8
:10434000047B704780B400AF00BFBD465DF8047BBE
:10435000704780B500AF00F09DF900BF80BD80B50B
:1043600000AF022001F028F900BF80BD80B500AF8A
:10437000024802F053FE00BF80BD00BF9C02002037
:1043800080B500AF4FF4806001F016F900BF80BD2A
:1043900080B500AF024803F06FFD00BF80BD00BFD5
:1043A000BC03002080B400AF01231846BD465DF871
:1043B000047B704780B582B000AF7860396005F04B
:1043C00081FA034616221A604FF0FF331846083769
:1043D000BD4680BD80B582B000AF78604FF0FF3140
:1043E0007868FFF7E7FF00BFFDE780B586B000AF54
:1043F000F860B9607A6000237B610AE0AFF3008067
:104400000146BB685A1CBA60CAB21A707B69013394
:104410007B617A697B689A42F0DB7B6818461837C3
:10442000BD4680BD80B586B000AFF860B9607A60E7
:1044300000237B6109E0BB685A1CBA601B781846F0
:10444000AFF300807B6901337B617A697B689A42B4
:10445000F1DB7B6818461837BD4680BD80B483B059
:1044600000AF78604FF0FF3318460C37BD465DF85B
:10447000047B704780B483B000AF786039603B68DC
:104480004FF400525A60002318460C37BD465DF8C1
:10449000047B704780B483B000AF78600123184676
:1044A0000C37BD465DF8047B704780B485B000AF23
:1044B000F860B9607A60002318461437BD465DF88D
:1044C000047B704780B586B000AF7860144A154B06
:1044D000D31A7B617B693B61134B1B68002B02D1B4
:1044E000114B124A1A60104B1A687B6813443A69E0
:1044F0009A4207D205F0E6F903460C221A604FF003
:10450000FF3309E0084B1B68FB60074B1A687B68A8
:104510001344054A1360FB6818461837BD4680BD32
:10452000000002200004000070140020C8150020C4
:1045300080B400AF064BD3F88830054A43F47003CB
:10454000C2F8883000BFBD465DF8047B704700BFED
:1045500000ED00E080B582B000AF03460A46FB7173
:104560001346BB71FB79002B14BF01230023DBB280
:104570001A461021084800F0EBFFBB79002B14BF4E
:1045800001230023DBB21A462021034800F0E0FF9C
:1045900000BF0837BD4680BD00040240DFF834D0BC
:1045A000FFF7C6FF0C480D490D4A002302E0D4581E
:1045B000C4500433C4188C42F9D30A4A0A4C00236D
:1045C00001E013600432A242FBD305F081F9FDF74C
:1045D0008DFB70470000022000000020DC0100205D
:1045E0008CD80008DC010020C4150020FEE7000084
:1045F00080B500AF0E4B1B680D4A43F40073136087
:104600000B4B1B680A4A43F480631360084B1B681A
:10461000074A43F480731360032000F041FD0F202C
:1046200000F008F8FFF710FC0023184680BD00BF1B
:10463000003C024080B582B000AF7860124B1A682F
:10464000124B1B7819464FF47A73B3FBF1F3B2FBAC
:10465000F3F3184600F059FD0346002B01D0012367
:104660000EE07B680F2B0AD8002279684FF0FF30EC
:1046700000F021FD064A7B681360002300E001235F
:1046800018460837BD4680BD0800002010000020F5
:104690000C00002080B400AF064B1B781A46064B76
:1046A0001B681344044A136000BFBD465DF8047BD9
:1046B000704700BF100000207414002080B400AFC9
:1046C000034B1B681846BD465DF8047B704700BF6E
:1046D0007414002080B584B000AF7860FFF7EEFF5F
:1046E000B8607B68FB60FB68B3F1FF3F05D00A4B05
:1046F0001B781A46FB681344FB6000BFFFF7DEFF20
:104700000246BB68D31AFA689A42F7D800BF00BFC6
:104710001037BD4680BD00BF1000002080B584B0BA
:1047200000AF78600023FB737B68002B01D101236D
:1047300033E07B681B6C002B09D17868FFF7ACFB7A
:104740007B6800225A647B68002283F83C207B68E7
:104750001B6C03F01003002B18D17B681B6C23F437
:10476000885323F0020343F002027B681A647868DE
:1047700000F0CAFA7B6800225A647B681B6C23F045
:10478000030343F001027B681A6401E00123FB7319
:104790007B68002283F83C20FB7B18461037BD461F
:1047A00080BD000080B485B000AF78600023BB609E
:1047B0007B6893F83C30012B01D1022397E07B68A2
:1047C000012283F83C207B681B689B6803F001038F
:1047D000012B18D07B681B689A687B681B6842F0C5
:1047E00001029A60454B1B68454AA2FB03239A0CC1
:1047F00013465B001344BB6002E0BB68013BBB6037
:10480000BB68002BF9D17B681B689B6803F0010330
:10481000012B5FD17B681B6C23F4E06323F0010361
:1048200043F480727B681A647B681B685B6803F4DE
:104830008063002B07D07B681B6C23F4405343F448
:1048400080527B681A647B681B6C03F48053B3F559
:10485000805F06D17B685B6C23F006027B685A643C
:1048600002E07B6800225A647B68002283F83C20C7
:10487000244BFB607B681B686FF022021A60FB68A8
:104880005B6803F01F03002B0FD17B681B689B68DC
:1048900003F04053002B29D17B681B689A687B6822
:1048A0001B6842F080429A6020E07B681B68164AD1
:1048B00093421BD17B681B689B6803F04053002B1D
:1048C00014D17B681B689A687B681B6842F0804241
:1048D0009A600BE07B681B6C43F010027B681A64E3
:1048E0007B685B6C43F001027B685A6400231846C6
:1048F0001437BD465DF8047B704700BF08000020F8
:1049000083DE1B43002301400020014080B483B0BC
:1049100000AF78607B6893F83C30012B01D1022313
:1049200021E07B68012283F83C207B681B689A6841
:104930007B681B6822F001029A607B681B689B6899
:1049400003F00103002B09D17B681B6C23F488530F
:1049500023F0010343F001027B681A647B680022A4
:1049600083F83C20002318460C37BD465DF8047BD5
:10497000704780B584B000AF786039600023FB6079
:104980007B681B689B6803F48063B3F5806F13D169
:104990007B681B689B6803F48073B3F5807F0BD141
:1049A0007B681B6C43F020027B681A647B680022E2
:1049B00083F83C20012363E0FFF780FEF86021E0EC
:1049C0003B68B3F1FF3F1DD03B68002B07D0FFF7DA
:1049D00075FE0246FB68D31A3A689A4212D27B6887
:1049E0001B681B6803F00203022B0BD07B681B6C57
:1049F00043F004027B681A647B68002283F83C2041
:104A000003233DE07B681B681B6803F00203022B55
:104A1000D6D17B681B686FF012021A607B681B6C32
:104A200043F400727B681A647B681B689B6803F020
:104A30004053002B23D17B681B7E002B1FD17B684A
:104A40001B68DB6A03F47003002B06D07B681B68CD
:104A50009B6803F48063002B11D17B681B6C23F4EB
:104A600080727B681A647B681B6C03F48053002B94
:104A700005D17B681B6C43F001027B681A6400233C
:104A800018461037BD4680BD80B483B000AF786053
:104A90007B681B68DB6C18460C37BD465DF8047BF1
:104AA0007047000080B485B000AF786039600023A3
:104AB000BB607B6893F83C30012B01D1022313E1EA
:104AC0007B68012283F83C203B681B68092B25D9B1
:104AD0007B681B68D9683B681B689BB21A46134603
:104AE0005B0013441E3B072202FA03F3DA437B68A0
:104AF0001B680A40DA607B681B68D9683B689A6863
:104B00003B681B689BB2184603465B0003441E3B90
:104B10009A407B681B680A43DA6022E07B681B6866
:104B200019693B681B689BB21A4613465B00134425
:104B3000072202FA03F3DA437B681B680A401A6112
:104B40007B681B6819693B689A683B681B689BB265
:104B5000184603465B0003449A407B681B680A437F
:104B60001A613B685B68062B24D87B681B68596B0D
:104B70003B685A6813469B001344053B1F2202FA08
:104B800003F3DA437B681B680A405A637B681B683F
:104B9000596B3B681B689BB218463B685A681346C2
:104BA0009B001344053B00FA03F27B681B680A4331
:104BB0005A634CE03B685B680C2B24D87B681B680D
:104BC000196B3B685A6813469B001344233B1F2212
:104BD00002FA03F3DA437B681B680A401A637B68B6
:104BE0001B68196B3B681B689BB218463B685A6888
:104BF00013469B001344233B00FA03F27B681B68B7
:104C00000A431A6323E07B681B68D96A3B685A68C9
:104C100013469B001344413B1F2202FA03F3DA437D
:104C20007B681B680A40DA627B681B68D96A3B684C
:104C30001B689BB218463B685A6813469B00134496
:104C4000413B00FA03F27B681B680A43DA62294B96
:104C5000FB607B681B68284A93420FD13B681B6846
:104C6000122B0BD1FB685B6823F40002FB685A60CF
:104C7000FB685B6843F48002FB685A607B681B68D2
:104C80001D4A93422BD13B681B681C4A934203D0B8
:104C90003B681B68112B22D1FB685B6823F4800200
:104CA000FB685A60FB685B6843F40002FB685A606B
:104CB0003B681B68114A934211D1114B1B68114A82
:104CC000A2FB03239A0C13469B0013445B00BB60BA
:104CD00002E0BB68013BBB60BB68002BF9D17B687D
:104CE000002283F83C20002318461437BD465DF8A7
:104CF000047B704700230140002001401200001097
:104D00000800002083DE1B4380B485B000AF7860CC
:104D1000794BFB60FB685B6823F44032FB685A60A8
:104D2000FB685A687B685B681A43FB685A607B685B
:104D30001B685A687B681B6822F480725A607B6823
:104D40001B6859687B681B691A027B681B680A43E9
:104D50005A607B681B685A687B681B6822F0407247
:104D60005A607B681B6859687B689A687B681B6817
:104D70000A435A607B681B689A687B681B6822F448
:104D800000629A607B681B6899687B68DA687B6858
:104D90001B680A439A607B689B6A584A934222D0F8
:104DA0007B681B689A687B681B6822F070629A6057
:104DB0007B681B6899687B689A6A7B681B680A43F2
:104DC0009A607B681B689A687B681B6822F0405277
:104DD0009A607B681B6899687B68DA6A7B681B68E5
:104DE0000A439A600FE07B681B689A687B681B68BF
:104DF00022F070629A607B681B689A687B681B6807
:104E000022F040529A607B681B689A687B681B6836
:104E100022F002029A607B681B6899687B681B7E9F
:104E20005A007B681B680A439A607B6893F82030BD
:104E3000002B1BD07B681B685A687B681B6842F498
:104E400000625A607B681B685A687B681B6822F4A2
:104E500060425A607B681B6859687B685B6A013BEB
:104E60005A037B681B680A435A6007E07B681B682B
:104E70005A687B681B6822F400625A607B681B6872
:104E8000DA6A7B681B6822F47002DA627B681B684E
:104E9000D96A7B68DB69013B1A057B681B680A439A
:104EA000DA627B681B689A687B681B6822F4007270
:104EB0009A607B681B6899687B6893F830305A0267
:104EC0007B681B680A439A607B681B689A687B68EA
:104ED0001B6822F480629A607B681B6899687B6813
:104EE0005B699A027B681B680A439A6000BF1437AB
:104EF000BD465DF8047B7047002301400100000FB0
:104F000080B485B000AF78607B6803F00703FB6076
:104F10000C4BDB68BB60BA684FF6FF031340BB6005
:104F2000FB681A02BB68134343F0BF6343F40033CA
:104F3000BB60044ABB68D36000BF1437BD465DF850
:104F4000047B704700ED00E080B400AF044BDB68E9
:104F50001B0A03F007031846BD465DF8047B704743
:104F600000ED00E080B483B000AF0346FB7197F919
:104F70000730002B0BDBFB7903F01F02074997F981
:104F800007305B09012000FA02F241F8232000BF3C
:104F90000C37BD465DF8047B704700BF00E100E0C0
:104FA00080B483B000AF03463960FB7197F90730D6
:104FB000002B0ADB3B68DAB20C4997F90730120183
:104FC000D2B20B4483F800230AE03B68DAB2084906
:104FD000FB7903F00F03043B1201D2B20B441A76A3
:104FE00000BF0C37BD465DF8047B704700E100E070
:104FF00000ED00E080B489B000AFF860B9607A607D
:10500000FB6803F00703FB61FB69C3F10703042B93
:1050100028BF0423BB61FB690433062B02D9FB695B
:10502000033B00E000237B614FF0FF32BB6902FAD3
:1050300003F3DA43BB681A407B699A404FF0FF31B3
:105040007B6901FA03F3D9437B680B40134318468D
:105050002437BD465DF8047B7047000080B582B000
:1050600000AF78607B68013BB3F1807F01D30123FF
:105070000FE00A4A7B68013B53600F214FF0FF307D
:10508000FFF78EFF054B00229A60044B07221A603F
:10509000002318460837BD4680BD00BF10E000E081
:1050A00080B582B000AF78607868FFF729FF00BF55
:1050B0000837BD4680BD80B586B000AF0346B960F5
:1050C0007A60FB7300237B61FFF73EFF78617A68AB
:1050D000B9687869FFF78EFF024697F90F301146DD
:1050E0001846FFF75DFF00BF1837BD4680BD80B58D
:1050F00082B000AF0346FB7197F907301846FFF7FF
:1051000031FF00BF0837BD4680BD80B582B000AF1B
:1051100078607868FFF7A2FF034618460837BD4657
:1051200080BD80B584B000AF78607B689B6DFB600C
:10513000FFF7C4FAB8607B6893F83530DBB2022B16
:1051400008D07B6880225A657B68002283F834206F
:10515000012352E07B681B681A687B681B6822F099
:1051600016021A607B681B685A697B681B6822F00C
:1051700080025A617B681B6C002B03D17B689B6C9F
:10518000002B07D07B681B681A687B681B6822F0BD
:1051900008021A607B681B681A687B681B6822F02B
:1051A00001021A6013E0FFF789FA0246BB68D31ABE
:1051B000052B0CD97B6820225A657B68032283F873
:1051C00035207B68002283F83420032315E07B68B8
:1051D0001B681B6803F00103002BE4D17B68DB6DC7
:1051E0003F229A40FB689A607B68012283F8352051
:1051F0007B68002283F83420002318461037BD4610
:1052000080BD80B483B000AF78607B6893F83530A0
:10521000DBB2022B04D07B6880225A6501230CE0AC
:105220007B68052283F835207B681B681A687B68D9
:105230001B6822F001021A60002318460C37BD4695
:105240005DF8047B7047000080B489B000AF7860DF
:10525000396000237B6100233B610023BB61002395
:10526000FB6159E10122FB6902FA03F37B613B68B0
:105270001B687A6913403B613A697B699A4240F046
:1052800048813B685B6803F00303012B05D03B6852
:105290005B6803F00303022B30D17B689B68BB6122
:1052A000FB695B00032202FA03F3DB43BA69134094
:1052B000BB613B68DA68FB695B0002FA03F3BA6919
:1052C0001343BB617B68BA699A607B685B68BB61AA
:1052D0000122FB6902FA03F3DB43BA691340BB61A5
:1052E0003B685B681B0903F00102FB6902FA03F3E8
:1052F000BA691343BB617B68BA695A603B685B68F3
:1053000003F00303032B17D07B68DB68BB61FB69E9
:105310005B00032202FA03F3DB43BA691340BB616B
:105320003B689A68FB695B0002FA03F3BA691343AE
:10533000BB617B68BA69DA603B685B6803F00303B2
:10534000022B23D1FB69DA087B68083253F822303C
:10535000BB61FB6903F007039B000F2202FA03F312
:10536000DB43BA691340BB613B681A69FB6903F010
:1053700007039B0002FA03F3BA691343BB61FB699D
:10538000DA087B680832B96943F822107B681B6829
:10539000BB61FB695B00032202FA03F3DB43BA69DA
:1053A0001340BB613B685B6803F00302FB695B0071
:1053B00002FA03F3BA691343BB617B68BA691A60E6
:1053C0003B685B6803F44033002B00F0A2800023AD
:1053D000FB60574B5B6C564A43F480435364544B19
:1053E0005B6C03F48043FB60FB68524AFB699B08DB
:1053F000023352F82330BB61FB6903F003039B00C7
:105400000F2202FA03F3DB43BA691340BB617B68E6
:10541000494A934219D07B68484A934213D07B682B
:10542000474A93420DD07B68464A934207D07B6837
:10543000454A934201D1042308E0072306E00323F1
:1054400004E0022302E0012300E00023FA6902F0F5
:10545000030292009340BA691343BB613549FB696B
:105460009B080233BA6941F82320384B9B68BB6123
:105470003B69DB43BA691340BB613B685B6803F47B
:105480008013002B03D0BA693B691343BB612F4AD9
:10549000BB6993602D4BDB68BB613B69DB43BA6939
:1054A0001340BB613B685B6803F40013002B03D01F
:1054B000BA693B691343BB61244ABB69D360234B80
:1054C0005B68BB613B69DB43BA691340BB613B6806
:1054D0005B6803F40033002B03D0BA693B691343C4
:1054E000BB611A4ABB695360184B1B68BB613B69BF
:1054F000DB43BA691340BB613B685B6803F48033EC
:10550000002B03D0BA693B691343BB610F4ABB69E7
:105510001360FB690133FB61FB690F2B7FF6A2AEC1
:1055200000BF00BF2437BD465DF8047B704700BF55
:1055300000380240003801400000024000040240F0
:1055400000080240000C024000100240003C0140F4
:1055500080B483B000AF78600B467B8013467B70CD
:105560007B78002B03D07A887B689A6103E07B8884
:105570001A047B689A6100BF0C37BD465DF8047B56
:10558000704780B485B000AF78600B467B807B6845
:105590005B69FB607A88FB6813401A04FB68D94397
:1055A0007B880B401A437B689A6100BF1437BD4665
:1055B0005DF8047B7047000080B582B000AF034601
:1055C000FB80084B5A69FB881340002B06D0054A24
:1055D000FB885361FB881846FDF792F800BF083737
:1055E000BD4680BD003C014080B586B000AF78600C
:1055F0007B68002B01D1012367E27B681B6803F005
:105600000103002B75D0884B9B6803F00C03042B1F
:105610000CD0854B9B6803F00C03082B12D1824BF6
:105620005B6803F48003B3F5800F0BD17E4B1B68DE
:1056300003F40033002B5BD07B685B68002B57D1F1
:10564000012342E27B685B68B3F5803F06D1764B6D
:105650001B68754A43F4803313601DE07B685B6808
:10566000B3F5A02F0CD1704B1B686F4A43F4802315
:1056700013606D4B1B686C4A43F4803313600BE07E
:10568000694B1B68684A23F480331360664B1B68C0
:10569000654A23F4802313607B685B68002B13D07A
:1056A000FFF70CF8386108E0FFF708F802463B699D
:1056B000D31A642B01D9032307E25B4B1B6803F465
:1056C0000033002BF0D014E0FEF7F8FF386108E05B
:1056D000FEF7F4FF02463B69D31A642B01D903237A
:1056E000F3E1514B1B6803F40033002BF0D100E0D1
:1056F00000BF7B681B6803F00203002B63D04A4B9A
:105700009B6803F00C03002B0BD0474B9B6803F006
:105710000C03082B1CD1444B5B6803F48003002B63
:1057200016D1414B1B6803F00203002B05D07B68A8
:10573000DB68012B01D00123C7E13B4B1B6823F041
:10574000F8027B681B69DB00374913430B603AE0C2
:105750007B68DB68002B20D0344B01221A60FEF7F7
:10576000ADFF386108E0FEF7A9FF02463B69D31A96
:10577000022B01D90323A8E12B4B1B6803F0020382
:10578000002BF0D0284B1B6823F0F8027B681B69C4
:10579000DB00254913430B6015E0244B00221A60FF
:1057A000FEF78CFF386108E0FEF788FF02463B6990
:1057B000D31A022B01D9032387E11B4B1B6803F08B
:1057C0000203002BF0D17B681B6803F00803002B59
:1057D00036D07B685B69002B16D0154B01221A600E
:1057E000FEF76CFF386108E0FEF768FF02463B6990
:1057F000D31A022B01D9032367E10B4B5B6F03F034
:105800000203002BF0D01BE0094B00221A60FEF7C8
:1058100055FF38610EE0FEF751FF02463B69D31A8F
:10582000022B07D9032350E1003802400000474211
:10583000800E4742884B5B6F03F00203002BEAD1D6
:105840007B681B6803F00403002B00F097800023A3
:10585000FB75814B1B6C03F08053002B0FD1002391
:10586000BB607D4B1B6C7C4A43F0805313647A4BC6
:105870001B6C03F08053BB60BB680123FB75774B47
:105880001B6803F48073002B18D1744B1B68734A98
:1058900043F480731360FEF711FF386108E0FEF7F0
:1058A0000DFF02463B69D31A022B01D903230CE1F9
:1058B0006A4B1B6803F48073002BF0D07B689B68F5
:1058C000012B06D1644B1B6F634A43F0010313673E
:1058D0001CE07B689B68052B0CD15F4B1B6F5E4AFD
:1058E00043F0040313675C4B1B6F5B4A43F00103F7
:1058F00013670BE0584B1B6F574A23F001031367E4
:10590000554B1B6F544A23F0040313677B689B6855
:10591000002B15D0FEF7D2FE38610AE0FEF7CEFE6E
:1059200002463B69D31A41F28832934201D90323DC
:10593000CBE0494B1B6F03F00203002BEED014E0C9
:10594000FEF7BCFE38610AE0FEF7B8FE02463B698E
:10595000D31A41F28832934201D90323B5E03E4B7A
:105960001B6F03F00203002BEED1FB7D012B05D151
:10597000394B1B6C384A23F0805313647B689B6956
:10598000002B00F0A180344B9B6803F00C03082B24
:105990005CD07B689B69022B41D1314B00221A609D
:1059A000FEF78CFE386108E0FEF788FE02463B6990
:1059B000D31A022B01D9032387E0274B1B6803F07E
:1059C0000073002BF0D17B68DA697B681B6A1A438D
:1059D0007B685B6A9B011A437B689B6A5B08013B9F
:1059E0001B041A437B68DB6A1B061B4913434B608D
:1059F0001B4B01221A60FEF761FE386108E0FEF7DA
:105A00005DFE02463B69D31A022B01D903235CE0F9
:105A1000114B1B6803F00073002BF0D054E0104BC7
:105A200000221A60FEF74AFE386108E0FEF746FEE3
:105A300002463B69D31A022B01D9032345E0064BEA
:105A40001B6803F00073002BF0D13DE07B689B697D
:105A5000012B07D1012338E00038024000700040DC
:105A6000600047421B4B5B68FB607B689B69012BB6
:105A700028D0FB6803F480027B68DB699A4221D15D
:105A8000FB6803F03F027B681B6A9A421AD1FA68EE
:105A900047F6C07313407A68526A9201934211D15B
:105AA000FB6803F440327B689B6A5B08013B1B0484
:105AB0009A4207D1FB6803F070627B68DB6A1B06C1
:105AC0009A4201D0012300E0002318461837BD4652
:105AD00080BD00BF0038024080B584B000AF786060
