:020000040800F2
:1000000000000220954B0008F9480008014900084B
:1000100009490008114900081949000800000000BA
:10002000000000000000000000000000214900085E
:100030002F490008000000003D4900084B49000816
:10004000E54B0008E54B0008E54B0008E54B0008D0
:10005000E54B0008E54B0008E54B00085749000850
:10006000E54B0008E54B0008E54B0008E54B0008B0
:10007000E54B0008E54B0008E54B0008E54B0008A0
:10008000E54B0008E54B0008E54B000800000000C8
:10009000000000000000000000000000E54B000828
:1000A000E54B000865490008E54B0008E54B0008F2
:1000B000E54B0008E54B0008E54B0008E54B000860
:1000C000E54B0008E54B0008E54B0008E54B000850
:1000D000E54B0008E54B0008E54B00080000000078
:1000E00079490008E54B0008E54B000800000000D6
:1000F000000000000000000000000000E54B0008C8
:1001000000000000E54B0008E54B0008E54B000847
:1001100000000000000000000000000000000000DF
:10012000E54B0008E54B0008E54B0008E54B0008EF
:10013000E54B000800000000000000000000000087
:10014000000000000000000000000000E54B000877
:10015000E54B0008E54B0008E54B0008894900081D
:10016000E54B0008E54B000800000000000000001F
:10017000000000000000000000000000000000007F
:1001800000000000E54B0008000000000000000037
:08019000E54B0008E54B0008F7
:1001A00010B5054C237833B9044B13B10448AFF3B1
:1001B00000800123237010BDDC010020000000003E
:1001C000B0BF000808B5034B1BB103490348AFF3A8
:1001D000008008BD00000000E0010020B0BF000862
:1001E00001F0FF01102A2BDB10F0070F08D010F8E8
:1001F000013B013A8B422DD010F0070F42B3F6D1EC
:10020000F0B441EA012141EA014122F007047FF004
:1002100000070023F0E80256083C85EA010586EA5B
:10022000010685FA47F5A3FA87F586FA47F6A5FA97
:1002300087F68EB9EED1F0BC01F0FF0102F00702A3
:1002400032B110F8013B013A83EA010313B1F8D14E
:100250000020704701387047002D06BF354603382F
:10026000073815F0010F07D1013015F4807F02BF68
:10027000013015F4C03F0130F0BC0138704700BFB9
:10028000034613F8012B002AFBD1181A01387047D6
:1002900081F0004102E000BF83F0004330B54FEA37
:1002A00041044FEA430594EA050F08BF90EA020FA4
:1002B0001FBF54EA000C55EA020C7FEA645C7FEA37
:1002C000655C00F0E2804FEA5454D4EB5555B8BF5A
:1002D0006D420CDD2C4480EA020281EA030382EACB
:1002E000000083EA010180EA020281EA0303362D5D
:1002F00088BF30BD11F0004F4FEA01314FF4801C30
:100300004CEA113102D0404261EB410113F0004F41
:100310004FEA03334CEA133302D0524263EB4303F8
:1003200094EA050F00F0A780A4F10104D5F1200E96
:100330000DDB02FA0EFC22FA05F2801841F10001F1
:1003400003FA0EF2801843FA05F359410EE0A5F1C5
:1003500020050EF1200E012A03FA0EFC28BF4CF0F6
:10036000020C43FA05F3C01851EBE37101F00045AC
:1003700007D54FF0000EDCF1000C7EEB00006EEBB9
:100380000101B1F5801F1BD3B1F5001F0CD3490843
:100390005FEA30004FEA3C0C04F101044FEA44529A
:1003A00012F5800F80F09A80BCF1004F08BF5FEA21
:1003B000500C50F1000041EB045141EA050130BD01
:1003C0005FEA4C0C404141EB0101013C28BFB1F513
:1003D000801FE9D291F0000F04BF01460020B1FA5E
:1003E00081F308BF2033A3F10B03B3F120020CDA31
:1003F0000C3208DD02F1140CC2F10C0201FA0CF00F
:1004000021FA02F10CE002F11402D8BFC2F1200C73
:1004100001FA02F120FA0CFCDCBF41EA0C01904029
:10042000E41AA2BF01EB0451294330BD6FEA040472
:100430001F3C1CDA0C340EDC04F11404C4F120025D
:1004400020FA04F001FA02F340EA030021FA04F36F
:1004500045EA030130BDC4F10C04C4F1200220FAC6
:1004600002F001FA04F340EA0300294630BD21FA04
:1004700004F0294630BD94F0000F83F4801306BFCA
:1004800081F480110134013D4EE77FEA645C18BFBE
:100490007FEA655C29D094EA050F08BF90EA020F55
:1004A00005D054EA000C04BF1946104630BD91EA4D
:1004B000030F1EBF0021002030BD5FEA545C05D150
:1004C0004000494128BF41F0004130BD14F580048F
:1004D0003CBF01F5801130BD01F0004545F0FE4103
:1004E00041F470014FF0000030BD7FEA645C1ABF38
:1004F000194610467FEA655C1CBF0B46024650EA6F
:10050000013406BF52EA033591EA030F41F400219A
:1005100030BD00BF90F0000F04BF0021704730B520
:100520004FF4806404F132044FF000054FF00001F5
:1005300050E700BF90F0000F04BF0021704730B5B6
:100540004FF4806404F1320410F0004548BF40428B
:100550004FF000013EE700BF42004FEAE2014FEAE0
:1005600031014FEA02701FBF12F07F4393F07F4FBB
:1005700081F06051704732F07F4208BF704793F0BE
:100580007F4F04BF41F40021704730B54FF46074D1
:1005900001F0004521F000411CE700BF50EA0102D4
:1005A00008BF704730B54FF000050AE050EA01027D
:1005B00008BF704730B511F0004502D5404261EBED
:1005C00041014FF4806404F132045FEA915C3FF42E
:1005D000D8AE4FF003025FEADC0C18BF03325FEACB
:1005E000DC0C18BF033202EBDC02C2F1200300FA7C
:1005F00003FC20FA02F001FA03FE40EA0E0021FAA1
:1006000002F11444BDE600BF70B54FF0FF0C4CF48E
:10061000E06C1CEA11541DBF1CEA135594EA0C0F40
:1006200095EA0C0F00F0DEF82C4481EA030621EA7B
:100630004C5123EA4C5350EA013518BF52EA0335B6
:1006400041F4801143F4801338D0A0FB02CE4FF068
:100650000005E1FB02E506F00042E0FB03E54FF098
:100660000006E1FB03569CF0000F18BF4EF0010E90
:10067000A4F1FF04B6F5007F64F5407404D25FEA8C
:100680004E0E6D4146EB060642EAC62141EA55513F
:100690004FEAC52040EA5E504FEACE2EB4F1FD0C81
:1006A00088BFBCF5E06F1ED8BEF1004F08BF5FEAFF
:1006B000500E50F1000041EB045170BD06F00046B1
:1006C00046EA010140EA020081EA0301B4EB5C045E
:1006D000C2BFD4EB0C0541EA045170BD41F4801156
:1006E0004FF0000E013C00F3AB8014F1360FDEBF7B
:1006F000002001F0004170BDC4F10004203C35DA57
:100700000C341BDC04F11404C4F1200500FA05F3D9
:1007100020FA04F001FA05F240EA020001F000427A
:1007200021F0004110EBD37021FA04F642EB0601F0
:100730005EEA430E08BF20EAD37070BDC4F10C041A
:10074000C4F1200500FA04F320FA05F001FA04F2DE
:1007500040EA020001F0004110EBD37041F10001CA
:100760005EEA430E08BF20EAD37070BDC4F12005D5
:1007700000FA05F24EEA020E20FA04F301FA05F23D
:1007800043EA020321FA04F001F0004121FA04F2E5
:1007900020EA020000EBD3705EEA430E08BF20EAB5
:1007A000D37070BD94F0000F0FD101F000464000EF
:1007B00041EB010111F4801F08BF013CF7D041EA71
:1007C000060195F0000F18BF704703F00046520075
:1007D00043EB030313F4801F08BF013DF7D043EA46
:1007E0000603704794EA0C0F0CEA135518BF95EAFC
:1007F0000C0F0CD050EA410618BF52EA4306D1D183
:1008000081EA030101F000414FF0000070BD50EAA1
:10081000410606BF1046194652EA430619D094EA2B
:100820000C0F02D150EA013613D195EA0C0F05D115
:1008300052EA03361CBF104619460AD181EA030169
:1008400001F0004141F0FE4141F470014FF0000021
:1008500070BD41F0FE4141F4780170BD70B54FF0BC
:10086000FF0C4CF4E06C1CEA11541DBF1CEA13553C
:1008700094EA0C0F95EA0C0F00F0A7F8A4EB05041E
:1008800081EA030E52EA03354FEA013100F0888015
:100890004FEA03334FF0805545EA131343EA1263DE
:1008A0004FEA022245EA111545EA10654FEA002693
:1008B0000EF000419D4208BF964244F1FD0404F54C
:1008C000407402D25B084FEA3202B61A65EB0305A8
:1008D0005B084FEA32024FF480104FF4002CB6EB65
:1008E000020E75EB030E22BFB61A754640EA0C00E5
:1008F0005B084FEA3202B6EB020E75EB030E22BF25
:10090000B61A754640EA5C005B084FEA3202B6EB65
:10091000020E75EB030E22BFB61A754640EA9C0024
:100920005B084FEA3202B6EB020E75EB030E22BFF4
:10093000B61A754640EADC0055EA060E18D04FEAB2
:10094000051545EA16754FEA06164FEAC30343EA52
:1009500052734FEAC2025FEA1C1CC0D111F4801F1F
:100960000BD141EA00014FF000004FF0004CB6E718
:1009700011F4801F04BF01430020B4F1FD0C88BFB7
:10098000BCF5E06F3FF6AFAEB5EB030C04BFB6EBC2
:10099000020C5FEA500C50F1000041EB045170BDB5
:1009A0000EF0004E4EEA113114EB5C04C2BFD4EBE2
:1009B0000C0541EA045170BD41F480114FF0000E66
:1009C000013C90E645EA060E8DE60CEA135594EAE2
:1009D0000C0F08BF95EA0C0F3FF43BAF94EA0C0FE5
:1009E0000AD150EA01347FF434AF95EA0C0F7FF45A
:1009F00025AF104619462CE795EA0C0F06D152EAAE
:100A000003353FF4FDAE1046194622E750EA410691
:100A100018BF52EA43067FF4C5AE50EA41047FF4A2
:100A20000DAF52EA43057FF4EBAE12E74FF0FF3C07
:100A300006E000BF4FF0010C02E000BF4FF0010CD8
:100A40004DF804CD4FEA410C7FEA6C5C4FEA430C51
:100A500018BF7FEA6C5C1BD001B050EA410C0CBFA0
:100A600052EA430C91EA030F02BF90EA020F002002
:100A7000704710F1000F91EA030F58BF994208BF69
:100A800090422CBFD8176FEAE37040F00100704726
:100A90004FEA410C7FEA6C5C02D150EA013C07D17D
:100AA0004FEA430C7FEA6C5CD6D152EA033CD3D0C8
:100AB0005DF8040B704700BF8446104662468C46C2
:100AC0001946634600E000BF01B5FFF7B7FF0028F5
:100AD00048BF10F1000F01BD4DF808EDFFF7F4FF1E
:100AE0000CBF012000205DF808FB00BF4DF808EDA9
:100AF000FFF7EAFF34BF012000205DF808FB00BFCC
:100B00004DF808EDFFF7E0FF94BF012000205DF8ED
:100B100008FB00BF4DF808EDFFF7CEFF94BF0120A2
:100B200000205DF808FB00BF4DF808EDFFF7C4FF9B
:100B300034BF012000205DF808FB00BF4FEA410CE4
:100B40007FEA6C5C02D150EA013C0AD14FEA430CC7
:100B50007FEA6C5C02D152EA033C02D14FF0000004
:100B600070474FF0010070474FEA410212F5001242
:100B700015D211D56FF47873B3EB625212D94FEAE4
:100B8000C12343F0004343EA505311F0004F23FACE
:100B900002F018BF404270474FF00000704750EA23
:100BA000013005D111F0004008BF6FF000407047E0
:100BB0004FF00000704700BF53B94AB9002908BF81
:100BC00000281CBF4FF0FF314FF0FF3000F088B914
:100BD000ADF1080C6DE904CE00F006F8DDF804E094
:100BE000DDE9022304B070472DE9F047089D8E46E9
:100BF00004468846002B4AD18A42174662D9B2FA87
:100C000082F64EB1C6F1200301FA06F820FA03F38A
:100C1000B74043EA0808B4404FEA174E1FFA87FC72
:100C2000B8FBFEF1230C0EFB118843EA084301FBDD
:100C30000CF29A4209D9FB1801F1FF3080F0EA80EA
:100C40009A4240F2E78002393B449A1AA3B2B2FBBF
:100C5000FEF00EFB102243EA024300FB0CFC9C4515
:100C600009D9FB1800F1FF3280F0D6809C4540F294
:100C7000D3803B44023840EA0140A3EB0C0300213F
:100C80001DB1F3400022C5E90032BDE8F0878B4278
:100C900005D90DB1C5E9000100210846F5E7B3FA11
:100CA00083F1002946D1734502D3824200F20581C7
:100CB000841A6EEB030201209046002DE5D0C5E9B1
:100CC0000048E2E7002A00F09080B2FA82F6002E97
:100CD00040F0A4808A1A030C4FEA174E80B2BCB2CF
:100CE0000121B2FBFEFC0EFB1C2243EA024304FB83
:100CF0000CF29A4207D9FB180CF1FF3802D29A4243
:100D000000F2E080C4469B1AB3FBFEF20EFB1233E6
:100D100040EA034302FB04F49C4207D9FB1802F1AA
:100D2000FF3002D29C4200F2CA8002461B1B42EAFC
:100D30000C40A5E7C1F120068B4022FA06F71F43BD
:100D40000EFA01F420FA06F32EFA06FE4FEA1749CE
:100D5000234300FA01F81FFA87FCBEFBF9F01C0CD4
:100D600009FB10EE44EA0E4400FB0CFEA64502FA15
:100D700001F209D93C1900F1FF3A80F09C80A645A8
:100D800040F2998002383C44A4EB0E041FFA83FE23
:100D9000B4FBF9F309FB13444EEA044403FB0CFCD7
:100DA000A44508D93C1903F1FF3E80F08280A44598
:100DB0007FD9023B3C4443EA0040A4EB0C04A0FB77
:100DC00002EC64457346E14662D35FD05DB1B8EB97
:100DD000030264EB090404FA06F622FA01F31E4347
:100DE000CC40C5E9006400214FE7B1FBF2FC010CE7
:100DF00041EA0E4180B240EA01423B4638463C4659
:100E0000B846BE462026B1FBF7F1A2EB080241EA44
:100E10000C4166E7014618E710462CE7C6F12002B0
:100E20002EFA02F3B740B14020FA02F24FEA174E11
:100E30000A43B3FBFEF8BCB20EFB1833110C41EAB7
:100E4000034108FB04F9B04089454FEA104380B2E2
:100E50003ED9791808F1FF3C01D289451FD8A1EB92
:100E60000901B1FBFEF909FB04F80EFB191192B25E
:100E700042EA0142424529D2BA1809F1FF31C4D2EF
:100E80004245C2D2A9F102013A44BEE7F0459DD2E3
:100E9000BEEB02036CEB070C0138E14696E7A7EBCB
:100EA00009094944A8F1020CB1FBFEF909FB04F859
:100EB000DBE773467FE7504666E70846FDE63B44BE
:100EC000023A33E7ACF1020C3B441CE749469CE78D
:100ED000A1EB0901C446B1FBFEF909FB04F8C4E724
:100EE000704700BF80B584B000AF03460A46FB8060
:100EF0001346BB80FB88002B06D100F037F8BB8877
:100F0000184603F0E3FE2AE0FB88164A92FBF3F34F
:100F1000FB60FB68B3F5803F02D34FF6FF73FB60C5
:100F2000FB68132B01D81423FB600F4B1B68FA6876
:100F3000013ADA62FB68013B0B4AD3600A4B1B683B
:100F4000FA685208DA630821074806F01BF9BB88E3
:100F5000184603F0BBFE0821034806F0C3F910371A
:100F6000BD4680BD00093D00B002002080B500AF45
:100F70000821024806F0B6F900BF80BDB00200208B
:100F800080B500AFC82140F20B20FFF7ABFF322144
:100F90000020FFF7A7FFC82140F29320FFF7A2FF30
:100FA00032210020FFF79EFF4FF496714FF44470FA
:100FB000FFF798FF00BF80BD80B500AF96214FF4CA
:100FC0004470FFF78FFF32210020FFF78BFFC8210D
:100FD00040F21740FFF786FF00BF80BD80B500AF2D
:100FE000642140F20B20FFF77DFF642140F2932043
:100FF000FFF778FF64214FF44470FFF773FFC821B7
:1010000040F21740FFF76EFF64210020FFF76AFFF0
:10101000642140F21740FFF765FF64214FF44470EC
:10102000FFF760FF4FF4967140F21740FFF75AFF49
:1010300000BF80BD80B582B000AF00237B600AE0B6
:10104000C821DC20FFF74EFF64210020FFF74AFF94
:101050007B6801337B607B68022BF1DD00BF00BF42
:101060000837BD4680BD000080B5ADF5036D00AF0B
:10107000634800F04DFC0023C7F82C381DE0002326
:10108000C7F8283810E05F49D7F82C381A01D7F88C
:10109000283813441B010B4442F20F721A60D7F830
:1010A00028380133C7F82838D7F828380F2BEADD5D
:1010B000D7F82C380133C7F82C38D7F82C380F2B39
:1010C000DDDD002387F827384F4B1A684F4B1B682C
:1010D0004C49120113441B010B4404331B78002BB1
:1010E00015D0494B1A68494B1B68464912011344F5
:1010F0001B010B4400221A60012387F82738424B5A
:101100001B68424A12681946414800F017FC414BDF
:101110001A683E4B1B683B49120113441B010B44E8
:1011200004331B78002B15D03A4B1A68374B1B68D9
:101130003449120113441B010B4400221A6001239D
:1011400087F82738334B1B68304A126819463048F5
:1011500000F0F4FB2C4B1A682F4B1B682949120135
:1011600013441B010B4404331B78002B15D0264B72
:101170001A68294B1B682349120113441B010B44B5
:1011800000221A60012387F827381F4B1B68224A68
:10119000126819461E4800F0D1FB1E4B1A681E4B00
:1011A0001B681849120113441B010B4404331B78BC
:1011B000002B15D0174B1A68174B1B6811491201E9
:1011C00013441B010B4400221A60012387F82738BF
:1011D000104B1B68104A126819460D4800F0AEFB10
:1011E00097F8273883F00103DBB2002B1AD00B48A5
:1011F00000F08EFB0A4B42F20F721A60BAE100BF98
:10120000C8BF00081804002088DE00088CDE000833
:1012100004C0000890DE000894DE000820C000082A
:10122000681400200023C7F820380023C7F81C38B2
:10123000B84B1A68B84B1B68B849120113441B011C
:101240000B4404331B78002B22D0B24B1A68B24BEC
:101250001B68B249120113441B010B441B68002B8D
:1012600016D1AC4B196807F50363A3F58663D7F86D
:101270001C2843F82210D7F81C385A1CC7F81C2821
:10128000A54A116807F50362A2F5036242F823102C
:10129000A34B1A68A04B1B68A049120113441B0101
:1012A0000B4404331B78002B22D09D4B1A689A4BB9
:1012B0001B689A49120113441B010B441B68002B45
:1012C00016D1974B196807F50363A3F58663D7F822
:1012D0001C2843F82210D7F81C385A1CC7F81C28C1
:1012E0008D4A116807F50362A2F5036242F82310E4
:1012F000884B1A688B4B1B688849120113441B01E9
:101300000B4404331B78002B22D0824B1A68854B88
:101310001B688249120113441B010B441B68002BFC
:1013200016D17C4B196807F50363A3F58663D7F8DC
:101330001C2843F82210D7F81C385A1CC7F81C2860
:10134000784A116807F50362A2F5036242F8231098
:10135000734B1A68734B1B687049120113441B01CD
:101360000B4404331B78002B22D06D4B1A686D4B55
:101370001B686A49120113441B010B441B68002BB4
:1013800016D1674B196807F50363A3F58663D7F891
:101390001C2843F82210D7F81C385A1CC7F81C2800
:1013A000604A116807F50362A2F5036242F8231050
:1013B0000023C7F81838C7E007F50363A3F5866371
:1013C000D7F8202853F82230C7F81038D7F820383B
:1013D0005A1CC7F8202807F50362A2F5036252F8E9
:1013E0002330C7F80C380023C7F81438A7E04E4A5A
:1013F000D7F8143852F82330D7F810281344C7F818
:1014000008384A4AD7F8143852F82330D7F80C284D
:101410001344C7F80438D7F80838002BC0F28A8084
:10142000D7F808380F2B00F38580D7F80438002B45
:10143000C0F28080D7F804380F2B7BDC3749D7F80F
:1014400008381A01D7F8043813441B010B4404333D
:101450001B78002B6ED03149D7F810381A01D7F815
:101460000C3813441B01CA18D7F814381344053339
:101470001B7883F00103DBB2002B5BD02749D7F840
:1014800010381A01D7F80C3813441B010B441B68A1
:101490000133C7F800382149D7F808381A01D7F8BE
:1014A000043813441B010B441B68D7F800289A42E8
:1014B00040DA1A49D7F808381A01D7F80438134423
:1014C0001B010B44D7F800281A60D7F81C38FE2BF4
:1014D0001CDC07F50363A3F58663D7F81C28D7F84F
:1014E000081843F82210D7F81C385A1CC7F81C28D3
:1014F00007F50362A2F50362D7F8041842F8231037
:10150000D7F818380133C7F8183813E0084800F046
:10151000FFF919E088DE00088CDE000818040020BE
:1015200090DE000894DE000868DE000878DE00081F
:101530005CC00008D7F814380133C7F81438D7F85E
:101540001438032B7FF753AFD7F82028D7F81C386F
:101550009A42FFF631AF094B1B68094A1360084BEA
:101560001B681946074800F0E9F9D7F8181806482B
:1015700000F0E4F907F50367BD4680BD18040020BC
:101580006814002070C00008B0C0000880B586B0A4
:1015900000AF724800F0BCF900237B614FF4807308
:1015A000BB6000233B6119E00023FB6010E06C4945
:1015B0003B691A01FB6813441B010B4404331B787D
:1015C000002B02D07B6901337B61FB680133FB6038
:1015D000FB680F2BEBDD3B6901333B613B690F2B54
:1015E000E2DD7B6907EE903AF8EEE76ABB6807EE4A
:1015F000903AB8EEE77AC6EE877A9FED5A7A67EEB0
:10160000877AC7ED017A584800F082F97868FEF7CA
:10161000A3FF02460B46554800F090F9BA68796975
:10162000534800F08BF9534B1B681946524800F0A1
:1016300085F9524800F06CF9514B1B6842F20E726A
:1016400093420CDC4E4B1B6819464E4800F076F96D
:101650004D4800F05DF94D4800F05AF905E04C485E
:1016600000F056F94B4800F053F94B4800F050F9A0
:10167000D7ED017A9FED497AF4EEC77AF1EE10FAD0
:101680000CD83F4B1B6842F20E72934206DC444872
:1016900000F03EF9434800F03BF925E0D7ED017A30
:1016A0009FED417AF4EEC77AF1EE10FA06D83F4882
:1016B00000F02EF93E4800F02BF915E0D7ED017A45
:1016C0009FED3C7AF4EEC77AF1EE10FA06D83A486C
:1016D00000F01EF9394800F01BF905E0384800F029
:1016E00017F9384800F014F9374800F011F9D7ED30
:1016F000017A9FED2A7AF4EEC77AF1EE10FA0FD84C
:101700001F4B1B6842F20E72934209DC2F4800F017
:10171000FFF82F4800F0FCF82E4800F0F9F815E02B
:10172000D7ED017A9FED2C7AF4EEC77AF1EE10FA3C
:1017300006DD2A4800F0ECF8294800F0E9F805E059
:10174000284800F0E5F8284800F0E2F8274800F0C3
:10175000DFF800BF1837BD4680BD00BFDCC0000801
:10176000180400200000C8420CC1000828C100086D
:101770004CC100086414002064C100088CC100083A
:1017800068140020ACC10008DCC1000814C20008C5
:1017900044C2000874C20008ACC2000800004842FD
:1017A000CCC20008F4C200080000824230C3000826
:1017B00054C300080000A04298C30008B8C3000842
:1017C000ECC300080CC400084CC4000874C4000832
:1017D000B4C40008DCC40008000096420CC5000830
:1017E00038C5000878C50008ACC50008E4C5000885
:1017F00080B584B000AF3A4800F08AF8394800F06C
:1018000087F80023FB6006E0F968374800F096F897
:10181000FB680133FB60FB680F2BF5DD334800F0FC
:1018200077F80F23BB6040E0B968314800F086F8D4
:1018300000237B6030E02F497B681A01BB681344AA
:101840001B010B4404331B7883F00103DBB2002B34
:1018500003D0294800F05CF81BE026497B681A0198
:10186000BB6813441B010B441B6842F20F72934286
:1018700003D1224800F04CF80BE01E497B681A01A6
:10188000BB6813441B010B441B681946164800F043
:1018900055F87B6801337B607B680F2BCBDD1348E9
:1018A00000F036F8BB68013BBB60BB68002BBBDABD
:1018B000134B1B6842F20E72934206DC104B1B68FE
:1018C0001946104800F03AF802E00F4800F020F8FE
:1018D0000E4800F01DF800BF1037BD4680BD00BFA8
:1018E00010C6000848C600084CC6000850C60008CC
:1018F00054C60008180400205CC6000860C6000832
:101900006814002068C600089CC60008CCC6000801
:1019100080B582B000AF78607868FEF7B1FC03460E
:101920009AB24FF47A737968034806F015FD00BF48
:101930000837BD4680BD00BFD00300200FB480B57E
:10194000C2B000AF07F58A7207F58473A3F58273FE
:101950001A6007F58473A3F5827307F108001B680A
:10196000D7F810214FF4807108F048FA07F1080306
:101970001846FFF7CDFF00BF07F58477BD46BDE8E9
:10198000804004B07047000080B584B002AF164BB1
:101990001B8807EE903AF8EEE77A9FED147A27EE6F
:1019A000877ADFED136AC7EE267AC7ED017A786889
:1019B000FEF7D2FD02460B460B49098800910D48FF
:1019C000FFF7BCFF084B1B8840F6B732934203D8A1
:1019D0000948FFF79DFF02E00848FFF799FF00BFA5
:1019E0000837BD4680BD00BF2C1400203333534060
:1019F0000000804528CD000840CD00085CCD0008DF
:101A000080B500AF0B48FFF783FF0B48FFF796FF49
:101A10000A48FFF793FF0A48FFF790FF0948FFF7CE
:101A20008DFF0948FFF78AFF0848FFF771FF00BFE5
:101A300080BD00BF64CD00088CCD0008C0CD00087B
:101A4000E0CD00080CCE000838CE00086CCE0008AF
:101A500080B584B000AF0346FB71FB7963F07F0370
:101A6000DBB27B7300233B7300224FF48051174895
:101A700004F06AF807F10D0164230122144804F010
:101A800090FD0346FB7307F10C016423012210480B
:101A900004F0CBFE0346BB7301224FF480510B4888
:101AA00004F052F8FB7B002B02D1BB7B002B07D04C
:101AB0000848FFF72DFF084B00221A70FF2300E0B3
:101AC0003B7B18461037BD4680BD00BF0004024076
:101AD0005802002094CE0008F801002080B584B0A0
:101AE00000AF03460A46FB711346BB71FB793B739B
:101AF000BB797B7300224FF48051114804F024F825
:101B000007F10C01642302220E4804F04AFD03464B
:101B1000FB7301224FF48051094804F015F8FB7B58
:101B2000002B05D00848FFF7F3FE084B00221A707F
:101B3000012003F0CBF800BF1037BD4680BD00BFC9
:101B40000004024058020020B8CE0008F80100202E
:101B500080B582B000AF3C48FFF7DAFEC82003F042
:101B6000B5F880216B20FFF7B9FFFA2003F0AEF83B
:101B700000216B20FFF7B2FF322003F0A7F801210C
:101B80006B20FFF7ABFF322003F0A0F800216C20A0
:101B9000FFF7A4FF0A2003F099F86A20FFF758FF27
:101BA0000346FB71FB7943F01003FB71FB79194687
:101BB0006A20FFF793FF0A2003F088F80421192018
:101BC000FFF78CFF0A2003F081F802211A20FFF7AB
:101BD00085FF0A2003F07AF808211B20FFF77EFF1B
:101BE0000A2003F073F808211C20FFF777FF0A2072
:101BF00003F06CF802211D20FFF770FF0A2003F0AC
:101C000065F87520FFF724FF0346BB71BB791946C1
:101C10000E48FFF793FEBB79702B09D0BB791946AC
:101C20000B48FFF78BFE0B4B00221A70002306E0D7
:101C30000948FFF76DFE074B01221A700123184671
:101C40000837BD4680BD00BFE0CE00080CCF0008BD
:101C500020CF0008F801002048CF00082DE9B0434C
:101C600088B004AF4E4B1B7883F00103DBB2002B2E
:101C700003D04C48FFF74CFE8EE04B48FFF748FE80
:101C80004A4B4FF47A721A614FF00003FB604FF039
:101C90000003BB604FF000037B6000233B602EE03D
:101CA00000F096F8424BB3F9003007EE903AF8EEA8
:101CB000E77A97ED037A77EE277AC7ED037A3C4B04
:101CC000B3F9023007EE903AF8EEE77A97ED027A30
:101CD00077EE277AC7ED027A354BB3F9043007EE79
:101CE000903AF8EEE77A97ED017A77EE277AC7ED2A
:101CF000017A032002F0EAFF3B6801333B602B4B83
:101D00001A693B689A42CBD8284B1B6907EE903A78
:101D1000B8EE677AD7ED036AC6EE877A234BC3ED38
:101D2000007A224B1B6907EE903AB8EE677AD7ED3E
:101D3000026AC6EE877A1D4BC3ED017A1B4B1B6905
:101D400007EE903AB8EE677AD7ED016AC6EE877A69
:101D5000164BC3ED027A154B01221A73134B1B6805
:101D60001846FEF7F9FB80468946104B5B6818461B
:101D7000FEF7F2FB04460D460C4B9B681846FEF737
:101D8000EBFB02460B46CDE90223CDE90045424676
:101D90004B460848FFF7D2FD1037BD46BDE8B0837B
:101DA000F80100205CCF000888CF0008FC0100206B
:101DB0003C140020BCCF000880B400AF034B1B785C
:101DC0001846BD465DF8047B704700BFF80100204F
:101DD00080B584B000AF2F4B1B7883F00103DBB2DA
:101DE000002B03D02C48FFF793FD50E0C323FB7179
:101DF00000224FF48051294803F0A6FEF91D642308
:101E00000122274804F0CDFB0346FB73FB7B002B2C
:101E100009D001224FF48051204803F095FE21485B
:101E2000FFF776FD33E007F10801642306221C4822
:101E300004F0FBFC0346FB7301224FF4805117486A
:101E400003F082FEFB7B002B03D01748FFF760FDF9
:101E50001DE03B7A1BB21B021AB27B7A1BB2134302
:101E60001AB2124B1A80BB7A1BB21B021AB2FB7A4F
:101E70001BB213431AB20D4B5A803B7B1BB21B02A1
:101E80001AB27B7B1BB213431AB2084B9A801037ED
:101E9000BD4680BDF8010020ECCF000800040240E0
:101EA0005802002020D0000844D000083C14002034
:101EB00080B584B000AF2F4B1B7883F00103DBB2F9
:101EC000002B03D02C48FFF723FD50E0BB23FB7110
:101ED00000224FF48051294803F036FEF91D642397
:101EE0000122274804F05DFB0346FB73FB7B002BBC
:101EF00009D001224FF48051204803F025FE2148EB
:101F0000FFF706FD33E007F10801642306221C48B1
:101F100004F08BFC0346FB7301224FF480511748F9
:101F200003F012FEFB7B002B03D01748FFF7F0FCF9
:101F30001DE03B7A1BB21B021AB27B7A1BB2134321
:101F40001AB2124BDA80BB7A1BB21B021AB2FB7AAE
:101F50001BB213431AB20D4B1A813B7B1BB21B02FF
:101F60001AB27B7B1BB213431AB2084B5A8110374B
:101F7000BD4680BDF801002068D000080004024082
:101F800058020020A0D00008C4D000083C14002053
:101F900080B500AFFFF78CFFFFF71AFF00BF80BDD1
:101FA00080B400AF094BB3F9043007EE903AF8EE75
:101FB000E77A9FED077AC7EE876AF0EE667AB0EEB1
:101FC000670ABD465DF8047B704700BF3C140020E3
:101FD00000008342B0B584B002AF2E4B1B78002BBB
:101FE00001D02D4B00E02D4B19462D48FFF7A6FCE4
:101FF000284B1B78002B48D07520FFF729FD03469E
:10200000FB716A20FFF724FD0346BB716B20FFF7CD
:102010001FFD03467B71F979BA797B792148FFF777
:102020008DFCBB7903F01003002B03D01E48FFF793
:102030006FFC02E01D48FFF76BFCFFF7A9FF1C4B8C
:10204000B3F900301C461A4BB3F902301D46FFF7B6
:10205000A7FF10EE103A1846FEF77EFA02460B462E
:10206000CDE900232A4621461248FFF767FC104BB2
:10207000B3F9063019460E4BB3F908301A460C4B2B
:10208000B3F90A300C48FFF759FC00BF0837BD46CA
:10209000B0BD00BFF8010020E8D00008ECD0000877
:1020A000F4D0000810D1000844D1000858D100082D
:1020B0003C1400206CD1000888D1000880B582B0A3
:1020C00000AF02F091FD00F02BF900F05BFC00F096
:1020D0008FF900F017FA00F04BFA00F0E9FA00F07F
:1020E000D3FB00F025FC00F037FB00217B4805F016
:1020F00049F80421794805F045F80821774805F0AA
:1021000041F80C21754805F03DF801224FF40051CB
:10211000734803F019FD00F083FD00F015FD00F099
:102120004FFD02F0D7F8FFF747FE034683F00103A7
:10213000DBB2002B02D06B48FFF7EAFBFFF78EFD06
:10214000FFF748FF01F0E6FF674B1B88002B12D119
:10215000654B1B89002B0ED1634B5B88002B0AD18A
:10216000614BDB88002B06D15F4B9B88002B02D193
:102170005E48FFF7CDFB01F09DFD01F087FD786023
:1021800001F08EFD3860642002F0A0FD01F07EFDBC
:10219000786001F085FD38607B68002B05D13B68D5
:1021A000002B02D15248FFF7B3FBFEF7E9FE0122F4
:1021B0001021504803F0C8FC012220214D4803F0B3
:1021C000C3FC4FF47A7002F081FD002210214948CF
:1021D00003F0BAFC00222021464803F0B5FC464833
:1021E000FFF796FBFFF70CFC4448FFF791FB06E076
:1021F0000A2002F06BFD10213E4803F0BEFC404B6C
:102200001B78DBB2002BF3D000221021394803F0F9
:102210009BFC00222021374803F096FCFEF7CCFE01
:102220004FF4FA6002F052FD3648FFF771FB01F0FF
:1022300041FD02F02FF801F06BFA01F06BFF324B19
:102240001B78DBB2012B14D12F4B00221A702F4BBD
:102250001B7B002B06D02D4B5B7B002B02D001F0AB
:10226000D5FB06E02A48FFF753FB01F0A3FB01F082
:102270004FFA254B1B78DBB2022B07D1224B0022F1
:102280001A7001F097FB2348FFF742FB02F012FDA2
:102290000246214B1B68D31A41F28832934206D979
:1022A000FFF772FB02F006FD03461B4A136002F0C3
:1022B00001FD0246194B1B68D31AB3F5FA6F08D912
:1022C00010210C4803F059FC02F0F4FC0346134AB9
:1022D0001360642002F0FAFCAFE700BF4003002067
:1022E00000080240A0D100082C140020D4D100081E
:1022F0000CD20008000402403CD2000860D2000862
:102300006114002088D200086014002018140020F6
:10231000A8D20008D4D200086C1400207014002049
:1023200080B594B000AF07F1200330220021184699
:1023300007F072FD07F10C0300221A605A609A60E0
:10234000DA601A610023BB60274B1B6C264A43F0FE
:1023500080531364244B1B6C03F08053BB60BB6839
:1023600000237B60214B1B68204A43F440431360E9
:102370001E4B1B6803F440437B607B6802233B6277
:102380000123FB6210233B630223BB630023FB6337
:1023900010233B64A8237B640223BB640423FB64F7
:1023A00007F12003184603F01BFC0346002B01D065
:1023B00000F022FC0F23FB6002233B6100237B61C2
:1023C0004FF48053BB610023FB6107F10C03022132
:1023D000184603F07DFE0346002B01D000F00CFCF4
:1023E00000BF5037BD4680BD00380240007000403D
:1023F00080B584B000AF3B4600221A605A609A60F4
:10240000DA603D4B3D4A1A603B4B4FF480325A60D4
:10241000394B00229A60384B01221A61364B012257
:102420001A76354B002283F82020334B0022DA62E3
:10243000314B334A9A62304B0022DA602E4B052230
:10244000DA612D4B002283F830202B4B01225A6198
:10245000294802F05FFC0346002B01D000F0CCFBC2
:1024600000233B6001237B600023BB603B46194691
:10247000214802F013FE0346002B01D000F0BCFB04
:1024800002233B6002237B603B4619461A4802F058
:1024900005FE0346002B01D000F0AEFB03233B609A
:1024A00003237B603B461946134802F0F7FD0346C1
:1024B000002B01D000F0A0FB04233B6004237B60D1
:1024C0003B4619460C4802F0E9FD0346002B01D0BB
:1024D00000F092FB05233B6005237B603B461946D9
:1024E000054802F0DBFD0346002B01D000F084FB21
:1024F00000BF1037BD4680BD100200200020014003
:102500000100000F80B500AF174B184A1A60164B38
:102510004FF482725A60144B00229A60124B0022D0
:10252000DA60114B00221A610F4B00225A610E4BE8
:102530004FF400729A610C4B3022DA610A4B002290
:102540001A62094B00225A62074B00229A62064B1C
:102550000A22DA62044803F09BFF0346002B01D0F5
:1025600000F04AFB00BF80BD580200200038004048
:1025700080B596B000AF07F1480300221A605A6098
:102580009A60DA6007F1400300221A605A6007F18E
:10259000240300221A605A609A60DA601A615A6154
:1025A0009A613B1D20220021184607F035FC3E4B66
:1025B0003E4A1A603C4B14225A603B4B00229A6000
:1025C000394BC822DA60384B00221A61364B0022A0
:1025D0005A61354B80229A61334804F02BFD034643
:1025E000002B01D000F008FB4FF48053BB6407F1CF
:1025F000480319462C4805F0BFF90346002B01D0CB
:1026000000F0FAFA284804F064FD0346002B01D0DC
:1026100000F0F2FA00233B6400237B6407F14003DF
:102620001946214805F074FD0346002B01D000F047
:10263000E3FA60237B626423BB620023FB62002316
:102640003B6300237B630023BB630023FB6307F131
:10265000240308221946144805F0CCF80346002B41
:1026600001D000F0C9FA00237B600023BB60002387
:10267000FB6000233B6100237B614FF40053BB618F
:1026800000233B623B1D1946074805F0AFFD03469A
:10269000002B01D000F0B0FA034802F05DF800BF53
:1026A0005837BD4680BD00BFB00200200000014089
:1026B00080B58CB000AF07F10C032422002118462E
:1026C00007F0AAFB3B1D00221A605A60214B4FF015
:1026D00080421A601F4B00225A601E4B00229A60F3
:1026E0001C4B4FF6FF72DA601A4B00221A61194B2D
:1026F00080229A610323FB6000233B6101237B61FD
:102700000023BB610023FB6100233B6201237B624A
:102710000023BB620023FB6207F10C0319460D483E
:1027200004F044FE0346002B01D000F065FA0023BC
:102730007B600023BB603B1D1946064805F0E8FCA2
:102740000346002B01D000F057FA00BF3037BD46DA
:1027500080BD00BFF802002080B58EB000AF07F149
:10276000280300221A605A609A60DA6007F1200399
:1027700000221A605A603B1D00221A605A609A605B
:10278000DA601A615A619A613D4B3E4A1A603C4BCD
:1027900004225A603A4B00229A60394B40F246328A
:1027A000DA60374B00221A61354B80229A61344837
:1027B00004F040FC0346002B01D000F01DFA4FF45A
:1027C0008053BB6207F1280319462D4805F0D4F861
:1027D0000346002B01D000F00FFA294804F079FCE1
:1027E0000346002B01D000F007FA00233B620023D0
:1027F0007B6207F120031946214805F089FC034656
:10280000002B01D000F0F8F960237B600023BB604F
:102810000023FB6000237B613B1D00221946184802
:1028200004F0E8FF0346002B01D000F0E5F93B1D62
:1028300004221946124804F0DDFF0346002B01D0A4
:1028400000F0DAF93B1D082219460D4804F0D2FFCA
:102850000346002B01D000F0CFF93B1D0C22194696
:10286000074804F0C7FF0346002B01D000F0C4F96D
:10287000034801F071FF00BF3837BD4680BD00BF7F
:10288000400300200004004080B58CB000AF07F189
:102890000C0324220021184607F0BEFA3B1D00223B
:1028A0001A605A60204B214A1A601F4B00225A605E
:1028B0001D4B00229A601C4B4FF6FF72DA601A4BD8
:1028C00000221A61184B80229A610323FB600023C7
:1028D0003B6101237B610023BB610023FB6100237B
:1028E0003B6201237B620023BB620023FB6207F192
:1028F0000C0319460C4804F059FD0346002B01D087
:1029000000F07AF900237B600023BB603B1D194671
:10291000054805F0FDFB0346002B01D000F06CF9E3
:1029200000BF3037BD4680BD88030020000800404E
:1029300080B500AF114B124A1A60104B4FF416527B
:102940005A600E4B00229A600C4B0022DA600B4B4F
:1029500000221A61094B0C225A61084B00229A612D
:10296000064B0022DA61054805F0A6FC0346002B61
:1029700001D000F041F900BF80BD00BFD0030020AE
:102980000014014080B588B000AF07F10C030022AD
:102990001A605A609A60DA601A610023BB604B4B80
:1029A0001B6B4A4A43F004031363484B1B6B03F051
:1029B0000403BB60BB6800237B60444B1B6B434A32
:1029C00043F001031363414B1B6B03F001037B6076
:1029D0007B6800233B603D4B1B6B3C4A43F002038A
:1029E00013633A4B1B6B03F002033B603B6800220E
:1029F0004FF40051364803F0A7F8002241F230317D
:102A0000344803F0A1F800224FF44071324803F03B
:102A10009BF84FF40053FB6001233B6100237B6173
:102A20000023BB6107F10C031946294802F008FF97
:102A30000223FB604FF488133B6100237B6107F1A5
:102A40000C031946244802F0FBFE4FF48063FB6040
:102A50004FF488133B6100237B6107F10C03194697
:102A60001C4802F0EDFE41F23033FB6001233B6174
:102A700000237B610023BB6107F10C031946154855
:102A800002F0DEFE4FF44073FB6001233B61002344
:102A90007B610023BB6107F10C0319460E4802F06D
:102AA000CFFE00220521072002F001FE072002F0E0
:102AB0001AFE00220521282002F0F9FD282002F04C
:102AC00012FE00BF2037BD4680BD00BF0038024067
:102AD00000080240000402400000024080B584B0BB
:102AE00000AF0346FB8002F0E5F8F860114B1B686D
:102AF000FA68D31AC82B19D9FB88022B09D10E4BBF
:102B000001221A700D4B01221A700D48FEF700FFCA
:102B100009E0FB88B3F5806F05D1074B02221A70DC
:102B20000848FEF7F5FE034AFB68136000BF103744
:102B3000BD4680BD74140020601400206114002084
:102B4000F0D2000808D3000880B586B000AF3B1D66
:102B500000221A605A609A60DA601A6101237B6071
:102B60000323BB600023FB603B1D1946124802F0A3
:102B700067FE04237B603B1D19460F4802F060FE90
:102B800008237B603B1D19460B4802F059FE1023B9
:102B90007B603B1D1946084802F052FE20237B60F3
:102BA0003B1D1946044802F04BFE0448FEF7B0FEF8
:102BB00000BF1837BD4680BD0000024020D300088A
:102BC00080B500AF0848FEF7A3FE084802F0A2F85F
:102BD0000346002B03D00648FEF79AFE02E00548A4
:102BE000FEF796FE80BD00BF48D30008100200200B
:102BF00060D3000884D3000880B500AF72B600BF70
:102C00001021064802F0B9FF2021044802F0B5FF68
:102C1000642002F05BF800BFF2E700BF000402404E
:102C200080B500AF00F042F8184B00221A60174B35
:102C300000225A60154B00229A60144B00221A732E
:102C4000124B00225A73114B00221A610E220021EE
:102C50000F4807F0E1F8122200210E4807F0DCF8D7
:102C6000102200210C4807F0D7F80C4B00221A6004
:102C70000B4B00221A60FEF76BFF0A48FEF748FE76
:102C80000948FEF745FE00BF80BD00BF18140020B4
:102C90002C1400203C140020501400206414002048
:102CA00068140020A4D30008D4D3000880B584B0F1
:102CB00000AF0023FB603EE00023BB6035E03949F4
:102CC000FB681A01BB6813441B010B4442F20F72EC
:102CD0001A603449FB681A01BB6813441B010B449A
:102CE000043300221A702F49FB681A01BB68134491
:102CF0001B010B440C3300221A6000237B600EE0A2
:102D00002849FB681A01BB6813441B01CA187B6879
:102D10001344053300221A707B6801337B607B68A3
:102D2000032BEDDDBB680133BB60BB680F2BC6DD39
:102D3000FB680133FB60FB680F2BBDDD00233B60AC
:102D40001FE0184A3B681B021344073301221A7024
:102D5000144A3B681B021344F53301221A70114ACE
:102D60003B681B011344083301221A700D4A3B686B
:102D70001B01134403F6067301221A703B680133EA
:102D80003B603B680F2BDCDD064B01221A71054BC3
:102D90000122DA600448FEF7BBFD00BF1037BD46D4
:102DA00080BD00BF18040020FCD3000880B5ADF53D
:102DB000036D00AF0023C7F82C381DE00023C7F8CF
:102DC000283810E0C849D7F82C381A01D7F8283825
:102DD00013441B010B4442F20F721A60D7F82838D3
:102DE0000133C7F82838D7F828380F2BEADDD7F891
:102DF0002C380133C7F82C38D7F82C380F2BDDDDF1
:102E0000BA4B1B7B83F00103DBB2002B2CD0B84BF9
:102E10001A68B84B1B68B449120113441B010B44D8
:102E200000221A60B44B1A68B24B1B68AE491201FB
:102E300013441B010B4400221A60AD4B1A68AF4BC0
:102E40001B68A949120113441B010B4400221A609C
:102E5000A94B1A68A94B1B68A349120113441B0113
:102E60000B4400221A6002E09F4B00221A600023EC
:102E7000C7F824380023C7F820389C4B1B7B83F00D
:102E80000103DBB2002B5CD0994B196807F5036393
:102E9000A3F22C43D7F8202843F82210D7F8203883
:102EA0005A1CC7F82028934A116807F50362A2F656
:102EB0002C0242F82310904B196807F50363A3F224
:102EC0002C43D7F8202843F82210D7F820385A1C72
:102ED000C7F82028874A116807F50362A2F62C027A
:102EE00042F82310824B196807F50363A3F22C43C1
:102EF000D7F8202843F82210D7F820385A1CC7F8F2
:102F000020287E4A116807F50362A2F62C0242F8D7
:102F10002310794B196807F50363A3F22C43D7F804
:102F2000202843F82210D7F820385A1CC7F8202848
:102F3000724A116807F50362A2F62C0242F82310C8
:102F400014E007F50363A3F22C43D7F820280021EF
:102F500043F82210D7F820385A1CC7F8202807F564
:102F60000362A2F62C02002142F823100023C7F8C6
:102F70001C38A7E007F50363A3F22C43D7F82428F5
:102F800053F82230C7F81438D7F824385A1CC7F839
:102F9000242807F50362A2F62C0252F82330C7F862
:102FA00010380023C7F8183887E0554AD7F8183882
:102FB00052F82330D7F814281344C7F80C38514A74
:102FC000D7F8183852F82330D7F810281344C7F828
:102FD0000838D7F80C38002B6ADBD7F80C380F2BE1
:102FE00066DCD7F80838002B62DBD7F808380F2BDF
:102FF0005EDC3D49D7F814381A01D7F8103813446D
:103000001B01CA18D7F81838134405331B7883F00E
:103010000103DBB2002B4BD03349D7F814381A0127
:10302000D7F8103813441B010B441B680133C7F851
:1030300004382D49D7F80C381A01D7F8083813444A
:103040001B010B441B68D7F804289A4230DA264942
:10305000D7F80C381A01D7F8083813441B010B4471
:10306000D7F804281A60D7F82038FE2B1CDC07F5A7
:103070000363A3F22C43D7F82028D7F80C1843F8A1
:103080002210D7F820385A1CC7F8202807F5036209
:10309000A2F62C02D7F8081842F82310D7F81C38EB
:1030A0000133C7F81C3803E01748FEF731FC09E08C
:1030B000D7F818380133C7F81838D7F81838032B61
:1030C0007FF773AFD7F82428D7F820389A42FFF655
:1030D00051AFD7F81C180D48FEF730FC00BF07F5BC
:1030E0000367BD4680BD00BF1804002018140020EF
:1030F00088DE00088CDE000890DE000894DE000800
:1031000068DE000878DE000830D4000844D40008E7
:1031100080B493B000AF884B9B687B6442F20F731E
:103120003B6440F2E733FB63002387F83B30824B7C
:103130009B683B60804B9B6801335A4203F003035A
:1031400002F0030258BF53427B607B4B9B68033302
:103150005A4203F0030302F0030258BF5342BB601C
:10316000754B9B6802335A4203F0030302F00302DB
:1031700058BF5342FB6000237B635BE07B6B9B008B
:1031800048333B4453F8483CBB616B4B1A686B496E
:10319000BB6951F8233013447B61674B5A68684917
:1031A000BB6951F8233013443B617B69002B3EDB44
:1031B0007B690F2B3BDC3B69002B38DB3B690F2B1A
:1031C00035DC5D4B1A685C4B5B685E491201134449
:1031D0001B01CA18BB69134405331B7883F0010334
:1031E000DBB2002B23D057497B691A013B6913449A
:1031F0001B010B440C331B68002B18D1012387F8EB
:103200003B3050497B691A013B6913441B010B4455
:103210001B683A6C9A420ADD4A497B691A013B698C
:1032200013441B010B441B683B64BB697B647B6BD1
:1032300001337B637B6B032BA0DD97F83B3083F07E
:103240000103DBB2002B6FD000233B6369E03B6BD3
:103250009B0048333B4453F8483CFB62364B1A68AA
:103260003649FB6A51F823301344BB62324B5A682B
:103270003349FB6A51F8233013447B62BB6A002B4D
:103280004CDBBB6A0F2B49DC7B6A002B46DB7B6A7D
:103290000F2B43DC284B1A68274B5B682949120126
:1032A00013441B01CA18FB6A134405331B7883F0CF
:1032B0000103DBB2002B31D02249BB6A1A017B6AC1
:1032C00013441B010B441B683B621E49BB6A1A0175
:1032D0007B6A13441B010B440C331B68FB613A6A85
:1032E0003B6C9A4214DB3A6A3B6C9A4203D1FA690E
:1032F000FB6B9A420CDB3A6A3B6C9A420ED1FA693C
:10330000FB6B9A420AD10C4B9B68FA6A9A4205D130
:103310003B6A3B64FB69FB63FB6A7B643B6B013389
:103320003B633B6B032B92DD7B6C18464C37BD46F1
:103330005DF8047B704700BF1814002068DE0008A9
:1033400078DE00081804002090B58BB002AF00F0C2
:10335000E1FE8A4B9B7A002B41D0894B1968884B40
:103360005A68874B9B68874809010A441201024446
:103370001344053301221A70814B1A68804B9B68F5
:10338000814951F823301344FB617D4B5A687C4BD3
:103390009B687E4951F823301344BB61FB69002BC5
:1033A0001DDBFB690F2B1ADCBB69002B17DBBB692C
:1033B0000F2B14DC724B9B6802335A4203F0030359
:1033C00002F0030258BF53426E48FA691101BA690C
:1033D0000A44120102441344053301221A70674B58
:1033E000DB7A002B48D0664B9B6803335A4203F0CC
:1033F000030302F0030258BF53427B61604B1A681B
:103400005F4B5B685F49120113441B01CA187B695B
:103410001344053301221A70594B1A685A497B69C3
:1034200051F8233013443B61554B5A6857497B6927
:1034300051F823301344FB603B69002B1CDB3B69D4
:103440000F2B19DCFB68002B16DBFB680F2B13DC42
:103450007B6902335A4203F0030302F0030258BFB0
:10346000534248483A691101FA680A441201024479
:103470001344053301221A70404B1B7B002B48D0AC
:103480003F4B9B6801335A4203F0030302F00302EF
:1034900058BF5342BB603A4B1A68394B5B68394995
:1034A000120113441B01CA18BB68134405330122DF
:1034B0001A70334B1A683449BB6851F823301344EF
:1034C0007B602F4B5A683149BB6851F82330134455
:1034D0003B607B68002B1CDB7B680F2B19DC3B6897
:1034E000002B16DB3B680F2B13DCBB6802335A4200
:1034F00003F0030302F0030258BF534221487A68E5
:1035000011013A680A4412010244134405330122AE
:103510001A701B4B1A681A4B5B681A491201134444
:103520001B010B44043301221A70154B1A68144B0B
:103530005B68144811011944090101440C31096800
:1035400001311048120113441B0103440C3319606C
:103550000B4B19680A4B5A68084B9B7A1C46074B61
:10356000DB7A1846054B1B7B0193009023460848E5
:10357000FEF7E4F900BF2437BD4690BD2C140020AF
:10358000181400201804002068DE000878DE000807
:103590006CD4000880B584B000AF786041E0264B61
:1035A0009B687A68D31A04335A4203F0030302F08B
:1035B000030258BF5342FB60FB68012B0ED100F0A1
:1035C00063FC1D4B9B6801335A4203F0030302F076
:1035D000030258BF5342184A936022E0FB68032B52
:1035E0000ED100F011FC144B9B6803335A4203F0D8
:1035F000030302F0030258BF53420F4A936010E0E6
:10360000FB68022B0DD100F07FFC0B4B9B68023353
:103610005A4203F0030302F0030258BF5342064A22
:103620009360054B9B687A689A42B8D100BF00BF8F
:103630001037BD4680BD00BF1814002080B500AF14
:1036400000F068FD0B4B9B7A002B04D00A48FEF774
:103650005FF900230CE000F069FB084B1B690133A4
:10366000064A1361064B1B680133054A13600123A8
:10367000184680BD2C14002098D40008181400208F
:103680006414002080B400AF1C4B1B7B83F001034B
:10369000DBB2002B1ED0194B1A68194B1B689A42DB
:1036A00005D0164B1A68174B1B689A420DD1134B65
:1036B0005A68154B1B689A4205D0104B5A68134B39
:1036C0001B689A4201D1012300E0002303F00103AB
:1036D000DBB20DE0094B1B68002B05D1074B5B6883
:1036E000002B01D1012300E0002303F00103DBB232
:1036F0001846BD465DF8047B704700BF18140020D3
:1037000088DE000890DE00088CDE000894DE0008E9
:1037100080B58AB000AF8148FEF7FAF800237B62DB
:103720004FF47A733B61C0E07D4B1A687C4B5B6859
:10373000796A7C48FEF702F9FFF706FEFFF736FBD1
:10374000FFF7A0FF0346002B32D0754B1B7B83F0A5
:103750000103DBB2002B24D07348FEF7D9F8704B7D
:1037600001221A73FDF728FC00233B6215E00023B9
:10377000FB610CE06D493B6A1A01FB6913441B01B4
:103780000B440C3300221A60FB690133FB61FB69B7
:103790000F2BEFDD3B6A01333B623B6A0F2BE6DD0B
:1037A00006E06348FEF7B4F85D4B01225A7390E0DF
:1037B000FFF7AEFCF860F9685E48FEF7BFF8F868FE
:1037C000FFF7E8FEFFF73AFF0346002B0DD0544BFE
:1037D0001B7B002B04D00121002001F0B7F95EE033
:1037E0000021012001F0B2F959E05348FEF790F8AA
:1037F0000023FB7600237B613EE07A69FB689A42F6
:1038000037D0474B1A684D497B6951F82330134430
:10381000BB60434B5A684A497B6951F823301344D3
:103820007B60BB68002B24DBBB680F2B21DC7B6833
:10383000002B1EDB7B680F2B1BDC394B1A68384BC7
:103840005B683A49120113441B01CA187B6913448F
:1038500005331B7883F00103DBB2002B09D07869B4
:10386000FFF798FEFFF7EAFE0346002B01D0012385
:10387000FB767B6901337B617B69032B05DCFB7E77
:1038800083F00103DBB2002BB7D1FB7E83F0010391
:10389000DBB2002B03D02B48FEF73AF819E07B6A25
:1038A00001337B620A2001F011FA7A6A3B699A427D
:1038B0000FDA1B4B1B7B83F00103DBB2002B7FF481
:1038C00033AF174B5B7B83F00103DBB2002B7FF43C
:1038D0002BAF0021002001F039F9114B1B6919466B
:1038E0001948FEF72BF80E4B1B7B002B0BD00C4B13
:1038F0005B7B002B07D01548FEF70AF800F02AF88A
:10390000FDF76CFB05E01248FEF702F8FDF792FBAD
:1039100000BF00BF2837BD4680BD00BFBCD4000833
:1039200018140020E0D40008FCD40008180400207B
:1039300028D5000854D5000874D5000868DE0008B2
:1039400078DE0008A0D50008BCD50008E0D5000846
:1039500018D6000880B500AF1048FDF7D9FFFDF775
:1039600083FBFDF713FEFDF743FF0D48FDF7D0FF86
:103970000C4B1B6842F20E72934209DC094B1B6828
:1039800019460948FDF7DAFF0848FDF7C1FF02E0D4
:103990000748FDF7BDFF00BF80BD00BF50D600083F
:1039A00078D6000868140020A4D60008D8D60008ED
:1039B00008D7000880B500AF104B00221A600F4BEB
:1039C00000225A600D4B00229A600C4B00221A73A1
:1039D0000A4B00225A73094B00221A61084B00223D
:1039E0001A60084B00221A60FFF760F90648FDF7DD
:1039F0008FFFFDF7C5FA00BF80BD00BF181400207F
:103A000064140020681400203CD7000880B500AF83
:103A10000448FDF77DFF0448FDF77AFF00F006F843
:103A200000BF80BD70D7000898D7000880B586B069
:103A300000AF6448FDF76CFF634B1B7B83F0010311
:103A4000DBB2002B06D1604B5B7B83F00103DBB262
:103A5000002B03D05D48FDF75BFFB0E05C48FDF74D
:103A600057FF594B00221A60574B00225A60564BA1
:103A700000229A600121012001F068F8FDF79CFA0C
:103A80005448FDF745FF01F015F9F8600023FB7578
:103A90000DE0514B1B78DBB2022B05D14E4B0022BF
:103AA0001A700123FB750BE0642001F00FF901F09F
:103AB00001F90246FB68D31A42F20F729342E8D929
:103AC000FB7D83F00103DBB2002B07D04348FDF7F9
:103AD0001FFF0021002001F039F870E04048FDF799
:103AE00017FF00233B613223BB6021E000F012FB93
:103AF000FFF75CF9FFF70CFB78607868FFF74AFD89
:103B0000FFF79CFD0346002B0BD03B6901333B6163
:103B10002D4B1A682C4B5B6839693248FDF70EFF54
:103B200003E03148FDF7F4FE1EE0322001F0CEF84C
:103B3000254B1A682D4B1B689A4205D0224B1A68F8
:103B40002B4B1B689A420BD11F4B5A68294B1B68A1
:103B50009A4209D01C4B5A68274B1B689A4203D0E3
:103B60003A69BB689A42C1DB0021002000F0EEFFF9
:103B7000154B1A681D4B1B689A4205D0124B1A68E8
:103B80001B4B1B689A4215D10F4B5A68194B1B6887
:103B90009A4205D00C4B5A68174B1B689A4209D1C0
:103BA0001648FDF7B5FE39691548FDF7C7FEFDF764
:103BB00015FA04E01348FDF7ABFEFDF73BFA1837A2
:103BC000BD4680BDBCD7000818140020E0D700080F
:103BD0001CD8000854D800086014002084D80008BD
:103BE000A8D80008C4D80008E4D8000888DE000877
:103BF00090DE00088CDE000894DE000800D9000882
:103C00001CD9000834D9000880B483B000AF194B28
:103C10001B685B6AFB80184B1B685B6ABB80174B99
:103C20001B88FA88D31A9BB27B80154B1B88BA88F5
:103C3000D31A9BB23B807B885B429BB27B80B7F9F7
:103C40000220104B1B6813440E4A1360B7F9002082
:103C50000D4B1B6813440C4A1360084AFB88138001
:103C6000074ABB88138000BF0C37BD465DF8047B54
:103C7000704700BFF80200208803002000000020E9
:103C800002000020781400207C14002080B500AFD2
:103C9000FFF7BAFF014B1B68184680BD781400205F
:103CA00080B500AFFFF7B0FF014B1B68184680BD21
:103CB0007C14002080B500AF3C21154803F01CFCAB
:103CC0003C21144803F018FC114B1B684FF40042D0
:103CD0005A62104B1B684FF400425A62012000F0F8
:103CE000F5FF0D4B4FF400421A800C4B4FF400428D
:103CF0001A800B4B00221A600A4B00221A600A4BF2
:103D000000229A60084B0022DA6000BF80BD00BF2D
:103D100088030020F802002000000020020000209C
:103D2000781400207C1400205014002080B58AB044
:103D300000AFFFF7ABFF7862FFF7B2FF38622E4BA0
:103D40001A682D4B9B682D4951F823301344FB61B1
:103D5000294B5A68284B9B68294951F82330134452
:103D6000BB61FB69002B08DBFB690F2B05DCBB6922
:103D7000002B02DBBB690F2B03DD2248FDF7C8FDDA
:103D800037E04FF448720121002000F0DFF84FF4D3
:103D900048720121012000F0D9F84FF47A737B6159
:103DA000FFF774FF3861FFF77BFFF8603A697B6AC1
:103DB000D31ABB60FA683B6AD31A7B60BA687B6827
:103DC0001344DA0F13445B103B603A687B699A42F4
:103DD00003DA012000F07AFFE2E700BF00F09CF870
:103DE000054AFB691360044ABB695360642000F014
:103DF0006DFF2837BD4680BD1814002068DE00081E
:103E000078DE000854D9000880B584B000AFFFF711
:103E100047FFF8604FF448720021002000F096F848
:103E20004FF448720121012000F090F84FF4FA732A
:103E3000BB60FFF735FF78607A68FB68D31A002B08
:103E4000B8BF5B423B603A68BB689A4203DA012024
:103E500000F03CFFEDE700BF00F05EF8094B9B6807
:103E600003335A4203F0030302F0030258BF5342E4
:103E7000044A9360C82000F029FF00BF1037BD46F8
:103E800080BD00BF1814002080B584B000AFFFF7DC
:103E9000FDFEF8604FF448720121002000F056F852
:103EA0004FF448720021012000F050F84FF4FA73EB
:103EB000BB60FFF7EBFE78607A68FB68D31A002BD3
:103EC000B8BF5B423B603A68BB689A4203DA0120A4
:103ED00000F0FCFEEDE700BF00F01EF8094B9B6808
:103EE00001335A4203F0030302F0030258BF534266
:103EF000044A9360C82000F0E9FE00BF1037BD46B9
:103F000080BD00BF1814002080B500AFFFF7BCFFD4
:103F1000FFF7BAFF00BF80BD80B400AF0A4B1B683B
:103F200000225A63084B1B6800229A63064B1B68E9
:103F30000022DA63044B1B6800221A6400BFBD46EE
:103F40005DF8047B704700BF4003002080B584B05B
:103F500000AF0346FB710B46BB711346BB80FB7978
:103F6000002B15D1BB79002B09D01D4B1B68BA88DB
:103F70005A63002280211B4801F0E6FD2BE0184B1C
:103F80001B6800225A63164B1B68BA889A6322E0AA
:103F9000BB79002B14BF01230023DBB283F00103A4
:103FA000DBB2FB73FB7B03F00103FB73FB7B002B9A
:103FB00009D00B4B1B68BA88DA63002202210A4839
:103FC00001F0C2FD07E0064B1B680022DA63044BD8
:103FD0001B68BA881A6400BF1037BD4680BD00BF99
:103FE00040030020000002400004024080B500AF02
:103FF00001224FF480710D4801F0A6FD01224FF41B
:1040000000710A4801F0A0FD01224FF480710848B8
:1040100001F09AFD01224FF40071054801F094FD72
:10402000022000F053FE00BF80BD00BF0000024030
:104030000004024080B500AF00224FF480710B48AD
:1040400001F082FD00224FF40071084801F07CFD70
:1040500000224FF48071064801F076FD00224FF4F3
:104060000071034801F070FD00BF80BD00000240F8
:104070000004024080B588B000AF786007F10C03FF
:1040800000221A605A609A60DA600023FB837B6822
:10409000FB6001233B6104237B6107F10C0319469C
:1040A000184800F0FBFF0346002B04D01648FDF72C
:1040B0002FFC002322E0134800F070FE0346002B83
:1040C00004D01248FDF724FC002317E064210D48BA
:1040D00000F04BFF0346002B07D00D48FDF718FCFE
:1040E000084800F00FFF002308E0064800F0C8FF72
:1040F0000346FB83034800F005FFFB8B184620377F
:10410000BD4680BD100200205CDC00087CDC00089D
:1041100094DC000880B584B000AFFFF78BFF01206E
:1041200000F0D4FD0220FFF7A5FF0346FB8103202A
:10413000FFF7A0FF0346BB810420FFF79BFF034668
:104140007B810520FFF796FF03463B81FFF74EFF7B
:104150000020FFF78FFF03461A464B4B1A800220C0
:10416000FFF788FF03461A46FB89D31A9AB2464BDB
:104170005A800320FFF77EFF03461A46BB89D31AF5
:104180009AB2414B9A800420FFF774FF03461A4607
:104190007B89D31A9AB23C4BDA800520FFF76AFF7D
:1041A00003461A463B89D31A9AB2374B1A81FFF756
:1041B00041FF354B1B89B3F5FA6F04D8324B5B884E
:1041C000B3F5FA6F01D9012300E0002303F00103E6
:1041D000DAB22D4B9A722C4BDB8840F2DC529342C0
:1041E0008CBF01230023DAB2274BDA72264B9B885F
:1041F00040F2DC5293428CBF01230023DAB2224BFF
:104200001A73214B1B88642B15D91F4B1B89B3F5DF
:104210007A6F10D21C4B5B88B3F57A6F0BD21A4BB6
:10422000DB88B3F57A6F06D2174B9B88B3F57A6FAC
:1042300001D2012300E00023FB71FB7903F00103AD
:10424000FB71FB7983F00103DBB2002B0DD00F4B28
:104250001B780133DAB20D4B1A700C4B1B78052B0F
:104260000DD90B4B00221A7009E0084B1B78002B6C
:1042700005D0064B1B78013BDAB2044B1A7000BF25
:104280001037BD4680BD00BF2C14002080140020D4
:104290000400002080B582B000AF0C48FDF738FB69
:1042A00000237B6007E0FFF735FF322000F00EFDB2
:1042B0007B6801337B607B68092BF4DD0448FDF7E4
:1042C00027FB00BF0837BD4680BD00BFB4DC000837
:1042D000D0DC0008B0B58EB000AF4B48FDF718FB3E
:1042E0004A4B5B6C03F48073002B03D04848FDF706
:1042F0000FFB02E04748FDF70BFB444B1B6B03F041
:104300000103002B03D04448FDF702FB02E04348C1
:10431000FDF7FEFA424B1B6C012B03D14148FDF720
:10432000F7FA05E03E4B1B6C19463F48FDF706FBCC
:104330003E48FDF7EDFA3E4B07F120041D460FCD38
:104340000FC42B6823603B4B07F10C041D460FCDB7
:104350000FC42B68236000237B634BE07B6B9B00C7
:1043600038333B4453F8183C1846FFF783FE0346A6
:104370001A467B6B5B0038333B4423F8382C7B6B4D
:104380009B0038333B4453F82C1C7B6B9B00383329
:104390003B4453F8183C002B1FD07B6B9B003833F9
:1043A0003B4453F8183C022B15D07B6B9B003833F1
:1043B0003B4453F8183C032B0BD07B6B9B003833EA
:1043C0003B4453F8183C042B01D1042206E005229B
:1043D00004E0032202E0022200E000227B6B5B008B
:1043E00038333B4433F8383C1348FDF7A7FA7B6B6E
:1043F00001337B637B6B042BB0DD1048FDF788FA3B
:1044000000BF3837BD46B0BDF0DC000800380240C0
:1044100014DD000830DD00084CDD000868DD000810
:104420001002002084DD00089CDD0008B4DD0008D7
:1044300008DE000854DE0008D4DD0008E4DD0008D2
:1044400080B483B000AF00237B60104B5B6C0F4ADD
:1044500043F4804353640D4B5B6C03F480437B60F7
:104460007B6800233B60094B1B6C084A43F0805378
:104470001364064B1B6C03F080533B603B6800BF2A
:104480000C37BD465DF8047B704700BF0038024022
:1044900080B58AB000AF786007F1140300221A607B
:1044A0005A609A60DA601A617B681B68174A934207
:1044B00027D100233B61164B5B6C154A43F4807394
:1044C0005364134B5B6C03F480733B613B690023C3
:1044D000FB600F4B1B6B0E4A43F0010313630C4B45
:1044E0001B6B03F00103FB60FB683D237B6103232F
:1044F000BB610023FB6107F114031946054801F075
:104500009FF900BF2837BD4680BD00BF0020014095
:10451000003802400000024080B58AB000AF7860E9
:1045200007F1140300221A605A609A60DA601A6177
:104530007B681B68194A93422CD100233B61184BBE
:104540001B6C174A43F480431364154B1B6C03F434
:1045500080433B613B690023FB60114B1B6B104A9E
:1045600043F0020313630E4B1B6B03F00203FB606B
:10457000FB684FF460437B610223BB610023FB6156
:1045800003233B6205237B6207F1140319460548A8
:1045900001F056F900BF2837BD4680BD0038004005
:1045A000003802400004024080B584B000AF78605B
:1045B0007B681B68184A934216D10023FB60174B97
:1045C0005B6C164A43F001035364144B5B6C03F0BD
:1045D0000103FB60FB6800220721192001F067F846
:1045E000192001F080F812E07B681B680C4A9342A6
:1045F0000DD10023BB60094B1B6C084A43F002033A
:104600001364064B1B6C03F00203BB60BB6800BF66
:104610001037BD4680BD00BF000001400038024099
:104620000004004080B58CB000AF786007F11C0337
:1046300000221A605A609A60DA601A617B681B680F
:10464000B3F1804F4BD10023BB613F4B1B6C3E4A03
:1046500043F0010313643C4B1B6C03F00103BB618B
:10466000BB6900237B61384B1B6B374A43F0010366
:104670001363354B1B6B03F001037B617B690023E4
:104680003B61314B1B6B304A43F0020313632E4BEB
:104690001B6B03F002033B613B694FF40043FB617A
:1046A00002233B6200237B620023BB620123FB6287
:1046B00007F11C031946254801F0C2F80823FB61E5
:1046C00002233B6200237B620023BB620123FB6267
:1046D00007F11C0319461E4801F0B2F830E07B6870
:1046E0001B681C4A93422BD10023FB60164B1B6CAA
:1046F000154A43F004031364134B1B6C03F00403CB
:10470000FB60FB680023BB600F4B1B6B0E4A43F042
:10471000020313630C4B1B6B03F00203BB60BB680B
:10472000C023FB6102233B6200237B620023BB6248
:104730000223FB6207F11C031946054801F080F8CB
:1047400000BF3037BD4680BD003802400000024047
:10475000000402400008004080B58AB000AF7860D5
:1047600007F1140300221A605A609A60DA601A6135
:104770007B681B68334A93421FD100233B61324B55
:104780001B6B314A43F0010313632F4B1B6B03F088
:1047900001033B613B694FF480637B610223BB6192
:1047A0000023FB6100233B6201237B6207F11403BA
:1047B0001946264801F044F840E07B681B68244A0B
:1047C00093423BD10023FB601F4B1B6B1E4A43F0FF
:1047D000010313631C4B1B6B03F00103FB60FB68BD
:1047E0000023BB60184B1B6B174A43F00203136393
:1047F000154B1B6B03F00203BB60BB68C0237B61DE
:104800000223BB610023FB6100233B6202237B6226
:1048100007F1140319460D4801F012F803237B61D8
:104820000223BB610023FB6100233B6202237B6206
:1048300007F114031946074801F002F800BF2837B2
:10484000BD4680BD0000014000380240000002402B
:10485000000400400004024080B58AB000AF7860D8
:1048600007F1140300221A605A609A60DA601A6134
:104870007B681B681D4A934234D100233B611C4B6B
:104880005B6C1B4A43F020035364194B5B6C03F0D1
:1048900020033B613B690023FB60154B1B6B144AF3
:1048A00043F001031363124B1B6B03F00103FB6026
:1048B000FB684FF4C0537B610223BB610023FB61A3
:1048C00003233B6208237B6207F11403194609485E
:1048D00000F0B6FF00220621472000F0E8FE472046
:1048E00000F001FF00BF2837BD4680BD0014014025
:1048F000003802400000024080B400AF00BFFDE776
:1049000080B400AF00BFFDE780B400AF00BFFDE79B
:1049100080B400AF00BFFDE780B400AF00BFFDE78B
:1049200080B400AF00BFBD465DF8047B704780B423
:1049300000AF00BFBD465DF8047B704780B400AF98
:1049400000BFBD465DF8047B704780B500AF00F046
:104950009DF900BF80BD80B500AF022001F028F9AD
:1049600000BF80BD80B500AF024802F053FE00BF1B
:1049700080BD00BFB002002080B500AF4FF4806062
:1049800001F016F900BF80BD80B500AF024803F00A
:104990006FFD00BF80BD00BFD003002080B400AF1A
:1049A00001231846BD465DF8047B704780B582B090
:1049B00000AF7860396005F081FA034616221A606C
:1049C0004FF0FF3318460837BD4680BD80B582B032
:1049D00000AF78604FF0FF317868FFF7E7FF00BF66
:1049E000FDE780B586B000AFF860B9607A6000235B
:1049F0007B610AE0AFF300800146BB685A1CBA60D5
:104A0000CAB21A707B6901337B617A697B689A420A
:104A1000F0DB7B6818461837BD4680BD80B586B090
:104A200000AFF860B9607A6000237B6109E0BB6881
:104A30005A1CBA601B781846AFF300807B690133BB
:104A40007B617A697B689A42F1DB7B68184618378C
:104A5000BD4680BD80B483B000AF78604FF0FF33B7
:104A600018460C37BD465DF8047B704780B483B0B0
:104A700000AF786039603B684FF400525A60002301
:104A800018460C37BD465DF8047B704780B483B090
:104A900000AF7860012318460C37BD465DF8047BF3
:104AA000704780B485B000AFF860B9607A600023C9
:104AB00018461437BD465DF8047B704780B586B054
:104AC00000AF7860144A154BD31A7B617B693B6158
:104AD000134B1B68002B02D1114B124A1A60104B6A
:104AE0001A687B6813443A699A4207D205F0E6F9DE
:104AF00003460C221A604FF0FF3309E0084B1B6895
:104B0000FB60074B1A687B681344054A1360FB6817
:104B100018461837BD4680BD000002200004000082
:104B200084140020D815002080B400AF064BD3F8C1
:104B30008830054A43F47003C2F8883000BFBD4690
:104B40005DF8047B704700BF00ED00E080B582B0E7
:104B500000AF03460A46FB711346BB71FB79002B7D
:104B600014BF01230023DBB21A461021084800F0CD
:104B7000EBFFBB79002B14BF01230023DBB21A46E5
:104B80002021034800F0E0FF00BF0837BD4680BD8C
:104B900000040240DFF834D0FFF7C6FF0C480D498F
:104BA0000D4A002302E0D458C4500433C4188C4288
:104BB000F9D30A4A0A4C002301E013600432A242EE
:104BC000FBD305F081F9FDF779FA70470000022068
:104BD00000000020DC01002034E20008DC0100209D
:104BE000D8150020FEE7000080B500AF0E4B1B6813
:104BF0000D4A43F4007313600B4B1B680A4A43F4DD
:104C000080631360084B1B68074A43F4807313608A
:104C1000032000F041FD0F2000F008F8FFF710FC22
:104C20000023184680BD00BF003C024080B582B022
:104C300000AF7860124B1A68124B1B7819464FF47C
:104C40007A73B3FBF1F3B2FBF3F3184600F059FDAE
:104C50000346002B01D001230EE07B680F2B0AD8FE
:104C6000002279684FF0FF3000F021FD064A7B6892
:104C70001360002300E0012318460837BD4680BDBD
:104C800008000020100000200C00002080B400AFBD
:104C9000064B1B781A46064B1B681344044A1360E4
:104CA00000BFBD465DF8047B704700BF10000020C8
:104CB0008814002080B400AF034B1B681846BD4623
:104CC0005DF8047B704700BF8814002080B584B075
:104CD00000AF7860FFF7EEFFB8607B68FB60FB68B1
:104CE000B3F1FF3F05D00A4B1B781A46FB6813440B
:104CF000FB6000BFFFF7DEFF0246BB68D31AFA680D
:104D00009A42F7D800BF00BF1037BD4680BD00BF34
:104D10001000002080B584B000AF78600023FB73E2
:104D20007B68002B01D1012333E07B681B6C002BD7
:104D300009D17868FFF7ACFB7B6800225A647B6876
:104D4000002283F83C207B681B6C03F01003002BCF
:104D500018D17B681B6C23F4885323F0020343F0C3
:104D600002027B681A64786800F0CAFA7B68002245
:104D70005A647B681B6C23F0030343F001027B68D9
:104D80001A6401E00123FB737B68002283F83C2056
:104D9000FB7B18461037BD4680BD000080B485B04F
:104DA00000AF78600023BB607B6893F83C30012B38
:104DB00001D1022397E07B68012283F83C207B68C5
:104DC0001B689B6803F00103012B18D07B681B68EC
:104DD0009A687B681B6842F001029A60454B1B6829
:104DE000454AA2FB03239A0C13465B001344BB60A5
:104DF00002E0BB68013BBB60BB68002BF9D17B685C
:104E00001B689B6803F00103012B5FD17B681B6C5F
:104E100023F4E06323F0010343F480727B681A6497
:104E20007B681B685B6803F48063002B07D07B689A
:104E30001B6C23F4405343F480527B681A647B68F4
:104E40001B6C03F48053B3F5805F06D17B685B6C09
:104E500023F006027B685A6402E07B6800225A64F1
:104E60007B68002283F83C20244BFB607B681B6836
:104E70006FF022021A60FB685B6803F01F03002BCF
:104E80000FD17B681B689B6803F04053002B29D12E
:104E90007B681B689A687B681B6842F080429A6056
:104EA00020E07B681B68164A93421BD17B681B6815
:104EB0009B6803F04053002B14D17B681B689A68F1
:104EC0007B681B6842F080429A600BE07B681B6C39
:104ED00043F010027B681A647B685B6C43F001024C
:104EE0007B685A64002318461437BD465DF8047B7E
:104EF000704700BF0800002083DE1B4300230140F1
:104F00000020014080B483B000AF78607B6893F8E4
:104F10003C30012B01D1022321E07B68012283F880
:104F20003C207B681B689A687B681B6822F0010242
:104F30009A607B681B689B6803F00103002B09D112
:104F40007B681B6C23F4885323F0010343F00102B8
:104F50007B681A647B68002283F83C200023184693
:104F60000C37BD465DF8047B704780B584B000AF58
:104F7000786039600023FB607B681B689B6803F4E2
:104F80008063B3F5806F13D17B681B689B6803F463
:104F90008073B3F5807F0BD17B681B6C43F02002DC
:104FA0007B681A647B68002283F83C20012363E05D
:104FB000FFF780FEF86021E03B68B3F1FF3F1DD0B2
:104FC0003B68002B07D0FFF775FE0246FB68D31A3B
:104FD0003A689A4212D27B681B681B6803F002038E
:104FE000022B0BD07B681B6C43F004027B681A64B5
:104FF0007B68002283F83C2003233DE07B681B682C
:105000001B6803F00203022BD6D17B681B686FF08C
:1050100012021A607B681B6C43F400727B681A648E
:105020007B681B689B6803F04053002B23D17B688F
:105030001B7E002B1FD17B681B68DB6A03F47003A7
:10504000002B06D07B681B689B6803F48063002BF1
:1050500011D17B681B6C23F480727B681A647B68B7
:105060001B6C03F48053002B05D17B681B6C43F051
:1050700001027B681A64002318461037BD4680BDC4
:1050800080B483B000AF78607B681B68DB6C184627
:105090000C37BD465DF8047B7047000080B485B0D6
:1050A00000AF786039600023BB607B6893F83C30C8
:1050B000012B01D1022313E17B68012283F83C20FC
:1050C0003B681B68092B25D97B681B68D9683B683E
:1050D0001B689BB21A4613465B0013441E3B072213
:1050E00002FA03F3DA437B681B680A40DA607B68E4
:1050F0001B68D9683B689A683B681B689BB2184676
:1051000003465B0003441E3B9A407B681B680A43CE
:10511000DA6022E07B681B6819693B681B689BB2F8
:105120001A4613465B001344072202FA03F3DA43DC
:105130007B681B680A401A617B681B6819693B68B9
:105140009A683B681B689BB2184603465B000344A1
:105150009A407B681B680A431A613B685B68062BB0
:1051600024D87B681B68596B3B685A6813469B00C0
:105170001344053B1F2202FA03F3DA437B681B68E2
:105180000A405A637B681B68596B3B681B689BB27B
:1051900018463B685A6813469B001344053B00FAC7
:1051A00003F27B681B680A435A634CE03B685B6808
:1051B0000C2B24D87B681B68196B3B685A68134614
:1051C0009B001344233B1F2202FA03F3DA437B685C
:1051D0001B680A401A637B681B68196B3B681B6875
:1051E0009BB218463B685A6813469B001344233B06
:1051F00000FA03F27B681B680A431A6323E07B68AA
:105200001B68D96A3B685A6813469B001344413BAC
:105210001F2202FA03F3DA437B681B680A40DA6252
:105220007B681B68D96A3B681B689BB218463B6861
:105230005A6813469B001344413B00FA03F27B6813
:105240001B680A43DA62294BFB607B681B68284AAB
:1052500093420FD13B681B68122B0BD1FB685B6834
:1052600023F40002FB685A60FB685B6843F4800229
:10527000FB685A607B681B681D4A93422BD13B68D0
:105280001B681C4A934203D03B681B68112B22D138
:10529000FB685B6823F48002FB685A60FB685B680C
:1052A00043F40002FB685A603B681B68114A934252
:1052B00011D1114B1B68114AA2FB03239A0C134610
:1052C0009B0013445B00BB6002E0BB68013BBB601A
:1052D000BB68002BF9D17B68002283F83C200023B7
:1052E00018461437BD465DF8047B70470023014023
:1052F00000200140120000100800002083DE1B4344
:1053000080B485B000AF7860794BFB60FB685B6868
:1053100023F44032FB685A60FB685A687B685B681C
:105320001A43FB685A607B681B685A687B681B6875
:1053300022F480725A607B681B6859687B681B691D
:105340001A027B681B680A435A607B681B685A68AC
:105350007B681B6822F040725A607B681B68596842
:105360007B689A687B681B680A435A607B681B6885
:105370009A687B681B6822F400629A607B681B68ED
:1053800099687B68DA687B681B680A439A607B6867
:105390009B6A584A934222D07B681B689A687B6854
:1053A0001B6822F070629A607B681B6899687B6852
:1053B0009A6A7B681B680A439A607B681B689A68D4
:1053C0007B681B6822F040529A607B681B68996872
:1053D0007B68DA6A7B681B680A439A600FE07B6827
:1053E0001B689A687B681B6822F070629A607B6811
:1053F0001B689A687B681B6822F040529A607B6841
:105400001B689A687B681B6822F002029A607B68BE
:105410001B6899687B681B7E5A007B681B680A437F
:105420009A607B6893F82030002B1BD07B681B6848
:105430005A687B681B6842F400625A607B681B688C
:105440005A687B681B6822F460425A607B681B685C
:1054500059687B685B6A013B5A037B681B680A4397
:105460005A6007E07B681B685A687B681B6822F4F7
:1054700000625A607B681B68DA6A7B681B6822F4EA
:105480007002DA627B681B68D96A7B68DB69013B62
:105490001A057B681B680A43DA627B681B689A6896
:1054A0007B681B6822F400729A607B681B689968AD
:1054B0007B6893F830305A027B681B680A439A6015
:1054C0007B681B689A687B681B6822F480629A601C
:1054D0007B681B6899687B685B699A027B681B68BC
:1054E0000A439A6000BF1437BD465DF8047B7047DD
:1054F000002301400100000F80B485B000AF786048
:105500007B6803F00703FB600C4BDB68BB60BA6889
:105510004FF6FF031340BB60FB681A02BB681343DE
:1055200043F0BF6343F40033BB60044ABB68D360FD
:1055300000BF1437BD465DF8047B704700ED00E006
:1055400080B400AF044BDB681B0A03F00703184666
:10555000BD465DF8047B704700ED00E080B483B089
:1055600000AF0346FB7197F90730002B0BDBFB798B
:1055700003F01F02074997F907305B09012000FA81
:1055800002F241F8232000BF0C37BD465DF8047BD2
:10559000704700BF00E100E080B483B000AF034675
:1055A0003960FB7197F90730002B0ADB3B68DAB2F0
:1055B0000C4997F907301201D2B20B4483F800234B
:1055C0000AE03B68DAB20849FB7903F00F03043BB9
:1055D0001201D2B20B441A7600BF0C37BD465DF8FB
:1055E000047B704700E100E000ED00E080B489B08A
:1055F00000AFF860B9607A60FB6803F00703FB61F5
:10560000FB69C3F10703042B28BF0423BB61FB69BB
:105610000433062B02D9FB69033B00E000237B61C6
:105620004FF0FF32BB6902FA03F3DA43BB681A405A
:105630007B699A404FF0FF317B6901FA03F3D9434C
:105640007B680B40134318462437BD465DF8047B46
:105650007047000080B582B000AF78607B68013B86
:10566000B3F1807F01D301230FE00A4A7B68013B3D
:1056700053600F214FF0FF30FFF78EFF054B0022E4
:105680009A60044B07221A60002318460837BD466B
:1056900080BD00BF10E000E080B582B000AF786050
:1056A0007868FFF729FF00BF0837BD4680BD80B589
:1056B00086B000AF0346B9607A60FB7300237B615C
:1056C000FFF73EFF78617A68B9687869FFF78EFF67
:1056D000024697F90F3011461846FFF75DFF00BFED
:1056E0001837BD4680BD80B582B000AF0346FB7160
:1056F00097F907301846FFF731FF00BF0837BD465E
:1057000080BD80B582B000AF78607868FFF7A2FFF7
:10571000034618460837BD4680BD80B584B000AF4B
:1057200078607B689B6DFB60FFF7C4FAB8607B68AC
:1057300093F83530DBB2022B08D07B6880225A65A3
:105740007B68002283F83420012352E07B681B68C9
:105750001A687B681B6822F016021A607B681B6857
:105760005A697B681B6822F080025A617B681B6C57
:10577000002B03D17B689B6C002B07D07B681B68D8
:105780001A687B681B6822F008021A607B681B6835
:105790001A687B681B6822F001021A6013E0FFF7A9
:1057A00089FA0246BB68D31A052B0CD97B682022E4
:1057B0005A657B68032283F835207B68002283F8D2
:1057C0003420032315E07B681B681B6803F001038A
:1057D000002BE4D17B68DB6D3F229A40FB689A6026
:1057E0007B68012283F835207B68002283F834200F
:1057F000002318461037BD4680BD80B483B000AF8B
:1058000078607B6893F83530DBB2022B04D07B687C
:1058100080225A6501230CE07B68052283F835203D
:105820007B681B681A687B681B6822F001021A609B
:10583000002318460C37BD465DF8047B7047000016
:1058400080B489B000AF7860396000237B610023A9
:105850003B610023BB610023FB6159E10122FB692D
:1058600002FA03F37B613B681B687A6913403B6172
:105870003A697B699A4240F048813B685B6803F073
:105880000303012B05D03B685B6803F00303022B85
:1058900030D17B689B68BB61FB695B00032202FA25
:1058A00003F3DB43BA691340BB613B68DA68FB6909
:1058B0005B0002FA03F3BA691343BB617B68BA6900
:1058C0009A607B685B68BB610122FB6902FA03F3A3
:1058D000DB43BA691340BB613B685B681B0903F09B
:1058E0000102FB6902FA03F3BA691343BB617B68E7
:1058F000BA695A603B685B6803F00303032B17D057
:105900007B68DB68BB61FB695B00032202FA03F37F
:10591000DB43BA691340BB613B689A68FB695B0073
:1059200002FA03F3BA691343BB617B68BA69DA60B0
:105930003B685B6803F00303022B23D1FB69DA08A1
:105940007B68083253F82230BB61FB6903F0070320
:105950009B000F2202FA03F3DB43BA691340BB61D9
:105960003B681A69FB6903F007039B0002FA03F323
:10597000BA691343BB61FB69DA087B680832B9690D
:1059800043F822107B681B68BB61FB695B00032244
:1059900002FA03F3DB43BA691340BB613B685B68FF
:1059A00003F00302FB695B0002FA03F3BA691343D5
:1059B000BB617B68BA691A603B685B6803F440337B
:1059C000002B00F0A2800023FB60574B5B6C564A13
:1059D00043F480435364544B5B6C03F48043FB609B
:1059E000FB68524AFB699B08023352F82330BB61C3
:1059F000FB6903F003039B000F2202FA03F3DB436E
:105A0000BA691340BB617B68494A934219D07B68ED
:105A1000484A934213D07B68474A93420DD07B6833
:105A2000464A934207D07B68454A934201D10423FA
:105A300008E0072306E0032304E0022302E0012339
:105A400000E00023FA6902F0030292009340BA6971
:105A50001343BB613549FB699B080233BA6941F8BE
:105A60002320384B9B68BB613B69DB43BA69134019
:105A7000BB613B685B6803F48013002B03D0BA69F9
:105A80003B691343BB612F4ABB6993602D4BDB68B5
:105A9000BB613B69DB43BA691340BB613B685B6830
:105AA00003F40013002B03D0BA693B691343BB61B5
:105AB000244ABB69D360234B5B68BB613B69DB4312
:105AC000BA691340BB613B685B6803F40033002B89
:105AD00003D0BA693B691343BB611A4ABB6953607F
